{
  "_format": "hh-sol-artifact-1",
  "contractName": "ConstitutionRegistry",
  "sourceName": "contracts/web4/ConstitutionRegistry.sol",
  "abi": [
    {
      "inputs": [
        {
          "internalType": "address",
          "name": "_agentToken",
          "type": "address"
        }
      ],
      "stateMutability": "nonpayable",
      "type": "constructor"
    },
    {
      "inputs": [],
      "name": "AlreadyInitialized",
      "type": "error"
    },
    {
      "inputs": [],
      "name": "EmptyConstitution",
      "type": "error"
    },
    {
      "inputs": [],
      "name": "NotAgentOwner",
      "type": "error"
    },
    {
      "inputs": [],
      "name": "TooManyLaws",
      "type": "error"
    },
    {
      "anonymous": false,
      "inputs": [
        {
          "indexed": true,
          "internalType": "uint256",
          "name": "agentId",
          "type": "uint256"
        },
        {
          "indexed": false,
          "internalType": "uint256",
          "name": "lawCount",
          "type": "uint256"
        },
        {
          "indexed": false,
          "internalType": "bytes32",
          "name": "constitutionHash",
          "type": "bytes32"
        }
      ],
      "name": "ConstitutionInitialized",
      "type": "event"
    },
    {
      "inputs": [],
      "name": "agentToken",
      "outputs": [
        {
          "internalType": "contract IAgentIdentity",
          "name": "",
          "type": "address"
        }
      ],
      "stateMutability": "view",
      "type": "function"
    },
    {
      "inputs": [
        {
          "internalType": "uint256",
          "name": "",
          "type": "uint256"
        }
      ],
      "name": "constitutionHash",
      "outputs": [
        {
          "internalType": "bytes32",
          "name": "",
          "type": "bytes32"
        }
      ],
      "stateMutability": "view",
      "type": "function"
    },
    {
      "inputs": [
        {
          "internalType": "uint256",
          "name": "agentId",
          "type": "uint256"
        },
        {
          "internalType": "uint256",
          "name": "index",
          "type": "uint256"
        }
      ],
      "name": "getLaw",
      "outputs": [
        {
          "components": [
            {
              "internalType": "uint16",
              "name": "lawNumber",
              "type": "uint16"
            },
            {
              "internalType": "bytes32",
              "name": "titleHash",
              "type": "bytes32"
            },
            {
              "internalType": "bytes32",
              "name": "textHash",
              "type": "bytes32"
            }
          ],
          "internalType": "struct ConstitutionRegistry.Law",
          "name": "",
          "type": "tuple"
        }
      ],
      "stateMutability": "view",
      "type": "function"
    },
    {
      "inputs": [
        {
          "internalType": "uint256",
          "name": "agentId",
          "type": "uint256"
        }
      ],
      "name": "getLawCount",
      "outputs": [
        {
          "internalType": "uint256",
          "name": "",
          "type": "uint256"
        }
      ],
      "stateMutability": "view",
      "type": "function"
    },
    {
      "inputs": [
        {
          "internalType": "uint256",
          "name": "agentId",
          "type": "uint256"
        }
      ],
      "name": "getLaws",
      "outputs": [
        {
          "components": [
            {
              "internalType": "uint16",
              "name": "lawNumber",
              "type": "uint16"
            },
            {
              "internalType": "bytes32",
              "name": "titleHash",
              "type": "bytes32"
            },
            {
              "internalType": "bytes32",
              "name": "textHash",
              "type": "bytes32"
            }
          ],
          "internalType": "struct ConstitutionRegistry.Law[]",
          "name": "",
          "type": "tuple[]"
        }
      ],
      "stateMutability": "view",
      "type": "function"
    },
    {
      "inputs": [
        {
          "internalType": "uint256",
          "name": "agentId",
          "type": "uint256"
        },
        {
          "components": [
            {
              "internalType": "uint16",
              "name": "lawNumber",
              "type": "uint16"
            },
            {
              "internalType": "bytes32",
              "name": "titleHash",
              "type": "bytes32"
            },
            {
              "internalType": "bytes32",
              "name": "textHash",
              "type": "bytes32"
            }
          ],
          "internalType": "struct ConstitutionRegistry.Law[]",
          "name": "laws",
          "type": "tuple[]"
        }
      ],
      "name": "initConstitution",
      "outputs": [],
      "stateMutability": "nonpayable",
      "type": "function"
    },
    {
      "inputs": [
        {
          "internalType": "uint256",
          "name": "",
          "type": "uint256"
        }
      ],
      "name": "isInitialized",
      "outputs": [
        {
          "internalType": "bool",
          "name": "",
          "type": "bool"
        }
      ],
      "stateMutability": "view",
      "type": "function"
    },
    {
      "inputs": [
        {
          "internalType": "uint256",
          "name": "agentId",
          "type": "uint256"
        },
        {
          "components": [
            {
              "internalType": "uint16",
              "name": "lawNumber",
              "type": "uint16"
            },
            {
              "internalType": "bytes32",
              "name": "titleHash",
              "type": "bytes32"
            },
            {
              "internalType": "bytes32",
              "name": "textHash",
              "type": "bytes32"
            }
          ],
          "internalType": "struct ConstitutionRegistry.Law[]",
          "name": "laws",
          "type": "tuple[]"
        }
      ],
      "name": "verifyConstitution",
      "outputs": [
        {
          "internalType": "bool",
          "name": "valid",
          "type": "bool"
        }
      ],
      "stateMutability": "view",
      "type": "function"
    }
  ],
  "bytecode": "0x60a03461007257601f61077838819003918201601f19168301916001600160401b038311848410176100775780849260209460405283398101031261007257516001600160a01b03811690819003610072576080526040516106ea908161008e823960805181818160bf015261037e0152f35b600080fd5b634e487b7160e01b600052604160045260246000fdfe6080604081815260048036101561001557600080fd5b600092833560e01c9081630584ca1114610343575080631f88e5a9146102d2578063358dfe06146101d8578063369c055a1461013f578063514245801461011857806388bc07fc146100f2578063b05707e9146100aa5763d9a845d81461007b57600080fd5b346100a65760203660031901126100a6578160209360ff923581526001855220541690519015158152f35b8280fd5b5050346100ee57816003193601126100ee57517f00000000000000000000000000000000000000000000000000000000000000006001600160a01b03168152602090f35b5080fd5b50346100a65760203660031901126100a657602092829135815280845220549051908152f35b50346100a65760203660031901126100a65760209282913581526002845220549051908152f35b5050346100ee5761014f3661059d565b9190849285915b8183106101755750505083839160209552600285522054149051908152f35b90919360019060206101cc8161018c898888610646565b0135916101be8a61019e8b8a8a610646565b01358b519485938401968791606093918352602083015260408201520190565b03601f198101835282610624565b51902094019190610156565b50346100a6576020806003193601126102ce57813584528381528284209384549267ffffffffffffffff84116102bb575093919083519161021e828260051b0184610624565b8083528183018094875282872087915b83831061029457505050508351938185019282865251809352840192945b8281106102595784840385f35b909192826060826102856001948a516040809161ffff8151168452602081015160208501520151910152565b0196019101949291909461024c565b6003856001926102a8859c98999a9c610688565b815201920192019190979594939761022e565b634e487b7160e01b825260419052602490fd5b8380fd5b50346100a657816003193601126100a65761032061031a84610341936060968680516102fd816105f2565b82815282602082015201523581528060205284602435912061066c565b50610688565b915180926040809161ffff8151168452602081015160208501520151910152565bf35b848385346100a6576103543661059d565b6331a9108f60e11b87528685018390529095919390916020906024906001600160a01b03838284817f000000000000000000000000000000000000000000000000000000000000000085165afa918215610593578992610557575b50339116036105475785875260019788835260ff868920541661053857841561052857600a8511610518579290879388925b86841061043857505050508596857fe3b459957b13874c71789ebb94402094459c92da4d65c0786e93eb209b1f9f9d9697528082528488209060ff198254161790556002815281848820558351928352820152a280f35b90919294888a52898552878a20610450878986610646565b90805490680100000000000000008210156105065790610474918e8201815561066c565b9190916104f557803561ffff81168091036104f157825461ffff191617825586810135828e01558901356002909101558a90856104b2888a87610646565b01356104e48a6104c38a8c89610646565b8c518a810195865260208601949094520135604084015281606084016101be565b51902095019291906103e1565b8c80fd5b634e487b7160e01b8c528b8452858cfd5b634e487b7160e01b8d5260418552868dfd5b8551632cb9161360e11b81528490fd5b8551639e5b481360e01b81528490fd5b855162dc149f60e41b81528490fd5b8451630e41dcbf60e21b81528390fd5b9091508381813d831161058c575b61056f8183610624565b810103126105885751818116810361058857908a6103af565b8880fd5b503d610565565b87513d8b823e3d90fd5b60406003198201126105ed576004359160243567ffffffffffffffff928382116105ed57806023830112156105ed5781600401359384116105ed57602460608502830101116105ed576024019190565b600080fd5b6060810190811067ffffffffffffffff82111761060e57604052565b634e487b7160e01b600052604160045260246000fd5b90601f8019910116810190811067ffffffffffffffff82111761060e57604052565b9190811015610656576060020190565b634e487b7160e01b600052603260045260246000fd5b8054821015610656576000526003602060002091020190600090565b90604051610695816105f2565b60406002829461ffff815416845260018101546020850152015491015256fea2646970667358221220c56d055ffaa9c3a50dabd834904fb667c95847cfbfa89c4e7582bbe6f985695a64736f6c63430008180033",
  "linkReferences": {},
  "deployedLinkReferences": {}
}