{
  "_format": "hh-sol-artifact-1",
  "contractName": "HoneycombTokenFactory",
  "sourceName": "contracts/launchpad/HoneycombTokenFactory.sol",
  "abi": [
    {
      "inputs": [
        {
          "internalType": "address",
          "name": "_agentRegistry",
          "type": "address"
        }
      ],
      "stateMutability": "nonpayable",
      "type": "constructor"
    },
    {
      "inputs": [],
      "name": "AgentNotFound",
      "type": "error"
    },
    {
      "inputs": [],
      "name": "InvalidCID",
      "type": "error"
    },
    {
      "inputs": [],
      "name": "InvalidName",
      "type": "error"
    },
    {
      "inputs": [],
      "name": "InvalidSymbol",
      "type": "error"
    },
    {
      "inputs": [],
      "name": "MarketNotSet",
      "type": "error"
    },
    {
      "inputs": [],
      "name": "NotAgentOwner",
      "type": "error"
    },
    {
      "inputs": [
        {
          "internalType": "address",
          "name": "owner",
          "type": "address"
        }
      ],
      "name": "OwnableInvalidOwner",
      "type": "error"
    },
    {
      "inputs": [
        {
          "internalType": "address",
          "name": "account",
          "type": "address"
        }
      ],
      "name": "OwnableUnauthorizedAccount",
      "type": "error"
    },
    {
      "anonymous": false,
      "inputs": [
        {
          "indexed": true,
          "internalType": "address",
          "name": "previousOwner",
          "type": "address"
        },
        {
          "indexed": true,
          "internalType": "address",
          "name": "newOwner",
          "type": "address"
        }
      ],
      "name": "OwnershipTransferred",
      "type": "event"
    },
    {
      "anonymous": false,
      "inputs": [
        {
          "indexed": true,
          "internalType": "address",
          "name": "token",
          "type": "address"
        },
        {
          "indexed": true,
          "internalType": "address",
          "name": "creator",
          "type": "address"
        },
        {
          "indexed": true,
          "internalType": "uint256",
          "name": "creatorBeeId",
          "type": "uint256"
        },
        {
          "indexed": false,
          "internalType": "string",
          "name": "name",
          "type": "string"
        },
        {
          "indexed": false,
          "internalType": "string",
          "name": "symbol",
          "type": "string"
        },
        {
          "indexed": false,
          "internalType": "string",
          "name": "metadataCID",
          "type": "string"
        },
        {
          "indexed": false,
          "internalType": "uint256",
          "name": "timestamp",
          "type": "uint256"
        }
      ],
      "name": "TokenCreated",
      "type": "event"
    },
    {
      "inputs": [],
      "name": "agentRegistry",
      "outputs": [
        {
          "internalType": "contract IAgentRegistry",
          "name": "",
          "type": "address"
        }
      ],
      "stateMutability": "view",
      "type": "function"
    },
    {
      "inputs": [
        {
          "internalType": "uint256",
          "name": "",
          "type": "uint256"
        }
      ],
      "name": "allTokens",
      "outputs": [
        {
          "internalType": "address",
          "name": "",
          "type": "address"
        }
      ],
      "stateMutability": "view",
      "type": "function"
    },
    {
      "inputs": [
        {
          "internalType": "string",
          "name": "name",
          "type": "string"
        },
        {
          "internalType": "string",
          "name": "symbol",
          "type": "string"
        },
        {
          "internalType": "string",
          "name": "metadataCID",
          "type": "string"
        },
        {
          "internalType": "uint256",
          "name": "creatorBeeId",
          "type": "uint256"
        }
      ],
      "name": "createToken",
      "outputs": [
        {
          "internalType": "address",
          "name": "tokenAddress",
          "type": "address"
        }
      ],
      "stateMutability": "nonpayable",
      "type": "function"
    },
    {
      "inputs": [
        {
          "internalType": "address",
          "name": "",
          "type": "address"
        }
      ],
      "name": "isHoneycombToken",
      "outputs": [
        {
          "internalType": "bool",
          "name": "",
          "type": "bool"
        }
      ],
      "stateMutability": "view",
      "type": "function"
    },
    {
      "inputs": [],
      "name": "market",
      "outputs": [
        {
          "internalType": "address",
          "name": "",
          "type": "address"
        }
      ],
      "stateMutability": "view",
      "type": "function"
    },
    {
      "inputs": [],
      "name": "owner",
      "outputs": [
        {
          "internalType": "address",
          "name": "",
          "type": "address"
        }
      ],
      "stateMutability": "view",
      "type": "function"
    },
    {
      "inputs": [],
      "name": "renounceOwnership",
      "outputs": [],
      "stateMutability": "nonpayable",
      "type": "function"
    },
    {
      "inputs": [
        {
          "internalType": "address",
          "name": "_agentRegistry",
          "type": "address"
        }
      ],
      "name": "setAgentRegistry",
      "outputs": [],
      "stateMutability": "nonpayable",
      "type": "function"
    },
    {
      "inputs": [
        {
          "internalType": "address",
          "name": "_market",
          "type": "address"
        }
      ],
      "name": "setMarket",
      "outputs": [],
      "stateMutability": "nonpayable",
      "type": "function"
    },
    {
      "inputs": [
        {
          "internalType": "uint256",
          "name": "index",
          "type": "uint256"
        }
      ],
      "name": "tokenAt",
      "outputs": [
        {
          "internalType": "address",
          "name": "",
          "type": "address"
        }
      ],
      "stateMutability": "view",
      "type": "function"
    },
    {
      "inputs": [
        {
          "internalType": "address",
          "name": "",
          "type": "address"
        }
      ],
      "name": "tokenMetadata",
      "outputs": [
        {
          "internalType": "string",
          "name": "",
          "type": "string"
        }
      ],
      "stateMutability": "view",
      "type": "function"
    },
    {
      "inputs": [],
      "name": "totalTokens",
      "outputs": [
        {
          "internalType": "uint256",
          "name": "",
          "type": "uint256"
        }
      ],
      "stateMutability": "view",
      "type": "function"
    },
    {
      "inputs": [
        {
          "internalType": "address",
          "name": "newOwner",
          "type": "address"
        }
      ],
      "name": "transferOwnership",
      "outputs": [],
      "stateMutability": "nonpayable",
      "type": "function"
    }
  ],
  "bytecode": "0x608060405234801561001057600080fd5b50604051611ad3380380611ad383398101604081905261002f916100d4565b338061005557604051631e4fbdf760e01b81526000600482015260240160405180910390fd5b61005e81610084565b50600180546001600160a01b0319166001600160a01b0392909216919091179055610104565b600080546001600160a01b038381166001600160a01b0319831681178455604051919092169283917f8be0079c531659141344cd1fd0a4f28419497f9722a3daafe3b4186f6b6457e09190a35050565b6000602082840312156100e657600080fd5b81516001600160a01b03811681146100fd57600080fd5b9392505050565b6119c0806101136000396000f3fe60806040523480156200001157600080fd5b5060043610620000e05760003560e01c8063715018a611620000975780638da5cb5b116200006e5780638da5cb5b14620001ea57806392a91a3a14620001fc578063efbe8fd11462000213578063f2fde38b146200022a57600080fd5b8063715018a614620001ba5780637e1c0c0914620001c457806380f5560514620001d657600080fd5b806301c0049514620000e55780630d1cfcae146200012057806328342ecf146200014d578063634282af14620001665780636dcea85f146200017d5780636fecdf241462000194575b600080fd5b6200010b620000f6366004620007e6565b60036020526000908152604090205460ff1681565b60405190151581526020015b60405180910390f35b60015462000134906001600160a01b031681565b6040516001600160a01b03909116815260200162000117565b620001646200015e366004620007e6565b62000241565b005b620001346200017736600462000818565b6200026d565b620001646200018e366004620007e6565b62000298565b620001ab620001a5366004620007e6565b620002c4565b60405162000117919062000832565b6200016462000366565b60055460405190815260200162000117565b60025462000134906001600160a01b031681565b6000546001600160a01b031662000134565b620001346200020d36600462000818565b6200037e565b6200013462000224366004620008cf565b620003b1565b620001646200023b366004620007e6565b62000711565b6200024b62000759565b600180546001600160a01b0319166001600160a01b0392909216919091179055565b600581815481106200027e57600080fd5b6000918252602090912001546001600160a01b0316905081565b620002a262000759565b600280546001600160a01b0319166001600160a01b0392909216919091179055565b60046020526000908152604090208054620002df906200097c565b80601f01602080910402602001604051908101604052809291908181526020018280546200030d906200097c565b80156200035e5780601f1062000332576101008083540402835291602001916200035e565b820191906000526020600020905b8154815290600101906020018083116200034057829003601f168201915b505050505081565b6200037062000759565b6200037c600062000788565b565b600060058281548110620003965762000396620009b8565b6000918252602090912001546001600160a01b031692915050565b6002546000906001600160a01b0316620003de57604051634aec5ac760e01b815260040160405180910390fd5b861580620003ec5750604087115b156200040b5760405163430f13b360e01b815260040160405180910390fd5b841580620004195750601085115b15620004385760405163010466f160e21b815260040160405180910390fd5b60008390036200045b57604051633875d9bd60e21b815260040160405180910390fd5b8115620005845760015460405163de99f15760e01b8152600481018490526001600160a01b039091169063de99f15790602401602060405180830381865afa158015620004ac573d6000803e3d6000fd5b505050506040513d601f19601f82011682018060405250810190620004d29190620009ce565b620004f05760405163e93ba22360e01b815260040160405180910390fd5b600154604051634744f2c960e01b8152336004820152602481018490526001600160a01b0390911690634744f2c990604401602060405180830381865afa15801562000540573d6000803e3d6000fd5b505050506040513d601f19601f82011682018060405250810190620005669190620009ce565b6200058457604051630e41dcbf60e21b815260040160405180910390fd5b6000888888888888886040516200059b90620007d8565b620005ad979695949392919062000a1b565b604051809103906000f080158015620005ca573d6000803e3d6000fd5b50600254604051636dcea85f60e01b81526001600160a01b039182166004820152919350839250821690636dcea85f90602401600060405180830381600087803b1580156200061857600080fd5b505af11580156200062d573d6000803e3d6000fd5b5050506001600160a01b0383166000908152600360209081526040808320805460ff191660011790556004909152902090506200066c85878362000add565b50600580546001810182556000919091527f036b6384b5eca791c62761152d0c79bb0604c104a5fb6f4eb0703f3154bb3db00180546001600160a01b0319166001600160a01b038416908117909155604051849133917ff52ab29786f736471eb1c308fa21cfa846f034756f4941eb19fe52f7bfa59fb790620006fd908e908e908e908e908e908e90429062000a1b565b60405180910390a450979650505050505050565b6200071b62000759565b6001600160a01b0381166200074b57604051631e4fbdf760e01b8152600060048201526024015b60405180910390fd5b620007568162000788565b50565b6000546001600160a01b031633146200037c5760405163118cdaa760e01b815233600482015260240162000742565b600080546001600160a01b038381166001600160a01b0319831681178455604051919092169283917f8be0079c531659141344cd1fd0a4f28419497f9722a3daafe3b4186f6b6457e09190a35050565b610ddf8062000bac83390190565b600060208284031215620007f957600080fd5b81356001600160a01b03811681146200081157600080fd5b9392505050565b6000602082840312156200082b57600080fd5b5035919050565b60006020808352835180602085015260005b81811015620008625785810183015185820160400152820162000844565b506000604082860101526040601f19601f8301168501019250505092915050565b60008083601f8401126200089657600080fd5b50813567ffffffffffffffff811115620008af57600080fd5b602083019150836020828501011115620008c857600080fd5b9250929050565b60008060008060008060006080888a031215620008eb57600080fd5b873567ffffffffffffffff808211156200090457600080fd5b620009128b838c0162000883565b909950975060208a01359150808211156200092c57600080fd5b6200093a8b838c0162000883565b909750955060408a01359150808211156200095457600080fd5b50620009638a828b0162000883565b989b979a50959894979596606090950135949350505050565b600181811c908216806200099157607f821691505b602082108103620009b257634e487b7160e01b600052602260045260246000fd5b50919050565b634e487b7160e01b600052603260045260246000fd5b600060208284031215620009e157600080fd5b815180151581146200081157600080fd5b81835281816020850137506000828201602090810191909152601f909101601f19169091010190565b60808152600062000a3160808301898b620009f2565b828103602084015262000a4681888a620009f2565b9050828103604084015262000a5d818688620009f2565b91505082606083015298975050505050505050565b634e487b7160e01b600052604160045260246000fd5b601f82111562000ad8576000816000526020600020601f850160051c8101602086101562000ab35750805b601f850160051c820191505b8181101562000ad45782815560010162000abf565b5050505b505050565b67ffffffffffffffff83111562000af85762000af862000a72565b62000b108362000b0983546200097c565b8362000a88565b6000601f84116001811462000b47576000851562000b2e5750838201355b600019600387901b1c1916600186901b17835562000ba4565b600083815260209020601f19861690835b8281101562000b7a578685013582556020948501946001909201910162000b58565b508682101562000b985760001960f88860031b161c19848701351681555b505060018560011b0183555b505050505056fe60a06040523480156200001157600080fd5b5060405162000ddf38038062000ddf83398101604081905262000034916200013e565b8383600362000044838262000268565b50600462000053828262000268565b50503360805250600662000068838262000268565b506007555062000334915050565b634e487b7160e01b600052604160045260246000fd5b600082601f8301126200009e57600080fd5b81516001600160401b0380821115620000bb57620000bb62000076565b604051601f8301601f19908116603f01168101908282118183101715620000e657620000e662000076565b81604052838152602092508660208588010111156200010457600080fd5b600091505b8382101562000128578582018301518183018401529082019062000109565b6000602085830101528094505050505092915050565b600080600080608085870312156200015557600080fd5b84516001600160401b03808211156200016d57600080fd5b6200017b888389016200008c565b955060208701519150808211156200019257600080fd5b620001a0888389016200008c565b94506040870151915080821115620001b757600080fd5b50620001c6878288016200008c565b606096909601519497939650505050565b600181811c90821680620001ec57607f821691505b6020821081036200020d57634e487b7160e01b600052602260045260246000fd5b50919050565b601f82111562000263576000816000526020600020601f850160051c810160208610156200023e5750805b601f850160051c820191505b818110156200025f578281556001016200024a565b5050505b505050565b81516001600160401b0381111562000284576200028462000076565b6200029c81620002958454620001d7565b8462000213565b602080601f831160018114620002d45760008415620002bb5750858301515b600019600386901b1c1916600185901b1785556200025f565b600085815260208120601f198616915b828110156200030557888601518255948401946001909101908401620002e4565b5085821015620003245787850151600019600388901b60f8161c191681555b5050505050600190811b01905550565b608051610a88620003576000396000818161024f01526104950152610a886000f3fe608060405234801561001057600080fd5b506004361061010b5760003560e01c80636dcea85f116100a25780639dc29fac116100715780639dc29fac14610224578063a9059cbb14610237578063c45a01551461024a578063dd62ed3e14610271578063e03d9141146102aa57600080fd5b80636dcea85f146101b557806370a08231146101c857806380f55605146101f157806395d89b411461021c57600080fd5b8063313ce567116100de578063313ce5671461017657806332cb6b0c1461018557806340c10f191461019857806358871c46146101ad57600080fd5b806306fdde0314610110578063095ea7b31461012e57806318160ddd1461015157806323b872dd14610163575b600080fd5b6101186102b3565b60405161012591906108d1565b60405180910390f35b61014161013c36600461093c565b610345565b6040519015158152602001610125565b6002545b604051908152602001610125565b610141610171366004610966565b61035f565b60405160128152602001610125565b6101556b033b2e3c9fd0803ce800000081565b6101ab6101a636600461093c565b610383565b005b6101186103fc565b6101ab6101c33660046109a2565b61048a565b6101556101d63660046109a2565b6001600160a01b031660009081526020819052604090205490565b600554610204906001600160a01b031681565b6040516001600160a01b039091168152602001610125565b61011861051f565b6101ab61023236600461093c565b61052e565b61014161024536600461093c565b610563565b6102047f000000000000000000000000000000000000000000000000000000000000000081565b61015561027f3660046109c4565b6001600160a01b03918216600090815260016020908152604080832093909416825291909152205490565b61015560075481565b6060600380546102c2906109f7565b80601f01602080910402602001604051908101604052809291908181526020018280546102ee906109f7565b801561033b5780601f106103105761010080835404028352916020019161033b565b820191906000526020600020905b81548152906001019060200180831161031e57829003601f168201915b5050505050905090565b600033610353818585610571565b60019150505b92915050565b60003361036d858285610583565b610378858585610607565b506001949350505050565b6005546001600160a01b031633146103ae5760405163c4bbea6960e01b815260040160405180910390fd5b6b033b2e3c9fd0803ce8000000816103c560025490565b6103cf9190610a31565b11156103ee57604051638a164f6360e01b815260040160405180910390fd5b6103f88282610666565b5050565b60068054610409906109f7565b80601f0160208091040260200160405190810160405280929190818152602001828054610435906109f7565b80156104825780601f1061045757610100808354040283529160200191610482565b820191906000526020600020905b81548152906001019060200180831161046557829003601f168201915b505050505081565b336001600160a01b037f000000000000000000000000000000000000000000000000000000000000000016146104d357604051631966391b60e11b815260040160405180910390fd5b6005546001600160a01b0316156104fd576040516306ddda6b60e01b815260040160405180910390fd5b600580546001600160a01b0319166001600160a01b0392909216919091179055565b6060600480546102c2906109f7565b6005546001600160a01b031633146105595760405163c4bbea6960e01b815260040160405180910390fd5b6103f8828261069c565b600033610353818585610607565b61057e83838360016106d2565b505050565b6001600160a01b0383811660009081526001602090815260408083209386168352929052205460001981101561060157818110156105f257604051637dc7a0d960e11b81526001600160a01b038416600482015260248101829052604481018390526064015b60405180910390fd5b610601848484840360006106d2565b50505050565b6001600160a01b03831661063157604051634b637e8f60e11b8152600060048201526024016105e9565b6001600160a01b03821661065b5760405163ec442f0560e01b8152600060048201526024016105e9565b61057e8383836107a7565b6001600160a01b0382166106905760405163ec442f0560e01b8152600060048201526024016105e9565b6103f8600083836107a7565b6001600160a01b0382166106c657604051634b637e8f60e11b8152600060048201526024016105e9565b6103f8826000836107a7565b6001600160a01b0384166106fc5760405163e602df0560e01b8152600060048201526024016105e9565b6001600160a01b03831661072657604051634a1406b160e11b8152600060048201526024016105e9565b6001600160a01b038085166000908152600160209081526040808320938716835292905220829055801561060157826001600160a01b0316846001600160a01b03167f8c5be1e5ebec7d5bd14f71427d1e84f3dd0314c0f7b2291e5b200ac8c7c3b9258460405161079991815260200190565b60405180910390a350505050565b6001600160a01b0383166107d25780600260008282546107c79190610a31565b909155506108449050565b6001600160a01b038316600090815260208190526040902054818110156108255760405163391434e360e21b81526001600160a01b038516600482015260248101829052604481018390526064016105e9565b6001600160a01b03841660009081526020819052604090209082900390555b6001600160a01b0382166108605760028054829003905561087f565b6001600160a01b03821660009081526020819052604090208054820190555b816001600160a01b0316836001600160a01b03167fddf252ad1be2c89b69c2b068fc378daa952ba7f163c4a11628f55a4df523b3ef836040516108c491815260200190565b60405180910390a3505050565b60006020808352835180602085015260005b818110156108ff578581018301518582016040015282016108e3565b506000604082860101526040601f19601f8301168501019250505092915050565b80356001600160a01b038116811461093757600080fd5b919050565b6000806040838503121561094f57600080fd5b61095883610920565b946020939093013593505050565b60008060006060848603121561097b57600080fd5b61098484610920565b925061099260208501610920565b9150604084013590509250925092565b6000602082840312156109b457600080fd5b6109bd82610920565b9392505050565b600080604083850312156109d757600080fd5b6109e083610920565b91506109ee60208401610920565b90509250929050565b600181811c90821680610a0b57607f821691505b602082108103610a2b57634e487b7160e01b600052602260045260246000fd5b50919050565b8082018082111561035957634e487b7160e01b600052601160045260246000fdfea264697066735822122007d70f9f75c018eb71548bd697e7713671d8ea457c8ac089f1ce87afcd80908e64736f6c63430008180033a2646970667358221220b07daff96cc1cc1eab0bb1a20eaab35b7add12eef784f835e19d106cdf733a6564736f6c63430008180033",
  "linkReferences": {},
  "deployedLinkReferences": {}
}