{
  "_format": "hh-sol-artifact-1",
  "contractName": "HoneycombTokenFactory",
  "sourceName": "contracts/launchpad/HoneycombTokenFactory.sol",
  "abi": [
    {
      "inputs": [
        {
          "internalType": "address",
          "name": "_agentRegistry",
          "type": "address"
        }
      ],
      "stateMutability": "nonpayable",
      "type": "constructor"
    },
    {
      "inputs": [],
      "name": "AgentNotFound",
      "type": "error"
    },
    {
      "inputs": [],
      "name": "InvalidCID",
      "type": "error"
    },
    {
      "inputs": [],
      "name": "InvalidName",
      "type": "error"
    },
    {
      "inputs": [],
      "name": "InvalidSymbol",
      "type": "error"
    },
    {
      "inputs": [],
      "name": "MarketNotSet",
      "type": "error"
    },
    {
      "inputs": [],
      "name": "NotAgentOwner",
      "type": "error"
    },
    {
      "inputs": [
        {
          "internalType": "address",
          "name": "owner",
          "type": "address"
        }
      ],
      "name": "OwnableInvalidOwner",
      "type": "error"
    },
    {
      "inputs": [
        {
          "internalType": "address",
          "name": "account",
          "type": "address"
        }
      ],
      "name": "OwnableUnauthorizedAccount",
      "type": "error"
    },
    {
      "inputs": [],
      "name": "TokenDeploymentFailed",
      "type": "error"
    },
    {
      "anonymous": false,
      "inputs": [
        {
          "indexed": true,
          "internalType": "address",
          "name": "previousOwner",
          "type": "address"
        },
        {
          "indexed": true,
          "internalType": "address",
          "name": "newOwner",
          "type": "address"
        }
      ],
      "name": "OwnershipTransferred",
      "type": "event"
    },
    {
      "anonymous": false,
      "inputs": [
        {
          "indexed": true,
          "internalType": "address",
          "name": "token",
          "type": "address"
        },
        {
          "indexed": true,
          "internalType": "address",
          "name": "creator",
          "type": "address"
        },
        {
          "indexed": true,
          "internalType": "uint256",
          "name": "creatorBeeId",
          "type": "uint256"
        },
        {
          "indexed": false,
          "internalType": "string",
          "name": "name",
          "type": "string"
        },
        {
          "indexed": false,
          "internalType": "string",
          "name": "symbol",
          "type": "string"
        },
        {
          "indexed": false,
          "internalType": "string",
          "name": "metadataCID",
          "type": "string"
        },
        {
          "indexed": false,
          "internalType": "uint256",
          "name": "timestamp",
          "type": "uint256"
        }
      ],
      "name": "TokenCreated",
      "type": "event"
    },
    {
      "inputs": [],
      "name": "agentRegistry",
      "outputs": [
        {
          "internalType": "contract IAgentRegistry",
          "name": "",
          "type": "address"
        }
      ],
      "stateMutability": "view",
      "type": "function"
    },
    {
      "inputs": [
        {
          "internalType": "uint256",
          "name": "",
          "type": "uint256"
        }
      ],
      "name": "allTokens",
      "outputs": [
        {
          "internalType": "address",
          "name": "",
          "type": "address"
        }
      ],
      "stateMutability": "view",
      "type": "function"
    },
    {
      "inputs": [
        {
          "internalType": "string",
          "name": "name",
          "type": "string"
        },
        {
          "internalType": "string",
          "name": "symbol",
          "type": "string"
        },
        {
          "internalType": "string",
          "name": "metadataCID",
          "type": "string"
        },
        {
          "internalType": "uint256",
          "name": "creatorBeeId",
          "type": "uint256"
        },
        {
          "internalType": "bytes32",
          "name": "salt",
          "type": "bytes32"
        }
      ],
      "name": "createToken",
      "outputs": [
        {
          "internalType": "address",
          "name": "tokenAddress",
          "type": "address"
        }
      ],
      "stateMutability": "nonpayable",
      "type": "function"
    },
    {
      "inputs": [
        {
          "internalType": "address",
          "name": "",
          "type": "address"
        }
      ],
      "name": "isHoneycombToken",
      "outputs": [
        {
          "internalType": "bool",
          "name": "",
          "type": "bool"
        }
      ],
      "stateMutability": "view",
      "type": "function"
    },
    {
      "inputs": [],
      "name": "market",
      "outputs": [
        {
          "internalType": "address",
          "name": "",
          "type": "address"
        }
      ],
      "stateMutability": "view",
      "type": "function"
    },
    {
      "inputs": [],
      "name": "owner",
      "outputs": [
        {
          "internalType": "address",
          "name": "",
          "type": "address"
        }
      ],
      "stateMutability": "view",
      "type": "function"
    },
    {
      "inputs": [
        {
          "internalType": "string",
          "name": "name",
          "type": "string"
        },
        {
          "internalType": "string",
          "name": "symbol",
          "type": "string"
        },
        {
          "internalType": "string",
          "name": "metadataCID",
          "type": "string"
        },
        {
          "internalType": "uint256",
          "name": "creatorBeeId",
          "type": "uint256"
        },
        {
          "internalType": "bytes32",
          "name": "salt",
          "type": "bytes32"
        }
      ],
      "name": "predictTokenAddress",
      "outputs": [
        {
          "internalType": "address",
          "name": "",
          "type": "address"
        }
      ],
      "stateMutability": "view",
      "type": "function"
    },
    {
      "inputs": [],
      "name": "renounceOwnership",
      "outputs": [],
      "stateMutability": "nonpayable",
      "type": "function"
    },
    {
      "inputs": [
        {
          "internalType": "address",
          "name": "_agentRegistry",
          "type": "address"
        }
      ],
      "name": "setAgentRegistry",
      "outputs": [],
      "stateMutability": "nonpayable",
      "type": "function"
    },
    {
      "inputs": [
        {
          "internalType": "address",
          "name": "_market",
          "type": "address"
        }
      ],
      "name": "setMarket",
      "outputs": [],
      "stateMutability": "nonpayable",
      "type": "function"
    },
    {
      "inputs": [
        {
          "internalType": "uint256",
          "name": "index",
          "type": "uint256"
        }
      ],
      "name": "tokenAt",
      "outputs": [
        {
          "internalType": "address",
          "name": "",
          "type": "address"
        }
      ],
      "stateMutability": "view",
      "type": "function"
    },
    {
      "inputs": [
        {
          "internalType": "address",
          "name": "",
          "type": "address"
        }
      ],
      "name": "tokenMetadata",
      "outputs": [
        {
          "internalType": "string",
          "name": "",
          "type": "string"
        }
      ],
      "stateMutability": "view",
      "type": "function"
    },
    {
      "inputs": [],
      "name": "totalTokens",
      "outputs": [
        {
          "internalType": "uint256",
          "name": "",
          "type": "uint256"
        }
      ],
      "stateMutability": "view",
      "type": "function"
    },
    {
      "inputs": [
        {
          "internalType": "address",
          "name": "newOwner",
          "type": "address"
        }
      ],
      "name": "transferOwnership",
      "outputs": [],
      "stateMutability": "nonpayable",
      "type": "function"
    }
  ],
  "bytecode": "0x608060405234801561001057600080fd5b50604051611c8a380380611c8a83398101604081905261002f916100d4565b338061005557604051631e4fbdf760e01b81526000600482015260240160405180910390fd5b61005e81610084565b50600180546001600160a01b0319166001600160a01b0392909216919091179055610104565b600080546001600160a01b038381166001600160a01b0319831681178455604051919092169283917f8be0079c531659141344cd1fd0a4f28419497f9722a3daafe3b4186f6b6457e09190a35050565b6000602082840312156100e657600080fd5b81516001600160a01b03811681146100fd57600080fd5b9392505050565b611b77806101136000396000f3fe60806040523480156200001157600080fd5b5060043610620000fd5760003560e01c8063715018a611620000975780638da5cb5b116200006e5780638da5cb5b146200021e57806392a91a3a1462000230578063c9c77cf01462000247578063f2fde38b146200025e57600080fd5b8063715018a614620001ee5780637e1c0c0914620001f857806380f55605146200020a57600080fd5b806328342ecf11620000d857806328342ecf1462000181578063634282af146200019a5780636dcea85f14620001b15780636fecdf2414620001c857600080fd5b806301c0049514620001025780630d1cfcae146200013d578063177021fc146200016a575b600080fd5b620001286200011336600462000916565b60036020526000908152604090205460ff1681565b60405190151581526020015b60405180910390f35b60015462000151906001600160a01b031681565b6040516001600160a01b03909116815260200162000134565b620001516200017b36600462000994565b62000275565b620001986200019236600462000916565b620005d3565b005b62000151620001ab36600462000a47565b620005ff565b62000198620001c236600462000916565b6200062a565b620001df620001d936600462000916565b62000656565b60405162000134919062000a87565b62000198620006f8565b60055460405190815260200162000134565b60025462000151906001600160a01b031681565b6000546001600160a01b031662000151565b620001516200024136600462000a47565b62000710565b620001516200025836600462000994565b62000743565b620001986200026f36600462000916565b620007c0565b6002546000906001600160a01b0316620002a257604051634aec5ac760e01b815260040160405180910390fd5b871580620002b05750604088115b15620002cf5760405163430f13b360e01b815260040160405180910390fd5b851580620002dd5750601086115b15620002fc5760405163010466f160e21b815260040160405180910390fd5b60008490036200031f57604051633875d9bd60e21b815260040160405180910390fd5b8215620004485760015460405163de99f15760e01b8152600481018590526001600160a01b039091169063de99f15790602401602060405180830381865afa15801562000370573d6000803e3d6000fd5b505050506040513d601f19601f8201168201806040525081019062000396919062000abc565b620003b45760405163e93ba22360e01b815260040160405180910390fd5b600154604051634744f2c960e01b8152336004820152602481018590526001600160a01b0390911690634744f2c990604401602060405180830381865afa15801562000404573d6000803e3d6000fd5b505050506040513d601f19601f820116820180604052508101906200042a919062000abc565b6200044857604051630e41dcbf60e21b815260040160405180910390fd5b60006200045b8a8a8a8a8a8a8a62000808565b9050828151602083016000f591506001600160a01b0382166200049157604051636851855360e11b815260040160405180910390fd5b600254604051636dcea85f60e01b81526001600160a01b03918216600482015290831690636dcea85f90602401600060405180830381600087803b158015620004d957600080fd5b505af1158015620004ee573d6000803e3d6000fd5b5050506001600160a01b0383166000908152600360209081526040808320805460ff191660011790556004909152902090506200052d86888362000b87565b50600580546001810182556000919091527f036b6384b5eca791c62761152d0c79bb0604c104a5fb6f4eb0703f3154bb3db00180546001600160a01b0319166001600160a01b038416908117909155604051859133917ff52ab29786f736471eb1c308fa21cfa846f034756f4941eb19fe52f7bfa59fb790620005be908f908f908f908f908f908f90429062000c7e565b60405180910390a45098975050505050505050565b620005dd62000889565b600180546001600160a01b0319166001600160a01b0392909216919091179055565b600581815481106200061057600080fd5b6000918252602090912001546001600160a01b0316905081565b6200063462000889565b600280546001600160a01b0319166001600160a01b0392909216919091179055565b60046020526000908152604090208054620006719062000af6565b80601f01602080910402602001604051908101604052809291908181526020018280546200069f9062000af6565b8015620006f05780601f10620006c457610100808354040283529160200191620006f0565b820191906000526020600020905b815481529060010190602001808311620006d257829003601f168201915b505050505081565b6200070262000889565b6200070e6000620008b8565b565b60006005828154811062000728576200072862000cd5565b6000918252602090912001546001600160a01b031692915050565b600080620007578a8a8a8a8a8a8a62000808565b8051602091820120604080516001600160f81b0319818501523060601b6bffffffffffffffffffffffff19166021820152603581019690965260558087019290925280518087039092018252607590950190945283519301929092209998505050505050505050565b620007ca62000889565b6001600160a01b038116620007fa57604051631e4fbdf760e01b8152600060048201526024015b60405180910390fd5b6200080581620008b8565b50565b6060604051806020016200081c9062000908565b601f1982820381018352601f9091011660408190526200084d908a908a908a908a908a908a908a9060200162000c7e565b60408051601f19818403018152908290526200086d929160200162000ceb565b6040516020818303038152906040529050979650505050505050565b6000546001600160a01b031633146200070e5760405163118cdaa760e01b8152336004820152602401620007f1565b600080546001600160a01b038381166001600160a01b0319831681178455604051919092169283917f8be0079c531659141344cd1fd0a4f28419497f9722a3daafe3b4186f6b6457e09190a35050565b610e238062000d1f83390190565b6000602082840312156200092957600080fd5b81356001600160a01b03811681146200094157600080fd5b9392505050565b60008083601f8401126200095b57600080fd5b50813567ffffffffffffffff8111156200097457600080fd5b6020830191508360208285010111156200098d57600080fd5b9250929050565b60008060008060008060008060a0898b031215620009b157600080fd5b883567ffffffffffffffff80821115620009ca57600080fd5b620009d88c838d0162000948565b909a50985060208b0135915080821115620009f257600080fd5b62000a008c838d0162000948565b909850965060408b013591508082111562000a1a57600080fd5b5062000a298b828c0162000948565b999c989b509699959896976060870135966080013595509350505050565b60006020828403121562000a5a57600080fd5b5035919050565b60005b8381101562000a7e57818101518382015260200162000a64565b50506000910152565b602081526000825180602084015262000aa881604085016020870162000a61565b601f01601f19169190910160400192915050565b60006020828403121562000acf57600080fd5b815180151581146200094157600080fd5b634e487b7160e01b600052604160045260246000fd5b600181811c9082168062000b0b57607f821691505b60208210810362000b2c57634e487b7160e01b600052602260045260246000fd5b50919050565b601f82111562000b82576000816000526020600020601f850160051c8101602086101562000b5d5750805b601f850160051c820191505b8181101562000b7e5782815560010162000b69565b5050505b505050565b67ffffffffffffffff83111562000ba25762000ba262000ae0565b62000bba8362000bb3835462000af6565b8362000b32565b6000601f84116001811462000bf1576000851562000bd85750838201355b600019600387901b1c1916600186901b17835562000c4e565b600083815260209020601f19861690835b8281101562000c24578685013582556020948501946001909201910162000c02565b508682101562000c425760001960f88860031b161c19848701351681555b505060018560011b0183555b5050505050565b81835281816020850137506000828201602090810191909152601f909101601f19169091010190565b60808152600062000c9460808301898b62000c55565b828103602084015262000ca981888a62000c55565b9050828103604084015262000cc081868862000c55565b91505082606083015298975050505050505050565b634e487b7160e01b600052603260045260246000fd5b6000835162000cff81846020880162000a61565b83519083019062000d1581836020880162000a61565b0194935050505056fe60a06040523480156200001157600080fd5b5060405162000e2338038062000e2383398101604081905262000034916200013e565b8383600362000044838262000268565b50600462000053828262000268565b50503360805250600662000068838262000268565b506007555062000334915050565b634e487b7160e01b600052604160045260246000fd5b600082601f8301126200009e57600080fd5b81516001600160401b0380821115620000bb57620000bb62000076565b604051601f8301601f19908116603f01168101908282118183101715620000e657620000e662000076565b81604052838152602092508660208588010111156200010457600080fd5b600091505b8382101562000128578582018301518183018401529082019062000109565b6000602085830101528094505050505092915050565b600080600080608085870312156200015557600080fd5b84516001600160401b03808211156200016d57600080fd5b6200017b888389016200008c565b955060208701519150808211156200019257600080fd5b620001a0888389016200008c565b94506040870151915080821115620001b757600080fd5b50620001c6878288016200008c565b606096909601519497939650505050565b600181811c90821680620001ec57607f821691505b6020821081036200020d57634e487b7160e01b600052602260045260246000fd5b50919050565b601f82111562000263576000816000526020600020601f850160051c810160208610156200023e5750805b601f850160051c820191505b818110156200025f578281556001016200024a565b5050505b505050565b81516001600160401b0381111562000284576200028462000076565b6200029c81620002958454620001d7565b8462000213565b602080601f831160018114620002d45760008415620002bb5750858301515b600019600386901b1c1916600185901b1785556200025f565b600085815260208120601f198616915b828110156200030557888601518255948401946001909101908401620002e4565b5085821015620003245787850151600019600388901b60f8161c191681555b5050505050600190811b01905550565b608051610acc620003576000396000818161026d01526104b30152610acc6000f3fe608060405234801561001057600080fd5b50600436106101165760003560e01c806370a08231116100a2578063a9059cbb11610071578063a9059cbb14610242578063b8b12a1e14610255578063c45a015514610268578063dd62ed3e1461028f578063e03d9141146102c857600080fd5b806370a08231146101d357806380f55605146101fc57806395d89b41146102275780639dc29fac1461022f57600080fd5b8063313ce567116100e9578063313ce5671461018157806332cb6b0c1461019057806340c10f19146101a357806358871c46146101b85780636dcea85f146101c057600080fd5b806306fdde031461011b578063095ea7b31461013957806318160ddd1461015c57806323b872dd1461016e575b600080fd5b6101236102d1565b60405161013091906108fc565b60405180910390f35b61014c610147366004610967565b610363565b6040519015158152602001610130565b6002545b604051908152602001610130565b61014c61017c366004610991565b61037d565b60405160128152602001610130565b6101606b033b2e3c9fd0803ce800000081565b6101b66101b1366004610967565b6103a1565b005b61012361041a565b6101b66101ce3660046109cd565b6104a8565b6101606101e13660046109cd565b6001600160a01b031660009081526020819052604090205490565b60055461020f906001600160a01b031681565b6040516001600160a01b039091168152602001610130565b61012361053d565b6101b661023d366004610967565b61054c565b61014c610250366004610967565b610581565b6101b66102633660046109ef565b61058f565b61020f7f000000000000000000000000000000000000000000000000000000000000000081565b61016061029d366004610a08565b6001600160a01b03918216600090815260016020908152604080832093909416825291909152205490565b61016060075481565b6060600380546102e090610a3b565b80601f016020809104026020016040519081016040528092919081815260200182805461030c90610a3b565b80156103595780601f1061032e57610100808354040283529160200191610359565b820191906000526020600020905b81548152906001019060200180831161033c57829003601f168201915b5050505050905090565b60003361037181858561059c565b60019150505b92915050565b60003361038b8582856105ae565b610396858585610632565b506001949350505050565b6005546001600160a01b031633146103cc5760405163c4bbea6960e01b815260040160405180910390fd5b6b033b2e3c9fd0803ce8000000816103e360025490565b6103ed9190610a75565b111561040c57604051638a164f6360e01b815260040160405180910390fd5b6104168282610691565b5050565b6006805461042790610a3b565b80601f016020809104026020016040519081016040528092919081815260200182805461045390610a3b565b80156104a05780601f10610475576101008083540402835291602001916104a0565b820191906000526020600020905b81548152906001019060200180831161048357829003601f168201915b505050505081565b336001600160a01b037f000000000000000000000000000000000000000000000000000000000000000016146104f157604051631966391b60e11b815260040160405180910390fd5b6005546001600160a01b03161561051b576040516306ddda6b60e01b815260040160405180910390fd5b600580546001600160a01b0319166001600160a01b0392909216919091179055565b6060600480546102e090610a3b565b6005546001600160a01b031633146105775760405163c4bbea6960e01b815260040160405180910390fd5b61041682826106c7565b600033610371818585610632565b61059933826106c7565b50565b6105a983838360016106fd565b505050565b6001600160a01b0383811660009081526001602090815260408083209386168352929052205460001981101561062c578181101561061d57604051637dc7a0d960e11b81526001600160a01b038416600482015260248101829052604481018390526064015b60405180910390fd5b61062c848484840360006106fd565b50505050565b6001600160a01b03831661065c57604051634b637e8f60e11b815260006004820152602401610614565b6001600160a01b0382166106865760405163ec442f0560e01b815260006004820152602401610614565b6105a98383836107d2565b6001600160a01b0382166106bb5760405163ec442f0560e01b815260006004820152602401610614565b610416600083836107d2565b6001600160a01b0382166106f157604051634b637e8f60e11b815260006004820152602401610614565b610416826000836107d2565b6001600160a01b0384166107275760405163e602df0560e01b815260006004820152602401610614565b6001600160a01b03831661075157604051634a1406b160e11b815260006004820152602401610614565b6001600160a01b038085166000908152600160209081526040808320938716835292905220829055801561062c57826001600160a01b0316846001600160a01b03167f8c5be1e5ebec7d5bd14f71427d1e84f3dd0314c0f7b2291e5b200ac8c7c3b925846040516107c491815260200190565b60405180910390a350505050565b6001600160a01b0383166107fd5780600260008282546107f29190610a75565b9091555061086f9050565b6001600160a01b038316600090815260208190526040902054818110156108505760405163391434e360e21b81526001600160a01b03851660048201526024810182905260448101839052606401610614565b6001600160a01b03841660009081526020819052604090209082900390555b6001600160a01b03821661088b576002805482900390556108aa565b6001600160a01b03821660009081526020819052604090208054820190555b816001600160a01b0316836001600160a01b03167fddf252ad1be2c89b69c2b068fc378daa952ba7f163c4a11628f55a4df523b3ef836040516108ef91815260200190565b60405180910390a3505050565b60006020808352835180602085015260005b8181101561092a5785810183015185820160400152820161090e565b506000604082860101526040601f19601f8301168501019250505092915050565b80356001600160a01b038116811461096257600080fd5b919050565b6000806040838503121561097a57600080fd5b6109838361094b565b946020939093013593505050565b6000806000606084860312156109a657600080fd5b6109af8461094b565b92506109bd6020850161094b565b9150604084013590509250925092565b6000602082840312156109df57600080fd5b6109e88261094b565b9392505050565b600060208284031215610a0157600080fd5b5035919050565b60008060408385031215610a1b57600080fd5b610a248361094b565b9150610a326020840161094b565b90509250929050565b600181811c90821680610a4f57607f821691505b602082108103610a6f57634e487b7160e01b600052602260045260246000fd5b50919050565b8082018082111561037757634e487b7160e01b600052601160045260246000fdfea2646970667358221220f56517c3bcc90f448a3cee67f0e5664e5a140cf1d10b59bffe29f29123b690c964736f6c63430008180033a2646970667358221220fa9e405ba8aa478bd25de03763a66eae3524f9b99533b57be1e01538e6d128d564736f6c63430008180033",
  "linkReferences": {},
  "deployedLinkReferences": {}
}