{"contracts/web4/SkillMarketplace.sol":{"SkillMarketplace":{"abi":[{"inputs":[{"internalType":"address","name":"_agentToken","type":"address"},{"internalType":"address","name":"_economyHub","type":"address"},{"internalType":"address","name":"_feeVault","type":"address"}],"stateMutability":"nonpayable","type":"constructor"},{"inputs":[],"name":"AlreadyPurchased","type":"error"},{"inputs":[],"name":"CannotBuyOwnSkill","type":"error"},{"inputs":[],"name":"InsufficientPayment","type":"error"},{"inputs":[],"name":"NotAgentOwner","type":"error"},{"inputs":[{"internalType":"address","name":"owner","type":"address"}],"name":"OwnableInvalidOwner","type":"error"},{"inputs":[{"internalType":"address","name":"account","type":"address"}],"name":"OwnableUnauthorizedAccount","type":"error"},{"inputs":[],"name":"ReentrancyGuardReentrantCall","type":"error"},{"inputs":[],"name":"SkillInactive","type":"error"},{"inputs":[],"name":"SkillNotFound","type":"error"},{"inputs":[],"name":"TransferFailed","type":"error"},{"inputs":[],"name":"ZeroPrice","type":"error"},{"anonymous":false,"inputs":[{"indexed":true,"internalType":"address","name":"previousOwner","type":"address"},{"indexed":true,"internalType":"address","name":"newOwner","type":"address"}],"name":"OwnershipTransferred","type":"event"},{"anonymous":false,"inputs":[{"indexed":true,"internalType":"uint256","name":"skillId","type":"uint256"},{"indexed":true,"internalType":"uint256","name":"agentId","type":"uint256"},{"indexed":false,"internalType":"uint256","name":"price","type":"uint256"},{"indexed":false,"internalType":"bytes32","name":"metadataHash","type":"bytes32"},{"indexed":false,"internalType":"string","name":"category","type":"string"}],"name":"SkillCreated","type":"event"},{"anonymous":false,"inputs":[{"indexed":true,"internalType":"uint256","name":"skillId","type":"uint256"},{"indexed":true,"internalType":"uint256","name":"buyerAgentId","type":"uint256"},{"indexed":true,"internalType":"uint256","name":"sellerAgentId","type":"uint256"},{"indexed":false,"internalType":"uint256","name":"totalPaid","type":"uint256"},{"indexed":false,"internalType":"uint256","name":"sellerAmount","type":"uint256"},{"indexed":false,"internalType":"uint256","name":"platformFee","type":"uint256"},{"indexed":false,"internalType":"uint256","name":"parentShare","type":"uint256"}],"name":"SkillPurchased","type":"event"},{"anonymous":false,"inputs":[{"indexed":true,"internalType":"uint256","name":"skillId","type":"uint256"},{"indexed":false,"internalType":"uint256","name":"price","type":"uint256"},{"indexed":false,"internalType":"bool","name":"active","type":"bool"}],"name":"SkillUpdated","type":"event"},{"inputs":[],"name":"BPS_DENOMINATOR","outputs":[{"internalType":"uint256","name":"","type":"uint256"}],"stateMutability":"view","type":"function"},{"inputs":[{"internalType":"uint256","name":"","type":"uint256"},{"internalType":"uint256","name":"","type":"uint256"}],"name":"agentSkills","outputs":[{"internalType":"uint256","name":"","type":"uint256"}],"stateMutability":"view","type":"function"},{"inputs":[],"name":"agentToken","outputs":[{"internalType":"contract IAgentIdentity","name":"","type":"address"}],"stateMutability":"view","type":"function"},{"inputs":[{"internalType":"uint256","name":"agentId","type":"uint256"},{"internalType":"uint256","name":"price","type":"uint256"},{"internalType":"bytes32","name":"metadataHash","type":"bytes32"},{"internalType":"string","name":"category","type":"string"}],"name":"createSkill","outputs":[{"internalType":"uint256","name":"skillId","type":"uint256"}],"stateMutability":"nonpayable","type":"function"},{"inputs":[],"name":"economyHub","outputs":[{"internalType":"contract IAgentEconomyHub","name":"","type":"address"}],"stateMutability":"view","type":"function"},{"inputs":[],"name":"feeVault","outputs":[{"internalType":"address","name":"","type":"address"}],"stateMutability":"view","type":"function"},{"inputs":[{"internalType":"uint256","name":"agentId","type":"uint256"}],"name":"getAgentSkillIds","outputs":[{"internalType":"uint256[]","name":"","type":"uint256[]"}],"stateMutability":"view","type":"function"},{"inputs":[{"internalType":"uint256","name":"skillId","type":"uint256"}],"name":"getSkill","outputs":[{"components":[{"internalType":"uint256","name":"agentId","type":"uint256"},{"internalType":"uint256","name":"price","type":"uint256"},{"internalType":"bytes32","name":"metadataHash","type":"bytes32"},{"internalType":"string","name":"category","type":"string"},{"internalType":"bool","name":"active","type":"bool"},{"internalType":"uint256","name":"totalPurchases","type":"uint256"},{"internalType":"uint256","name":"totalRevenue","type":"uint256"},{"internalType":"uint256","name":"createdAt","type":"uint256"}],"internalType":"struct SkillMarketplace.Skill","name":"","type":"tuple"}],"stateMutability":"view","type":"function"},{"inputs":[],"name":"getSkillCount","outputs":[{"internalType":"uint256","name":"","type":"uint256"}],"stateMutability":"view","type":"function"},{"inputs":[{"internalType":"uint256","name":"","type":"uint256"},{"internalType":"uint256","name":"","type":"uint256"}],"name":"hasPurchased","outputs":[{"internalType":"bool","name":"","type":"bool"}],"stateMutability":"view","type":"function"},{"inputs":[],"name":"owner","outputs":[{"internalType":"address","name":"","type":"address"}],"stateMutability":"view","type":"function"},{"inputs":[],"name":"platformFeeBps","outputs":[{"internalType":"uint256","name":"","type":"uint256"}],"stateMutability":"view","type":"function"},{"inputs":[{"internalType":"uint256","name":"skillId","type":"uint256"},{"internalType":"uint256","name":"buyerAgentId","type":"uint256"}],"name":"purchaseSkill","outputs":[],"stateMutability":"payable","type":"function"},{"inputs":[],"name":"renounceOwnership","outputs":[],"stateMutability":"nonpayable","type":"function"},{"inputs":[],"name":"revenueSharing","outputs":[{"internalType":"contract IRevenueSharing","name":"","type":"address"}],"stateMutability":"view","type":"function"},{"inputs":[{"internalType":"address","name":"_feeVault","type":"address"}],"name":"setFeeVault","outputs":[],"stateMutability":"nonpayable","type":"function"},{"inputs":[{"internalType":"uint256","name":"_bps","type":"uint256"}],"name":"setPlatformFeeBps","outputs":[],"stateMutability":"nonpayable","type":"function"},{"inputs":[{"internalType":"address","name":"_revenueSharing","type":"address"}],"name":"setRevenueSharing","outputs":[],"stateMutability":"nonpayable","type":"function"},{"inputs":[{"internalType":"uint256","name":"","type":"uint256"}],"name":"skills","outputs":[{"internalType":"uint256","name":"agentId","type":"uint256"},{"internalType":"uint256","name":"price","type":"uint256"},{"internalType":"bytes32","name":"metadataHash","type":"bytes32"},{"internalType":"string","name":"category","type":"string"},{"internalType":"bool","name":"active","type":"bool"},{"internalType":"uint256","name":"totalPurchases","type":"uint256"},{"internalType":"uint256","name":"totalRevenue","type":"uint256"},{"internalType":"uint256","name":"createdAt","type":"uint256"}],"stateMutability":"view","type":"function"},{"inputs":[{"internalType":"address","name":"newOwner","type":"address"}],"name":"transferOwnership","outputs":[],"stateMutability":"nonpayable","type":"function"},{"inputs":[{"internalType":"uint256","name":"skillId","type":"uint256"},{"internalType":"uint256","name":"price","type":"uint256"},{"internalType":"bool","name":"active","type":"bool"}],"name":"updateSkill","outputs":[],"stateMutability":"nonpayable","type":"function"}],"evm":{"bytecode":{"linkReferences":{},"object":"60c03461012d57601f6114b138819003918201601f19168301916001600160401b038311848410176101325780849260609460405283398101031261012d5761004781610148565b61005f604061005860208501610148565b9301610148565b91331561011457600080546001600160a01b03198082163390811784556040519691956001600160a01b039592948694859391908416907f8be0079c531659141344cd1fd0a4f28419497f9722a3daafe3b4186f6b6457e09080a36001805560fa6003556001600555166080521660a05216906004541617600455611354908161015d823960805181818161044a015281816104ea0152610e21015260a0518181816109ff01528181610bab0152610d340152f35b604051631e4fbdf760e01b815260006004820152602490fd5b600080fd5b634e487b7160e01b600052604160045260246000fd5b51906001600160a01b038216820361012d5756fe608080604052600436101561001357600080fd5b60009060e08235811c91826305f53b2914611043575081630b6e14fb1461100357816322dcd13e14610fe55781632e442adb14610fa0578163478222c214610f7757816350d15fbe14610ee15781636d77ffae14610dbd578163715018a614610d6357816373bbfe8214610d1e5781638caf9b3f146108f85781638da5cb5b146108d1578163a591f97f1461088c578163a8e5516a14610479578163b05707e914610434578163bc8345c014610394578163bd880fae1461027557508063c580c94214610215578063c8615e01146101e3578063d56a9e84146101ba578063e1a452181461019d5763f2fde38b1461010a57600080fd5b3461019a57602036600319011261019a576004356001600160a01b0381811691829003610196576101396112f2565b811561017d57600054826001600160601b0360a01b821617600055167f8be0079c531659141344cd1fd0a4f28419497f9722a3daafe3b4186f6b6457e0600080a380f35b604051631e4fbdf760e01b815260048101849052602490fd5b8280fd5b80fd5b503461019a578060031936011261019a5760206040516127108152f35b503461019a578060031936011261019a576002546040516001600160a01b039091168152602090f35b503461019a5760ff60406020926101f936611080565b9082526008855282822090825284522054166040519015158152f35b503461019a57602036600319011261019a576004356102326112f2565b6103e881116102415760035580f35b60405162461bcd60e51b815260206004820152600c60248201526b08ccaca40e8dede40d0d2ced60a31b6044820152606490fd5b905034610390576020918260031936011261019a578060409183835161029a8161112d565b828152828782015282858201526060808201528260808201528260a08201528260c0820152015260043581526006845220604051916102d88361112d565b815483526001820154848401908152600283015491604085019283526103006003850161116c565b936060860194855260ff6004820154169460808701951515865260058201549460a08801958652600760068401549360c08a01948552015494848901958652604051998a99818b5251908a01525160408901525160608801525193610373610100958660808a0152610120890190611211565b9551151560a08801525160c0870152519085015251908301520390f35b5080fd5b823461019a57602080600319360112610390576004358252600781526040822060405192838383549182815201908193835284832090835b81811061042057505050846103e291038561114a565b60405193838594850191818652518092526040850193925b82811061040957505050500390f35b8351855286955093810193928101926001016103fa565b8254845292860192600192830192016103cc565b823461019a578060031936011261019a576040517f00000000000000000000000000000000000000000000000000000000000000006001600160a01b03168152602090f35b9050346103905760803660031901126103905760643567ffffffffffffffff8082116108885736602383011215610888578082600401351161088857366024836004013584010111610888576040516331a9108f60e11b815260048035908201526001600160a01b036020826024817f000000000000000000000000000000000000000000000000000000000000000085165afa91821561087d57869261084c575b503391160361083a576024351561082857600554926000198414610814576001840160055560405161054c8161112d565b60043581526020810192602435845260408201604435815261057186600401356112a6565b9061057f604051928361114a565b600487013580835260248801602084013788602088600401358401015260608401918252600160808501528860a08501528860c085015242858501528789526006602052604089209584518755516001870155516002860155518051918211610800576105ef60038601546110c9565b601f81116107bb575b50602090601f831160011461074a5760079493929189918361073f575b50508160011b916000199060031b1c19161760038501555b61064c60808201511515600486019060ff801983541691151516179055565b60a0810151600585015560c08101516006850155015191015560043583526007602052604083208054906801000000000000000082101561072b576020946106bc837f86a7def6fd2b6d7f6be86797ca6b24ce4d015eb3b8278ff23e6ff896814e59da936001889601815561109b565b81549060031b9085821b91600019901b19161790556040519060243582526044358783015260606040830152846004013560608301528460040135602486016080840137608085600401358301015260808160043595601f8019916004013501168101030190a3604051908152f35b634e487b7160e01b85526041600452602485fd5b015190503880610615565b906003860189526020892091895b601f19851681106107a357509183916001936007979695601f1981161061078a575b505050811b01600385015561062d565b015160001960f88460031b161c1916905538808061077a565b91926020600181928685015181550194019201610758565b60038601895260208920601f840160051c8101602085106107f9575b601f830160051c820181106107ed5750506105f8565b600081556001016107d7565b50806107d7565b634e487b7160e01b88526041600452602488fd5b634e487b7160e01b85526011600452602485fd5b604051634dfba02360e01b8152600490fd5b604051630e41dcbf60e21b8152600490fd5b61086f91925060203d602011610876575b610867818361114a565b810190611274565b903861051b565b503d61085d565b6040513d88823e3d90fd5b8380fd5b823461019a57602036600319011261019a576004356001600160a01b03811690819003610390576108bb6112f2565b6001600160601b0360a01b600454161760045580f35b823461019a578060031936011261019a57546040516001600160a01b039091168152602090f35b8261090236611080565b906001916002835414610d0c57600283558184526020916006835260408520600781015415610cfa5760ff60048201541615610ce8578481019384543410610cd65783825414610cc4578387526008815260408720838852815260ff604088205416610cb25783875260088152604087208388528152604087208660ff1982541617905560058201805490878201809211610c9e5755845460068301805490828201809211610c8a575561271092836109bd60035484611293565b0490899260018060a01b03958b87600254169283610b3a575b509150506109ee846109e9858c54611251565b611251565b9583151580610b2d575b610b0c575b7f0000000000000000000000000000000000000000000000000000000000000000168254813b15610196578791604484926040519485938492635488ba9360e01b845260048401528160248401525af18015610b0157610ae9575b508854803411610aaa575b5050907fae2614130431f49aae94c5a67ffaef14ba6ae71c73e65b76e620deef6de9b3b29460809493925498549360405194855284015260408301526060820152a4805580f35b8180610abc8193989796959834611251565b335af1610ac76112c2565b5015610ad757909192898b610a63565b6040516312171d8360e31b8152600490fd5b610af290611103565b610afd57898b610a58565b8980fd5b6040513d84823e3d90fd5b908080808685600454165af1610b206112c2565b5015610ad7578a906109fd565b50806004541615156109f8565b606085546024604051809781936320a299ef60e11b835260048301525afa8015610b015782948391610c2b575b5080610c1e575b610b7b575b8d91506109d6565b610b9792939650610b8f8661ffff92611251565b911690611293565b049283610ba7575b808080610b73565b8a867f000000000000000000000000000000000000000000000000000000000000000016803b1561039057604486936040519485938492635488ba9360e01b845260048401528160248401525af18015610c135715610b9f57610c0c909a919a611103565b988a610b9f565b6040513d8d823e3d90fd5b5061ffff82161515610b6e565b94505090506060833d606011610c82575b81610c496060938361114a565b81010312610c7e57825190878401519361ffff85168503610c7a5760400151918215158303610c7a5793918f610b67565b8e80fd5b8c80fd5b3d9150610c3c565b634e487b7160e01b8a52601160045260248afd5b634e487b7160e01b89526011600452602489fd5b604051630cd9ed5560e21b8152600490fd5b6040516307bb189960e21b8152600490fd5b60405163cd1c886760e01b8152600490fd5b60405163216f170f60e01b8152600490fd5b6040516301f4bca560e01b8152600490fd5b604051633ee5aeb560e01b8152600490fd5b823461019a578060031936011261019a576040517f00000000000000000000000000000000000000000000000000000000000000006001600160a01b03168152602090f35b823461019a578060031936011261019a57610d7c6112f2565b80546001600160a01b03198116825581906001600160a01b03167f8be0079c531659141344cd1fd0a4f28419497f9722a3daafe3b4186f6b6457e08280a380f35b823461019a57606036600319011261019a5760043560243560443580151591828203610edd5783855260066020526040852092600784015415610cfa5783546040516331a9108f60e11b815260048101919091526001600160a01b036020826024817f000000000000000000000000000000000000000000000000000000000000000085165afa918215610ed2578892610eb1575b503391160361083a57811561082857610ea36040936004868560017f15769f37b83c1d7ea0c46663b4880dc3ef471abc7615a142288f1282b166d748990155019060ff801983541691151516179055565b82519182526020820152a280f35b610ecb91925060203d60201161087657610867818361114a565b9088610e52565b6040513d8a823e3d90fd5b8480fd5b823461019a57602036600319011261019a576040906004358152600660205220805490600181015491600282015493610f1c6003840161116c565b9260ff60048201541693610f5e6005830154916007600685015494015495604051998a99610100928b5260208b015260408a01528060608a0152880190611211565b941515608087015260a086015260c08501528301520390f35b823461019a578060031936011261019a576004546040516001600160a01b039091168152602090f35b823461019a57602036600319011261019a576004356001600160a01b0381169081900361039057610fcf6112f2565b6001600160601b0360a01b600254161760025580f35b823461019a578060031936011261019a576020600354604051908152f35b823461019a5761101236611080565b9190815260076020526040812090815483101561019a576020611035848461109b565b90546040519160031b1c8152f35b839034610390578160031936011261039057600554600019810190811161106c57602092508152f35b634e487b7160e01b83526011600452602483fd5b6040906003190112611096576004359060243590565b600080fd5b80548210156110b35760005260206000200190600090565b634e487b7160e01b600052603260045260246000fd5b90600182811c921680156110f9575b60208310146110e357565b634e487b7160e01b600052602260045260246000fd5b91607f16916110d8565b67ffffffffffffffff811161111757604052565b634e487b7160e01b600052604160045260246000fd5b610100810190811067ffffffffffffffff82111761111757604052565b90601f8019910116810190811067ffffffffffffffff82111761111757604052565b9060405191826000825461117f816110c9565b908184526020946001916001811690816000146111ef57506001146111b0575b5050506111ae9250038361114a565b565b600090815285812095935091905b8183106111d75750506111ae935082010138808061119f565b855488840185015294850194879450918301916111be565b925050506111ae94925060ff191682840152151560051b82010138808061119f565b919082519283825260005b84811061123d575050826000602080949584010152601f8019910116010190565b60208183018101518483018201520161121c565b9190820391821161125e57565b634e487b7160e01b600052601160045260246000fd5b9081602091031261109657516001600160a01b03811681036110965790565b8181029291811591840414171561125e57565b67ffffffffffffffff811161111757601f01601f191660200190565b3d156112ed573d906112d3826112a6565b916112e1604051938461114a565b82523d6000602084013e565b606090565b6000546001600160a01b0316330361130657565b60405163118cdaa760e01b8152336004820152602490fdfea2646970667358221220af947cc07ca37a821d6de3097071023020c14f925d2901b0174a344bf545d41964736f6c63430008180033","opcodes":"PUSH1 0xC0 CALLVALUE PUSH2 0x12D JUMPI PUSH1 0x1F PUSH2 0x14B1 CODESIZE DUP2 SWAP1 SUB SWAP2 DUP3 ADD PUSH1 0x1F NOT AND DUP4 ADD SWAP2 PUSH1 0x1 PUSH1 0x1 PUSH1 0x40 SHL SUB DUP4 GT DUP5 DUP5 LT OR PUSH2 0x132 JUMPI DUP1 DUP5 SWAP3 PUSH1 0x60 SWAP5 PUSH1 0x40 MSTORE DUP4 CODECOPY DUP2 ADD SUB SLT PUSH2 0x12D JUMPI PUSH2 0x47 DUP2 PUSH2 0x148 JUMP JUMPDEST PUSH2 0x5F PUSH1 0x40 PUSH2 0x58 PUSH1 0x20 DUP6 ADD PUSH2 0x148 JUMP JUMPDEST SWAP4 ADD PUSH2 0x148 JUMP JUMPDEST SWAP2 CALLER ISZERO PUSH2 0x114 JUMPI PUSH1 0x0 DUP1 SLOAD PUSH1 0x1 PUSH1 0x1 PUSH1 0xA0 SHL SUB NOT DUP1 DUP3 AND CALLER SWAP1 DUP2 OR DUP5 SSTORE PUSH1 0x40 MLOAD SWAP7 SWAP2 SWAP6 PUSH1 0x1 PUSH1 0x1 PUSH1 0xA0 SHL SUB SWAP6 SWAP3 SWAP5 DUP7 SWAP5 DUP6 SWAP4 SWAP2 SWAP1 DUP5 AND SWAP1 PUSH32 0x8BE0079C531659141344CD1FD0A4F28419497F9722A3DAAFE3B4186F6B6457E0 SWAP1 DUP1 LOG3 PUSH1 0x1 DUP1 SSTORE PUSH1 0xFA PUSH1 0x3 SSTORE PUSH1 0x1 PUSH1 0x5 SSTORE AND PUSH1 0x80 MSTORE AND PUSH1 0xA0 MSTORE AND SWAP1 PUSH1 0x4 SLOAD AND OR PUSH1 0x4 SSTORE PUSH2 0x1354 SWAP1 DUP2 PUSH2 0x15D DUP3 CODECOPY PUSH1 0x80 MLOAD DUP2 DUP2 DUP2 PUSH2 0x44A ADD MSTORE DUP2 DUP2 PUSH2 0x4EA ADD MSTORE PUSH2 0xE21 ADD MSTORE PUSH1 0xA0 MLOAD DUP2 DUP2 DUP2 PUSH2 0x9FF ADD MSTORE DUP2 DUP2 PUSH2 0xBAB ADD MSTORE PUSH2 0xD34 ADD MSTORE RETURN JUMPDEST PUSH1 0x40 MLOAD PUSH4 0x1E4FBDF7 PUSH1 0xE0 SHL DUP2 MSTORE PUSH1 0x0 PUSH1 0x4 DUP3 ADD MSTORE PUSH1 0x24 SWAP1 REVERT JUMPDEST PUSH1 0x0 DUP1 REVERT JUMPDEST PUSH4 0x4E487B71 PUSH1 0xE0 SHL PUSH1 0x0 MSTORE PUSH1 0x41 PUSH1 0x4 MSTORE PUSH1 0x24 PUSH1 0x0 REVERT JUMPDEST MLOAD SWAP1 PUSH1 0x1 PUSH1 0x1 PUSH1 0xA0 SHL SUB DUP3 AND DUP3 SUB PUSH2 0x12D JUMPI JUMP INVALID PUSH1 0x80 DUP1 PUSH1 0x40 MSTORE PUSH1 0x4 CALLDATASIZE LT ISZERO PUSH2 0x13 JUMPI PUSH1 0x0 DUP1 REVERT JUMPDEST PUSH1 0x0 SWAP1 PUSH1 0xE0 DUP3 CALLDATALOAD DUP2 SHR SWAP2 DUP3 PUSH4 0x5F53B29 EQ PUSH2 0x1043 JUMPI POP DUP2 PUSH4 0xB6E14FB EQ PUSH2 0x1003 JUMPI DUP2 PUSH4 0x22DCD13E EQ PUSH2 0xFE5 JUMPI DUP2 PUSH4 0x2E442ADB EQ PUSH2 0xFA0 JUMPI DUP2 PUSH4 0x478222C2 EQ PUSH2 0xF77 JUMPI DUP2 PUSH4 0x50D15FBE EQ PUSH2 0xEE1 JUMPI DUP2 PUSH4 0x6D77FFAE EQ PUSH2 0xDBD JUMPI DUP2 PUSH4 0x715018A6 EQ PUSH2 0xD63 JUMPI DUP2 PUSH4 0x73BBFE82 EQ PUSH2 0xD1E JUMPI DUP2 PUSH4 0x8CAF9B3F EQ PUSH2 0x8F8 JUMPI DUP2 PUSH4 0x8DA5CB5B EQ PUSH2 0x8D1 JUMPI DUP2 PUSH4 0xA591F97F EQ PUSH2 0x88C JUMPI DUP2 PUSH4 0xA8E5516A EQ PUSH2 0x479 JUMPI DUP2 PUSH4 0xB05707E9 EQ PUSH2 0x434 JUMPI DUP2 PUSH4 0xBC8345C0 EQ PUSH2 0x394 JUMPI DUP2 PUSH4 0xBD880FAE EQ PUSH2 0x275 JUMPI POP DUP1 PUSH4 0xC580C942 EQ PUSH2 0x215 JUMPI DUP1 PUSH4 0xC8615E01 EQ PUSH2 0x1E3 JUMPI DUP1 PUSH4 0xD56A9E84 EQ PUSH2 0x1BA JUMPI DUP1 PUSH4 0xE1A45218 EQ PUSH2 0x19D JUMPI PUSH4 0xF2FDE38B EQ PUSH2 0x10A JUMPI PUSH1 0x0 DUP1 REVERT JUMPDEST CALLVALUE PUSH2 0x19A JUMPI PUSH1 0x20 CALLDATASIZE PUSH1 0x3 NOT ADD SLT PUSH2 0x19A JUMPI PUSH1 0x4 CALLDATALOAD PUSH1 0x1 PUSH1 0x1 PUSH1 0xA0 SHL SUB DUP2 DUP2 AND SWAP2 DUP3 SWAP1 SUB PUSH2 0x196 JUMPI PUSH2 0x139 PUSH2 0x12F2 JUMP JUMPDEST DUP2 ISZERO PUSH2 0x17D JUMPI PUSH1 0x0 SLOAD DUP3 PUSH1 0x1 PUSH1 0x1 PUSH1 0x60 SHL SUB PUSH1 0xA0 SHL DUP3 AND OR PUSH1 0x0 SSTORE AND PUSH32 0x8BE0079C531659141344CD1FD0A4F28419497F9722A3DAAFE3B4186F6B6457E0 PUSH1 0x0 DUP1 LOG3 DUP1 RETURN JUMPDEST PUSH1 0x40 MLOAD PUSH4 0x1E4FBDF7 PUSH1 0xE0 SHL DUP2 MSTORE PUSH1 0x4 DUP2 ADD DUP5 SWAP1 MSTORE PUSH1 0x24 SWAP1 REVERT JUMPDEST DUP3 DUP1 REVERT JUMPDEST DUP1 REVERT JUMPDEST POP CALLVALUE PUSH2 0x19A JUMPI DUP1 PUSH1 0x3 NOT CALLDATASIZE ADD SLT PUSH2 0x19A JUMPI PUSH1 0x20 PUSH1 0x40 MLOAD PUSH2 0x2710 DUP2 MSTORE RETURN JUMPDEST POP CALLVALUE PUSH2 0x19A JUMPI DUP1 PUSH1 0x3 NOT CALLDATASIZE ADD SLT PUSH2 0x19A JUMPI PUSH1 0x2 SLOAD PUSH1 0x40 MLOAD PUSH1 0x1 PUSH1 0x1 PUSH1 0xA0 SHL SUB SWAP1 SWAP2 AND DUP2 MSTORE PUSH1 0x20 SWAP1 RETURN JUMPDEST POP CALLVALUE PUSH2 0x19A JUMPI PUSH1 0xFF PUSH1 0x40 PUSH1 0x20 SWAP3 PUSH2 0x1F9 CALLDATASIZE PUSH2 0x1080 JUMP JUMPDEST SWAP1 DUP3 MSTORE PUSH1 0x8 DUP6 MSTORE DUP3 DUP3 KECCAK256 SWAP1 DUP3 MSTORE DUP5 MSTORE KECCAK256 SLOAD AND PUSH1 0x40 MLOAD SWAP1 ISZERO ISZERO DUP2 MSTORE RETURN JUMPDEST POP CALLVALUE PUSH2 0x19A JUMPI PUSH1 0x20 CALLDATASIZE PUSH1 0x3 NOT ADD SLT PUSH2 0x19A JUMPI PUSH1 0x4 CALLDATALOAD PUSH2 0x232 PUSH2 0x12F2 JUMP JUMPDEST PUSH2 0x3E8 DUP2 GT PUSH2 0x241 JUMPI PUSH1 0x3 SSTORE DUP1 RETURN JUMPDEST PUSH1 0x40 MLOAD PUSH3 0x461BCD PUSH1 0xE5 SHL DUP2 MSTORE PUSH1 0x20 PUSH1 0x4 DUP3 ADD MSTORE PUSH1 0xC PUSH1 0x24 DUP3 ADD MSTORE PUSH12 0x8CCACA40E8DEDE40D0D2CED PUSH1 0xA3 SHL PUSH1 0x44 DUP3 ADD MSTORE PUSH1 0x64 SWAP1 REVERT JUMPDEST SWAP1 POP CALLVALUE PUSH2 0x390 JUMPI PUSH1 0x20 SWAP2 DUP3 PUSH1 0x3 NOT CALLDATASIZE ADD SLT PUSH2 0x19A JUMPI DUP1 PUSH1 0x40 SWAP2 DUP4 DUP4 MLOAD PUSH2 0x29A DUP2 PUSH2 0x112D JUMP JUMPDEST DUP3 DUP2 MSTORE DUP3 DUP8 DUP3 ADD MSTORE DUP3 DUP6 DUP3 ADD MSTORE PUSH1 0x60 DUP1 DUP3 ADD MSTORE DUP3 PUSH1 0x80 DUP3 ADD MSTORE DUP3 PUSH1 0xA0 DUP3 ADD MSTORE DUP3 PUSH1 0xC0 DUP3 ADD MSTORE ADD MSTORE PUSH1 0x4 CALLDATALOAD DUP2 MSTORE PUSH1 0x6 DUP5 MSTORE KECCAK256 PUSH1 0x40 MLOAD SWAP2 PUSH2 0x2D8 DUP4 PUSH2 0x112D JUMP JUMPDEST DUP2 SLOAD DUP4 MSTORE PUSH1 0x1 DUP3 ADD SLOAD DUP5 DUP5 ADD SWAP1 DUP2 MSTORE PUSH1 0x2 DUP4 ADD SLOAD SWAP2 PUSH1 0x40 DUP6 ADD SWAP3 DUP4 MSTORE PUSH2 0x300 PUSH1 0x3 DUP6 ADD PUSH2 0x116C JUMP JUMPDEST SWAP4 PUSH1 0x60 DUP7 ADD SWAP5 DUP6 MSTORE PUSH1 0xFF PUSH1 0x4 DUP3 ADD SLOAD AND SWAP5 PUSH1 0x80 DUP8 ADD SWAP6 ISZERO ISZERO DUP7 MSTORE PUSH1 0x5 DUP3 ADD SLOAD SWAP5 PUSH1 0xA0 DUP9 ADD SWAP6 DUP7 MSTORE PUSH1 0x7 PUSH1 0x6 DUP5 ADD SLOAD SWAP4 PUSH1 0xC0 DUP11 ADD SWAP5 DUP6 MSTORE ADD SLOAD SWAP5 DUP5 DUP10 ADD SWAP6 DUP7 MSTORE PUSH1 0x40 MLOAD SWAP10 DUP11 SWAP10 DUP2 DUP12 MSTORE MLOAD SWAP1 DUP11 ADD MSTORE MLOAD PUSH1 0x40 DUP10 ADD MSTORE MLOAD PUSH1 0x60 DUP9 ADD MSTORE MLOAD SWAP4 PUSH2 0x373 PUSH2 0x100 SWAP6 DUP7 PUSH1 0x80 DUP11 ADD MSTORE PUSH2 0x120 DUP10 ADD SWAP1 PUSH2 0x1211 JUMP JUMPDEST SWAP6 MLOAD ISZERO ISZERO PUSH1 0xA0 DUP9 ADD MSTORE MLOAD PUSH1 0xC0 DUP8 ADD MSTORE MLOAD SWAP1 DUP6 ADD MSTORE MLOAD SWAP1 DUP4 ADD MSTORE SUB SWAP1 RETURN JUMPDEST POP DUP1 REVERT JUMPDEST DUP3 CALLVALUE PUSH2 0x19A JUMPI PUSH1 0x20 DUP1 PUSH1 0x3 NOT CALLDATASIZE ADD SLT PUSH2 0x390 JUMPI PUSH1 0x4 CALLDATALOAD DUP3 MSTORE PUSH1 0x7 DUP2 MSTORE PUSH1 0x40 DUP3 KECCAK256 PUSH1 0x40 MLOAD SWAP3 DUP4 DUP4 DUP4 SLOAD SWAP2 DUP3 DUP2 MSTORE ADD SWAP1 DUP2 SWAP4 DUP4 MSTORE DUP5 DUP4 KECCAK256 SWAP1 DUP4 JUMPDEST DUP2 DUP2 LT PUSH2 0x420 JUMPI POP POP POP DUP5 PUSH2 0x3E2 SWAP2 SUB DUP6 PUSH2 0x114A JUMP JUMPDEST PUSH1 0x40 MLOAD SWAP4 DUP4 DUP6 SWAP5 DUP6 ADD SWAP2 DUP2 DUP7 MSTORE MLOAD DUP1 SWAP3 MSTORE PUSH1 0x40 DUP6 ADD SWAP4 SWAP3 JUMPDEST DUP3 DUP2 LT PUSH2 0x409 JUMPI POP POP POP POP SUB SWAP1 RETURN JUMPDEST DUP4 MLOAD DUP6 MSTORE DUP7 SWAP6 POP SWAP4 DUP2 ADD SWAP4 SWAP3 DUP2 ADD SWAP3 PUSH1 0x1 ADD PUSH2 0x3FA JUMP JUMPDEST DUP3 SLOAD DUP5 MSTORE SWAP3 DUP7 ADD SWAP3 PUSH1 0x1 SWAP3 DUP4 ADD SWAP3 ADD PUSH2 0x3CC JUMP JUMPDEST DUP3 CALLVALUE PUSH2 0x19A JUMPI DUP1 PUSH1 0x3 NOT CALLDATASIZE ADD SLT PUSH2 0x19A JUMPI PUSH1 0x40 MLOAD PUSH32 0x0 PUSH1 0x1 PUSH1 0x1 PUSH1 0xA0 SHL SUB AND DUP2 MSTORE PUSH1 0x20 SWAP1 RETURN JUMPDEST SWAP1 POP CALLVALUE PUSH2 0x390 JUMPI PUSH1 0x80 CALLDATASIZE PUSH1 0x3 NOT ADD SLT PUSH2 0x390 JUMPI PUSH1 0x64 CALLDATALOAD PUSH8 0xFFFFFFFFFFFFFFFF DUP1 DUP3 GT PUSH2 0x888 JUMPI CALLDATASIZE PUSH1 0x23 DUP4 ADD SLT ISZERO PUSH2 0x888 JUMPI DUP1 DUP3 PUSH1 0x4 ADD CALLDATALOAD GT PUSH2 0x888 JUMPI CALLDATASIZE PUSH1 0x24 DUP4 PUSH1 0x4 ADD CALLDATALOAD DUP5 ADD ADD GT PUSH2 0x888 JUMPI PUSH1 0x40 MLOAD PUSH4 0x31A9108F PUSH1 0xE1 SHL DUP2 MSTORE PUSH1 0x4 DUP1 CALLDATALOAD SWAP1 DUP3 ADD MSTORE PUSH1 0x1 PUSH1 0x1 PUSH1 0xA0 SHL SUB PUSH1 0x20 DUP3 PUSH1 0x24 DUP2 PUSH32 0x0 DUP6 AND GAS STATICCALL SWAP2 DUP3 ISZERO PUSH2 0x87D JUMPI DUP7 SWAP3 PUSH2 0x84C JUMPI JUMPDEST POP CALLER SWAP2 AND SUB PUSH2 0x83A JUMPI PUSH1 0x24 CALLDATALOAD ISZERO PUSH2 0x828 JUMPI PUSH1 0x5 SLOAD SWAP3 PUSH1 0x0 NOT DUP5 EQ PUSH2 0x814 JUMPI PUSH1 0x1 DUP5 ADD PUSH1 0x5 SSTORE PUSH1 0x40 MLOAD PUSH2 0x54C DUP2 PUSH2 0x112D JUMP JUMPDEST PUSH1 0x4 CALLDATALOAD DUP2 MSTORE PUSH1 0x20 DUP2 ADD SWAP3 PUSH1 0x24 CALLDATALOAD DUP5 MSTORE PUSH1 0x40 DUP3 ADD PUSH1 0x44 CALLDATALOAD DUP2 MSTORE PUSH2 0x571 DUP7 PUSH1 0x4 ADD CALLDATALOAD PUSH2 0x12A6 JUMP JUMPDEST SWAP1 PUSH2 0x57F PUSH1 0x40 MLOAD SWAP3 DUP4 PUSH2 0x114A JUMP JUMPDEST PUSH1 0x4 DUP8 ADD CALLDATALOAD DUP1 DUP4 MSTORE PUSH1 0x24 DUP9 ADD PUSH1 0x20 DUP5 ADD CALLDATACOPY DUP9 PUSH1 0x20 DUP9 PUSH1 0x4 ADD CALLDATALOAD DUP5 ADD ADD MSTORE PUSH1 0x60 DUP5 ADD SWAP2 DUP3 MSTORE PUSH1 0x1 PUSH1 0x80 DUP6 ADD MSTORE DUP9 PUSH1 0xA0 DUP6 ADD MSTORE DUP9 PUSH1 0xC0 DUP6 ADD MSTORE TIMESTAMP DUP6 DUP6 ADD MSTORE DUP8 DUP10 MSTORE PUSH1 0x6 PUSH1 0x20 MSTORE PUSH1 0x40 DUP10 KECCAK256 SWAP6 DUP5 MLOAD DUP8 SSTORE MLOAD PUSH1 0x1 DUP8 ADD SSTORE MLOAD PUSH1 0x2 DUP7 ADD SSTORE MLOAD DUP1 MLOAD SWAP2 DUP3 GT PUSH2 0x800 JUMPI PUSH2 0x5EF PUSH1 0x3 DUP7 ADD SLOAD PUSH2 0x10C9 JUMP JUMPDEST PUSH1 0x1F DUP2 GT PUSH2 0x7BB JUMPI JUMPDEST POP PUSH1 0x20 SWAP1 PUSH1 0x1F DUP4 GT PUSH1 0x1 EQ PUSH2 0x74A JUMPI PUSH1 0x7 SWAP5 SWAP4 SWAP3 SWAP2 DUP10 SWAP2 DUP4 PUSH2 0x73F JUMPI JUMPDEST POP POP DUP2 PUSH1 0x1 SHL SWAP2 PUSH1 0x0 NOT SWAP1 PUSH1 0x3 SHL SHR NOT AND OR PUSH1 0x3 DUP6 ADD SSTORE JUMPDEST PUSH2 0x64C PUSH1 0x80 DUP3 ADD MLOAD ISZERO ISZERO PUSH1 0x4 DUP7 ADD SWAP1 PUSH1 0xFF DUP1 NOT DUP4 SLOAD AND SWAP2 ISZERO ISZERO AND OR SWAP1 SSTORE JUMP JUMPDEST PUSH1 0xA0 DUP2 ADD MLOAD PUSH1 0x5 DUP6 ADD SSTORE PUSH1 0xC0 DUP2 ADD MLOAD PUSH1 0x6 DUP6 ADD SSTORE ADD MLOAD SWAP2 ADD SSTORE PUSH1 0x4 CALLDATALOAD DUP4 MSTORE PUSH1 0x7 PUSH1 0x20 MSTORE PUSH1 0x40 DUP4 KECCAK256 DUP1 SLOAD SWAP1 PUSH9 0x10000000000000000 DUP3 LT ISZERO PUSH2 0x72B JUMPI PUSH1 0x20 SWAP5 PUSH2 0x6BC DUP4 PUSH32 0x86A7DEF6FD2B6D7F6BE86797CA6B24CE4D015EB3B8278FF23E6FF896814E59DA SWAP4 PUSH1 0x1 DUP9 SWAP7 ADD DUP2 SSTORE PUSH2 0x109B JUMP JUMPDEST DUP2 SLOAD SWAP1 PUSH1 0x3 SHL SWAP1 DUP6 DUP3 SHL SWAP2 PUSH1 0x0 NOT SWAP1 SHL NOT AND OR SWAP1 SSTORE PUSH1 0x40 MLOAD SWAP1 PUSH1 0x24 CALLDATALOAD DUP3 MSTORE PUSH1 0x44 CALLDATALOAD DUP8 DUP4 ADD MSTORE PUSH1 0x60 PUSH1 0x40 DUP4 ADD MSTORE DUP5 PUSH1 0x4 ADD CALLDATALOAD PUSH1 0x60 DUP4 ADD MSTORE DUP5 PUSH1 0x4 ADD CALLDATALOAD PUSH1 0x24 DUP7 ADD PUSH1 0x80 DUP5 ADD CALLDATACOPY PUSH1 0x80 DUP6 PUSH1 0x4 ADD CALLDATALOAD DUP4 ADD ADD MSTORE PUSH1 0x80 DUP2 PUSH1 0x4 CALLDATALOAD SWAP6 PUSH1 0x1F DUP1 NOT SWAP2 PUSH1 0x4 ADD CALLDATALOAD ADD AND DUP2 ADD SUB ADD SWAP1 LOG3 PUSH1 0x40 MLOAD SWAP1 DUP2 MSTORE RETURN JUMPDEST PUSH4 0x4E487B71 PUSH1 0xE0 SHL DUP6 MSTORE PUSH1 0x41 PUSH1 0x4 MSTORE PUSH1 0x24 DUP6 REVERT JUMPDEST ADD MLOAD SWAP1 POP CODESIZE DUP1 PUSH2 0x615 JUMP JUMPDEST SWAP1 PUSH1 0x3 DUP7 ADD DUP10 MSTORE PUSH1 0x20 DUP10 KECCAK256 SWAP2 DUP10 JUMPDEST PUSH1 0x1F NOT DUP6 AND DUP2 LT PUSH2 0x7A3 JUMPI POP SWAP2 DUP4 SWAP2 PUSH1 0x1 SWAP4 PUSH1 0x7 SWAP8 SWAP7 SWAP6 PUSH1 0x1F NOT DUP2 AND LT PUSH2 0x78A JUMPI JUMPDEST POP POP POP DUP2 SHL ADD PUSH1 0x3 DUP6 ADD SSTORE PUSH2 0x62D JUMP JUMPDEST ADD MLOAD PUSH1 0x0 NOT PUSH1 0xF8 DUP5 PUSH1 0x3 SHL AND SHR NOT AND SWAP1 SSTORE CODESIZE DUP1 DUP1 PUSH2 0x77A JUMP JUMPDEST SWAP2 SWAP3 PUSH1 0x20 PUSH1 0x1 DUP2 SWAP3 DUP7 DUP6 ADD MLOAD DUP2 SSTORE ADD SWAP5 ADD SWAP3 ADD PUSH2 0x758 JUMP JUMPDEST PUSH1 0x3 DUP7 ADD DUP10 MSTORE PUSH1 0x20 DUP10 KECCAK256 PUSH1 0x1F DUP5 ADD PUSH1 0x5 SHR DUP2 ADD PUSH1 0x20 DUP6 LT PUSH2 0x7F9 JUMPI JUMPDEST PUSH1 0x1F DUP4 ADD PUSH1 0x5 SHR DUP3 ADD DUP2 LT PUSH2 0x7ED JUMPI POP POP PUSH2 0x5F8 JUMP JUMPDEST PUSH1 0x0 DUP2 SSTORE PUSH1 0x1 ADD PUSH2 0x7D7 JUMP JUMPDEST POP DUP1 PUSH2 0x7D7 JUMP JUMPDEST PUSH4 0x4E487B71 PUSH1 0xE0 SHL DUP9 MSTORE PUSH1 0x41 PUSH1 0x4 MSTORE PUSH1 0x24 DUP9 REVERT JUMPDEST PUSH4 0x4E487B71 PUSH1 0xE0 SHL DUP6 MSTORE PUSH1 0x11 PUSH1 0x4 MSTORE PUSH1 0x24 DUP6 REVERT JUMPDEST PUSH1 0x40 MLOAD PUSH4 0x4DFBA023 PUSH1 0xE0 SHL DUP2 MSTORE PUSH1 0x4 SWAP1 REVERT JUMPDEST PUSH1 0x40 MLOAD PUSH4 0xE41DCBF PUSH1 0xE2 SHL DUP2 MSTORE PUSH1 0x4 SWAP1 REVERT JUMPDEST PUSH2 0x86F SWAP2 SWAP3 POP PUSH1 0x20 RETURNDATASIZE PUSH1 0x20 GT PUSH2 0x876 JUMPI JUMPDEST PUSH2 0x867 DUP2 DUP4 PUSH2 0x114A JUMP JUMPDEST DUP2 ADD SWAP1 PUSH2 0x1274 JUMP JUMPDEST SWAP1 CODESIZE PUSH2 0x51B JUMP JUMPDEST POP RETURNDATASIZE PUSH2 0x85D JUMP JUMPDEST PUSH1 0x40 MLOAD RETURNDATASIZE DUP9 DUP3 RETURNDATACOPY RETURNDATASIZE SWAP1 REVERT JUMPDEST DUP4 DUP1 REVERT JUMPDEST DUP3 CALLVALUE PUSH2 0x19A JUMPI PUSH1 0x20 CALLDATASIZE PUSH1 0x3 NOT ADD SLT PUSH2 0x19A JUMPI PUSH1 0x4 CALLDATALOAD PUSH1 0x1 PUSH1 0x1 PUSH1 0xA0 SHL SUB DUP2 AND SWAP1 DUP2 SWAP1 SUB PUSH2 0x390 JUMPI PUSH2 0x8BB PUSH2 0x12F2 JUMP JUMPDEST PUSH1 0x1 PUSH1 0x1 PUSH1 0x60 SHL SUB PUSH1 0xA0 SHL PUSH1 0x4 SLOAD AND OR PUSH1 0x4 SSTORE DUP1 RETURN JUMPDEST DUP3 CALLVALUE PUSH2 0x19A JUMPI DUP1 PUSH1 0x3 NOT CALLDATASIZE ADD SLT PUSH2 0x19A JUMPI SLOAD PUSH1 0x40 MLOAD PUSH1 0x1 PUSH1 0x1 PUSH1 0xA0 SHL SUB SWAP1 SWAP2 AND DUP2 MSTORE PUSH1 0x20 SWAP1 RETURN JUMPDEST DUP3 PUSH2 0x902 CALLDATASIZE PUSH2 0x1080 JUMP JUMPDEST SWAP1 PUSH1 0x1 SWAP2 PUSH1 0x2 DUP4 SLOAD EQ PUSH2 0xD0C JUMPI PUSH1 0x2 DUP4 SSTORE DUP2 DUP5 MSTORE PUSH1 0x20 SWAP2 PUSH1 0x6 DUP4 MSTORE PUSH1 0x40 DUP6 KECCAK256 PUSH1 0x7 DUP2 ADD SLOAD ISZERO PUSH2 0xCFA JUMPI PUSH1 0xFF PUSH1 0x4 DUP3 ADD SLOAD AND ISZERO PUSH2 0xCE8 JUMPI DUP5 DUP2 ADD SWAP4 DUP5 SLOAD CALLVALUE LT PUSH2 0xCD6 JUMPI DUP4 DUP3 SLOAD EQ PUSH2 0xCC4 JUMPI DUP4 DUP8 MSTORE PUSH1 0x8 DUP2 MSTORE PUSH1 0x40 DUP8 KECCAK256 DUP4 DUP9 MSTORE DUP2 MSTORE PUSH1 0xFF PUSH1 0x40 DUP9 KECCAK256 SLOAD AND PUSH2 0xCB2 JUMPI DUP4 DUP8 MSTORE PUSH1 0x8 DUP2 MSTORE PUSH1 0x40 DUP8 KECCAK256 DUP4 DUP9 MSTORE DUP2 MSTORE PUSH1 0x40 DUP8 KECCAK256 DUP7 PUSH1 0xFF NOT DUP3 SLOAD AND OR SWAP1 SSTORE PUSH1 0x5 DUP3 ADD DUP1 SLOAD SWAP1 DUP8 DUP3 ADD DUP1 SWAP3 GT PUSH2 0xC9E JUMPI SSTORE DUP5 SLOAD PUSH1 0x6 DUP4 ADD DUP1 SLOAD SWAP1 DUP3 DUP3 ADD DUP1 SWAP3 GT PUSH2 0xC8A JUMPI SSTORE PUSH2 0x2710 SWAP3 DUP4 PUSH2 0x9BD PUSH1 0x3 SLOAD DUP5 PUSH2 0x1293 JUMP JUMPDEST DIV SWAP1 DUP10 SWAP3 PUSH1 0x1 DUP1 PUSH1 0xA0 SHL SUB SWAP6 DUP12 DUP8 PUSH1 0x2 SLOAD AND SWAP3 DUP4 PUSH2 0xB3A JUMPI JUMPDEST POP SWAP2 POP POP PUSH2 0x9EE DUP5 PUSH2 0x9E9 DUP6 DUP13 SLOAD PUSH2 0x1251 JUMP JUMPDEST PUSH2 0x1251 JUMP JUMPDEST SWAP6 DUP4 ISZERO ISZERO DUP1 PUSH2 0xB2D JUMPI JUMPDEST PUSH2 0xB0C JUMPI JUMPDEST PUSH32 0x0 AND DUP3 SLOAD DUP2 EXTCODESIZE ISZERO PUSH2 0x196 JUMPI DUP8 SWAP2 PUSH1 0x44 DUP5 SWAP3 PUSH1 0x40 MLOAD SWAP5 DUP6 SWAP4 DUP5 SWAP3 PUSH4 0x5488BA93 PUSH1 0xE0 SHL DUP5 MSTORE PUSH1 0x4 DUP5 ADD MSTORE DUP2 PUSH1 0x24 DUP5 ADD MSTORE GAS CALL DUP1 ISZERO PUSH2 0xB01 JUMPI PUSH2 0xAE9 JUMPI JUMPDEST POP DUP9 SLOAD DUP1 CALLVALUE GT PUSH2 0xAAA JUMPI JUMPDEST POP POP SWAP1 PUSH32 0xAE2614130431F49AAE94C5A67FFAEF14BA6AE71C73E65B76E620DEEF6DE9B3B2 SWAP5 PUSH1 0x80 SWAP5 SWAP4 SWAP3 SLOAD SWAP9 SLOAD SWAP4 PUSH1 0x40 MLOAD SWAP5 DUP6 MSTORE DUP5 ADD MSTORE PUSH1 0x40 DUP4 ADD MSTORE PUSH1 0x60 DUP3 ADD MSTORE LOG4 DUP1 SSTORE DUP1 RETURN JUMPDEST DUP2 DUP1 PUSH2 0xABC DUP2 SWAP4 SWAP9 SWAP8 SWAP7 SWAP6 SWAP9 CALLVALUE PUSH2 0x1251 JUMP JUMPDEST CALLER GAS CALL PUSH2 0xAC7 PUSH2 0x12C2 JUMP JUMPDEST POP ISZERO PUSH2 0xAD7 JUMPI SWAP1 SWAP2 SWAP3 DUP10 DUP12 PUSH2 0xA63 JUMP JUMPDEST PUSH1 0x40 MLOAD PUSH4 0x12171D83 PUSH1 0xE3 SHL DUP2 MSTORE PUSH1 0x4 SWAP1 REVERT JUMPDEST PUSH2 0xAF2 SWAP1 PUSH2 0x1103 JUMP JUMPDEST PUSH2 0xAFD JUMPI DUP10 DUP12 PUSH2 0xA58 JUMP JUMPDEST DUP10 DUP1 REVERT JUMPDEST PUSH1 0x40 MLOAD RETURNDATASIZE DUP5 DUP3 RETURNDATACOPY RETURNDATASIZE SWAP1 REVERT JUMPDEST SWAP1 DUP1 DUP1 DUP1 DUP7 DUP6 PUSH1 0x4 SLOAD AND GAS CALL PUSH2 0xB20 PUSH2 0x12C2 JUMP JUMPDEST POP ISZERO PUSH2 0xAD7 JUMPI DUP11 SWAP1 PUSH2 0x9FD JUMP JUMPDEST POP DUP1 PUSH1 0x4 SLOAD AND ISZERO ISZERO PUSH2 0x9F8 JUMP JUMPDEST PUSH1 0x60 DUP6 SLOAD PUSH1 0x24 PUSH1 0x40 MLOAD DUP1 SWAP8 DUP2 SWAP4 PUSH4 0x20A299EF PUSH1 0xE1 SHL DUP4 MSTORE PUSH1 0x4 DUP4 ADD MSTORE GAS STATICCALL DUP1 ISZERO PUSH2 0xB01 JUMPI DUP3 SWAP5 DUP4 SWAP2 PUSH2 0xC2B JUMPI JUMPDEST POP DUP1 PUSH2 0xC1E JUMPI JUMPDEST PUSH2 0xB7B JUMPI JUMPDEST DUP14 SWAP2 POP PUSH2 0x9D6 JUMP JUMPDEST PUSH2 0xB97 SWAP3 SWAP4 SWAP7 POP PUSH2 0xB8F DUP7 PUSH2 0xFFFF SWAP3 PUSH2 0x1251 JUMP JUMPDEST SWAP2 AND SWAP1 PUSH2 0x1293 JUMP JUMPDEST DIV SWAP3 DUP4 PUSH2 0xBA7 JUMPI JUMPDEST DUP1 DUP1 DUP1 PUSH2 0xB73 JUMP JUMPDEST DUP11 DUP7 PUSH32 0x0 AND DUP1 EXTCODESIZE ISZERO PUSH2 0x390 JUMPI PUSH1 0x44 DUP7 SWAP4 PUSH1 0x40 MLOAD SWAP5 DUP6 SWAP4 DUP5 SWAP3 PUSH4 0x5488BA93 PUSH1 0xE0 SHL DUP5 MSTORE PUSH1 0x4 DUP5 ADD MSTORE DUP2 PUSH1 0x24 DUP5 ADD MSTORE GAS CALL DUP1 ISZERO PUSH2 0xC13 JUMPI ISZERO PUSH2 0xB9F JUMPI PUSH2 0xC0C SWAP1 SWAP11 SWAP2 SWAP11 PUSH2 0x1103 JUMP JUMPDEST SWAP9 DUP11 PUSH2 0xB9F JUMP JUMPDEST PUSH1 0x40 MLOAD RETURNDATASIZE DUP14 DUP3 RETURNDATACOPY RETURNDATASIZE SWAP1 REVERT JUMPDEST POP PUSH2 0xFFFF DUP3 AND ISZERO ISZERO PUSH2 0xB6E JUMP JUMPDEST SWAP5 POP POP SWAP1 POP PUSH1 0x60 DUP4 RETURNDATASIZE PUSH1 0x60 GT PUSH2 0xC82 JUMPI JUMPDEST DUP2 PUSH2 0xC49 PUSH1 0x60 SWAP4 DUP4 PUSH2 0x114A JUMP JUMPDEST DUP2 ADD SUB SLT PUSH2 0xC7E JUMPI DUP3 MLOAD SWAP1 DUP8 DUP5 ADD MLOAD SWAP4 PUSH2 0xFFFF DUP6 AND DUP6 SUB PUSH2 0xC7A JUMPI PUSH1 0x40 ADD MLOAD SWAP2 DUP3 ISZERO ISZERO DUP4 SUB PUSH2 0xC7A JUMPI SWAP4 SWAP2 DUP16 PUSH2 0xB67 JUMP JUMPDEST DUP15 DUP1 REVERT JUMPDEST DUP13 DUP1 REVERT JUMPDEST RETURNDATASIZE SWAP2 POP PUSH2 0xC3C JUMP JUMPDEST PUSH4 0x4E487B71 PUSH1 0xE0 SHL DUP11 MSTORE PUSH1 0x11 PUSH1 0x4 MSTORE PUSH1 0x24 DUP11 REVERT JUMPDEST PUSH4 0x4E487B71 PUSH1 0xE0 SHL DUP10 MSTORE PUSH1 0x11 PUSH1 0x4 MSTORE PUSH1 0x24 DUP10 REVERT JUMPDEST PUSH1 0x40 MLOAD PUSH4 0xCD9ED55 PUSH1 0xE2 SHL DUP2 MSTORE PUSH1 0x4 SWAP1 REVERT JUMPDEST PUSH1 0x40 MLOAD PUSH4 0x7BB1899 PUSH1 0xE2 SHL DUP2 MSTORE PUSH1 0x4 SWAP1 REVERT JUMPDEST PUSH1 0x40 MLOAD PUSH4 0xCD1C8867 PUSH1 0xE0 SHL DUP2 MSTORE PUSH1 0x4 SWAP1 REVERT JUMPDEST PUSH1 0x40 MLOAD PUSH4 0x216F170F PUSH1 0xE0 SHL DUP2 MSTORE PUSH1 0x4 SWAP1 REVERT JUMPDEST PUSH1 0x40 MLOAD PUSH4 0x1F4BCA5 PUSH1 0xE0 SHL DUP2 MSTORE PUSH1 0x4 SWAP1 REVERT JUMPDEST PUSH1 0x40 MLOAD PUSH4 0x3EE5AEB5 PUSH1 0xE0 SHL DUP2 MSTORE PUSH1 0x4 SWAP1 REVERT JUMPDEST DUP3 CALLVALUE PUSH2 0x19A JUMPI DUP1 PUSH1 0x3 NOT CALLDATASIZE ADD SLT PUSH2 0x19A JUMPI PUSH1 0x40 MLOAD PUSH32 0x0 PUSH1 0x1 PUSH1 0x1 PUSH1 0xA0 SHL SUB AND DUP2 MSTORE PUSH1 0x20 SWAP1 RETURN JUMPDEST DUP3 CALLVALUE PUSH2 0x19A JUMPI DUP1 PUSH1 0x3 NOT CALLDATASIZE ADD SLT PUSH2 0x19A JUMPI PUSH2 0xD7C PUSH2 0x12F2 JUMP JUMPDEST DUP1 SLOAD PUSH1 0x1 PUSH1 0x1 PUSH1 0xA0 SHL SUB NOT DUP2 AND DUP3 SSTORE DUP2 SWAP1 PUSH1 0x1 PUSH1 0x1 PUSH1 0xA0 SHL SUB AND PUSH32 0x8BE0079C531659141344CD1FD0A4F28419497F9722A3DAAFE3B4186F6B6457E0 DUP3 DUP1 LOG3 DUP1 RETURN JUMPDEST DUP3 CALLVALUE PUSH2 0x19A JUMPI PUSH1 0x60 CALLDATASIZE PUSH1 0x3 NOT ADD SLT PUSH2 0x19A JUMPI PUSH1 0x4 CALLDATALOAD PUSH1 0x24 CALLDATALOAD PUSH1 0x44 CALLDATALOAD DUP1 ISZERO ISZERO SWAP2 DUP3 DUP3 SUB PUSH2 0xEDD JUMPI DUP4 DUP6 MSTORE PUSH1 0x6 PUSH1 0x20 MSTORE PUSH1 0x40 DUP6 KECCAK256 SWAP3 PUSH1 0x7 DUP5 ADD SLOAD ISZERO PUSH2 0xCFA JUMPI DUP4 SLOAD PUSH1 0x40 MLOAD PUSH4 0x31A9108F PUSH1 0xE1 SHL DUP2 MSTORE PUSH1 0x4 DUP2 ADD SWAP2 SWAP1 SWAP2 MSTORE PUSH1 0x1 PUSH1 0x1 PUSH1 0xA0 SHL SUB PUSH1 0x20 DUP3 PUSH1 0x24 DUP2 PUSH32 0x0 DUP6 AND GAS STATICCALL SWAP2 DUP3 ISZERO PUSH2 0xED2 JUMPI DUP9 SWAP3 PUSH2 0xEB1 JUMPI JUMPDEST POP CALLER SWAP2 AND SUB PUSH2 0x83A JUMPI DUP2 ISZERO PUSH2 0x828 JUMPI PUSH2 0xEA3 PUSH1 0x40 SWAP4 PUSH1 0x4 DUP7 DUP6 PUSH1 0x1 PUSH32 0x15769F37B83C1D7EA0C46663B4880DC3EF471ABC7615A142288F1282B166D748 SWAP10 ADD SSTORE ADD SWAP1 PUSH1 0xFF DUP1 NOT DUP4 SLOAD AND SWAP2 ISZERO ISZERO AND OR SWAP1 SSTORE JUMP JUMPDEST DUP3 MLOAD SWAP2 DUP3 MSTORE PUSH1 0x20 DUP3 ADD MSTORE LOG2 DUP1 RETURN JUMPDEST PUSH2 0xECB SWAP2 SWAP3 POP PUSH1 0x20 RETURNDATASIZE PUSH1 0x20 GT PUSH2 0x876 JUMPI PUSH2 0x867 DUP2 DUP4 PUSH2 0x114A JUMP JUMPDEST SWAP1 DUP9 PUSH2 0xE52 JUMP JUMPDEST PUSH1 0x40 MLOAD RETURNDATASIZE DUP11 DUP3 RETURNDATACOPY RETURNDATASIZE SWAP1 REVERT JUMPDEST DUP5 DUP1 REVERT JUMPDEST DUP3 CALLVALUE PUSH2 0x19A JUMPI PUSH1 0x20 CALLDATASIZE PUSH1 0x3 NOT ADD SLT PUSH2 0x19A JUMPI PUSH1 0x40 SWAP1 PUSH1 0x4 CALLDATALOAD DUP2 MSTORE PUSH1 0x6 PUSH1 0x20 MSTORE KECCAK256 DUP1 SLOAD SWAP1 PUSH1 0x1 DUP2 ADD SLOAD SWAP2 PUSH1 0x2 DUP3 ADD SLOAD SWAP4 PUSH2 0xF1C PUSH1 0x3 DUP5 ADD PUSH2 0x116C JUMP JUMPDEST SWAP3 PUSH1 0xFF PUSH1 0x4 DUP3 ADD SLOAD AND SWAP4 PUSH2 0xF5E PUSH1 0x5 DUP4 ADD SLOAD SWAP2 PUSH1 0x7 PUSH1 0x6 DUP6 ADD SLOAD SWAP5 ADD SLOAD SWAP6 PUSH1 0x40 MLOAD SWAP10 DUP11 SWAP10 PUSH2 0x100 SWAP3 DUP12 MSTORE PUSH1 0x20 DUP12 ADD MSTORE PUSH1 0x40 DUP11 ADD MSTORE DUP1 PUSH1 0x60 DUP11 ADD MSTORE DUP9 ADD SWAP1 PUSH2 0x1211 JUMP JUMPDEST SWAP5 ISZERO ISZERO PUSH1 0x80 DUP8 ADD MSTORE PUSH1 0xA0 DUP7 ADD MSTORE PUSH1 0xC0 DUP6 ADD MSTORE DUP4 ADD MSTORE SUB SWAP1 RETURN JUMPDEST DUP3 CALLVALUE PUSH2 0x19A JUMPI DUP1 PUSH1 0x3 NOT CALLDATASIZE ADD SLT PUSH2 0x19A JUMPI PUSH1 0x4 SLOAD PUSH1 0x40 MLOAD PUSH1 0x1 PUSH1 0x1 PUSH1 0xA0 SHL SUB SWAP1 SWAP2 AND DUP2 MSTORE PUSH1 0x20 SWAP1 RETURN JUMPDEST DUP3 CALLVALUE PUSH2 0x19A JUMPI PUSH1 0x20 CALLDATASIZE PUSH1 0x3 NOT ADD SLT PUSH2 0x19A JUMPI PUSH1 0x4 CALLDATALOAD PUSH1 0x1 PUSH1 0x1 PUSH1 0xA0 SHL SUB DUP2 AND SWAP1 DUP2 SWAP1 SUB PUSH2 0x390 JUMPI PUSH2 0xFCF PUSH2 0x12F2 JUMP JUMPDEST PUSH1 0x1 PUSH1 0x1 PUSH1 0x60 SHL SUB PUSH1 0xA0 SHL PUSH1 0x2 SLOAD AND OR PUSH1 0x2 SSTORE DUP1 RETURN JUMPDEST DUP3 CALLVALUE PUSH2 0x19A JUMPI DUP1 PUSH1 0x3 NOT CALLDATASIZE ADD SLT PUSH2 0x19A JUMPI PUSH1 0x20 PUSH1 0x3 SLOAD PUSH1 0x40 MLOAD SWAP1 DUP2 MSTORE RETURN JUMPDEST DUP3 CALLVALUE PUSH2 0x19A JUMPI PUSH2 0x1012 CALLDATASIZE PUSH2 0x1080 JUMP JUMPDEST SWAP2 SWAP1 DUP2 MSTORE PUSH1 0x7 PUSH1 0x20 MSTORE PUSH1 0x40 DUP2 KECCAK256 SWAP1 DUP2 SLOAD DUP4 LT ISZERO PUSH2 0x19A JUMPI PUSH1 0x20 PUSH2 0x1035 DUP5 DUP5 PUSH2 0x109B JUMP JUMPDEST SWAP1 SLOAD PUSH1 0x40 MLOAD SWAP2 PUSH1 0x3 SHL SHR DUP2 MSTORE RETURN JUMPDEST DUP4 SWAP1 CALLVALUE PUSH2 0x390 JUMPI DUP2 PUSH1 0x3 NOT CALLDATASIZE ADD SLT PUSH2 0x390 JUMPI PUSH1 0x5 SLOAD PUSH1 0x0 NOT DUP2 ADD SWAP1 DUP2 GT PUSH2 0x106C JUMPI PUSH1 0x20 SWAP3 POP DUP2 MSTORE RETURN JUMPDEST PUSH4 0x4E487B71 PUSH1 0xE0 SHL DUP4 MSTORE PUSH1 0x11 PUSH1 0x4 MSTORE PUSH1 0x24 DUP4 REVERT JUMPDEST PUSH1 0x40 SWAP1 PUSH1 0x3 NOT ADD SLT PUSH2 0x1096 JUMPI PUSH1 0x4 CALLDATALOAD SWAP1 PUSH1 0x24 CALLDATALOAD SWAP1 JUMP JUMPDEST PUSH1 0x0 DUP1 REVERT JUMPDEST DUP1 SLOAD DUP3 LT ISZERO PUSH2 0x10B3 JUMPI PUSH1 0x0 MSTORE PUSH1 0x20 PUSH1 0x0 KECCAK256 ADD SWAP1 PUSH1 0x0 SWAP1 JUMP JUMPDEST PUSH4 0x4E487B71 PUSH1 0xE0 SHL PUSH1 0x0 MSTORE PUSH1 0x32 PUSH1 0x4 MSTORE PUSH1 0x24 PUSH1 0x0 REVERT JUMPDEST SWAP1 PUSH1 0x1 DUP3 DUP2 SHR SWAP3 AND DUP1 ISZERO PUSH2 0x10F9 JUMPI JUMPDEST PUSH1 0x20 DUP4 LT EQ PUSH2 0x10E3 JUMPI JUMP JUMPDEST PUSH4 0x4E487B71 PUSH1 0xE0 SHL PUSH1 0x0 MSTORE PUSH1 0x22 PUSH1 0x4 MSTORE PUSH1 0x24 PUSH1 0x0 REVERT JUMPDEST SWAP2 PUSH1 0x7F AND SWAP2 PUSH2 0x10D8 JUMP JUMPDEST PUSH8 0xFFFFFFFFFFFFFFFF DUP2 GT PUSH2 0x1117 JUMPI PUSH1 0x40 MSTORE JUMP JUMPDEST PUSH4 0x4E487B71 PUSH1 0xE0 SHL PUSH1 0x0 MSTORE PUSH1 0x41 PUSH1 0x4 MSTORE PUSH1 0x24 PUSH1 0x0 REVERT JUMPDEST PUSH2 0x100 DUP2 ADD SWAP1 DUP2 LT PUSH8 0xFFFFFFFFFFFFFFFF DUP3 GT OR PUSH2 0x1117 JUMPI PUSH1 0x40 MSTORE JUMP JUMPDEST SWAP1 PUSH1 0x1F DUP1 NOT SWAP2 ADD AND DUP2 ADD SWAP1 DUP2 LT PUSH8 0xFFFFFFFFFFFFFFFF DUP3 GT OR PUSH2 0x1117 JUMPI PUSH1 0x40 MSTORE JUMP JUMPDEST SWAP1 PUSH1 0x40 MLOAD SWAP2 DUP3 PUSH1 0x0 DUP3 SLOAD PUSH2 0x117F DUP2 PUSH2 0x10C9 JUMP JUMPDEST SWAP1 DUP2 DUP5 MSTORE PUSH1 0x20 SWAP5 PUSH1 0x1 SWAP2 PUSH1 0x1 DUP2 AND SWAP1 DUP2 PUSH1 0x0 EQ PUSH2 0x11EF JUMPI POP PUSH1 0x1 EQ PUSH2 0x11B0 JUMPI JUMPDEST POP POP POP PUSH2 0x11AE SWAP3 POP SUB DUP4 PUSH2 0x114A JUMP JUMPDEST JUMP JUMPDEST PUSH1 0x0 SWAP1 DUP2 MSTORE DUP6 DUP2 KECCAK256 SWAP6 SWAP4 POP SWAP2 SWAP1 JUMPDEST DUP2 DUP4 LT PUSH2 0x11D7 JUMPI POP POP PUSH2 0x11AE SWAP4 POP DUP3 ADD ADD CODESIZE DUP1 DUP1 PUSH2 0x119F JUMP JUMPDEST DUP6 SLOAD DUP9 DUP5 ADD DUP6 ADD MSTORE SWAP5 DUP6 ADD SWAP5 DUP8 SWAP5 POP SWAP2 DUP4 ADD SWAP2 PUSH2 0x11BE JUMP JUMPDEST SWAP3 POP POP POP PUSH2 0x11AE SWAP5 SWAP3 POP PUSH1 0xFF NOT AND DUP3 DUP5 ADD MSTORE ISZERO ISZERO PUSH1 0x5 SHL DUP3 ADD ADD CODESIZE DUP1 DUP1 PUSH2 0x119F JUMP JUMPDEST SWAP2 SWAP1 DUP3 MLOAD SWAP3 DUP4 DUP3 MSTORE PUSH1 0x0 JUMPDEST DUP5 DUP2 LT PUSH2 0x123D JUMPI POP POP DUP3 PUSH1 0x0 PUSH1 0x20 DUP1 SWAP5 SWAP6 DUP5 ADD ADD MSTORE PUSH1 0x1F DUP1 NOT SWAP2 ADD AND ADD ADD SWAP1 JUMP JUMPDEST PUSH1 0x20 DUP2 DUP4 ADD DUP2 ADD MLOAD DUP5 DUP4 ADD DUP3 ADD MSTORE ADD PUSH2 0x121C JUMP JUMPDEST SWAP2 SWAP1 DUP3 SUB SWAP2 DUP3 GT PUSH2 0x125E JUMPI JUMP JUMPDEST PUSH4 0x4E487B71 PUSH1 0xE0 SHL PUSH1 0x0 MSTORE PUSH1 0x11 PUSH1 0x4 MSTORE PUSH1 0x24 PUSH1 0x0 REVERT JUMPDEST SWAP1 DUP2 PUSH1 0x20 SWAP2 SUB SLT PUSH2 0x1096 JUMPI MLOAD PUSH1 0x1 PUSH1 0x1 PUSH1 0xA0 SHL SUB DUP2 AND DUP2 SUB PUSH2 0x1096 JUMPI SWAP1 JUMP JUMPDEST DUP2 DUP2 MUL SWAP3 SWAP2 DUP2 ISZERO SWAP2 DUP5 DIV EQ OR ISZERO PUSH2 0x125E JUMPI JUMP JUMPDEST PUSH8 0xFFFFFFFFFFFFFFFF DUP2 GT PUSH2 0x1117 JUMPI PUSH1 0x1F ADD PUSH1 0x1F NOT AND PUSH1 0x20 ADD SWAP1 JUMP JUMPDEST RETURNDATASIZE ISZERO PUSH2 0x12ED JUMPI RETURNDATASIZE SWAP1 PUSH2 0x12D3 DUP3 PUSH2 0x12A6 JUMP JUMPDEST SWAP2 PUSH2 0x12E1 PUSH1 0x40 MLOAD SWAP4 DUP5 PUSH2 0x114A JUMP JUMPDEST DUP3 MSTORE RETURNDATASIZE PUSH1 0x0 PUSH1 0x20 DUP5 ADD RETURNDATACOPY JUMP JUMPDEST PUSH1 0x60 SWAP1 JUMP JUMPDEST PUSH1 0x0 SLOAD PUSH1 0x1 PUSH1 0x1 PUSH1 0xA0 SHL SUB AND CALLER SUB PUSH2 0x1306 JUMPI JUMP JUMPDEST PUSH1 0x40 MLOAD PUSH4 0x118CDAA7 PUSH1 0xE0 SHL DUP2 MSTORE CALLER PUSH1 0x4 DUP3 ADD MSTORE PUSH1 0x24 SWAP1 REVERT INVALID LOG2 PUSH5 0x6970667358 0x22 SLT KECCAK256 0xAF SWAP5 PUSH29 0xC07CA37A821D6DE3097071023020C14F925D2901B0174A344BF545D419 PUSH5 0x736F6C6343 STOP ADDMOD XOR STOP CALLER "},"methodIdentifiers":{"BPS_DENOMINATOR()":"e1a45218","agentSkills(uint256,uint256)":"0b6e14fb","agentToken()":"b05707e9","createSkill(uint256,uint256,bytes32,string)":"a8e5516a","economyHub()":"73bbfe82","feeVault()":"478222c2","getAgentSkillIds(uint256)":"bc8345c0","getSkill(uint256)":"bd880fae","getSkillCount()":"05f53b29","hasPurchased(uint256,uint256)":"c8615e01","owner()":"8da5cb5b","platformFeeBps()":"22dcd13e","purchaseSkill(uint256,uint256)":"8caf9b3f","renounceOwnership()":"715018a6","revenueSharing()":"d56a9e84","setFeeVault(address)":"a591f97f","setPlatformFeeBps(uint256)":"c580c942","setRevenueSharing(address)":"2e442adb","skills(uint256)":"50d15fbe","transferOwnership(address)":"f2fde38b","updateSkill(uint256,uint256,bool)":"6d77ffae"}}}}}