{"contracts/web4/AgentReplication.sol":{"AgentReplication":{"abi":[{"inputs":[{"internalType":"address","name":"_nfaToken","type":"address"},{"internalType":"address","name":"_economyHub","type":"address"}],"stateMutability":"nonpayable","type":"constructor"},{"inputs":[],"name":"InsufficientFunding","type":"error"},{"inputs":[],"name":"InvalidRevenueShare","type":"error"},{"inputs":[],"name":"NoParent","type":"error"},{"inputs":[],"name":"NotAgentOwner","type":"error"},{"inputs":[],"name":"NotAuthorizedModule","type":"error"},{"inputs":[{"internalType":"address","name":"owner","type":"address"}],"name":"OwnableInvalidOwner","type":"error"},{"inputs":[{"internalType":"address","name":"account","type":"address"}],"name":"OwnableUnauthorizedAccount","type":"error"},{"inputs":[],"name":"ParentNotActive","type":"error"},{"inputs":[],"name":"ReentrancyGuardReentrantCall","type":"error"},{"inputs":[],"name":"TransferFailed","type":"error"},{"inputs":[],"name":"ZeroAmount","type":"error"},{"anonymous":false,"inputs":[{"indexed":true,"internalType":"uint256","name":"parentId","type":"uint256"},{"indexed":true,"internalType":"uint256","name":"childId","type":"uint256"},{"indexed":false,"internalType":"uint16","name":"revenueShareBps","type":"uint16"},{"indexed":false,"internalType":"uint256","name":"fundingAmount","type":"uint256"},{"indexed":false,"internalType":"address","name":"childOwner","type":"address"}],"name":"AgentReplicated","type":"event"},{"anonymous":false,"inputs":[{"indexed":true,"internalType":"address","name":"module","type":"address"},{"indexed":false,"internalType":"bool","name":"authorized","type":"bool"}],"name":"ModuleAuthorized","type":"event"},{"anonymous":false,"inputs":[{"indexed":true,"internalType":"address","name":"previousOwner","type":"address"},{"indexed":true,"internalType":"address","name":"newOwner","type":"address"}],"name":"OwnershipTransferred","type":"event"},{"anonymous":false,"inputs":[{"indexed":true,"internalType":"uint256","name":"childId","type":"uint256"},{"indexed":true,"internalType":"uint256","name":"parentId","type":"uint256"},{"indexed":false,"internalType":"uint256","name":"amount","type":"uint256"},{"indexed":false,"internalType":"uint256","name":"totalShared","type":"uint256"}],"name":"RevenueShared","type":"event"},{"inputs":[],"name":"BPS_DENOMINATOR","outputs":[{"internalType":"uint256","name":"","type":"uint256"}],"stateMutability":"view","type":"function"},{"inputs":[],"name":"MAX_REVENUE_SHARE_BPS","outputs":[{"internalType":"uint16","name":"","type":"uint16"}],"stateMutability":"view","type":"function"},{"inputs":[{"internalType":"address","name":"","type":"address"}],"name":"authorizedModules","outputs":[{"internalType":"bool","name":"","type":"bool"}],"stateMutability":"view","type":"function"},{"inputs":[{"internalType":"uint256","name":"","type":"uint256"}],"name":"childLineage","outputs":[{"internalType":"uint256","name":"parentId","type":"uint256"},{"internalType":"uint16","name":"revenueShareBps","type":"uint16"},{"internalType":"uint256","name":"totalRevenueShared","type":"uint256"},{"internalType":"uint256","name":"replicatedAt","type":"uint256"},{"internalType":"bool","name":"exists","type":"bool"}],"stateMutability":"view","type":"function"},{"inputs":[],"name":"economyHub","outputs":[{"internalType":"contract IAgentEconomyHubFull","name":"","type":"address"}],"stateMutability":"view","type":"function"},{"inputs":[{"internalType":"uint256","name":"parentId","type":"uint256"}],"name":"getChildCount","outputs":[{"internalType":"uint256","name":"","type":"uint256"}],"stateMutability":"view","type":"function"},{"inputs":[{"internalType":"uint256","name":"parentId","type":"uint256"}],"name":"getChildren","outputs":[{"internalType":"uint256[]","name":"","type":"uint256[]"}],"stateMutability":"view","type":"function"},{"inputs":[{"internalType":"uint256","name":"childId","type":"uint256"}],"name":"getLineage","outputs":[{"components":[{"internalType":"uint256","name":"parentId","type":"uint256"},{"internalType":"uint16","name":"revenueShareBps","type":"uint16"},{"internalType":"uint256","name":"totalRevenueShared","type":"uint256"},{"internalType":"uint256","name":"replicatedAt","type":"uint256"},{"internalType":"bool","name":"exists","type":"bool"}],"internalType":"struct AgentReplication.Lineage","name":"","type":"tuple"}],"stateMutability":"view","type":"function"},{"inputs":[{"internalType":"uint256","name":"childId","type":"uint256"}],"name":"getParent","outputs":[{"internalType":"uint256","name":"parentId","type":"uint256"},{"internalType":"uint16","name":"bps","type":"uint16"},{"internalType":"bool","name":"exists","type":"bool"}],"stateMutability":"view","type":"function"},{"inputs":[],"name":"nfaToken","outputs":[{"internalType":"contract IBAP578Mintable","name":"","type":"address"}],"stateMutability":"view","type":"function"},{"inputs":[],"name":"owner","outputs":[{"internalType":"address","name":"","type":"address"}],"stateMutability":"view","type":"function"},{"inputs":[{"internalType":"uint256","name":"","type":"uint256"},{"internalType":"uint256","name":"","type":"uint256"}],"name":"parentChildren","outputs":[{"internalType":"uint256","name":"","type":"uint256"}],"stateMutability":"view","type":"function"},{"inputs":[{"internalType":"uint256","name":"childId","type":"uint256"},{"internalType":"uint256","name":"amount","type":"uint256"}],"name":"recordRevenueShared","outputs":[],"stateMutability":"nonpayable","type":"function"},{"inputs":[],"name":"renounceOwnership","outputs":[],"stateMutability":"nonpayable","type":"function"},{"inputs":[{"internalType":"uint256","name":"parentId","type":"uint256"},{"internalType":"address","name":"childOwner","type":"address"},{"internalType":"string","name":"name_","type":"string"},{"internalType":"string","name":"description_","type":"string"},{"internalType":"string","name":"modelType_","type":"string"},{"internalType":"bytes32","name":"systemPromptHash","type":"bytes32"},{"internalType":"string","name":"metadataURI","type":"string"},{"internalType":"uint16","name":"revenueShareBps","type":"uint16"},{"internalType":"uint256","name":"fundingAmount","type":"uint256"}],"name":"replicate","outputs":[{"internalType":"uint256","name":"childId","type":"uint256"}],"stateMutability":"payable","type":"function"},{"inputs":[],"name":"replicationFee","outputs":[{"internalType":"uint256","name":"","type":"uint256"}],"stateMutability":"view","type":"function"},{"inputs":[{"internalType":"address","name":"module","type":"address"},{"internalType":"bool","name":"authorized","type":"bool"}],"name":"setModuleAuthorized","outputs":[],"stateMutability":"nonpayable","type":"function"},{"inputs":[{"internalType":"uint256","name":"_fee","type":"uint256"}],"name":"setReplicationFee","outputs":[],"stateMutability":"nonpayable","type":"function"},{"inputs":[{"internalType":"address","name":"newOwner","type":"address"}],"name":"transferOwnership","outputs":[],"stateMutability":"nonpayable","type":"function"}],"evm":{"bytecode":{"linkReferences":{},"object":"60c03461014357601f6112ce38819003918201601f19168301916001600160401b0383118484101761014857808492604094855283398101031261014357610052602061004b8361015e565b920161015e565b90331561012a5760008054336001600160a01b0319821681178355604051946001600160a01b0394909385939192918416907f8be0079c531659141344cd1fd0a4f28419497f9722a3daafe3b4186f6b6457e09080a3600180556611c37937e08000600555166080521660a05261115b90816101738239608051818181610235015281816107c00152818161082701528181610891015281816109c101528181610a070152610a6c015260a051818181610392015281816108f601528181610a9d01528181610af101528181610b2d0152610b850152f35b604051631e4fbdf760e01b815260006004820152602490fd5b600080fd5b634e487b7160e01b600052604160045260246000fd5b51906001600160a01b03821682036101435756fe608080604052600436101561001357600080fd5b600090813560e01c9081630d5c609b146106f05750806317f6fe5b146106b15780633ceaef1e1461068e578063403d66b21461064d578063414533de1461060257806349ae8dc31461055e57806357c6cc39146104a75780636431d6901461041b578063715018a6146103c157806373bbfe821461037c5780637a77af5c146103525780638da5cb5b1461032b578063b5ae20581461030e578063b8cbb10714610264578063bfd8fefc1461021f578063c86dde4f146101bf578063e1a45218146101a2578063f2fde38b146101125763fffba098146100f257600080fd5b3461010f578060031936011261010f576020600554604051908152f35b80fd5b503461010f57602036600319011261010f5761012c610f80565b6101346110f9565b6001600160a01b0390811690811561018957600054826bffffffffffffffffffffffff60a01b821617600055167f8be0079c531659141344cd1fd0a4f28419497f9722a3daafe3b4186f6b6457e0600080a380f35b604051631e4fbdf760e01b815260048101849052602490fd5b503461010f578060031936011261010f5760206040516127108152f35b503461010f57602036600319011261010f57604060a091600435815260026020522080549061ffff60018201541690600281015460ff60046003840154930154169260405194855260208501526040840152606083015215156080820152f35b503461010f578060031936011261010f576040517f00000000000000000000000000000000000000000000000000000000000000006001600160a01b03168152602090f35b503461010f5761027336610fc9565b90338352600460205260ff604084205416156102fc578083526002602052604083209160ff600484015416156102ea5760407fdb8541ae165c617401adfc561428b410a690a08a8dbc77a6be816c00e6b230a49160028501946102d7828754611075565b809655549482519182526020820152a380f35b60405163175ba4b360e21b8152600490fd5b60405163ae75444760e01b8152600490fd5b503461010f578060031936011261010f5760206040516113888152f35b503461010f578060031936011261010f57546040516001600160a01b039091168152602090f35b503461010f57602036600319011261010f5760406020916004358152600383522054604051908152f35b503461010f578060031936011261010f576040517f00000000000000000000000000000000000000000000000000000000000000006001600160a01b03168152602090f35b503461010f578060031936011261010f576103da6110f9565b600080546001600160a01b0319811682556001600160a01b03167f8be0079c531659141344cd1fd0a4f28419497f9722a3daafe3b4186f6b6457e08280a380f35b503461010f57604036600319011261010f57610435610f80565b60243590811515908183036104a3577f7bfed9e73cc01c459d482800942a9eef9046d01f68c4881d389495df294d10ca916104996020926104746110f9565b60018060a01b03169485875260048452604087209060ff801983541691151516179055565b604051908152a280f35b8380fd5b503461010f57602036600319011261010f5760408160a092608083516104cc81611037565b8281528260208201528285820152826060820152015260043581526002602052206040516104f981611037565b81549182825261ffff80600183015416906020840191825260028301549160408501928352608060ff60046003870154966060890197885201541695019415158552604051958652511660208501525160408401525160608301525115156080820152f35b503461010f576020806003193601126105fe576004358252600381526040822060405192838383549182815201908193835284832090835b8181106105ea57505050846105ac910385611053565b60405193838594850191818652518092526040850193925b8281106105d357505050500390f35b8351855286955093810193928101926001016105c4565b825484529286019260019283019201610596565b5080fd5b503461010f57602036600319011261010f576040606091600435815260026020522080549060ff600461ffff6001840154169201541690604051928352602083015215156040820152f35b503461010f5761065c36610fc9565b9190815260036020526040812090815483101561010f57602061067f8484610fdf565b90549060031b1c604051908152f35b503461010f57602036600319011261010f576106a86110f9565b60043560055580f35b503461010f57602036600319011261010f5760209060ff906040906001600160a01b036106dc610f80565b168152600484522054166040519015158152f35b8261012036600319011261010f576024356001600160a01b03811681036105fe5767ffffffffffffffff916044358381116105fe57610733903690600401610f9b565b919093606435818111610f7c5761074e903690600401610f9b565b959093608435838111610f7857610769903690600401610f9b565b9360c435908111610f7457610782903690600401610f9b565b909160e4359a61ffff8c168c03610e8a57600260015414610f65575060026001556040516331a9108f60e11b815260048035908201526020816024817f00000000000000000000000000000000000000000000000000000000000000006001600160a01b03165afa908115610e96578891610f23575b50336001600160a01b0390911603610f1157604051631c9696c760e11b815260048035908201526020816024817f00000000000000000000000000000000000000000000000000000000000000006001600160a01b03165afa908115610e96578891610ed6575b5015610ec55761138861ffff8c1611610eb3576101043515610ea1576040516313966db560e01b8152956020876004817f00000000000000000000000000000000000000000000000000000000000000006001600160a01b03165afa968715610e96578897610e5e575b506108d687600554611075565b604051634903b0d160e01b815260048035908201529099906020816024817f00000000000000000000000000000000000000000000000000000000000000006001600160a01b03165afa908115610e53578a91610e1d575b506101043511610e0b57893410610e0b5760405163cdcc6d6960e01b815260e060048201529b8c9788976109679160e48a019190611098565b9060031988830301602489015261097d92611098565b9060031986830301604487015261099392611098565b90606484016001905260a43560848501528660a48501526003198483030160c48501526109bf92611098565b7f00000000000000000000000000000000000000000000000000000000000000006001600160a01b0316939190039082905a94602095f1938415610dfe578194610dca575b507f00000000000000000000000000000000000000000000000000000000000000006001600160a01b03163b1561010f576040516323b872dd60e01b81523060048201526001600160a01b0384811660248301526044820186905282908290606490829084907f0000000000000000000000000000000000000000000000000000000000000000165af18015610dbf57610db0575b50907f00000000000000000000000000000000000000000000000000000000000000006001600160a01b03163b156105fe5760405163a6f7986160e01b815260048035908201526101043560248201528281604481837f00000000000000000000000000000000000000000000000000000000000000006001600160a01b03165af18015610d9157908391610d9c575b50507f00000000000000000000000000000000000000000000000000000000000000006001600160a01b03163b156105fe57604051635488ba9360e01b81526004810185905261010435602482018190528390829060449082907f00000000000000000000000000000000000000000000000000000000000000006001600160a01b03165af18015610d9157908391610d7d575b5050610c3e604051610bce81611037565b600435815260046020820161ffff891681526040830186815260608401904282526080850192600184528a89526002602052604089209551865561ffff6001870191511661ffff1982541617905551600285015551600384015551151591019060ff801983541691151516179055565b600435825260036020526040822080549068010000000000000000821015610d695790610c7091600182018155610fdf565b81549060031b9086821b91600019901b191617905580340390348211610d55579082913403610d39575b505060055480610cfe575b60208480878661ffff60405192168252610104358583015260018060a01b031660408201527fc4562a56824d2f193a9631da738a40fafa2519e676de557566371afe26617e42606060043592a360018055604051908152f35b8154829182918291906001600160a01b03165af1610d1a6110b9565b5015610d27578380610ca5565b6040516312171d8360e31b8152600490fd5b81808092335af1610d486110b9565b5015610d27578085610c9a565b634e487b7160e01b83526011600452602483fd5b634e487b7160e01b84526041600452602484fd5b610d869061100d565b6105fe578186610bbd565b6040513d85823e3d90fd5b610da59061100d565b6105fe578186610b29565b610db99061100d565b85610a99565b6040513d84823e3d90fd5b9093506020813d602011610df6575b81610de660209383611053565b810103126104a357519285610a04565b3d9150610dd9565b50604051903d90823e3d90fd5b6040516357e000b160e01b8152600490fd5b90506020813d602011610e4b575b81610e3860209383611053565b81010312610e4757518e61092e565b8980fd5b3d9150610e2b565b6040513d8c823e3d90fd5b9096506020813d602011610e8e575b81610e7a60209383611053565b81010312610e8a5751958c6108c9565b8780fd5b3d9150610e6d565b6040513d8a823e3d90fd5b604051631f2a200560e01b8152600490fd5b604051630c1405c960e31b8152600490fd5b60405162cc037960e61b8152600490fd5b90506020813d602011610f09575b81610ef160209383611053565b81010312610e8a57518015158103610e8a578c61085f565b3d9150610ee4565b604051630e41dcbf60e21b8152600490fd5b90506020813d602011610f5d575b81610f3e60209383611053565b81010312610e8a57516001600160a01b0381168103610e8a578c6107f8565b3d9150610f31565b633ee5aeb560e01b8152600490fd5b8580fd5b8480fd5b8280fd5b600435906001600160a01b0382168203610f9657565b600080fd5b9181601f84011215610f965782359167ffffffffffffffff8311610f965760208381860195010111610f9657565b6040906003190112610f96576004359060243590565b8054821015610ff75760005260206000200190600090565b634e487b7160e01b600052603260045260246000fd5b67ffffffffffffffff811161102157604052565b634e487b7160e01b600052604160045260246000fd5b60a0810190811067ffffffffffffffff82111761102157604052565b90601f8019910116810190811067ffffffffffffffff82111761102157604052565b9190820180921161108257565b634e487b7160e01b600052601160045260246000fd5b908060209392818452848401376000828201840152601f01601f1916010190565b3d156110f4573d9067ffffffffffffffff821161102157604051916110e8601f8201601f191660200184611053565b82523d6000602084013e565b606090565b6000546001600160a01b0316330361110d57565b60405163118cdaa760e01b8152336004820152602490fdfea2646970667358221220c8ee1232d5dbadb6f5f6ac42dec1d4c6f52a8cb97ee4f4c35249b2f14cb34db164736f6c63430008180033","opcodes":"PUSH1 0xC0 CALLVALUE PUSH2 0x143 JUMPI PUSH1 0x1F PUSH2 0x12CE CODESIZE DUP2 SWAP1 SUB SWAP2 DUP3 ADD PUSH1 0x1F NOT AND DUP4 ADD SWAP2 PUSH1 0x1 PUSH1 0x1 PUSH1 0x40 SHL SUB DUP4 GT DUP5 DUP5 LT OR PUSH2 0x148 JUMPI DUP1 DUP5 SWAP3 PUSH1 0x40 SWAP5 DUP6 MSTORE DUP4 CODECOPY DUP2 ADD SUB SLT PUSH2 0x143 JUMPI PUSH2 0x52 PUSH1 0x20 PUSH2 0x4B DUP4 PUSH2 0x15E JUMP JUMPDEST SWAP3 ADD PUSH2 0x15E JUMP JUMPDEST SWAP1 CALLER ISZERO PUSH2 0x12A JUMPI PUSH1 0x0 DUP1 SLOAD CALLER PUSH1 0x1 PUSH1 0x1 PUSH1 0xA0 SHL SUB NOT DUP3 AND DUP2 OR DUP4 SSTORE PUSH1 0x40 MLOAD SWAP5 PUSH1 0x1 PUSH1 0x1 PUSH1 0xA0 SHL SUB SWAP5 SWAP1 SWAP4 DUP6 SWAP4 SWAP2 SWAP3 SWAP2 DUP5 AND SWAP1 PUSH32 0x8BE0079C531659141344CD1FD0A4F28419497F9722A3DAAFE3B4186F6B6457E0 SWAP1 DUP1 LOG3 PUSH1 0x1 DUP1 SSTORE PUSH7 0x11C37937E08000 PUSH1 0x5 SSTORE AND PUSH1 0x80 MSTORE AND PUSH1 0xA0 MSTORE PUSH2 0x115B SWAP1 DUP2 PUSH2 0x173 DUP3 CODECOPY PUSH1 0x80 MLOAD DUP2 DUP2 DUP2 PUSH2 0x235 ADD MSTORE DUP2 DUP2 PUSH2 0x7C0 ADD MSTORE DUP2 DUP2 PUSH2 0x827 ADD MSTORE DUP2 DUP2 PUSH2 0x891 ADD MSTORE DUP2 DUP2 PUSH2 0x9C1 ADD MSTORE DUP2 DUP2 PUSH2 0xA07 ADD MSTORE PUSH2 0xA6C ADD MSTORE PUSH1 0xA0 MLOAD DUP2 DUP2 DUP2 PUSH2 0x392 ADD MSTORE DUP2 DUP2 PUSH2 0x8F6 ADD MSTORE DUP2 DUP2 PUSH2 0xA9D ADD MSTORE DUP2 DUP2 PUSH2 0xAF1 ADD MSTORE DUP2 DUP2 PUSH2 0xB2D ADD MSTORE PUSH2 0xB85 ADD MSTORE RETURN JUMPDEST PUSH1 0x40 MLOAD PUSH4 0x1E4FBDF7 PUSH1 0xE0 SHL DUP2 MSTORE PUSH1 0x0 PUSH1 0x4 DUP3 ADD MSTORE PUSH1 0x24 SWAP1 REVERT JUMPDEST PUSH1 0x0 DUP1 REVERT JUMPDEST PUSH4 0x4E487B71 PUSH1 0xE0 SHL PUSH1 0x0 MSTORE PUSH1 0x41 PUSH1 0x4 MSTORE PUSH1 0x24 PUSH1 0x0 REVERT JUMPDEST MLOAD SWAP1 PUSH1 0x1 PUSH1 0x1 PUSH1 0xA0 SHL SUB DUP3 AND DUP3 SUB PUSH2 0x143 JUMPI JUMP INVALID PUSH1 0x80 DUP1 PUSH1 0x40 MSTORE PUSH1 0x4 CALLDATASIZE LT ISZERO PUSH2 0x13 JUMPI PUSH1 0x0 DUP1 REVERT JUMPDEST PUSH1 0x0 SWAP1 DUP2 CALLDATALOAD PUSH1 0xE0 SHR SWAP1 DUP2 PUSH4 0xD5C609B EQ PUSH2 0x6F0 JUMPI POP DUP1 PUSH4 0x17F6FE5B EQ PUSH2 0x6B1 JUMPI DUP1 PUSH4 0x3CEAEF1E EQ PUSH2 0x68E JUMPI DUP1 PUSH4 0x403D66B2 EQ PUSH2 0x64D JUMPI DUP1 PUSH4 0x414533DE EQ PUSH2 0x602 JUMPI DUP1 PUSH4 0x49AE8DC3 EQ PUSH2 0x55E JUMPI DUP1 PUSH4 0x57C6CC39 EQ PUSH2 0x4A7 JUMPI DUP1 PUSH4 0x6431D690 EQ PUSH2 0x41B JUMPI DUP1 PUSH4 0x715018A6 EQ PUSH2 0x3C1 JUMPI DUP1 PUSH4 0x73BBFE82 EQ PUSH2 0x37C JUMPI DUP1 PUSH4 0x7A77AF5C EQ PUSH2 0x352 JUMPI DUP1 PUSH4 0x8DA5CB5B EQ PUSH2 0x32B JUMPI DUP1 PUSH4 0xB5AE2058 EQ PUSH2 0x30E JUMPI DUP1 PUSH4 0xB8CBB107 EQ PUSH2 0x264 JUMPI DUP1 PUSH4 0xBFD8FEFC EQ PUSH2 0x21F JUMPI DUP1 PUSH4 0xC86DDE4F EQ PUSH2 0x1BF JUMPI DUP1 PUSH4 0xE1A45218 EQ PUSH2 0x1A2 JUMPI DUP1 PUSH4 0xF2FDE38B EQ PUSH2 0x112 JUMPI PUSH4 0xFFFBA098 EQ PUSH2 0xF2 JUMPI PUSH1 0x0 DUP1 REVERT JUMPDEST CALLVALUE PUSH2 0x10F JUMPI DUP1 PUSH1 0x3 NOT CALLDATASIZE ADD SLT PUSH2 0x10F JUMPI PUSH1 0x20 PUSH1 0x5 SLOAD PUSH1 0x40 MLOAD SWAP1 DUP2 MSTORE RETURN JUMPDEST DUP1 REVERT JUMPDEST POP CALLVALUE PUSH2 0x10F JUMPI PUSH1 0x20 CALLDATASIZE PUSH1 0x3 NOT ADD SLT PUSH2 0x10F JUMPI PUSH2 0x12C PUSH2 0xF80 JUMP JUMPDEST PUSH2 0x134 PUSH2 0x10F9 JUMP JUMPDEST PUSH1 0x1 PUSH1 0x1 PUSH1 0xA0 SHL SUB SWAP1 DUP2 AND SWAP1 DUP2 ISZERO PUSH2 0x189 JUMPI PUSH1 0x0 SLOAD DUP3 PUSH12 0xFFFFFFFFFFFFFFFFFFFFFFFF PUSH1 0xA0 SHL DUP3 AND OR PUSH1 0x0 SSTORE AND PUSH32 0x8BE0079C531659141344CD1FD0A4F28419497F9722A3DAAFE3B4186F6B6457E0 PUSH1 0x0 DUP1 LOG3 DUP1 RETURN JUMPDEST PUSH1 0x40 MLOAD PUSH4 0x1E4FBDF7 PUSH1 0xE0 SHL DUP2 MSTORE PUSH1 0x4 DUP2 ADD DUP5 SWAP1 MSTORE PUSH1 0x24 SWAP1 REVERT JUMPDEST POP CALLVALUE PUSH2 0x10F JUMPI DUP1 PUSH1 0x3 NOT CALLDATASIZE ADD SLT PUSH2 0x10F JUMPI PUSH1 0x20 PUSH1 0x40 MLOAD PUSH2 0x2710 DUP2 MSTORE RETURN JUMPDEST POP CALLVALUE PUSH2 0x10F JUMPI PUSH1 0x20 CALLDATASIZE PUSH1 0x3 NOT ADD SLT PUSH2 0x10F JUMPI PUSH1 0x40 PUSH1 0xA0 SWAP2 PUSH1 0x4 CALLDATALOAD DUP2 MSTORE PUSH1 0x2 PUSH1 0x20 MSTORE KECCAK256 DUP1 SLOAD SWAP1 PUSH2 0xFFFF PUSH1 0x1 DUP3 ADD SLOAD AND SWAP1 PUSH1 0x2 DUP2 ADD SLOAD PUSH1 0xFF PUSH1 0x4 PUSH1 0x3 DUP5 ADD SLOAD SWAP4 ADD SLOAD AND SWAP3 PUSH1 0x40 MLOAD SWAP5 DUP6 MSTORE PUSH1 0x20 DUP6 ADD MSTORE PUSH1 0x40 DUP5 ADD MSTORE PUSH1 0x60 DUP4 ADD MSTORE ISZERO ISZERO PUSH1 0x80 DUP3 ADD MSTORE RETURN JUMPDEST POP CALLVALUE PUSH2 0x10F JUMPI DUP1 PUSH1 0x3 NOT CALLDATASIZE ADD SLT PUSH2 0x10F JUMPI PUSH1 0x40 MLOAD PUSH32 0x0 PUSH1 0x1 PUSH1 0x1 PUSH1 0xA0 SHL SUB AND DUP2 MSTORE PUSH1 0x20 SWAP1 RETURN JUMPDEST POP CALLVALUE PUSH2 0x10F JUMPI PUSH2 0x273 CALLDATASIZE PUSH2 0xFC9 JUMP JUMPDEST SWAP1 CALLER DUP4 MSTORE PUSH1 0x4 PUSH1 0x20 MSTORE PUSH1 0xFF PUSH1 0x40 DUP5 KECCAK256 SLOAD AND ISZERO PUSH2 0x2FC JUMPI DUP1 DUP4 MSTORE PUSH1 0x2 PUSH1 0x20 MSTORE PUSH1 0x40 DUP4 KECCAK256 SWAP2 PUSH1 0xFF PUSH1 0x4 DUP5 ADD SLOAD AND ISZERO PUSH2 0x2EA JUMPI PUSH1 0x40 PUSH32 0xDB8541AE165C617401ADFC561428B410A690A08A8DBC77A6BE816C00E6B230A4 SWAP2 PUSH1 0x2 DUP6 ADD SWAP5 PUSH2 0x2D7 DUP3 DUP8 SLOAD PUSH2 0x1075 JUMP JUMPDEST DUP1 SWAP7 SSTORE SLOAD SWAP5 DUP3 MLOAD SWAP2 DUP3 MSTORE PUSH1 0x20 DUP3 ADD MSTORE LOG3 DUP1 RETURN JUMPDEST PUSH1 0x40 MLOAD PUSH4 0x175BA4B3 PUSH1 0xE2 SHL DUP2 MSTORE PUSH1 0x4 SWAP1 REVERT JUMPDEST PUSH1 0x40 MLOAD PUSH4 0xAE754447 PUSH1 0xE0 SHL DUP2 MSTORE PUSH1 0x4 SWAP1 REVERT JUMPDEST POP CALLVALUE PUSH2 0x10F JUMPI DUP1 PUSH1 0x3 NOT CALLDATASIZE ADD SLT PUSH2 0x10F JUMPI PUSH1 0x20 PUSH1 0x40 MLOAD PUSH2 0x1388 DUP2 MSTORE RETURN JUMPDEST POP CALLVALUE PUSH2 0x10F JUMPI DUP1 PUSH1 0x3 NOT CALLDATASIZE ADD SLT PUSH2 0x10F JUMPI SLOAD PUSH1 0x40 MLOAD PUSH1 0x1 PUSH1 0x1 PUSH1 0xA0 SHL SUB SWAP1 SWAP2 AND DUP2 MSTORE PUSH1 0x20 SWAP1 RETURN JUMPDEST POP CALLVALUE PUSH2 0x10F JUMPI PUSH1 0x20 CALLDATASIZE PUSH1 0x3 NOT ADD SLT PUSH2 0x10F JUMPI PUSH1 0x40 PUSH1 0x20 SWAP2 PUSH1 0x4 CALLDATALOAD DUP2 MSTORE PUSH1 0x3 DUP4 MSTORE KECCAK256 SLOAD PUSH1 0x40 MLOAD SWAP1 DUP2 MSTORE RETURN JUMPDEST POP CALLVALUE PUSH2 0x10F JUMPI DUP1 PUSH1 0x3 NOT CALLDATASIZE ADD SLT PUSH2 0x10F JUMPI PUSH1 0x40 MLOAD PUSH32 0x0 PUSH1 0x1 PUSH1 0x1 PUSH1 0xA0 SHL SUB AND DUP2 MSTORE PUSH1 0x20 SWAP1 RETURN JUMPDEST POP CALLVALUE PUSH2 0x10F JUMPI DUP1 PUSH1 0x3 NOT CALLDATASIZE ADD SLT PUSH2 0x10F JUMPI PUSH2 0x3DA PUSH2 0x10F9 JUMP JUMPDEST PUSH1 0x0 DUP1 SLOAD PUSH1 0x1 PUSH1 0x1 PUSH1 0xA0 SHL SUB NOT DUP2 AND DUP3 SSTORE PUSH1 0x1 PUSH1 0x1 PUSH1 0xA0 SHL SUB AND PUSH32 0x8BE0079C531659141344CD1FD0A4F28419497F9722A3DAAFE3B4186F6B6457E0 DUP3 DUP1 LOG3 DUP1 RETURN JUMPDEST POP CALLVALUE PUSH2 0x10F JUMPI PUSH1 0x40 CALLDATASIZE PUSH1 0x3 NOT ADD SLT PUSH2 0x10F JUMPI PUSH2 0x435 PUSH2 0xF80 JUMP JUMPDEST PUSH1 0x24 CALLDATALOAD SWAP1 DUP2 ISZERO ISZERO SWAP1 DUP2 DUP4 SUB PUSH2 0x4A3 JUMPI PUSH32 0x7BFED9E73CC01C459D482800942A9EEF9046D01F68C4881D389495DF294D10CA SWAP2 PUSH2 0x499 PUSH1 0x20 SWAP3 PUSH2 0x474 PUSH2 0x10F9 JUMP JUMPDEST PUSH1 0x1 DUP1 PUSH1 0xA0 SHL SUB AND SWAP5 DUP6 DUP8 MSTORE PUSH1 0x4 DUP5 MSTORE PUSH1 0x40 DUP8 KECCAK256 SWAP1 PUSH1 0xFF DUP1 NOT DUP4 SLOAD AND SWAP2 ISZERO ISZERO AND OR SWAP1 SSTORE JUMP JUMPDEST PUSH1 0x40 MLOAD SWAP1 DUP2 MSTORE LOG2 DUP1 RETURN JUMPDEST DUP4 DUP1 REVERT JUMPDEST POP CALLVALUE PUSH2 0x10F JUMPI PUSH1 0x20 CALLDATASIZE PUSH1 0x3 NOT ADD SLT PUSH2 0x10F JUMPI PUSH1 0x40 DUP2 PUSH1 0xA0 SWAP3 PUSH1 0x80 DUP4 MLOAD PUSH2 0x4CC DUP2 PUSH2 0x1037 JUMP JUMPDEST DUP3 DUP2 MSTORE DUP3 PUSH1 0x20 DUP3 ADD MSTORE DUP3 DUP6 DUP3 ADD MSTORE DUP3 PUSH1 0x60 DUP3 ADD MSTORE ADD MSTORE PUSH1 0x4 CALLDATALOAD DUP2 MSTORE PUSH1 0x2 PUSH1 0x20 MSTORE KECCAK256 PUSH1 0x40 MLOAD PUSH2 0x4F9 DUP2 PUSH2 0x1037 JUMP JUMPDEST DUP2 SLOAD SWAP2 DUP3 DUP3 MSTORE PUSH2 0xFFFF DUP1 PUSH1 0x1 DUP4 ADD SLOAD AND SWAP1 PUSH1 0x20 DUP5 ADD SWAP2 DUP3 MSTORE PUSH1 0x2 DUP4 ADD SLOAD SWAP2 PUSH1 0x40 DUP6 ADD SWAP3 DUP4 MSTORE PUSH1 0x80 PUSH1 0xFF PUSH1 0x4 PUSH1 0x3 DUP8 ADD SLOAD SWAP7 PUSH1 0x60 DUP10 ADD SWAP8 DUP9 MSTORE ADD SLOAD AND SWAP6 ADD SWAP5 ISZERO ISZERO DUP6 MSTORE PUSH1 0x40 MLOAD SWAP6 DUP7 MSTORE MLOAD AND PUSH1 0x20 DUP6 ADD MSTORE MLOAD PUSH1 0x40 DUP5 ADD MSTORE MLOAD PUSH1 0x60 DUP4 ADD MSTORE MLOAD ISZERO ISZERO PUSH1 0x80 DUP3 ADD MSTORE RETURN JUMPDEST POP CALLVALUE PUSH2 0x10F JUMPI PUSH1 0x20 DUP1 PUSH1 0x3 NOT CALLDATASIZE ADD SLT PUSH2 0x5FE JUMPI PUSH1 0x4 CALLDATALOAD DUP3 MSTORE PUSH1 0x3 DUP2 MSTORE PUSH1 0x40 DUP3 KECCAK256 PUSH1 0x40 MLOAD SWAP3 DUP4 DUP4 DUP4 SLOAD SWAP2 DUP3 DUP2 MSTORE ADD SWAP1 DUP2 SWAP4 DUP4 MSTORE DUP5 DUP4 KECCAK256 SWAP1 DUP4 JUMPDEST DUP2 DUP2 LT PUSH2 0x5EA JUMPI POP POP POP DUP5 PUSH2 0x5AC SWAP2 SUB DUP6 PUSH2 0x1053 JUMP JUMPDEST PUSH1 0x40 MLOAD SWAP4 DUP4 DUP6 SWAP5 DUP6 ADD SWAP2 DUP2 DUP7 MSTORE MLOAD DUP1 SWAP3 MSTORE PUSH1 0x40 DUP6 ADD SWAP4 SWAP3 JUMPDEST DUP3 DUP2 LT PUSH2 0x5D3 JUMPI POP POP POP POP SUB SWAP1 RETURN JUMPDEST DUP4 MLOAD DUP6 MSTORE DUP7 SWAP6 POP SWAP4 DUP2 ADD SWAP4 SWAP3 DUP2 ADD SWAP3 PUSH1 0x1 ADD PUSH2 0x5C4 JUMP JUMPDEST DUP3 SLOAD DUP5 MSTORE SWAP3 DUP7 ADD SWAP3 PUSH1 0x1 SWAP3 DUP4 ADD SWAP3 ADD PUSH2 0x596 JUMP JUMPDEST POP DUP1 REVERT JUMPDEST POP CALLVALUE PUSH2 0x10F JUMPI PUSH1 0x20 CALLDATASIZE PUSH1 0x3 NOT ADD SLT PUSH2 0x10F JUMPI PUSH1 0x40 PUSH1 0x60 SWAP2 PUSH1 0x4 CALLDATALOAD DUP2 MSTORE PUSH1 0x2 PUSH1 0x20 MSTORE KECCAK256 DUP1 SLOAD SWAP1 PUSH1 0xFF PUSH1 0x4 PUSH2 0xFFFF PUSH1 0x1 DUP5 ADD SLOAD AND SWAP3 ADD SLOAD AND SWAP1 PUSH1 0x40 MLOAD SWAP3 DUP4 MSTORE PUSH1 0x20 DUP4 ADD MSTORE ISZERO ISZERO PUSH1 0x40 DUP3 ADD MSTORE RETURN JUMPDEST POP CALLVALUE PUSH2 0x10F JUMPI PUSH2 0x65C CALLDATASIZE PUSH2 0xFC9 JUMP JUMPDEST SWAP2 SWAP1 DUP2 MSTORE PUSH1 0x3 PUSH1 0x20 MSTORE PUSH1 0x40 DUP2 KECCAK256 SWAP1 DUP2 SLOAD DUP4 LT ISZERO PUSH2 0x10F JUMPI PUSH1 0x20 PUSH2 0x67F DUP5 DUP5 PUSH2 0xFDF JUMP JUMPDEST SWAP1 SLOAD SWAP1 PUSH1 0x3 SHL SHR PUSH1 0x40 MLOAD SWAP1 DUP2 MSTORE RETURN JUMPDEST POP CALLVALUE PUSH2 0x10F JUMPI PUSH1 0x20 CALLDATASIZE PUSH1 0x3 NOT ADD SLT PUSH2 0x10F JUMPI PUSH2 0x6A8 PUSH2 0x10F9 JUMP JUMPDEST PUSH1 0x4 CALLDATALOAD PUSH1 0x5 SSTORE DUP1 RETURN JUMPDEST POP CALLVALUE PUSH2 0x10F JUMPI PUSH1 0x20 CALLDATASIZE PUSH1 0x3 NOT ADD SLT PUSH2 0x10F JUMPI PUSH1 0x20 SWAP1 PUSH1 0xFF SWAP1 PUSH1 0x40 SWAP1 PUSH1 0x1 PUSH1 0x1 PUSH1 0xA0 SHL SUB PUSH2 0x6DC PUSH2 0xF80 JUMP JUMPDEST AND DUP2 MSTORE PUSH1 0x4 DUP5 MSTORE KECCAK256 SLOAD AND PUSH1 0x40 MLOAD SWAP1 ISZERO ISZERO DUP2 MSTORE RETURN JUMPDEST DUP3 PUSH2 0x120 CALLDATASIZE PUSH1 0x3 NOT ADD SLT PUSH2 0x10F JUMPI PUSH1 0x24 CALLDATALOAD PUSH1 0x1 PUSH1 0x1 PUSH1 0xA0 SHL SUB DUP2 AND DUP2 SUB PUSH2 0x5FE JUMPI PUSH8 0xFFFFFFFFFFFFFFFF SWAP2 PUSH1 0x44 CALLDATALOAD DUP4 DUP2 GT PUSH2 0x5FE JUMPI PUSH2 0x733 SWAP1 CALLDATASIZE SWAP1 PUSH1 0x4 ADD PUSH2 0xF9B JUMP JUMPDEST SWAP2 SWAP1 SWAP4 PUSH1 0x64 CALLDATALOAD DUP2 DUP2 GT PUSH2 0xF7C JUMPI PUSH2 0x74E SWAP1 CALLDATASIZE SWAP1 PUSH1 0x4 ADD PUSH2 0xF9B JUMP JUMPDEST SWAP6 SWAP1 SWAP4 PUSH1 0x84 CALLDATALOAD DUP4 DUP2 GT PUSH2 0xF78 JUMPI PUSH2 0x769 SWAP1 CALLDATASIZE SWAP1 PUSH1 0x4 ADD PUSH2 0xF9B JUMP JUMPDEST SWAP4 PUSH1 0xC4 CALLDATALOAD SWAP1 DUP2 GT PUSH2 0xF74 JUMPI PUSH2 0x782 SWAP1 CALLDATASIZE SWAP1 PUSH1 0x4 ADD PUSH2 0xF9B JUMP JUMPDEST SWAP1 SWAP2 PUSH1 0xE4 CALLDATALOAD SWAP11 PUSH2 0xFFFF DUP13 AND DUP13 SUB PUSH2 0xE8A JUMPI PUSH1 0x2 PUSH1 0x1 SLOAD EQ PUSH2 0xF65 JUMPI POP PUSH1 0x2 PUSH1 0x1 SSTORE PUSH1 0x40 MLOAD PUSH4 0x31A9108F PUSH1 0xE1 SHL DUP2 MSTORE PUSH1 0x4 DUP1 CALLDATALOAD SWAP1 DUP3 ADD MSTORE PUSH1 0x20 DUP2 PUSH1 0x24 DUP2 PUSH32 0x0 PUSH1 0x1 PUSH1 0x1 PUSH1 0xA0 SHL SUB AND GAS STATICCALL SWAP1 DUP2 ISZERO PUSH2 0xE96 JUMPI DUP9 SWAP2 PUSH2 0xF23 JUMPI JUMPDEST POP CALLER PUSH1 0x1 PUSH1 0x1 PUSH1 0xA0 SHL SUB SWAP1 SWAP2 AND SUB PUSH2 0xF11 JUMPI PUSH1 0x40 MLOAD PUSH4 0x1C9696C7 PUSH1 0xE1 SHL DUP2 MSTORE PUSH1 0x4 DUP1 CALLDATALOAD SWAP1 DUP3 ADD MSTORE PUSH1 0x20 DUP2 PUSH1 0x24 DUP2 PUSH32 0x0 PUSH1 0x1 PUSH1 0x1 PUSH1 0xA0 SHL SUB AND GAS STATICCALL SWAP1 DUP2 ISZERO PUSH2 0xE96 JUMPI DUP9 SWAP2 PUSH2 0xED6 JUMPI JUMPDEST POP ISZERO PUSH2 0xEC5 JUMPI PUSH2 0x1388 PUSH2 0xFFFF DUP13 AND GT PUSH2 0xEB3 JUMPI PUSH2 0x104 CALLDATALOAD ISZERO PUSH2 0xEA1 JUMPI PUSH1 0x40 MLOAD PUSH4 0x13966DB5 PUSH1 0xE0 SHL DUP2 MSTORE SWAP6 PUSH1 0x20 DUP8 PUSH1 0x4 DUP2 PUSH32 0x0 PUSH1 0x1 PUSH1 0x1 PUSH1 0xA0 SHL SUB AND GAS STATICCALL SWAP7 DUP8 ISZERO PUSH2 0xE96 JUMPI DUP9 SWAP8 PUSH2 0xE5E JUMPI JUMPDEST POP PUSH2 0x8D6 DUP8 PUSH1 0x5 SLOAD PUSH2 0x1075 JUMP JUMPDEST PUSH1 0x40 MLOAD PUSH4 0x4903B0D1 PUSH1 0xE0 SHL DUP2 MSTORE PUSH1 0x4 DUP1 CALLDATALOAD SWAP1 DUP3 ADD MSTORE SWAP1 SWAP10 SWAP1 PUSH1 0x20 DUP2 PUSH1 0x24 DUP2 PUSH32 0x0 PUSH1 0x1 PUSH1 0x1 PUSH1 0xA0 SHL SUB AND GAS STATICCALL SWAP1 DUP2 ISZERO PUSH2 0xE53 JUMPI DUP11 SWAP2 PUSH2 0xE1D JUMPI JUMPDEST POP PUSH2 0x104 CALLDATALOAD GT PUSH2 0xE0B JUMPI DUP10 CALLVALUE LT PUSH2 0xE0B JUMPI PUSH1 0x40 MLOAD PUSH4 0xCDCC6D69 PUSH1 0xE0 SHL DUP2 MSTORE PUSH1 0xE0 PUSH1 0x4 DUP3 ADD MSTORE SWAP12 DUP13 SWAP8 DUP9 SWAP8 PUSH2 0x967 SWAP2 PUSH1 0xE4 DUP11 ADD SWAP2 SWAP1 PUSH2 0x1098 JUMP JUMPDEST SWAP1 PUSH1 0x3 NOT DUP9 DUP4 SUB ADD PUSH1 0x24 DUP10 ADD MSTORE PUSH2 0x97D SWAP3 PUSH2 0x1098 JUMP JUMPDEST SWAP1 PUSH1 0x3 NOT DUP7 DUP4 SUB ADD PUSH1 0x44 DUP8 ADD MSTORE PUSH2 0x993 SWAP3 PUSH2 0x1098 JUMP JUMPDEST SWAP1 PUSH1 0x64 DUP5 ADD PUSH1 0x1 SWAP1 MSTORE PUSH1 0xA4 CALLDATALOAD PUSH1 0x84 DUP6 ADD MSTORE DUP7 PUSH1 0xA4 DUP6 ADD MSTORE PUSH1 0x3 NOT DUP5 DUP4 SUB ADD PUSH1 0xC4 DUP6 ADD MSTORE PUSH2 0x9BF SWAP3 PUSH2 0x1098 JUMP JUMPDEST PUSH32 0x0 PUSH1 0x1 PUSH1 0x1 PUSH1 0xA0 SHL SUB AND SWAP4 SWAP2 SWAP1 SUB SWAP1 DUP3 SWAP1 GAS SWAP5 PUSH1 0x20 SWAP6 CALL SWAP4 DUP5 ISZERO PUSH2 0xDFE JUMPI DUP2 SWAP5 PUSH2 0xDCA JUMPI JUMPDEST POP PUSH32 0x0 PUSH1 0x1 PUSH1 0x1 PUSH1 0xA0 SHL SUB AND EXTCODESIZE ISZERO PUSH2 0x10F JUMPI PUSH1 0x40 MLOAD PUSH4 0x23B872DD PUSH1 0xE0 SHL DUP2 MSTORE ADDRESS PUSH1 0x4 DUP3 ADD MSTORE PUSH1 0x1 PUSH1 0x1 PUSH1 0xA0 SHL SUB DUP5 DUP2 AND PUSH1 0x24 DUP4 ADD MSTORE PUSH1 0x44 DUP3 ADD DUP7 SWAP1 MSTORE DUP3 SWAP1 DUP3 SWAP1 PUSH1 0x64 SWAP1 DUP3 SWAP1 DUP5 SWAP1 PUSH32 0x0 AND GAS CALL DUP1 ISZERO PUSH2 0xDBF JUMPI PUSH2 0xDB0 JUMPI JUMPDEST POP SWAP1 PUSH32 0x0 PUSH1 0x1 PUSH1 0x1 PUSH1 0xA0 SHL SUB AND EXTCODESIZE ISZERO PUSH2 0x5FE JUMPI PUSH1 0x40 MLOAD PUSH4 0xA6F79861 PUSH1 0xE0 SHL DUP2 MSTORE PUSH1 0x4 DUP1 CALLDATALOAD SWAP1 DUP3 ADD MSTORE PUSH2 0x104 CALLDATALOAD PUSH1 0x24 DUP3 ADD MSTORE DUP3 DUP2 PUSH1 0x44 DUP2 DUP4 PUSH32 0x0 PUSH1 0x1 PUSH1 0x1 PUSH1 0xA0 SHL SUB AND GAS CALL DUP1 ISZERO PUSH2 0xD91 JUMPI SWAP1 DUP4 SWAP2 PUSH2 0xD9C JUMPI JUMPDEST POP POP PUSH32 0x0 PUSH1 0x1 PUSH1 0x1 PUSH1 0xA0 SHL SUB AND EXTCODESIZE ISZERO PUSH2 0x5FE JUMPI PUSH1 0x40 MLOAD PUSH4 0x5488BA93 PUSH1 0xE0 SHL DUP2 MSTORE PUSH1 0x4 DUP2 ADD DUP6 SWAP1 MSTORE PUSH2 0x104 CALLDATALOAD PUSH1 0x24 DUP3 ADD DUP2 SWAP1 MSTORE DUP4 SWAP1 DUP3 SWAP1 PUSH1 0x44 SWAP1 DUP3 SWAP1 PUSH32 0x0 PUSH1 0x1 PUSH1 0x1 PUSH1 0xA0 SHL SUB AND GAS CALL DUP1 ISZERO PUSH2 0xD91 JUMPI SWAP1 DUP4 SWAP2 PUSH2 0xD7D JUMPI JUMPDEST POP POP PUSH2 0xC3E PUSH1 0x40 MLOAD PUSH2 0xBCE DUP2 PUSH2 0x1037 JUMP JUMPDEST PUSH1 0x4 CALLDATALOAD DUP2 MSTORE PUSH1 0x4 PUSH1 0x20 DUP3 ADD PUSH2 0xFFFF DUP10 AND DUP2 MSTORE PUSH1 0x40 DUP4 ADD DUP7 DUP2 MSTORE PUSH1 0x60 DUP5 ADD SWAP1 TIMESTAMP DUP3 MSTORE PUSH1 0x80 DUP6 ADD SWAP3 PUSH1 0x1 DUP5 MSTORE DUP11 DUP10 MSTORE PUSH1 0x2 PUSH1 0x20 MSTORE PUSH1 0x40 DUP10 KECCAK256 SWAP6 MLOAD DUP7 SSTORE PUSH2 0xFFFF PUSH1 0x1 DUP8 ADD SWAP2 MLOAD AND PUSH2 0xFFFF NOT DUP3 SLOAD AND OR SWAP1 SSTORE MLOAD PUSH1 0x2 DUP6 ADD SSTORE MLOAD PUSH1 0x3 DUP5 ADD SSTORE MLOAD ISZERO ISZERO SWAP2 ADD SWAP1 PUSH1 0xFF DUP1 NOT DUP4 SLOAD AND SWAP2 ISZERO ISZERO AND OR SWAP1 SSTORE JUMP JUMPDEST PUSH1 0x4 CALLDATALOAD DUP3 MSTORE PUSH1 0x3 PUSH1 0x20 MSTORE PUSH1 0x40 DUP3 KECCAK256 DUP1 SLOAD SWAP1 PUSH9 0x10000000000000000 DUP3 LT ISZERO PUSH2 0xD69 JUMPI SWAP1 PUSH2 0xC70 SWAP2 PUSH1 0x1 DUP3 ADD DUP2 SSTORE PUSH2 0xFDF JUMP JUMPDEST DUP2 SLOAD SWAP1 PUSH1 0x3 SHL SWAP1 DUP7 DUP3 SHL SWAP2 PUSH1 0x0 NOT SWAP1 SHL NOT AND OR SWAP1 SSTORE DUP1 CALLVALUE SUB SWAP1 CALLVALUE DUP3 GT PUSH2 0xD55 JUMPI SWAP1 DUP3 SWAP2 CALLVALUE SUB PUSH2 0xD39 JUMPI JUMPDEST POP POP PUSH1 0x5 SLOAD DUP1 PUSH2 0xCFE JUMPI JUMPDEST PUSH1 0x20 DUP5 DUP1 DUP8 DUP7 PUSH2 0xFFFF PUSH1 0x40 MLOAD SWAP3 AND DUP3 MSTORE PUSH2 0x104 CALLDATALOAD DUP6 DUP4 ADD MSTORE PUSH1 0x1 DUP1 PUSH1 0xA0 SHL SUB AND PUSH1 0x40 DUP3 ADD MSTORE PUSH32 0xC4562A56824D2F193A9631DA738A40FAFA2519E676DE557566371AFE26617E42 PUSH1 0x60 PUSH1 0x4 CALLDATALOAD SWAP3 LOG3 PUSH1 0x1 DUP1 SSTORE PUSH1 0x40 MLOAD SWAP1 DUP2 MSTORE RETURN JUMPDEST DUP2 SLOAD DUP3 SWAP2 DUP3 SWAP2 DUP3 SWAP2 SWAP1 PUSH1 0x1 PUSH1 0x1 PUSH1 0xA0 SHL SUB AND GAS CALL PUSH2 0xD1A PUSH2 0x10B9 JUMP JUMPDEST POP ISZERO PUSH2 0xD27 JUMPI DUP4 DUP1 PUSH2 0xCA5 JUMP JUMPDEST PUSH1 0x40 MLOAD PUSH4 0x12171D83 PUSH1 0xE3 SHL DUP2 MSTORE PUSH1 0x4 SWAP1 REVERT JUMPDEST DUP2 DUP1 DUP1 SWAP3 CALLER GAS CALL PUSH2 0xD48 PUSH2 0x10B9 JUMP JUMPDEST POP ISZERO PUSH2 0xD27 JUMPI DUP1 DUP6 PUSH2 0xC9A JUMP JUMPDEST PUSH4 0x4E487B71 PUSH1 0xE0 SHL DUP4 MSTORE PUSH1 0x11 PUSH1 0x4 MSTORE PUSH1 0x24 DUP4 REVERT JUMPDEST PUSH4 0x4E487B71 PUSH1 0xE0 SHL DUP5 MSTORE PUSH1 0x41 PUSH1 0x4 MSTORE PUSH1 0x24 DUP5 REVERT JUMPDEST PUSH2 0xD86 SWAP1 PUSH2 0x100D JUMP JUMPDEST PUSH2 0x5FE JUMPI DUP2 DUP7 PUSH2 0xBBD JUMP JUMPDEST PUSH1 0x40 MLOAD RETURNDATASIZE DUP6 DUP3 RETURNDATACOPY RETURNDATASIZE SWAP1 REVERT JUMPDEST PUSH2 0xDA5 SWAP1 PUSH2 0x100D JUMP JUMPDEST PUSH2 0x5FE JUMPI DUP2 DUP7 PUSH2 0xB29 JUMP JUMPDEST PUSH2 0xDB9 SWAP1 PUSH2 0x100D JUMP JUMPDEST DUP6 PUSH2 0xA99 JUMP JUMPDEST PUSH1 0x40 MLOAD RETURNDATASIZE DUP5 DUP3 RETURNDATACOPY RETURNDATASIZE SWAP1 REVERT JUMPDEST SWAP1 SWAP4 POP PUSH1 0x20 DUP2 RETURNDATASIZE PUSH1 0x20 GT PUSH2 0xDF6 JUMPI JUMPDEST DUP2 PUSH2 0xDE6 PUSH1 0x20 SWAP4 DUP4 PUSH2 0x1053 JUMP JUMPDEST DUP2 ADD SUB SLT PUSH2 0x4A3 JUMPI MLOAD SWAP3 DUP6 PUSH2 0xA04 JUMP JUMPDEST RETURNDATASIZE SWAP2 POP PUSH2 0xDD9 JUMP JUMPDEST POP PUSH1 0x40 MLOAD SWAP1 RETURNDATASIZE SWAP1 DUP3 RETURNDATACOPY RETURNDATASIZE SWAP1 REVERT JUMPDEST PUSH1 0x40 MLOAD PUSH4 0x57E000B1 PUSH1 0xE0 SHL DUP2 MSTORE PUSH1 0x4 SWAP1 REVERT JUMPDEST SWAP1 POP PUSH1 0x20 DUP2 RETURNDATASIZE PUSH1 0x20 GT PUSH2 0xE4B JUMPI JUMPDEST DUP2 PUSH2 0xE38 PUSH1 0x20 SWAP4 DUP4 PUSH2 0x1053 JUMP JUMPDEST DUP2 ADD SUB SLT PUSH2 0xE47 JUMPI MLOAD DUP15 PUSH2 0x92E JUMP JUMPDEST DUP10 DUP1 REVERT JUMPDEST RETURNDATASIZE SWAP2 POP PUSH2 0xE2B JUMP JUMPDEST PUSH1 0x40 MLOAD RETURNDATASIZE DUP13 DUP3 RETURNDATACOPY RETURNDATASIZE SWAP1 REVERT JUMPDEST SWAP1 SWAP7 POP PUSH1 0x20 DUP2 RETURNDATASIZE PUSH1 0x20 GT PUSH2 0xE8E JUMPI JUMPDEST DUP2 PUSH2 0xE7A PUSH1 0x20 SWAP4 DUP4 PUSH2 0x1053 JUMP JUMPDEST DUP2 ADD SUB SLT PUSH2 0xE8A JUMPI MLOAD SWAP6 DUP13 PUSH2 0x8C9 JUMP JUMPDEST DUP8 DUP1 REVERT JUMPDEST RETURNDATASIZE SWAP2 POP PUSH2 0xE6D JUMP JUMPDEST PUSH1 0x40 MLOAD RETURNDATASIZE DUP11 DUP3 RETURNDATACOPY RETURNDATASIZE SWAP1 REVERT JUMPDEST PUSH1 0x40 MLOAD PUSH4 0x1F2A2005 PUSH1 0xE0 SHL DUP2 MSTORE PUSH1 0x4 SWAP1 REVERT JUMPDEST PUSH1 0x40 MLOAD PUSH4 0xC1405C9 PUSH1 0xE3 SHL DUP2 MSTORE PUSH1 0x4 SWAP1 REVERT JUMPDEST PUSH1 0x40 MLOAD PUSH3 0xCC0379 PUSH1 0xE6 SHL DUP2 MSTORE PUSH1 0x4 SWAP1 REVERT JUMPDEST SWAP1 POP PUSH1 0x20 DUP2 RETURNDATASIZE PUSH1 0x20 GT PUSH2 0xF09 JUMPI JUMPDEST DUP2 PUSH2 0xEF1 PUSH1 0x20 SWAP4 DUP4 PUSH2 0x1053 JUMP JUMPDEST DUP2 ADD SUB SLT PUSH2 0xE8A JUMPI MLOAD DUP1 ISZERO ISZERO DUP2 SUB PUSH2 0xE8A JUMPI DUP13 PUSH2 0x85F JUMP JUMPDEST RETURNDATASIZE SWAP2 POP PUSH2 0xEE4 JUMP JUMPDEST PUSH1 0x40 MLOAD PUSH4 0xE41DCBF PUSH1 0xE2 SHL DUP2 MSTORE PUSH1 0x4 SWAP1 REVERT JUMPDEST SWAP1 POP PUSH1 0x20 DUP2 RETURNDATASIZE PUSH1 0x20 GT PUSH2 0xF5D JUMPI JUMPDEST DUP2 PUSH2 0xF3E PUSH1 0x20 SWAP4 DUP4 PUSH2 0x1053 JUMP JUMPDEST DUP2 ADD SUB SLT PUSH2 0xE8A JUMPI MLOAD PUSH1 0x1 PUSH1 0x1 PUSH1 0xA0 SHL SUB DUP2 AND DUP2 SUB PUSH2 0xE8A JUMPI DUP13 PUSH2 0x7F8 JUMP JUMPDEST RETURNDATASIZE SWAP2 POP PUSH2 0xF31 JUMP JUMPDEST PUSH4 0x3EE5AEB5 PUSH1 0xE0 SHL DUP2 MSTORE PUSH1 0x4 SWAP1 REVERT JUMPDEST DUP6 DUP1 REVERT JUMPDEST DUP5 DUP1 REVERT JUMPDEST DUP3 DUP1 REVERT JUMPDEST PUSH1 0x4 CALLDATALOAD SWAP1 PUSH1 0x1 PUSH1 0x1 PUSH1 0xA0 SHL SUB DUP3 AND DUP3 SUB PUSH2 0xF96 JUMPI JUMP JUMPDEST PUSH1 0x0 DUP1 REVERT JUMPDEST SWAP2 DUP2 PUSH1 0x1F DUP5 ADD SLT ISZERO PUSH2 0xF96 JUMPI DUP3 CALLDATALOAD SWAP2 PUSH8 0xFFFFFFFFFFFFFFFF DUP4 GT PUSH2 0xF96 JUMPI PUSH1 0x20 DUP4 DUP2 DUP7 ADD SWAP6 ADD ADD GT PUSH2 0xF96 JUMPI JUMP JUMPDEST PUSH1 0x40 SWAP1 PUSH1 0x3 NOT ADD SLT PUSH2 0xF96 JUMPI PUSH1 0x4 CALLDATALOAD SWAP1 PUSH1 0x24 CALLDATALOAD SWAP1 JUMP JUMPDEST DUP1 SLOAD DUP3 LT ISZERO PUSH2 0xFF7 JUMPI PUSH1 0x0 MSTORE PUSH1 0x20 PUSH1 0x0 KECCAK256 ADD SWAP1 PUSH1 0x0 SWAP1 JUMP JUMPDEST PUSH4 0x4E487B71 PUSH1 0xE0 SHL PUSH1 0x0 MSTORE PUSH1 0x32 PUSH1 0x4 MSTORE PUSH1 0x24 PUSH1 0x0 REVERT JUMPDEST PUSH8 0xFFFFFFFFFFFFFFFF DUP2 GT PUSH2 0x1021 JUMPI PUSH1 0x40 MSTORE JUMP JUMPDEST PUSH4 0x4E487B71 PUSH1 0xE0 SHL PUSH1 0x0 MSTORE PUSH1 0x41 PUSH1 0x4 MSTORE PUSH1 0x24 PUSH1 0x0 REVERT JUMPDEST PUSH1 0xA0 DUP2 ADD SWAP1 DUP2 LT PUSH8 0xFFFFFFFFFFFFFFFF DUP3 GT OR PUSH2 0x1021 JUMPI PUSH1 0x40 MSTORE JUMP JUMPDEST SWAP1 PUSH1 0x1F DUP1 NOT SWAP2 ADD AND DUP2 ADD SWAP1 DUP2 LT PUSH8 0xFFFFFFFFFFFFFFFF DUP3 GT OR PUSH2 0x1021 JUMPI PUSH1 0x40 MSTORE JUMP JUMPDEST SWAP2 SWAP1 DUP3 ADD DUP1 SWAP3 GT PUSH2 0x1082 JUMPI JUMP JUMPDEST PUSH4 0x4E487B71 PUSH1 0xE0 SHL PUSH1 0x0 MSTORE PUSH1 0x11 PUSH1 0x4 MSTORE PUSH1 0x24 PUSH1 0x0 REVERT JUMPDEST SWAP1 DUP1 PUSH1 0x20 SWAP4 SWAP3 DUP2 DUP5 MSTORE DUP5 DUP5 ADD CALLDATACOPY PUSH1 0x0 DUP3 DUP3 ADD DUP5 ADD MSTORE PUSH1 0x1F ADD PUSH1 0x1F NOT AND ADD ADD SWAP1 JUMP JUMPDEST RETURNDATASIZE ISZERO PUSH2 0x10F4 JUMPI RETURNDATASIZE SWAP1 PUSH8 0xFFFFFFFFFFFFFFFF DUP3 GT PUSH2 0x1021 JUMPI PUSH1 0x40 MLOAD SWAP2 PUSH2 0x10E8 PUSH1 0x1F DUP3 ADD PUSH1 0x1F NOT AND PUSH1 0x20 ADD DUP5 PUSH2 0x1053 JUMP JUMPDEST DUP3 MSTORE RETURNDATASIZE PUSH1 0x0 PUSH1 0x20 DUP5 ADD RETURNDATACOPY JUMP JUMPDEST PUSH1 0x60 SWAP1 JUMP JUMPDEST PUSH1 0x0 SLOAD PUSH1 0x1 PUSH1 0x1 PUSH1 0xA0 SHL SUB AND CALLER SUB PUSH2 0x110D JUMPI JUMP JUMPDEST PUSH1 0x40 MLOAD PUSH4 0x118CDAA7 PUSH1 0xE0 SHL DUP2 MSTORE CALLER PUSH1 0x4 DUP3 ADD MSTORE PUSH1 0x24 SWAP1 REVERT INVALID LOG2 PUSH5 0x6970667358 0x22 SLT KECCAK256 0xC8 0xEE SLT ORIGIN 0xD5 0xDB 0xAD 0xB6 CREATE2 0xF6 0xAC TIMESTAMP 0xDE 0xC1 0xD4 0xC6 CREATE2 0x2A DUP13 0xB9 PUSH31 0xE4F4C35249B2F14CB34DB164736F6C63430008180033000000000000000000 "},"methodIdentifiers":{"BPS_DENOMINATOR()":"e1a45218","MAX_REVENUE_SHARE_BPS()":"b5ae2058","authorizedModules(address)":"17f6fe5b","childLineage(uint256)":"c86dde4f","economyHub()":"73bbfe82","getChildCount(uint256)":"7a77af5c","getChildren(uint256)":"49ae8dc3","getLineage(uint256)":"57c6cc39","getParent(uint256)":"414533de","nfaToken()":"bfd8fefc","owner()":"8da5cb5b","parentChildren(uint256,uint256)":"403d66b2","recordRevenueShared(uint256,uint256)":"b8cbb107","renounceOwnership()":"715018a6","replicate(uint256,address,string,string,string,bytes32,string,uint16,uint256)":"0d5c609b","replicationFee()":"fffba098","setModuleAuthorized(address,bool)":"6431d690","setReplicationFee(uint256)":"3ceaef1e","transferOwnership(address)":"f2fde38b"}}}}}