{"contracts/web4/ConstitutionRegistry.sol":{"ConstitutionRegistry":{"abi":[{"inputs":[{"internalType":"address","name":"_agentToken","type":"address"}],"stateMutability":"nonpayable","type":"constructor"},{"inputs":[],"name":"AlreadyInitialized","type":"error"},{"inputs":[],"name":"EmptyConstitution","type":"error"},{"inputs":[],"name":"NotAgentOwner","type":"error"},{"inputs":[],"name":"TooManyLaws","type":"error"},{"anonymous":false,"inputs":[{"indexed":true,"internalType":"uint256","name":"agentId","type":"uint256"},{"indexed":false,"internalType":"uint256","name":"lawCount","type":"uint256"},{"indexed":false,"internalType":"bytes32","name":"constitutionHash","type":"bytes32"}],"name":"ConstitutionInitialized","type":"event"},{"inputs":[],"name":"agentToken","outputs":[{"internalType":"contract IAgentIdentity","name":"","type":"address"}],"stateMutability":"view","type":"function"},{"inputs":[{"internalType":"uint256","name":"","type":"uint256"}],"name":"constitutionHash","outputs":[{"internalType":"bytes32","name":"","type":"bytes32"}],"stateMutability":"view","type":"function"},{"inputs":[{"internalType":"uint256","name":"agentId","type":"uint256"},{"internalType":"uint256","name":"index","type":"uint256"}],"name":"getLaw","outputs":[{"components":[{"internalType":"uint16","name":"lawNumber","type":"uint16"},{"internalType":"bytes32","name":"titleHash","type":"bytes32"},{"internalType":"bytes32","name":"textHash","type":"bytes32"}],"internalType":"struct ConstitutionRegistry.Law","name":"","type":"tuple"}],"stateMutability":"view","type":"function"},{"inputs":[{"internalType":"uint256","name":"agentId","type":"uint256"}],"name":"getLawCount","outputs":[{"internalType":"uint256","name":"","type":"uint256"}],"stateMutability":"view","type":"function"},{"inputs":[{"internalType":"uint256","name":"agentId","type":"uint256"}],"name":"getLaws","outputs":[{"components":[{"internalType":"uint16","name":"lawNumber","type":"uint16"},{"internalType":"bytes32","name":"titleHash","type":"bytes32"},{"internalType":"bytes32","name":"textHash","type":"bytes32"}],"internalType":"struct ConstitutionRegistry.Law[]","name":"","type":"tuple[]"}],"stateMutability":"view","type":"function"},{"inputs":[{"internalType":"uint256","name":"agentId","type":"uint256"},{"components":[{"internalType":"uint16","name":"lawNumber","type":"uint16"},{"internalType":"bytes32","name":"titleHash","type":"bytes32"},{"internalType":"bytes32","name":"textHash","type":"bytes32"}],"internalType":"struct ConstitutionRegistry.Law[]","name":"laws","type":"tuple[]"}],"name":"initConstitution","outputs":[],"stateMutability":"nonpayable","type":"function"},{"inputs":[{"internalType":"uint256","name":"","type":"uint256"}],"name":"isInitialized","outputs":[{"internalType":"bool","name":"","type":"bool"}],"stateMutability":"view","type":"function"},{"inputs":[{"internalType":"uint256","name":"agentId","type":"uint256"},{"components":[{"internalType":"uint16","name":"lawNumber","type":"uint16"},{"internalType":"bytes32","name":"titleHash","type":"bytes32"},{"internalType":"bytes32","name":"textHash","type":"bytes32"}],"internalType":"struct ConstitutionRegistry.Law[]","name":"laws","type":"tuple[]"}],"name":"verifyConstitution","outputs":[{"internalType":"bool","name":"valid","type":"bool"}],"stateMutability":"view","type":"function"}],"evm":{"bytecode":{"linkReferences":{},"object":"60a03461007257601f61077838819003918201601f19168301916001600160401b038311848410176100775780849260209460405283398101031261007257516001600160a01b03811690819003610072576080526040516106ea908161008e823960805181818160bf015261037e0152f35b600080fd5b634e487b7160e01b600052604160045260246000fdfe6080604081815260048036101561001557600080fd5b600092833560e01c9081630584ca1114610343575080631f88e5a9146102d2578063358dfe06146101d8578063369c055a1461013f578063514245801461011857806388bc07fc146100f2578063b05707e9146100aa5763d9a845d81461007b57600080fd5b346100a65760203660031901126100a6578160209360ff923581526001855220541690519015158152f35b8280fd5b5050346100ee57816003193601126100ee57517f00000000000000000000000000000000000000000000000000000000000000006001600160a01b03168152602090f35b5080fd5b50346100a65760203660031901126100a657602092829135815280845220549051908152f35b50346100a65760203660031901126100a65760209282913581526002845220549051908152f35b5050346100ee5761014f3661059d565b9190849285915b8183106101755750505083839160209552600285522054149051908152f35b90919360019060206101cc8161018c898888610646565b0135916101be8a61019e8b8a8a610646565b01358b519485938401968791606093918352602083015260408201520190565b03601f198101835282610624565b51902094019190610156565b50346100a6576020806003193601126102ce57813584528381528284209384549267ffffffffffffffff84116102bb575093919083519161021e828260051b0184610624565b8083528183018094875282872087915b83831061029457505050508351938185019282865251809352840192945b8281106102595784840385f35b909192826060826102856001948a516040809161ffff8151168452602081015160208501520151910152565b0196019101949291909461024c565b6003856001926102a8859c98999a9c610688565b815201920192019190979594939761022e565b634e487b7160e01b825260419052602490fd5b8380fd5b50346100a657816003193601126100a65761032061031a84610341936060968680516102fd816105f2565b82815282602082015201523581528060205284602435912061066c565b50610688565b915180926040809161ffff8151168452602081015160208501520151910152565bf35b848385346100a6576103543661059d565b6331a9108f60e11b87528685018390529095919390916020906024906001600160a01b03838284817f000000000000000000000000000000000000000000000000000000000000000085165afa918215610593578992610557575b50339116036105475785875260019788835260ff868920541661053857841561052857600a8511610518579290879388925b86841061043857505050508596857fe3b459957b13874c71789ebb94402094459c92da4d65c0786e93eb209b1f9f9d9697528082528488209060ff198254161790556002815281848820558351928352820152a280f35b90919294888a52898552878a20610450878986610646565b90805490680100000000000000008210156105065790610474918e8201815561066c565b9190916104f557803561ffff81168091036104f157825461ffff191617825586810135828e01558901356002909101558a90856104b2888a87610646565b01356104e48a6104c38a8c89610646565b8c518a810195865260208601949094520135604084015281606084016101be565b51902095019291906103e1565b8c80fd5b634e487b7160e01b8c528b8452858cfd5b634e487b7160e01b8d5260418552868dfd5b8551632cb9161360e11b81528490fd5b8551639e5b481360e01b81528490fd5b855162dc149f60e41b81528490fd5b8451630e41dcbf60e21b81528390fd5b9091508381813d831161058c575b61056f8183610624565b810103126105885751818116810361058857908a6103af565b8880fd5b503d610565565b87513d8b823e3d90fd5b60406003198201126105ed576004359160243567ffffffffffffffff928382116105ed57806023830112156105ed5781600401359384116105ed57602460608502830101116105ed576024019190565b600080fd5b6060810190811067ffffffffffffffff82111761060e57604052565b634e487b7160e01b600052604160045260246000fd5b90601f8019910116810190811067ffffffffffffffff82111761060e57604052565b9190811015610656576060020190565b634e487b7160e01b600052603260045260246000fd5b8054821015610656576000526003602060002091020190600090565b90604051610695816105f2565b60406002829461ffff815416845260018101546020850152015491015256fea2646970667358221220c56d055ffaa9c3a50dabd834904fb667c95847cfbfa89c4e7582bbe6f985695a64736f6c63430008180033","opcodes":"PUSH1 0xA0 CALLVALUE PUSH2 0x72 JUMPI PUSH1 0x1F PUSH2 0x778 CODESIZE DUP2 SWAP1 SUB SWAP2 DUP3 ADD PUSH1 0x1F NOT AND DUP4 ADD SWAP2 PUSH1 0x1 PUSH1 0x1 PUSH1 0x40 SHL SUB DUP4 GT DUP5 DUP5 LT OR PUSH2 0x77 JUMPI DUP1 DUP5 SWAP3 PUSH1 0x20 SWAP5 PUSH1 0x40 MSTORE DUP4 CODECOPY DUP2 ADD SUB SLT PUSH2 0x72 JUMPI MLOAD PUSH1 0x1 PUSH1 0x1 PUSH1 0xA0 SHL SUB DUP2 AND SWAP1 DUP2 SWAP1 SUB PUSH2 0x72 JUMPI PUSH1 0x80 MSTORE PUSH1 0x40 MLOAD PUSH2 0x6EA SWAP1 DUP2 PUSH2 0x8E DUP3 CODECOPY PUSH1 0x80 MLOAD DUP2 DUP2 DUP2 PUSH1 0xBF ADD MSTORE PUSH2 0x37E ADD MSTORE RETURN JUMPDEST PUSH1 0x0 DUP1 REVERT JUMPDEST PUSH4 0x4E487B71 PUSH1 0xE0 SHL PUSH1 0x0 MSTORE PUSH1 0x41 PUSH1 0x4 MSTORE PUSH1 0x24 PUSH1 0x0 REVERT INVALID PUSH1 0x80 PUSH1 0x40 DUP2 DUP2 MSTORE PUSH1 0x4 DUP1 CALLDATASIZE LT ISZERO PUSH2 0x15 JUMPI PUSH1 0x0 DUP1 REVERT JUMPDEST PUSH1 0x0 SWAP3 DUP4 CALLDATALOAD PUSH1 0xE0 SHR SWAP1 DUP2 PUSH4 0x584CA11 EQ PUSH2 0x343 JUMPI POP DUP1 PUSH4 0x1F88E5A9 EQ PUSH2 0x2D2 JUMPI DUP1 PUSH4 0x358DFE06 EQ PUSH2 0x1D8 JUMPI DUP1 PUSH4 0x369C055A EQ PUSH2 0x13F JUMPI DUP1 PUSH4 0x51424580 EQ PUSH2 0x118 JUMPI DUP1 PUSH4 0x88BC07FC EQ PUSH2 0xF2 JUMPI DUP1 PUSH4 0xB05707E9 EQ PUSH2 0xAA JUMPI PUSH4 0xD9A845D8 EQ PUSH2 0x7B JUMPI PUSH1 0x0 DUP1 REVERT JUMPDEST CALLVALUE PUSH2 0xA6 JUMPI PUSH1 0x20 CALLDATASIZE PUSH1 0x3 NOT ADD SLT PUSH2 0xA6 JUMPI DUP2 PUSH1 0x20 SWAP4 PUSH1 0xFF SWAP3 CALLDATALOAD DUP2 MSTORE PUSH1 0x1 DUP6 MSTORE KECCAK256 SLOAD AND SWAP1 MLOAD SWAP1 ISZERO ISZERO DUP2 MSTORE RETURN JUMPDEST DUP3 DUP1 REVERT JUMPDEST POP POP CALLVALUE PUSH2 0xEE JUMPI DUP2 PUSH1 0x3 NOT CALLDATASIZE ADD SLT PUSH2 0xEE JUMPI MLOAD PUSH32 0x0 PUSH1 0x1 PUSH1 0x1 PUSH1 0xA0 SHL SUB AND DUP2 MSTORE PUSH1 0x20 SWAP1 RETURN JUMPDEST POP DUP1 REVERT JUMPDEST POP CALLVALUE PUSH2 0xA6 JUMPI PUSH1 0x20 CALLDATASIZE PUSH1 0x3 NOT ADD SLT PUSH2 0xA6 JUMPI PUSH1 0x20 SWAP3 DUP3 SWAP2 CALLDATALOAD DUP2 MSTORE DUP1 DUP5 MSTORE KECCAK256 SLOAD SWAP1 MLOAD SWAP1 DUP2 MSTORE RETURN JUMPDEST POP CALLVALUE PUSH2 0xA6 JUMPI PUSH1 0x20 CALLDATASIZE PUSH1 0x3 NOT ADD SLT PUSH2 0xA6 JUMPI PUSH1 0x20 SWAP3 DUP3 SWAP2 CALLDATALOAD DUP2 MSTORE PUSH1 0x2 DUP5 MSTORE KECCAK256 SLOAD SWAP1 MLOAD SWAP1 DUP2 MSTORE RETURN JUMPDEST POP POP CALLVALUE PUSH2 0xEE JUMPI PUSH2 0x14F CALLDATASIZE PUSH2 0x59D JUMP JUMPDEST SWAP2 SWAP1 DUP5 SWAP3 DUP6 SWAP2 JUMPDEST DUP2 DUP4 LT PUSH2 0x175 JUMPI POP POP POP DUP4 DUP4 SWAP2 PUSH1 0x20 SWAP6 MSTORE PUSH1 0x2 DUP6 MSTORE KECCAK256 SLOAD EQ SWAP1 MLOAD SWAP1 DUP2 MSTORE RETURN JUMPDEST SWAP1 SWAP2 SWAP4 PUSH1 0x1 SWAP1 PUSH1 0x20 PUSH2 0x1CC DUP2 PUSH2 0x18C DUP10 DUP9 DUP9 PUSH2 0x646 JUMP JUMPDEST ADD CALLDATALOAD SWAP2 PUSH2 0x1BE DUP11 PUSH2 0x19E DUP12 DUP11 DUP11 PUSH2 0x646 JUMP JUMPDEST ADD CALLDATALOAD DUP12 MLOAD SWAP5 DUP6 SWAP4 DUP5 ADD SWAP7 DUP8 SWAP2 PUSH1 0x60 SWAP4 SWAP2 DUP4 MSTORE PUSH1 0x20 DUP4 ADD MSTORE PUSH1 0x40 DUP3 ADD MSTORE ADD SWAP1 JUMP JUMPDEST SUB PUSH1 0x1F NOT DUP2 ADD DUP4 MSTORE DUP3 PUSH2 0x624 JUMP JUMPDEST MLOAD SWAP1 KECCAK256 SWAP5 ADD SWAP2 SWAP1 PUSH2 0x156 JUMP JUMPDEST POP CALLVALUE PUSH2 0xA6 JUMPI PUSH1 0x20 DUP1 PUSH1 0x3 NOT CALLDATASIZE ADD SLT PUSH2 0x2CE JUMPI DUP2 CALLDATALOAD DUP5 MSTORE DUP4 DUP2 MSTORE DUP3 DUP5 KECCAK256 SWAP4 DUP5 SLOAD SWAP3 PUSH8 0xFFFFFFFFFFFFFFFF DUP5 GT PUSH2 0x2BB JUMPI POP SWAP4 SWAP2 SWAP1 DUP4 MLOAD SWAP2 PUSH2 0x21E DUP3 DUP3 PUSH1 0x5 SHL ADD DUP5 PUSH2 0x624 JUMP JUMPDEST DUP1 DUP4 MSTORE DUP2 DUP4 ADD DUP1 SWAP5 DUP8 MSTORE DUP3 DUP8 KECCAK256 DUP8 SWAP2 JUMPDEST DUP4 DUP4 LT PUSH2 0x294 JUMPI POP POP POP POP DUP4 MLOAD SWAP4 DUP2 DUP6 ADD SWAP3 DUP3 DUP7 MSTORE MLOAD DUP1 SWAP4 MSTORE DUP5 ADD SWAP3 SWAP5 JUMPDEST DUP3 DUP2 LT PUSH2 0x259 JUMPI DUP5 DUP5 SUB DUP6 RETURN JUMPDEST SWAP1 SWAP2 SWAP3 DUP3 PUSH1 0x60 DUP3 PUSH2 0x285 PUSH1 0x1 SWAP5 DUP11 MLOAD PUSH1 0x40 DUP1 SWAP2 PUSH2 0xFFFF DUP2 MLOAD AND DUP5 MSTORE PUSH1 0x20 DUP2 ADD MLOAD PUSH1 0x20 DUP6 ADD MSTORE ADD MLOAD SWAP2 ADD MSTORE JUMP JUMPDEST ADD SWAP7 ADD SWAP2 ADD SWAP5 SWAP3 SWAP2 SWAP1 SWAP5 PUSH2 0x24C JUMP JUMPDEST PUSH1 0x3 DUP6 PUSH1 0x1 SWAP3 PUSH2 0x2A8 DUP6 SWAP13 SWAP9 SWAP10 SWAP11 SWAP13 PUSH2 0x688 JUMP JUMPDEST DUP2 MSTORE ADD SWAP3 ADD SWAP3 ADD SWAP2 SWAP1 SWAP8 SWAP6 SWAP5 SWAP4 SWAP8 PUSH2 0x22E JUMP JUMPDEST PUSH4 0x4E487B71 PUSH1 0xE0 SHL DUP3 MSTORE PUSH1 0x41 SWAP1 MSTORE PUSH1 0x24 SWAP1 REVERT JUMPDEST DUP4 DUP1 REVERT JUMPDEST POP CALLVALUE PUSH2 0xA6 JUMPI DUP2 PUSH1 0x3 NOT CALLDATASIZE ADD SLT PUSH2 0xA6 JUMPI PUSH2 0x320 PUSH2 0x31A DUP5 PUSH2 0x341 SWAP4 PUSH1 0x60 SWAP7 DUP7 DUP1 MLOAD PUSH2 0x2FD DUP2 PUSH2 0x5F2 JUMP JUMPDEST DUP3 DUP2 MSTORE DUP3 PUSH1 0x20 DUP3 ADD MSTORE ADD MSTORE CALLDATALOAD DUP2 MSTORE DUP1 PUSH1 0x20 MSTORE DUP5 PUSH1 0x24 CALLDATALOAD SWAP2 KECCAK256 PUSH2 0x66C JUMP JUMPDEST POP PUSH2 0x688 JUMP JUMPDEST SWAP2 MLOAD DUP1 SWAP3 PUSH1 0x40 DUP1 SWAP2 PUSH2 0xFFFF DUP2 MLOAD AND DUP5 MSTORE PUSH1 0x20 DUP2 ADD MLOAD PUSH1 0x20 DUP6 ADD MSTORE ADD MLOAD SWAP2 ADD MSTORE JUMP JUMPDEST RETURN JUMPDEST DUP5 DUP4 DUP6 CALLVALUE PUSH2 0xA6 JUMPI PUSH2 0x354 CALLDATASIZE PUSH2 0x59D JUMP JUMPDEST PUSH4 0x31A9108F PUSH1 0xE1 SHL DUP8 MSTORE DUP7 DUP6 ADD DUP4 SWAP1 MSTORE SWAP1 SWAP6 SWAP2 SWAP4 SWAP1 SWAP2 PUSH1 0x20 SWAP1 PUSH1 0x24 SWAP1 PUSH1 0x1 PUSH1 0x1 PUSH1 0xA0 SHL SUB DUP4 DUP3 DUP5 DUP2 PUSH32 0x0 DUP6 AND GAS STATICCALL SWAP2 DUP3 ISZERO PUSH2 0x593 JUMPI DUP10 SWAP3 PUSH2 0x557 JUMPI JUMPDEST POP CALLER SWAP2 AND SUB PUSH2 0x547 JUMPI DUP6 DUP8 MSTORE PUSH1 0x1 SWAP8 DUP9 DUP4 MSTORE PUSH1 0xFF DUP7 DUP10 KECCAK256 SLOAD AND PUSH2 0x538 JUMPI DUP5 ISZERO PUSH2 0x528 JUMPI PUSH1 0xA DUP6 GT PUSH2 0x518 JUMPI SWAP3 SWAP1 DUP8 SWAP4 DUP9 SWAP3 JUMPDEST DUP7 DUP5 LT PUSH2 0x438 JUMPI POP POP POP POP DUP6 SWAP7 DUP6 PUSH32 0xE3B459957B13874C71789EBB94402094459C92DA4D65C0786E93EB209B1F9F9D SWAP7 SWAP8 MSTORE DUP1 DUP3 MSTORE DUP5 DUP9 KECCAK256 SWAP1 PUSH1 0xFF NOT DUP3 SLOAD AND OR SWAP1 SSTORE PUSH1 0x2 DUP2 MSTORE DUP2 DUP5 DUP9 KECCAK256 SSTORE DUP4 MLOAD SWAP3 DUP4 MSTORE DUP3 ADD MSTORE LOG2 DUP1 RETURN JUMPDEST SWAP1 SWAP2 SWAP3 SWAP5 DUP9 DUP11 MSTORE DUP10 DUP6 MSTORE DUP8 DUP11 KECCAK256 PUSH2 0x450 DUP8 DUP10 DUP7 PUSH2 0x646 JUMP JUMPDEST SWAP1 DUP1 SLOAD SWAP1 PUSH9 0x10000000000000000 DUP3 LT ISZERO PUSH2 0x506 JUMPI SWAP1 PUSH2 0x474 SWAP2 DUP15 DUP3 ADD DUP2 SSTORE PUSH2 0x66C JUMP JUMPDEST SWAP2 SWAP1 SWAP2 PUSH2 0x4F5 JUMPI DUP1 CALLDATALOAD PUSH2 0xFFFF DUP2 AND DUP1 SWAP2 SUB PUSH2 0x4F1 JUMPI DUP3 SLOAD PUSH2 0xFFFF NOT AND OR DUP3 SSTORE DUP7 DUP2 ADD CALLDATALOAD DUP3 DUP15 ADD SSTORE DUP10 ADD CALLDATALOAD PUSH1 0x2 SWAP1 SWAP2 ADD SSTORE DUP11 SWAP1 DUP6 PUSH2 0x4B2 DUP9 DUP11 DUP8 PUSH2 0x646 JUMP JUMPDEST ADD CALLDATALOAD PUSH2 0x4E4 DUP11 PUSH2 0x4C3 DUP11 DUP13 DUP10 PUSH2 0x646 JUMP JUMPDEST DUP13 MLOAD DUP11 DUP2 ADD SWAP6 DUP7 MSTORE PUSH1 0x20 DUP7 ADD SWAP5 SWAP1 SWAP5 MSTORE ADD CALLDATALOAD PUSH1 0x40 DUP5 ADD MSTORE DUP2 PUSH1 0x60 DUP5 ADD PUSH2 0x1BE JUMP JUMPDEST MLOAD SWAP1 KECCAK256 SWAP6 ADD SWAP3 SWAP2 SWAP1 PUSH2 0x3E1 JUMP JUMPDEST DUP13 DUP1 REVERT JUMPDEST PUSH4 0x4E487B71 PUSH1 0xE0 SHL DUP13 MSTORE DUP12 DUP5 MSTORE DUP6 DUP13 REVERT JUMPDEST PUSH4 0x4E487B71 PUSH1 0xE0 SHL DUP14 MSTORE PUSH1 0x41 DUP6 MSTORE DUP7 DUP14 REVERT JUMPDEST DUP6 MLOAD PUSH4 0x2CB91613 PUSH1 0xE1 SHL DUP2 MSTORE DUP5 SWAP1 REVERT JUMPDEST DUP6 MLOAD PUSH4 0x9E5B4813 PUSH1 0xE0 SHL DUP2 MSTORE DUP5 SWAP1 REVERT JUMPDEST DUP6 MLOAD PUSH3 0xDC149F PUSH1 0xE4 SHL DUP2 MSTORE DUP5 SWAP1 REVERT JUMPDEST DUP5 MLOAD PUSH4 0xE41DCBF PUSH1 0xE2 SHL DUP2 MSTORE DUP4 SWAP1 REVERT JUMPDEST SWAP1 SWAP2 POP DUP4 DUP2 DUP2 RETURNDATASIZE DUP4 GT PUSH2 0x58C JUMPI JUMPDEST PUSH2 0x56F DUP2 DUP4 PUSH2 0x624 JUMP JUMPDEST DUP2 ADD SUB SLT PUSH2 0x588 JUMPI MLOAD DUP2 DUP2 AND DUP2 SUB PUSH2 0x588 JUMPI SWAP1 DUP11 PUSH2 0x3AF JUMP JUMPDEST DUP9 DUP1 REVERT JUMPDEST POP RETURNDATASIZE PUSH2 0x565 JUMP JUMPDEST DUP8 MLOAD RETURNDATASIZE DUP12 DUP3 RETURNDATACOPY RETURNDATASIZE SWAP1 REVERT JUMPDEST PUSH1 0x40 PUSH1 0x3 NOT DUP3 ADD SLT PUSH2 0x5ED JUMPI PUSH1 0x4 CALLDATALOAD SWAP2 PUSH1 0x24 CALLDATALOAD PUSH8 0xFFFFFFFFFFFFFFFF SWAP3 DUP4 DUP3 GT PUSH2 0x5ED JUMPI DUP1 PUSH1 0x23 DUP4 ADD SLT ISZERO PUSH2 0x5ED JUMPI DUP2 PUSH1 0x4 ADD CALLDATALOAD SWAP4 DUP5 GT PUSH2 0x5ED JUMPI PUSH1 0x24 PUSH1 0x60 DUP6 MUL DUP4 ADD ADD GT PUSH2 0x5ED JUMPI PUSH1 0x24 ADD SWAP2 SWAP1 JUMP JUMPDEST PUSH1 0x0 DUP1 REVERT JUMPDEST PUSH1 0x60 DUP2 ADD SWAP1 DUP2 LT PUSH8 0xFFFFFFFFFFFFFFFF DUP3 GT OR PUSH2 0x60E JUMPI PUSH1 0x40 MSTORE JUMP JUMPDEST PUSH4 0x4E487B71 PUSH1 0xE0 SHL PUSH1 0x0 MSTORE PUSH1 0x41 PUSH1 0x4 MSTORE PUSH1 0x24 PUSH1 0x0 REVERT JUMPDEST SWAP1 PUSH1 0x1F DUP1 NOT SWAP2 ADD AND DUP2 ADD SWAP1 DUP2 LT PUSH8 0xFFFFFFFFFFFFFFFF DUP3 GT OR PUSH2 0x60E JUMPI PUSH1 0x40 MSTORE JUMP JUMPDEST SWAP2 SWAP1 DUP2 LT ISZERO PUSH2 0x656 JUMPI PUSH1 0x60 MUL ADD SWAP1 JUMP JUMPDEST PUSH4 0x4E487B71 PUSH1 0xE0 SHL PUSH1 0x0 MSTORE PUSH1 0x32 PUSH1 0x4 MSTORE PUSH1 0x24 PUSH1 0x0 REVERT JUMPDEST DUP1 SLOAD DUP3 LT ISZERO PUSH2 0x656 JUMPI PUSH1 0x0 MSTORE PUSH1 0x3 PUSH1 0x20 PUSH1 0x0 KECCAK256 SWAP2 MUL ADD SWAP1 PUSH1 0x0 SWAP1 JUMP JUMPDEST SWAP1 PUSH1 0x40 MLOAD PUSH2 0x695 DUP2 PUSH2 0x5F2 JUMP JUMPDEST PUSH1 0x40 PUSH1 0x2 DUP3 SWAP5 PUSH2 0xFFFF DUP2 SLOAD AND DUP5 MSTORE PUSH1 0x1 DUP2 ADD SLOAD PUSH1 0x20 DUP6 ADD MSTORE ADD SLOAD SWAP2 ADD MSTORE JUMP INVALID LOG2 PUSH5 0x6970667358 0x22 SLT KECCAK256 0xC5 PUSH14 0x55FFAA9C3A50DABD834904FB667 0xC9 PC SELFBALANCE 0xCF 0xBF 0xA8 SWAP13 0x4E PUSH22 0x82BBE6F985695A64736F6C6343000818003300000000 "},"methodIdentifiers":{"agentToken()":"b05707e9","constitutionHash(uint256)":"51424580","getLaw(uint256,uint256)":"1f88e5a9","getLawCount(uint256)":"88bc07fc","getLaws(uint256)":"358dfe06","initConstitution(uint256,(uint16,bytes32,bytes32)[])":"0584ca11","isInitialized(uint256)":"d9a845d8","verifyConstitution(uint256,(uint16,bytes32,bytes32)[])":"369c055a"}}}}}