{"contracts/web4/AgentEconomyHub.sol":{"AgentEconomyHub":{"abi":[{"inputs":[{"internalType":"address","name":"_agentToken","type":"address"}],"stateMutability":"nonpayable","type":"constructor"},{"inputs":[],"name":"AgentNotActive","type":"error"},{"inputs":[],"name":"InsufficientBalance","type":"error"},{"inputs":[],"name":"NotAgentOwner","type":"error"},{"inputs":[],"name":"NotAuthorizedModule","type":"error"},{"inputs":[{"internalType":"address","name":"owner","type":"address"}],"name":"OwnableInvalidOwner","type":"error"},{"inputs":[{"internalType":"address","name":"account","type":"address"}],"name":"OwnableUnauthorizedAccount","type":"error"},{"inputs":[],"name":"ReentrancyGuardReentrantCall","type":"error"},{"inputs":[],"name":"TransferFailed","type":"error"},{"inputs":[],"name":"ZeroAddress","type":"error"},{"inputs":[],"name":"ZeroAmount","type":"error"},{"anonymous":false,"inputs":[{"indexed":true,"internalType":"uint256","name":"agentId","type":"uint256"},{"indexed":true,"internalType":"address","name":"module","type":"address"},{"indexed":false,"internalType":"uint256","name":"amount","type":"uint256"}],"name":"CreditedByModule","type":"event"},{"anonymous":false,"inputs":[{"indexed":true,"internalType":"uint256","name":"agentId","type":"uint256"},{"indexed":true,"internalType":"address","name":"from","type":"address"},{"indexed":false,"internalType":"uint256","name":"amount","type":"uint256"},{"indexed":false,"internalType":"uint256","name":"newBalance","type":"uint256"}],"name":"Deposited","type":"event"},{"anonymous":false,"inputs":[{"indexed":true,"internalType":"address","name":"module","type":"address"},{"indexed":false,"internalType":"bool","name":"authorized","type":"bool"}],"name":"ModuleAuthorized","type":"event"},{"anonymous":false,"inputs":[{"indexed":true,"internalType":"address","name":"previousOwner","type":"address"},{"indexed":true,"internalType":"address","name":"newOwner","type":"address"}],"name":"OwnershipTransferred","type":"event"},{"anonymous":false,"inputs":[{"indexed":true,"internalType":"uint256","name":"agentId","type":"uint256"},{"indexed":false,"internalType":"enum AgentEconomyHub.SurvivalTier","name":"previousTier","type":"uint8"},{"indexed":false,"internalType":"enum AgentEconomyHub.SurvivalTier","name":"newTier","type":"uint8"}],"name":"TierChanged","type":"event"},{"anonymous":false,"inputs":[{"indexed":true,"internalType":"uint256","name":"fromAgent","type":"uint256"},{"indexed":true,"internalType":"uint256","name":"toAgent","type":"uint256"},{"indexed":false,"internalType":"uint256","name":"amount","type":"uint256"}],"name":"Transferred","type":"event"},{"anonymous":false,"inputs":[{"indexed":true,"internalType":"uint256","name":"agentId","type":"uint256"},{"indexed":true,"internalType":"address","name":"to","type":"address"},{"indexed":false,"internalType":"uint256","name":"amount","type":"uint256"},{"indexed":false,"internalType":"uint256","name":"newBalance","type":"uint256"}],"name":"Withdrawn","type":"event"},{"inputs":[],"name":"TIER_CRITICAL_THRESHOLD","outputs":[{"internalType":"uint256","name":"","type":"uint256"}],"stateMutability":"view","type":"function"},{"inputs":[],"name":"TIER_LOW_THRESHOLD","outputs":[{"internalType":"uint256","name":"","type":"uint256"}],"stateMutability":"view","type":"function"},{"inputs":[],"name":"TIER_NORMAL_THRESHOLD","outputs":[{"internalType":"uint256","name":"","type":"uint256"}],"stateMutability":"view","type":"function"},{"inputs":[],"name":"agentToken","outputs":[{"internalType":"contract IAgentIdentity","name":"","type":"address"}],"stateMutability":"view","type":"function"},{"inputs":[{"internalType":"address","name":"","type":"address"}],"name":"authorizedModules","outputs":[{"internalType":"bool","name":"","type":"bool"}],"stateMutability":"view","type":"function"},{"inputs":[{"internalType":"uint256","name":"","type":"uint256"}],"name":"balances","outputs":[{"internalType":"uint256","name":"","type":"uint256"}],"stateMutability":"view","type":"function"},{"inputs":[{"internalType":"uint256","name":"agentId","type":"uint256"},{"internalType":"uint256","name":"amount","type":"uint256"}],"name":"creditAgent","outputs":[],"stateMutability":"payable","type":"function"},{"inputs":[{"internalType":"uint256","name":"agentId","type":"uint256"},{"internalType":"uint256","name":"amount","type":"uint256"}],"name":"debitAgent","outputs":[],"stateMutability":"nonpayable","type":"function"},{"inputs":[{"internalType":"uint256","name":"agentId","type":"uint256"}],"name":"deposit","outputs":[],"stateMutability":"payable","type":"function"},{"inputs":[],"name":"getTierThresholds","outputs":[{"internalType":"uint256","name":"normal","type":"uint256"},{"internalType":"uint256","name":"lowCompute","type":"uint256"},{"internalType":"uint256","name":"critical","type":"uint256"}],"stateMutability":"pure","type":"function"},{"inputs":[{"internalType":"uint256","name":"agentId","type":"uint256"}],"name":"getWalletStats","outputs":[{"internalType":"uint256","name":"balance","type":"uint256"},{"internalType":"uint256","name":"earned","type":"uint256"},{"internalType":"uint256","name":"spent","type":"uint256"},{"internalType":"enum AgentEconomyHub.SurvivalTier","name":"tier","type":"uint8"}],"stateMutability":"view","type":"function"},{"inputs":[],"name":"owner","outputs":[{"internalType":"address","name":"","type":"address"}],"stateMutability":"view","type":"function"},{"inputs":[],"name":"renounceOwnership","outputs":[],"stateMutability":"nonpayable","type":"function"},{"inputs":[{"internalType":"address","name":"module","type":"address"},{"internalType":"bool","name":"authorized","type":"bool"}],"name":"setModuleAuthorized","outputs":[],"stateMutability":"nonpayable","type":"function"},{"inputs":[{"internalType":"uint256","name":"agentId","type":"uint256"}],"name":"survivalTier","outputs":[{"internalType":"enum AgentEconomyHub.SurvivalTier","name":"","type":"uint8"}],"stateMutability":"view","type":"function"},{"inputs":[{"internalType":"uint256","name":"","type":"uint256"}],"name":"totalEarned","outputs":[{"internalType":"uint256","name":"","type":"uint256"}],"stateMutability":"view","type":"function"},{"inputs":[{"internalType":"uint256","name":"","type":"uint256"}],"name":"totalSpent","outputs":[{"internalType":"uint256","name":"","type":"uint256"}],"stateMutability":"view","type":"function"},{"inputs":[{"internalType":"uint256","name":"fromAgentId","type":"uint256"},{"internalType":"uint256","name":"toAgentId","type":"uint256"},{"internalType":"uint256","name":"amount","type":"uint256"}],"name":"transfer","outputs":[],"stateMutability":"nonpayable","type":"function"},{"inputs":[{"internalType":"address","name":"newOwner","type":"address"}],"name":"transferOwnership","outputs":[],"stateMutability":"nonpayable","type":"function"},{"inputs":[{"internalType":"uint256","name":"agentId","type":"uint256"},{"internalType":"uint256","name":"amount","type":"uint256"},{"internalType":"address","name":"to","type":"address"}],"name":"withdraw","outputs":[],"stateMutability":"nonpayable","type":"function"}],"evm":{"bytecode":{"linkReferences":{},"object":"60a0346100f957601f61111c38819003918201601f19168301916001600160401b038311848410176100fe578084926020946040528339810103126100f957516001600160a01b03808216918290036100f95733156100e0576000543360018060a01b0319821617600055604051913391167f8be0079c531659141344cd1fd0a4f28419497f9722a3daafe3b4186f6b6457e0600080a36001805581156100d157506080526040516110079081610115823960805181818161023c015281816103cb015281816105760152610bc30152f35b63d92e233d60e01b8152600490fd5b604051631e4fbdf760e01b815260006004820152602490fd5b600080fd5b634e487b7160e01b600052604160045260246000fdfe6040608081526004908136101561001557600080fd5b600091823560e01c9081630a62fbae14610d845781630ad58d2f14610b6f5781630ca3295914610b4857816317f6fe5b14610b0a5781634487815014610acc57816345d0bde214610aa95781634903b0d114610a815781635488ba931461091f5781636431d69014610886578163715018a61461082c5781638da5cb5b1461080457816390dd26271461052f578163a6f7986114610422578163a9fc0f73146103fa578163b05707e9146103b6578163b6b55f2514610202578163d74d730e146101d1578163ef2bdfd7146101ae578163f2fde38b14610123575063fb36f54b146100ff57600080fd5b3461011f578160031936011261011f5760209051662386f26fc100008152f35b5080fd5b9050346101aa5760203660031901126101aa5761013e610e00565b90610147610f85565b6001600160a01b0391821692831561019457505082546001600160a01b0319811683178455167f8be0079c531659141344cd1fd0a4f28419497f9722a3daafe3b4186f6b6457e08380a380f35b51631e4fbdf760e01b8152908101849052602490fd5b8280fd5b50503461011f578160031936011261011f5760209051670de0b6b3a76400008152f35b8284346101ff5760203660031901126101ff57506101fd6101f460209335610f10565b91518092610ddd565bf35b80fd5b9050602091826003193601126103b25781359161021d610f62565b34156103a4578151631c9696c760e11b815281810184905284816024817f00000000000000000000000000000000000000000000000000000000000000006001600160a01b03165afa90811561039a57869161036d575b501561035f5761028383610f10565b83865260028552828620610298348254610eab565b9055838652600385528286206102af348254610eab565b90556102ba84610f10565b918083101561034c578082101561034c57508183827fad5b4075b97dbf75ad5c78f7afac948e4ae611c4fdf2825e2ce3c6c96925bf3b959487940361031a575b505050855260028452808520548151943486528501523393a36001805580f35b610342600080516020610fb28339815191529361033984518094610ddd565b89830190610ddd565ba2823882816102fa565b634e487b7160e01b875260219052602486fd5b9051632437e77160e11b8152fd5b61038d9150853d8711610393575b6103858183610e31565b810190610ef8565b38610274565b503d61037b565b83513d88823e3d90fd5b9051631f2a200560e01b8152fd5b8380fd5b50503461011f578160031936011261011f57517f00000000000000000000000000000000000000000000000000000000000000006001600160a01b03168152602090f35b9050346101aa5760203660031901126101aa5760209282913581526003845220549051908152f35b9050346101aa5761043236610e1b565b929092338552600560205260ff8286205416156105215780156105135783855260026020528082862054106105055761046a84610f10565b908486526002602052828620610481828254610e88565b905584865283602052610498838720918254610eab565b90556104a384610f10565b92808410156104f257808210156104f257508281036104c0578480f35b6104e9600080516020610fb2833981519152936104df84518094610ddd565b6020830190610ddd565ba2388080808480f35b634e487b7160e01b865260219052602485fd5b5051631e9acf1760e31b8152fd5b5051631f2a200560e01b8152fd5b505163ae75444760e01b8152fd5b83833461011f57606036600319011261011f57823560249384359260443590610556610f62565b80516331a9108f60e11b8152838101859052602093906001600160a01b037f00000000000000000000000000000000000000000000000000000000000000008116919086828c81865afa9182156107fa578a926107cb575b50339116036107bc5783156107ad578588526002855283838920541061079e57848991845192838092631c9696c760e11b82528b878301525afa908115610794578891610777575b501561035f5761060585610f10565b9761060f87610f10565b9186895260028652838920610625868254610e88565b905586895280865283892061063b868254610eab565b905587895260028652838920610652868254610eab565b905587895260038652838920610669868254610eab565b905561067487610f10565b61067d89610f10565b9a82821015610765578281101561076557908582828b9403610733575b50505050808a101561072257808310156107225750509487828783999a7fe83ae817d487e687cf0dec47aa9522f61efb88e84a2bbfcbc46d96cddc9e33f29899036106f0575b5050505051908152a36001805580f35b610718600080516020610fb28339815191529361070f84518094610ddd565b88830190610ddd565ba2858882816106e0565b634e487b7160e01b89526021905287fd5b61075b600080516020610fb28339815191529361075284518094610ddd565b8b830190610ddd565ba2868b858161069a565b634e487b7160e01b8b5260218352838bfd5b61078e9150853d8711610393576103858183610e31565b896105f6565b83513d8a823e3d90fd5b509051631e9acf1760e31b8152fd5b509051631f2a200560e01b8152fd5b509051630e41dcbf60e21b8152fd5b6107ec919250873d89116107f3575b6107e48183610e31565b810190610e69565b908b6105ae565b503d6107da565b85513d8c823e3d90fd5b50503461011f578160031936011261011f57905490516001600160a01b039091168152602090f35b83346101ff57806003193601126101ff57610845610f85565b80546001600160a01b03198116825581906001600160a01b03167f8be0079c531659141344cd1fd0a4f28419497f9722a3daafe3b4186f6b6457e08280a380f35b919050346101aa57806003193601126101aa576108a1610e00565b906024359182151580930361091b576108b8610f85565b6001600160a01b031692831561090d57507f7bfed9e73cc01c459d482800942a9eef9046d01f68c4881d389495df294d10ca916020918486526005835280862060ff1981541660ff841617905551908152a280f35b905163d92e233d60e01b8152fd5b8480fd5b91905061092b36610e1b565b90338552600560205260ff838620541615610a72578115610a6357813410610a545761095681610f10565b818652600260205283862061096c848254610eab565b90558186526003602052838620610984848254610eab565b905561098f82610f10565b9085821015610a415785811015610a41579181858483948a979603610a18575b5091505051908282527f5f1032143f36c5c08be77b817c71e373f6c44d5676a3fd45191e18012f40124f60203393a38034116109e9575080f35b81806109f6819334610e88565b335af1610a01610eb8565b5015610a0b578280f35b516312171d8360e31b8152fd5b610a37600080516020610fb2833981519152936104df84518094610ddd565ba2803885816109af565b634e487b7160e01b875260218652602487fd5b505051631e9acf1760e31b8152fd5b505051631f2a200560e01b8152fd5b50505163ae75444760e01b8152fd5b9050346101aa5760203660031901126101aa5760209282913581526002845220549051908152f35b50503461011f578160031936011261011f576020905167016345785d8a00008152f35b50503461011f578160031936011261011f5780662386f26fc100006060925191670de0b6b3a7640000835267016345785d8a00006020840152820152f35b50503461011f57602036600319011261011f5760209160ff9082906001600160a01b03610b35610e00565b1681526005855220541690519015158152f35b9050346101aa5760203660031901126101aa57602092818392358252845220549051908152f35b919050346101aa5760603660031901126101aa576024356044356001600160a01b0380821690853590828403610d8057610ba7610f62565b85516331a9108f60e11b815287810183905260209182826024817f000000000000000000000000000000000000000000000000000000000000000085165afa918215610d76578a92610d57575b5033911603610d47578415610d37578215610d275781885260028152848689205410610d1757610c2382610f10565b82895260028252868920610c38878254610e88565b9055828952878252868920610c4e878254610eab565b9055610c5983610f10565b9088821015610d045788811015610d045793837f1c84cc0f96161bdafea718a9094dd21c21d1fb2f9ca2ebb9bd4e39918efbaace898c99958a99959788838b8d9c9b8d9c03610cd2575b50505088526002815281882054825191888352820152a35af1610cc4610eb8565b5015610a0b57826001805580f35b610cfa600080516020610fb283398151915293610cf184518094610ddd565b86830190610ddd565ba283388381610ca3565b634e487b7160e01b8a526021895260248afd5b8551631e9acf1760e31b81528790fd5b855163d92e233d60e01b81528790fd5b8551631f2a200560e01b81528790fd5b8551630e41dcbf60e21b81528790fd5b610d6f919250833d85116107f3576107e48183610e31565b9038610bf4565b88513d8c823e3d90fd5b8780fd5b919050346101aa5760203660031901126101aa57816101fd916080949335908185526002602052610dc981808720549660036020528181205495602052205492610f10565b928151958652602086015284015260608301905b906004821015610dea5752565b634e487b7160e01b600052602160045260246000fd5b600435906001600160a01b0382168203610e1657565b600080fd5b6040906003190112610e16576004359060243590565b90601f8019910116810190811067ffffffffffffffff821117610e5357604052565b634e487b7160e01b600052604160045260246000fd5b90816020910312610e1657516001600160a01b0381168103610e165790565b91908203918211610e9557565b634e487b7160e01b600052601160045260246000fd5b91908201809211610e9557565b3d15610ef3573d9067ffffffffffffffff8211610e535760405191610ee7601f8201601f191660200184610e31565b82523d6000602084013e565b606090565b90816020910312610e1657518015158103610e165790565b6000526002602052604060002054670de0b6b3a7640000811015610f5c5767016345785d8a0000811015610f5657662386f26fc100001115610f5157600090565b600190565b50600290565b50600390565b600260015414610f73576002600155565b604051633ee5aeb560e01b8152600490fd5b6000546001600160a01b03163303610f9957565b60405163118cdaa760e01b8152336004820152602490fdfee4617657d9254e34fea36fd76ef71aea57ff771484a00d5a0874fcdb7641b489a2646970667358221220e22c49b120bf5291d989c4b33657942ef415b929cc46983120cd96aff0716d2d64736f6c63430008180033","opcodes":"PUSH1 0xA0 CALLVALUE PUSH2 0xF9 JUMPI PUSH1 0x1F PUSH2 0x111C CODESIZE DUP2 SWAP1 SUB SWAP2 DUP3 ADD PUSH1 0x1F NOT AND DUP4 ADD SWAP2 PUSH1 0x1 PUSH1 0x1 PUSH1 0x40 SHL SUB DUP4 GT DUP5 DUP5 LT OR PUSH2 0xFE JUMPI DUP1 DUP5 SWAP3 PUSH1 0x20 SWAP5 PUSH1 0x40 MSTORE DUP4 CODECOPY DUP2 ADD SUB SLT PUSH2 0xF9 JUMPI MLOAD PUSH1 0x1 PUSH1 0x1 PUSH1 0xA0 SHL SUB DUP1 DUP3 AND SWAP2 DUP3 SWAP1 SUB PUSH2 0xF9 JUMPI CALLER ISZERO PUSH2 0xE0 JUMPI PUSH1 0x0 SLOAD CALLER PUSH1 0x1 DUP1 PUSH1 0xA0 SHL SUB NOT DUP3 AND OR PUSH1 0x0 SSTORE PUSH1 0x40 MLOAD SWAP2 CALLER SWAP2 AND PUSH32 0x8BE0079C531659141344CD1FD0A4F28419497F9722A3DAAFE3B4186F6B6457E0 PUSH1 0x0 DUP1 LOG3 PUSH1 0x1 DUP1 SSTORE DUP2 ISZERO PUSH2 0xD1 JUMPI POP PUSH1 0x80 MSTORE PUSH1 0x40 MLOAD PUSH2 0x1007 SWAP1 DUP2 PUSH2 0x115 DUP3 CODECOPY PUSH1 0x80 MLOAD DUP2 DUP2 DUP2 PUSH2 0x23C ADD MSTORE DUP2 DUP2 PUSH2 0x3CB ADD MSTORE DUP2 DUP2 PUSH2 0x576 ADD MSTORE PUSH2 0xBC3 ADD MSTORE RETURN JUMPDEST PUSH4 0xD92E233D PUSH1 0xE0 SHL DUP2 MSTORE PUSH1 0x4 SWAP1 REVERT JUMPDEST PUSH1 0x40 MLOAD PUSH4 0x1E4FBDF7 PUSH1 0xE0 SHL DUP2 MSTORE PUSH1 0x0 PUSH1 0x4 DUP3 ADD MSTORE PUSH1 0x24 SWAP1 REVERT JUMPDEST PUSH1 0x0 DUP1 REVERT JUMPDEST PUSH4 0x4E487B71 PUSH1 0xE0 SHL PUSH1 0x0 MSTORE PUSH1 0x41 PUSH1 0x4 MSTORE PUSH1 0x24 PUSH1 0x0 REVERT INVALID PUSH1 0x40 PUSH1 0x80 DUP2 MSTORE PUSH1 0x4 SWAP1 DUP2 CALLDATASIZE LT ISZERO PUSH2 0x15 JUMPI PUSH1 0x0 DUP1 REVERT JUMPDEST PUSH1 0x0 SWAP2 DUP3 CALLDATALOAD PUSH1 0xE0 SHR SWAP1 DUP2 PUSH4 0xA62FBAE EQ PUSH2 0xD84 JUMPI DUP2 PUSH4 0xAD58D2F EQ PUSH2 0xB6F JUMPI DUP2 PUSH4 0xCA32959 EQ PUSH2 0xB48 JUMPI DUP2 PUSH4 0x17F6FE5B EQ PUSH2 0xB0A JUMPI DUP2 PUSH4 0x44878150 EQ PUSH2 0xACC JUMPI DUP2 PUSH4 0x45D0BDE2 EQ PUSH2 0xAA9 JUMPI DUP2 PUSH4 0x4903B0D1 EQ PUSH2 0xA81 JUMPI DUP2 PUSH4 0x5488BA93 EQ PUSH2 0x91F JUMPI DUP2 PUSH4 0x6431D690 EQ PUSH2 0x886 JUMPI DUP2 PUSH4 0x715018A6 EQ PUSH2 0x82C JUMPI DUP2 PUSH4 0x8DA5CB5B EQ PUSH2 0x804 JUMPI DUP2 PUSH4 0x90DD2627 EQ PUSH2 0x52F JUMPI DUP2 PUSH4 0xA6F79861 EQ PUSH2 0x422 JUMPI DUP2 PUSH4 0xA9FC0F73 EQ PUSH2 0x3FA JUMPI DUP2 PUSH4 0xB05707E9 EQ PUSH2 0x3B6 JUMPI DUP2 PUSH4 0xB6B55F25 EQ PUSH2 0x202 JUMPI DUP2 PUSH4 0xD74D730E EQ PUSH2 0x1D1 JUMPI DUP2 PUSH4 0xEF2BDFD7 EQ PUSH2 0x1AE JUMPI DUP2 PUSH4 0xF2FDE38B EQ PUSH2 0x123 JUMPI POP PUSH4 0xFB36F54B EQ PUSH2 0xFF JUMPI PUSH1 0x0 DUP1 REVERT JUMPDEST CALLVALUE PUSH2 0x11F JUMPI DUP2 PUSH1 0x3 NOT CALLDATASIZE ADD SLT PUSH2 0x11F JUMPI PUSH1 0x20 SWAP1 MLOAD PUSH7 0x2386F26FC10000 DUP2 MSTORE RETURN JUMPDEST POP DUP1 REVERT JUMPDEST SWAP1 POP CALLVALUE PUSH2 0x1AA JUMPI PUSH1 0x20 CALLDATASIZE PUSH1 0x3 NOT ADD SLT PUSH2 0x1AA JUMPI PUSH2 0x13E PUSH2 0xE00 JUMP JUMPDEST SWAP1 PUSH2 0x147 PUSH2 0xF85 JUMP JUMPDEST PUSH1 0x1 PUSH1 0x1 PUSH1 0xA0 SHL SUB SWAP2 DUP3 AND SWAP3 DUP4 ISZERO PUSH2 0x194 JUMPI POP POP DUP3 SLOAD PUSH1 0x1 PUSH1 0x1 PUSH1 0xA0 SHL SUB NOT DUP2 AND DUP4 OR DUP5 SSTORE AND PUSH32 0x8BE0079C531659141344CD1FD0A4F28419497F9722A3DAAFE3B4186F6B6457E0 DUP4 DUP1 LOG3 DUP1 RETURN JUMPDEST MLOAD PUSH4 0x1E4FBDF7 PUSH1 0xE0 SHL DUP2 MSTORE SWAP1 DUP2 ADD DUP5 SWAP1 MSTORE PUSH1 0x24 SWAP1 REVERT JUMPDEST DUP3 DUP1 REVERT JUMPDEST POP POP CALLVALUE PUSH2 0x11F JUMPI DUP2 PUSH1 0x3 NOT CALLDATASIZE ADD SLT PUSH2 0x11F JUMPI PUSH1 0x20 SWAP1 MLOAD PUSH8 0xDE0B6B3A7640000 DUP2 MSTORE RETURN JUMPDEST DUP3 DUP5 CALLVALUE PUSH2 0x1FF JUMPI PUSH1 0x20 CALLDATASIZE PUSH1 0x3 NOT ADD SLT PUSH2 0x1FF JUMPI POP PUSH2 0x1FD PUSH2 0x1F4 PUSH1 0x20 SWAP4 CALLDATALOAD PUSH2 0xF10 JUMP JUMPDEST SWAP2 MLOAD DUP1 SWAP3 PUSH2 0xDDD JUMP JUMPDEST RETURN JUMPDEST DUP1 REVERT JUMPDEST SWAP1 POP PUSH1 0x20 SWAP2 DUP3 PUSH1 0x3 NOT CALLDATASIZE ADD SLT PUSH2 0x3B2 JUMPI DUP2 CALLDATALOAD SWAP2 PUSH2 0x21D PUSH2 0xF62 JUMP JUMPDEST CALLVALUE ISZERO PUSH2 0x3A4 JUMPI DUP2 MLOAD PUSH4 0x1C9696C7 PUSH1 0xE1 SHL DUP2 MSTORE DUP2 DUP2 ADD DUP5 SWAP1 MSTORE DUP5 DUP2 PUSH1 0x24 DUP2 PUSH32 0x0 PUSH1 0x1 PUSH1 0x1 PUSH1 0xA0 SHL SUB AND GAS STATICCALL SWAP1 DUP2 ISZERO PUSH2 0x39A JUMPI DUP7 SWAP2 PUSH2 0x36D JUMPI JUMPDEST POP ISZERO PUSH2 0x35F JUMPI PUSH2 0x283 DUP4 PUSH2 0xF10 JUMP JUMPDEST DUP4 DUP7 MSTORE PUSH1 0x2 DUP6 MSTORE DUP3 DUP7 KECCAK256 PUSH2 0x298 CALLVALUE DUP3 SLOAD PUSH2 0xEAB JUMP JUMPDEST SWAP1 SSTORE DUP4 DUP7 MSTORE PUSH1 0x3 DUP6 MSTORE DUP3 DUP7 KECCAK256 PUSH2 0x2AF CALLVALUE DUP3 SLOAD PUSH2 0xEAB JUMP JUMPDEST SWAP1 SSTORE PUSH2 0x2BA DUP5 PUSH2 0xF10 JUMP JUMPDEST SWAP2 DUP1 DUP4 LT ISZERO PUSH2 0x34C JUMPI DUP1 DUP3 LT ISZERO PUSH2 0x34C JUMPI POP DUP2 DUP4 DUP3 PUSH32 0xAD5B4075B97DBF75AD5C78F7AFAC948E4AE611C4FDF2825E2CE3C6C96925BF3B SWAP6 SWAP5 DUP8 SWAP5 SUB PUSH2 0x31A JUMPI JUMPDEST POP POP POP DUP6 MSTORE PUSH1 0x2 DUP5 MSTORE DUP1 DUP6 KECCAK256 SLOAD DUP2 MLOAD SWAP5 CALLVALUE DUP7 MSTORE DUP6 ADD MSTORE CALLER SWAP4 LOG3 PUSH1 0x1 DUP1 SSTORE DUP1 RETURN JUMPDEST PUSH2 0x342 PUSH1 0x0 DUP1 MLOAD PUSH1 0x20 PUSH2 0xFB2 DUP4 CODECOPY DUP2 MLOAD SWAP2 MSTORE SWAP4 PUSH2 0x339 DUP5 MLOAD DUP1 SWAP5 PUSH2 0xDDD JUMP JUMPDEST DUP10 DUP4 ADD SWAP1 PUSH2 0xDDD JUMP JUMPDEST LOG2 DUP3 CODESIZE DUP3 DUP2 PUSH2 0x2FA JUMP JUMPDEST PUSH4 0x4E487B71 PUSH1 0xE0 SHL DUP8 MSTORE PUSH1 0x21 SWAP1 MSTORE PUSH1 0x24 DUP7 REVERT JUMPDEST SWAP1 MLOAD PUSH4 0x2437E771 PUSH1 0xE1 SHL DUP2 MSTORE REVERT JUMPDEST PUSH2 0x38D SWAP2 POP DUP6 RETURNDATASIZE DUP8 GT PUSH2 0x393 JUMPI JUMPDEST PUSH2 0x385 DUP2 DUP4 PUSH2 0xE31 JUMP JUMPDEST DUP2 ADD SWAP1 PUSH2 0xEF8 JUMP JUMPDEST CODESIZE PUSH2 0x274 JUMP JUMPDEST POP RETURNDATASIZE PUSH2 0x37B JUMP JUMPDEST DUP4 MLOAD RETURNDATASIZE DUP9 DUP3 RETURNDATACOPY RETURNDATASIZE SWAP1 REVERT JUMPDEST SWAP1 MLOAD PUSH4 0x1F2A2005 PUSH1 0xE0 SHL DUP2 MSTORE REVERT JUMPDEST DUP4 DUP1 REVERT JUMPDEST POP POP CALLVALUE PUSH2 0x11F JUMPI DUP2 PUSH1 0x3 NOT CALLDATASIZE ADD SLT PUSH2 0x11F JUMPI MLOAD PUSH32 0x0 PUSH1 0x1 PUSH1 0x1 PUSH1 0xA0 SHL SUB AND DUP2 MSTORE PUSH1 0x20 SWAP1 RETURN JUMPDEST SWAP1 POP CALLVALUE PUSH2 0x1AA JUMPI PUSH1 0x20 CALLDATASIZE PUSH1 0x3 NOT ADD SLT PUSH2 0x1AA JUMPI PUSH1 0x20 SWAP3 DUP3 SWAP2 CALLDATALOAD DUP2 MSTORE PUSH1 0x3 DUP5 MSTORE KECCAK256 SLOAD SWAP1 MLOAD SWAP1 DUP2 MSTORE RETURN JUMPDEST SWAP1 POP CALLVALUE PUSH2 0x1AA JUMPI PUSH2 0x432 CALLDATASIZE PUSH2 0xE1B JUMP JUMPDEST SWAP3 SWAP1 SWAP3 CALLER DUP6 MSTORE PUSH1 0x5 PUSH1 0x20 MSTORE PUSH1 0xFF DUP3 DUP7 KECCAK256 SLOAD AND ISZERO PUSH2 0x521 JUMPI DUP1 ISZERO PUSH2 0x513 JUMPI DUP4 DUP6 MSTORE PUSH1 0x2 PUSH1 0x20 MSTORE DUP1 DUP3 DUP7 KECCAK256 SLOAD LT PUSH2 0x505 JUMPI PUSH2 0x46A DUP5 PUSH2 0xF10 JUMP JUMPDEST SWAP1 DUP5 DUP7 MSTORE PUSH1 0x2 PUSH1 0x20 MSTORE DUP3 DUP7 KECCAK256 PUSH2 0x481 DUP3 DUP3 SLOAD PUSH2 0xE88 JUMP JUMPDEST SWAP1 SSTORE DUP5 DUP7 MSTORE DUP4 PUSH1 0x20 MSTORE PUSH2 0x498 DUP4 DUP8 KECCAK256 SWAP2 DUP3 SLOAD PUSH2 0xEAB JUMP JUMPDEST SWAP1 SSTORE PUSH2 0x4A3 DUP5 PUSH2 0xF10 JUMP JUMPDEST SWAP3 DUP1 DUP5 LT ISZERO PUSH2 0x4F2 JUMPI DUP1 DUP3 LT ISZERO PUSH2 0x4F2 JUMPI POP DUP3 DUP2 SUB PUSH2 0x4C0 JUMPI DUP5 DUP1 RETURN JUMPDEST PUSH2 0x4E9 PUSH1 0x0 DUP1 MLOAD PUSH1 0x20 PUSH2 0xFB2 DUP4 CODECOPY DUP2 MLOAD SWAP2 MSTORE SWAP4 PUSH2 0x4DF DUP5 MLOAD DUP1 SWAP5 PUSH2 0xDDD JUMP JUMPDEST PUSH1 0x20 DUP4 ADD SWAP1 PUSH2 0xDDD JUMP JUMPDEST LOG2 CODESIZE DUP1 DUP1 DUP1 DUP5 DUP1 RETURN JUMPDEST PUSH4 0x4E487B71 PUSH1 0xE0 SHL DUP7 MSTORE PUSH1 0x21 SWAP1 MSTORE PUSH1 0x24 DUP6 REVERT JUMPDEST POP MLOAD PUSH4 0x1E9ACF17 PUSH1 0xE3 SHL DUP2 MSTORE REVERT JUMPDEST POP MLOAD PUSH4 0x1F2A2005 PUSH1 0xE0 SHL DUP2 MSTORE REVERT JUMPDEST POP MLOAD PUSH4 0xAE754447 PUSH1 0xE0 SHL DUP2 MSTORE REVERT JUMPDEST DUP4 DUP4 CALLVALUE PUSH2 0x11F JUMPI PUSH1 0x60 CALLDATASIZE PUSH1 0x3 NOT ADD SLT PUSH2 0x11F JUMPI DUP3 CALLDATALOAD PUSH1 0x24 SWAP4 DUP5 CALLDATALOAD SWAP3 PUSH1 0x44 CALLDATALOAD SWAP1 PUSH2 0x556 PUSH2 0xF62 JUMP JUMPDEST DUP1 MLOAD PUSH4 0x31A9108F PUSH1 0xE1 SHL DUP2 MSTORE DUP4 DUP2 ADD DUP6 SWAP1 MSTORE PUSH1 0x20 SWAP4 SWAP1 PUSH1 0x1 PUSH1 0x1 PUSH1 0xA0 SHL SUB PUSH32 0x0 DUP2 AND SWAP2 SWAP1 DUP7 DUP3 DUP13 DUP2 DUP7 GAS STATICCALL SWAP2 DUP3 ISZERO PUSH2 0x7FA JUMPI DUP11 SWAP3 PUSH2 0x7CB JUMPI JUMPDEST POP CALLER SWAP2 AND SUB PUSH2 0x7BC JUMPI DUP4 ISZERO PUSH2 0x7AD JUMPI DUP6 DUP9 MSTORE PUSH1 0x2 DUP6 MSTORE DUP4 DUP4 DUP10 KECCAK256 SLOAD LT PUSH2 0x79E JUMPI DUP5 DUP10 SWAP2 DUP5 MLOAD SWAP3 DUP4 DUP1 SWAP3 PUSH4 0x1C9696C7 PUSH1 0xE1 SHL DUP3 MSTORE DUP12 DUP8 DUP4 ADD MSTORE GAS STATICCALL SWAP1 DUP2 ISZERO PUSH2 0x794 JUMPI DUP9 SWAP2 PUSH2 0x777 JUMPI JUMPDEST POP ISZERO PUSH2 0x35F JUMPI PUSH2 0x605 DUP6 PUSH2 0xF10 JUMP JUMPDEST SWAP8 PUSH2 0x60F DUP8 PUSH2 0xF10 JUMP JUMPDEST SWAP2 DUP7 DUP10 MSTORE PUSH1 0x2 DUP7 MSTORE DUP4 DUP10 KECCAK256 PUSH2 0x625 DUP7 DUP3 SLOAD PUSH2 0xE88 JUMP JUMPDEST SWAP1 SSTORE DUP7 DUP10 MSTORE DUP1 DUP7 MSTORE DUP4 DUP10 KECCAK256 PUSH2 0x63B DUP7 DUP3 SLOAD PUSH2 0xEAB JUMP JUMPDEST SWAP1 SSTORE DUP8 DUP10 MSTORE PUSH1 0x2 DUP7 MSTORE DUP4 DUP10 KECCAK256 PUSH2 0x652 DUP7 DUP3 SLOAD PUSH2 0xEAB JUMP JUMPDEST SWAP1 SSTORE DUP8 DUP10 MSTORE PUSH1 0x3 DUP7 MSTORE DUP4 DUP10 KECCAK256 PUSH2 0x669 DUP7 DUP3 SLOAD PUSH2 0xEAB JUMP JUMPDEST SWAP1 SSTORE PUSH2 0x674 DUP8 PUSH2 0xF10 JUMP JUMPDEST PUSH2 0x67D DUP10 PUSH2 0xF10 JUMP JUMPDEST SWAP11 DUP3 DUP3 LT ISZERO PUSH2 0x765 JUMPI DUP3 DUP2 LT ISZERO PUSH2 0x765 JUMPI SWAP1 DUP6 DUP3 DUP3 DUP12 SWAP5 SUB PUSH2 0x733 JUMPI JUMPDEST POP POP POP POP DUP1 DUP11 LT ISZERO PUSH2 0x722 JUMPI DUP1 DUP4 LT ISZERO PUSH2 0x722 JUMPI POP POP SWAP5 DUP8 DUP3 DUP8 DUP4 SWAP10 SWAP11 PUSH32 0xE83AE817D487E687CF0DEC47AA9522F61EFB88E84A2BBFCBC46D96CDDC9E33F2 SWAP9 SWAP10 SUB PUSH2 0x6F0 JUMPI JUMPDEST POP POP POP POP MLOAD SWAP1 DUP2 MSTORE LOG3 PUSH1 0x1 DUP1 SSTORE DUP1 RETURN JUMPDEST PUSH2 0x718 PUSH1 0x0 DUP1 MLOAD PUSH1 0x20 PUSH2 0xFB2 DUP4 CODECOPY DUP2 MLOAD SWAP2 MSTORE SWAP4 PUSH2 0x70F DUP5 MLOAD DUP1 SWAP5 PUSH2 0xDDD JUMP JUMPDEST DUP9 DUP4 ADD SWAP1 PUSH2 0xDDD JUMP JUMPDEST LOG2 DUP6 DUP9 DUP3 DUP2 PUSH2 0x6E0 JUMP JUMPDEST PUSH4 0x4E487B71 PUSH1 0xE0 SHL DUP10 MSTORE PUSH1 0x21 SWAP1 MSTORE DUP8 REVERT JUMPDEST PUSH2 0x75B PUSH1 0x0 DUP1 MLOAD PUSH1 0x20 PUSH2 0xFB2 DUP4 CODECOPY DUP2 MLOAD SWAP2 MSTORE SWAP4 PUSH2 0x752 DUP5 MLOAD DUP1 SWAP5 PUSH2 0xDDD JUMP JUMPDEST DUP12 DUP4 ADD SWAP1 PUSH2 0xDDD JUMP JUMPDEST LOG2 DUP7 DUP12 DUP6 DUP2 PUSH2 0x69A JUMP JUMPDEST PUSH4 0x4E487B71 PUSH1 0xE0 SHL DUP12 MSTORE PUSH1 0x21 DUP4 MSTORE DUP4 DUP12 REVERT JUMPDEST PUSH2 0x78E SWAP2 POP DUP6 RETURNDATASIZE DUP8 GT PUSH2 0x393 JUMPI PUSH2 0x385 DUP2 DUP4 PUSH2 0xE31 JUMP JUMPDEST DUP10 PUSH2 0x5F6 JUMP JUMPDEST DUP4 MLOAD RETURNDATASIZE DUP11 DUP3 RETURNDATACOPY RETURNDATASIZE SWAP1 REVERT JUMPDEST POP SWAP1 MLOAD PUSH4 0x1E9ACF17 PUSH1 0xE3 SHL DUP2 MSTORE REVERT JUMPDEST POP SWAP1 MLOAD PUSH4 0x1F2A2005 PUSH1 0xE0 SHL DUP2 MSTORE REVERT JUMPDEST POP SWAP1 MLOAD PUSH4 0xE41DCBF PUSH1 0xE2 SHL DUP2 MSTORE REVERT JUMPDEST PUSH2 0x7EC SWAP2 SWAP3 POP DUP8 RETURNDATASIZE DUP10 GT PUSH2 0x7F3 JUMPI JUMPDEST PUSH2 0x7E4 DUP2 DUP4 PUSH2 0xE31 JUMP JUMPDEST DUP2 ADD SWAP1 PUSH2 0xE69 JUMP JUMPDEST SWAP1 DUP12 PUSH2 0x5AE JUMP JUMPDEST POP RETURNDATASIZE PUSH2 0x7DA JUMP JUMPDEST DUP6 MLOAD RETURNDATASIZE DUP13 DUP3 RETURNDATACOPY RETURNDATASIZE SWAP1 REVERT JUMPDEST POP POP CALLVALUE PUSH2 0x11F JUMPI DUP2 PUSH1 0x3 NOT CALLDATASIZE ADD SLT PUSH2 0x11F JUMPI SWAP1 SLOAD SWAP1 MLOAD PUSH1 0x1 PUSH1 0x1 PUSH1 0xA0 SHL SUB SWAP1 SWAP2 AND DUP2 MSTORE PUSH1 0x20 SWAP1 RETURN JUMPDEST DUP4 CALLVALUE PUSH2 0x1FF JUMPI DUP1 PUSH1 0x3 NOT CALLDATASIZE ADD SLT PUSH2 0x1FF JUMPI PUSH2 0x845 PUSH2 0xF85 JUMP JUMPDEST DUP1 SLOAD PUSH1 0x1 PUSH1 0x1 PUSH1 0xA0 SHL SUB NOT DUP2 AND DUP3 SSTORE DUP2 SWAP1 PUSH1 0x1 PUSH1 0x1 PUSH1 0xA0 SHL SUB AND PUSH32 0x8BE0079C531659141344CD1FD0A4F28419497F9722A3DAAFE3B4186F6B6457E0 DUP3 DUP1 LOG3 DUP1 RETURN JUMPDEST SWAP2 SWAP1 POP CALLVALUE PUSH2 0x1AA JUMPI DUP1 PUSH1 0x3 NOT CALLDATASIZE ADD SLT PUSH2 0x1AA JUMPI PUSH2 0x8A1 PUSH2 0xE00 JUMP JUMPDEST SWAP1 PUSH1 0x24 CALLDATALOAD SWAP2 DUP3 ISZERO ISZERO DUP1 SWAP4 SUB PUSH2 0x91B JUMPI PUSH2 0x8B8 PUSH2 0xF85 JUMP JUMPDEST PUSH1 0x1 PUSH1 0x1 PUSH1 0xA0 SHL SUB AND SWAP3 DUP4 ISZERO PUSH2 0x90D JUMPI POP PUSH32 0x7BFED9E73CC01C459D482800942A9EEF9046D01F68C4881D389495DF294D10CA SWAP2 PUSH1 0x20 SWAP2 DUP5 DUP7 MSTORE PUSH1 0x5 DUP4 MSTORE DUP1 DUP7 KECCAK256 PUSH1 0xFF NOT DUP2 SLOAD AND PUSH1 0xFF DUP5 AND OR SWAP1 SSTORE MLOAD SWAP1 DUP2 MSTORE LOG2 DUP1 RETURN JUMPDEST SWAP1 MLOAD PUSH4 0xD92E233D PUSH1 0xE0 SHL DUP2 MSTORE REVERT JUMPDEST DUP5 DUP1 REVERT JUMPDEST SWAP2 SWAP1 POP PUSH2 0x92B CALLDATASIZE PUSH2 0xE1B JUMP JUMPDEST SWAP1 CALLER DUP6 MSTORE PUSH1 0x5 PUSH1 0x20 MSTORE PUSH1 0xFF DUP4 DUP7 KECCAK256 SLOAD AND ISZERO PUSH2 0xA72 JUMPI DUP2 ISZERO PUSH2 0xA63 JUMPI DUP2 CALLVALUE LT PUSH2 0xA54 JUMPI PUSH2 0x956 DUP2 PUSH2 0xF10 JUMP JUMPDEST DUP2 DUP7 MSTORE PUSH1 0x2 PUSH1 0x20 MSTORE DUP4 DUP7 KECCAK256 PUSH2 0x96C DUP5 DUP3 SLOAD PUSH2 0xEAB JUMP JUMPDEST SWAP1 SSTORE DUP2 DUP7 MSTORE PUSH1 0x3 PUSH1 0x20 MSTORE DUP4 DUP7 KECCAK256 PUSH2 0x984 DUP5 DUP3 SLOAD PUSH2 0xEAB JUMP JUMPDEST SWAP1 SSTORE PUSH2 0x98F DUP3 PUSH2 0xF10 JUMP JUMPDEST SWAP1 DUP6 DUP3 LT ISZERO PUSH2 0xA41 JUMPI DUP6 DUP2 LT ISZERO PUSH2 0xA41 JUMPI SWAP2 DUP2 DUP6 DUP5 DUP4 SWAP5 DUP11 SWAP8 SWAP7 SUB PUSH2 0xA18 JUMPI JUMPDEST POP SWAP2 POP POP MLOAD SWAP1 DUP3 DUP3 MSTORE PUSH32 0x5F1032143F36C5C08BE77B817C71E373F6C44D5676A3FD45191E18012F40124F PUSH1 0x20 CALLER SWAP4 LOG3 DUP1 CALLVALUE GT PUSH2 0x9E9 JUMPI POP DUP1 RETURN JUMPDEST DUP2 DUP1 PUSH2 0x9F6 DUP2 SWAP4 CALLVALUE PUSH2 0xE88 JUMP JUMPDEST CALLER GAS CALL PUSH2 0xA01 PUSH2 0xEB8 JUMP JUMPDEST POP ISZERO PUSH2 0xA0B JUMPI DUP3 DUP1 RETURN JUMPDEST MLOAD PUSH4 0x12171D83 PUSH1 0xE3 SHL DUP2 MSTORE REVERT JUMPDEST PUSH2 0xA37 PUSH1 0x0 DUP1 MLOAD PUSH1 0x20 PUSH2 0xFB2 DUP4 CODECOPY DUP2 MLOAD SWAP2 MSTORE SWAP4 PUSH2 0x4DF DUP5 MLOAD DUP1 SWAP5 PUSH2 0xDDD JUMP JUMPDEST LOG2 DUP1 CODESIZE DUP6 DUP2 PUSH2 0x9AF JUMP JUMPDEST PUSH4 0x4E487B71 PUSH1 0xE0 SHL DUP8 MSTORE PUSH1 0x21 DUP7 MSTORE PUSH1 0x24 DUP8 REVERT JUMPDEST POP POP MLOAD PUSH4 0x1E9ACF17 PUSH1 0xE3 SHL DUP2 MSTORE REVERT JUMPDEST POP POP MLOAD PUSH4 0x1F2A2005 PUSH1 0xE0 SHL DUP2 MSTORE REVERT JUMPDEST POP POP MLOAD PUSH4 0xAE754447 PUSH1 0xE0 SHL DUP2 MSTORE REVERT JUMPDEST SWAP1 POP CALLVALUE PUSH2 0x1AA JUMPI PUSH1 0x20 CALLDATASIZE PUSH1 0x3 NOT ADD SLT PUSH2 0x1AA JUMPI PUSH1 0x20 SWAP3 DUP3 SWAP2 CALLDATALOAD DUP2 MSTORE PUSH1 0x2 DUP5 MSTORE KECCAK256 SLOAD SWAP1 MLOAD SWAP1 DUP2 MSTORE RETURN JUMPDEST POP POP CALLVALUE PUSH2 0x11F JUMPI DUP2 PUSH1 0x3 NOT CALLDATASIZE ADD SLT PUSH2 0x11F JUMPI PUSH1 0x20 SWAP1 MLOAD PUSH8 0x16345785D8A0000 DUP2 MSTORE RETURN JUMPDEST POP POP CALLVALUE PUSH2 0x11F JUMPI DUP2 PUSH1 0x3 NOT CALLDATASIZE ADD SLT PUSH2 0x11F JUMPI DUP1 PUSH7 0x2386F26FC10000 PUSH1 0x60 SWAP3 MLOAD SWAP2 PUSH8 0xDE0B6B3A7640000 DUP4 MSTORE PUSH8 0x16345785D8A0000 PUSH1 0x20 DUP5 ADD MSTORE DUP3 ADD MSTORE RETURN JUMPDEST POP POP CALLVALUE PUSH2 0x11F JUMPI PUSH1 0x20 CALLDATASIZE PUSH1 0x3 NOT ADD SLT PUSH2 0x11F JUMPI PUSH1 0x20 SWAP2 PUSH1 0xFF SWAP1 DUP3 SWAP1 PUSH1 0x1 PUSH1 0x1 PUSH1 0xA0 SHL SUB PUSH2 0xB35 PUSH2 0xE00 JUMP JUMPDEST AND DUP2 MSTORE PUSH1 0x5 DUP6 MSTORE KECCAK256 SLOAD AND SWAP1 MLOAD SWAP1 ISZERO ISZERO DUP2 MSTORE RETURN JUMPDEST SWAP1 POP CALLVALUE PUSH2 0x1AA JUMPI PUSH1 0x20 CALLDATASIZE PUSH1 0x3 NOT ADD SLT PUSH2 0x1AA JUMPI PUSH1 0x20 SWAP3 DUP2 DUP4 SWAP3 CALLDATALOAD DUP3 MSTORE DUP5 MSTORE KECCAK256 SLOAD SWAP1 MLOAD SWAP1 DUP2 MSTORE RETURN JUMPDEST SWAP2 SWAP1 POP CALLVALUE PUSH2 0x1AA JUMPI PUSH1 0x60 CALLDATASIZE PUSH1 0x3 NOT ADD SLT PUSH2 0x1AA JUMPI PUSH1 0x24 CALLDATALOAD PUSH1 0x44 CALLDATALOAD PUSH1 0x1 PUSH1 0x1 PUSH1 0xA0 SHL SUB DUP1 DUP3 AND SWAP1 DUP6 CALLDATALOAD SWAP1 DUP3 DUP5 SUB PUSH2 0xD80 JUMPI PUSH2 0xBA7 PUSH2 0xF62 JUMP JUMPDEST DUP6 MLOAD PUSH4 0x31A9108F PUSH1 0xE1 SHL DUP2 MSTORE DUP8 DUP2 ADD DUP4 SWAP1 MSTORE PUSH1 0x20 SWAP2 DUP3 DUP3 PUSH1 0x24 DUP2 PUSH32 0x0 DUP6 AND GAS STATICCALL SWAP2 DUP3 ISZERO PUSH2 0xD76 JUMPI DUP11 SWAP3 PUSH2 0xD57 JUMPI JUMPDEST POP CALLER SWAP2 AND SUB PUSH2 0xD47 JUMPI DUP5 ISZERO PUSH2 0xD37 JUMPI DUP3 ISZERO PUSH2 0xD27 JUMPI DUP2 DUP9 MSTORE PUSH1 0x2 DUP2 MSTORE DUP5 DUP7 DUP10 KECCAK256 SLOAD LT PUSH2 0xD17 JUMPI PUSH2 0xC23 DUP3 PUSH2 0xF10 JUMP JUMPDEST DUP3 DUP10 MSTORE PUSH1 0x2 DUP3 MSTORE DUP7 DUP10 KECCAK256 PUSH2 0xC38 DUP8 DUP3 SLOAD PUSH2 0xE88 JUMP JUMPDEST SWAP1 SSTORE DUP3 DUP10 MSTORE DUP8 DUP3 MSTORE DUP7 DUP10 KECCAK256 PUSH2 0xC4E DUP8 DUP3 SLOAD PUSH2 0xEAB JUMP JUMPDEST SWAP1 SSTORE PUSH2 0xC59 DUP4 PUSH2 0xF10 JUMP JUMPDEST SWAP1 DUP9 DUP3 LT ISZERO PUSH2 0xD04 JUMPI DUP9 DUP2 LT ISZERO PUSH2 0xD04 JUMPI SWAP4 DUP4 PUSH32 0x1C84CC0F96161BDAFEA718A9094DD21C21D1FB2F9CA2EBB9BD4E39918EFBAACE DUP10 DUP13 SWAP10 SWAP6 DUP11 SWAP10 SWAP6 SWAP8 DUP9 DUP4 DUP12 DUP14 SWAP13 SWAP12 DUP14 SWAP13 SUB PUSH2 0xCD2 JUMPI JUMPDEST POP POP POP DUP9 MSTORE PUSH1 0x2 DUP2 MSTORE DUP2 DUP9 KECCAK256 SLOAD DUP3 MLOAD SWAP2 DUP9 DUP4 MSTORE DUP3 ADD MSTORE LOG3 GAS CALL PUSH2 0xCC4 PUSH2 0xEB8 JUMP JUMPDEST POP ISZERO PUSH2 0xA0B JUMPI DUP3 PUSH1 0x1 DUP1 SSTORE DUP1 RETURN JUMPDEST PUSH2 0xCFA PUSH1 0x0 DUP1 MLOAD PUSH1 0x20 PUSH2 0xFB2 DUP4 CODECOPY DUP2 MLOAD SWAP2 MSTORE SWAP4 PUSH2 0xCF1 DUP5 MLOAD DUP1 SWAP5 PUSH2 0xDDD JUMP JUMPDEST DUP7 DUP4 ADD SWAP1 PUSH2 0xDDD JUMP JUMPDEST LOG2 DUP4 CODESIZE DUP4 DUP2 PUSH2 0xCA3 JUMP JUMPDEST PUSH4 0x4E487B71 PUSH1 0xE0 SHL DUP11 MSTORE PUSH1 0x21 DUP10 MSTORE PUSH1 0x24 DUP11 REVERT JUMPDEST DUP6 MLOAD PUSH4 0x1E9ACF17 PUSH1 0xE3 SHL DUP2 MSTORE DUP8 SWAP1 REVERT JUMPDEST DUP6 MLOAD PUSH4 0xD92E233D PUSH1 0xE0 SHL DUP2 MSTORE DUP8 SWAP1 REVERT JUMPDEST DUP6 MLOAD PUSH4 0x1F2A2005 PUSH1 0xE0 SHL DUP2 MSTORE DUP8 SWAP1 REVERT JUMPDEST DUP6 MLOAD PUSH4 0xE41DCBF PUSH1 0xE2 SHL DUP2 MSTORE DUP8 SWAP1 REVERT JUMPDEST PUSH2 0xD6F SWAP2 SWAP3 POP DUP4 RETURNDATASIZE DUP6 GT PUSH2 0x7F3 JUMPI PUSH2 0x7E4 DUP2 DUP4 PUSH2 0xE31 JUMP JUMPDEST SWAP1 CODESIZE PUSH2 0xBF4 JUMP JUMPDEST DUP9 MLOAD RETURNDATASIZE DUP13 DUP3 RETURNDATACOPY RETURNDATASIZE SWAP1 REVERT JUMPDEST DUP8 DUP1 REVERT JUMPDEST SWAP2 SWAP1 POP CALLVALUE PUSH2 0x1AA JUMPI PUSH1 0x20 CALLDATASIZE PUSH1 0x3 NOT ADD SLT PUSH2 0x1AA JUMPI DUP2 PUSH2 0x1FD SWAP2 PUSH1 0x80 SWAP5 SWAP4 CALLDATALOAD SWAP1 DUP2 DUP6 MSTORE PUSH1 0x2 PUSH1 0x20 MSTORE PUSH2 0xDC9 DUP2 DUP1 DUP8 KECCAK256 SLOAD SWAP7 PUSH1 0x3 PUSH1 0x20 MSTORE DUP2 DUP2 KECCAK256 SLOAD SWAP6 PUSH1 0x20 MSTORE KECCAK256 SLOAD SWAP3 PUSH2 0xF10 JUMP JUMPDEST SWAP3 DUP2 MLOAD SWAP6 DUP7 MSTORE PUSH1 0x20 DUP7 ADD MSTORE DUP5 ADD MSTORE PUSH1 0x60 DUP4 ADD SWAP1 JUMPDEST SWAP1 PUSH1 0x4 DUP3 LT ISZERO PUSH2 0xDEA JUMPI MSTORE JUMP JUMPDEST PUSH4 0x4E487B71 PUSH1 0xE0 SHL PUSH1 0x0 MSTORE PUSH1 0x21 PUSH1 0x4 MSTORE PUSH1 0x24 PUSH1 0x0 REVERT JUMPDEST PUSH1 0x4 CALLDATALOAD SWAP1 PUSH1 0x1 PUSH1 0x1 PUSH1 0xA0 SHL SUB DUP3 AND DUP3 SUB PUSH2 0xE16 JUMPI JUMP JUMPDEST PUSH1 0x0 DUP1 REVERT JUMPDEST PUSH1 0x40 SWAP1 PUSH1 0x3 NOT ADD SLT PUSH2 0xE16 JUMPI PUSH1 0x4 CALLDATALOAD SWAP1 PUSH1 0x24 CALLDATALOAD SWAP1 JUMP JUMPDEST SWAP1 PUSH1 0x1F DUP1 NOT SWAP2 ADD AND DUP2 ADD SWAP1 DUP2 LT PUSH8 0xFFFFFFFFFFFFFFFF DUP3 GT OR PUSH2 0xE53 JUMPI PUSH1 0x40 MSTORE JUMP JUMPDEST PUSH4 0x4E487B71 PUSH1 0xE0 SHL PUSH1 0x0 MSTORE PUSH1 0x41 PUSH1 0x4 MSTORE PUSH1 0x24 PUSH1 0x0 REVERT JUMPDEST SWAP1 DUP2 PUSH1 0x20 SWAP2 SUB SLT PUSH2 0xE16 JUMPI MLOAD PUSH1 0x1 PUSH1 0x1 PUSH1 0xA0 SHL SUB DUP2 AND DUP2 SUB PUSH2 0xE16 JUMPI SWAP1 JUMP JUMPDEST SWAP2 SWAP1 DUP3 SUB SWAP2 DUP3 GT PUSH2 0xE95 JUMPI JUMP JUMPDEST PUSH4 0x4E487B71 PUSH1 0xE0 SHL PUSH1 0x0 MSTORE PUSH1 0x11 PUSH1 0x4 MSTORE PUSH1 0x24 PUSH1 0x0 REVERT JUMPDEST SWAP2 SWAP1 DUP3 ADD DUP1 SWAP3 GT PUSH2 0xE95 JUMPI JUMP JUMPDEST RETURNDATASIZE ISZERO PUSH2 0xEF3 JUMPI RETURNDATASIZE SWAP1 PUSH8 0xFFFFFFFFFFFFFFFF DUP3 GT PUSH2 0xE53 JUMPI PUSH1 0x40 MLOAD SWAP2 PUSH2 0xEE7 PUSH1 0x1F DUP3 ADD PUSH1 0x1F NOT AND PUSH1 0x20 ADD DUP5 PUSH2 0xE31 JUMP JUMPDEST DUP3 MSTORE RETURNDATASIZE PUSH1 0x0 PUSH1 0x20 DUP5 ADD RETURNDATACOPY JUMP JUMPDEST PUSH1 0x60 SWAP1 JUMP JUMPDEST SWAP1 DUP2 PUSH1 0x20 SWAP2 SUB SLT PUSH2 0xE16 JUMPI MLOAD DUP1 ISZERO ISZERO DUP2 SUB PUSH2 0xE16 JUMPI SWAP1 JUMP JUMPDEST PUSH1 0x0 MSTORE PUSH1 0x2 PUSH1 0x20 MSTORE PUSH1 0x40 PUSH1 0x0 KECCAK256 SLOAD PUSH8 0xDE0B6B3A7640000 DUP2 LT ISZERO PUSH2 0xF5C JUMPI PUSH8 0x16345785D8A0000 DUP2 LT ISZERO PUSH2 0xF56 JUMPI PUSH7 0x2386F26FC10000 GT ISZERO PUSH2 0xF51 JUMPI PUSH1 0x0 SWAP1 JUMP JUMPDEST PUSH1 0x1 SWAP1 JUMP JUMPDEST POP PUSH1 0x2 SWAP1 JUMP JUMPDEST POP PUSH1 0x3 SWAP1 JUMP JUMPDEST PUSH1 0x2 PUSH1 0x1 SLOAD EQ PUSH2 0xF73 JUMPI PUSH1 0x2 PUSH1 0x1 SSTORE JUMP JUMPDEST PUSH1 0x40 MLOAD PUSH4 0x3EE5AEB5 PUSH1 0xE0 SHL DUP2 MSTORE PUSH1 0x4 SWAP1 REVERT JUMPDEST PUSH1 0x0 SLOAD PUSH1 0x1 PUSH1 0x1 PUSH1 0xA0 SHL SUB AND CALLER SUB PUSH2 0xF99 JUMPI JUMP JUMPDEST PUSH1 0x40 MLOAD PUSH4 0x118CDAA7 PUSH1 0xE0 SHL DUP2 MSTORE CALLER PUSH1 0x4 DUP3 ADD MSTORE PUSH1 0x24 SWAP1 REVERT INVALID 0xE4 PUSH2 0x7657 0xD9 0x25 0x4E CALLVALUE INVALID LOG3 PUSH16 0xD76EF71AEA57FF771484A00D5A0874FC 0xDB PUSH23 0x41B489A2646970667358221220E22C49B120BF5291D989 0xC4 0xB3 CALLDATASIZE JUMPI SWAP5 0x2E DELEGATECALL ISZERO 0xB9 0x29 0xCC CHAINID SWAP9 BALANCE KECCAK256 0xCD SWAP7 0xAF CREATE PUSH18 0x6D2D64736F6C634300081800330000000000 "},"methodIdentifiers":{"TIER_CRITICAL_THRESHOLD()":"fb36f54b","TIER_LOW_THRESHOLD()":"45d0bde2","TIER_NORMAL_THRESHOLD()":"ef2bdfd7","agentToken()":"b05707e9","authorizedModules(address)":"17f6fe5b","balances(uint256)":"4903b0d1","creditAgent(uint256,uint256)":"5488ba93","debitAgent(uint256,uint256)":"a6f79861","deposit(uint256)":"b6b55f25","getTierThresholds()":"44878150","getWalletStats(uint256)":"0a62fbae","owner()":"8da5cb5b","renounceOwnership()":"715018a6","setModuleAuthorized(address,bool)":"6431d690","survivalTier(uint256)":"d74d730e","totalEarned(uint256)":"a9fc0f73","totalSpent(uint256)":"0ca32959","transfer(uint256,uint256,uint256)":"90dd2627","transferOwnership(address)":"f2fde38b","withdraw(uint256,uint256,address)":"0ad58d2f"}}}}}