{"contracts/launchpad/HoneycombTokenFactory.sol":{"HoneycombTokenFactory":{"abi":[{"inputs":[{"internalType":"address","name":"_agentRegistry","type":"address"}],"stateMutability":"nonpayable","type":"constructor"},{"inputs":[],"name":"AgentNotFound","type":"error"},{"inputs":[],"name":"InvalidCID","type":"error"},{"inputs":[],"name":"InvalidName","type":"error"},{"inputs":[],"name":"InvalidSymbol","type":"error"},{"inputs":[],"name":"MarketNotSet","type":"error"},{"inputs":[],"name":"NotAgentOwner","type":"error"},{"inputs":[{"internalType":"address","name":"owner","type":"address"}],"name":"OwnableInvalidOwner","type":"error"},{"inputs":[{"internalType":"address","name":"account","type":"address"}],"name":"OwnableUnauthorizedAccount","type":"error"},{"anonymous":false,"inputs":[{"indexed":true,"internalType":"address","name":"previousOwner","type":"address"},{"indexed":true,"internalType":"address","name":"newOwner","type":"address"}],"name":"OwnershipTransferred","type":"event"},{"anonymous":false,"inputs":[{"indexed":true,"internalType":"address","name":"token","type":"address"},{"indexed":true,"internalType":"address","name":"creator","type":"address"},{"indexed":true,"internalType":"uint256","name":"creatorBeeId","type":"uint256"},{"indexed":false,"internalType":"string","name":"name","type":"string"},{"indexed":false,"internalType":"string","name":"symbol","type":"string"},{"indexed":false,"internalType":"string","name":"metadataCID","type":"string"},{"indexed":false,"internalType":"uint256","name":"timestamp","type":"uint256"}],"name":"TokenCreated","type":"event"},{"inputs":[],"name":"agentRegistry","outputs":[{"internalType":"contract IAgentRegistry","name":"","type":"address"}],"stateMutability":"view","type":"function"},{"inputs":[{"internalType":"uint256","name":"","type":"uint256"}],"name":"allTokens","outputs":[{"internalType":"address","name":"","type":"address"}],"stateMutability":"view","type":"function"},{"inputs":[{"internalType":"string","name":"name","type":"string"},{"internalType":"string","name":"symbol","type":"string"},{"internalType":"string","name":"metadataCID","type":"string"},{"internalType":"uint256","name":"creatorBeeId","type":"uint256"}],"name":"createToken","outputs":[{"internalType":"address","name":"tokenAddress","type":"address"}],"stateMutability":"nonpayable","type":"function"},{"inputs":[{"internalType":"address","name":"","type":"address"}],"name":"isHoneycombToken","outputs":[{"internalType":"bool","name":"","type":"bool"}],"stateMutability":"view","type":"function"},{"inputs":[],"name":"market","outputs":[{"internalType":"address","name":"","type":"address"}],"stateMutability":"view","type":"function"},{"inputs":[],"name":"owner","outputs":[{"internalType":"address","name":"","type":"address"}],"stateMutability":"view","type":"function"},{"inputs":[],"name":"renounceOwnership","outputs":[],"stateMutability":"nonpayable","type":"function"},{"inputs":[{"internalType":"address","name":"_agentRegistry","type":"address"}],"name":"setAgentRegistry","outputs":[],"stateMutability":"nonpayable","type":"function"},{"inputs":[{"internalType":"address","name":"_market","type":"address"}],"name":"setMarket","outputs":[],"stateMutability":"nonpayable","type":"function"},{"inputs":[{"internalType":"uint256","name":"index","type":"uint256"}],"name":"tokenAt","outputs":[{"internalType":"address","name":"","type":"address"}],"stateMutability":"view","type":"function"},{"inputs":[{"internalType":"address","name":"","type":"address"}],"name":"tokenMetadata","outputs":[{"internalType":"string","name":"","type":"string"}],"stateMutability":"view","type":"function"},{"inputs":[],"name":"totalTokens","outputs":[{"internalType":"uint256","name":"","type":"uint256"}],"stateMutability":"view","type":"function"},{"inputs":[{"internalType":"address","name":"newOwner","type":"address"}],"name":"transferOwnership","outputs":[],"stateMutability":"nonpayable","type":"function"}],"evm":{"bytecode":{"linkReferences":{},"object":"608060405234801561001057600080fd5b50604051611ad3380380611ad383398101604081905261002f916100d4565b338061005557604051631e4fbdf760e01b81526000600482015260240160405180910390fd5b61005e81610084565b50600180546001600160a01b0319166001600160a01b0392909216919091179055610104565b600080546001600160a01b038381166001600160a01b0319831681178455604051919092169283917f8be0079c531659141344cd1fd0a4f28419497f9722a3daafe3b4186f6b6457e09190a35050565b6000602082840312156100e657600080fd5b81516001600160a01b03811681146100fd57600080fd5b9392505050565b6119c0806101136000396000f3fe60806040523480156200001157600080fd5b5060043610620000e05760003560e01c8063715018a611620000975780638da5cb5b116200006e5780638da5cb5b14620001ea57806392a91a3a14620001fc578063efbe8fd11462000213578063f2fde38b146200022a57600080fd5b8063715018a614620001ba5780637e1c0c0914620001c457806380f5560514620001d657600080fd5b806301c0049514620000e55780630d1cfcae146200012057806328342ecf146200014d578063634282af14620001665780636dcea85f146200017d5780636fecdf241462000194575b600080fd5b6200010b620000f6366004620007e6565b60036020526000908152604090205460ff1681565b60405190151581526020015b60405180910390f35b60015462000134906001600160a01b031681565b6040516001600160a01b03909116815260200162000117565b620001646200015e366004620007e6565b62000241565b005b620001346200017736600462000818565b6200026d565b620001646200018e366004620007e6565b62000298565b620001ab620001a5366004620007e6565b620002c4565b60405162000117919062000832565b6200016462000366565b60055460405190815260200162000117565b60025462000134906001600160a01b031681565b6000546001600160a01b031662000134565b620001346200020d36600462000818565b6200037e565b6200013462000224366004620008cf565b620003b1565b620001646200023b366004620007e6565b62000711565b6200024b62000759565b600180546001600160a01b0319166001600160a01b0392909216919091179055565b600581815481106200027e57600080fd5b6000918252602090912001546001600160a01b0316905081565b620002a262000759565b600280546001600160a01b0319166001600160a01b0392909216919091179055565b60046020526000908152604090208054620002df906200097c565b80601f01602080910402602001604051908101604052809291908181526020018280546200030d906200097c565b80156200035e5780601f1062000332576101008083540402835291602001916200035e565b820191906000526020600020905b8154815290600101906020018083116200034057829003601f168201915b505050505081565b6200037062000759565b6200037c600062000788565b565b600060058281548110620003965762000396620009b8565b6000918252602090912001546001600160a01b031692915050565b6002546000906001600160a01b0316620003de57604051634aec5ac760e01b815260040160405180910390fd5b861580620003ec5750604087115b156200040b5760405163430f13b360e01b815260040160405180910390fd5b841580620004195750601085115b15620004385760405163010466f160e21b815260040160405180910390fd5b60008390036200045b57604051633875d9bd60e21b815260040160405180910390fd5b8115620005845760015460405163de99f15760e01b8152600481018490526001600160a01b039091169063de99f15790602401602060405180830381865afa158015620004ac573d6000803e3d6000fd5b505050506040513d601f19601f82011682018060405250810190620004d29190620009ce565b620004f05760405163e93ba22360e01b815260040160405180910390fd5b600154604051634744f2c960e01b8152336004820152602481018490526001600160a01b0390911690634744f2c990604401602060405180830381865afa15801562000540573d6000803e3d6000fd5b505050506040513d601f19601f82011682018060405250810190620005669190620009ce565b6200058457604051630e41dcbf60e21b815260040160405180910390fd5b6000888888888888886040516200059b90620007d8565b620005ad979695949392919062000a1b565b604051809103906000f080158015620005ca573d6000803e3d6000fd5b50600254604051636dcea85f60e01b81526001600160a01b039182166004820152919350839250821690636dcea85f90602401600060405180830381600087803b1580156200061857600080fd5b505af11580156200062d573d6000803e3d6000fd5b5050506001600160a01b0383166000908152600360209081526040808320805460ff191660011790556004909152902090506200066c85878362000add565b50600580546001810182556000919091527f036b6384b5eca791c62761152d0c79bb0604c104a5fb6f4eb0703f3154bb3db00180546001600160a01b0319166001600160a01b038416908117909155604051849133917ff52ab29786f736471eb1c308fa21cfa846f034756f4941eb19fe52f7bfa59fb790620006fd908e908e908e908e908e908e90429062000a1b565b60405180910390a450979650505050505050565b6200071b62000759565b6001600160a01b0381166200074b57604051631e4fbdf760e01b8152600060048201526024015b60405180910390fd5b620007568162000788565b50565b6000546001600160a01b031633146200037c5760405163118cdaa760e01b815233600482015260240162000742565b600080546001600160a01b038381166001600160a01b0319831681178455604051919092169283917f8be0079c531659141344cd1fd0a4f28419497f9722a3daafe3b4186f6b6457e09190a35050565b610ddf8062000bac83390190565b600060208284031215620007f957600080fd5b81356001600160a01b03811681146200081157600080fd5b9392505050565b6000602082840312156200082b57600080fd5b5035919050565b60006020808352835180602085015260005b81811015620008625785810183015185820160400152820162000844565b506000604082860101526040601f19601f8301168501019250505092915050565b60008083601f8401126200089657600080fd5b50813567ffffffffffffffff811115620008af57600080fd5b602083019150836020828501011115620008c857600080fd5b9250929050565b60008060008060008060006080888a031215620008eb57600080fd5b873567ffffffffffffffff808211156200090457600080fd5b620009128b838c0162000883565b909950975060208a01359150808211156200092c57600080fd5b6200093a8b838c0162000883565b909750955060408a01359150808211156200095457600080fd5b50620009638a828b0162000883565b989b979a50959894979596606090950135949350505050565b600181811c908216806200099157607f821691505b602082108103620009b257634e487b7160e01b600052602260045260246000fd5b50919050565b634e487b7160e01b600052603260045260246000fd5b600060208284031215620009e157600080fd5b815180151581146200081157600080fd5b81835281816020850137506000828201602090810191909152601f909101601f19169091010190565b60808152600062000a3160808301898b620009f2565b828103602084015262000a4681888a620009f2565b9050828103604084015262000a5d818688620009f2565b91505082606083015298975050505050505050565b634e487b7160e01b600052604160045260246000fd5b601f82111562000ad8576000816000526020600020601f850160051c8101602086101562000ab35750805b601f850160051c820191505b8181101562000ad45782815560010162000abf565b5050505b505050565b67ffffffffffffffff83111562000af85762000af862000a72565b62000b108362000b0983546200097c565b8362000a88565b6000601f84116001811462000b47576000851562000b2e5750838201355b600019600387901b1c1916600186901b17835562000ba4565b600083815260209020601f19861690835b8281101562000b7a578685013582556020948501946001909201910162000b58565b508682101562000b985760001960f88860031b161c19848701351681555b505060018560011b0183555b505050505056fe60a06040523480156200001157600080fd5b5060405162000ddf38038062000ddf83398101604081905262000034916200013e565b8383600362000044838262000268565b50600462000053828262000268565b50503360805250600662000068838262000268565b506007555062000334915050565b634e487b7160e01b600052604160045260246000fd5b600082601f8301126200009e57600080fd5b81516001600160401b0380821115620000bb57620000bb62000076565b604051601f8301601f19908116603f01168101908282118183101715620000e657620000e662000076565b81604052838152602092508660208588010111156200010457600080fd5b600091505b8382101562000128578582018301518183018401529082019062000109565b6000602085830101528094505050505092915050565b600080600080608085870312156200015557600080fd5b84516001600160401b03808211156200016d57600080fd5b6200017b888389016200008c565b955060208701519150808211156200019257600080fd5b620001a0888389016200008c565b94506040870151915080821115620001b757600080fd5b50620001c6878288016200008c565b606096909601519497939650505050565b600181811c90821680620001ec57607f821691505b6020821081036200020d57634e487b7160e01b600052602260045260246000fd5b50919050565b601f82111562000263576000816000526020600020601f850160051c810160208610156200023e5750805b601f850160051c820191505b818110156200025f578281556001016200024a565b5050505b505050565b81516001600160401b0381111562000284576200028462000076565b6200029c81620002958454620001d7565b8462000213565b602080601f831160018114620002d45760008415620002bb5750858301515b600019600386901b1c1916600185901b1785556200025f565b600085815260208120601f198616915b828110156200030557888601518255948401946001909101908401620002e4565b5085821015620003245787850151600019600388901b60f8161c191681555b5050505050600190811b01905550565b608051610a88620003576000396000818161024f01526104950152610a886000f3fe608060405234801561001057600080fd5b506004361061010b5760003560e01c80636dcea85f116100a25780639dc29fac116100715780639dc29fac14610224578063a9059cbb14610237578063c45a01551461024a578063dd62ed3e14610271578063e03d9141146102aa57600080fd5b80636dcea85f146101b557806370a08231146101c857806380f55605146101f157806395d89b411461021c57600080fd5b8063313ce567116100de578063313ce5671461017657806332cb6b0c1461018557806340c10f191461019857806358871c46146101ad57600080fd5b806306fdde0314610110578063095ea7b31461012e57806318160ddd1461015157806323b872dd14610163575b600080fd5b6101186102b3565b60405161012591906108d1565b60405180910390f35b61014161013c36600461093c565b610345565b6040519015158152602001610125565b6002545b604051908152602001610125565b610141610171366004610966565b61035f565b60405160128152602001610125565b6101556b033b2e3c9fd0803ce800000081565b6101ab6101a636600461093c565b610383565b005b6101186103fc565b6101ab6101c33660046109a2565b61048a565b6101556101d63660046109a2565b6001600160a01b031660009081526020819052604090205490565b600554610204906001600160a01b031681565b6040516001600160a01b039091168152602001610125565b61011861051f565b6101ab61023236600461093c565b61052e565b61014161024536600461093c565b610563565b6102047f000000000000000000000000000000000000000000000000000000000000000081565b61015561027f3660046109c4565b6001600160a01b03918216600090815260016020908152604080832093909416825291909152205490565b61015560075481565b6060600380546102c2906109f7565b80601f01602080910402602001604051908101604052809291908181526020018280546102ee906109f7565b801561033b5780601f106103105761010080835404028352916020019161033b565b820191906000526020600020905b81548152906001019060200180831161031e57829003601f168201915b5050505050905090565b600033610353818585610571565b60019150505b92915050565b60003361036d858285610583565b610378858585610607565b506001949350505050565b6005546001600160a01b031633146103ae5760405163c4bbea6960e01b815260040160405180910390fd5b6b033b2e3c9fd0803ce8000000816103c560025490565b6103cf9190610a31565b11156103ee57604051638a164f6360e01b815260040160405180910390fd5b6103f88282610666565b5050565b60068054610409906109f7565b80601f0160208091040260200160405190810160405280929190818152602001828054610435906109f7565b80156104825780601f1061045757610100808354040283529160200191610482565b820191906000526020600020905b81548152906001019060200180831161046557829003601f168201915b505050505081565b336001600160a01b037f000000000000000000000000000000000000000000000000000000000000000016146104d357604051631966391b60e11b815260040160405180910390fd5b6005546001600160a01b0316156104fd576040516306ddda6b60e01b815260040160405180910390fd5b600580546001600160a01b0319166001600160a01b0392909216919091179055565b6060600480546102c2906109f7565b6005546001600160a01b031633146105595760405163c4bbea6960e01b815260040160405180910390fd5b6103f8828261069c565b600033610353818585610607565b61057e83838360016106d2565b505050565b6001600160a01b0383811660009081526001602090815260408083209386168352929052205460001981101561060157818110156105f257604051637dc7a0d960e11b81526001600160a01b038416600482015260248101829052604481018390526064015b60405180910390fd5b610601848484840360006106d2565b50505050565b6001600160a01b03831661063157604051634b637e8f60e11b8152600060048201526024016105e9565b6001600160a01b03821661065b5760405163ec442f0560e01b8152600060048201526024016105e9565b61057e8383836107a7565b6001600160a01b0382166106905760405163ec442f0560e01b8152600060048201526024016105e9565b6103f8600083836107a7565b6001600160a01b0382166106c657604051634b637e8f60e11b8152600060048201526024016105e9565b6103f8826000836107a7565b6001600160a01b0384166106fc5760405163e602df0560e01b8152600060048201526024016105e9565b6001600160a01b03831661072657604051634a1406b160e11b8152600060048201526024016105e9565b6001600160a01b038085166000908152600160209081526040808320938716835292905220829055801561060157826001600160a01b0316846001600160a01b03167f8c5be1e5ebec7d5bd14f71427d1e84f3dd0314c0f7b2291e5b200ac8c7c3b9258460405161079991815260200190565b60405180910390a350505050565b6001600160a01b0383166107d25780600260008282546107c79190610a31565b909155506108449050565b6001600160a01b038316600090815260208190526040902054818110156108255760405163391434e360e21b81526001600160a01b038516600482015260248101829052604481018390526064016105e9565b6001600160a01b03841660009081526020819052604090209082900390555b6001600160a01b0382166108605760028054829003905561087f565b6001600160a01b03821660009081526020819052604090208054820190555b816001600160a01b0316836001600160a01b03167fddf252ad1be2c89b69c2b068fc378daa952ba7f163c4a11628f55a4df523b3ef836040516108c491815260200190565b60405180910390a3505050565b60006020808352835180602085015260005b818110156108ff578581018301518582016040015282016108e3565b506000604082860101526040601f19601f8301168501019250505092915050565b80356001600160a01b038116811461093757600080fd5b919050565b6000806040838503121561094f57600080fd5b61095883610920565b946020939093013593505050565b60008060006060848603121561097b57600080fd5b61098484610920565b925061099260208501610920565b9150604084013590509250925092565b6000602082840312156109b457600080fd5b6109bd82610920565b9392505050565b600080604083850312156109d757600080fd5b6109e083610920565b91506109ee60208401610920565b90509250929050565b600181811c90821680610a0b57607f821691505b602082108103610a2b57634e487b7160e01b600052602260045260246000fd5b50919050565b8082018082111561035957634e487b7160e01b600052601160045260246000fdfea264697066735822122007d70f9f75c018eb71548bd697e7713671d8ea457c8ac089f1ce87afcd80908e64736f6c63430008180033a2646970667358221220b07daff96cc1cc1eab0bb1a20eaab35b7add12eef784f835e19d106cdf733a6564736f6c63430008180033","opcodes":"PUSH1 0x80 PUSH1 0x40 MSTORE CALLVALUE DUP1 ISZERO PUSH2 0x10 JUMPI PUSH1 0x0 DUP1 REVERT JUMPDEST POP PUSH1 0x40 MLOAD PUSH2 0x1AD3 CODESIZE SUB DUP1 PUSH2 0x1AD3 DUP4 CODECOPY DUP2 ADD PUSH1 0x40 DUP2 SWAP1 MSTORE PUSH2 0x2F SWAP2 PUSH2 0xD4 JUMP JUMPDEST CALLER DUP1 PUSH2 0x55 JUMPI PUSH1 0x40 MLOAD PUSH4 0x1E4FBDF7 PUSH1 0xE0 SHL DUP2 MSTORE PUSH1 0x0 PUSH1 0x4 DUP3 ADD MSTORE PUSH1 0x24 ADD PUSH1 0x40 MLOAD DUP1 SWAP2 SUB SWAP1 REVERT JUMPDEST PUSH2 0x5E DUP2 PUSH2 0x84 JUMP JUMPDEST POP PUSH1 0x1 DUP1 SLOAD PUSH1 0x1 PUSH1 0x1 PUSH1 0xA0 SHL SUB NOT AND PUSH1 0x1 PUSH1 0x1 PUSH1 0xA0 SHL SUB SWAP3 SWAP1 SWAP3 AND SWAP2 SWAP1 SWAP2 OR SWAP1 SSTORE PUSH2 0x104 JUMP JUMPDEST PUSH1 0x0 DUP1 SLOAD PUSH1 0x1 PUSH1 0x1 PUSH1 0xA0 SHL SUB DUP4 DUP2 AND PUSH1 0x1 PUSH1 0x1 PUSH1 0xA0 SHL SUB NOT DUP4 AND DUP2 OR DUP5 SSTORE PUSH1 0x40 MLOAD SWAP2 SWAP1 SWAP3 AND SWAP3 DUP4 SWAP2 PUSH32 0x8BE0079C531659141344CD1FD0A4F28419497F9722A3DAAFE3B4186F6B6457E0 SWAP2 SWAP1 LOG3 POP POP JUMP JUMPDEST PUSH1 0x0 PUSH1 0x20 DUP3 DUP5 SUB SLT ISZERO PUSH2 0xE6 JUMPI PUSH1 0x0 DUP1 REVERT JUMPDEST DUP2 MLOAD PUSH1 0x1 PUSH1 0x1 PUSH1 0xA0 SHL SUB DUP2 AND DUP2 EQ PUSH2 0xFD JUMPI PUSH1 0x0 DUP1 REVERT JUMPDEST SWAP4 SWAP3 POP POP POP JUMP JUMPDEST PUSH2 0x19C0 DUP1 PUSH2 0x113 PUSH1 0x0 CODECOPY PUSH1 0x0 RETURN INVALID PUSH1 0x80 PUSH1 0x40 MSTORE CALLVALUE DUP1 ISZERO PUSH3 0x11 JUMPI PUSH1 0x0 DUP1 REVERT JUMPDEST POP PUSH1 0x4 CALLDATASIZE LT PUSH3 0xE0 JUMPI PUSH1 0x0 CALLDATALOAD PUSH1 0xE0 SHR DUP1 PUSH4 0x715018A6 GT PUSH3 0x97 JUMPI DUP1 PUSH4 0x8DA5CB5B GT PUSH3 0x6E JUMPI DUP1 PUSH4 0x8DA5CB5B EQ PUSH3 0x1EA JUMPI DUP1 PUSH4 0x92A91A3A EQ PUSH3 0x1FC JUMPI DUP1 PUSH4 0xEFBE8FD1 EQ PUSH3 0x213 JUMPI DUP1 PUSH4 0xF2FDE38B EQ PUSH3 0x22A JUMPI PUSH1 0x0 DUP1 REVERT JUMPDEST DUP1 PUSH4 0x715018A6 EQ PUSH3 0x1BA JUMPI DUP1 PUSH4 0x7E1C0C09 EQ PUSH3 0x1C4 JUMPI DUP1 PUSH4 0x80F55605 EQ PUSH3 0x1D6 JUMPI PUSH1 0x0 DUP1 REVERT JUMPDEST DUP1 PUSH4 0x1C00495 EQ PUSH3 0xE5 JUMPI DUP1 PUSH4 0xD1CFCAE EQ PUSH3 0x120 JUMPI DUP1 PUSH4 0x28342ECF EQ PUSH3 0x14D JUMPI DUP1 PUSH4 0x634282AF EQ PUSH3 0x166 JUMPI DUP1 PUSH4 0x6DCEA85F EQ PUSH3 0x17D JUMPI DUP1 PUSH4 0x6FECDF24 EQ PUSH3 0x194 JUMPI JUMPDEST PUSH1 0x0 DUP1 REVERT JUMPDEST PUSH3 0x10B PUSH3 0xF6 CALLDATASIZE PUSH1 0x4 PUSH3 0x7E6 JUMP JUMPDEST PUSH1 0x3 PUSH1 0x20 MSTORE PUSH1 0x0 SWAP1 DUP2 MSTORE PUSH1 0x40 SWAP1 KECCAK256 SLOAD PUSH1 0xFF AND DUP2 JUMP JUMPDEST PUSH1 0x40 MLOAD SWAP1 ISZERO ISZERO DUP2 MSTORE PUSH1 0x20 ADD JUMPDEST PUSH1 0x40 MLOAD DUP1 SWAP2 SUB SWAP1 RETURN JUMPDEST PUSH1 0x1 SLOAD PUSH3 0x134 SWAP1 PUSH1 0x1 PUSH1 0x1 PUSH1 0xA0 SHL SUB AND DUP2 JUMP JUMPDEST PUSH1 0x40 MLOAD PUSH1 0x1 PUSH1 0x1 PUSH1 0xA0 SHL SUB SWAP1 SWAP2 AND DUP2 MSTORE PUSH1 0x20 ADD PUSH3 0x117 JUMP JUMPDEST PUSH3 0x164 PUSH3 0x15E CALLDATASIZE PUSH1 0x4 PUSH3 0x7E6 JUMP JUMPDEST PUSH3 0x241 JUMP JUMPDEST STOP JUMPDEST PUSH3 0x134 PUSH3 0x177 CALLDATASIZE PUSH1 0x4 PUSH3 0x818 JUMP JUMPDEST PUSH3 0x26D JUMP JUMPDEST PUSH3 0x164 PUSH3 0x18E CALLDATASIZE PUSH1 0x4 PUSH3 0x7E6 JUMP JUMPDEST PUSH3 0x298 JUMP JUMPDEST PUSH3 0x1AB PUSH3 0x1A5 CALLDATASIZE PUSH1 0x4 PUSH3 0x7E6 JUMP JUMPDEST PUSH3 0x2C4 JUMP JUMPDEST PUSH1 0x40 MLOAD PUSH3 0x117 SWAP2 SWAP1 PUSH3 0x832 JUMP JUMPDEST PUSH3 0x164 PUSH3 0x366 JUMP JUMPDEST PUSH1 0x5 SLOAD PUSH1 0x40 MLOAD SWAP1 DUP2 MSTORE PUSH1 0x20 ADD PUSH3 0x117 JUMP JUMPDEST PUSH1 0x2 SLOAD PUSH3 0x134 SWAP1 PUSH1 0x1 PUSH1 0x1 PUSH1 0xA0 SHL SUB AND DUP2 JUMP JUMPDEST PUSH1 0x0 SLOAD PUSH1 0x1 PUSH1 0x1 PUSH1 0xA0 SHL SUB AND PUSH3 0x134 JUMP JUMPDEST PUSH3 0x134 PUSH3 0x20D CALLDATASIZE PUSH1 0x4 PUSH3 0x818 JUMP JUMPDEST PUSH3 0x37E JUMP JUMPDEST PUSH3 0x134 PUSH3 0x224 CALLDATASIZE PUSH1 0x4 PUSH3 0x8CF JUMP JUMPDEST PUSH3 0x3B1 JUMP JUMPDEST PUSH3 0x164 PUSH3 0x23B CALLDATASIZE PUSH1 0x4 PUSH3 0x7E6 JUMP JUMPDEST PUSH3 0x711 JUMP JUMPDEST PUSH3 0x24B PUSH3 0x759 JUMP JUMPDEST PUSH1 0x1 DUP1 SLOAD PUSH1 0x1 PUSH1 0x1 PUSH1 0xA0 SHL SUB NOT AND PUSH1 0x1 PUSH1 0x1 PUSH1 0xA0 SHL SUB SWAP3 SWAP1 SWAP3 AND SWAP2 SWAP1 SWAP2 OR SWAP1 SSTORE JUMP JUMPDEST PUSH1 0x5 DUP2 DUP2 SLOAD DUP2 LT PUSH3 0x27E JUMPI PUSH1 0x0 DUP1 REVERT JUMPDEST PUSH1 0x0 SWAP2 DUP3 MSTORE PUSH1 0x20 SWAP1 SWAP2 KECCAK256 ADD SLOAD PUSH1 0x1 PUSH1 0x1 PUSH1 0xA0 SHL SUB AND SWAP1 POP DUP2 JUMP JUMPDEST PUSH3 0x2A2 PUSH3 0x759 JUMP JUMPDEST PUSH1 0x2 DUP1 SLOAD PUSH1 0x1 PUSH1 0x1 PUSH1 0xA0 SHL SUB NOT AND PUSH1 0x1 PUSH1 0x1 PUSH1 0xA0 SHL SUB SWAP3 SWAP1 SWAP3 AND SWAP2 SWAP1 SWAP2 OR SWAP1 SSTORE JUMP JUMPDEST PUSH1 0x4 PUSH1 0x20 MSTORE PUSH1 0x0 SWAP1 DUP2 MSTORE PUSH1 0x40 SWAP1 KECCAK256 DUP1 SLOAD PUSH3 0x2DF SWAP1 PUSH3 0x97C JUMP JUMPDEST DUP1 PUSH1 0x1F ADD PUSH1 0x20 DUP1 SWAP2 DIV MUL PUSH1 0x20 ADD PUSH1 0x40 MLOAD SWAP1 DUP2 ADD PUSH1 0x40 MSTORE DUP1 SWAP3 SWAP2 SWAP1 DUP2 DUP2 MSTORE PUSH1 0x20 ADD DUP3 DUP1 SLOAD PUSH3 0x30D SWAP1 PUSH3 0x97C JUMP JUMPDEST DUP1 ISZERO PUSH3 0x35E JUMPI DUP1 PUSH1 0x1F LT PUSH3 0x332 JUMPI PUSH2 0x100 DUP1 DUP4 SLOAD DIV MUL DUP4 MSTORE SWAP2 PUSH1 0x20 ADD SWAP2 PUSH3 0x35E JUMP JUMPDEST DUP3 ADD SWAP2 SWAP1 PUSH1 0x0 MSTORE PUSH1 0x20 PUSH1 0x0 KECCAK256 SWAP1 JUMPDEST DUP2 SLOAD DUP2 MSTORE SWAP1 PUSH1 0x1 ADD SWAP1 PUSH1 0x20 ADD DUP1 DUP4 GT PUSH3 0x340 JUMPI DUP3 SWAP1 SUB PUSH1 0x1F AND DUP3 ADD SWAP2 JUMPDEST POP POP POP POP POP DUP2 JUMP JUMPDEST PUSH3 0x370 PUSH3 0x759 JUMP JUMPDEST PUSH3 0x37C PUSH1 0x0 PUSH3 0x788 JUMP JUMPDEST JUMP JUMPDEST PUSH1 0x0 PUSH1 0x5 DUP3 DUP2 SLOAD DUP2 LT PUSH3 0x396 JUMPI PUSH3 0x396 PUSH3 0x9B8 JUMP JUMPDEST PUSH1 0x0 SWAP2 DUP3 MSTORE PUSH1 0x20 SWAP1 SWAP2 KECCAK256 ADD SLOAD PUSH1 0x1 PUSH1 0x1 PUSH1 0xA0 SHL SUB AND SWAP3 SWAP2 POP POP JUMP JUMPDEST PUSH1 0x2 SLOAD PUSH1 0x0 SWAP1 PUSH1 0x1 PUSH1 0x1 PUSH1 0xA0 SHL SUB AND PUSH3 0x3DE JUMPI PUSH1 0x40 MLOAD PUSH4 0x4AEC5AC7 PUSH1 0xE0 SHL DUP2 MSTORE PUSH1 0x4 ADD PUSH1 0x40 MLOAD DUP1 SWAP2 SUB SWAP1 REVERT JUMPDEST DUP7 ISZERO DUP1 PUSH3 0x3EC JUMPI POP PUSH1 0x40 DUP8 GT JUMPDEST ISZERO PUSH3 0x40B JUMPI PUSH1 0x40 MLOAD PUSH4 0x430F13B3 PUSH1 0xE0 SHL DUP2 MSTORE PUSH1 0x4 ADD PUSH1 0x40 MLOAD DUP1 SWAP2 SUB SWAP1 REVERT JUMPDEST DUP5 ISZERO DUP1 PUSH3 0x419 JUMPI POP PUSH1 0x10 DUP6 GT JUMPDEST ISZERO PUSH3 0x438 JUMPI PUSH1 0x40 MLOAD PUSH4 0x10466F1 PUSH1 0xE2 SHL DUP2 MSTORE PUSH1 0x4 ADD PUSH1 0x40 MLOAD DUP1 SWAP2 SUB SWAP1 REVERT JUMPDEST PUSH1 0x0 DUP4 SWAP1 SUB PUSH3 0x45B JUMPI PUSH1 0x40 MLOAD PUSH4 0x3875D9BD PUSH1 0xE2 SHL DUP2 MSTORE PUSH1 0x4 ADD PUSH1 0x40 MLOAD DUP1 SWAP2 SUB SWAP1 REVERT JUMPDEST DUP2 ISZERO PUSH3 0x584 JUMPI PUSH1 0x1 SLOAD PUSH1 0x40 MLOAD PUSH4 0xDE99F157 PUSH1 0xE0 SHL DUP2 MSTORE PUSH1 0x4 DUP2 ADD DUP5 SWAP1 MSTORE PUSH1 0x1 PUSH1 0x1 PUSH1 0xA0 SHL SUB SWAP1 SWAP2 AND SWAP1 PUSH4 0xDE99F157 SWAP1 PUSH1 0x24 ADD PUSH1 0x20 PUSH1 0x40 MLOAD DUP1 DUP4 SUB DUP2 DUP7 GAS STATICCALL ISZERO DUP1 ISZERO PUSH3 0x4AC JUMPI RETURNDATASIZE PUSH1 0x0 DUP1 RETURNDATACOPY RETURNDATASIZE PUSH1 0x0 REVERT JUMPDEST POP POP POP POP PUSH1 0x40 MLOAD RETURNDATASIZE PUSH1 0x1F NOT PUSH1 0x1F DUP3 ADD AND DUP3 ADD DUP1 PUSH1 0x40 MSTORE POP DUP2 ADD SWAP1 PUSH3 0x4D2 SWAP2 SWAP1 PUSH3 0x9CE JUMP JUMPDEST PUSH3 0x4F0 JUMPI PUSH1 0x40 MLOAD PUSH4 0xE93BA223 PUSH1 0xE0 SHL DUP2 MSTORE PUSH1 0x4 ADD PUSH1 0x40 MLOAD DUP1 SWAP2 SUB SWAP1 REVERT JUMPDEST PUSH1 0x1 SLOAD PUSH1 0x40 MLOAD PUSH4 0x4744F2C9 PUSH1 0xE0 SHL DUP2 MSTORE CALLER PUSH1 0x4 DUP3 ADD MSTORE PUSH1 0x24 DUP2 ADD DUP5 SWAP1 MSTORE PUSH1 0x1 PUSH1 0x1 PUSH1 0xA0 SHL SUB SWAP1 SWAP2 AND SWAP1 PUSH4 0x4744F2C9 SWAP1 PUSH1 0x44 ADD PUSH1 0x20 PUSH1 0x40 MLOAD DUP1 DUP4 SUB DUP2 DUP7 GAS STATICCALL ISZERO DUP1 ISZERO PUSH3 0x540 JUMPI RETURNDATASIZE PUSH1 0x0 DUP1 RETURNDATACOPY RETURNDATASIZE PUSH1 0x0 REVERT JUMPDEST POP POP POP POP PUSH1 0x40 MLOAD RETURNDATASIZE PUSH1 0x1F NOT PUSH1 0x1F DUP3 ADD AND DUP3 ADD DUP1 PUSH1 0x40 MSTORE POP DUP2 ADD SWAP1 PUSH3 0x566 SWAP2 SWAP1 PUSH3 0x9CE JUMP JUMPDEST PUSH3 0x584 JUMPI PUSH1 0x40 MLOAD PUSH4 0xE41DCBF PUSH1 0xE2 SHL DUP2 MSTORE PUSH1 0x4 ADD PUSH1 0x40 MLOAD DUP1 SWAP2 SUB SWAP1 REVERT JUMPDEST PUSH1 0x0 DUP9 DUP9 DUP9 DUP9 DUP9 DUP9 DUP9 PUSH1 0x40 MLOAD PUSH3 0x59B SWAP1 PUSH3 0x7D8 JUMP JUMPDEST PUSH3 0x5AD SWAP8 SWAP7 SWAP6 SWAP5 SWAP4 SWAP3 SWAP2 SWAP1 PUSH3 0xA1B JUMP JUMPDEST PUSH1 0x40 MLOAD DUP1 SWAP2 SUB SWAP1 PUSH1 0x0 CREATE DUP1 ISZERO DUP1 ISZERO PUSH3 0x5CA JUMPI RETURNDATASIZE PUSH1 0x0 DUP1 RETURNDATACOPY RETURNDATASIZE PUSH1 0x0 REVERT JUMPDEST POP PUSH1 0x2 SLOAD PUSH1 0x40 MLOAD PUSH4 0x6DCEA85F PUSH1 0xE0 SHL DUP2 MSTORE PUSH1 0x1 PUSH1 0x1 PUSH1 0xA0 SHL SUB SWAP2 DUP3 AND PUSH1 0x4 DUP3 ADD MSTORE SWAP2 SWAP4 POP DUP4 SWAP3 POP DUP3 AND SWAP1 PUSH4 0x6DCEA85F SWAP1 PUSH1 0x24 ADD PUSH1 0x0 PUSH1 0x40 MLOAD DUP1 DUP4 SUB DUP2 PUSH1 0x0 DUP8 DUP1 EXTCODESIZE ISZERO DUP1 ISZERO PUSH3 0x618 JUMPI PUSH1 0x0 DUP1 REVERT JUMPDEST POP GAS CALL ISZERO DUP1 ISZERO PUSH3 0x62D JUMPI RETURNDATASIZE PUSH1 0x0 DUP1 RETURNDATACOPY RETURNDATASIZE PUSH1 0x0 REVERT JUMPDEST POP POP POP PUSH1 0x1 PUSH1 0x1 PUSH1 0xA0 SHL SUB DUP4 AND PUSH1 0x0 SWAP1 DUP2 MSTORE PUSH1 0x3 PUSH1 0x20 SWAP1 DUP2 MSTORE PUSH1 0x40 DUP1 DUP4 KECCAK256 DUP1 SLOAD PUSH1 0xFF NOT AND PUSH1 0x1 OR SWAP1 SSTORE PUSH1 0x4 SWAP1 SWAP2 MSTORE SWAP1 KECCAK256 SWAP1 POP PUSH3 0x66C DUP6 DUP8 DUP4 PUSH3 0xADD JUMP JUMPDEST POP PUSH1 0x5 DUP1 SLOAD PUSH1 0x1 DUP2 ADD DUP3 SSTORE PUSH1 0x0 SWAP2 SWAP1 SWAP2 MSTORE PUSH32 0x36B6384B5ECA791C62761152D0C79BB0604C104A5FB6F4EB0703F3154BB3DB0 ADD DUP1 SLOAD PUSH1 0x1 PUSH1 0x1 PUSH1 0xA0 SHL SUB NOT AND PUSH1 0x1 PUSH1 0x1 PUSH1 0xA0 SHL SUB DUP5 AND SWAP1 DUP2 OR SWAP1 SWAP2 SSTORE PUSH1 0x40 MLOAD DUP5 SWAP2 CALLER SWAP2 PUSH32 0xF52AB29786F736471EB1C308FA21CFA846F034756F4941EB19FE52F7BFA59FB7 SWAP1 PUSH3 0x6FD SWAP1 DUP15 SWAP1 DUP15 SWAP1 DUP15 SWAP1 DUP15 SWAP1 DUP15 SWAP1 DUP15 SWAP1 TIMESTAMP SWAP1 PUSH3 0xA1B JUMP JUMPDEST PUSH1 0x40 MLOAD DUP1 SWAP2 SUB SWAP1 LOG4 POP SWAP8 SWAP7 POP POP POP POP POP POP POP JUMP JUMPDEST PUSH3 0x71B PUSH3 0x759 JUMP JUMPDEST PUSH1 0x1 PUSH1 0x1 PUSH1 0xA0 SHL SUB DUP2 AND PUSH3 0x74B JUMPI PUSH1 0x40 MLOAD PUSH4 0x1E4FBDF7 PUSH1 0xE0 SHL DUP2 MSTORE PUSH1 0x0 PUSH1 0x4 DUP3 ADD MSTORE PUSH1 0x24 ADD JUMPDEST PUSH1 0x40 MLOAD DUP1 SWAP2 SUB SWAP1 REVERT JUMPDEST PUSH3 0x756 DUP2 PUSH3 0x788 JUMP JUMPDEST POP JUMP JUMPDEST PUSH1 0x0 SLOAD PUSH1 0x1 PUSH1 0x1 PUSH1 0xA0 SHL SUB AND CALLER EQ PUSH3 0x37C JUMPI PUSH1 0x40 MLOAD PUSH4 0x118CDAA7 PUSH1 0xE0 SHL DUP2 MSTORE CALLER PUSH1 0x4 DUP3 ADD MSTORE PUSH1 0x24 ADD PUSH3 0x742 JUMP JUMPDEST PUSH1 0x0 DUP1 SLOAD PUSH1 0x1 PUSH1 0x1 PUSH1 0xA0 SHL SUB DUP4 DUP2 AND PUSH1 0x1 PUSH1 0x1 PUSH1 0xA0 SHL SUB NOT DUP4 AND DUP2 OR DUP5 SSTORE PUSH1 0x40 MLOAD SWAP2 SWAP1 SWAP3 AND SWAP3 DUP4 SWAP2 PUSH32 0x8BE0079C531659141344CD1FD0A4F28419497F9722A3DAAFE3B4186F6B6457E0 SWAP2 SWAP1 LOG3 POP POP JUMP JUMPDEST PUSH2 0xDDF DUP1 PUSH3 0xBAC DUP4 CODECOPY ADD SWAP1 JUMP JUMPDEST PUSH1 0x0 PUSH1 0x20 DUP3 DUP5 SUB SLT ISZERO PUSH3 0x7F9 JUMPI PUSH1 0x0 DUP1 REVERT JUMPDEST DUP2 CALLDATALOAD PUSH1 0x1 PUSH1 0x1 PUSH1 0xA0 SHL SUB DUP2 AND DUP2 EQ PUSH3 0x811 JUMPI PUSH1 0x0 DUP1 REVERT JUMPDEST SWAP4 SWAP3 POP POP POP JUMP JUMPDEST PUSH1 0x0 PUSH1 0x20 DUP3 DUP5 SUB SLT ISZERO PUSH3 0x82B JUMPI PUSH1 0x0 DUP1 REVERT JUMPDEST POP CALLDATALOAD SWAP2 SWAP1 POP JUMP JUMPDEST PUSH1 0x0 PUSH1 0x20 DUP1 DUP4 MSTORE DUP4 MLOAD DUP1 PUSH1 0x20 DUP6 ADD MSTORE PUSH1 0x0 JUMPDEST DUP2 DUP2 LT ISZERO PUSH3 0x862 JUMPI DUP6 DUP2 ADD DUP4 ADD MLOAD DUP6 DUP3 ADD PUSH1 0x40 ADD MSTORE DUP3 ADD PUSH3 0x844 JUMP JUMPDEST POP PUSH1 0x0 PUSH1 0x40 DUP3 DUP7 ADD ADD MSTORE PUSH1 0x40 PUSH1 0x1F NOT PUSH1 0x1F DUP4 ADD AND DUP6 ADD ADD SWAP3 POP POP POP SWAP3 SWAP2 POP POP JUMP JUMPDEST PUSH1 0x0 DUP1 DUP4 PUSH1 0x1F DUP5 ADD SLT PUSH3 0x896 JUMPI PUSH1 0x0 DUP1 REVERT JUMPDEST POP DUP2 CALLDATALOAD PUSH8 0xFFFFFFFFFFFFFFFF DUP2 GT ISZERO PUSH3 0x8AF JUMPI PUSH1 0x0 DUP1 REVERT JUMPDEST PUSH1 0x20 DUP4 ADD SWAP2 POP DUP4 PUSH1 0x20 DUP3 DUP6 ADD ADD GT ISZERO PUSH3 0x8C8 JUMPI PUSH1 0x0 DUP1 REVERT JUMPDEST SWAP3 POP SWAP3 SWAP1 POP JUMP JUMPDEST PUSH1 0x0 DUP1 PUSH1 0x0 DUP1 PUSH1 0x0 DUP1 PUSH1 0x0 PUSH1 0x80 DUP9 DUP11 SUB SLT ISZERO PUSH3 0x8EB JUMPI PUSH1 0x0 DUP1 REVERT JUMPDEST DUP8 CALLDATALOAD PUSH8 0xFFFFFFFFFFFFFFFF DUP1 DUP3 GT ISZERO PUSH3 0x904 JUMPI PUSH1 0x0 DUP1 REVERT JUMPDEST PUSH3 0x912 DUP12 DUP4 DUP13 ADD PUSH3 0x883 JUMP JUMPDEST SWAP1 SWAP10 POP SWAP8 POP PUSH1 0x20 DUP11 ADD CALLDATALOAD SWAP2 POP DUP1 DUP3 GT ISZERO PUSH3 0x92C JUMPI PUSH1 0x0 DUP1 REVERT JUMPDEST PUSH3 0x93A DUP12 DUP4 DUP13 ADD PUSH3 0x883 JUMP JUMPDEST SWAP1 SWAP8 POP SWAP6 POP PUSH1 0x40 DUP11 ADD CALLDATALOAD SWAP2 POP DUP1 DUP3 GT ISZERO PUSH3 0x954 JUMPI PUSH1 0x0 DUP1 REVERT JUMPDEST POP PUSH3 0x963 DUP11 DUP3 DUP12 ADD PUSH3 0x883 JUMP JUMPDEST SWAP9 SWAP12 SWAP8 SWAP11 POP SWAP6 SWAP9 SWAP5 SWAP8 SWAP6 SWAP7 PUSH1 0x60 SWAP1 SWAP6 ADD CALLDATALOAD SWAP5 SWAP4 POP POP POP POP JUMP JUMPDEST PUSH1 0x1 DUP2 DUP2 SHR SWAP1 DUP3 AND DUP1 PUSH3 0x991 JUMPI PUSH1 0x7F DUP3 AND SWAP2 POP JUMPDEST PUSH1 0x20 DUP3 LT DUP2 SUB PUSH3 0x9B2 JUMPI PUSH4 0x4E487B71 PUSH1 0xE0 SHL PUSH1 0x0 MSTORE PUSH1 0x22 PUSH1 0x4 MSTORE PUSH1 0x24 PUSH1 0x0 REVERT JUMPDEST POP SWAP2 SWAP1 POP JUMP JUMPDEST PUSH4 0x4E487B71 PUSH1 0xE0 SHL PUSH1 0x0 MSTORE PUSH1 0x32 PUSH1 0x4 MSTORE PUSH1 0x24 PUSH1 0x0 REVERT JUMPDEST PUSH1 0x0 PUSH1 0x20 DUP3 DUP5 SUB SLT ISZERO PUSH3 0x9E1 JUMPI PUSH1 0x0 DUP1 REVERT JUMPDEST DUP2 MLOAD DUP1 ISZERO ISZERO DUP2 EQ PUSH3 0x811 JUMPI PUSH1 0x0 DUP1 REVERT JUMPDEST DUP2 DUP4 MSTORE DUP2 DUP2 PUSH1 0x20 DUP6 ADD CALLDATACOPY POP PUSH1 0x0 DUP3 DUP3 ADD PUSH1 0x20 SWAP1 DUP2 ADD SWAP2 SWAP1 SWAP2 MSTORE PUSH1 0x1F SWAP1 SWAP2 ADD PUSH1 0x1F NOT AND SWAP1 SWAP2 ADD ADD SWAP1 JUMP JUMPDEST PUSH1 0x80 DUP2 MSTORE PUSH1 0x0 PUSH3 0xA31 PUSH1 0x80 DUP4 ADD DUP10 DUP12 PUSH3 0x9F2 JUMP JUMPDEST DUP3 DUP2 SUB PUSH1 0x20 DUP5 ADD MSTORE PUSH3 0xA46 DUP2 DUP9 DUP11 PUSH3 0x9F2 JUMP JUMPDEST SWAP1 POP DUP3 DUP2 SUB PUSH1 0x40 DUP5 ADD MSTORE PUSH3 0xA5D DUP2 DUP7 DUP9 PUSH3 0x9F2 JUMP JUMPDEST SWAP2 POP POP DUP3 PUSH1 0x60 DUP4 ADD MSTORE SWAP9 SWAP8 POP POP POP POP POP POP POP POP JUMP JUMPDEST PUSH4 0x4E487B71 PUSH1 0xE0 SHL PUSH1 0x0 MSTORE PUSH1 0x41 PUSH1 0x4 MSTORE PUSH1 0x24 PUSH1 0x0 REVERT JUMPDEST PUSH1 0x1F DUP3 GT ISZERO PUSH3 0xAD8 JUMPI PUSH1 0x0 DUP2 PUSH1 0x0 MSTORE PUSH1 0x20 PUSH1 0x0 KECCAK256 PUSH1 0x1F DUP6 ADD PUSH1 0x5 SHR DUP2 ADD PUSH1 0x20 DUP7 LT ISZERO PUSH3 0xAB3 JUMPI POP DUP1 JUMPDEST PUSH1 0x1F DUP6 ADD PUSH1 0x5 SHR DUP3 ADD SWAP2 POP JUMPDEST DUP2 DUP2 LT ISZERO PUSH3 0xAD4 JUMPI DUP3 DUP2 SSTORE PUSH1 0x1 ADD PUSH3 0xABF JUMP JUMPDEST POP POP POP JUMPDEST POP POP POP JUMP JUMPDEST PUSH8 0xFFFFFFFFFFFFFFFF DUP4 GT ISZERO PUSH3 0xAF8 JUMPI PUSH3 0xAF8 PUSH3 0xA72 JUMP JUMPDEST PUSH3 0xB10 DUP4 PUSH3 0xB09 DUP4 SLOAD PUSH3 0x97C JUMP JUMPDEST DUP4 PUSH3 0xA88 JUMP JUMPDEST PUSH1 0x0 PUSH1 0x1F DUP5 GT PUSH1 0x1 DUP2 EQ PUSH3 0xB47 JUMPI PUSH1 0x0 DUP6 ISZERO PUSH3 0xB2E JUMPI POP DUP4 DUP3 ADD CALLDATALOAD JUMPDEST PUSH1 0x0 NOT PUSH1 0x3 DUP8 SWAP1 SHL SHR NOT AND PUSH1 0x1 DUP7 SWAP1 SHL OR DUP4 SSTORE PUSH3 0xBA4 JUMP JUMPDEST PUSH1 0x0 DUP4 DUP2 MSTORE PUSH1 0x20 SWAP1 KECCAK256 PUSH1 0x1F NOT DUP7 AND SWAP1 DUP4 JUMPDEST DUP3 DUP2 LT ISZERO PUSH3 0xB7A JUMPI DUP7 DUP6 ADD CALLDATALOAD DUP3 SSTORE PUSH1 0x20 SWAP5 DUP6 ADD SWAP5 PUSH1 0x1 SWAP1 SWAP3 ADD SWAP2 ADD PUSH3 0xB58 JUMP JUMPDEST POP DUP7 DUP3 LT ISZERO PUSH3 0xB98 JUMPI PUSH1 0x0 NOT PUSH1 0xF8 DUP9 PUSH1 0x3 SHL AND SHR NOT DUP5 DUP8 ADD CALLDATALOAD AND DUP2 SSTORE JUMPDEST POP POP PUSH1 0x1 DUP6 PUSH1 0x1 SHL ADD DUP4 SSTORE JUMPDEST POP POP POP POP POP JUMP INVALID PUSH1 0xA0 PUSH1 0x40 MSTORE CALLVALUE DUP1 ISZERO PUSH3 0x11 JUMPI PUSH1 0x0 DUP1 REVERT JUMPDEST POP PUSH1 0x40 MLOAD PUSH3 0xDDF CODESIZE SUB DUP1 PUSH3 0xDDF DUP4 CODECOPY DUP2 ADD PUSH1 0x40 DUP2 SWAP1 MSTORE PUSH3 0x34 SWAP2 PUSH3 0x13E JUMP JUMPDEST DUP4 DUP4 PUSH1 0x3 PUSH3 0x44 DUP4 DUP3 PUSH3 0x268 JUMP JUMPDEST POP PUSH1 0x4 PUSH3 0x53 DUP3 DUP3 PUSH3 0x268 JUMP JUMPDEST POP POP CALLER PUSH1 0x80 MSTORE POP PUSH1 0x6 PUSH3 0x68 DUP4 DUP3 PUSH3 0x268 JUMP JUMPDEST POP PUSH1 0x7 SSTORE POP PUSH3 0x334 SWAP2 POP POP JUMP JUMPDEST PUSH4 0x4E487B71 PUSH1 0xE0 SHL PUSH1 0x0 MSTORE PUSH1 0x41 PUSH1 0x4 MSTORE PUSH1 0x24 PUSH1 0x0 REVERT JUMPDEST PUSH1 0x0 DUP3 PUSH1 0x1F DUP4 ADD SLT PUSH3 0x9E JUMPI PUSH1 0x0 DUP1 REVERT JUMPDEST DUP2 MLOAD PUSH1 0x1 PUSH1 0x1 PUSH1 0x40 SHL SUB DUP1 DUP3 GT ISZERO PUSH3 0xBB JUMPI PUSH3 0xBB PUSH3 0x76 JUMP JUMPDEST PUSH1 0x40 MLOAD PUSH1 0x1F DUP4 ADD PUSH1 0x1F NOT SWAP1 DUP2 AND PUSH1 0x3F ADD AND DUP2 ADD SWAP1 DUP3 DUP3 GT DUP2 DUP4 LT OR ISZERO PUSH3 0xE6 JUMPI PUSH3 0xE6 PUSH3 0x76 JUMP JUMPDEST DUP2 PUSH1 0x40 MSTORE DUP4 DUP2 MSTORE PUSH1 0x20 SWAP3 POP DUP7 PUSH1 0x20 DUP6 DUP9 ADD ADD GT ISZERO PUSH3 0x104 JUMPI PUSH1 0x0 DUP1 REVERT JUMPDEST PUSH1 0x0 SWAP2 POP JUMPDEST DUP4 DUP3 LT ISZERO PUSH3 0x128 JUMPI DUP6 DUP3 ADD DUP4 ADD MLOAD DUP2 DUP4 ADD DUP5 ADD MSTORE SWAP1 DUP3 ADD SWAP1 PUSH3 0x109 JUMP JUMPDEST PUSH1 0x0 PUSH1 0x20 DUP6 DUP4 ADD ADD MSTORE DUP1 SWAP5 POP POP POP POP POP SWAP3 SWAP2 POP POP JUMP JUMPDEST PUSH1 0x0 DUP1 PUSH1 0x0 DUP1 PUSH1 0x80 DUP6 DUP8 SUB SLT ISZERO PUSH3 0x155 JUMPI PUSH1 0x0 DUP1 REVERT JUMPDEST DUP5 MLOAD PUSH1 0x1 PUSH1 0x1 PUSH1 0x40 SHL SUB DUP1 DUP3 GT ISZERO PUSH3 0x16D JUMPI PUSH1 0x0 DUP1 REVERT JUMPDEST PUSH3 0x17B DUP9 DUP4 DUP10 ADD PUSH3 0x8C JUMP JUMPDEST SWAP6 POP PUSH1 0x20 DUP8 ADD MLOAD SWAP2 POP DUP1 DUP3 GT ISZERO PUSH3 0x192 JUMPI PUSH1 0x0 DUP1 REVERT JUMPDEST PUSH3 0x1A0 DUP9 DUP4 DUP10 ADD PUSH3 0x8C JUMP JUMPDEST SWAP5 POP PUSH1 0x40 DUP8 ADD MLOAD SWAP2 POP DUP1 DUP3 GT ISZERO PUSH3 0x1B7 JUMPI PUSH1 0x0 DUP1 REVERT JUMPDEST POP PUSH3 0x1C6 DUP8 DUP3 DUP9 ADD PUSH3 0x8C JUMP JUMPDEST PUSH1 0x60 SWAP7 SWAP1 SWAP7 ADD MLOAD SWAP5 SWAP8 SWAP4 SWAP7 POP POP POP POP JUMP JUMPDEST PUSH1 0x1 DUP2 DUP2 SHR SWAP1 DUP3 AND DUP1 PUSH3 0x1EC JUMPI PUSH1 0x7F DUP3 AND SWAP2 POP JUMPDEST PUSH1 0x20 DUP3 LT DUP2 SUB PUSH3 0x20D JUMPI PUSH4 0x4E487B71 PUSH1 0xE0 SHL PUSH1 0x0 MSTORE PUSH1 0x22 PUSH1 0x4 MSTORE PUSH1 0x24 PUSH1 0x0 REVERT JUMPDEST POP SWAP2 SWAP1 POP JUMP JUMPDEST PUSH1 0x1F DUP3 GT ISZERO PUSH3 0x263 JUMPI PUSH1 0x0 DUP2 PUSH1 0x0 MSTORE PUSH1 0x20 PUSH1 0x0 KECCAK256 PUSH1 0x1F DUP6 ADD PUSH1 0x5 SHR DUP2 ADD PUSH1 0x20 DUP7 LT ISZERO PUSH3 0x23E JUMPI POP DUP1 JUMPDEST PUSH1 0x1F DUP6 ADD PUSH1 0x5 SHR DUP3 ADD SWAP2 POP JUMPDEST DUP2 DUP2 LT ISZERO PUSH3 0x25F JUMPI DUP3 DUP2 SSTORE PUSH1 0x1 ADD PUSH3 0x24A JUMP JUMPDEST POP POP POP JUMPDEST POP POP POP JUMP JUMPDEST DUP2 MLOAD PUSH1 0x1 PUSH1 0x1 PUSH1 0x40 SHL SUB DUP2 GT ISZERO PUSH3 0x284 JUMPI PUSH3 0x284 PUSH3 0x76 JUMP JUMPDEST PUSH3 0x29C DUP2 PUSH3 0x295 DUP5 SLOAD PUSH3 0x1D7 JUMP JUMPDEST DUP5 PUSH3 0x213 JUMP JUMPDEST PUSH1 0x20 DUP1 PUSH1 0x1F DUP4 GT PUSH1 0x1 DUP2 EQ PUSH3 0x2D4 JUMPI PUSH1 0x0 DUP5 ISZERO PUSH3 0x2BB JUMPI POP DUP6 DUP4 ADD MLOAD JUMPDEST PUSH1 0x0 NOT PUSH1 0x3 DUP7 SWAP1 SHL SHR NOT AND PUSH1 0x1 DUP6 SWAP1 SHL OR DUP6 SSTORE PUSH3 0x25F JUMP JUMPDEST PUSH1 0x0 DUP6 DUP2 MSTORE PUSH1 0x20 DUP2 KECCAK256 PUSH1 0x1F NOT DUP7 AND SWAP2 JUMPDEST DUP3 DUP2 LT ISZERO PUSH3 0x305 JUMPI DUP9 DUP7 ADD MLOAD DUP3 SSTORE SWAP5 DUP5 ADD SWAP5 PUSH1 0x1 SWAP1 SWAP2 ADD SWAP1 DUP5 ADD PUSH3 0x2E4 JUMP JUMPDEST POP DUP6 DUP3 LT ISZERO PUSH3 0x324 JUMPI DUP8 DUP6 ADD MLOAD PUSH1 0x0 NOT PUSH1 0x3 DUP9 SWAP1 SHL PUSH1 0xF8 AND SHR NOT AND DUP2 SSTORE JUMPDEST POP POP POP POP POP PUSH1 0x1 SWAP1 DUP2 SHL ADD SWAP1 SSTORE POP JUMP JUMPDEST PUSH1 0x80 MLOAD PUSH2 0xA88 PUSH3 0x357 PUSH1 0x0 CODECOPY PUSH1 0x0 DUP2 DUP2 PUSH2 0x24F ADD MSTORE PUSH2 0x495 ADD MSTORE PUSH2 0xA88 PUSH1 0x0 RETURN INVALID PUSH1 0x80 PUSH1 0x40 MSTORE CALLVALUE DUP1 ISZERO PUSH2 0x10 JUMPI PUSH1 0x0 DUP1 REVERT JUMPDEST POP PUSH1 0x4 CALLDATASIZE LT PUSH2 0x10B JUMPI PUSH1 0x0 CALLDATALOAD PUSH1 0xE0 SHR DUP1 PUSH4 0x6DCEA85F GT PUSH2 0xA2 JUMPI DUP1 PUSH4 0x9DC29FAC GT PUSH2 0x71 JUMPI DUP1 PUSH4 0x9DC29FAC EQ PUSH2 0x224 JUMPI DUP1 PUSH4 0xA9059CBB EQ PUSH2 0x237 JUMPI DUP1 PUSH4 0xC45A0155 EQ PUSH2 0x24A JUMPI DUP1 PUSH4 0xDD62ED3E EQ PUSH2 0x271 JUMPI DUP1 PUSH4 0xE03D9141 EQ PUSH2 0x2AA JUMPI PUSH1 0x0 DUP1 REVERT JUMPDEST DUP1 PUSH4 0x6DCEA85F EQ PUSH2 0x1B5 JUMPI DUP1 PUSH4 0x70A08231 EQ PUSH2 0x1C8 JUMPI DUP1 PUSH4 0x80F55605 EQ PUSH2 0x1F1 JUMPI DUP1 PUSH4 0x95D89B41 EQ PUSH2 0x21C JUMPI PUSH1 0x0 DUP1 REVERT JUMPDEST DUP1 PUSH4 0x313CE567 GT PUSH2 0xDE JUMPI DUP1 PUSH4 0x313CE567 EQ PUSH2 0x176 JUMPI DUP1 PUSH4 0x32CB6B0C EQ PUSH2 0x185 JUMPI DUP1 PUSH4 0x40C10F19 EQ PUSH2 0x198 JUMPI DUP1 PUSH4 0x58871C46 EQ PUSH2 0x1AD JUMPI PUSH1 0x0 DUP1 REVERT JUMPDEST DUP1 PUSH4 0x6FDDE03 EQ PUSH2 0x110 JUMPI DUP1 PUSH4 0x95EA7B3 EQ PUSH2 0x12E JUMPI DUP1 PUSH4 0x18160DDD EQ PUSH2 0x151 JUMPI DUP1 PUSH4 0x23B872DD EQ PUSH2 0x163 JUMPI JUMPDEST PUSH1 0x0 DUP1 REVERT JUMPDEST PUSH2 0x118 PUSH2 0x2B3 JUMP JUMPDEST PUSH1 0x40 MLOAD PUSH2 0x125 SWAP2 SWAP1 PUSH2 0x8D1 JUMP JUMPDEST PUSH1 0x40 MLOAD DUP1 SWAP2 SUB SWAP1 RETURN JUMPDEST PUSH2 0x141 PUSH2 0x13C CALLDATASIZE PUSH1 0x4 PUSH2 0x93C JUMP JUMPDEST PUSH2 0x345 JUMP JUMPDEST PUSH1 0x40 MLOAD SWAP1 ISZERO ISZERO DUP2 MSTORE PUSH1 0x20 ADD PUSH2 0x125 JUMP JUMPDEST PUSH1 0x2 SLOAD JUMPDEST PUSH1 0x40 MLOAD SWAP1 DUP2 MSTORE PUSH1 0x20 ADD PUSH2 0x125 JUMP JUMPDEST PUSH2 0x141 PUSH2 0x171 CALLDATASIZE PUSH1 0x4 PUSH2 0x966 JUMP JUMPDEST PUSH2 0x35F JUMP JUMPDEST PUSH1 0x40 MLOAD PUSH1 0x12 DUP2 MSTORE PUSH1 0x20 ADD PUSH2 0x125 JUMP JUMPDEST PUSH2 0x155 PUSH12 0x33B2E3C9FD0803CE8000000 DUP2 JUMP JUMPDEST PUSH2 0x1AB PUSH2 0x1A6 CALLDATASIZE PUSH1 0x4 PUSH2 0x93C JUMP JUMPDEST PUSH2 0x383 JUMP JUMPDEST STOP JUMPDEST PUSH2 0x118 PUSH2 0x3FC JUMP JUMPDEST PUSH2 0x1AB PUSH2 0x1C3 CALLDATASIZE PUSH1 0x4 PUSH2 0x9A2 JUMP JUMPDEST PUSH2 0x48A JUMP JUMPDEST PUSH2 0x155 PUSH2 0x1D6 CALLDATASIZE PUSH1 0x4 PUSH2 0x9A2 JUMP JUMPDEST PUSH1 0x1 PUSH1 0x1 PUSH1 0xA0 SHL SUB AND PUSH1 0x0 SWAP1 DUP2 MSTORE PUSH1 0x20 DUP2 SWAP1 MSTORE PUSH1 0x40 SWAP1 KECCAK256 SLOAD SWAP1 JUMP JUMPDEST PUSH1 0x5 SLOAD PUSH2 0x204 SWAP1 PUSH1 0x1 PUSH1 0x1 PUSH1 0xA0 SHL SUB AND DUP2 JUMP JUMPDEST PUSH1 0x40 MLOAD PUSH1 0x1 PUSH1 0x1 PUSH1 0xA0 SHL SUB SWAP1 SWAP2 AND DUP2 MSTORE PUSH1 0x20 ADD PUSH2 0x125 JUMP JUMPDEST PUSH2 0x118 PUSH2 0x51F JUMP JUMPDEST PUSH2 0x1AB PUSH2 0x232 CALLDATASIZE PUSH1 0x4 PUSH2 0x93C JUMP JUMPDEST PUSH2 0x52E JUMP JUMPDEST PUSH2 0x141 PUSH2 0x245 CALLDATASIZE PUSH1 0x4 PUSH2 0x93C JUMP JUMPDEST PUSH2 0x563 JUMP JUMPDEST PUSH2 0x204 PUSH32 0x0 DUP2 JUMP JUMPDEST PUSH2 0x155 PUSH2 0x27F CALLDATASIZE PUSH1 0x4 PUSH2 0x9C4 JUMP JUMPDEST PUSH1 0x1 PUSH1 0x1 PUSH1 0xA0 SHL SUB SWAP2 DUP3 AND PUSH1 0x0 SWAP1 DUP2 MSTORE PUSH1 0x1 PUSH1 0x20 SWAP1 DUP2 MSTORE PUSH1 0x40 DUP1 DUP4 KECCAK256 SWAP4 SWAP1 SWAP5 AND DUP3 MSTORE SWAP2 SWAP1 SWAP2 MSTORE KECCAK256 SLOAD SWAP1 JUMP JUMPDEST PUSH2 0x155 PUSH1 0x7 SLOAD DUP2 JUMP JUMPDEST PUSH1 0x60 PUSH1 0x3 DUP1 SLOAD PUSH2 0x2C2 SWAP1 PUSH2 0x9F7 JUMP JUMPDEST DUP1 PUSH1 0x1F ADD PUSH1 0x20 DUP1 SWAP2 DIV MUL PUSH1 0x20 ADD PUSH1 0x40 MLOAD SWAP1 DUP2 ADD PUSH1 0x40 MSTORE DUP1 SWAP3 SWAP2 SWAP1 DUP2 DUP2 MSTORE PUSH1 0x20 ADD DUP3 DUP1 SLOAD PUSH2 0x2EE SWAP1 PUSH2 0x9F7 JUMP JUMPDEST DUP1 ISZERO PUSH2 0x33B JUMPI DUP1 PUSH1 0x1F LT PUSH2 0x310 JUMPI PUSH2 0x100 DUP1 DUP4 SLOAD DIV MUL DUP4 MSTORE SWAP2 PUSH1 0x20 ADD SWAP2 PUSH2 0x33B JUMP JUMPDEST DUP3 ADD SWAP2 SWAP1 PUSH1 0x0 MSTORE PUSH1 0x20 PUSH1 0x0 KECCAK256 SWAP1 JUMPDEST DUP2 SLOAD DUP2 MSTORE SWAP1 PUSH1 0x1 ADD SWAP1 PUSH1 0x20 ADD DUP1 DUP4 GT PUSH2 0x31E JUMPI DUP3 SWAP1 SUB PUSH1 0x1F AND DUP3 ADD SWAP2 JUMPDEST POP POP POP POP POP SWAP1 POP SWAP1 JUMP JUMPDEST PUSH1 0x0 CALLER PUSH2 0x353 DUP2 DUP6 DUP6 PUSH2 0x571 JUMP JUMPDEST PUSH1 0x1 SWAP2 POP POP JUMPDEST SWAP3 SWAP2 POP POP JUMP JUMPDEST PUSH1 0x0 CALLER PUSH2 0x36D DUP6 DUP3 DUP6 PUSH2 0x583 JUMP JUMPDEST PUSH2 0x378 DUP6 DUP6 DUP6 PUSH2 0x607 JUMP JUMPDEST POP PUSH1 0x1 SWAP5 SWAP4 POP POP POP POP JUMP JUMPDEST PUSH1 0x5 SLOAD PUSH1 0x1 PUSH1 0x1 PUSH1 0xA0 SHL SUB AND CALLER EQ PUSH2 0x3AE JUMPI PUSH1 0x40 MLOAD PUSH4 0xC4BBEA69 PUSH1 0xE0 SHL DUP2 MSTORE PUSH1 0x4 ADD PUSH1 0x40 MLOAD DUP1 SWAP2 SUB SWAP1 REVERT JUMPDEST PUSH12 0x33B2E3C9FD0803CE8000000 DUP2 PUSH2 0x3C5 PUSH1 0x2 SLOAD SWAP1 JUMP JUMPDEST PUSH2 0x3CF SWAP2 SWAP1 PUSH2 0xA31 JUMP JUMPDEST GT ISZERO PUSH2 0x3EE JUMPI PUSH1 0x40 MLOAD PUSH4 0x8A164F63 PUSH1 0xE0 SHL DUP2 MSTORE PUSH1 0x4 ADD PUSH1 0x40 MLOAD DUP1 SWAP2 SUB SWAP1 REVERT JUMPDEST PUSH2 0x3F8 DUP3 DUP3 PUSH2 0x666 JUMP JUMPDEST POP POP JUMP JUMPDEST PUSH1 0x6 DUP1 SLOAD PUSH2 0x409 SWAP1 PUSH2 0x9F7 JUMP JUMPDEST DUP1 PUSH1 0x1F ADD PUSH1 0x20 DUP1 SWAP2 DIV MUL PUSH1 0x20 ADD PUSH1 0x40 MLOAD SWAP1 DUP2 ADD PUSH1 0x40 MSTORE DUP1 SWAP3 SWAP2 SWAP1 DUP2 DUP2 MSTORE PUSH1 0x20 ADD DUP3 DUP1 SLOAD PUSH2 0x435 SWAP1 PUSH2 0x9F7 JUMP JUMPDEST DUP1 ISZERO PUSH2 0x482 JUMPI DUP1 PUSH1 0x1F LT PUSH2 0x457 JUMPI PUSH2 0x100 DUP1 DUP4 SLOAD DIV MUL DUP4 MSTORE SWAP2 PUSH1 0x20 ADD SWAP2 PUSH2 0x482 JUMP JUMPDEST DUP3 ADD SWAP2 SWAP1 PUSH1 0x0 MSTORE PUSH1 0x20 PUSH1 0x0 KECCAK256 SWAP1 JUMPDEST DUP2 SLOAD DUP2 MSTORE SWAP1 PUSH1 0x1 ADD SWAP1 PUSH1 0x20 ADD DUP1 DUP4 GT PUSH2 0x465 JUMPI DUP3 SWAP1 SUB PUSH1 0x1F AND DUP3 ADD SWAP2 JUMPDEST POP POP POP POP POP DUP2 JUMP JUMPDEST CALLER PUSH1 0x1 PUSH1 0x1 PUSH1 0xA0 SHL SUB PUSH32 0x0 AND EQ PUSH2 0x4D3 JUMPI PUSH1 0x40 MLOAD PUSH4 0x1966391B PUSH1 0xE1 SHL DUP2 MSTORE PUSH1 0x4 ADD PUSH1 0x40 MLOAD DUP1 SWAP2 SUB SWAP1 REVERT JUMPDEST PUSH1 0x5 SLOAD PUSH1 0x1 PUSH1 0x1 PUSH1 0xA0 SHL SUB AND ISZERO PUSH2 0x4FD JUMPI PUSH1 0x40 MLOAD PUSH4 0x6DDDA6B PUSH1 0xE0 SHL DUP2 MSTORE PUSH1 0x4 ADD PUSH1 0x40 MLOAD DUP1 SWAP2 SUB SWAP1 REVERT JUMPDEST PUSH1 0x5 DUP1 SLOAD PUSH1 0x1 PUSH1 0x1 PUSH1 0xA0 SHL SUB NOT AND PUSH1 0x1 PUSH1 0x1 PUSH1 0xA0 SHL SUB SWAP3 SWAP1 SWAP3 AND SWAP2 SWAP1 SWAP2 OR SWAP1 SSTORE JUMP JUMPDEST PUSH1 0x60 PUSH1 0x4 DUP1 SLOAD PUSH2 0x2C2 SWAP1 PUSH2 0x9F7 JUMP JUMPDEST PUSH1 0x5 SLOAD PUSH1 0x1 PUSH1 0x1 PUSH1 0xA0 SHL SUB AND CALLER EQ PUSH2 0x559 JUMPI PUSH1 0x40 MLOAD PUSH4 0xC4BBEA69 PUSH1 0xE0 SHL DUP2 MSTORE PUSH1 0x4 ADD PUSH1 0x40 MLOAD DUP1 SWAP2 SUB SWAP1 REVERT JUMPDEST PUSH2 0x3F8 DUP3 DUP3 PUSH2 0x69C JUMP JUMPDEST PUSH1 0x0 CALLER PUSH2 0x353 DUP2 DUP6 DUP6 PUSH2 0x607 JUMP JUMPDEST PUSH2 0x57E DUP4 DUP4 DUP4 PUSH1 0x1 PUSH2 0x6D2 JUMP JUMPDEST POP POP POP JUMP JUMPDEST PUSH1 0x1 PUSH1 0x1 PUSH1 0xA0 SHL SUB DUP4 DUP2 AND PUSH1 0x0 SWAP1 DUP2 MSTORE PUSH1 0x1 PUSH1 0x20 SWAP1 DUP2 MSTORE PUSH1 0x40 DUP1 DUP4 KECCAK256 SWAP4 DUP7 AND DUP4 MSTORE SWAP3 SWAP1 MSTORE KECCAK256 SLOAD PUSH1 0x0 NOT DUP2 LT ISZERO PUSH2 0x601 JUMPI DUP2 DUP2 LT ISZERO PUSH2 0x5F2 JUMPI PUSH1 0x40 MLOAD PUSH4 0x7DC7A0D9 PUSH1 0xE1 SHL DUP2 MSTORE PUSH1 0x1 PUSH1 0x1 PUSH1 0xA0 SHL SUB DUP5 AND PUSH1 0x4 DUP3 ADD MSTORE PUSH1 0x24 DUP2 ADD DUP3 SWAP1 MSTORE PUSH1 0x44 DUP2 ADD DUP4 SWAP1 MSTORE PUSH1 0x64 ADD JUMPDEST PUSH1 0x40 MLOAD DUP1 SWAP2 SUB SWAP1 REVERT JUMPDEST PUSH2 0x601 DUP5 DUP5 DUP5 DUP5 SUB PUSH1 0x0 PUSH2 0x6D2 JUMP JUMPDEST POP POP POP POP JUMP JUMPDEST PUSH1 0x1 PUSH1 0x1 PUSH1 0xA0 SHL SUB DUP4 AND PUSH2 0x631 JUMPI PUSH1 0x40 MLOAD PUSH4 0x4B637E8F PUSH1 0xE1 SHL DUP2 MSTORE PUSH1 0x0 PUSH1 0x4 DUP3 ADD MSTORE PUSH1 0x24 ADD PUSH2 0x5E9 JUMP JUMPDEST PUSH1 0x1 PUSH1 0x1 PUSH1 0xA0 SHL SUB DUP3 AND PUSH2 0x65B JUMPI PUSH1 0x40 MLOAD PUSH4 0xEC442F05 PUSH1 0xE0 SHL DUP2 MSTORE PUSH1 0x0 PUSH1 0x4 DUP3 ADD MSTORE PUSH1 0x24 ADD PUSH2 0x5E9 JUMP JUMPDEST PUSH2 0x57E DUP4 DUP4 DUP4 PUSH2 0x7A7 JUMP JUMPDEST PUSH1 0x1 PUSH1 0x1 PUSH1 0xA0 SHL SUB DUP3 AND PUSH2 0x690 JUMPI PUSH1 0x40 MLOAD PUSH4 0xEC442F05 PUSH1 0xE0 SHL DUP2 MSTORE PUSH1 0x0 PUSH1 0x4 DUP3 ADD MSTORE PUSH1 0x24 ADD PUSH2 0x5E9 JUMP JUMPDEST PUSH2 0x3F8 PUSH1 0x0 DUP4 DUP4 PUSH2 0x7A7 JUMP JUMPDEST PUSH1 0x1 PUSH1 0x1 PUSH1 0xA0 SHL SUB DUP3 AND PUSH2 0x6C6 JUMPI PUSH1 0x40 MLOAD PUSH4 0x4B637E8F PUSH1 0xE1 SHL DUP2 MSTORE PUSH1 0x0 PUSH1 0x4 DUP3 ADD MSTORE PUSH1 0x24 ADD PUSH2 0x5E9 JUMP JUMPDEST PUSH2 0x3F8 DUP3 PUSH1 0x0 DUP4 PUSH2 0x7A7 JUMP JUMPDEST PUSH1 0x1 PUSH1 0x1 PUSH1 0xA0 SHL SUB DUP5 AND PUSH2 0x6FC JUMPI PUSH1 0x40 MLOAD PUSH4 0xE602DF05 PUSH1 0xE0 SHL DUP2 MSTORE PUSH1 0x0 PUSH1 0x4 DUP3 ADD MSTORE PUSH1 0x24 ADD PUSH2 0x5E9 JUMP JUMPDEST PUSH1 0x1 PUSH1 0x1 PUSH1 0xA0 SHL SUB DUP4 AND PUSH2 0x726 JUMPI PUSH1 0x40 MLOAD PUSH4 0x4A1406B1 PUSH1 0xE1 SHL DUP2 MSTORE PUSH1 0x0 PUSH1 0x4 DUP3 ADD MSTORE PUSH1 0x24 ADD PUSH2 0x5E9 JUMP JUMPDEST PUSH1 0x1 PUSH1 0x1 PUSH1 0xA0 SHL SUB DUP1 DUP6 AND PUSH1 0x0 SWAP1 DUP2 MSTORE PUSH1 0x1 PUSH1 0x20 SWAP1 DUP2 MSTORE PUSH1 0x40 DUP1 DUP4 KECCAK256 SWAP4 DUP8 AND DUP4 MSTORE SWAP3 SWAP1 MSTORE KECCAK256 DUP3 SWAP1 SSTORE DUP1 ISZERO PUSH2 0x601 JUMPI DUP3 PUSH1 0x1 PUSH1 0x1 PUSH1 0xA0 SHL SUB AND DUP5 PUSH1 0x1 PUSH1 0x1 PUSH1 0xA0 SHL SUB AND PUSH32 0x8C5BE1E5EBEC7D5BD14F71427D1E84F3DD0314C0F7B2291E5B200AC8C7C3B925 DUP5 PUSH1 0x40 MLOAD PUSH2 0x799 SWAP2 DUP2 MSTORE PUSH1 0x20 ADD SWAP1 JUMP JUMPDEST PUSH1 0x40 MLOAD DUP1 SWAP2 SUB SWAP1 LOG3 POP POP POP POP JUMP JUMPDEST PUSH1 0x1 PUSH1 0x1 PUSH1 0xA0 SHL SUB DUP4 AND PUSH2 0x7D2 JUMPI DUP1 PUSH1 0x2 PUSH1 0x0 DUP3 DUP3 SLOAD PUSH2 0x7C7 SWAP2 SWAP1 PUSH2 0xA31 JUMP JUMPDEST SWAP1 SWAP2 SSTORE POP PUSH2 0x844 SWAP1 POP JUMP JUMPDEST PUSH1 0x1 PUSH1 0x1 PUSH1 0xA0 SHL SUB DUP4 AND PUSH1 0x0 SWAP1 DUP2 MSTORE PUSH1 0x20 DUP2 SWAP1 MSTORE PUSH1 0x40 SWAP1 KECCAK256 SLOAD DUP2 DUP2 LT ISZERO PUSH2 0x825 JUMPI PUSH1 0x40 MLOAD PUSH4 0x391434E3 PUSH1 0xE2 SHL DUP2 MSTORE PUSH1 0x1 PUSH1 0x1 PUSH1 0xA0 SHL SUB DUP6 AND PUSH1 0x4 DUP3 ADD MSTORE PUSH1 0x24 DUP2 ADD DUP3 SWAP1 MSTORE PUSH1 0x44 DUP2 ADD DUP4 SWAP1 MSTORE PUSH1 0x64 ADD PUSH2 0x5E9 JUMP JUMPDEST PUSH1 0x1 PUSH1 0x1 PUSH1 0xA0 SHL SUB DUP5 AND PUSH1 0x0 SWAP1 DUP2 MSTORE PUSH1 0x20 DUP2 SWAP1 MSTORE PUSH1 0x40 SWAP1 KECCAK256 SWAP1 DUP3 SWAP1 SUB SWAP1 SSTORE JUMPDEST PUSH1 0x1 PUSH1 0x1 PUSH1 0xA0 SHL SUB DUP3 AND PUSH2 0x860 JUMPI PUSH1 0x2 DUP1 SLOAD DUP3 SWAP1 SUB SWAP1 SSTORE PUSH2 0x87F JUMP JUMPDEST PUSH1 0x1 PUSH1 0x1 PUSH1 0xA0 SHL SUB DUP3 AND PUSH1 0x0 SWAP1 DUP2 MSTORE PUSH1 0x20 DUP2 SWAP1 MSTORE PUSH1 0x40 SWAP1 KECCAK256 DUP1 SLOAD DUP3 ADD SWAP1 SSTORE JUMPDEST DUP2 PUSH1 0x1 PUSH1 0x1 PUSH1 0xA0 SHL SUB AND DUP4 PUSH1 0x1 PUSH1 0x1 PUSH1 0xA0 SHL SUB AND PUSH32 0xDDF252AD1BE2C89B69C2B068FC378DAA952BA7F163C4A11628F55A4DF523B3EF DUP4 PUSH1 0x40 MLOAD PUSH2 0x8C4 SWAP2 DUP2 MSTORE PUSH1 0x20 ADD SWAP1 JUMP JUMPDEST PUSH1 0x40 MLOAD DUP1 SWAP2 SUB SWAP1 LOG3 POP POP POP JUMP JUMPDEST PUSH1 0x0 PUSH1 0x20 DUP1 DUP4 MSTORE DUP4 MLOAD DUP1 PUSH1 0x20 DUP6 ADD MSTORE PUSH1 0x0 JUMPDEST DUP2 DUP2 LT ISZERO PUSH2 0x8FF JUMPI DUP6 DUP2 ADD DUP4 ADD MLOAD DUP6 DUP3 ADD PUSH1 0x40 ADD MSTORE DUP3 ADD PUSH2 0x8E3 JUMP JUMPDEST POP PUSH1 0x0 PUSH1 0x40 DUP3 DUP7 ADD ADD MSTORE PUSH1 0x40 PUSH1 0x1F NOT PUSH1 0x1F DUP4 ADD AND DUP6 ADD ADD SWAP3 POP POP POP SWAP3 SWAP2 POP POP JUMP JUMPDEST DUP1 CALLDATALOAD PUSH1 0x1 PUSH1 0x1 PUSH1 0xA0 SHL SUB DUP2 AND DUP2 EQ PUSH2 0x937 JUMPI PUSH1 0x0 DUP1 REVERT JUMPDEST SWAP2 SWAP1 POP JUMP JUMPDEST PUSH1 0x0 DUP1 PUSH1 0x40 DUP4 DUP6 SUB SLT ISZERO PUSH2 0x94F JUMPI PUSH1 0x0 DUP1 REVERT JUMPDEST PUSH2 0x958 DUP4 PUSH2 0x920 JUMP JUMPDEST SWAP5 PUSH1 0x20 SWAP4 SWAP1 SWAP4 ADD CALLDATALOAD SWAP4 POP POP POP JUMP JUMPDEST PUSH1 0x0 DUP1 PUSH1 0x0 PUSH1 0x60 DUP5 DUP7 SUB SLT ISZERO PUSH2 0x97B JUMPI PUSH1 0x0 DUP1 REVERT JUMPDEST PUSH2 0x984 DUP5 PUSH2 0x920 JUMP JUMPDEST SWAP3 POP PUSH2 0x992 PUSH1 0x20 DUP6 ADD PUSH2 0x920 JUMP JUMPDEST SWAP2 POP PUSH1 0x40 DUP5 ADD CALLDATALOAD SWAP1 POP SWAP3 POP SWAP3 POP SWAP3 JUMP JUMPDEST PUSH1 0x0 PUSH1 0x20 DUP3 DUP5 SUB SLT ISZERO PUSH2 0x9B4 JUMPI PUSH1 0x0 DUP1 REVERT JUMPDEST PUSH2 0x9BD DUP3 PUSH2 0x920 JUMP JUMPDEST SWAP4 SWAP3 POP POP POP JUMP JUMPDEST PUSH1 0x0 DUP1 PUSH1 0x40 DUP4 DUP6 SUB SLT ISZERO PUSH2 0x9D7 JUMPI PUSH1 0x0 DUP1 REVERT JUMPDEST PUSH2 0x9E0 DUP4 PUSH2 0x920 JUMP JUMPDEST SWAP2 POP PUSH2 0x9EE PUSH1 0x20 DUP5 ADD PUSH2 0x920 JUMP JUMPDEST SWAP1 POP SWAP3 POP SWAP3 SWAP1 POP JUMP JUMPDEST PUSH1 0x1 DUP2 DUP2 SHR SWAP1 DUP3 AND DUP1 PUSH2 0xA0B JUMPI PUSH1 0x7F DUP3 AND SWAP2 POP JUMPDEST PUSH1 0x20 DUP3 LT DUP2 SUB PUSH2 0xA2B JUMPI PUSH4 0x4E487B71 PUSH1 0xE0 SHL PUSH1 0x0 MSTORE PUSH1 0x22 PUSH1 0x4 MSTORE PUSH1 0x24 PUSH1 0x0 REVERT JUMPDEST POP SWAP2 SWAP1 POP JUMP JUMPDEST DUP1 DUP3 ADD DUP1 DUP3 GT ISZERO PUSH2 0x359 JUMPI PUSH4 0x4E487B71 PUSH1 0xE0 SHL PUSH1 0x0 MSTORE PUSH1 0x11 PUSH1 0x4 MSTORE PUSH1 0x24 PUSH1 0x0 REVERT INVALID LOG2 PUSH5 0x6970667358 0x22 SLT KECCAK256 SMOD 0xD7 0xF SWAP16 PUSH22 0xC018EB71548BD697E7713671D8EA457C8AC089F1CE87 0xAF 0xCD DUP1 SWAP1 DUP15 PUSH5 0x736F6C6343 STOP ADDMOD XOR STOP CALLER LOG2 PUSH5 0x6970667358 0x22 SLT KECCAK256 0xB0 PUSH30 0xAFF96CC1CC1EAB0BB1A20EAAB35B7ADD12EEF784F835E19D106CDF733A65 PUSH5 0x736F6C6343 STOP ADDMOD XOR STOP CALLER "},"methodIdentifiers":{"agentRegistry()":"0d1cfcae","allTokens(uint256)":"634282af","createToken(string,string,string,uint256)":"efbe8fd1","isHoneycombToken(address)":"01c00495","market()":"80f55605","owner()":"8da5cb5b","renounceOwnership()":"715018a6","setAgentRegistry(address)":"28342ecf","setMarket(address)":"6dcea85f","tokenAt(uint256)":"92a91a3a","tokenMetadata(address)":"6fecdf24","totalTokens()":"7e1c0c09","transferOwnership(address)":"f2fde38b"}}}}}