{"contracts/launchpad/HoneycombBondingCurveMarket.sol":{"HoneycombBondingCurveMarket":{"abi":[{"inputs":[{"internalType":"address","name":"_factory","type":"address"},{"internalType":"address","name":"_feeVault","type":"address"},{"internalType":"uint256","name":"_graduationThreshold","type":"uint256"},{"internalType":"uint256","name":"_cooldownSeconds","type":"uint256"},{"internalType":"uint256","name":"_maxBuyPerTx","type":"uint256"},{"internalType":"uint256","name":"_launchDelay","type":"uint256"},{"internalType":"uint256","name":"_initialVirtualNative","type":"uint256"},{"internalType":"uint256","name":"_initialVirtualToken","type":"uint256"}],"stateMutability":"nonpayable","type":"constructor"},{"inputs":[],"name":"CooldownActive","type":"error"},{"inputs":[],"name":"ExceedsMaxBuy","type":"error"},{"inputs":[],"name":"InsufficientNative","type":"error"},{"inputs":[],"name":"MarketAlreadyInitialized","type":"error"},{"inputs":[],"name":"MarketNotInitialized","type":"error"},{"inputs":[{"internalType":"address","name":"owner","type":"address"}],"name":"OwnableInvalidOwner","type":"error"},{"inputs":[{"internalType":"address","name":"account","type":"address"}],"name":"OwnableUnauthorizedAccount","type":"error"},{"inputs":[],"name":"ReentrancyGuardReentrantCall","type":"error"},{"inputs":[],"name":"SlippageExceeded","type":"error"},{"inputs":[],"name":"TokenGraduated","type":"error"},{"inputs":[],"name":"TokenNotFromFactory","type":"error"},{"inputs":[],"name":"TradingNotStarted","type":"error"},{"inputs":[],"name":"TransferFailed","type":"error"},{"inputs":[],"name":"ZeroAmount","type":"error"},{"anonymous":false,"inputs":[{"indexed":true,"internalType":"address","name":"token","type":"address"},{"indexed":false,"internalType":"uint256","name":"totalRaised","type":"uint256"}],"name":"Graduated","type":"event"},{"anonymous":false,"inputs":[{"indexed":true,"internalType":"address","name":"token","type":"address"},{"indexed":false,"internalType":"uint256","name":"nativeReserve","type":"uint256"},{"indexed":false,"internalType":"uint256","name":"tokenReserve","type":"uint256"},{"indexed":false,"internalType":"uint256","name":"tradingStart","type":"uint256"}],"name":"MarketInitialized","type":"event"},{"anonymous":false,"inputs":[{"indexed":true,"internalType":"address","name":"previousOwner","type":"address"},{"indexed":true,"internalType":"address","name":"newOwner","type":"address"}],"name":"OwnershipTransferred","type":"event"},{"anonymous":false,"inputs":[{"indexed":true,"internalType":"address","name":"token","type":"address"},{"indexed":true,"internalType":"address","name":"trader","type":"address"},{"indexed":false,"internalType":"bool","name":"isBuy","type":"bool"},{"indexed":false,"internalType":"uint256","name":"nativeAmt","type":"uint256"},{"indexed":false,"internalType":"uint256","name":"tokenAmt","type":"uint256"},{"indexed":false,"internalType":"uint256","name":"fee","type":"uint256"},{"indexed":false,"internalType":"uint256","name":"price","type":"uint256"}],"name":"Trade","type":"event"},{"inputs":[],"name":"BPS_DENOMINATOR","outputs":[{"internalType":"uint256","name":"","type":"uint256"}],"stateMutability":"view","type":"function"},{"inputs":[],"name":"FEE_BPS","outputs":[{"internalType":"uint256","name":"","type":"uint256"}],"stateMutability":"view","type":"function"},{"inputs":[{"internalType":"address","name":"token","type":"address"},{"internalType":"uint256","name":"minTokensOut","type":"uint256"}],"name":"buy","outputs":[{"internalType":"uint256","name":"tokensOut","type":"uint256"}],"stateMutability":"payable","type":"function"},{"inputs":[],"name":"cooldownSeconds","outputs":[{"internalType":"uint256","name":"","type":"uint256"}],"stateMutability":"view","type":"function"},{"inputs":[],"name":"factory","outputs":[{"internalType":"contract ITokenFactory","name":"","type":"address"}],"stateMutability":"view","type":"function"},{"inputs":[],"name":"feeVault","outputs":[{"internalType":"address","name":"","type":"address"}],"stateMutability":"view","type":"function"},{"inputs":[{"internalType":"address","name":"token","type":"address"},{"internalType":"uint256","name":"nativeIn","type":"uint256"}],"name":"getBuyQuote","outputs":[{"internalType":"uint256","name":"tokensOut","type":"uint256"},{"internalType":"uint256","name":"fee","type":"uint256"}],"stateMutability":"view","type":"function"},{"inputs":[{"internalType":"address","name":"token","type":"address"}],"name":"getMarketState","outputs":[{"components":[{"internalType":"uint256","name":"nativeReserve","type":"uint256"},{"internalType":"uint256","name":"tokenReserve","type":"uint256"},{"internalType":"uint256","name":"totalRaisedNative","type":"uint256"},{"internalType":"uint256","name":"tradingStartTime","type":"uint256"},{"internalType":"bool","name":"graduated","type":"bool"},{"internalType":"bool","name":"initialized","type":"bool"}],"internalType":"struct HoneycombBondingCurveMarket.MarketState","name":"","type":"tuple"}],"stateMutability":"view","type":"function"},{"inputs":[{"internalType":"address","name":"token","type":"address"}],"name":"getPrice","outputs":[{"internalType":"uint256","name":"","type":"uint256"}],"stateMutability":"view","type":"function"},{"inputs":[{"internalType":"address","name":"token","type":"address"},{"internalType":"uint256","name":"tokenAmountIn","type":"uint256"}],"name":"getSellQuote","outputs":[{"internalType":"uint256","name":"nativeOut","type":"uint256"},{"internalType":"uint256","name":"fee","type":"uint256"}],"stateMutability":"view","type":"function"},{"inputs":[],"name":"graduationThreshold","outputs":[{"internalType":"uint256","name":"","type":"uint256"}],"stateMutability":"view","type":"function"},{"inputs":[],"name":"initialVirtualNative","outputs":[{"internalType":"uint256","name":"","type":"uint256"}],"stateMutability":"view","type":"function"},{"inputs":[],"name":"initialVirtualToken","outputs":[{"internalType":"uint256","name":"","type":"uint256"}],"stateMutability":"view","type":"function"},{"inputs":[{"internalType":"address","name":"token","type":"address"}],"name":"initializeMarket","outputs":[],"stateMutability":"nonpayable","type":"function"},{"inputs":[{"internalType":"address","name":"","type":"address"},{"internalType":"address","name":"","type":"address"}],"name":"lastTradeTime","outputs":[{"internalType":"uint256","name":"","type":"uint256"}],"stateMutability":"view","type":"function"},{"inputs":[],"name":"launchDelay","outputs":[{"internalType":"uint256","name":"","type":"uint256"}],"stateMutability":"view","type":"function"},{"inputs":[{"internalType":"address","name":"","type":"address"}],"name":"markets","outputs":[{"internalType":"uint256","name":"nativeReserve","type":"uint256"},{"internalType":"uint256","name":"tokenReserve","type":"uint256"},{"internalType":"uint256","name":"totalRaisedNative","type":"uint256"},{"internalType":"uint256","name":"tradingStartTime","type":"uint256"},{"internalType":"bool","name":"graduated","type":"bool"},{"internalType":"bool","name":"initialized","type":"bool"}],"stateMutability":"view","type":"function"},{"inputs":[],"name":"maxBuyPerTx","outputs":[{"internalType":"uint256","name":"","type":"uint256"}],"stateMutability":"view","type":"function"},{"inputs":[],"name":"owner","outputs":[{"internalType":"address","name":"","type":"address"}],"stateMutability":"view","type":"function"},{"inputs":[],"name":"renounceOwnership","outputs":[],"stateMutability":"nonpayable","type":"function"},{"inputs":[{"internalType":"address","name":"token","type":"address"},{"internalType":"uint256","name":"tokenAmountIn","type":"uint256"},{"internalType":"uint256","name":"minNativeOut","type":"uint256"}],"name":"sell","outputs":[{"internalType":"uint256","name":"nativeOut","type":"uint256"}],"stateMutability":"nonpayable","type":"function"},{"inputs":[{"internalType":"uint256","name":"_cooldown","type":"uint256"}],"name":"setCooldownSeconds","outputs":[],"stateMutability":"nonpayable","type":"function"},{"inputs":[{"internalType":"address","name":"_factory","type":"address"}],"name":"setFactory","outputs":[],"stateMutability":"nonpayable","type":"function"},{"inputs":[{"internalType":"address","name":"_feeVault","type":"address"}],"name":"setFeeVault","outputs":[],"stateMutability":"nonpayable","type":"function"},{"inputs":[{"internalType":"uint256","name":"_threshold","type":"uint256"}],"name":"setGraduationThreshold","outputs":[],"stateMutability":"nonpayable","type":"function"},{"inputs":[{"internalType":"uint256","name":"_delay","type":"uint256"}],"name":"setLaunchDelay","outputs":[],"stateMutability":"nonpayable","type":"function"},{"inputs":[{"internalType":"uint256","name":"_maxBuy","type":"uint256"}],"name":"setMaxBuyPerTx","outputs":[],"stateMutability":"nonpayable","type":"function"},{"inputs":[{"internalType":"address","name":"newOwner","type":"address"}],"name":"transferOwnership","outputs":[],"stateMutability":"nonpayable","type":"function"},{"stateMutability":"payable","type":"receive"}],"evm":{"bytecode":{"linkReferences":{},"object":"60806040523480156200001157600080fd5b50604051620014ea380380620014ea833981016040819052620000349162000129565b33806200005b57604051631e4fbdf760e01b81526000600482015260240160405180910390fd5b6200006681620000bc565b5060018055600280546001600160a01b03998a166001600160a01b0319918216179091556003805498909916971696909617909655600693909355600791909155600855600955600a91909155600b556200019a565b600080546001600160a01b038381166001600160a01b0319831681178455604051919092169283917f8be0079c531659141344cd1fd0a4f28419497f9722a3daafe3b4186f6b6457e09190a35050565b80516001600160a01b03811681146200012457600080fd5b919050565b600080600080600080600080610100898b0312156200014757600080fd5b62000152896200010c565b97506200016260208a016200010c565b60408a015160608b015160808c015160a08d015160c08e015160e0909e01519c9f949e50929c919b909a509198509650945092505050565b61134080620001aa6000396000f3fe6080604052600436106101bb5760003560e01c80638da5cb5b116100ec578063ccd325171161008a578063e1a4521811610064578063e1a4521814610528578063e8a89c761461053e578063f2fde38b146105ae578063f4640d3d146105ce57600080fd5b8063ccd32517146104e9578063cce7ec13146104ff578063e0e7e29b1461051257600080fd5b8063b8221bc4116100c6578063b8221bc414610488578063bf333f2c1461049e578063c45a0155146104b3578063c84ab9bb146104d357600080fd5b80638da5cb5b146103c25780638e8f294b146103e0578063a591f97f1461046857600080fd5b806352f5b3ef11610159578063715018a611610133578063715018a6146103575780637b5b11571461036c5780638aaae3051461038c5780638b0bc501146103ac57600080fd5b806352f5b3ef146102f75780635bb47808146103175780636a2724621461033757600080fd5b80632a869a4d116101955780632a869a4d1461024757806339b1d8531461026757806341976e091461029f578063478222c2146102bf57600080fd5b80630a1ffab7146101c7578063177320a6146101e95780631bf6e9581461021257600080fd5b366101c257005b600080fd5b3480156101d357600080fd5b506101e76101e2366004611193565b6105ee565b005b3480156101f557600080fd5b506101ff60085481565b6040519081526020015b60405180910390f35b34801561021e57600080fd5b5061023261022d3660046111c8565b6105fb565b60408051928352602083019190915201610209565b34801561025357600080fd5b506101e76102623660046111f2565b6106aa565b34801561027357600080fd5b506101ff61028236600461120d565b600560209081526000928352604080842090915290825290205481565b3480156102ab57600080fd5b506101ff6102ba3660046111f2565b610804565b3480156102cb57600080fd5b506003546102df906001600160a01b031681565b6040516001600160a01b039091168152602001610209565b34801561030357600080fd5b506101e7610312366004611193565b610870565b34801561032357600080fd5b506101e76103323660046111f2565b61087d565b34801561034357600080fd5b506101ff610352366004611240565b6108a7565b34801561036357600080fd5b506101e7610ae9565b34801561037857600080fd5b506101e7610387366004611193565b610afd565b34801561039857600080fd5b506102326103a73660046111c8565b610b0a565b3480156103b857600080fd5b506101ff60065481565b3480156103ce57600080fd5b506000546001600160a01b03166102df565b3480156103ec57600080fd5b506104376103fb3660046111f2565b60046020819052600091825260409091208054600182015460028301546003840154939094015491939092909160ff8082169161010090041686565b60408051968752602087019590955293850192909252606084015215156080830152151560a082015260c001610209565b34801561047457600080fd5b506101e76104833660046111f2565b610bb1565b34801561049457600080fd5b506101ff60075481565b3480156104aa57600080fd5b506101ff606481565b3480156104bf57600080fd5b506002546102df906001600160a01b031681565b3480156104df57600080fd5b506101ff600a5481565b3480156104f557600080fd5b506101ff600b5481565b6101ff61050d3660046111c8565b610bdb565b34801561051e57600080fd5b506101ff60095481565b34801561053457600080fd5b506101ff61271081565b34801561054a57600080fd5b5061055e6105593660046111f2565b610e42565b6040516102099190600060c0820190508251825260208301516020830152604083015160408301526060830151606083015260808301511515608083015260a0830151151560a083015292915050565b3480156105ba57600080fd5b506101e76105c93660046111f2565b610ee9565b3480156105da57600080fd5b506101e76105e9366004611193565b610f2c565b6105f6610f39565b600855565b6001600160a01b0382166000908152600460208190526040822090810154829190610100900460ff166106355760008092509250506106a3565b6001810154815460009161064891611289565b9050600085836001015461065c91906112a0565b9050600061066a82846112b3565b845461067691906112d5565b9050612710610686606483611289565b61069091906112b3565b945061069c85826112d5565b9550505050505b9250929050565b6002546040516301c0049560e01b81526001600160a01b038381166004830152909116906301c0049590602401602060405180830381865afa1580156106f4573d6000803e3d6000fd5b505050506040513d601f19601f8201168201806040525081019061071891906112e8565b610735576040516306a5eecf60e31b815260040160405180910390fd5b6001600160a01b038116600090815260046020819052604090912090810154610100900460ff161561077a57604051630fa3c9cf60e01b815260040160405180910390fd5b600a548155600b54600182015560095461079490426112a0565b6003820181905560048201805461ff001916610100179055600a54600b546040805192835260208301919091528101919091526001600160a01b038316907f2a354e668c151ff9311d8a93777114b51fa93cd9cbc66cdc2ce8755c52c4d60b906060015b60405180910390a25050565b6001600160a01b0381166000908152600460208190526040822090810154610100900460ff16158061083857506001810154155b156108465750600092915050565b6001810154815461085f90670de0b6b3a7640000611289565b61086991906112b3565b9392505050565b610878610f39565b600655565b610885610f39565b600280546001600160a01b0319166001600160a01b0392909216919091179055565b60006108b1610f66565b826000036108d257604051631f2a200560e01b815260040160405180910390fd5b6001600160a01b03841660009081526004602052604090206108f48582610f90565b6001810154815460009161090791611289565b9050600085836001015461091b91906112a0565b9050600061092982846112b3565b9050600081856000015461093d91906112d5565b9050600061271061094f606484611289565b61095991906112b3565b905061096581836112d5565b96508787101561098857604051638199f5f360e01b815260040160405180910390fd5b478711156109a957604051634969f53160e11b815260040160405180910390fd5b828655600186018490556001600160a01b038a166000818152600560209081526040808320338085529252918290204290559051632770a7eb60e21b81526004810191909152602481018b9052639dc29fac90604401600060405180830381600087803b158015610a1957600080fd5b505af1158015610a2d573d6000803e3d6000fd5b5050600354610a4892506001600160a01b031690508261105a565b610a52338861105a565b6001860154865460009190610a6f90670de0b6b3a7640000611289565b610a7991906112b3565b6040805160008152602081018690529081018c9052606081018490526080810182905290915033906001600160a01b038d16907f9adcf0ad0cda63c4d50f26a48925cf6405df27d422a39c456b5f03f661c829829060a00160405180910390a35050505050505061086960018055565b610af1610f39565b610afb60006110d3565b565b610b05610f39565b600755565b6001600160a01b0382166000908152600460208190526040822090810154829190610100900460ff16610b445760008092509250506106a3565b612710610b52606486611289565b610b5c91906112b3565b91506000610b6a83866112d5565b9050600082600101548360000154610b829190611289565b90506000828460000154610b9691906112a0565b9050610ba281836112b3565b846001015461069c91906112d5565b610bb9610f39565b600380546001600160a01b0319166001600160a01b0392909216919091179055565b6000610be5610f66565b34600003610c0657604051631f2a200560e01b815260040160405180910390fd5b6001600160a01b0383166000908152600460205260409020610c288482610f90565b6000612710610c38606434611289565b610c4291906112b3565b90506000610c5082346112d5565b9050600083600101548460000154610c689190611289565b90506000828560000154610c7c91906112a0565b90506000610c8a82846112b3565b9050808660010154610c9c91906112d5565b965087871015610cbf57604051638199f5f360e01b815260040160405180910390fd5b600854871115610ce257604051638fb28fd960e01b815260040160405180910390fd5b81865560018601819055600286018054859190600090610d039084906112a0565b90915550506001600160a01b03808a1660009081526005602090815260408083203384529091529020429055600354610d3d91168661105a565b6040516340c10f1960e01b8152336004820152602481018890526001600160a01b038a16906340c10f1990604401600060405180830381600087803b158015610d8557600080fd5b505af1158015610d99573d6000803e3d6000fd5b5050506001870154875460009250610db990670de0b6b3a7640000611289565b610dc391906112b3565b60408051600181523460208201529081018a9052606081018890526080810182905290915033906001600160a01b038c16907f9adcf0ad0cda63c4d50f26a48925cf6405df27d422a39c456b5f03f661c829829060a00160405180910390a3610e2c8a88611123565b50505050505050610e3c60018055565b92915050565b610e7f6040518060c00160405280600081526020016000815260200160008152602001600081526020016000151581526020016000151581525090565b506001600160a01b0316600090815260046020818152604092839020835160c081018552815481526001820154928101929092526002810154938201939093526003830154606082015291015460ff8082161515608084015261010090910416151560a082015290565b610ef1610f39565b6001600160a01b038116610f2057604051631e4fbdf760e01b8152600060048201526024015b60405180910390fd5b610f29816110d3565b50565b610f34610f39565b600955565b6000546001600160a01b03163314610afb5760405163118cdaa760e01b8152336004820152602401610f17565b600260015403610f8957604051633ee5aeb560e01b815260040160405180910390fd5b6002600155565b6004810154610100900460ff16610fba57604051633636bb1f60e21b815260040160405180910390fd5b600481015460ff1615610fe0576040516369107eb960e01b815260040160405180910390fd5b80600301544210156110055760405163159eeb7d60e31b815260040160405180910390fd5b6007546001600160a01b038316600090815260056020908152604080832033845290915290205461103691906112a0565b4210156110565760405163aa9a98df60e01b815260040160405180910390fd5b5050565b6000826001600160a01b03168260405160006040518083038185875af1925050503d80600081146110a7576040519150601f19603f3d011682016040523d82523d6000602084013e6110ac565b606091505b50509050806110ce576040516312171d8360e31b815260040160405180910390fd5b505050565b600080546001600160a01b038381166001600160a01b0319831681178455604051919092169283917f8be0079c531659141344cd1fd0a4f28419497f9722a3daafe3b4186f6b6457e09190a35050565b600481015460ff1615801561113e5750600654816002015410155b156110565760048101805460ff1916600117905560028101546040516001600160a01b038416917f3a11b9c0ca38b86101cb9e6e1dd2f752c31467c6eaa353f931b801a338406de6916107f891815260200190565b6000602082840312156111a557600080fd5b5035919050565b80356001600160a01b03811681146111c357600080fd5b919050565b600080604083850312156111db57600080fd5b6111e4836111ac565b946020939093013593505050565b60006020828403121561120457600080fd5b610869826111ac565b6000806040838503121561122057600080fd5b611229836111ac565b9150611237602084016111ac565b90509250929050565b60008060006060848603121561125557600080fd5b61125e846111ac565b95602085013595506040909401359392505050565b634e487b7160e01b600052601160045260246000fd5b8082028115828204841417610e3c57610e3c611273565b80820180821115610e3c57610e3c611273565b6000826112d057634e487b7160e01b600052601260045260246000fd5b500490565b81810381811115610e3c57610e3c611273565b6000602082840312156112fa57600080fd5b8151801515811461086957600080fdfea26469706673582212209752a52615b1f3bb0e990c3d6a8c72afe2c57417964b25a989c3af266db8fd7664736f6c63430008180033","opcodes":"PUSH1 0x80 PUSH1 0x40 MSTORE CALLVALUE DUP1 ISZERO PUSH3 0x11 JUMPI PUSH1 0x0 DUP1 REVERT JUMPDEST POP PUSH1 0x40 MLOAD PUSH3 0x14EA CODESIZE SUB DUP1 PUSH3 0x14EA DUP4 CODECOPY DUP2 ADD PUSH1 0x40 DUP2 SWAP1 MSTORE PUSH3 0x34 SWAP2 PUSH3 0x129 JUMP JUMPDEST CALLER DUP1 PUSH3 0x5B JUMPI PUSH1 0x40 MLOAD PUSH4 0x1E4FBDF7 PUSH1 0xE0 SHL DUP2 MSTORE PUSH1 0x0 PUSH1 0x4 DUP3 ADD MSTORE PUSH1 0x24 ADD PUSH1 0x40 MLOAD DUP1 SWAP2 SUB SWAP1 REVERT JUMPDEST PUSH3 0x66 DUP2 PUSH3 0xBC JUMP JUMPDEST POP PUSH1 0x1 DUP1 SSTORE PUSH1 0x2 DUP1 SLOAD PUSH1 0x1 PUSH1 0x1 PUSH1 0xA0 SHL SUB SWAP10 DUP11 AND PUSH1 0x1 PUSH1 0x1 PUSH1 0xA0 SHL SUB NOT SWAP2 DUP3 AND OR SWAP1 SWAP2 SSTORE PUSH1 0x3 DUP1 SLOAD SWAP9 SWAP1 SWAP10 AND SWAP8 AND SWAP7 SWAP1 SWAP7 OR SWAP1 SWAP7 SSTORE PUSH1 0x6 SWAP4 SWAP1 SWAP4 SSTORE PUSH1 0x7 SWAP2 SWAP1 SWAP2 SSTORE PUSH1 0x8 SSTORE PUSH1 0x9 SSTORE PUSH1 0xA SWAP2 SWAP1 SWAP2 SSTORE PUSH1 0xB SSTORE PUSH3 0x19A JUMP JUMPDEST PUSH1 0x0 DUP1 SLOAD PUSH1 0x1 PUSH1 0x1 PUSH1 0xA0 SHL SUB DUP4 DUP2 AND PUSH1 0x1 PUSH1 0x1 PUSH1 0xA0 SHL SUB NOT DUP4 AND DUP2 OR DUP5 SSTORE PUSH1 0x40 MLOAD SWAP2 SWAP1 SWAP3 AND SWAP3 DUP4 SWAP2 PUSH32 0x8BE0079C531659141344CD1FD0A4F28419497F9722A3DAAFE3B4186F6B6457E0 SWAP2 SWAP1 LOG3 POP POP JUMP JUMPDEST DUP1 MLOAD PUSH1 0x1 PUSH1 0x1 PUSH1 0xA0 SHL SUB DUP2 AND DUP2 EQ PUSH3 0x124 JUMPI PUSH1 0x0 DUP1 REVERT JUMPDEST SWAP2 SWAP1 POP JUMP JUMPDEST PUSH1 0x0 DUP1 PUSH1 0x0 DUP1 PUSH1 0x0 DUP1 PUSH1 0x0 DUP1 PUSH2 0x100 DUP10 DUP12 SUB SLT ISZERO PUSH3 0x147 JUMPI PUSH1 0x0 DUP1 REVERT JUMPDEST PUSH3 0x152 DUP10 PUSH3 0x10C JUMP JUMPDEST SWAP8 POP PUSH3 0x162 PUSH1 0x20 DUP11 ADD PUSH3 0x10C JUMP JUMPDEST PUSH1 0x40 DUP11 ADD MLOAD PUSH1 0x60 DUP12 ADD MLOAD PUSH1 0x80 DUP13 ADD MLOAD PUSH1 0xA0 DUP14 ADD MLOAD PUSH1 0xC0 DUP15 ADD MLOAD PUSH1 0xE0 SWAP1 SWAP15 ADD MLOAD SWAP13 SWAP16 SWAP5 SWAP15 POP SWAP3 SWAP13 SWAP2 SWAP12 SWAP1 SWAP11 POP SWAP2 SWAP9 POP SWAP7 POP SWAP5 POP SWAP3 POP POP POP JUMP JUMPDEST PUSH2 0x1340 DUP1 PUSH3 0x1AA PUSH1 0x0 CODECOPY PUSH1 0x0 RETURN INVALID PUSH1 0x80 PUSH1 0x40 MSTORE PUSH1 0x4 CALLDATASIZE LT PUSH2 0x1BB JUMPI PUSH1 0x0 CALLDATALOAD PUSH1 0xE0 SHR DUP1 PUSH4 0x8DA5CB5B GT PUSH2 0xEC JUMPI DUP1 PUSH4 0xCCD32517 GT PUSH2 0x8A JUMPI DUP1 PUSH4 0xE1A45218 GT PUSH2 0x64 JUMPI DUP1 PUSH4 0xE1A45218 EQ PUSH2 0x528 JUMPI DUP1 PUSH4 0xE8A89C76 EQ PUSH2 0x53E JUMPI DUP1 PUSH4 0xF2FDE38B EQ PUSH2 0x5AE JUMPI DUP1 PUSH4 0xF4640D3D EQ PUSH2 0x5CE JUMPI PUSH1 0x0 DUP1 REVERT JUMPDEST DUP1 PUSH4 0xCCD32517 EQ PUSH2 0x4E9 JUMPI DUP1 PUSH4 0xCCE7EC13 EQ PUSH2 0x4FF JUMPI DUP1 PUSH4 0xE0E7E29B EQ PUSH2 0x512 JUMPI PUSH1 0x0 DUP1 REVERT JUMPDEST DUP1 PUSH4 0xB8221BC4 GT PUSH2 0xC6 JUMPI DUP1 PUSH4 0xB8221BC4 EQ PUSH2 0x488 JUMPI DUP1 PUSH4 0xBF333F2C EQ PUSH2 0x49E JUMPI DUP1 PUSH4 0xC45A0155 EQ PUSH2 0x4B3 JUMPI DUP1 PUSH4 0xC84AB9BB EQ PUSH2 0x4D3 JUMPI PUSH1 0x0 DUP1 REVERT JUMPDEST DUP1 PUSH4 0x8DA5CB5B EQ PUSH2 0x3C2 JUMPI DUP1 PUSH4 0x8E8F294B EQ PUSH2 0x3E0 JUMPI DUP1 PUSH4 0xA591F97F EQ PUSH2 0x468 JUMPI PUSH1 0x0 DUP1 REVERT JUMPDEST DUP1 PUSH4 0x52F5B3EF GT PUSH2 0x159 JUMPI DUP1 PUSH4 0x715018A6 GT PUSH2 0x133 JUMPI DUP1 PUSH4 0x715018A6 EQ PUSH2 0x357 JUMPI DUP1 PUSH4 0x7B5B1157 EQ PUSH2 0x36C JUMPI DUP1 PUSH4 0x8AAAE305 EQ PUSH2 0x38C JUMPI DUP1 PUSH4 0x8B0BC501 EQ PUSH2 0x3AC JUMPI PUSH1 0x0 DUP1 REVERT JUMPDEST DUP1 PUSH4 0x52F5B3EF EQ PUSH2 0x2F7 JUMPI DUP1 PUSH4 0x5BB47808 EQ PUSH2 0x317 JUMPI DUP1 PUSH4 0x6A272462 EQ PUSH2 0x337 JUMPI PUSH1 0x0 DUP1 REVERT JUMPDEST DUP1 PUSH4 0x2A869A4D GT PUSH2 0x195 JUMPI DUP1 PUSH4 0x2A869A4D EQ PUSH2 0x247 JUMPI DUP1 PUSH4 0x39B1D853 EQ PUSH2 0x267 JUMPI DUP1 PUSH4 0x41976E09 EQ PUSH2 0x29F JUMPI DUP1 PUSH4 0x478222C2 EQ PUSH2 0x2BF JUMPI PUSH1 0x0 DUP1 REVERT JUMPDEST DUP1 PUSH4 0xA1FFAB7 EQ PUSH2 0x1C7 JUMPI DUP1 PUSH4 0x177320A6 EQ PUSH2 0x1E9 JUMPI DUP1 PUSH4 0x1BF6E958 EQ PUSH2 0x212 JUMPI PUSH1 0x0 DUP1 REVERT JUMPDEST CALLDATASIZE PUSH2 0x1C2 JUMPI STOP JUMPDEST PUSH1 0x0 DUP1 REVERT JUMPDEST CALLVALUE DUP1 ISZERO PUSH2 0x1D3 JUMPI PUSH1 0x0 DUP1 REVERT JUMPDEST POP PUSH2 0x1E7 PUSH2 0x1E2 CALLDATASIZE PUSH1 0x4 PUSH2 0x1193 JUMP JUMPDEST PUSH2 0x5EE JUMP JUMPDEST STOP JUMPDEST CALLVALUE DUP1 ISZERO PUSH2 0x1F5 JUMPI PUSH1 0x0 DUP1 REVERT JUMPDEST POP PUSH2 0x1FF PUSH1 0x8 SLOAD DUP2 JUMP JUMPDEST PUSH1 0x40 MLOAD SWAP1 DUP2 MSTORE PUSH1 0x20 ADD JUMPDEST PUSH1 0x40 MLOAD DUP1 SWAP2 SUB SWAP1 RETURN JUMPDEST CALLVALUE DUP1 ISZERO PUSH2 0x21E JUMPI PUSH1 0x0 DUP1 REVERT JUMPDEST POP PUSH2 0x232 PUSH2 0x22D CALLDATASIZE PUSH1 0x4 PUSH2 0x11C8 JUMP JUMPDEST PUSH2 0x5FB JUMP JUMPDEST PUSH1 0x40 DUP1 MLOAD SWAP3 DUP4 MSTORE PUSH1 0x20 DUP4 ADD SWAP2 SWAP1 SWAP2 MSTORE ADD PUSH2 0x209 JUMP JUMPDEST CALLVALUE DUP1 ISZERO PUSH2 0x253 JUMPI PUSH1 0x0 DUP1 REVERT JUMPDEST POP PUSH2 0x1E7 PUSH2 0x262 CALLDATASIZE PUSH1 0x4 PUSH2 0x11F2 JUMP JUMPDEST PUSH2 0x6AA JUMP JUMPDEST CALLVALUE DUP1 ISZERO PUSH2 0x273 JUMPI PUSH1 0x0 DUP1 REVERT JUMPDEST POP PUSH2 0x1FF PUSH2 0x282 CALLDATASIZE PUSH1 0x4 PUSH2 0x120D JUMP JUMPDEST PUSH1 0x5 PUSH1 0x20 SWAP1 DUP2 MSTORE PUSH1 0x0 SWAP3 DUP4 MSTORE PUSH1 0x40 DUP1 DUP5 KECCAK256 SWAP1 SWAP2 MSTORE SWAP1 DUP3 MSTORE SWAP1 KECCAK256 SLOAD DUP2 JUMP JUMPDEST CALLVALUE DUP1 ISZERO PUSH2 0x2AB JUMPI PUSH1 0x0 DUP1 REVERT JUMPDEST POP PUSH2 0x1FF PUSH2 0x2BA CALLDATASIZE PUSH1 0x4 PUSH2 0x11F2 JUMP JUMPDEST PUSH2 0x804 JUMP JUMPDEST CALLVALUE DUP1 ISZERO PUSH2 0x2CB JUMPI PUSH1 0x0 DUP1 REVERT JUMPDEST POP PUSH1 0x3 SLOAD PUSH2 0x2DF SWAP1 PUSH1 0x1 PUSH1 0x1 PUSH1 0xA0 SHL SUB AND DUP2 JUMP JUMPDEST PUSH1 0x40 MLOAD PUSH1 0x1 PUSH1 0x1 PUSH1 0xA0 SHL SUB SWAP1 SWAP2 AND DUP2 MSTORE PUSH1 0x20 ADD PUSH2 0x209 JUMP JUMPDEST CALLVALUE DUP1 ISZERO PUSH2 0x303 JUMPI PUSH1 0x0 DUP1 REVERT JUMPDEST POP PUSH2 0x1E7 PUSH2 0x312 CALLDATASIZE PUSH1 0x4 PUSH2 0x1193 JUMP JUMPDEST PUSH2 0x870 JUMP JUMPDEST CALLVALUE DUP1 ISZERO PUSH2 0x323 JUMPI PUSH1 0x0 DUP1 REVERT JUMPDEST POP PUSH2 0x1E7 PUSH2 0x332 CALLDATASIZE PUSH1 0x4 PUSH2 0x11F2 JUMP JUMPDEST PUSH2 0x87D JUMP JUMPDEST CALLVALUE DUP1 ISZERO PUSH2 0x343 JUMPI PUSH1 0x0 DUP1 REVERT JUMPDEST POP PUSH2 0x1FF PUSH2 0x352 CALLDATASIZE PUSH1 0x4 PUSH2 0x1240 JUMP JUMPDEST PUSH2 0x8A7 JUMP JUMPDEST CALLVALUE DUP1 ISZERO PUSH2 0x363 JUMPI PUSH1 0x0 DUP1 REVERT JUMPDEST POP PUSH2 0x1E7 PUSH2 0xAE9 JUMP JUMPDEST CALLVALUE DUP1 ISZERO PUSH2 0x378 JUMPI PUSH1 0x0 DUP1 REVERT JUMPDEST POP PUSH2 0x1E7 PUSH2 0x387 CALLDATASIZE PUSH1 0x4 PUSH2 0x1193 JUMP JUMPDEST PUSH2 0xAFD JUMP JUMPDEST CALLVALUE DUP1 ISZERO PUSH2 0x398 JUMPI PUSH1 0x0 DUP1 REVERT JUMPDEST POP PUSH2 0x232 PUSH2 0x3A7 CALLDATASIZE PUSH1 0x4 PUSH2 0x11C8 JUMP JUMPDEST PUSH2 0xB0A JUMP JUMPDEST CALLVALUE DUP1 ISZERO PUSH2 0x3B8 JUMPI PUSH1 0x0 DUP1 REVERT JUMPDEST POP PUSH2 0x1FF PUSH1 0x6 SLOAD DUP2 JUMP JUMPDEST CALLVALUE DUP1 ISZERO PUSH2 0x3CE JUMPI PUSH1 0x0 DUP1 REVERT JUMPDEST POP PUSH1 0x0 SLOAD PUSH1 0x1 PUSH1 0x1 PUSH1 0xA0 SHL SUB AND PUSH2 0x2DF JUMP JUMPDEST CALLVALUE DUP1 ISZERO PUSH2 0x3EC JUMPI PUSH1 0x0 DUP1 REVERT JUMPDEST POP PUSH2 0x437 PUSH2 0x3FB CALLDATASIZE PUSH1 0x4 PUSH2 0x11F2 JUMP JUMPDEST PUSH1 0x4 PUSH1 0x20 DUP2 SWAP1 MSTORE PUSH1 0x0 SWAP2 DUP3 MSTORE PUSH1 0x40 SWAP1 SWAP2 KECCAK256 DUP1 SLOAD PUSH1 0x1 DUP3 ADD SLOAD PUSH1 0x2 DUP4 ADD SLOAD PUSH1 0x3 DUP5 ADD SLOAD SWAP4 SWAP1 SWAP5 ADD SLOAD SWAP2 SWAP4 SWAP1 SWAP3 SWAP1 SWAP2 PUSH1 0xFF DUP1 DUP3 AND SWAP2 PUSH2 0x100 SWAP1 DIV AND DUP7 JUMP JUMPDEST PUSH1 0x40 DUP1 MLOAD SWAP7 DUP8 MSTORE PUSH1 0x20 DUP8 ADD SWAP6 SWAP1 SWAP6 MSTORE SWAP4 DUP6 ADD SWAP3 SWAP1 SWAP3 MSTORE PUSH1 0x60 DUP5 ADD MSTORE ISZERO ISZERO PUSH1 0x80 DUP4 ADD MSTORE ISZERO ISZERO PUSH1 0xA0 DUP3 ADD MSTORE PUSH1 0xC0 ADD PUSH2 0x209 JUMP JUMPDEST CALLVALUE DUP1 ISZERO PUSH2 0x474 JUMPI PUSH1 0x0 DUP1 REVERT JUMPDEST POP PUSH2 0x1E7 PUSH2 0x483 CALLDATASIZE PUSH1 0x4 PUSH2 0x11F2 JUMP JUMPDEST PUSH2 0xBB1 JUMP JUMPDEST CALLVALUE DUP1 ISZERO PUSH2 0x494 JUMPI PUSH1 0x0 DUP1 REVERT JUMPDEST POP PUSH2 0x1FF PUSH1 0x7 SLOAD DUP2 JUMP JUMPDEST CALLVALUE DUP1 ISZERO PUSH2 0x4AA JUMPI PUSH1 0x0 DUP1 REVERT JUMPDEST POP PUSH2 0x1FF PUSH1 0x64 DUP2 JUMP JUMPDEST CALLVALUE DUP1 ISZERO PUSH2 0x4BF JUMPI PUSH1 0x0 DUP1 REVERT JUMPDEST POP PUSH1 0x2 SLOAD PUSH2 0x2DF SWAP1 PUSH1 0x1 PUSH1 0x1 PUSH1 0xA0 SHL SUB AND DUP2 JUMP JUMPDEST CALLVALUE DUP1 ISZERO PUSH2 0x4DF JUMPI PUSH1 0x0 DUP1 REVERT JUMPDEST POP PUSH2 0x1FF PUSH1 0xA SLOAD DUP2 JUMP JUMPDEST CALLVALUE DUP1 ISZERO PUSH2 0x4F5 JUMPI PUSH1 0x0 DUP1 REVERT JUMPDEST POP PUSH2 0x1FF PUSH1 0xB SLOAD DUP2 JUMP JUMPDEST PUSH2 0x1FF PUSH2 0x50D CALLDATASIZE PUSH1 0x4 PUSH2 0x11C8 JUMP JUMPDEST PUSH2 0xBDB JUMP JUMPDEST CALLVALUE DUP1 ISZERO PUSH2 0x51E JUMPI PUSH1 0x0 DUP1 REVERT JUMPDEST POP PUSH2 0x1FF PUSH1 0x9 SLOAD DUP2 JUMP JUMPDEST CALLVALUE DUP1 ISZERO PUSH2 0x534 JUMPI PUSH1 0x0 DUP1 REVERT JUMPDEST POP PUSH2 0x1FF PUSH2 0x2710 DUP2 JUMP JUMPDEST CALLVALUE DUP1 ISZERO PUSH2 0x54A JUMPI PUSH1 0x0 DUP1 REVERT JUMPDEST POP PUSH2 0x55E PUSH2 0x559 CALLDATASIZE PUSH1 0x4 PUSH2 0x11F2 JUMP JUMPDEST PUSH2 0xE42 JUMP JUMPDEST PUSH1 0x40 MLOAD PUSH2 0x209 SWAP2 SWAP1 PUSH1 0x0 PUSH1 0xC0 DUP3 ADD SWAP1 POP DUP3 MLOAD DUP3 MSTORE PUSH1 0x20 DUP4 ADD MLOAD PUSH1 0x20 DUP4 ADD MSTORE PUSH1 0x40 DUP4 ADD MLOAD PUSH1 0x40 DUP4 ADD MSTORE PUSH1 0x60 DUP4 ADD MLOAD PUSH1 0x60 DUP4 ADD MSTORE PUSH1 0x80 DUP4 ADD MLOAD ISZERO ISZERO PUSH1 0x80 DUP4 ADD MSTORE PUSH1 0xA0 DUP4 ADD MLOAD ISZERO ISZERO PUSH1 0xA0 DUP4 ADD MSTORE SWAP3 SWAP2 POP POP JUMP JUMPDEST CALLVALUE DUP1 ISZERO PUSH2 0x5BA JUMPI PUSH1 0x0 DUP1 REVERT JUMPDEST POP PUSH2 0x1E7 PUSH2 0x5C9 CALLDATASIZE PUSH1 0x4 PUSH2 0x11F2 JUMP JUMPDEST PUSH2 0xEE9 JUMP JUMPDEST CALLVALUE DUP1 ISZERO PUSH2 0x5DA JUMPI PUSH1 0x0 DUP1 REVERT JUMPDEST POP PUSH2 0x1E7 PUSH2 0x5E9 CALLDATASIZE PUSH1 0x4 PUSH2 0x1193 JUMP JUMPDEST PUSH2 0xF2C JUMP JUMPDEST PUSH2 0x5F6 PUSH2 0xF39 JUMP JUMPDEST PUSH1 0x8 SSTORE JUMP JUMPDEST PUSH1 0x1 PUSH1 0x1 PUSH1 0xA0 SHL SUB DUP3 AND PUSH1 0x0 SWAP1 DUP2 MSTORE PUSH1 0x4 PUSH1 0x20 DUP2 SWAP1 MSTORE PUSH1 0x40 DUP3 KECCAK256 SWAP1 DUP2 ADD SLOAD DUP3 SWAP2 SWAP1 PUSH2 0x100 SWAP1 DIV PUSH1 0xFF AND PUSH2 0x635 JUMPI PUSH1 0x0 DUP1 SWAP3 POP SWAP3 POP POP PUSH2 0x6A3 JUMP JUMPDEST PUSH1 0x1 DUP2 ADD SLOAD DUP2 SLOAD PUSH1 0x0 SWAP2 PUSH2 0x648 SWAP2 PUSH2 0x1289 JUMP JUMPDEST SWAP1 POP PUSH1 0x0 DUP6 DUP4 PUSH1 0x1 ADD SLOAD PUSH2 0x65C SWAP2 SWAP1 PUSH2 0x12A0 JUMP JUMPDEST SWAP1 POP PUSH1 0x0 PUSH2 0x66A DUP3 DUP5 PUSH2 0x12B3 JUMP JUMPDEST DUP5 SLOAD PUSH2 0x676 SWAP2 SWAP1 PUSH2 0x12D5 JUMP JUMPDEST SWAP1 POP PUSH2 0x2710 PUSH2 0x686 PUSH1 0x64 DUP4 PUSH2 0x1289 JUMP JUMPDEST PUSH2 0x690 SWAP2 SWAP1 PUSH2 0x12B3 JUMP JUMPDEST SWAP5 POP PUSH2 0x69C DUP6 DUP3 PUSH2 0x12D5 JUMP JUMPDEST SWAP6 POP POP POP POP POP JUMPDEST SWAP3 POP SWAP3 SWAP1 POP JUMP JUMPDEST PUSH1 0x2 SLOAD PUSH1 0x40 MLOAD PUSH4 0x1C00495 PUSH1 0xE0 SHL DUP2 MSTORE PUSH1 0x1 PUSH1 0x1 PUSH1 0xA0 SHL SUB DUP4 DUP2 AND PUSH1 0x4 DUP4 ADD MSTORE SWAP1 SWAP2 AND SWAP1 PUSH4 0x1C00495 SWAP1 PUSH1 0x24 ADD PUSH1 0x20 PUSH1 0x40 MLOAD DUP1 DUP4 SUB DUP2 DUP7 GAS STATICCALL ISZERO DUP1 ISZERO PUSH2 0x6F4 JUMPI RETURNDATASIZE PUSH1 0x0 DUP1 RETURNDATACOPY RETURNDATASIZE PUSH1 0x0 REVERT JUMPDEST POP POP POP POP PUSH1 0x40 MLOAD RETURNDATASIZE PUSH1 0x1F NOT PUSH1 0x1F DUP3 ADD AND DUP3 ADD DUP1 PUSH1 0x40 MSTORE POP DUP2 ADD SWAP1 PUSH2 0x718 SWAP2 SWAP1 PUSH2 0x12E8 JUMP JUMPDEST PUSH2 0x735 JUMPI PUSH1 0x40 MLOAD PUSH4 0x6A5EECF PUSH1 0xE3 SHL DUP2 MSTORE PUSH1 0x4 ADD PUSH1 0x40 MLOAD DUP1 SWAP2 SUB SWAP1 REVERT JUMPDEST PUSH1 0x1 PUSH1 0x1 PUSH1 0xA0 SHL SUB DUP2 AND PUSH1 0x0 SWAP1 DUP2 MSTORE PUSH1 0x4 PUSH1 0x20 DUP2 SWAP1 MSTORE PUSH1 0x40 SWAP1 SWAP2 KECCAK256 SWAP1 DUP2 ADD SLOAD PUSH2 0x100 SWAP1 DIV PUSH1 0xFF AND ISZERO PUSH2 0x77A JUMPI PUSH1 0x40 MLOAD PUSH4 0xFA3C9CF PUSH1 0xE0 SHL DUP2 MSTORE PUSH1 0x4 ADD PUSH1 0x40 MLOAD DUP1 SWAP2 SUB SWAP1 REVERT JUMPDEST PUSH1 0xA SLOAD DUP2 SSTORE PUSH1 0xB SLOAD PUSH1 0x1 DUP3 ADD SSTORE PUSH1 0x9 SLOAD PUSH2 0x794 SWAP1 TIMESTAMP PUSH2 0x12A0 JUMP JUMPDEST PUSH1 0x3 DUP3 ADD DUP2 SWAP1 SSTORE PUSH1 0x4 DUP3 ADD DUP1 SLOAD PUSH2 0xFF00 NOT AND PUSH2 0x100 OR SWAP1 SSTORE PUSH1 0xA SLOAD PUSH1 0xB SLOAD PUSH1 0x40 DUP1 MLOAD SWAP3 DUP4 MSTORE PUSH1 0x20 DUP4 ADD SWAP2 SWAP1 SWAP2 MSTORE DUP2 ADD SWAP2 SWAP1 SWAP2 MSTORE PUSH1 0x1 PUSH1 0x1 PUSH1 0xA0 SHL SUB DUP4 AND SWAP1 PUSH32 0x2A354E668C151FF9311D8A93777114B51FA93CD9CBC66CDC2CE8755C52C4D60B SWAP1 PUSH1 0x60 ADD JUMPDEST PUSH1 0x40 MLOAD DUP1 SWAP2 SUB SWAP1 LOG2 POP POP JUMP JUMPDEST PUSH1 0x1 PUSH1 0x1 PUSH1 0xA0 SHL SUB DUP2 AND PUSH1 0x0 SWAP1 DUP2 MSTORE PUSH1 0x4 PUSH1 0x20 DUP2 SWAP1 MSTORE PUSH1 0x40 DUP3 KECCAK256 SWAP1 DUP2 ADD SLOAD PUSH2 0x100 SWAP1 DIV PUSH1 0xFF AND ISZERO DUP1 PUSH2 0x838 JUMPI POP PUSH1 0x1 DUP2 ADD SLOAD ISZERO JUMPDEST ISZERO PUSH2 0x846 JUMPI POP PUSH1 0x0 SWAP3 SWAP2 POP POP JUMP JUMPDEST PUSH1 0x1 DUP2 ADD SLOAD DUP2 SLOAD PUSH2 0x85F SWAP1 PUSH8 0xDE0B6B3A7640000 PUSH2 0x1289 JUMP JUMPDEST PUSH2 0x869 SWAP2 SWAP1 PUSH2 0x12B3 JUMP JUMPDEST SWAP4 SWAP3 POP POP POP JUMP JUMPDEST PUSH2 0x878 PUSH2 0xF39 JUMP JUMPDEST PUSH1 0x6 SSTORE JUMP JUMPDEST PUSH2 0x885 PUSH2 0xF39 JUMP JUMPDEST PUSH1 0x2 DUP1 SLOAD PUSH1 0x1 PUSH1 0x1 PUSH1 0xA0 SHL SUB NOT AND PUSH1 0x1 PUSH1 0x1 PUSH1 0xA0 SHL SUB SWAP3 SWAP1 SWAP3 AND SWAP2 SWAP1 SWAP2 OR SWAP1 SSTORE JUMP JUMPDEST PUSH1 0x0 PUSH2 0x8B1 PUSH2 0xF66 JUMP JUMPDEST DUP3 PUSH1 0x0 SUB PUSH2 0x8D2 JUMPI PUSH1 0x40 MLOAD PUSH4 0x1F2A2005 PUSH1 0xE0 SHL DUP2 MSTORE PUSH1 0x4 ADD PUSH1 0x40 MLOAD DUP1 SWAP2 SUB SWAP1 REVERT JUMPDEST PUSH1 0x1 PUSH1 0x1 PUSH1 0xA0 SHL SUB DUP5 AND PUSH1 0x0 SWAP1 DUP2 MSTORE PUSH1 0x4 PUSH1 0x20 MSTORE PUSH1 0x40 SWAP1 KECCAK256 PUSH2 0x8F4 DUP6 DUP3 PUSH2 0xF90 JUMP JUMPDEST PUSH1 0x1 DUP2 ADD SLOAD DUP2 SLOAD PUSH1 0x0 SWAP2 PUSH2 0x907 SWAP2 PUSH2 0x1289 JUMP JUMPDEST SWAP1 POP PUSH1 0x0 DUP6 DUP4 PUSH1 0x1 ADD SLOAD PUSH2 0x91B SWAP2 SWAP1 PUSH2 0x12A0 JUMP JUMPDEST SWAP1 POP PUSH1 0x0 PUSH2 0x929 DUP3 DUP5 PUSH2 0x12B3 JUMP JUMPDEST SWAP1 POP PUSH1 0x0 DUP2 DUP6 PUSH1 0x0 ADD SLOAD PUSH2 0x93D SWAP2 SWAP1 PUSH2 0x12D5 JUMP JUMPDEST SWAP1 POP PUSH1 0x0 PUSH2 0x2710 PUSH2 0x94F PUSH1 0x64 DUP5 PUSH2 0x1289 JUMP JUMPDEST PUSH2 0x959 SWAP2 SWAP1 PUSH2 0x12B3 JUMP JUMPDEST SWAP1 POP PUSH2 0x965 DUP2 DUP4 PUSH2 0x12D5 JUMP JUMPDEST SWAP7 POP DUP8 DUP8 LT ISZERO PUSH2 0x988 JUMPI PUSH1 0x40 MLOAD PUSH4 0x8199F5F3 PUSH1 0xE0 SHL DUP2 MSTORE PUSH1 0x4 ADD PUSH1 0x40 MLOAD DUP1 SWAP2 SUB SWAP1 REVERT JUMPDEST SELFBALANCE DUP8 GT ISZERO PUSH2 0x9A9 JUMPI PUSH1 0x40 MLOAD PUSH4 0x4969F531 PUSH1 0xE1 SHL DUP2 MSTORE PUSH1 0x4 ADD PUSH1 0x40 MLOAD DUP1 SWAP2 SUB SWAP1 REVERT JUMPDEST DUP3 DUP7 SSTORE PUSH1 0x1 DUP7 ADD DUP5 SWAP1 SSTORE PUSH1 0x1 PUSH1 0x1 PUSH1 0xA0 SHL SUB DUP11 AND PUSH1 0x0 DUP2 DUP2 MSTORE PUSH1 0x5 PUSH1 0x20 SWAP1 DUP2 MSTORE PUSH1 0x40 DUP1 DUP4 KECCAK256 CALLER DUP1 DUP6 MSTORE SWAP3 MSTORE SWAP2 DUP3 SWAP1 KECCAK256 TIMESTAMP SWAP1 SSTORE SWAP1 MLOAD PUSH4 0x2770A7EB PUSH1 0xE2 SHL DUP2 MSTORE PUSH1 0x4 DUP2 ADD SWAP2 SWAP1 SWAP2 MSTORE PUSH1 0x24 DUP2 ADD DUP12 SWAP1 MSTORE PUSH4 0x9DC29FAC SWAP1 PUSH1 0x44 ADD PUSH1 0x0 PUSH1 0x40 MLOAD DUP1 DUP4 SUB DUP2 PUSH1 0x0 DUP8 DUP1 EXTCODESIZE ISZERO DUP1 ISZERO PUSH2 0xA19 JUMPI PUSH1 0x0 DUP1 REVERT JUMPDEST POP GAS CALL ISZERO DUP1 ISZERO PUSH2 0xA2D JUMPI RETURNDATASIZE PUSH1 0x0 DUP1 RETURNDATACOPY RETURNDATASIZE PUSH1 0x0 REVERT JUMPDEST POP POP PUSH1 0x3 SLOAD PUSH2 0xA48 SWAP3 POP PUSH1 0x1 PUSH1 0x1 PUSH1 0xA0 SHL SUB AND SWAP1 POP DUP3 PUSH2 0x105A JUMP JUMPDEST PUSH2 0xA52 CALLER DUP9 PUSH2 0x105A JUMP JUMPDEST PUSH1 0x1 DUP7 ADD SLOAD DUP7 SLOAD PUSH1 0x0 SWAP2 SWAP1 PUSH2 0xA6F SWAP1 PUSH8 0xDE0B6B3A7640000 PUSH2 0x1289 JUMP JUMPDEST PUSH2 0xA79 SWAP2 SWAP1 PUSH2 0x12B3 JUMP JUMPDEST PUSH1 0x40 DUP1 MLOAD PUSH1 0x0 DUP2 MSTORE PUSH1 0x20 DUP2 ADD DUP7 SWAP1 MSTORE SWAP1 DUP2 ADD DUP13 SWAP1 MSTORE PUSH1 0x60 DUP2 ADD DUP5 SWAP1 MSTORE PUSH1 0x80 DUP2 ADD DUP3 SWAP1 MSTORE SWAP1 SWAP2 POP CALLER SWAP1 PUSH1 0x1 PUSH1 0x1 PUSH1 0xA0 SHL SUB DUP14 AND SWAP1 PUSH32 0x9ADCF0AD0CDA63C4D50F26A48925CF6405DF27D422A39C456B5F03F661C82982 SWAP1 PUSH1 0xA0 ADD PUSH1 0x40 MLOAD DUP1 SWAP2 SUB SWAP1 LOG3 POP POP POP POP POP POP POP PUSH2 0x869 PUSH1 0x1 DUP1 SSTORE JUMP JUMPDEST PUSH2 0xAF1 PUSH2 0xF39 JUMP JUMPDEST PUSH2 0xAFB PUSH1 0x0 PUSH2 0x10D3 JUMP JUMPDEST JUMP JUMPDEST PUSH2 0xB05 PUSH2 0xF39 JUMP JUMPDEST PUSH1 0x7 SSTORE JUMP JUMPDEST PUSH1 0x1 PUSH1 0x1 PUSH1 0xA0 SHL SUB DUP3 AND PUSH1 0x0 SWAP1 DUP2 MSTORE PUSH1 0x4 PUSH1 0x20 DUP2 SWAP1 MSTORE PUSH1 0x40 DUP3 KECCAK256 SWAP1 DUP2 ADD SLOAD DUP3 SWAP2 SWAP1 PUSH2 0x100 SWAP1 DIV PUSH1 0xFF AND PUSH2 0xB44 JUMPI PUSH1 0x0 DUP1 SWAP3 POP SWAP3 POP POP PUSH2 0x6A3 JUMP JUMPDEST PUSH2 0x2710 PUSH2 0xB52 PUSH1 0x64 DUP7 PUSH2 0x1289 JUMP JUMPDEST PUSH2 0xB5C SWAP2 SWAP1 PUSH2 0x12B3 JUMP JUMPDEST SWAP2 POP PUSH1 0x0 PUSH2 0xB6A DUP4 DUP7 PUSH2 0x12D5 JUMP JUMPDEST SWAP1 POP PUSH1 0x0 DUP3 PUSH1 0x1 ADD SLOAD DUP4 PUSH1 0x0 ADD SLOAD PUSH2 0xB82 SWAP2 SWAP1 PUSH2 0x1289 JUMP JUMPDEST SWAP1 POP PUSH1 0x0 DUP3 DUP5 PUSH1 0x0 ADD SLOAD PUSH2 0xB96 SWAP2 SWAP1 PUSH2 0x12A0 JUMP JUMPDEST SWAP1 POP PUSH2 0xBA2 DUP2 DUP4 PUSH2 0x12B3 JUMP JUMPDEST DUP5 PUSH1 0x1 ADD SLOAD PUSH2 0x69C SWAP2 SWAP1 PUSH2 0x12D5 JUMP JUMPDEST PUSH2 0xBB9 PUSH2 0xF39 JUMP JUMPDEST PUSH1 0x3 DUP1 SLOAD PUSH1 0x1 PUSH1 0x1 PUSH1 0xA0 SHL SUB NOT AND PUSH1 0x1 PUSH1 0x1 PUSH1 0xA0 SHL SUB SWAP3 SWAP1 SWAP3 AND SWAP2 SWAP1 SWAP2 OR SWAP1 SSTORE JUMP JUMPDEST PUSH1 0x0 PUSH2 0xBE5 PUSH2 0xF66 JUMP JUMPDEST CALLVALUE PUSH1 0x0 SUB PUSH2 0xC06 JUMPI PUSH1 0x40 MLOAD PUSH4 0x1F2A2005 PUSH1 0xE0 SHL DUP2 MSTORE PUSH1 0x4 ADD PUSH1 0x40 MLOAD DUP1 SWAP2 SUB SWAP1 REVERT JUMPDEST PUSH1 0x1 PUSH1 0x1 PUSH1 0xA0 SHL SUB DUP4 AND PUSH1 0x0 SWAP1 DUP2 MSTORE PUSH1 0x4 PUSH1 0x20 MSTORE PUSH1 0x40 SWAP1 KECCAK256 PUSH2 0xC28 DUP5 DUP3 PUSH2 0xF90 JUMP JUMPDEST PUSH1 0x0 PUSH2 0x2710 PUSH2 0xC38 PUSH1 0x64 CALLVALUE PUSH2 0x1289 JUMP JUMPDEST PUSH2 0xC42 SWAP2 SWAP1 PUSH2 0x12B3 JUMP JUMPDEST SWAP1 POP PUSH1 0x0 PUSH2 0xC50 DUP3 CALLVALUE PUSH2 0x12D5 JUMP JUMPDEST SWAP1 POP PUSH1 0x0 DUP4 PUSH1 0x1 ADD SLOAD DUP5 PUSH1 0x0 ADD SLOAD PUSH2 0xC68 SWAP2 SWAP1 PUSH2 0x1289 JUMP JUMPDEST SWAP1 POP PUSH1 0x0 DUP3 DUP6 PUSH1 0x0 ADD SLOAD PUSH2 0xC7C SWAP2 SWAP1 PUSH2 0x12A0 JUMP JUMPDEST SWAP1 POP PUSH1 0x0 PUSH2 0xC8A DUP3 DUP5 PUSH2 0x12B3 JUMP JUMPDEST SWAP1 POP DUP1 DUP7 PUSH1 0x1 ADD SLOAD PUSH2 0xC9C SWAP2 SWAP1 PUSH2 0x12D5 JUMP JUMPDEST SWAP7 POP DUP8 DUP8 LT ISZERO PUSH2 0xCBF JUMPI PUSH1 0x40 MLOAD PUSH4 0x8199F5F3 PUSH1 0xE0 SHL DUP2 MSTORE PUSH1 0x4 ADD PUSH1 0x40 MLOAD DUP1 SWAP2 SUB SWAP1 REVERT JUMPDEST PUSH1 0x8 SLOAD DUP8 GT ISZERO PUSH2 0xCE2 JUMPI PUSH1 0x40 MLOAD PUSH4 0x8FB28FD9 PUSH1 0xE0 SHL DUP2 MSTORE PUSH1 0x4 ADD PUSH1 0x40 MLOAD DUP1 SWAP2 SUB SWAP1 REVERT JUMPDEST DUP2 DUP7 SSTORE PUSH1 0x1 DUP7 ADD DUP2 SWAP1 SSTORE PUSH1 0x2 DUP7 ADD DUP1 SLOAD DUP6 SWAP2 SWAP1 PUSH1 0x0 SWAP1 PUSH2 0xD03 SWAP1 DUP5 SWAP1 PUSH2 0x12A0 JUMP JUMPDEST SWAP1 SWAP2 SSTORE POP POP PUSH1 0x1 PUSH1 0x1 PUSH1 0xA0 SHL SUB DUP1 DUP11 AND PUSH1 0x0 SWAP1 DUP2 MSTORE PUSH1 0x5 PUSH1 0x20 SWAP1 DUP2 MSTORE PUSH1 0x40 DUP1 DUP4 KECCAK256 CALLER DUP5 MSTORE SWAP1 SWAP2 MSTORE SWAP1 KECCAK256 TIMESTAMP SWAP1 SSTORE PUSH1 0x3 SLOAD PUSH2 0xD3D SWAP2 AND DUP7 PUSH2 0x105A JUMP JUMPDEST PUSH1 0x40 MLOAD PUSH4 0x40C10F19 PUSH1 0xE0 SHL DUP2 MSTORE CALLER PUSH1 0x4 DUP3 ADD MSTORE PUSH1 0x24 DUP2 ADD DUP9 SWAP1 MSTORE PUSH1 0x1 PUSH1 0x1 PUSH1 0xA0 SHL SUB DUP11 AND SWAP1 PUSH4 0x40C10F19 SWAP1 PUSH1 0x44 ADD PUSH1 0x0 PUSH1 0x40 MLOAD DUP1 DUP4 SUB DUP2 PUSH1 0x0 DUP8 DUP1 EXTCODESIZE ISZERO DUP1 ISZERO PUSH2 0xD85 JUMPI PUSH1 0x0 DUP1 REVERT JUMPDEST POP GAS CALL ISZERO DUP1 ISZERO PUSH2 0xD99 JUMPI RETURNDATASIZE PUSH1 0x0 DUP1 RETURNDATACOPY RETURNDATASIZE PUSH1 0x0 REVERT JUMPDEST POP POP POP PUSH1 0x1 DUP8 ADD SLOAD DUP8 SLOAD PUSH1 0x0 SWAP3 POP PUSH2 0xDB9 SWAP1 PUSH8 0xDE0B6B3A7640000 PUSH2 0x1289 JUMP JUMPDEST PUSH2 0xDC3 SWAP2 SWAP1 PUSH2 0x12B3 JUMP JUMPDEST PUSH1 0x40 DUP1 MLOAD PUSH1 0x1 DUP2 MSTORE CALLVALUE PUSH1 0x20 DUP3 ADD MSTORE SWAP1 DUP2 ADD DUP11 SWAP1 MSTORE PUSH1 0x60 DUP2 ADD DUP9 SWAP1 MSTORE PUSH1 0x80 DUP2 ADD DUP3 SWAP1 MSTORE SWAP1 SWAP2 POP CALLER SWAP1 PUSH1 0x1 PUSH1 0x1 PUSH1 0xA0 SHL SUB DUP13 AND SWAP1 PUSH32 0x9ADCF0AD0CDA63C4D50F26A48925CF6405DF27D422A39C456B5F03F661C82982 SWAP1 PUSH1 0xA0 ADD PUSH1 0x40 MLOAD DUP1 SWAP2 SUB SWAP1 LOG3 PUSH2 0xE2C DUP11 DUP9 PUSH2 0x1123 JUMP JUMPDEST POP POP POP POP POP POP POP PUSH2 0xE3C PUSH1 0x1 DUP1 SSTORE JUMP JUMPDEST SWAP3 SWAP2 POP POP JUMP JUMPDEST PUSH2 0xE7F PUSH1 0x40 MLOAD DUP1 PUSH1 0xC0 ADD PUSH1 0x40 MSTORE DUP1 PUSH1 0x0 DUP2 MSTORE PUSH1 0x20 ADD PUSH1 0x0 DUP2 MSTORE PUSH1 0x20 ADD PUSH1 0x0 DUP2 MSTORE PUSH1 0x20 ADD PUSH1 0x0 DUP2 MSTORE PUSH1 0x20 ADD PUSH1 0x0 ISZERO ISZERO DUP2 MSTORE PUSH1 0x20 ADD PUSH1 0x0 ISZERO ISZERO DUP2 MSTORE POP SWAP1 JUMP JUMPDEST POP PUSH1 0x1 PUSH1 0x1 PUSH1 0xA0 SHL SUB AND PUSH1 0x0 SWAP1 DUP2 MSTORE PUSH1 0x4 PUSH1 0x20 DUP2 DUP2 MSTORE PUSH1 0x40 SWAP3 DUP4 SWAP1 KECCAK256 DUP4 MLOAD PUSH1 0xC0 DUP2 ADD DUP6 MSTORE DUP2 SLOAD DUP2 MSTORE PUSH1 0x1 DUP3 ADD SLOAD SWAP3 DUP2 ADD SWAP3 SWAP1 SWAP3 MSTORE PUSH1 0x2 DUP2 ADD SLOAD SWAP4 DUP3 ADD SWAP4 SWAP1 SWAP4 MSTORE PUSH1 0x3 DUP4 ADD SLOAD PUSH1 0x60 DUP3 ADD MSTORE SWAP2 ADD SLOAD PUSH1 0xFF DUP1 DUP3 AND ISZERO ISZERO PUSH1 0x80 DUP5 ADD MSTORE PUSH2 0x100 SWAP1 SWAP2 DIV AND ISZERO ISZERO PUSH1 0xA0 DUP3 ADD MSTORE SWAP1 JUMP JUMPDEST PUSH2 0xEF1 PUSH2 0xF39 JUMP JUMPDEST PUSH1 0x1 PUSH1 0x1 PUSH1 0xA0 SHL SUB DUP2 AND PUSH2 0xF20 JUMPI PUSH1 0x40 MLOAD PUSH4 0x1E4FBDF7 PUSH1 0xE0 SHL DUP2 MSTORE PUSH1 0x0 PUSH1 0x4 DUP3 ADD MSTORE PUSH1 0x24 ADD JUMPDEST PUSH1 0x40 MLOAD DUP1 SWAP2 SUB SWAP1 REVERT JUMPDEST PUSH2 0xF29 DUP2 PUSH2 0x10D3 JUMP JUMPDEST POP JUMP JUMPDEST PUSH2 0xF34 PUSH2 0xF39 JUMP JUMPDEST PUSH1 0x9 SSTORE JUMP JUMPDEST PUSH1 0x0 SLOAD PUSH1 0x1 PUSH1 0x1 PUSH1 0xA0 SHL SUB AND CALLER EQ PUSH2 0xAFB JUMPI PUSH1 0x40 MLOAD PUSH4 0x118CDAA7 PUSH1 0xE0 SHL DUP2 MSTORE CALLER PUSH1 0x4 DUP3 ADD MSTORE PUSH1 0x24 ADD PUSH2 0xF17 JUMP JUMPDEST PUSH1 0x2 PUSH1 0x1 SLOAD SUB PUSH2 0xF89 JUMPI PUSH1 0x40 MLOAD PUSH4 0x3EE5AEB5 PUSH1 0xE0 SHL DUP2 MSTORE PUSH1 0x4 ADD PUSH1 0x40 MLOAD DUP1 SWAP2 SUB SWAP1 REVERT JUMPDEST PUSH1 0x2 PUSH1 0x1 SSTORE JUMP JUMPDEST PUSH1 0x4 DUP2 ADD SLOAD PUSH2 0x100 SWAP1 DIV PUSH1 0xFF AND PUSH2 0xFBA JUMPI PUSH1 0x40 MLOAD PUSH4 0x3636BB1F PUSH1 0xE2 SHL DUP2 MSTORE PUSH1 0x4 ADD PUSH1 0x40 MLOAD DUP1 SWAP2 SUB SWAP1 REVERT JUMPDEST PUSH1 0x4 DUP2 ADD SLOAD PUSH1 0xFF AND ISZERO PUSH2 0xFE0 JUMPI PUSH1 0x40 MLOAD PUSH4 0x69107EB9 PUSH1 0xE0 SHL DUP2 MSTORE PUSH1 0x4 ADD PUSH1 0x40 MLOAD DUP1 SWAP2 SUB SWAP1 REVERT JUMPDEST DUP1 PUSH1 0x3 ADD SLOAD TIMESTAMP LT ISZERO PUSH2 0x1005 JUMPI PUSH1 0x40 MLOAD PUSH4 0x159EEB7D PUSH1 0xE3 SHL DUP2 MSTORE PUSH1 0x4 ADD PUSH1 0x40 MLOAD DUP1 SWAP2 SUB SWAP1 REVERT JUMPDEST PUSH1 0x7 SLOAD PUSH1 0x1 PUSH1 0x1 PUSH1 0xA0 SHL SUB DUP4 AND PUSH1 0x0 SWAP1 DUP2 MSTORE PUSH1 0x5 PUSH1 0x20 SWAP1 DUP2 MSTORE PUSH1 0x40 DUP1 DUP4 KECCAK256 CALLER DUP5 MSTORE SWAP1 SWAP2 MSTORE SWAP1 KECCAK256 SLOAD PUSH2 0x1036 SWAP2 SWAP1 PUSH2 0x12A0 JUMP JUMPDEST TIMESTAMP LT ISZERO PUSH2 0x1056 JUMPI PUSH1 0x40 MLOAD PUSH4 0xAA9A98DF PUSH1 0xE0 SHL DUP2 MSTORE PUSH1 0x4 ADD PUSH1 0x40 MLOAD DUP1 SWAP2 SUB SWAP1 REVERT JUMPDEST POP POP JUMP JUMPDEST PUSH1 0x0 DUP3 PUSH1 0x1 PUSH1 0x1 PUSH1 0xA0 SHL SUB AND DUP3 PUSH1 0x40 MLOAD PUSH1 0x0 PUSH1 0x40 MLOAD DUP1 DUP4 SUB DUP2 DUP6 DUP8 GAS CALL SWAP3 POP POP POP RETURNDATASIZE DUP1 PUSH1 0x0 DUP2 EQ PUSH2 0x10A7 JUMPI PUSH1 0x40 MLOAD SWAP2 POP PUSH1 0x1F NOT PUSH1 0x3F RETURNDATASIZE ADD AND DUP3 ADD PUSH1 0x40 MSTORE RETURNDATASIZE DUP3 MSTORE RETURNDATASIZE PUSH1 0x0 PUSH1 0x20 DUP5 ADD RETURNDATACOPY PUSH2 0x10AC JUMP JUMPDEST PUSH1 0x60 SWAP2 POP JUMPDEST POP POP SWAP1 POP DUP1 PUSH2 0x10CE JUMPI PUSH1 0x40 MLOAD PUSH4 0x12171D83 PUSH1 0xE3 SHL DUP2 MSTORE PUSH1 0x4 ADD PUSH1 0x40 MLOAD DUP1 SWAP2 SUB SWAP1 REVERT JUMPDEST POP POP POP JUMP JUMPDEST PUSH1 0x0 DUP1 SLOAD PUSH1 0x1 PUSH1 0x1 PUSH1 0xA0 SHL SUB DUP4 DUP2 AND PUSH1 0x1 PUSH1 0x1 PUSH1 0xA0 SHL SUB NOT DUP4 AND DUP2 OR DUP5 SSTORE PUSH1 0x40 MLOAD SWAP2 SWAP1 SWAP3 AND SWAP3 DUP4 SWAP2 PUSH32 0x8BE0079C531659141344CD1FD0A4F28419497F9722A3DAAFE3B4186F6B6457E0 SWAP2 SWAP1 LOG3 POP POP JUMP JUMPDEST PUSH1 0x4 DUP2 ADD SLOAD PUSH1 0xFF AND ISZERO DUP1 ISZERO PUSH2 0x113E JUMPI POP PUSH1 0x6 SLOAD DUP2 PUSH1 0x2 ADD SLOAD LT ISZERO JUMPDEST ISZERO PUSH2 0x1056 JUMPI PUSH1 0x4 DUP2 ADD DUP1 SLOAD PUSH1 0xFF NOT AND PUSH1 0x1 OR SWAP1 SSTORE PUSH1 0x2 DUP2 ADD SLOAD PUSH1 0x40 MLOAD PUSH1 0x1 PUSH1 0x1 PUSH1 0xA0 SHL SUB DUP5 AND SWAP2 PUSH32 0x3A11B9C0CA38B86101CB9E6E1DD2F752C31467C6EAA353F931B801A338406DE6 SWAP2 PUSH2 0x7F8 SWAP2 DUP2 MSTORE PUSH1 0x20 ADD SWAP1 JUMP JUMPDEST PUSH1 0x0 PUSH1 0x20 DUP3 DUP5 SUB SLT ISZERO PUSH2 0x11A5 JUMPI PUSH1 0x0 DUP1 REVERT JUMPDEST POP CALLDATALOAD SWAP2 SWAP1 POP JUMP JUMPDEST DUP1 CALLDATALOAD PUSH1 0x1 PUSH1 0x1 PUSH1 0xA0 SHL SUB DUP2 AND DUP2 EQ PUSH2 0x11C3 JUMPI PUSH1 0x0 DUP1 REVERT JUMPDEST SWAP2 SWAP1 POP JUMP JUMPDEST PUSH1 0x0 DUP1 PUSH1 0x40 DUP4 DUP6 SUB SLT ISZERO PUSH2 0x11DB JUMPI PUSH1 0x0 DUP1 REVERT JUMPDEST PUSH2 0x11E4 DUP4 PUSH2 0x11AC JUMP JUMPDEST SWAP5 PUSH1 0x20 SWAP4 SWAP1 SWAP4 ADD CALLDATALOAD SWAP4 POP POP POP JUMP JUMPDEST PUSH1 0x0 PUSH1 0x20 DUP3 DUP5 SUB SLT ISZERO PUSH2 0x1204 JUMPI PUSH1 0x0 DUP1 REVERT JUMPDEST PUSH2 0x869 DUP3 PUSH2 0x11AC JUMP JUMPDEST PUSH1 0x0 DUP1 PUSH1 0x40 DUP4 DUP6 SUB SLT ISZERO PUSH2 0x1220 JUMPI PUSH1 0x0 DUP1 REVERT JUMPDEST PUSH2 0x1229 DUP4 PUSH2 0x11AC JUMP JUMPDEST SWAP2 POP PUSH2 0x1237 PUSH1 0x20 DUP5 ADD PUSH2 0x11AC JUMP JUMPDEST SWAP1 POP SWAP3 POP SWAP3 SWAP1 POP JUMP JUMPDEST PUSH1 0x0 DUP1 PUSH1 0x0 PUSH1 0x60 DUP5 DUP7 SUB SLT ISZERO PUSH2 0x1255 JUMPI PUSH1 0x0 DUP1 REVERT JUMPDEST PUSH2 0x125E DUP5 PUSH2 0x11AC JUMP JUMPDEST SWAP6 PUSH1 0x20 DUP6 ADD CALLDATALOAD SWAP6 POP PUSH1 0x40 SWAP1 SWAP5 ADD CALLDATALOAD SWAP4 SWAP3 POP POP POP JUMP JUMPDEST PUSH4 0x4E487B71 PUSH1 0xE0 SHL PUSH1 0x0 MSTORE PUSH1 0x11 PUSH1 0x4 MSTORE PUSH1 0x24 PUSH1 0x0 REVERT JUMPDEST DUP1 DUP3 MUL DUP2 ISZERO DUP3 DUP3 DIV DUP5 EQ OR PUSH2 0xE3C JUMPI PUSH2 0xE3C PUSH2 0x1273 JUMP JUMPDEST DUP1 DUP3 ADD DUP1 DUP3 GT ISZERO PUSH2 0xE3C JUMPI PUSH2 0xE3C PUSH2 0x1273 JUMP JUMPDEST PUSH1 0x0 DUP3 PUSH2 0x12D0 JUMPI PUSH4 0x4E487B71 PUSH1 0xE0 SHL PUSH1 0x0 MSTORE PUSH1 0x12 PUSH1 0x4 MSTORE PUSH1 0x24 PUSH1 0x0 REVERT JUMPDEST POP DIV SWAP1 JUMP JUMPDEST DUP2 DUP2 SUB DUP2 DUP2 GT ISZERO PUSH2 0xE3C JUMPI PUSH2 0xE3C PUSH2 0x1273 JUMP JUMPDEST PUSH1 0x0 PUSH1 0x20 DUP3 DUP5 SUB SLT ISZERO PUSH2 0x12FA JUMPI PUSH1 0x0 DUP1 REVERT JUMPDEST DUP2 MLOAD DUP1 ISZERO ISZERO DUP2 EQ PUSH2 0x869 JUMPI PUSH1 0x0 DUP1 REVERT INVALID LOG2 PUSH5 0x6970667358 0x22 SLT KECCAK256 SWAP8 MSTORE 0xA5 0x26 ISZERO 0xB1 RETURN 0xBB 0xE SWAP10 0xC RETURNDATASIZE PUSH11 0x8C72AFE2C57417964B25A9 DUP10 0xC3 0xAF 0x26 PUSH14 0xB8FD7664736F6C63430008180033 "},"methodIdentifiers":{"BPS_DENOMINATOR()":"e1a45218","FEE_BPS()":"bf333f2c","buy(address,uint256)":"cce7ec13","cooldownSeconds()":"b8221bc4","factory()":"c45a0155","feeVault()":"478222c2","getBuyQuote(address,uint256)":"8aaae305","getMarketState(address)":"e8a89c76","getPrice(address)":"41976e09","getSellQuote(address,uint256)":"1bf6e958","graduationThreshold()":"8b0bc501","initialVirtualNative()":"c84ab9bb","initialVirtualToken()":"ccd32517","initializeMarket(address)":"2a869a4d","lastTradeTime(address,address)":"39b1d853","launchDelay()":"e0e7e29b","markets(address)":"8e8f294b","maxBuyPerTx()":"177320a6","owner()":"8da5cb5b","renounceOwnership()":"715018a6","sell(address,uint256,uint256)":"6a272462","setCooldownSeconds(uint256)":"7b5b1157","setFactory(address)":"5bb47808","setFeeVault(address)":"a591f97f","setGraduationThreshold(uint256)":"52f5b3ef","setLaunchDelay(uint256)":"f4640d3d","setMaxBuyPerTx(uint256)":"0a1ffab7","transferOwnership(address)":"f2fde38b"}}}}}