{"contracts/launchpad/HoneycombRouter.sol":{"HoneycombRouter":{"abi":[{"inputs":[{"internalType":"address","name":"_market","type":"address"},{"internalType":"address","name":"_wbnb","type":"address"}],"stateMutability":"nonpayable","type":"constructor"},{"anonymous":false,"inputs":[{"indexed":true,"internalType":"address","name":"sender","type":"address"},{"indexed":true,"internalType":"address","name":"tokenIn","type":"address"},{"indexed":true,"internalType":"address","name":"tokenOut","type":"address"},{"indexed":false,"internalType":"uint256","name":"amountIn","type":"uint256"},{"indexed":false,"internalType":"uint256","name":"amountOut","type":"uint256"},{"indexed":false,"internalType":"address","name":"to","type":"address"}],"name":"Swap","type":"event"},{"inputs":[],"name":"WBNB","outputs":[{"internalType":"address","name":"","type":"address"}],"stateMutability":"view","type":"function"},{"inputs":[{"internalType":"uint256","name":"amountIn","type":"uint256"},{"internalType":"address[]","name":"path","type":"address[]"}],"name":"getAmountsOut","outputs":[{"internalType":"uint256[]","name":"amounts","type":"uint256[]"}],"stateMutability":"view","type":"function"},{"inputs":[{"internalType":"address","name":"token","type":"address"}],"name":"getTokenPrice","outputs":[{"internalType":"uint256","name":"","type":"uint256"}],"stateMutability":"view","type":"function"},{"inputs":[{"internalType":"address","name":"token","type":"address"}],"name":"isTokenActive","outputs":[{"internalType":"bool","name":"","type":"bool"}],"stateMutability":"view","type":"function"},{"inputs":[],"name":"market","outputs":[{"internalType":"contract HoneycombBondingCurveMarket","name":"","type":"address"}],"stateMutability":"view","type":"function"},{"inputs":[{"internalType":"uint256","name":"amountOutMin","type":"uint256"},{"internalType":"address[]","name":"path","type":"address[]"},{"internalType":"address","name":"to","type":"address"},{"internalType":"uint256","name":"deadline","type":"uint256"}],"name":"swapExactETHForTokens","outputs":[{"internalType":"uint256[]","name":"amounts","type":"uint256[]"}],"stateMutability":"payable","type":"function"},{"inputs":[{"internalType":"uint256","name":"amountIn","type":"uint256"},{"internalType":"uint256","name":"amountOutMin","type":"uint256"},{"internalType":"address[]","name":"path","type":"address[]"},{"internalType":"address","name":"to","type":"address"},{"internalType":"uint256","name":"deadline","type":"uint256"}],"name":"swapExactTokensForETH","outputs":[{"internalType":"uint256[]","name":"amounts","type":"uint256[]"}],"stateMutability":"nonpayable","type":"function"},{"stateMutability":"payable","type":"receive"}],"evm":{"bytecode":{"linkReferences":{},"object":"60c0346100c257601f610e9038819003918201601f19168301916001600160401b038311848410176100c75780849260409485528339810103126100c257610052602061004b836100dd565b92016100dd565b6001600160a01b0390911660805260a052604051610d9e90816100f282396080518181816101720152818161025301528181610302015281816104040152818161052a015281816106480152610926015260a05181818160f901528181610393015281816105d201526108a40152f35b600080fd5b634e487b7160e01b600052604160045260246000fd5b51906001600160a01b03821682036100c25756fe60406080815260048036101561001f575b5050361561001d57600080fd5b005b600091823560e01c806318cbafe5146108195780637ff36ab51461055957806380f5560514610515578063895b327e146103c25780638dd950021461037e578063d02641a0146102bc5763d06ca61f146100795750610010565b346102b857806003193601126102b857813560243567ffffffffffffffff81116102b4576100aa9036908501610ba1565b90936100b860028314610c67565b8351946100c486610cbe565b6002865284366020880137836100d987610d1f565b5282156101f7576100e981610caa565b6001600160a01b039390869085167f000000000000000000000000000000000000000000000000000000000000000086160361020a5750600110156101f7579161016e939161013b6020879501610caa565b8451638aaae30560e01b81526001600160a01b039091169181019182526020820193909352919384928391829160400190565b03917f0000000000000000000000000000000000000000000000000000000000000000165afa9081156101ed576101bb94916101bf575b506101af83610d42565b525b5191829182610bed565b0390f35b6101df9150823d84116101e6575b6101d78183610cf0565b810190610d52565b50386101a5565b503d6101cd565b82513d86823e3d90fd5b634e487b7160e01b875260328252602487fd5b939161024f9593915061021c90610caa565b845163037edd2b60e31b81526001600160a01b039091169181019182526020820193909352919384928391829160400190565b03917f0000000000000000000000000000000000000000000000000000000000000000165afa9081156101ed576101bb9491610296575b5061029083610d42565b526101b1565b6102ad9150823d84116101e6576101d78183610cf0565b5038610286565b8480fd5b8280fd5b5082903461037a57602092836003193601126102b857836102db610bd7565b83516341976e0960e01b81526001600160a01b0391821693810193909352829060249082907f0000000000000000000000000000000000000000000000000000000000000000165afa92831561036f57809361033a575b505051908152f35b909192508382813d8311610368575b6103538183610cf0565b81010312610365575051908380610332565b80fd5b503d610349565b8251903d90823e3d90fd5b5080fd5b83823461037a578160031936011261037a57517f00000000000000000000000000000000000000000000000000000000000000006001600160a01b03168152602090f35b50346102b85760203660031901126102b8576024919260c06103e2610bd7565b83516374544e3b60e11b81526001600160a01b039182168782015294859182907f0000000000000000000000000000000000000000000000000000000000000000165afa92831561050957819361045e575b50506020925060a082015115159182610451575b50519015158152f35b6080015115915038610448565b9091925060c0813d60c011610501575b8161047b60c09383610cf0565b8101031261037a5782519160c083019083821067ffffffffffffffff8311176104ee5750602094506104e19160a09185528051845285810151868501528481015185850152606081015160608501526104d660808201610d12565b608085015201610d12565b60a0820152903880610434565b634e487b7160e01b815260418652602490fd5b3d915061046e565b509051903d90823e3d90fd5b83823461037a578160031936011261037a57517f00000000000000000000000000000000000000000000000000000000000000006001600160a01b03168152602090f35b5060803660031901126102b85760243567ffffffffffffffff8111610815576105859036908401610ba1565b6001600160a01b03949193604435928684169283850361037a576105ad426064351015610c29565b6105b960028214610c67565b80156108025790879392916105fc6105d089610caa565b7f0000000000000000000000000000000000000000000000000000000000000000871696168614610c67565b600110156107f0576106116020809801610caa565b865163cce7ec1360e01b81526001600160a01b038216818501908152843560208201529094919391908990869081906040010381347f00000000000000000000000000000000000000000000000000000000000000008f165af19485156107e65783956107b7575b50300361070c575b50506101bb967f54787c404bb33c88e86f4baf88183a3b0141d0a848e6a9f7a13b66ae3a9b73d191868051986106b68a610cbe565b60028a5236908a0137346106c989610d1f565b52836106d489610d42565b52865134815260208101949094526001600160a01b0390951660408401529390931692339180606081015b0390a45191829182610bed565b865163a9059cbb60e01b81526001600160a01b0387169181019182526020820185905291908890839081906040010381848d88165af180156107ab5715610681578782813d83116107a4575b6107628183610cf0565b810103126103655750967f54787c404bb33c88e86f4baf88183a3b0141d0a848e6a9f7a13b66ae3a9b73d19161079a6101bb99610d12565b5091819850610681565b503d610758565b508651903d90823e3d90fd5b9094508881813d83116107df575b6107cf8183610cf0565b810103126102b857519338610679565b503d6107c5565b88513d85823e3d90fd5b6032602492634e487b7160e01b835252fd5b506032602492634e487b7160e01b835252fd5b8380fd5b5082346103655760a03660031901126103655760249167ffffffffffffffff84356044358281116102b4576108519036908801610ba1565b9490966064359660018060a01b0394858916890361081557610877426084351015610c29565b61088360028914610c67565b8760011015610b8f5785969798996020996108ce6108a28c8401610caa565b7f00000000000000000000000000000000000000000000000000000000000000008a169a168a14610c67565b15610b7d576108dd8791610caa565b169588516323b872dd60e01b8152338582015230848201528660448201528a81606481898c5af18015610b3f57610b49575b50885163095ea7b360e01b81526001600160a01b037f000000000000000000000000000000000000000000000000000000000000000092909216918216858201908152602081018890528b90829081906040010381898c5af18015610b3f57918b91879493610aff575b5060648b5180988193633513923160e11b83528c8a8401528b89840152883560448401525af1948515610af5578b908396610abd575b508280808881945af1913d15610ab6573d918211610aa4578951916109dd601f8201601f19168d0184610cf0565b82528a3d92013e5b15610a625750506101bb967f54787c404bb33c88e86f4baf88183a3b0141d0a848e6a9f7a13b66ae3a9b73d19186805198610a1f8a610cbe565b60028a5236908a013783610a3289610d1f565b5280610a3d89610d42565b52865193845260208401526001600160a01b03166040830152339180606081016106ff565b865162461bcd60e51b8152918201889052601b908201527f526f757465723a204554485f5452414e534645525f4641494c454400000000006044820152606490fd5b634e487b7160e01b8152604185528390fd5b50506109e5565b809293949596508b8092503d8311610aee575b610ada8183610cf0565b810103126102b85751939291908a826109af565b503d610ad0565b89513d84823e3d90fd5b828193929495503d8311610b38575b610b188183610cf0565b81010312610b3457859291610b2d8c92610d12565b508d610979565b8580fd5b503d610b0e565b8a513d88823e3d90fd5b8a81813d8311610b76575b610b5e8183610cf0565b81010312610b3457610b6f90610d12565b508b61090f565b503d610b54565b634e487b7160e01b8552603284528285fd5b50634e487b7160e01b83526032825282fd5b9181601f84011215610bd25782359167ffffffffffffffff8311610bd2576020808501948460051b010111610bd257565b600080fd5b600435906001600160a01b0382168203610bd257565b602090602060408183019282815285518094520193019160005b828110610c15575050505090565b835185529381019392810192600101610c07565b15610c3057565b60405162461bcd60e51b815260206004820152600f60248201526e149bdd5d195c8e8811561412549151608a1b6044820152606490fd5b15610c6e57565b60405162461bcd60e51b81526020600482015260146024820152730a4deeae8cae47440929cac82989288bea082a8960631b6044820152606490fd5b356001600160a01b0381168103610bd25790565b6060810190811067ffffffffffffffff821117610cda57604052565b634e487b7160e01b600052604160045260246000fd5b90601f8019910116810190811067ffffffffffffffff821117610cda57604052565b51908115158203610bd257565b805115610d2c5760200190565b634e487b7160e01b600052603260045260246000fd5b805160011015610d2c5760400190565b9190826040910312610bd257602082519201519056fea26469706673582212204fcab4c6f775366d50e1e747d09bab0557be8c0a4aa79894bbe3929b2e9f326564736f6c63430008180033","opcodes":"PUSH1 0xC0 CALLVALUE PUSH2 0xC2 JUMPI PUSH1 0x1F PUSH2 0xE90 CODESIZE DUP2 SWAP1 SUB SWAP2 DUP3 ADD PUSH1 0x1F NOT AND DUP4 ADD SWAP2 PUSH1 0x1 PUSH1 0x1 PUSH1 0x40 SHL SUB DUP4 GT DUP5 DUP5 LT OR PUSH2 0xC7 JUMPI DUP1 DUP5 SWAP3 PUSH1 0x40 SWAP5 DUP6 MSTORE DUP4 CODECOPY DUP2 ADD SUB SLT PUSH2 0xC2 JUMPI PUSH2 0x52 PUSH1 0x20 PUSH2 0x4B DUP4 PUSH2 0xDD JUMP JUMPDEST SWAP3 ADD PUSH2 0xDD JUMP JUMPDEST PUSH1 0x1 PUSH1 0x1 PUSH1 0xA0 SHL SUB SWAP1 SWAP2 AND PUSH1 0x80 MSTORE PUSH1 0xA0 MSTORE PUSH1 0x40 MLOAD PUSH2 0xD9E SWAP1 DUP2 PUSH2 0xF2 DUP3 CODECOPY PUSH1 0x80 MLOAD DUP2 DUP2 DUP2 PUSH2 0x172 ADD MSTORE DUP2 DUP2 PUSH2 0x253 ADD MSTORE DUP2 DUP2 PUSH2 0x302 ADD MSTORE DUP2 DUP2 PUSH2 0x404 ADD MSTORE DUP2 DUP2 PUSH2 0x52A ADD MSTORE DUP2 DUP2 PUSH2 0x648 ADD MSTORE PUSH2 0x926 ADD MSTORE PUSH1 0xA0 MLOAD DUP2 DUP2 DUP2 PUSH1 0xF9 ADD MSTORE DUP2 DUP2 PUSH2 0x393 ADD MSTORE DUP2 DUP2 PUSH2 0x5D2 ADD MSTORE PUSH2 0x8A4 ADD MSTORE RETURN JUMPDEST PUSH1 0x0 DUP1 REVERT JUMPDEST PUSH4 0x4E487B71 PUSH1 0xE0 SHL PUSH1 0x0 MSTORE PUSH1 0x41 PUSH1 0x4 MSTORE PUSH1 0x24 PUSH1 0x0 REVERT JUMPDEST MLOAD SWAP1 PUSH1 0x1 PUSH1 0x1 PUSH1 0xA0 SHL SUB DUP3 AND DUP3 SUB PUSH2 0xC2 JUMPI JUMP INVALID PUSH1 0x40 PUSH1 0x80 DUP2 MSTORE PUSH1 0x4 DUP1 CALLDATASIZE LT ISZERO PUSH2 0x1F JUMPI JUMPDEST POP POP CALLDATASIZE ISZERO PUSH2 0x1D JUMPI PUSH1 0x0 DUP1 REVERT JUMPDEST STOP JUMPDEST PUSH1 0x0 SWAP2 DUP3 CALLDATALOAD PUSH1 0xE0 SHR DUP1 PUSH4 0x18CBAFE5 EQ PUSH2 0x819 JUMPI DUP1 PUSH4 0x7FF36AB5 EQ PUSH2 0x559 JUMPI DUP1 PUSH4 0x80F55605 EQ PUSH2 0x515 JUMPI DUP1 PUSH4 0x895B327E EQ PUSH2 0x3C2 JUMPI DUP1 PUSH4 0x8DD95002 EQ PUSH2 0x37E JUMPI DUP1 PUSH4 0xD02641A0 EQ PUSH2 0x2BC JUMPI PUSH4 0xD06CA61F EQ PUSH2 0x79 JUMPI POP PUSH2 0x10 JUMP JUMPDEST CALLVALUE PUSH2 0x2B8 JUMPI DUP1 PUSH1 0x3 NOT CALLDATASIZE ADD SLT PUSH2 0x2B8 JUMPI DUP2 CALLDATALOAD PUSH1 0x24 CALLDATALOAD PUSH8 0xFFFFFFFFFFFFFFFF DUP2 GT PUSH2 0x2B4 JUMPI PUSH2 0xAA SWAP1 CALLDATASIZE SWAP1 DUP6 ADD PUSH2 0xBA1 JUMP JUMPDEST SWAP1 SWAP4 PUSH2 0xB8 PUSH1 0x2 DUP4 EQ PUSH2 0xC67 JUMP JUMPDEST DUP4 MLOAD SWAP5 PUSH2 0xC4 DUP7 PUSH2 0xCBE JUMP JUMPDEST PUSH1 0x2 DUP7 MSTORE DUP5 CALLDATASIZE PUSH1 0x20 DUP9 ADD CALLDATACOPY DUP4 PUSH2 0xD9 DUP8 PUSH2 0xD1F JUMP JUMPDEST MSTORE DUP3 ISZERO PUSH2 0x1F7 JUMPI PUSH2 0xE9 DUP2 PUSH2 0xCAA JUMP JUMPDEST PUSH1 0x1 PUSH1 0x1 PUSH1 0xA0 SHL SUB SWAP4 SWAP1 DUP7 SWAP1 DUP6 AND PUSH32 0x0 DUP7 AND SUB PUSH2 0x20A JUMPI POP PUSH1 0x1 LT ISZERO PUSH2 0x1F7 JUMPI SWAP2 PUSH2 0x16E SWAP4 SWAP2 PUSH2 0x13B PUSH1 0x20 DUP8 SWAP6 ADD PUSH2 0xCAA JUMP JUMPDEST DUP5 MLOAD PUSH4 0x8AAAE305 PUSH1 0xE0 SHL DUP2 MSTORE PUSH1 0x1 PUSH1 0x1 PUSH1 0xA0 SHL SUB SWAP1 SWAP2 AND SWAP2 DUP2 ADD SWAP2 DUP3 MSTORE PUSH1 0x20 DUP3 ADD SWAP4 SWAP1 SWAP4 MSTORE SWAP2 SWAP4 DUP5 SWAP3 DUP4 SWAP2 DUP3 SWAP2 PUSH1 0x40 ADD SWAP1 JUMP JUMPDEST SUB SWAP2 PUSH32 0x0 AND GAS STATICCALL SWAP1 DUP2 ISZERO PUSH2 0x1ED JUMPI PUSH2 0x1BB SWAP5 SWAP2 PUSH2 0x1BF JUMPI JUMPDEST POP PUSH2 0x1AF DUP4 PUSH2 0xD42 JUMP JUMPDEST MSTORE JUMPDEST MLOAD SWAP2 DUP3 SWAP2 DUP3 PUSH2 0xBED JUMP JUMPDEST SUB SWAP1 RETURN JUMPDEST PUSH2 0x1DF SWAP2 POP DUP3 RETURNDATASIZE DUP5 GT PUSH2 0x1E6 JUMPI JUMPDEST PUSH2 0x1D7 DUP2 DUP4 PUSH2 0xCF0 JUMP JUMPDEST DUP2 ADD SWAP1 PUSH2 0xD52 JUMP JUMPDEST POP CODESIZE PUSH2 0x1A5 JUMP JUMPDEST POP RETURNDATASIZE PUSH2 0x1CD JUMP JUMPDEST DUP3 MLOAD RETURNDATASIZE DUP7 DUP3 RETURNDATACOPY RETURNDATASIZE SWAP1 REVERT JUMPDEST PUSH4 0x4E487B71 PUSH1 0xE0 SHL DUP8 MSTORE PUSH1 0x32 DUP3 MSTORE PUSH1 0x24 DUP8 REVERT JUMPDEST SWAP4 SWAP2 PUSH2 0x24F SWAP6 SWAP4 SWAP2 POP PUSH2 0x21C SWAP1 PUSH2 0xCAA JUMP JUMPDEST DUP5 MLOAD PUSH4 0x37EDD2B PUSH1 0xE3 SHL DUP2 MSTORE PUSH1 0x1 PUSH1 0x1 PUSH1 0xA0 SHL SUB SWAP1 SWAP2 AND SWAP2 DUP2 ADD SWAP2 DUP3 MSTORE PUSH1 0x20 DUP3 ADD SWAP4 SWAP1 SWAP4 MSTORE SWAP2 SWAP4 DUP5 SWAP3 DUP4 SWAP2 DUP3 SWAP2 PUSH1 0x40 ADD SWAP1 JUMP JUMPDEST SUB SWAP2 PUSH32 0x0 AND GAS STATICCALL SWAP1 DUP2 ISZERO PUSH2 0x1ED JUMPI PUSH2 0x1BB SWAP5 SWAP2 PUSH2 0x296 JUMPI JUMPDEST POP PUSH2 0x290 DUP4 PUSH2 0xD42 JUMP JUMPDEST MSTORE PUSH2 0x1B1 JUMP JUMPDEST PUSH2 0x2AD SWAP2 POP DUP3 RETURNDATASIZE DUP5 GT PUSH2 0x1E6 JUMPI PUSH2 0x1D7 DUP2 DUP4 PUSH2 0xCF0 JUMP JUMPDEST POP CODESIZE PUSH2 0x286 JUMP JUMPDEST DUP5 DUP1 REVERT JUMPDEST DUP3 DUP1 REVERT JUMPDEST POP DUP3 SWAP1 CALLVALUE PUSH2 0x37A JUMPI PUSH1 0x20 SWAP3 DUP4 PUSH1 0x3 NOT CALLDATASIZE ADD SLT PUSH2 0x2B8 JUMPI DUP4 PUSH2 0x2DB PUSH2 0xBD7 JUMP JUMPDEST DUP4 MLOAD PUSH4 0x41976E09 PUSH1 0xE0 SHL DUP2 MSTORE PUSH1 0x1 PUSH1 0x1 PUSH1 0xA0 SHL SUB SWAP2 DUP3 AND SWAP4 DUP2 ADD SWAP4 SWAP1 SWAP4 MSTORE DUP3 SWAP1 PUSH1 0x24 SWAP1 DUP3 SWAP1 PUSH32 0x0 AND GAS STATICCALL SWAP3 DUP4 ISZERO PUSH2 0x36F JUMPI DUP1 SWAP4 PUSH2 0x33A JUMPI JUMPDEST POP POP MLOAD SWAP1 DUP2 MSTORE RETURN JUMPDEST SWAP1 SWAP2 SWAP3 POP DUP4 DUP3 DUP2 RETURNDATASIZE DUP4 GT PUSH2 0x368 JUMPI JUMPDEST PUSH2 0x353 DUP2 DUP4 PUSH2 0xCF0 JUMP JUMPDEST DUP2 ADD SUB SLT PUSH2 0x365 JUMPI POP MLOAD SWAP1 DUP4 DUP1 PUSH2 0x332 JUMP JUMPDEST DUP1 REVERT JUMPDEST POP RETURNDATASIZE PUSH2 0x349 JUMP JUMPDEST DUP3 MLOAD SWAP1 RETURNDATASIZE SWAP1 DUP3 RETURNDATACOPY RETURNDATASIZE SWAP1 REVERT JUMPDEST POP DUP1 REVERT JUMPDEST DUP4 DUP3 CALLVALUE PUSH2 0x37A JUMPI DUP2 PUSH1 0x3 NOT CALLDATASIZE ADD SLT PUSH2 0x37A JUMPI MLOAD PUSH32 0x0 PUSH1 0x1 PUSH1 0x1 PUSH1 0xA0 SHL SUB AND DUP2 MSTORE PUSH1 0x20 SWAP1 RETURN JUMPDEST POP CALLVALUE PUSH2 0x2B8 JUMPI PUSH1 0x20 CALLDATASIZE PUSH1 0x3 NOT ADD SLT PUSH2 0x2B8 JUMPI PUSH1 0x24 SWAP2 SWAP3 PUSH1 0xC0 PUSH2 0x3E2 PUSH2 0xBD7 JUMP JUMPDEST DUP4 MLOAD PUSH4 0x74544E3B PUSH1 0xE1 SHL DUP2 MSTORE PUSH1 0x1 PUSH1 0x1 PUSH1 0xA0 SHL SUB SWAP2 DUP3 AND DUP8 DUP3 ADD MSTORE SWAP5 DUP6 SWAP2 DUP3 SWAP1 PUSH32 0x0 AND GAS STATICCALL SWAP3 DUP4 ISZERO PUSH2 0x509 JUMPI DUP2 SWAP4 PUSH2 0x45E JUMPI JUMPDEST POP POP PUSH1 0x20 SWAP3 POP PUSH1 0xA0 DUP3 ADD MLOAD ISZERO ISZERO SWAP2 DUP3 PUSH2 0x451 JUMPI JUMPDEST POP MLOAD SWAP1 ISZERO ISZERO DUP2 MSTORE RETURN JUMPDEST PUSH1 0x80 ADD MLOAD ISZERO SWAP2 POP CODESIZE PUSH2 0x448 JUMP JUMPDEST SWAP1 SWAP2 SWAP3 POP PUSH1 0xC0 DUP2 RETURNDATASIZE PUSH1 0xC0 GT PUSH2 0x501 JUMPI JUMPDEST DUP2 PUSH2 0x47B PUSH1 0xC0 SWAP4 DUP4 PUSH2 0xCF0 JUMP JUMPDEST DUP2 ADD SUB SLT PUSH2 0x37A JUMPI DUP3 MLOAD SWAP2 PUSH1 0xC0 DUP4 ADD SWAP1 DUP4 DUP3 LT PUSH8 0xFFFFFFFFFFFFFFFF DUP4 GT OR PUSH2 0x4EE JUMPI POP PUSH1 0x20 SWAP5 POP PUSH2 0x4E1 SWAP2 PUSH1 0xA0 SWAP2 DUP6 MSTORE DUP1 MLOAD DUP5 MSTORE DUP6 DUP2 ADD MLOAD DUP7 DUP6 ADD MSTORE DUP5 DUP2 ADD MLOAD DUP6 DUP6 ADD MSTORE PUSH1 0x60 DUP2 ADD MLOAD PUSH1 0x60 DUP6 ADD MSTORE PUSH2 0x4D6 PUSH1 0x80 DUP3 ADD PUSH2 0xD12 JUMP JUMPDEST PUSH1 0x80 DUP6 ADD MSTORE ADD PUSH2 0xD12 JUMP JUMPDEST PUSH1 0xA0 DUP3 ADD MSTORE SWAP1 CODESIZE DUP1 PUSH2 0x434 JUMP JUMPDEST PUSH4 0x4E487B71 PUSH1 0xE0 SHL DUP2 MSTORE PUSH1 0x41 DUP7 MSTORE PUSH1 0x24 SWAP1 REVERT JUMPDEST RETURNDATASIZE SWAP2 POP PUSH2 0x46E JUMP JUMPDEST POP SWAP1 MLOAD SWAP1 RETURNDATASIZE SWAP1 DUP3 RETURNDATACOPY RETURNDATASIZE SWAP1 REVERT JUMPDEST DUP4 DUP3 CALLVALUE PUSH2 0x37A JUMPI DUP2 PUSH1 0x3 NOT CALLDATASIZE ADD SLT PUSH2 0x37A JUMPI MLOAD PUSH32 0x0 PUSH1 0x1 PUSH1 0x1 PUSH1 0xA0 SHL SUB AND DUP2 MSTORE PUSH1 0x20 SWAP1 RETURN JUMPDEST POP PUSH1 0x80 CALLDATASIZE PUSH1 0x3 NOT ADD SLT PUSH2 0x2B8 JUMPI PUSH1 0x24 CALLDATALOAD PUSH8 0xFFFFFFFFFFFFFFFF DUP2 GT PUSH2 0x815 JUMPI PUSH2 0x585 SWAP1 CALLDATASIZE SWAP1 DUP5 ADD PUSH2 0xBA1 JUMP JUMPDEST PUSH1 0x1 PUSH1 0x1 PUSH1 0xA0 SHL SUB SWAP5 SWAP2 SWAP4 PUSH1 0x44 CALLDATALOAD SWAP3 DUP7 DUP5 AND SWAP3 DUP4 DUP6 SUB PUSH2 0x37A JUMPI PUSH2 0x5AD TIMESTAMP PUSH1 0x64 CALLDATALOAD LT ISZERO PUSH2 0xC29 JUMP JUMPDEST PUSH2 0x5B9 PUSH1 0x2 DUP3 EQ PUSH2 0xC67 JUMP JUMPDEST DUP1 ISZERO PUSH2 0x802 JUMPI SWAP1 DUP8 SWAP4 SWAP3 SWAP2 PUSH2 0x5FC PUSH2 0x5D0 DUP10 PUSH2 0xCAA JUMP JUMPDEST PUSH32 0x0 DUP8 AND SWAP7 AND DUP7 EQ PUSH2 0xC67 JUMP JUMPDEST PUSH1 0x1 LT ISZERO PUSH2 0x7F0 JUMPI PUSH2 0x611 PUSH1 0x20 DUP1 SWAP9 ADD PUSH2 0xCAA JUMP JUMPDEST DUP7 MLOAD PUSH4 0xCCE7EC13 PUSH1 0xE0 SHL DUP2 MSTORE PUSH1 0x1 PUSH1 0x1 PUSH1 0xA0 SHL SUB DUP3 AND DUP2 DUP6 ADD SWAP1 DUP2 MSTORE DUP5 CALLDATALOAD PUSH1 0x20 DUP3 ADD MSTORE SWAP1 SWAP5 SWAP2 SWAP4 SWAP2 SWAP1 DUP10 SWAP1 DUP7 SWAP1 DUP2 SWAP1 PUSH1 0x40 ADD SUB DUP2 CALLVALUE PUSH32 0x0 DUP16 AND GAS CALL SWAP5 DUP6 ISZERO PUSH2 0x7E6 JUMPI DUP4 SWAP6 PUSH2 0x7B7 JUMPI JUMPDEST POP ADDRESS SUB PUSH2 0x70C JUMPI JUMPDEST POP POP PUSH2 0x1BB SWAP7 PUSH32 0x54787C404BB33C88E86F4BAF88183A3B0141D0A848E6A9F7A13B66AE3A9B73D1 SWAP2 DUP7 DUP1 MLOAD SWAP9 PUSH2 0x6B6 DUP11 PUSH2 0xCBE JUMP JUMPDEST PUSH1 0x2 DUP11 MSTORE CALLDATASIZE SWAP1 DUP11 ADD CALLDATACOPY CALLVALUE PUSH2 0x6C9 DUP10 PUSH2 0xD1F JUMP JUMPDEST MSTORE DUP4 PUSH2 0x6D4 DUP10 PUSH2 0xD42 JUMP JUMPDEST MSTORE DUP7 MLOAD CALLVALUE DUP2 MSTORE PUSH1 0x20 DUP2 ADD SWAP5 SWAP1 SWAP5 MSTORE PUSH1 0x1 PUSH1 0x1 PUSH1 0xA0 SHL SUB SWAP1 SWAP6 AND PUSH1 0x40 DUP5 ADD MSTORE SWAP4 SWAP1 SWAP4 AND SWAP3 CALLER SWAP2 DUP1 PUSH1 0x60 DUP2 ADD JUMPDEST SUB SWAP1 LOG4 MLOAD SWAP2 DUP3 SWAP2 DUP3 PUSH2 0xBED JUMP JUMPDEST DUP7 MLOAD PUSH4 0xA9059CBB PUSH1 0xE0 SHL DUP2 MSTORE PUSH1 0x1 PUSH1 0x1 PUSH1 0xA0 SHL SUB DUP8 AND SWAP2 DUP2 ADD SWAP2 DUP3 MSTORE PUSH1 0x20 DUP3 ADD DUP6 SWAP1 MSTORE SWAP2 SWAP1 DUP9 SWAP1 DUP4 SWAP1 DUP2 SWAP1 PUSH1 0x40 ADD SUB DUP2 DUP5 DUP14 DUP9 AND GAS CALL DUP1 ISZERO PUSH2 0x7AB JUMPI ISZERO PUSH2 0x681 JUMPI DUP8 DUP3 DUP2 RETURNDATASIZE DUP4 GT PUSH2 0x7A4 JUMPI JUMPDEST PUSH2 0x762 DUP2 DUP4 PUSH2 0xCF0 JUMP JUMPDEST DUP2 ADD SUB SLT PUSH2 0x365 JUMPI POP SWAP7 PUSH32 0x54787C404BB33C88E86F4BAF88183A3B0141D0A848E6A9F7A13B66AE3A9B73D1 SWAP2 PUSH2 0x79A PUSH2 0x1BB SWAP10 PUSH2 0xD12 JUMP JUMPDEST POP SWAP2 DUP2 SWAP9 POP PUSH2 0x681 JUMP JUMPDEST POP RETURNDATASIZE PUSH2 0x758 JUMP JUMPDEST POP DUP7 MLOAD SWAP1 RETURNDATASIZE SWAP1 DUP3 RETURNDATACOPY RETURNDATASIZE SWAP1 REVERT JUMPDEST SWAP1 SWAP5 POP DUP9 DUP2 DUP2 RETURNDATASIZE DUP4 GT PUSH2 0x7DF JUMPI JUMPDEST PUSH2 0x7CF DUP2 DUP4 PUSH2 0xCF0 JUMP JUMPDEST DUP2 ADD SUB SLT PUSH2 0x2B8 JUMPI MLOAD SWAP4 CODESIZE PUSH2 0x679 JUMP JUMPDEST POP RETURNDATASIZE PUSH2 0x7C5 JUMP JUMPDEST DUP9 MLOAD RETURNDATASIZE DUP6 DUP3 RETURNDATACOPY RETURNDATASIZE SWAP1 REVERT JUMPDEST PUSH1 0x32 PUSH1 0x24 SWAP3 PUSH4 0x4E487B71 PUSH1 0xE0 SHL DUP4 MSTORE MSTORE REVERT JUMPDEST POP PUSH1 0x32 PUSH1 0x24 SWAP3 PUSH4 0x4E487B71 PUSH1 0xE0 SHL DUP4 MSTORE MSTORE REVERT JUMPDEST DUP4 DUP1 REVERT JUMPDEST POP DUP3 CALLVALUE PUSH2 0x365 JUMPI PUSH1 0xA0 CALLDATASIZE PUSH1 0x3 NOT ADD SLT PUSH2 0x365 JUMPI PUSH1 0x24 SWAP2 PUSH8 0xFFFFFFFFFFFFFFFF DUP5 CALLDATALOAD PUSH1 0x44 CALLDATALOAD DUP3 DUP2 GT PUSH2 0x2B4 JUMPI PUSH2 0x851 SWAP1 CALLDATASIZE SWAP1 DUP9 ADD PUSH2 0xBA1 JUMP JUMPDEST SWAP5 SWAP1 SWAP7 PUSH1 0x64 CALLDATALOAD SWAP7 PUSH1 0x1 DUP1 PUSH1 0xA0 SHL SUB SWAP5 DUP6 DUP10 AND DUP10 SUB PUSH2 0x815 JUMPI PUSH2 0x877 TIMESTAMP PUSH1 0x84 CALLDATALOAD LT ISZERO PUSH2 0xC29 JUMP JUMPDEST PUSH2 0x883 PUSH1 0x2 DUP10 EQ PUSH2 0xC67 JUMP JUMPDEST DUP8 PUSH1 0x1 LT ISZERO PUSH2 0xB8F JUMPI DUP6 SWAP7 SWAP8 SWAP9 SWAP10 PUSH1 0x20 SWAP10 PUSH2 0x8CE PUSH2 0x8A2 DUP13 DUP5 ADD PUSH2 0xCAA JUMP JUMPDEST PUSH32 0x0 DUP11 AND SWAP11 AND DUP11 EQ PUSH2 0xC67 JUMP JUMPDEST ISZERO PUSH2 0xB7D JUMPI PUSH2 0x8DD DUP8 SWAP2 PUSH2 0xCAA JUMP JUMPDEST AND SWAP6 DUP9 MLOAD PUSH4 0x23B872DD PUSH1 0xE0 SHL DUP2 MSTORE CALLER DUP6 DUP3 ADD MSTORE ADDRESS DUP5 DUP3 ADD MSTORE DUP7 PUSH1 0x44 DUP3 ADD MSTORE DUP11 DUP2 PUSH1 0x64 DUP2 DUP10 DUP13 GAS CALL DUP1 ISZERO PUSH2 0xB3F JUMPI PUSH2 0xB49 JUMPI JUMPDEST POP DUP9 MLOAD PUSH4 0x95EA7B3 PUSH1 0xE0 SHL DUP2 MSTORE PUSH1 0x1 PUSH1 0x1 PUSH1 0xA0 SHL SUB PUSH32 0x0 SWAP3 SWAP1 SWAP3 AND SWAP2 DUP3 AND DUP6 DUP3 ADD SWAP1 DUP2 MSTORE PUSH1 0x20 DUP2 ADD DUP9 SWAP1 MSTORE DUP12 SWAP1 DUP3 SWAP1 DUP2 SWAP1 PUSH1 0x40 ADD SUB DUP2 DUP10 DUP13 GAS CALL DUP1 ISZERO PUSH2 0xB3F JUMPI SWAP2 DUP12 SWAP2 DUP8 SWAP5 SWAP4 PUSH2 0xAFF JUMPI JUMPDEST POP PUSH1 0x64 DUP12 MLOAD DUP1 SWAP9 DUP2 SWAP4 PUSH4 0x35139231 PUSH1 0xE1 SHL DUP4 MSTORE DUP13 DUP11 DUP5 ADD MSTORE DUP12 DUP10 DUP5 ADD MSTORE DUP9 CALLDATALOAD PUSH1 0x44 DUP5 ADD MSTORE GAS CALL SWAP5 DUP6 ISZERO PUSH2 0xAF5 JUMPI DUP12 SWAP1 DUP4 SWAP7 PUSH2 0xABD JUMPI JUMPDEST POP DUP3 DUP1 DUP1 DUP9 DUP2 SWAP5 GAS CALL SWAP2 RETURNDATASIZE ISZERO PUSH2 0xAB6 JUMPI RETURNDATASIZE SWAP2 DUP3 GT PUSH2 0xAA4 JUMPI DUP10 MLOAD SWAP2 PUSH2 0x9DD PUSH1 0x1F DUP3 ADD PUSH1 0x1F NOT AND DUP14 ADD DUP5 PUSH2 0xCF0 JUMP JUMPDEST DUP3 MSTORE DUP11 RETURNDATASIZE SWAP3 ADD RETURNDATACOPY JUMPDEST ISZERO PUSH2 0xA62 JUMPI POP POP PUSH2 0x1BB SWAP7 PUSH32 0x54787C404BB33C88E86F4BAF88183A3B0141D0A848E6A9F7A13B66AE3A9B73D1 SWAP2 DUP7 DUP1 MLOAD SWAP9 PUSH2 0xA1F DUP11 PUSH2 0xCBE JUMP JUMPDEST PUSH1 0x2 DUP11 MSTORE CALLDATASIZE SWAP1 DUP11 ADD CALLDATACOPY DUP4 PUSH2 0xA32 DUP10 PUSH2 0xD1F JUMP JUMPDEST MSTORE DUP1 PUSH2 0xA3D DUP10 PUSH2 0xD42 JUMP JUMPDEST MSTORE DUP7 MLOAD SWAP4 DUP5 MSTORE PUSH1 0x20 DUP5 ADD MSTORE PUSH1 0x1 PUSH1 0x1 PUSH1 0xA0 SHL SUB AND PUSH1 0x40 DUP4 ADD MSTORE CALLER SWAP2 DUP1 PUSH1 0x60 DUP2 ADD PUSH2 0x6FF JUMP JUMPDEST DUP7 MLOAD PUSH3 0x461BCD PUSH1 0xE5 SHL DUP2 MSTORE SWAP2 DUP3 ADD DUP9 SWAP1 MSTORE PUSH1 0x1B SWAP1 DUP3 ADD MSTORE PUSH32 0x526F757465723A204554485F5452414E534645525F4641494C45440000000000 PUSH1 0x44 DUP3 ADD MSTORE PUSH1 0x64 SWAP1 REVERT JUMPDEST PUSH4 0x4E487B71 PUSH1 0xE0 SHL DUP2 MSTORE PUSH1 0x41 DUP6 MSTORE DUP4 SWAP1 REVERT JUMPDEST POP POP PUSH2 0x9E5 JUMP JUMPDEST DUP1 SWAP3 SWAP4 SWAP5 SWAP6 SWAP7 POP DUP12 DUP1 SWAP3 POP RETURNDATASIZE DUP4 GT PUSH2 0xAEE JUMPI JUMPDEST PUSH2 0xADA DUP2 DUP4 PUSH2 0xCF0 JUMP JUMPDEST DUP2 ADD SUB SLT PUSH2 0x2B8 JUMPI MLOAD SWAP4 SWAP3 SWAP2 SWAP1 DUP11 DUP3 PUSH2 0x9AF JUMP JUMPDEST POP RETURNDATASIZE PUSH2 0xAD0 JUMP JUMPDEST DUP10 MLOAD RETURNDATASIZE DUP5 DUP3 RETURNDATACOPY RETURNDATASIZE SWAP1 REVERT JUMPDEST DUP3 DUP2 SWAP4 SWAP3 SWAP5 SWAP6 POP RETURNDATASIZE DUP4 GT PUSH2 0xB38 JUMPI JUMPDEST PUSH2 0xB18 DUP2 DUP4 PUSH2 0xCF0 JUMP JUMPDEST DUP2 ADD SUB SLT PUSH2 0xB34 JUMPI DUP6 SWAP3 SWAP2 PUSH2 0xB2D DUP13 SWAP3 PUSH2 0xD12 JUMP JUMPDEST POP DUP14 PUSH2 0x979 JUMP JUMPDEST DUP6 DUP1 REVERT JUMPDEST POP RETURNDATASIZE PUSH2 0xB0E JUMP JUMPDEST DUP11 MLOAD RETURNDATASIZE DUP9 DUP3 RETURNDATACOPY RETURNDATASIZE SWAP1 REVERT JUMPDEST DUP11 DUP2 DUP2 RETURNDATASIZE DUP4 GT PUSH2 0xB76 JUMPI JUMPDEST PUSH2 0xB5E DUP2 DUP4 PUSH2 0xCF0 JUMP JUMPDEST DUP2 ADD SUB SLT PUSH2 0xB34 JUMPI PUSH2 0xB6F SWAP1 PUSH2 0xD12 JUMP JUMPDEST POP DUP12 PUSH2 0x90F JUMP JUMPDEST POP RETURNDATASIZE PUSH2 0xB54 JUMP JUMPDEST PUSH4 0x4E487B71 PUSH1 0xE0 SHL DUP6 MSTORE PUSH1 0x32 DUP5 MSTORE DUP3 DUP6 REVERT JUMPDEST POP PUSH4 0x4E487B71 PUSH1 0xE0 SHL DUP4 MSTORE PUSH1 0x32 DUP3 MSTORE DUP3 REVERT JUMPDEST SWAP2 DUP2 PUSH1 0x1F DUP5 ADD SLT ISZERO PUSH2 0xBD2 JUMPI DUP3 CALLDATALOAD SWAP2 PUSH8 0xFFFFFFFFFFFFFFFF DUP4 GT PUSH2 0xBD2 JUMPI PUSH1 0x20 DUP1 DUP6 ADD SWAP5 DUP5 PUSH1 0x5 SHL ADD ADD GT PUSH2 0xBD2 JUMPI JUMP JUMPDEST PUSH1 0x0 DUP1 REVERT JUMPDEST PUSH1 0x4 CALLDATALOAD SWAP1 PUSH1 0x1 PUSH1 0x1 PUSH1 0xA0 SHL SUB DUP3 AND DUP3 SUB PUSH2 0xBD2 JUMPI JUMP JUMPDEST PUSH1 0x20 SWAP1 PUSH1 0x20 PUSH1 0x40 DUP2 DUP4 ADD SWAP3 DUP3 DUP2 MSTORE DUP6 MLOAD DUP1 SWAP5 MSTORE ADD SWAP4 ADD SWAP2 PUSH1 0x0 JUMPDEST DUP3 DUP2 LT PUSH2 0xC15 JUMPI POP POP POP POP SWAP1 JUMP JUMPDEST DUP4 MLOAD DUP6 MSTORE SWAP4 DUP2 ADD SWAP4 SWAP3 DUP2 ADD SWAP3 PUSH1 0x1 ADD PUSH2 0xC07 JUMP JUMPDEST ISZERO PUSH2 0xC30 JUMPI JUMP JUMPDEST PUSH1 0x40 MLOAD PUSH3 0x461BCD PUSH1 0xE5 SHL DUP2 MSTORE PUSH1 0x20 PUSH1 0x4 DUP3 ADD MSTORE PUSH1 0xF PUSH1 0x24 DUP3 ADD MSTORE PUSH15 0x149BDD5D195C8E8811561412549151 PUSH1 0x8A SHL PUSH1 0x44 DUP3 ADD MSTORE PUSH1 0x64 SWAP1 REVERT JUMPDEST ISZERO PUSH2 0xC6E JUMPI JUMP JUMPDEST PUSH1 0x40 MLOAD PUSH3 0x461BCD PUSH1 0xE5 SHL DUP2 MSTORE PUSH1 0x20 PUSH1 0x4 DUP3 ADD MSTORE PUSH1 0x14 PUSH1 0x24 DUP3 ADD MSTORE PUSH20 0xA4DEEAE8CAE47440929CAC82989288BEA082A89 PUSH1 0x63 SHL PUSH1 0x44 DUP3 ADD MSTORE PUSH1 0x64 SWAP1 REVERT JUMPDEST CALLDATALOAD PUSH1 0x1 PUSH1 0x1 PUSH1 0xA0 SHL SUB DUP2 AND DUP2 SUB PUSH2 0xBD2 JUMPI SWAP1 JUMP JUMPDEST PUSH1 0x60 DUP2 ADD SWAP1 DUP2 LT PUSH8 0xFFFFFFFFFFFFFFFF DUP3 GT OR PUSH2 0xCDA JUMPI PUSH1 0x40 MSTORE JUMP JUMPDEST PUSH4 0x4E487B71 PUSH1 0xE0 SHL PUSH1 0x0 MSTORE PUSH1 0x41 PUSH1 0x4 MSTORE PUSH1 0x24 PUSH1 0x0 REVERT JUMPDEST SWAP1 PUSH1 0x1F DUP1 NOT SWAP2 ADD AND DUP2 ADD SWAP1 DUP2 LT PUSH8 0xFFFFFFFFFFFFFFFF DUP3 GT OR PUSH2 0xCDA JUMPI PUSH1 0x40 MSTORE JUMP JUMPDEST MLOAD SWAP1 DUP2 ISZERO ISZERO DUP3 SUB PUSH2 0xBD2 JUMPI JUMP JUMPDEST DUP1 MLOAD ISZERO PUSH2 0xD2C JUMPI PUSH1 0x20 ADD SWAP1 JUMP JUMPDEST PUSH4 0x4E487B71 PUSH1 0xE0 SHL PUSH1 0x0 MSTORE PUSH1 0x32 PUSH1 0x4 MSTORE PUSH1 0x24 PUSH1 0x0 REVERT JUMPDEST DUP1 MLOAD PUSH1 0x1 LT ISZERO PUSH2 0xD2C JUMPI PUSH1 0x40 ADD SWAP1 JUMP JUMPDEST SWAP2 SWAP1 DUP3 PUSH1 0x40 SWAP2 SUB SLT PUSH2 0xBD2 JUMPI PUSH1 0x20 DUP3 MLOAD SWAP3 ADD MLOAD SWAP1 JUMP INVALID LOG2 PUSH5 0x6970667358 0x22 SLT KECCAK256 0x4F 0xCA 0xB4 0xC6 0xF7 PUSH22 0x366D50E1E747D09BAB0557BE8C0A4AA79894BBE3929B 0x2E SWAP16 ORIGIN PUSH6 0x64736F6C6343 STOP ADDMOD XOR STOP CALLER "},"methodIdentifiers":{"WBNB()":"8dd95002","getAmountsOut(uint256,address[])":"d06ca61f","getTokenPrice(address)":"d02641a0","isTokenActive(address)":"895b327e","market()":"80f55605","swapExactETHForTokens(uint256,address[],address,uint256)":"7ff36ab5","swapExactTokensForETH(uint256,uint256,address[],address,uint256)":"18cbafe5"}}}}}