{"contracts/HoneycombPostBond.sol":{"HoneycombPostBond":{"abi":[{"inputs":[{"internalType":"address","name":"_agentRegistry","type":"address"},{"internalType":"address","name":"_treasury","type":"address"}],"stateMutability":"nonpayable","type":"constructor"},{"inputs":[],"name":"AccessControlBadConfirmation","type":"error"},{"inputs":[{"internalType":"address","name":"account","type":"address"},{"internalType":"bytes32","name":"neededRole","type":"bytes32"}],"name":"AccessControlUnauthorizedAccount","type":"error"},{"inputs":[],"name":"AgentNotFound","type":"error"},{"inputs":[],"name":"CannotChallengeOwnPost","type":"error"},{"inputs":[],"name":"ChallengeAlreadyResolved","type":"error"},{"inputs":[],"name":"ChallengeNotFound","type":"error"},{"inputs":[],"name":"InsufficientBond","type":"error"},{"inputs":[],"name":"InsufficientChallengeStake","type":"error"},{"inputs":[],"name":"InvalidCID","type":"error"},{"inputs":[],"name":"NotAgentOwner","type":"error"},{"inputs":[],"name":"NotPostOwner","type":"error"},{"inputs":[],"name":"PostAlreadyChallenged","type":"error"},{"inputs":[],"name":"PostAlreadyResolved","type":"error"},{"inputs":[],"name":"PostNotFound","type":"error"},{"inputs":[],"name":"PostRemoved","type":"error"},{"inputs":[],"name":"ReentrancyGuardReentrantCall","type":"error"},{"inputs":[],"name":"TransferFailed","type":"error"},{"inputs":[],"name":"WithdrawTooEarly","type":"error"},{"anonymous":false,"inputs":[{"indexed":true,"internalType":"uint256","name":"postId","type":"uint256"},{"indexed":true,"internalType":"address","name":"owner","type":"address"},{"indexed":false,"internalType":"uint256","name":"amount","type":"uint256"},{"indexed":false,"internalType":"uint256","name":"timestamp","type":"uint256"}],"name":"BondWithdrawn","type":"event"},{"anonymous":false,"inputs":[{"indexed":true,"internalType":"uint256","name":"challengeId","type":"uint256"},{"indexed":true,"internalType":"uint256","name":"postId","type":"uint256"},{"indexed":false,"internalType":"enum HoneycombPostBond.ChallengeOutcome","name":"outcome","type":"uint8"},{"indexed":false,"internalType":"uint256","name":"timestamp","type":"uint256"}],"name":"ChallengeResolved","type":"event"},{"anonymous":false,"inputs":[{"indexed":true,"internalType":"uint256","name":"challengeId","type":"uint256"},{"indexed":true,"internalType":"uint256","name":"postId","type":"uint256"},{"indexed":true,"internalType":"address","name":"challenger","type":"address"},{"indexed":false,"internalType":"string","name":"reasonCID","type":"string"},{"indexed":false,"internalType":"uint256","name":"stake","type":"uint256"},{"indexed":false,"internalType":"uint256","name":"timestamp","type":"uint256"}],"name":"PostChallenged","type":"event"},{"anonymous":false,"inputs":[{"indexed":true,"internalType":"uint256","name":"postId","type":"uint256"},{"indexed":true,"internalType":"uint256","name":"agentId","type":"uint256"},{"indexed":true,"internalType":"address","name":"owner","type":"address"},{"indexed":false,"internalType":"string","name":"contentCID","type":"string"},{"indexed":false,"internalType":"uint256","name":"bondAmount","type":"uint256"},{"indexed":false,"internalType":"uint256","name":"timestamp","type":"uint256"}],"name":"PostCreated","type":"event"},{"anonymous":false,"inputs":[{"indexed":true,"internalType":"bytes32","name":"role","type":"bytes32"},{"indexed":true,"internalType":"bytes32","name":"previousAdminRole","type":"bytes32"},{"indexed":true,"internalType":"bytes32","name":"newAdminRole","type":"bytes32"}],"name":"RoleAdminChanged","type":"event"},{"anonymous":false,"inputs":[{"indexed":true,"internalType":"bytes32","name":"role","type":"bytes32"},{"indexed":true,"internalType":"address","name":"account","type":"address"},{"indexed":true,"internalType":"address","name":"sender","type":"address"}],"name":"RoleGranted","type":"event"},{"anonymous":false,"inputs":[{"indexed":true,"internalType":"bytes32","name":"role","type":"bytes32"},{"indexed":true,"internalType":"address","name":"account","type":"address"},{"indexed":true,"internalType":"address","name":"sender","type":"address"}],"name":"RoleRevoked","type":"event"},{"inputs":[],"name":"ADMIN_ROLE","outputs":[{"internalType":"bytes32","name":"","type":"bytes32"}],"stateMutability":"view","type":"function"},{"inputs":[],"name":"CHALLENGER_SHARE","outputs":[{"internalType":"uint256","name":"","type":"uint256"}],"stateMutability":"view","type":"function"},{"inputs":[],"name":"DEFAULT_ADMIN_ROLE","outputs":[{"internalType":"bytes32","name":"","type":"bytes32"}],"stateMutability":"view","type":"function"},{"inputs":[],"name":"MODERATOR_ROLE","outputs":[{"internalType":"bytes32","name":"","type":"bytes32"}],"stateMutability":"view","type":"function"},{"inputs":[],"name":"agentRegistry","outputs":[{"internalType":"contract IAgentRegistry","name":"","type":"address"}],"stateMutability":"view","type":"function"},{"inputs":[],"name":"bondAmount","outputs":[{"internalType":"uint256","name":"","type":"uint256"}],"stateMutability":"view","type":"function"},{"inputs":[{"internalType":"uint256","name":"postId","type":"uint256"},{"internalType":"string","name":"reasonCID","type":"string"}],"name":"challengePost","outputs":[{"internalType":"uint256","name":"challengeId","type":"uint256"}],"stateMutability":"payable","type":"function"},{"inputs":[],"name":"challengeStake","outputs":[{"internalType":"uint256","name":"","type":"uint256"}],"stateMutability":"view","type":"function"},{"inputs":[{"internalType":"uint256","name":"","type":"uint256"}],"name":"challenges","outputs":[{"internalType":"uint256","name":"id","type":"uint256"},{"internalType":"uint256","name":"postId","type":"uint256"},{"internalType":"address","name":"challenger","type":"address"},{"internalType":"uint256","name":"stake","type":"uint256"},{"internalType":"string","name":"reasonCID","type":"string"},{"internalType":"uint256","name":"openedAt","type":"uint256"},{"internalType":"uint256","name":"resolvedAt","type":"uint256"},{"internalType":"enum HoneycombPostBond.ChallengeOutcome","name":"outcome","type":"uint8"}],"stateMutability":"view","type":"function"},{"inputs":[{"internalType":"uint256","name":"agentId","type":"uint256"},{"internalType":"string","name":"contentCID","type":"string"}],"name":"createPost","outputs":[{"internalType":"uint256","name":"postId","type":"uint256"}],"stateMutability":"payable","type":"function"},{"inputs":[{"internalType":"uint256","name":"challengeId","type":"uint256"}],"name":"getChallenge","outputs":[{"components":[{"internalType":"uint256","name":"id","type":"uint256"},{"internalType":"uint256","name":"postId","type":"uint256"},{"internalType":"address","name":"challenger","type":"address"},{"internalType":"uint256","name":"stake","type":"uint256"},{"internalType":"string","name":"reasonCID","type":"string"},{"internalType":"uint256","name":"openedAt","type":"uint256"},{"internalType":"uint256","name":"resolvedAt","type":"uint256"},{"internalType":"enum HoneycombPostBond.ChallengeOutcome","name":"outcome","type":"uint8"}],"internalType":"struct HoneycombPostBond.Challenge","name":"","type":"tuple"}],"stateMutability":"view","type":"function"},{"inputs":[{"internalType":"uint256","name":"postId","type":"uint256"}],"name":"getPost","outputs":[{"components":[{"internalType":"uint256","name":"id","type":"uint256"},{"internalType":"uint256","name":"agentId","type":"uint256"},{"internalType":"address","name":"owner","type":"address"},{"internalType":"string","name":"contentCID","type":"string"},{"internalType":"uint256","name":"bondAmount","type":"uint256"},{"internalType":"uint256","name":"createdAt","type":"uint256"},{"internalType":"bool","name":"challenged","type":"bool"},{"internalType":"bool","name":"resolved","type":"bool"},{"internalType":"bool","name":"removed","type":"bool"}],"internalType":"struct HoneycombPostBond.Post","name":"","type":"tuple"}],"stateMutability":"view","type":"function"},{"inputs":[{"internalType":"bytes32","name":"role","type":"bytes32"}],"name":"getRoleAdmin","outputs":[{"internalType":"bytes32","name":"","type":"bytes32"}],"stateMutability":"view","type":"function"},{"inputs":[{"internalType":"bytes32","name":"role","type":"bytes32"},{"internalType":"address","name":"account","type":"address"}],"name":"grantRole","outputs":[],"stateMutability":"nonpayable","type":"function"},{"inputs":[{"internalType":"bytes32","name":"role","type":"bytes32"},{"internalType":"address","name":"account","type":"address"}],"name":"hasRole","outputs":[{"internalType":"bool","name":"","type":"bool"}],"stateMutability":"view","type":"function"},{"inputs":[{"internalType":"uint256","name":"","type":"uint256"}],"name":"postExists","outputs":[{"internalType":"bool","name":"","type":"bool"}],"stateMutability":"view","type":"function"},{"inputs":[{"internalType":"uint256","name":"","type":"uint256"}],"name":"postToChallenge","outputs":[{"internalType":"uint256","name":"","type":"uint256"}],"stateMutability":"view","type":"function"},{"inputs":[{"internalType":"uint256","name":"","type":"uint256"}],"name":"posts","outputs":[{"internalType":"uint256","name":"id","type":"uint256"},{"internalType":"uint256","name":"agentId","type":"uint256"},{"internalType":"address","name":"owner","type":"address"},{"internalType":"string","name":"contentCID","type":"string"},{"internalType":"uint256","name":"bondAmount","type":"uint256"},{"internalType":"uint256","name":"createdAt","type":"uint256"},{"internalType":"bool","name":"challenged","type":"bool"},{"internalType":"bool","name":"resolved","type":"bool"},{"internalType":"bool","name":"removed","type":"bool"}],"stateMutability":"view","type":"function"},{"inputs":[{"internalType":"bytes32","name":"role","type":"bytes32"},{"internalType":"address","name":"callerConfirmation","type":"address"}],"name":"renounceRole","outputs":[],"stateMutability":"nonpayable","type":"function"},{"inputs":[{"internalType":"uint256","name":"challengeId","type":"uint256"},{"internalType":"enum HoneycombPostBond.ChallengeOutcome","name":"outcome","type":"uint8"}],"name":"resolveChallenge","outputs":[],"stateMutability":"nonpayable","type":"function"},{"inputs":[{"internalType":"bytes32","name":"role","type":"bytes32"},{"internalType":"address","name":"account","type":"address"}],"name":"revokeRole","outputs":[],"stateMutability":"nonpayable","type":"function"},{"inputs":[{"internalType":"address","name":"_agentRegistry","type":"address"}],"name":"setAgentRegistry","outputs":[],"stateMutability":"nonpayable","type":"function"},{"inputs":[{"internalType":"uint256","name":"_bondAmount","type":"uint256"}],"name":"setBondAmount","outputs":[],"stateMutability":"nonpayable","type":"function"},{"inputs":[{"internalType":"uint256","name":"_challengeStake","type":"uint256"}],"name":"setChallengeStake","outputs":[],"stateMutability":"nonpayable","type":"function"},{"inputs":[{"internalType":"address","name":"_treasury","type":"address"}],"name":"setTreasury","outputs":[],"stateMutability":"nonpayable","type":"function"},{"inputs":[{"internalType":"bytes4","name":"interfaceId","type":"bytes4"}],"name":"supportsInterface","outputs":[{"internalType":"bool","name":"","type":"bool"}],"stateMutability":"view","type":"function"},{"inputs":[],"name":"totalPosts","outputs":[{"internalType":"uint256","name":"","type":"uint256"}],"stateMutability":"view","type":"function"},{"inputs":[],"name":"treasury","outputs":[{"internalType":"address","name":"","type":"address"}],"stateMutability":"view","type":"function"},{"inputs":[],"name":"withdrawLockPeriod","outputs":[{"internalType":"uint256","name":"","type":"uint256"}],"stateMutability":"view","type":"function"},{"inputs":[{"internalType":"uint256","name":"postId","type":"uint256"}],"name":"withdrawPostBond","outputs":[],"stateMutability":"nonpayable","type":"function"}],"evm":{"bytecode":{"linkReferences":{},"object":"608034620000d857601f62001d2a38819003918201601f19168301916001600160401b03831184841017620000dd578084926040948552833981010312620000d8576200005a60206200005283620000f3565b9201620000f3565b600180556001600455600160055566038d7ea4c6800080600a55600b5562093a80600c5560018060a01b03908160018060a01b0319931683600254161760025516906003541617600355620000af3362000108565b50620000bb3362000188565b50620000c7336200022a565b50604051611a429081620002c88239f35b600080fd5b634e487b7160e01b600052604160045260246000fd5b51906001600160a01b0382168203620000d857565b6001600160a01b031660008181527fad3228b676f7d3cd4284a5443f17f1962b36e491b30a40b2405849e597ba5fb5602052604081205490919060ff166200018457818052816020526040822081835260205260408220600160ff19825416179055339160008051602062001d0a8339815191528180a4600190565b5090565b6001600160a01b031660008181527f7d7ffb7a348e1c6a02869081a26547b49160dd3df72d1d75a570eb9b698292ec60205260408120549091907fa49807205ce4d355092ef5a8a18f56e8913cf4a201fbe287825b095693c217759060ff166200022557808352826020526040832082845260205260408320600160ff1982541617905560008051602062001d0a833981519152339380a4600190565b505090565b6001600160a01b031660008181527ff179aafcc4ff8137fca1ef3b9ec4d165f87016ba123e7973fba770bc55e240e360205260408120549091907f71f3d55856e4058ed06ee057d79ada615f65cdf5f9ee88181b914225088f834f9060ff166200022557808352826020526040832082845260205260408320600160ff1982541617905560008051602062001d0a833981519152339380a460019056fe6080604052600436101561001257600080fd5b60e0600035811c908162601edb1461126457816301ffc9a71461120e5781630b1e7f831461115e5781630d1cfcae14611135578163191e0bf2146111095781631a4bcf42146110ed5781631bdd4b7414610f90578163248a9ca314610f615781632628490f14610f43578163275d098114610bf557816328342ecf14610bb257816328f9f3e614610b915781632f2ff15d14610b5257816336568abe14610b0b57816340731c24146109a2578163566b052114610971578163571dc4521461095357816361d027b31461092a57816375b238fc146108ef57816375b417c2146107a7578163797669c91461076c5781637b42b4111461074b57816380f323a71461072d5781638e53fb41146106ec5781638f1d37761461064957816391d14854146105fc578163a217fddf146105e0578163a9ca3a4c146101f157508063d547741f146101b05763f0f442601461016857600080fd5b346101ab5760203660031901126101ab57610181611718565b610189611879565b600380546001600160a01b0319166001600160a01b0392909216919091179055005b600080fd5b346101ab5760403660031901126101ab576101ef6004356101cf61172e565b908060005260006020526101ea6001604060002001546118f3565b611997565b005b6101fa36611543565b9291610204611856565b60025460405163de99f15760e01b8152600481018390526001600160a01b0391821690602081602481855afa9081156105a3576000916105c1575b50156105af57602060449160405192838092634744f2c960e01b82523360048301528760248301525afa9081156105a357600091610574575b501561056257841561055057600a54341061053e576004549361029a85611744565b600455604051916102aa836115e7565b8583526020830190848252604084013381526102c7368a8961176f565b91606086019283523460808701524260a0870152600060c0870152600085870152600061010087015288600052600660205260406000209386518555516001850155600284019151166bffffffffffffffffffffffff60a01b8254161790555180519067ffffffffffffffff8211610528576103466003840154611590565b601f81116104e1575b509160209893918895938a90601f83116001146104465792827f316dfb7e4e6c7c269f50925cc8a0ae5bb5149e404dd75744b6c988dcf926178297959360069361042c989660009261043b575b50508160011b916000199060031b1c19161760038201555b6080840151600482015560a08401516005820155019161ff0060c082015115159260ff62ff00006101008754938601511515950151151560101b1694169062ffffff1916179160081b161717905583600052600888526040600020600160ff19825416179055604051918291339742913491856117be565b0390a460018055604051908152f35b015190508e8061039c565b90600384016000528b6000209160005b601f19851681106104c757508360069361042c9896936001937f316dfb7e4e6c7c269f50925cc8a0ae5bb5149e404dd75744b6c988dcf92617829b9997601f198116106104ae575b505050811b0160038201556103b4565b015160001960f88460031b161c191690558e808061049e565b8183015184558c9950600190930192918d01918d01610456565b600384016000526020600020601f840160051c810160208510610521575b601f830160051c8201811061051557505061034f565b600081556001016104ff565b50806104ff565b634e487b7160e01b600052604160045260246000fd5b60405163e92c469f60e01b8152600490fd5b604051633875d9bd60e21b8152600490fd5b604051630e41dcbf60e21b8152600490fd5b610596915060203d60201161059c575b61058e8183611604565b81019061183e565b86610278565b503d610584565b6040513d6000823e3d90fd5b60405163e93ba22360e01b8152600490fd5b6105da915060203d60201161059c5761058e8183611604565b8761023f565b346101ab5760003660031901126101ab57602060405160008152f35b346101ab5760403660031901126101ab5761061561172e565b600435600052600060205260406000209060018060a01b0316600052602052602060ff604060002054166040519015158152f35b346101ab5760203660031901126101ab576004356000526007602052604060002080546106e860018301549260018060a01b03600282015416946003820154916106d561069860048301611626565b60058301549660ff6007600686015495015416956040519a8b9a610100938c5260208c015260408b015260608a01528060808a01528801906116cb565b9460a087015260c086015284019061170b565b0390f35b346101ab5760003660031901126101ab57600454600019810190811161071757602090604051908152f35b634e487b7160e01b600052601160045260246000fd5b346101ab5760003660031901126101ab576020600a54604051908152f35b346101ab5760203660031901126101ab57610764611879565b600435600b55005b346101ab5760003660031901126101ab5760206040517f71f3d55856e4058ed06ee057d79ada615f65cdf5f9ee88181b914225088f834f8152f35b346101ab5760203660031901126101ab576004356107c3611856565b80600052600860205260ff60406000205416156108dd57600081815260066020526040902060028101546001600160a01b031633036108cb57600681015460ff81166108b95760101c60ff166108a7576108246005820154600c5490611831565b42106108955760040190600082549255600080808085335af1610845611801565b5015610883576040519182524260208301527f31fd8dda05893f91dc26692dea83b33d656d23a4f8eec4405b1bb65044dc82d560403393a360018055005b6040516312171d8360e31b8152600490fd5b604051636438180360e01b8152600490fd5b604051630f5b50c360e11b8152600490fd5b604051633546ca4960e21b8152600490fd5b6040516317f7a75760e21b8152600490fd5b60405163bc1f089f60e01b8152600490fd5b346101ab5760003660031901126101ab5760206040517fa49807205ce4d355092ef5a8a18f56e8913cf4a201fbe287825b095693c217758152f35b346101ab5760003660031901126101ab576003546040516001600160a01b039091168152602090f35b346101ab5760003660031901126101ab576020600b54604051908152f35b346101ab5760203660031901126101ab576004356000526008602052602060ff604060002054166040519015158152f35b346101ab576020806003193601126101ab57604051916004356109c4846115e7565b600084526000838501526000604085015260608085015260006080850152600060a0850152600060c0850152600082850152600061010080950152806000526008835260ff60406000205416156108dd5760005260068252604060002060405193610a2e856115e7565b815485526001820154908486019182528560018060a01b0394856002860154169360408301948552610a6260038701611626565b6060840190815260048701549760808501988952600660058901549860a08701998a5201549660c086019360ff89161515855260ff8887890198828c60081c1615158a52019960101c16151589528b6040519d8e9d8e5251908d01525160408c0152511660608a01525195610ae5610120978860808c01526101408b01906116cb565b975160a08a01525160c08901525115159087015251151590850152511515908301520390f35b346101ab5760403660031901126101ab57610b2461172e565b336001600160a01b03821603610b40576101ef90600435611997565b60405163334bd91960e11b8152600490fd5b346101ab5760403660031901126101ab576101ef600435610b7161172e565b90806000526000602052610b8c6001604060002001546118f3565b611919565b346101ab5760203660031901126101ab57610baa611879565b600435600a55005b346101ab5760203660031901126101ab57610bcb611718565b610bd3611879565b600280546001600160a01b0319166001600160a01b0392909216919091179055005b346101ab5760403660031901126101ab57602460043581356003808210156101ab57610c1f611856565b3360009081527ff179aafcc4ff8137fca1ef3b9ec4d165f87016ba123e7973fba770bc55e240e360209081526040909120549094907f71f3d55856e4058ed06ee057d79ada615f65cdf5f9ee88181b914225088f834f9060ff1615610f2657508360005260078552604060002091825415610f1457600783019260ff84541682811015610eff57610eed57600093600186148015610edf575b15610ea95785610cc7916117a6565b4260068201556001810193845460005260068852604060002090600682019061010061ff0019835416178255610e945760028703610dec57906004916201000062ff000019825416179055015492603284029084820460321485151715610dd857506000808060029594610d4e610d436064849704809a6117f4565b988783015490611831565b9601546001600160a01b03969087165af1610d67611801565b50156108835782610db6575b5050507f0292fe0a16405d63e27f10383fce0390b47aac0d87126f4922fb91bacd6451d9916040915b5494610daa8351809361170b565b4290820152a360018055005b600080938193829354165af1610dca611801565b501561088357848080610d73565b634e487b7160e01b60009081526011600452fd5b50929082015490603282029082820460321483151715610dd857506000808060029594610e1e606483960480926117f4565b97909601546001600160a01b03969087165af1610e39611801565b50156108835782610e72575b5050507f0292fe0a16405d63e27f10383fce0390b47aac0d87126f4922fb91bacd6451d991604091610d9c565b600080938193829354165af1610e86611801565b501561088357848080610e45565b84634e487b7160e01b60005260216004526000fd5b60405162461bcd60e51b815260048101899052600f818601526e496e76616c6964206f7574636f6d6560881b6044820152606490fd5b506000945060028614610cb8565b604051632d921dad60e01b8152600490fd5b83634e487b7160e01b60005260216004526000fd5b604051632b8829ff60e21b8152600490fd5b60405163e2517d3f60e01b81523360048201529182015260449150fd5b346101ab5760003660031901126101ab576020600c54604051908152f35b346101ab5760203660031901126101ab5760043560005260006020526020600160406000200154604051908152f35b346101ab57602090816003193601126101ab57600435600082604051610fb5816115ca565b8281528286820152826040820152826060820152606060808201528260a08201528260c08201520152806000526007835260406000205415610f14576000526007825260406000206040519161100a836115ca565b8154835260018201549184840192835260018060a01b039283600283015416926040860193845260038301546060870190815261104960048501611626565b906080880191825260058501549660a0890197885260ff600760068801549760c08c0198895201541696848a019560038910156110d7576106e89887526040519b8c9b818d5251908c01525160408b01525116606089015251608088015251926110c1610100948560a08a01526101208901906116cb565b955160c08801525190860152519084019061170b565b634e487b7160e01b600052602160045260246000fd5b346101ab5760003660031901126101ab57602060405160328152f35b346101ab5760203660031901126101ab5760043560005260096020526020604060002054604051908152f35b346101ab5760003660031901126101ab576002546040516001600160a01b039091168152602090f35b346101ab5760203660031901126101ab576004356000526006602052604060002080549060ff60018201549260018060a01b03600284015416946111a460038501611626565b936111dd6004820154956006600584015493015494604051998a99610120928b5260208b015260408a01528060608a01528801906116cb565b94608087015260a0860152828216151560c0860152828260081c1615159085015260101c1615156101008301520390f35b346101ab5760203660031901126101ab5760043563ffffffff60e01b81168091036101ab57602090637965db0b60e01b8114908115611253575b506040519015158152f35b6301ffc9a760e01b14905082611248565b61126d36611543565b9291611277611856565b80600052600860205260ff60406000205416156108dd5780600052600660205260406000209360068501805460ff8160101c166108a75760ff81166108b957600296909601546001600160a01b0396908716331461153157821561055057600b54341061151f5760ff19166001179055600554936112f485611744565b600555604051611303816115ca565b858152602081019684885260408201338152606083019034825261132836878a61176f565b92608085019384524260a0860152600060c086015260008686015289600052600760205260406000209a85518c555160018c015560028b019151166bffffffffffffffffffffffff60a01b8254161790555160038901555180519067ffffffffffffffff82116105285781906113a160048b0154611590565b601f81116114cc575b50602090601f831160011461145a5760009261144f575b50508160011b916000199060031b1c19161760048801555b60a0810151600588015560c0810151600688015501519460038610156110d75761042c859261142e60209860077fef0302e41cf09582f9191372ee0e17d0940ce386e2a56b62bec43089fc14d0b895016117a6565b846000526009885283604060002055604051918291339742913491856117be565b0151905089806113c1565b925060048a016000526020600020906000935b601f19841685106114b1576001945083601f19811610611498575b505050811b0160048801556113d9565b015160001960f88460031b161c19169055898080611488565b8181015183556020948501946001909301929091019061146d565b90915060048a016000526020600020601f840160051c810160208510611518575b90849392915b601f830160051c820181106115095750506113aa565b600081558594506001016114f3565b50806114ed565b60405163f7616c2760e01b8152600490fd5b604051637c539d8360e11b8152600490fd5b60406003198201126101ab576004359160243567ffffffffffffffff928382116101ab57806023830112156101ab5781600401359384116101ab57602484830101116101ab576024019190565b90600182811c921680156115c0575b60208310146115aa57565b634e487b7160e01b600052602260045260246000fd5b91607f169161159f565b610100810190811067ffffffffffffffff82111761052857604052565b610120810190811067ffffffffffffffff82111761052857604052565b90601f8019910116810190811067ffffffffffffffff82111761052857604052565b9060405191826000825461163981611590565b908184526020946001916001811690816000146116a9575060011461166a575b50505061166892500383611604565b565b600090815285812095935091905b8183106116915750506116689350820101388080611659565b85548884018501529485019487945091830191611678565b9250505061166894925060ff191682840152151560051b820101388080611659565b919082519283825260005b8481106116f7575050826000602080949584010152601f8019910116010190565b6020818301810151848301820152016116d6565b9060038210156110d75752565b600435906001600160a01b03821682036101ab57565b602435906001600160a01b03821682036101ab57565b60001981146107175760010190565b67ffffffffffffffff811161052857601f01601f191660200190565b92919261177b82611753565b916117896040519384611604565b8294818452818301116101ab578281602093846000960137010152565b9060038110156110d75760ff80198354169116179055565b90826040936080929796959760608552816060860152838501376000828285010152601f80199101168201019460208201520152565b9190820391821161071757565b3d1561182c573d9061181282611753565b916118206040519384611604565b82523d6000602084013e565b606090565b9190820180921161071757565b908160209103126101ab575180151581036101ab5790565b600260015414611867576002600155565b604051633ee5aeb560e01b8152600490fd5b3360009081527f7d7ffb7a348e1c6a02869081a26547b49160dd3df72d1d75a570eb9b698292ec60205260409020547fa49807205ce4d355092ef5a8a18f56e8913cf4a201fbe287825b095693c217759060ff16156118d55750565b6044906040519063e2517d3f60e01b82523360048301526024820152fd5b80600052600060205260406000203360005260205260ff60406000205416156118d55750565b9060009180835282602052604083209160018060a01b03169182845260205260ff6040842054161560001461199257808352826020526040832082845260205260408320600160ff198254161790557f2f8788117e7eff1d82e926ec794901d17c78024a50270940304540a733656f0d339380a4600190565b505090565b9060009180835282602052604083209160018060a01b03169182845260205260ff6040842054166000146119925780835282602052604083208284526020526040832060ff1981541690557ff6391f5c32d9c69d2a47ea670b442974b53935d1edc7fd64eb21e047a839171b339380a460019056fea264697066735822122029628d020057a9b3b11c3e8538f7d7de1101ce02dbf60a4e62a4526e42a8a80b64736f6c634300081800332f8788117e7eff1d82e926ec794901d17c78024a50270940304540a733656f0d","opcodes":"PUSH1 0x80 CALLVALUE PUSH3 0xD8 JUMPI PUSH1 0x1F PUSH3 0x1D2A CODESIZE DUP2 SWAP1 SUB SWAP2 DUP3 ADD PUSH1 0x1F NOT AND DUP4 ADD SWAP2 PUSH1 0x1 PUSH1 0x1 PUSH1 0x40 SHL SUB DUP4 GT DUP5 DUP5 LT OR PUSH3 0xDD JUMPI DUP1 DUP5 SWAP3 PUSH1 0x40 SWAP5 DUP6 MSTORE DUP4 CODECOPY DUP2 ADD SUB SLT PUSH3 0xD8 JUMPI PUSH3 0x5A PUSH1 0x20 PUSH3 0x52 DUP4 PUSH3 0xF3 JUMP JUMPDEST SWAP3 ADD PUSH3 0xF3 JUMP JUMPDEST PUSH1 0x1 DUP1 SSTORE PUSH1 0x1 PUSH1 0x4 SSTORE PUSH1 0x1 PUSH1 0x5 SSTORE PUSH7 0x38D7EA4C68000 DUP1 PUSH1 0xA SSTORE PUSH1 0xB SSTORE PUSH3 0x93A80 PUSH1 0xC SSTORE PUSH1 0x1 DUP1 PUSH1 0xA0 SHL SUB SWAP1 DUP2 PUSH1 0x1 DUP1 PUSH1 0xA0 SHL SUB NOT SWAP4 AND DUP4 PUSH1 0x2 SLOAD AND OR PUSH1 0x2 SSTORE AND SWAP1 PUSH1 0x3 SLOAD AND OR PUSH1 0x3 SSTORE PUSH3 0xAF CALLER PUSH3 0x108 JUMP JUMPDEST POP PUSH3 0xBB CALLER PUSH3 0x188 JUMP JUMPDEST POP PUSH3 0xC7 CALLER PUSH3 0x22A JUMP JUMPDEST POP PUSH1 0x40 MLOAD PUSH2 0x1A42 SWAP1 DUP2 PUSH3 0x2C8 DUP3 CODECOPY RETURN JUMPDEST PUSH1 0x0 DUP1 REVERT JUMPDEST PUSH4 0x4E487B71 PUSH1 0xE0 SHL PUSH1 0x0 MSTORE PUSH1 0x41 PUSH1 0x4 MSTORE PUSH1 0x24 PUSH1 0x0 REVERT JUMPDEST MLOAD SWAP1 PUSH1 0x1 PUSH1 0x1 PUSH1 0xA0 SHL SUB DUP3 AND DUP3 SUB PUSH3 0xD8 JUMPI JUMP JUMPDEST PUSH1 0x1 PUSH1 0x1 PUSH1 0xA0 SHL SUB AND PUSH1 0x0 DUP2 DUP2 MSTORE PUSH32 0xAD3228B676F7D3CD4284A5443F17F1962B36E491B30A40B2405849E597BA5FB5 PUSH1 0x20 MSTORE PUSH1 0x40 DUP2 KECCAK256 SLOAD SWAP1 SWAP2 SWAP1 PUSH1 0xFF AND PUSH3 0x184 JUMPI DUP2 DUP1 MSTORE DUP2 PUSH1 0x20 MSTORE PUSH1 0x40 DUP3 KECCAK256 DUP2 DUP4 MSTORE PUSH1 0x20 MSTORE PUSH1 0x40 DUP3 KECCAK256 PUSH1 0x1 PUSH1 0xFF NOT DUP3 SLOAD AND OR SWAP1 SSTORE CALLER SWAP2 PUSH1 0x0 DUP1 MLOAD PUSH1 0x20 PUSH3 0x1D0A DUP4 CODECOPY DUP2 MLOAD SWAP2 MSTORE DUP2 DUP1 LOG4 PUSH1 0x1 SWAP1 JUMP JUMPDEST POP SWAP1 JUMP JUMPDEST PUSH1 0x1 PUSH1 0x1 PUSH1 0xA0 SHL SUB AND PUSH1 0x0 DUP2 DUP2 MSTORE PUSH32 0x7D7FFB7A348E1C6A02869081A26547B49160DD3DF72D1D75A570EB9B698292EC PUSH1 0x20 MSTORE PUSH1 0x40 DUP2 KECCAK256 SLOAD SWAP1 SWAP2 SWAP1 PUSH32 0xA49807205CE4D355092EF5A8A18F56E8913CF4A201FBE287825B095693C21775 SWAP1 PUSH1 0xFF AND PUSH3 0x225 JUMPI DUP1 DUP4 MSTORE DUP3 PUSH1 0x20 MSTORE PUSH1 0x40 DUP4 KECCAK256 DUP3 DUP5 MSTORE PUSH1 0x20 MSTORE PUSH1 0x40 DUP4 KECCAK256 PUSH1 0x1 PUSH1 0xFF NOT DUP3 SLOAD AND OR SWAP1 SSTORE PUSH1 0x0 DUP1 MLOAD PUSH1 0x20 PUSH3 0x1D0A DUP4 CODECOPY DUP2 MLOAD SWAP2 MSTORE CALLER SWAP4 DUP1 LOG4 PUSH1 0x1 SWAP1 JUMP JUMPDEST POP POP SWAP1 JUMP JUMPDEST PUSH1 0x1 PUSH1 0x1 PUSH1 0xA0 SHL SUB AND PUSH1 0x0 DUP2 DUP2 MSTORE PUSH32 0xF179AAFCC4FF8137FCA1EF3B9EC4D165F87016BA123E7973FBA770BC55E240E3 PUSH1 0x20 MSTORE PUSH1 0x40 DUP2 KECCAK256 SLOAD SWAP1 SWAP2 SWAP1 PUSH32 0x71F3D55856E4058ED06EE057D79ADA615F65CDF5F9EE88181B914225088F834F SWAP1 PUSH1 0xFF AND PUSH3 0x225 JUMPI DUP1 DUP4 MSTORE DUP3 PUSH1 0x20 MSTORE PUSH1 0x40 DUP4 KECCAK256 DUP3 DUP5 MSTORE PUSH1 0x20 MSTORE PUSH1 0x40 DUP4 KECCAK256 PUSH1 0x1 PUSH1 0xFF NOT DUP3 SLOAD AND OR SWAP1 SSTORE PUSH1 0x0 DUP1 MLOAD PUSH1 0x20 PUSH3 0x1D0A DUP4 CODECOPY DUP2 MLOAD SWAP2 MSTORE CALLER SWAP4 DUP1 LOG4 PUSH1 0x1 SWAP1 JUMP INVALID PUSH1 0x80 PUSH1 0x40 MSTORE PUSH1 0x4 CALLDATASIZE LT ISZERO PUSH2 0x12 JUMPI PUSH1 0x0 DUP1 REVERT JUMPDEST PUSH1 0xE0 PUSH1 0x0 CALLDATALOAD DUP2 SHR SWAP1 DUP2 PUSH3 0x601EDB EQ PUSH2 0x1264 JUMPI DUP2 PUSH4 0x1FFC9A7 EQ PUSH2 0x120E JUMPI DUP2 PUSH4 0xB1E7F83 EQ PUSH2 0x115E JUMPI DUP2 PUSH4 0xD1CFCAE EQ PUSH2 0x1135 JUMPI DUP2 PUSH4 0x191E0BF2 EQ PUSH2 0x1109 JUMPI DUP2 PUSH4 0x1A4BCF42 EQ PUSH2 0x10ED JUMPI DUP2 PUSH4 0x1BDD4B74 EQ PUSH2 0xF90 JUMPI DUP2 PUSH4 0x248A9CA3 EQ PUSH2 0xF61 JUMPI DUP2 PUSH4 0x2628490F EQ PUSH2 0xF43 JUMPI DUP2 PUSH4 0x275D0981 EQ PUSH2 0xBF5 JUMPI DUP2 PUSH4 0x28342ECF EQ PUSH2 0xBB2 JUMPI DUP2 PUSH4 0x28F9F3E6 EQ PUSH2 0xB91 JUMPI DUP2 PUSH4 0x2F2FF15D EQ PUSH2 0xB52 JUMPI DUP2 PUSH4 0x36568ABE EQ PUSH2 0xB0B JUMPI DUP2 PUSH4 0x40731C24 EQ PUSH2 0x9A2 JUMPI DUP2 PUSH4 0x566B0521 EQ PUSH2 0x971 JUMPI DUP2 PUSH4 0x571DC452 EQ PUSH2 0x953 JUMPI DUP2 PUSH4 0x61D027B3 EQ PUSH2 0x92A JUMPI DUP2 PUSH4 0x75B238FC EQ PUSH2 0x8EF JUMPI DUP2 PUSH4 0x75B417C2 EQ PUSH2 0x7A7 JUMPI DUP2 PUSH4 0x797669C9 EQ PUSH2 0x76C JUMPI DUP2 PUSH4 0x7B42B411 EQ PUSH2 0x74B JUMPI DUP2 PUSH4 0x80F323A7 EQ PUSH2 0x72D JUMPI DUP2 PUSH4 0x8E53FB41 EQ PUSH2 0x6EC JUMPI DUP2 PUSH4 0x8F1D3776 EQ PUSH2 0x649 JUMPI DUP2 PUSH4 0x91D14854 EQ PUSH2 0x5FC JUMPI DUP2 PUSH4 0xA217FDDF EQ PUSH2 0x5E0 JUMPI DUP2 PUSH4 0xA9CA3A4C EQ PUSH2 0x1F1 JUMPI POP DUP1 PUSH4 0xD547741F EQ PUSH2 0x1B0 JUMPI PUSH4 0xF0F44260 EQ PUSH2 0x168 JUMPI PUSH1 0x0 DUP1 REVERT JUMPDEST CALLVALUE PUSH2 0x1AB JUMPI PUSH1 0x20 CALLDATASIZE PUSH1 0x3 NOT ADD SLT PUSH2 0x1AB JUMPI PUSH2 0x181 PUSH2 0x1718 JUMP JUMPDEST PUSH2 0x189 PUSH2 0x1879 JUMP JUMPDEST PUSH1 0x3 DUP1 SLOAD PUSH1 0x1 PUSH1 0x1 PUSH1 0xA0 SHL SUB NOT AND PUSH1 0x1 PUSH1 0x1 PUSH1 0xA0 SHL SUB SWAP3 SWAP1 SWAP3 AND SWAP2 SWAP1 SWAP2 OR SWAP1 SSTORE STOP JUMPDEST PUSH1 0x0 DUP1 REVERT JUMPDEST CALLVALUE PUSH2 0x1AB JUMPI PUSH1 0x40 CALLDATASIZE PUSH1 0x3 NOT ADD SLT PUSH2 0x1AB JUMPI PUSH2 0x1EF PUSH1 0x4 CALLDATALOAD PUSH2 0x1CF PUSH2 0x172E JUMP JUMPDEST SWAP1 DUP1 PUSH1 0x0 MSTORE PUSH1 0x0 PUSH1 0x20 MSTORE PUSH2 0x1EA PUSH1 0x1 PUSH1 0x40 PUSH1 0x0 KECCAK256 ADD SLOAD PUSH2 0x18F3 JUMP JUMPDEST PUSH2 0x1997 JUMP JUMPDEST STOP JUMPDEST PUSH2 0x1FA CALLDATASIZE PUSH2 0x1543 JUMP JUMPDEST SWAP3 SWAP2 PUSH2 0x204 PUSH2 0x1856 JUMP JUMPDEST PUSH1 0x2 SLOAD PUSH1 0x40 MLOAD PUSH4 0xDE99F157 PUSH1 0xE0 SHL DUP2 MSTORE PUSH1 0x4 DUP2 ADD DUP4 SWAP1 MSTORE PUSH1 0x1 PUSH1 0x1 PUSH1 0xA0 SHL SUB SWAP2 DUP3 AND SWAP1 PUSH1 0x20 DUP2 PUSH1 0x24 DUP2 DUP6 GAS STATICCALL SWAP1 DUP2 ISZERO PUSH2 0x5A3 JUMPI PUSH1 0x0 SWAP2 PUSH2 0x5C1 JUMPI JUMPDEST POP ISZERO PUSH2 0x5AF JUMPI PUSH1 0x20 PUSH1 0x44 SWAP2 PUSH1 0x40 MLOAD SWAP3 DUP4 DUP1 SWAP3 PUSH4 0x4744F2C9 PUSH1 0xE0 SHL DUP3 MSTORE CALLER PUSH1 0x4 DUP4 ADD MSTORE DUP8 PUSH1 0x24 DUP4 ADD MSTORE GAS STATICCALL SWAP1 DUP2 ISZERO PUSH2 0x5A3 JUMPI PUSH1 0x0 SWAP2 PUSH2 0x574 JUMPI JUMPDEST POP ISZERO PUSH2 0x562 JUMPI DUP5 ISZERO PUSH2 0x550 JUMPI PUSH1 0xA SLOAD CALLVALUE LT PUSH2 0x53E JUMPI PUSH1 0x4 SLOAD SWAP4 PUSH2 0x29A DUP6 PUSH2 0x1744 JUMP JUMPDEST PUSH1 0x4 SSTORE PUSH1 0x40 MLOAD SWAP2 PUSH2 0x2AA DUP4 PUSH2 0x15E7 JUMP JUMPDEST DUP6 DUP4 MSTORE PUSH1 0x20 DUP4 ADD SWAP1 DUP5 DUP3 MSTORE PUSH1 0x40 DUP5 ADD CALLER DUP2 MSTORE PUSH2 0x2C7 CALLDATASIZE DUP11 DUP10 PUSH2 0x176F JUMP JUMPDEST SWAP2 PUSH1 0x60 DUP7 ADD SWAP3 DUP4 MSTORE CALLVALUE PUSH1 0x80 DUP8 ADD MSTORE TIMESTAMP PUSH1 0xA0 DUP8 ADD MSTORE PUSH1 0x0 PUSH1 0xC0 DUP8 ADD MSTORE PUSH1 0x0 DUP6 DUP8 ADD MSTORE PUSH1 0x0 PUSH2 0x100 DUP8 ADD MSTORE DUP9 PUSH1 0x0 MSTORE PUSH1 0x6 PUSH1 0x20 MSTORE PUSH1 0x40 PUSH1 0x0 KECCAK256 SWAP4 DUP7 MLOAD DUP6 SSTORE MLOAD PUSH1 0x1 DUP6 ADD SSTORE PUSH1 0x2 DUP5 ADD SWAP2 MLOAD AND PUSH12 0xFFFFFFFFFFFFFFFFFFFFFFFF PUSH1 0xA0 SHL DUP3 SLOAD AND OR SWAP1 SSTORE MLOAD DUP1 MLOAD SWAP1 PUSH8 0xFFFFFFFFFFFFFFFF DUP3 GT PUSH2 0x528 JUMPI PUSH2 0x346 PUSH1 0x3 DUP5 ADD SLOAD PUSH2 0x1590 JUMP JUMPDEST PUSH1 0x1F DUP2 GT PUSH2 0x4E1 JUMPI JUMPDEST POP SWAP2 PUSH1 0x20 SWAP9 SWAP4 SWAP2 DUP9 SWAP6 SWAP4 DUP11 SWAP1 PUSH1 0x1F DUP4 GT PUSH1 0x1 EQ PUSH2 0x446 JUMPI SWAP3 DUP3 PUSH32 0x316DFB7E4E6C7C269F50925CC8A0AE5BB5149E404DD75744B6C988DCF9261782 SWAP8 SWAP6 SWAP4 PUSH1 0x6 SWAP4 PUSH2 0x42C SWAP9 SWAP7 PUSH1 0x0 SWAP3 PUSH2 0x43B JUMPI JUMPDEST POP POP DUP2 PUSH1 0x1 SHL SWAP2 PUSH1 0x0 NOT SWAP1 PUSH1 0x3 SHL SHR NOT AND OR PUSH1 0x3 DUP3 ADD SSTORE JUMPDEST PUSH1 0x80 DUP5 ADD MLOAD PUSH1 0x4 DUP3 ADD SSTORE PUSH1 0xA0 DUP5 ADD MLOAD PUSH1 0x5 DUP3 ADD SSTORE ADD SWAP2 PUSH2 0xFF00 PUSH1 0xC0 DUP3 ADD MLOAD ISZERO ISZERO SWAP3 PUSH1 0xFF PUSH3 0xFF0000 PUSH2 0x100 DUP8 SLOAD SWAP4 DUP7 ADD MLOAD ISZERO ISZERO SWAP6 ADD MLOAD ISZERO ISZERO PUSH1 0x10 SHL AND SWAP5 AND SWAP1 PUSH3 0xFFFFFF NOT AND OR SWAP2 PUSH1 0x8 SHL AND OR OR SWAP1 SSTORE DUP4 PUSH1 0x0 MSTORE PUSH1 0x8 DUP9 MSTORE PUSH1 0x40 PUSH1 0x0 KECCAK256 PUSH1 0x1 PUSH1 0xFF NOT DUP3 SLOAD AND OR SWAP1 SSTORE PUSH1 0x40 MLOAD SWAP2 DUP3 SWAP2 CALLER SWAP8 TIMESTAMP SWAP2 CALLVALUE SWAP2 DUP6 PUSH2 0x17BE JUMP JUMPDEST SUB SWAP1 LOG4 PUSH1 0x1 DUP1 SSTORE PUSH1 0x40 MLOAD SWAP1 DUP2 MSTORE RETURN JUMPDEST ADD MLOAD SWAP1 POP DUP15 DUP1 PUSH2 0x39C JUMP JUMPDEST SWAP1 PUSH1 0x3 DUP5 ADD PUSH1 0x0 MSTORE DUP12 PUSH1 0x0 KECCAK256 SWAP2 PUSH1 0x0 JUMPDEST PUSH1 0x1F NOT DUP6 AND DUP2 LT PUSH2 0x4C7 JUMPI POP DUP4 PUSH1 0x6 SWAP4 PUSH2 0x42C SWAP9 SWAP7 SWAP4 PUSH1 0x1 SWAP4 PUSH32 0x316DFB7E4E6C7C269F50925CC8A0AE5BB5149E404DD75744B6C988DCF9261782 SWAP12 SWAP10 SWAP8 PUSH1 0x1F NOT DUP2 AND LT PUSH2 0x4AE JUMPI JUMPDEST POP POP POP DUP2 SHL ADD PUSH1 0x3 DUP3 ADD SSTORE PUSH2 0x3B4 JUMP JUMPDEST ADD MLOAD PUSH1 0x0 NOT PUSH1 0xF8 DUP5 PUSH1 0x3 SHL AND SHR NOT AND SWAP1 SSTORE DUP15 DUP1 DUP1 PUSH2 0x49E JUMP JUMPDEST DUP2 DUP4 ADD MLOAD DUP5 SSTORE DUP13 SWAP10 POP PUSH1 0x1 SWAP1 SWAP4 ADD SWAP3 SWAP2 DUP14 ADD SWAP2 DUP14 ADD PUSH2 0x456 JUMP JUMPDEST PUSH1 0x3 DUP5 ADD PUSH1 0x0 MSTORE PUSH1 0x20 PUSH1 0x0 KECCAK256 PUSH1 0x1F DUP5 ADD PUSH1 0x5 SHR DUP2 ADD PUSH1 0x20 DUP6 LT PUSH2 0x521 JUMPI JUMPDEST PUSH1 0x1F DUP4 ADD PUSH1 0x5 SHR DUP3 ADD DUP2 LT PUSH2 0x515 JUMPI POP POP PUSH2 0x34F JUMP JUMPDEST PUSH1 0x0 DUP2 SSTORE PUSH1 0x1 ADD PUSH2 0x4FF JUMP JUMPDEST POP DUP1 PUSH2 0x4FF JUMP JUMPDEST PUSH4 0x4E487B71 PUSH1 0xE0 SHL PUSH1 0x0 MSTORE PUSH1 0x41 PUSH1 0x4 MSTORE PUSH1 0x24 PUSH1 0x0 REVERT JUMPDEST PUSH1 0x40 MLOAD PUSH4 0xE92C469F PUSH1 0xE0 SHL DUP2 MSTORE PUSH1 0x4 SWAP1 REVERT JUMPDEST PUSH1 0x40 MLOAD PUSH4 0x3875D9BD PUSH1 0xE2 SHL DUP2 MSTORE PUSH1 0x4 SWAP1 REVERT JUMPDEST PUSH1 0x40 MLOAD PUSH4 0xE41DCBF PUSH1 0xE2 SHL DUP2 MSTORE PUSH1 0x4 SWAP1 REVERT JUMPDEST PUSH2 0x596 SWAP2 POP PUSH1 0x20 RETURNDATASIZE PUSH1 0x20 GT PUSH2 0x59C JUMPI JUMPDEST PUSH2 0x58E DUP2 DUP4 PUSH2 0x1604 JUMP JUMPDEST DUP2 ADD SWAP1 PUSH2 0x183E JUMP JUMPDEST DUP7 PUSH2 0x278 JUMP JUMPDEST POP RETURNDATASIZE PUSH2 0x584 JUMP JUMPDEST PUSH1 0x40 MLOAD RETURNDATASIZE PUSH1 0x0 DUP3 RETURNDATACOPY RETURNDATASIZE SWAP1 REVERT JUMPDEST PUSH1 0x40 MLOAD PUSH4 0xE93BA223 PUSH1 0xE0 SHL DUP2 MSTORE PUSH1 0x4 SWAP1 REVERT JUMPDEST PUSH2 0x5DA SWAP2 POP PUSH1 0x20 RETURNDATASIZE PUSH1 0x20 GT PUSH2 0x59C JUMPI PUSH2 0x58E DUP2 DUP4 PUSH2 0x1604 JUMP JUMPDEST DUP8 PUSH2 0x23F JUMP JUMPDEST CALLVALUE PUSH2 0x1AB JUMPI PUSH1 0x0 CALLDATASIZE PUSH1 0x3 NOT ADD SLT PUSH2 0x1AB JUMPI PUSH1 0x20 PUSH1 0x40 MLOAD PUSH1 0x0 DUP2 MSTORE RETURN JUMPDEST CALLVALUE PUSH2 0x1AB JUMPI PUSH1 0x40 CALLDATASIZE PUSH1 0x3 NOT ADD SLT PUSH2 0x1AB JUMPI PUSH2 0x615 PUSH2 0x172E JUMP JUMPDEST PUSH1 0x4 CALLDATALOAD PUSH1 0x0 MSTORE PUSH1 0x0 PUSH1 0x20 MSTORE PUSH1 0x40 PUSH1 0x0 KECCAK256 SWAP1 PUSH1 0x1 DUP1 PUSH1 0xA0 SHL SUB AND PUSH1 0x0 MSTORE PUSH1 0x20 MSTORE PUSH1 0x20 PUSH1 0xFF PUSH1 0x40 PUSH1 0x0 KECCAK256 SLOAD AND PUSH1 0x40 MLOAD SWAP1 ISZERO ISZERO DUP2 MSTORE RETURN JUMPDEST CALLVALUE PUSH2 0x1AB JUMPI PUSH1 0x20 CALLDATASIZE PUSH1 0x3 NOT ADD SLT PUSH2 0x1AB JUMPI PUSH1 0x4 CALLDATALOAD PUSH1 0x0 MSTORE PUSH1 0x7 PUSH1 0x20 MSTORE PUSH1 0x40 PUSH1 0x0 KECCAK256 DUP1 SLOAD PUSH2 0x6E8 PUSH1 0x1 DUP4 ADD SLOAD SWAP3 PUSH1 0x1 DUP1 PUSH1 0xA0 SHL SUB PUSH1 0x2 DUP3 ADD SLOAD AND SWAP5 PUSH1 0x3 DUP3 ADD SLOAD SWAP2 PUSH2 0x6D5 PUSH2 0x698 PUSH1 0x4 DUP4 ADD PUSH2 0x1626 JUMP JUMPDEST PUSH1 0x5 DUP4 ADD SLOAD SWAP7 PUSH1 0xFF PUSH1 0x7 PUSH1 0x6 DUP7 ADD SLOAD SWAP6 ADD SLOAD AND SWAP6 PUSH1 0x40 MLOAD SWAP11 DUP12 SWAP11 PUSH2 0x100 SWAP4 DUP13 MSTORE PUSH1 0x20 DUP13 ADD MSTORE PUSH1 0x40 DUP12 ADD MSTORE PUSH1 0x60 DUP11 ADD MSTORE DUP1 PUSH1 0x80 DUP11 ADD MSTORE DUP9 ADD SWAP1 PUSH2 0x16CB JUMP JUMPDEST SWAP5 PUSH1 0xA0 DUP8 ADD MSTORE PUSH1 0xC0 DUP7 ADD MSTORE DUP5 ADD SWAP1 PUSH2 0x170B JUMP JUMPDEST SUB SWAP1 RETURN JUMPDEST CALLVALUE PUSH2 0x1AB JUMPI PUSH1 0x0 CALLDATASIZE PUSH1 0x3 NOT ADD SLT PUSH2 0x1AB JUMPI PUSH1 0x4 SLOAD PUSH1 0x0 NOT DUP2 ADD SWAP1 DUP2 GT PUSH2 0x717 JUMPI PUSH1 0x20 SWAP1 PUSH1 0x40 MLOAD SWAP1 DUP2 MSTORE RETURN JUMPDEST PUSH4 0x4E487B71 PUSH1 0xE0 SHL PUSH1 0x0 MSTORE PUSH1 0x11 PUSH1 0x4 MSTORE PUSH1 0x24 PUSH1 0x0 REVERT JUMPDEST CALLVALUE PUSH2 0x1AB JUMPI PUSH1 0x0 CALLDATASIZE PUSH1 0x3 NOT ADD SLT PUSH2 0x1AB JUMPI PUSH1 0x20 PUSH1 0xA SLOAD PUSH1 0x40 MLOAD SWAP1 DUP2 MSTORE RETURN JUMPDEST CALLVALUE PUSH2 0x1AB JUMPI PUSH1 0x20 CALLDATASIZE PUSH1 0x3 NOT ADD SLT PUSH2 0x1AB JUMPI PUSH2 0x764 PUSH2 0x1879 JUMP JUMPDEST PUSH1 0x4 CALLDATALOAD PUSH1 0xB SSTORE STOP JUMPDEST CALLVALUE PUSH2 0x1AB JUMPI PUSH1 0x0 CALLDATASIZE PUSH1 0x3 NOT ADD SLT PUSH2 0x1AB JUMPI PUSH1 0x20 PUSH1 0x40 MLOAD PUSH32 0x71F3D55856E4058ED06EE057D79ADA615F65CDF5F9EE88181B914225088F834F DUP2 MSTORE RETURN JUMPDEST CALLVALUE PUSH2 0x1AB JUMPI PUSH1 0x20 CALLDATASIZE PUSH1 0x3 NOT ADD SLT PUSH2 0x1AB JUMPI PUSH1 0x4 CALLDATALOAD PUSH2 0x7C3 PUSH2 0x1856 JUMP JUMPDEST DUP1 PUSH1 0x0 MSTORE PUSH1 0x8 PUSH1 0x20 MSTORE PUSH1 0xFF PUSH1 0x40 PUSH1 0x0 KECCAK256 SLOAD AND ISZERO PUSH2 0x8DD JUMPI PUSH1 0x0 DUP2 DUP2 MSTORE PUSH1 0x6 PUSH1 0x20 MSTORE PUSH1 0x40 SWAP1 KECCAK256 PUSH1 0x2 DUP2 ADD SLOAD PUSH1 0x1 PUSH1 0x1 PUSH1 0xA0 SHL SUB AND CALLER SUB PUSH2 0x8CB JUMPI PUSH1 0x6 DUP2 ADD SLOAD PUSH1 0xFF DUP2 AND PUSH2 0x8B9 JUMPI PUSH1 0x10 SHR PUSH1 0xFF AND PUSH2 0x8A7 JUMPI PUSH2 0x824 PUSH1 0x5 DUP3 ADD SLOAD PUSH1 0xC SLOAD SWAP1 PUSH2 0x1831 JUMP JUMPDEST TIMESTAMP LT PUSH2 0x895 JUMPI PUSH1 0x4 ADD SWAP1 PUSH1 0x0 DUP3 SLOAD SWAP3 SSTORE PUSH1 0x0 DUP1 DUP1 DUP1 DUP6 CALLER GAS CALL PUSH2 0x845 PUSH2 0x1801 JUMP JUMPDEST POP ISZERO PUSH2 0x883 JUMPI PUSH1 0x40 MLOAD SWAP2 DUP3 MSTORE TIMESTAMP PUSH1 0x20 DUP4 ADD MSTORE PUSH32 0x31FD8DDA05893F91DC26692DEA83B33D656D23A4F8EEC4405B1BB65044DC82D5 PUSH1 0x40 CALLER SWAP4 LOG3 PUSH1 0x1 DUP1 SSTORE STOP JUMPDEST PUSH1 0x40 MLOAD PUSH4 0x12171D83 PUSH1 0xE3 SHL DUP2 MSTORE PUSH1 0x4 SWAP1 REVERT JUMPDEST PUSH1 0x40 MLOAD PUSH4 0x64381803 PUSH1 0xE0 SHL DUP2 MSTORE PUSH1 0x4 SWAP1 REVERT JUMPDEST PUSH1 0x40 MLOAD PUSH4 0xF5B50C3 PUSH1 0xE1 SHL DUP2 MSTORE PUSH1 0x4 SWAP1 REVERT JUMPDEST PUSH1 0x40 MLOAD PUSH4 0x3546CA49 PUSH1 0xE2 SHL DUP2 MSTORE PUSH1 0x4 SWAP1 REVERT JUMPDEST PUSH1 0x40 MLOAD PUSH4 0x17F7A757 PUSH1 0xE2 SHL DUP2 MSTORE PUSH1 0x4 SWAP1 REVERT JUMPDEST PUSH1 0x40 MLOAD PUSH4 0xBC1F089F PUSH1 0xE0 SHL DUP2 MSTORE PUSH1 0x4 SWAP1 REVERT JUMPDEST CALLVALUE PUSH2 0x1AB JUMPI PUSH1 0x0 CALLDATASIZE PUSH1 0x3 NOT ADD SLT PUSH2 0x1AB JUMPI PUSH1 0x20 PUSH1 0x40 MLOAD PUSH32 0xA49807205CE4D355092EF5A8A18F56E8913CF4A201FBE287825B095693C21775 DUP2 MSTORE RETURN JUMPDEST CALLVALUE PUSH2 0x1AB JUMPI PUSH1 0x0 CALLDATASIZE PUSH1 0x3 NOT ADD SLT PUSH2 0x1AB JUMPI PUSH1 0x3 SLOAD PUSH1 0x40 MLOAD PUSH1 0x1 PUSH1 0x1 PUSH1 0xA0 SHL SUB SWAP1 SWAP2 AND DUP2 MSTORE PUSH1 0x20 SWAP1 RETURN JUMPDEST CALLVALUE PUSH2 0x1AB JUMPI PUSH1 0x0 CALLDATASIZE PUSH1 0x3 NOT ADD SLT PUSH2 0x1AB JUMPI PUSH1 0x20 PUSH1 0xB SLOAD PUSH1 0x40 MLOAD SWAP1 DUP2 MSTORE RETURN JUMPDEST CALLVALUE PUSH2 0x1AB JUMPI PUSH1 0x20 CALLDATASIZE PUSH1 0x3 NOT ADD SLT PUSH2 0x1AB JUMPI PUSH1 0x4 CALLDATALOAD PUSH1 0x0 MSTORE PUSH1 0x8 PUSH1 0x20 MSTORE PUSH1 0x20 PUSH1 0xFF PUSH1 0x40 PUSH1 0x0 KECCAK256 SLOAD AND PUSH1 0x40 MLOAD SWAP1 ISZERO ISZERO DUP2 MSTORE RETURN JUMPDEST CALLVALUE PUSH2 0x1AB JUMPI PUSH1 0x20 DUP1 PUSH1 0x3 NOT CALLDATASIZE ADD SLT PUSH2 0x1AB JUMPI PUSH1 0x40 MLOAD SWAP2 PUSH1 0x4 CALLDATALOAD PUSH2 0x9C4 DUP5 PUSH2 0x15E7 JUMP JUMPDEST PUSH1 0x0 DUP5 MSTORE PUSH1 0x0 DUP4 DUP6 ADD MSTORE PUSH1 0x0 PUSH1 0x40 DUP6 ADD MSTORE PUSH1 0x60 DUP1 DUP6 ADD MSTORE PUSH1 0x0 PUSH1 0x80 DUP6 ADD MSTORE PUSH1 0x0 PUSH1 0xA0 DUP6 ADD MSTORE PUSH1 0x0 PUSH1 0xC0 DUP6 ADD MSTORE PUSH1 0x0 DUP3 DUP6 ADD MSTORE PUSH1 0x0 PUSH2 0x100 DUP1 SWAP6 ADD MSTORE DUP1 PUSH1 0x0 MSTORE PUSH1 0x8 DUP4 MSTORE PUSH1 0xFF PUSH1 0x40 PUSH1 0x0 KECCAK256 SLOAD AND ISZERO PUSH2 0x8DD JUMPI PUSH1 0x0 MSTORE PUSH1 0x6 DUP3 MSTORE PUSH1 0x40 PUSH1 0x0 KECCAK256 PUSH1 0x40 MLOAD SWAP4 PUSH2 0xA2E DUP6 PUSH2 0x15E7 JUMP JUMPDEST DUP2 SLOAD DUP6 MSTORE PUSH1 0x1 DUP3 ADD SLOAD SWAP1 DUP5 DUP7 ADD SWAP2 DUP3 MSTORE DUP6 PUSH1 0x1 DUP1 PUSH1 0xA0 SHL SUB SWAP5 DUP6 PUSH1 0x2 DUP7 ADD SLOAD AND SWAP4 PUSH1 0x40 DUP4 ADD SWAP5 DUP6 MSTORE PUSH2 0xA62 PUSH1 0x3 DUP8 ADD PUSH2 0x1626 JUMP JUMPDEST PUSH1 0x60 DUP5 ADD SWAP1 DUP2 MSTORE PUSH1 0x4 DUP8 ADD SLOAD SWAP8 PUSH1 0x80 DUP6 ADD SWAP9 DUP10 MSTORE PUSH1 0x6 PUSH1 0x5 DUP10 ADD SLOAD SWAP9 PUSH1 0xA0 DUP8 ADD SWAP10 DUP11 MSTORE ADD SLOAD SWAP7 PUSH1 0xC0 DUP7 ADD SWAP4 PUSH1 0xFF DUP10 AND ISZERO ISZERO DUP6 MSTORE PUSH1 0xFF DUP9 DUP8 DUP10 ADD SWAP9 DUP3 DUP13 PUSH1 0x8 SHR AND ISZERO ISZERO DUP11 MSTORE ADD SWAP10 PUSH1 0x10 SHR AND ISZERO ISZERO DUP10 MSTORE DUP12 PUSH1 0x40 MLOAD SWAP14 DUP15 SWAP14 DUP15 MSTORE MLOAD SWAP1 DUP14 ADD MSTORE MLOAD PUSH1 0x40 DUP13 ADD MSTORE MLOAD AND PUSH1 0x60 DUP11 ADD MSTORE MLOAD SWAP6 PUSH2 0xAE5 PUSH2 0x120 SWAP8 DUP9 PUSH1 0x80 DUP13 ADD MSTORE PUSH2 0x140 DUP12 ADD SWAP1 PUSH2 0x16CB JUMP JUMPDEST SWAP8 MLOAD PUSH1 0xA0 DUP11 ADD MSTORE MLOAD PUSH1 0xC0 DUP10 ADD MSTORE MLOAD ISZERO ISZERO SWAP1 DUP8 ADD MSTORE MLOAD ISZERO ISZERO SWAP1 DUP6 ADD MSTORE MLOAD ISZERO ISZERO SWAP1 DUP4 ADD MSTORE SUB SWAP1 RETURN JUMPDEST CALLVALUE PUSH2 0x1AB JUMPI PUSH1 0x40 CALLDATASIZE PUSH1 0x3 NOT ADD SLT PUSH2 0x1AB JUMPI PUSH2 0xB24 PUSH2 0x172E JUMP JUMPDEST CALLER PUSH1 0x1 PUSH1 0x1 PUSH1 0xA0 SHL SUB DUP3 AND SUB PUSH2 0xB40 JUMPI PUSH2 0x1EF SWAP1 PUSH1 0x4 CALLDATALOAD PUSH2 0x1997 JUMP JUMPDEST PUSH1 0x40 MLOAD PUSH4 0x334BD919 PUSH1 0xE1 SHL DUP2 MSTORE PUSH1 0x4 SWAP1 REVERT JUMPDEST CALLVALUE PUSH2 0x1AB JUMPI PUSH1 0x40 CALLDATASIZE PUSH1 0x3 NOT ADD SLT PUSH2 0x1AB JUMPI PUSH2 0x1EF PUSH1 0x4 CALLDATALOAD PUSH2 0xB71 PUSH2 0x172E JUMP JUMPDEST SWAP1 DUP1 PUSH1 0x0 MSTORE PUSH1 0x0 PUSH1 0x20 MSTORE PUSH2 0xB8C PUSH1 0x1 PUSH1 0x40 PUSH1 0x0 KECCAK256 ADD SLOAD PUSH2 0x18F3 JUMP JUMPDEST PUSH2 0x1919 JUMP JUMPDEST CALLVALUE PUSH2 0x1AB JUMPI PUSH1 0x20 CALLDATASIZE PUSH1 0x3 NOT ADD SLT PUSH2 0x1AB JUMPI PUSH2 0xBAA PUSH2 0x1879 JUMP JUMPDEST PUSH1 0x4 CALLDATALOAD PUSH1 0xA SSTORE STOP JUMPDEST CALLVALUE PUSH2 0x1AB JUMPI PUSH1 0x20 CALLDATASIZE PUSH1 0x3 NOT ADD SLT PUSH2 0x1AB JUMPI PUSH2 0xBCB PUSH2 0x1718 JUMP JUMPDEST PUSH2 0xBD3 PUSH2 0x1879 JUMP JUMPDEST PUSH1 0x2 DUP1 SLOAD PUSH1 0x1 PUSH1 0x1 PUSH1 0xA0 SHL SUB NOT AND PUSH1 0x1 PUSH1 0x1 PUSH1 0xA0 SHL SUB SWAP3 SWAP1 SWAP3 AND SWAP2 SWAP1 SWAP2 OR SWAP1 SSTORE STOP JUMPDEST CALLVALUE PUSH2 0x1AB JUMPI PUSH1 0x40 CALLDATASIZE PUSH1 0x3 NOT ADD SLT PUSH2 0x1AB JUMPI PUSH1 0x24 PUSH1 0x4 CALLDATALOAD DUP2 CALLDATALOAD PUSH1 0x3 DUP1 DUP3 LT ISZERO PUSH2 0x1AB JUMPI PUSH2 0xC1F PUSH2 0x1856 JUMP JUMPDEST CALLER PUSH1 0x0 SWAP1 DUP2 MSTORE PUSH32 0xF179AAFCC4FF8137FCA1EF3B9EC4D165F87016BA123E7973FBA770BC55E240E3 PUSH1 0x20 SWAP1 DUP2 MSTORE PUSH1 0x40 SWAP1 SWAP2 KECCAK256 SLOAD SWAP1 SWAP5 SWAP1 PUSH32 0x71F3D55856E4058ED06EE057D79ADA615F65CDF5F9EE88181B914225088F834F SWAP1 PUSH1 0xFF AND ISZERO PUSH2 0xF26 JUMPI POP DUP4 PUSH1 0x0 MSTORE PUSH1 0x7 DUP6 MSTORE PUSH1 0x40 PUSH1 0x0 KECCAK256 SWAP2 DUP3 SLOAD ISZERO PUSH2 0xF14 JUMPI PUSH1 0x7 DUP4 ADD SWAP3 PUSH1 0xFF DUP5 SLOAD AND DUP3 DUP2 LT ISZERO PUSH2 0xEFF JUMPI PUSH2 0xEED JUMPI PUSH1 0x0 SWAP4 PUSH1 0x1 DUP7 EQ DUP1 ISZERO PUSH2 0xEDF JUMPI JUMPDEST ISZERO PUSH2 0xEA9 JUMPI DUP6 PUSH2 0xCC7 SWAP2 PUSH2 0x17A6 JUMP JUMPDEST TIMESTAMP PUSH1 0x6 DUP3 ADD SSTORE PUSH1 0x1 DUP2 ADD SWAP4 DUP5 SLOAD PUSH1 0x0 MSTORE PUSH1 0x6 DUP9 MSTORE PUSH1 0x40 PUSH1 0x0 KECCAK256 SWAP1 PUSH1 0x6 DUP3 ADD SWAP1 PUSH2 0x100 PUSH2 0xFF00 NOT DUP4 SLOAD AND OR DUP3 SSTORE PUSH2 0xE94 JUMPI PUSH1 0x2 DUP8 SUB PUSH2 0xDEC JUMPI SWAP1 PUSH1 0x4 SWAP2 PUSH3 0x10000 PUSH3 0xFF0000 NOT DUP3 SLOAD AND OR SWAP1 SSTORE ADD SLOAD SWAP3 PUSH1 0x32 DUP5 MUL SWAP1 DUP5 DUP3 DIV PUSH1 0x32 EQ DUP6 ISZERO OR ISZERO PUSH2 0xDD8 JUMPI POP PUSH1 0x0 DUP1 DUP1 PUSH1 0x2 SWAP6 SWAP5 PUSH2 0xD4E PUSH2 0xD43 PUSH1 0x64 DUP5 SWAP8 DIV DUP1 SWAP11 PUSH2 0x17F4 JUMP JUMPDEST SWAP9 DUP8 DUP4 ADD SLOAD SWAP1 PUSH2 0x1831 JUMP JUMPDEST SWAP7 ADD SLOAD PUSH1 0x1 PUSH1 0x1 PUSH1 0xA0 SHL SUB SWAP7 SWAP1 DUP8 AND GAS CALL PUSH2 0xD67 PUSH2 0x1801 JUMP JUMPDEST POP ISZERO PUSH2 0x883 JUMPI DUP3 PUSH2 0xDB6 JUMPI JUMPDEST POP POP POP PUSH32 0x292FE0A16405D63E27F10383FCE0390B47AAC0D87126F4922FB91BACD6451D9 SWAP2 PUSH1 0x40 SWAP2 JUMPDEST SLOAD SWAP5 PUSH2 0xDAA DUP4 MLOAD DUP1 SWAP4 PUSH2 0x170B JUMP JUMPDEST TIMESTAMP SWAP1 DUP3 ADD MSTORE LOG3 PUSH1 0x1 DUP1 SSTORE STOP JUMPDEST PUSH1 0x0 DUP1 SWAP4 DUP2 SWAP4 DUP3 SWAP4 SLOAD AND GAS CALL PUSH2 0xDCA PUSH2 0x1801 JUMP JUMPDEST POP ISZERO PUSH2 0x883 JUMPI DUP5 DUP1 DUP1 PUSH2 0xD73 JUMP JUMPDEST PUSH4 0x4E487B71 PUSH1 0xE0 SHL PUSH1 0x0 SWAP1 DUP2 MSTORE PUSH1 0x11 PUSH1 0x4 MSTORE REVERT JUMPDEST POP SWAP3 SWAP1 DUP3 ADD SLOAD SWAP1 PUSH1 0x32 DUP3 MUL SWAP1 DUP3 DUP3 DIV PUSH1 0x32 EQ DUP4 ISZERO OR ISZERO PUSH2 0xDD8 JUMPI POP PUSH1 0x0 DUP1 DUP1 PUSH1 0x2 SWAP6 SWAP5 PUSH2 0xE1E PUSH1 0x64 DUP4 SWAP7 DIV DUP1 SWAP3 PUSH2 0x17F4 JUMP JUMPDEST SWAP8 SWAP1 SWAP7 ADD SLOAD PUSH1 0x1 PUSH1 0x1 PUSH1 0xA0 SHL SUB SWAP7 SWAP1 DUP8 AND GAS CALL PUSH2 0xE39 PUSH2 0x1801 JUMP JUMPDEST POP ISZERO PUSH2 0x883 JUMPI DUP3 PUSH2 0xE72 JUMPI JUMPDEST POP POP POP PUSH32 0x292FE0A16405D63E27F10383FCE0390B47AAC0D87126F4922FB91BACD6451D9 SWAP2 PUSH1 0x40 SWAP2 PUSH2 0xD9C JUMP JUMPDEST PUSH1 0x0 DUP1 SWAP4 DUP2 SWAP4 DUP3 SWAP4 SLOAD AND GAS CALL PUSH2 0xE86 PUSH2 0x1801 JUMP JUMPDEST POP ISZERO PUSH2 0x883 JUMPI DUP5 DUP1 DUP1 PUSH2 0xE45 JUMP JUMPDEST DUP5 PUSH4 0x4E487B71 PUSH1 0xE0 SHL PUSH1 0x0 MSTORE PUSH1 0x21 PUSH1 0x4 MSTORE PUSH1 0x0 REVERT JUMPDEST PUSH1 0x40 MLOAD PUSH3 0x461BCD PUSH1 0xE5 SHL DUP2 MSTORE PUSH1 0x4 DUP2 ADD DUP10 SWAP1 MSTORE PUSH1 0xF DUP2 DUP7 ADD MSTORE PUSH15 0x496E76616C6964206F7574636F6D65 PUSH1 0x88 SHL PUSH1 0x44 DUP3 ADD MSTORE PUSH1 0x64 SWAP1 REVERT JUMPDEST POP PUSH1 0x0 SWAP5 POP PUSH1 0x2 DUP7 EQ PUSH2 0xCB8 JUMP JUMPDEST PUSH1 0x40 MLOAD PUSH4 0x2D921DAD PUSH1 0xE0 SHL DUP2 MSTORE PUSH1 0x4 SWAP1 REVERT JUMPDEST DUP4 PUSH4 0x4E487B71 PUSH1 0xE0 SHL PUSH1 0x0 MSTORE PUSH1 0x21 PUSH1 0x4 MSTORE PUSH1 0x0 REVERT JUMPDEST PUSH1 0x40 MLOAD PUSH4 0x2B8829FF PUSH1 0xE2 SHL DUP2 MSTORE PUSH1 0x4 SWAP1 REVERT JUMPDEST PUSH1 0x40 MLOAD PUSH4 0xE2517D3F PUSH1 0xE0 SHL DUP2 MSTORE CALLER PUSH1 0x4 DUP3 ADD MSTORE SWAP2 DUP3 ADD MSTORE PUSH1 0x44 SWAP2 POP REVERT JUMPDEST CALLVALUE PUSH2 0x1AB JUMPI PUSH1 0x0 CALLDATASIZE PUSH1 0x3 NOT ADD SLT PUSH2 0x1AB JUMPI PUSH1 0x20 PUSH1 0xC SLOAD PUSH1 0x40 MLOAD SWAP1 DUP2 MSTORE RETURN JUMPDEST CALLVALUE PUSH2 0x1AB JUMPI PUSH1 0x20 CALLDATASIZE PUSH1 0x3 NOT ADD SLT PUSH2 0x1AB JUMPI PUSH1 0x4 CALLDATALOAD PUSH1 0x0 MSTORE PUSH1 0x0 PUSH1 0x20 MSTORE PUSH1 0x20 PUSH1 0x1 PUSH1 0x40 PUSH1 0x0 KECCAK256 ADD SLOAD PUSH1 0x40 MLOAD SWAP1 DUP2 MSTORE RETURN JUMPDEST CALLVALUE PUSH2 0x1AB JUMPI PUSH1 0x20 SWAP1 DUP2 PUSH1 0x3 NOT CALLDATASIZE ADD SLT PUSH2 0x1AB JUMPI PUSH1 0x4 CALLDATALOAD PUSH1 0x0 DUP3 PUSH1 0x40 MLOAD PUSH2 0xFB5 DUP2 PUSH2 0x15CA JUMP JUMPDEST DUP3 DUP2 MSTORE DUP3 DUP7 DUP3 ADD MSTORE DUP3 PUSH1 0x40 DUP3 ADD MSTORE DUP3 PUSH1 0x60 DUP3 ADD MSTORE PUSH1 0x60 PUSH1 0x80 DUP3 ADD MSTORE DUP3 PUSH1 0xA0 DUP3 ADD MSTORE DUP3 PUSH1 0xC0 DUP3 ADD MSTORE ADD MSTORE DUP1 PUSH1 0x0 MSTORE PUSH1 0x7 DUP4 MSTORE PUSH1 0x40 PUSH1 0x0 KECCAK256 SLOAD ISZERO PUSH2 0xF14 JUMPI PUSH1 0x0 MSTORE PUSH1 0x7 DUP3 MSTORE PUSH1 0x40 PUSH1 0x0 KECCAK256 PUSH1 0x40 MLOAD SWAP2 PUSH2 0x100A DUP4 PUSH2 0x15CA JUMP JUMPDEST DUP2 SLOAD DUP4 MSTORE PUSH1 0x1 DUP3 ADD SLOAD SWAP2 DUP5 DUP5 ADD SWAP3 DUP4 MSTORE PUSH1 0x1 DUP1 PUSH1 0xA0 SHL SUB SWAP3 DUP4 PUSH1 0x2 DUP4 ADD SLOAD AND SWAP3 PUSH1 0x40 DUP7 ADD SWAP4 DUP5 MSTORE PUSH1 0x3 DUP4 ADD SLOAD PUSH1 0x60 DUP8 ADD SWAP1 DUP2 MSTORE PUSH2 0x1049 PUSH1 0x4 DUP6 ADD PUSH2 0x1626 JUMP JUMPDEST SWAP1 PUSH1 0x80 DUP9 ADD SWAP2 DUP3 MSTORE PUSH1 0x5 DUP6 ADD SLOAD SWAP7 PUSH1 0xA0 DUP10 ADD SWAP8 DUP9 MSTORE PUSH1 0xFF PUSH1 0x7 PUSH1 0x6 DUP9 ADD SLOAD SWAP8 PUSH1 0xC0 DUP13 ADD SWAP9 DUP10 MSTORE ADD SLOAD AND SWAP7 DUP5 DUP11 ADD SWAP6 PUSH1 0x3 DUP10 LT ISZERO PUSH2 0x10D7 JUMPI PUSH2 0x6E8 SWAP9 DUP8 MSTORE PUSH1 0x40 MLOAD SWAP12 DUP13 SWAP12 DUP2 DUP14 MSTORE MLOAD SWAP1 DUP13 ADD MSTORE MLOAD PUSH1 0x40 DUP12 ADD MSTORE MLOAD AND PUSH1 0x60 DUP10 ADD MSTORE MLOAD PUSH1 0x80 DUP9 ADD MSTORE MLOAD SWAP3 PUSH2 0x10C1 PUSH2 0x100 SWAP5 DUP6 PUSH1 0xA0 DUP11 ADD MSTORE PUSH2 0x120 DUP10 ADD SWAP1 PUSH2 0x16CB JUMP JUMPDEST SWAP6 MLOAD PUSH1 0xC0 DUP9 ADD MSTORE MLOAD SWAP1 DUP7 ADD MSTORE MLOAD SWAP1 DUP5 ADD SWAP1 PUSH2 0x170B JUMP JUMPDEST PUSH4 0x4E487B71 PUSH1 0xE0 SHL PUSH1 0x0 MSTORE PUSH1 0x21 PUSH1 0x4 MSTORE PUSH1 0x24 PUSH1 0x0 REVERT JUMPDEST CALLVALUE PUSH2 0x1AB JUMPI PUSH1 0x0 CALLDATASIZE PUSH1 0x3 NOT ADD SLT PUSH2 0x1AB JUMPI PUSH1 0x20 PUSH1 0x40 MLOAD PUSH1 0x32 DUP2 MSTORE RETURN JUMPDEST CALLVALUE PUSH2 0x1AB JUMPI PUSH1 0x20 CALLDATASIZE PUSH1 0x3 NOT ADD SLT PUSH2 0x1AB JUMPI PUSH1 0x4 CALLDATALOAD PUSH1 0x0 MSTORE PUSH1 0x9 PUSH1 0x20 MSTORE PUSH1 0x20 PUSH1 0x40 PUSH1 0x0 KECCAK256 SLOAD PUSH1 0x40 MLOAD SWAP1 DUP2 MSTORE RETURN JUMPDEST CALLVALUE PUSH2 0x1AB JUMPI PUSH1 0x0 CALLDATASIZE PUSH1 0x3 NOT ADD SLT PUSH2 0x1AB JUMPI PUSH1 0x2 SLOAD PUSH1 0x40 MLOAD PUSH1 0x1 PUSH1 0x1 PUSH1 0xA0 SHL SUB SWAP1 SWAP2 AND DUP2 MSTORE PUSH1 0x20 SWAP1 RETURN JUMPDEST CALLVALUE PUSH2 0x1AB JUMPI PUSH1 0x20 CALLDATASIZE PUSH1 0x3 NOT ADD SLT PUSH2 0x1AB JUMPI PUSH1 0x4 CALLDATALOAD PUSH1 0x0 MSTORE PUSH1 0x6 PUSH1 0x20 MSTORE PUSH1 0x40 PUSH1 0x0 KECCAK256 DUP1 SLOAD SWAP1 PUSH1 0xFF PUSH1 0x1 DUP3 ADD SLOAD SWAP3 PUSH1 0x1 DUP1 PUSH1 0xA0 SHL SUB PUSH1 0x2 DUP5 ADD SLOAD AND SWAP5 PUSH2 0x11A4 PUSH1 0x3 DUP6 ADD PUSH2 0x1626 JUMP JUMPDEST SWAP4 PUSH2 0x11DD PUSH1 0x4 DUP3 ADD SLOAD SWAP6 PUSH1 0x6 PUSH1 0x5 DUP5 ADD SLOAD SWAP4 ADD SLOAD SWAP5 PUSH1 0x40 MLOAD SWAP10 DUP11 SWAP10 PUSH2 0x120 SWAP3 DUP12 MSTORE PUSH1 0x20 DUP12 ADD MSTORE PUSH1 0x40 DUP11 ADD MSTORE DUP1 PUSH1 0x60 DUP11 ADD MSTORE DUP9 ADD SWAP1 PUSH2 0x16CB JUMP JUMPDEST SWAP5 PUSH1 0x80 DUP8 ADD MSTORE PUSH1 0xA0 DUP7 ADD MSTORE DUP3 DUP3 AND ISZERO ISZERO PUSH1 0xC0 DUP7 ADD MSTORE DUP3 DUP3 PUSH1 0x8 SHR AND ISZERO ISZERO SWAP1 DUP6 ADD MSTORE PUSH1 0x10 SHR AND ISZERO ISZERO PUSH2 0x100 DUP4 ADD MSTORE SUB SWAP1 RETURN JUMPDEST CALLVALUE PUSH2 0x1AB JUMPI PUSH1 0x20 CALLDATASIZE PUSH1 0x3 NOT ADD SLT PUSH2 0x1AB JUMPI PUSH1 0x4 CALLDATALOAD PUSH4 0xFFFFFFFF PUSH1 0xE0 SHL DUP2 AND DUP1 SWAP2 SUB PUSH2 0x1AB JUMPI PUSH1 0x20 SWAP1 PUSH4 0x7965DB0B PUSH1 0xE0 SHL DUP2 EQ SWAP1 DUP2 ISZERO PUSH2 0x1253 JUMPI JUMPDEST POP PUSH1 0x40 MLOAD SWAP1 ISZERO ISZERO DUP2 MSTORE RETURN JUMPDEST PUSH4 0x1FFC9A7 PUSH1 0xE0 SHL EQ SWAP1 POP DUP3 PUSH2 0x1248 JUMP JUMPDEST PUSH2 0x126D CALLDATASIZE PUSH2 0x1543 JUMP JUMPDEST SWAP3 SWAP2 PUSH2 0x1277 PUSH2 0x1856 JUMP JUMPDEST DUP1 PUSH1 0x0 MSTORE PUSH1 0x8 PUSH1 0x20 MSTORE PUSH1 0xFF PUSH1 0x40 PUSH1 0x0 KECCAK256 SLOAD AND ISZERO PUSH2 0x8DD JUMPI DUP1 PUSH1 0x0 MSTORE PUSH1 0x6 PUSH1 0x20 MSTORE PUSH1 0x40 PUSH1 0x0 KECCAK256 SWAP4 PUSH1 0x6 DUP6 ADD DUP1 SLOAD PUSH1 0xFF DUP2 PUSH1 0x10 SHR AND PUSH2 0x8A7 JUMPI PUSH1 0xFF DUP2 AND PUSH2 0x8B9 JUMPI PUSH1 0x2 SWAP7 SWAP1 SWAP7 ADD SLOAD PUSH1 0x1 PUSH1 0x1 PUSH1 0xA0 SHL SUB SWAP7 SWAP1 DUP8 AND CALLER EQ PUSH2 0x1531 JUMPI DUP3 ISZERO PUSH2 0x550 JUMPI PUSH1 0xB SLOAD CALLVALUE LT PUSH2 0x151F JUMPI PUSH1 0xFF NOT AND PUSH1 0x1 OR SWAP1 SSTORE PUSH1 0x5 SLOAD SWAP4 PUSH2 0x12F4 DUP6 PUSH2 0x1744 JUMP JUMPDEST PUSH1 0x5 SSTORE PUSH1 0x40 MLOAD PUSH2 0x1303 DUP2 PUSH2 0x15CA JUMP JUMPDEST DUP6 DUP2 MSTORE PUSH1 0x20 DUP2 ADD SWAP7 DUP5 DUP9 MSTORE PUSH1 0x40 DUP3 ADD CALLER DUP2 MSTORE PUSH1 0x60 DUP4 ADD SWAP1 CALLVALUE DUP3 MSTORE PUSH2 0x1328 CALLDATASIZE DUP8 DUP11 PUSH2 0x176F JUMP JUMPDEST SWAP3 PUSH1 0x80 DUP6 ADD SWAP4 DUP5 MSTORE TIMESTAMP PUSH1 0xA0 DUP7 ADD MSTORE PUSH1 0x0 PUSH1 0xC0 DUP7 ADD MSTORE PUSH1 0x0 DUP7 DUP7 ADD MSTORE DUP10 PUSH1 0x0 MSTORE PUSH1 0x7 PUSH1 0x20 MSTORE PUSH1 0x40 PUSH1 0x0 KECCAK256 SWAP11 DUP6 MLOAD DUP13 SSTORE MLOAD PUSH1 0x1 DUP13 ADD SSTORE PUSH1 0x2 DUP12 ADD SWAP2 MLOAD AND PUSH12 0xFFFFFFFFFFFFFFFFFFFFFFFF PUSH1 0xA0 SHL DUP3 SLOAD AND OR SWAP1 SSTORE MLOAD PUSH1 0x3 DUP10 ADD SSTORE MLOAD DUP1 MLOAD SWAP1 PUSH8 0xFFFFFFFFFFFFFFFF DUP3 GT PUSH2 0x528 JUMPI DUP2 SWAP1 PUSH2 0x13A1 PUSH1 0x4 DUP12 ADD SLOAD PUSH2 0x1590 JUMP JUMPDEST PUSH1 0x1F DUP2 GT PUSH2 0x14CC JUMPI JUMPDEST POP PUSH1 0x20 SWAP1 PUSH1 0x1F DUP4 GT PUSH1 0x1 EQ PUSH2 0x145A JUMPI PUSH1 0x0 SWAP3 PUSH2 0x144F JUMPI JUMPDEST POP POP DUP2 PUSH1 0x1 SHL SWAP2 PUSH1 0x0 NOT SWAP1 PUSH1 0x3 SHL SHR NOT AND OR PUSH1 0x4 DUP9 ADD SSTORE JUMPDEST PUSH1 0xA0 DUP2 ADD MLOAD PUSH1 0x5 DUP9 ADD SSTORE PUSH1 0xC0 DUP2 ADD MLOAD PUSH1 0x6 DUP9 ADD SSTORE ADD MLOAD SWAP5 PUSH1 0x3 DUP7 LT ISZERO PUSH2 0x10D7 JUMPI PUSH2 0x42C DUP6 SWAP3 PUSH2 0x142E PUSH1 0x20 SWAP9 PUSH1 0x7 PUSH32 0xEF0302E41CF09582F9191372EE0E17D0940CE386E2A56B62BEC43089FC14D0B8 SWAP6 ADD PUSH2 0x17A6 JUMP JUMPDEST DUP5 PUSH1 0x0 MSTORE PUSH1 0x9 DUP9 MSTORE DUP4 PUSH1 0x40 PUSH1 0x0 KECCAK256 SSTORE PUSH1 0x40 MLOAD SWAP2 DUP3 SWAP2 CALLER SWAP8 TIMESTAMP SWAP2 CALLVALUE SWAP2 DUP6 PUSH2 0x17BE JUMP JUMPDEST ADD MLOAD SWAP1 POP DUP10 DUP1 PUSH2 0x13C1 JUMP JUMPDEST SWAP3 POP PUSH1 0x4 DUP11 ADD PUSH1 0x0 MSTORE PUSH1 0x20 PUSH1 0x0 KECCAK256 SWAP1 PUSH1 0x0 SWAP4 JUMPDEST PUSH1 0x1F NOT DUP5 AND DUP6 LT PUSH2 0x14B1 JUMPI PUSH1 0x1 SWAP5 POP DUP4 PUSH1 0x1F NOT DUP2 AND LT PUSH2 0x1498 JUMPI JUMPDEST POP POP POP DUP2 SHL ADD PUSH1 0x4 DUP9 ADD SSTORE PUSH2 0x13D9 JUMP JUMPDEST ADD MLOAD PUSH1 0x0 NOT PUSH1 0xF8 DUP5 PUSH1 0x3 SHL AND SHR NOT AND SWAP1 SSTORE DUP10 DUP1 DUP1 PUSH2 0x1488 JUMP JUMPDEST DUP2 DUP2 ADD MLOAD DUP4 SSTORE PUSH1 0x20 SWAP5 DUP6 ADD SWAP5 PUSH1 0x1 SWAP1 SWAP4 ADD SWAP3 SWAP1 SWAP2 ADD SWAP1 PUSH2 0x146D JUMP JUMPDEST SWAP1 SWAP2 POP PUSH1 0x4 DUP11 ADD PUSH1 0x0 MSTORE PUSH1 0x20 PUSH1 0x0 KECCAK256 PUSH1 0x1F DUP5 ADD PUSH1 0x5 SHR DUP2 ADD PUSH1 0x20 DUP6 LT PUSH2 0x1518 JUMPI JUMPDEST SWAP1 DUP5 SWAP4 SWAP3 SWAP2 JUMPDEST PUSH1 0x1F DUP4 ADD PUSH1 0x5 SHR DUP3 ADD DUP2 LT PUSH2 0x1509 JUMPI POP POP PUSH2 0x13AA JUMP JUMPDEST PUSH1 0x0 DUP2 SSTORE DUP6 SWAP5 POP PUSH1 0x1 ADD PUSH2 0x14F3 JUMP JUMPDEST POP DUP1 PUSH2 0x14ED JUMP JUMPDEST PUSH1 0x40 MLOAD PUSH4 0xF7616C27 PUSH1 0xE0 SHL DUP2 MSTORE PUSH1 0x4 SWAP1 REVERT JUMPDEST PUSH1 0x40 MLOAD PUSH4 0x7C539D83 PUSH1 0xE1 SHL DUP2 MSTORE PUSH1 0x4 SWAP1 REVERT JUMPDEST PUSH1 0x40 PUSH1 0x3 NOT DUP3 ADD SLT PUSH2 0x1AB JUMPI PUSH1 0x4 CALLDATALOAD SWAP2 PUSH1 0x24 CALLDATALOAD PUSH8 0xFFFFFFFFFFFFFFFF SWAP3 DUP4 DUP3 GT PUSH2 0x1AB JUMPI DUP1 PUSH1 0x23 DUP4 ADD SLT ISZERO PUSH2 0x1AB JUMPI DUP2 PUSH1 0x4 ADD CALLDATALOAD SWAP4 DUP5 GT PUSH2 0x1AB JUMPI PUSH1 0x24 DUP5 DUP4 ADD ADD GT PUSH2 0x1AB JUMPI PUSH1 0x24 ADD SWAP2 SWAP1 JUMP JUMPDEST SWAP1 PUSH1 0x1 DUP3 DUP2 SHR SWAP3 AND DUP1 ISZERO PUSH2 0x15C0 JUMPI JUMPDEST PUSH1 0x20 DUP4 LT EQ PUSH2 0x15AA JUMPI JUMP JUMPDEST PUSH4 0x4E487B71 PUSH1 0xE0 SHL PUSH1 0x0 MSTORE PUSH1 0x22 PUSH1 0x4 MSTORE PUSH1 0x24 PUSH1 0x0 REVERT JUMPDEST SWAP2 PUSH1 0x7F AND SWAP2 PUSH2 0x159F JUMP JUMPDEST PUSH2 0x100 DUP2 ADD SWAP1 DUP2 LT PUSH8 0xFFFFFFFFFFFFFFFF DUP3 GT OR PUSH2 0x528 JUMPI PUSH1 0x40 MSTORE JUMP JUMPDEST PUSH2 0x120 DUP2 ADD SWAP1 DUP2 LT PUSH8 0xFFFFFFFFFFFFFFFF DUP3 GT OR PUSH2 0x528 JUMPI PUSH1 0x40 MSTORE JUMP JUMPDEST SWAP1 PUSH1 0x1F DUP1 NOT SWAP2 ADD AND DUP2 ADD SWAP1 DUP2 LT PUSH8 0xFFFFFFFFFFFFFFFF DUP3 GT OR PUSH2 0x528 JUMPI PUSH1 0x40 MSTORE JUMP JUMPDEST SWAP1 PUSH1 0x40 MLOAD SWAP2 DUP3 PUSH1 0x0 DUP3 SLOAD PUSH2 0x1639 DUP2 PUSH2 0x1590 JUMP JUMPDEST SWAP1 DUP2 DUP5 MSTORE PUSH1 0x20 SWAP5 PUSH1 0x1 SWAP2 PUSH1 0x1 DUP2 AND SWAP1 DUP2 PUSH1 0x0 EQ PUSH2 0x16A9 JUMPI POP PUSH1 0x1 EQ PUSH2 0x166A JUMPI JUMPDEST POP POP POP PUSH2 0x1668 SWAP3 POP SUB DUP4 PUSH2 0x1604 JUMP JUMPDEST JUMP JUMPDEST PUSH1 0x0 SWAP1 DUP2 MSTORE DUP6 DUP2 KECCAK256 SWAP6 SWAP4 POP SWAP2 SWAP1 JUMPDEST DUP2 DUP4 LT PUSH2 0x1691 JUMPI POP POP PUSH2 0x1668 SWAP4 POP DUP3 ADD ADD CODESIZE DUP1 DUP1 PUSH2 0x1659 JUMP JUMPDEST DUP6 SLOAD DUP9 DUP5 ADD DUP6 ADD MSTORE SWAP5 DUP6 ADD SWAP5 DUP8 SWAP5 POP SWAP2 DUP4 ADD SWAP2 PUSH2 0x1678 JUMP JUMPDEST SWAP3 POP POP POP PUSH2 0x1668 SWAP5 SWAP3 POP PUSH1 0xFF NOT AND DUP3 DUP5 ADD MSTORE ISZERO ISZERO PUSH1 0x5 SHL DUP3 ADD ADD CODESIZE DUP1 DUP1 PUSH2 0x1659 JUMP JUMPDEST SWAP2 SWAP1 DUP3 MLOAD SWAP3 DUP4 DUP3 MSTORE PUSH1 0x0 JUMPDEST DUP5 DUP2 LT PUSH2 0x16F7 JUMPI POP POP DUP3 PUSH1 0x0 PUSH1 0x20 DUP1 SWAP5 SWAP6 DUP5 ADD ADD MSTORE PUSH1 0x1F DUP1 NOT SWAP2 ADD AND ADD ADD SWAP1 JUMP JUMPDEST PUSH1 0x20 DUP2 DUP4 ADD DUP2 ADD MLOAD DUP5 DUP4 ADD DUP3 ADD MSTORE ADD PUSH2 0x16D6 JUMP JUMPDEST SWAP1 PUSH1 0x3 DUP3 LT ISZERO PUSH2 0x10D7 JUMPI MSTORE JUMP JUMPDEST PUSH1 0x4 CALLDATALOAD SWAP1 PUSH1 0x1 PUSH1 0x1 PUSH1 0xA0 SHL SUB DUP3 AND DUP3 SUB PUSH2 0x1AB JUMPI JUMP JUMPDEST PUSH1 0x24 CALLDATALOAD SWAP1 PUSH1 0x1 PUSH1 0x1 PUSH1 0xA0 SHL SUB DUP3 AND DUP3 SUB PUSH2 0x1AB JUMPI JUMP JUMPDEST PUSH1 0x0 NOT DUP2 EQ PUSH2 0x717 JUMPI PUSH1 0x1 ADD SWAP1 JUMP JUMPDEST PUSH8 0xFFFFFFFFFFFFFFFF DUP2 GT PUSH2 0x528 JUMPI PUSH1 0x1F ADD PUSH1 0x1F NOT AND PUSH1 0x20 ADD SWAP1 JUMP JUMPDEST SWAP3 SWAP2 SWAP3 PUSH2 0x177B DUP3 PUSH2 0x1753 JUMP JUMPDEST SWAP2 PUSH2 0x1789 PUSH1 0x40 MLOAD SWAP4 DUP5 PUSH2 0x1604 JUMP JUMPDEST DUP3 SWAP5 DUP2 DUP5 MSTORE DUP2 DUP4 ADD GT PUSH2 0x1AB JUMPI DUP3 DUP2 PUSH1 0x20 SWAP4 DUP5 PUSH1 0x0 SWAP7 ADD CALLDATACOPY ADD ADD MSTORE JUMP JUMPDEST SWAP1 PUSH1 0x3 DUP2 LT ISZERO PUSH2 0x10D7 JUMPI PUSH1 0xFF DUP1 NOT DUP4 SLOAD AND SWAP2 AND OR SWAP1 SSTORE JUMP JUMPDEST SWAP1 DUP3 PUSH1 0x40 SWAP4 PUSH1 0x80 SWAP3 SWAP8 SWAP7 SWAP6 SWAP8 PUSH1 0x60 DUP6 MSTORE DUP2 PUSH1 0x60 DUP7 ADD MSTORE DUP4 DUP6 ADD CALLDATACOPY PUSH1 0x0 DUP3 DUP3 DUP6 ADD ADD MSTORE PUSH1 0x1F DUP1 NOT SWAP2 ADD AND DUP3 ADD ADD SWAP5 PUSH1 0x20 DUP3 ADD MSTORE ADD MSTORE JUMP JUMPDEST SWAP2 SWAP1 DUP3 SUB SWAP2 DUP3 GT PUSH2 0x717 JUMPI JUMP JUMPDEST RETURNDATASIZE ISZERO PUSH2 0x182C JUMPI RETURNDATASIZE SWAP1 PUSH2 0x1812 DUP3 PUSH2 0x1753 JUMP JUMPDEST SWAP2 PUSH2 0x1820 PUSH1 0x40 MLOAD SWAP4 DUP5 PUSH2 0x1604 JUMP JUMPDEST DUP3 MSTORE RETURNDATASIZE PUSH1 0x0 PUSH1 0x20 DUP5 ADD RETURNDATACOPY JUMP JUMPDEST PUSH1 0x60 SWAP1 JUMP JUMPDEST SWAP2 SWAP1 DUP3 ADD DUP1 SWAP3 GT PUSH2 0x717 JUMPI JUMP JUMPDEST SWAP1 DUP2 PUSH1 0x20 SWAP2 SUB SLT PUSH2 0x1AB JUMPI MLOAD DUP1 ISZERO ISZERO DUP2 SUB PUSH2 0x1AB JUMPI SWAP1 JUMP JUMPDEST PUSH1 0x2 PUSH1 0x1 SLOAD EQ PUSH2 0x1867 JUMPI PUSH1 0x2 PUSH1 0x1 SSTORE JUMP JUMPDEST PUSH1 0x40 MLOAD PUSH4 0x3EE5AEB5 PUSH1 0xE0 SHL DUP2 MSTORE PUSH1 0x4 SWAP1 REVERT JUMPDEST CALLER PUSH1 0x0 SWAP1 DUP2 MSTORE PUSH32 0x7D7FFB7A348E1C6A02869081A26547B49160DD3DF72D1D75A570EB9B698292EC PUSH1 0x20 MSTORE PUSH1 0x40 SWAP1 KECCAK256 SLOAD PUSH32 0xA49807205CE4D355092EF5A8A18F56E8913CF4A201FBE287825B095693C21775 SWAP1 PUSH1 0xFF AND ISZERO PUSH2 0x18D5 JUMPI POP JUMP JUMPDEST PUSH1 0x44 SWAP1 PUSH1 0x40 MLOAD SWAP1 PUSH4 0xE2517D3F PUSH1 0xE0 SHL DUP3 MSTORE CALLER PUSH1 0x4 DUP4 ADD MSTORE PUSH1 0x24 DUP3 ADD MSTORE REVERT JUMPDEST DUP1 PUSH1 0x0 MSTORE PUSH1 0x0 PUSH1 0x20 MSTORE PUSH1 0x40 PUSH1 0x0 KECCAK256 CALLER PUSH1 0x0 MSTORE PUSH1 0x20 MSTORE PUSH1 0xFF PUSH1 0x40 PUSH1 0x0 KECCAK256 SLOAD AND ISZERO PUSH2 0x18D5 JUMPI POP JUMP JUMPDEST SWAP1 PUSH1 0x0 SWAP2 DUP1 DUP4 MSTORE DUP3 PUSH1 0x20 MSTORE PUSH1 0x40 DUP4 KECCAK256 SWAP2 PUSH1 0x1 DUP1 PUSH1 0xA0 SHL SUB AND SWAP2 DUP3 DUP5 MSTORE PUSH1 0x20 MSTORE PUSH1 0xFF PUSH1 0x40 DUP5 KECCAK256 SLOAD AND ISZERO PUSH1 0x0 EQ PUSH2 0x1992 JUMPI DUP1 DUP4 MSTORE DUP3 PUSH1 0x20 MSTORE PUSH1 0x40 DUP4 KECCAK256 DUP3 DUP5 MSTORE PUSH1 0x20 MSTORE PUSH1 0x40 DUP4 KECCAK256 PUSH1 0x1 PUSH1 0xFF NOT DUP3 SLOAD AND OR SWAP1 SSTORE PUSH32 0x2F8788117E7EFF1D82E926EC794901D17C78024A50270940304540A733656F0D CALLER SWAP4 DUP1 LOG4 PUSH1 0x1 SWAP1 JUMP JUMPDEST POP POP SWAP1 JUMP JUMPDEST SWAP1 PUSH1 0x0 SWAP2 DUP1 DUP4 MSTORE DUP3 PUSH1 0x20 MSTORE PUSH1 0x40 DUP4 KECCAK256 SWAP2 PUSH1 0x1 DUP1 PUSH1 0xA0 SHL SUB AND SWAP2 DUP3 DUP5 MSTORE PUSH1 0x20 MSTORE PUSH1 0xFF PUSH1 0x40 DUP5 KECCAK256 SLOAD AND PUSH1 0x0 EQ PUSH2 0x1992 JUMPI DUP1 DUP4 MSTORE DUP3 PUSH1 0x20 MSTORE PUSH1 0x40 DUP4 KECCAK256 DUP3 DUP5 MSTORE PUSH1 0x20 MSTORE PUSH1 0x40 DUP4 KECCAK256 PUSH1 0xFF NOT DUP2 SLOAD AND SWAP1 SSTORE PUSH32 0xF6391F5C32D9C69D2A47EA670B442974B53935D1EDC7FD64EB21E047A839171B CALLER SWAP4 DUP1 LOG4 PUSH1 0x1 SWAP1 JUMP INVALID LOG2 PUSH5 0x6970667358 0x22 SLT KECCAK256 0x29 PUSH3 0x8D0200 JUMPI 0xA9 0xB3 0xB1 SHR RETURNDATACOPY DUP6 CODESIZE 0xF7 0xD7 0xDE GT ADD 0xCE MUL 0xDB 0xF6 EXP 0x4E PUSH3 0xA4526E TIMESTAMP 0xA8 0xA8 SIGNEXTEND PUSH5 0x736F6C6343 STOP ADDMOD XOR STOP CALLER 0x2F DUP8 DUP9 GT PUSH31 0x7EFF1D82E926EC794901D17C78024A50270940304540A733656F0D00000000 "},"methodIdentifiers":{"ADMIN_ROLE()":"75b238fc","CHALLENGER_SHARE()":"1a4bcf42","DEFAULT_ADMIN_ROLE()":"a217fddf","MODERATOR_ROLE()":"797669c9","agentRegistry()":"0d1cfcae","bondAmount()":"80f323a7","challengePost(uint256,string)":"00601edb","challengeStake()":"571dc452","challenges(uint256)":"8f1d3776","createPost(uint256,string)":"a9ca3a4c","getChallenge(uint256)":"1bdd4b74","getPost(uint256)":"40731c24","getRoleAdmin(bytes32)":"248a9ca3","grantRole(bytes32,address)":"2f2ff15d","hasRole(bytes32,address)":"91d14854","postExists(uint256)":"566b0521","postToChallenge(uint256)":"191e0bf2","posts(uint256)":"0b1e7f83","renounceRole(bytes32,address)":"36568abe","resolveChallenge(uint256,uint8)":"275d0981","revokeRole(bytes32,address)":"d547741f","setAgentRegistry(address)":"28342ecf","setBondAmount(uint256)":"28f9f3e6","setChallengeStake(uint256)":"7b42b411","setTreasury(address)":"f0f44260","supportsInterface(bytes4)":"01ffc9a7","totalPosts()":"8e53fb41","treasury()":"61d027b3","withdrawLockPeriod()":"2628490f","withdrawPostBond(uint256)":"75b417c2"}}}}}