{"contracts/HoneycombPredictDuel.sol":{"HoneycombPredictDuel":{"abi":[{"inputs":[{"internalType":"address","name":"_agentRegistry","type":"address"},{"internalType":"address","name":"_feeTreasury","type":"address"}],"stateMutability":"nonpayable","type":"constructor"},{"inputs":[],"name":"AccessControlBadConfirmation","type":"error"},{"inputs":[{"internalType":"address","name":"account","type":"address"},{"internalType":"bytes32","name":"neededRole","type":"bytes32"}],"name":"AccessControlUnauthorizedAccount","type":"error"},{"inputs":[],"name":"AgentNotFound","type":"error"},{"inputs":[],"name":"CannotJoinOwnDuel","type":"error"},{"inputs":[],"name":"DuelAlreadyEnded","type":"error"},{"inputs":[],"name":"DuelNotEnded","type":"error"},{"inputs":[],"name":"DuelNotFound","type":"error"},{"inputs":[],"name":"DuelNotLive","type":"error"},{"inputs":[],"name":"DuelNotOpen","type":"error"},{"inputs":[],"name":"InvalidAssetId","type":"error"},{"inputs":[],"name":"InvalidDuration","type":"error"},{"inputs":[],"name":"InvalidFeePercentage","type":"error"},{"inputs":[],"name":"InvalidStakeAmount","type":"error"},{"inputs":[],"name":"NoWinner","type":"error"},{"inputs":[],"name":"NotAgentOwner","type":"error"},{"inputs":[],"name":"NotDuelCreator","type":"error"},{"inputs":[],"name":"ReentrancyGuardReentrantCall","type":"error"},{"inputs":[],"name":"StakeMismatch","type":"error"},{"inputs":[],"name":"TransferFailed","type":"error"},{"inputs":[],"name":"ZeroAddress","type":"error"},{"anonymous":false,"inputs":[{"indexed":true,"internalType":"uint256","name":"duelId","type":"uint256"},{"indexed":true,"internalType":"address","name":"creator","type":"address"},{"indexed":false,"internalType":"uint256","name":"refundAmount","type":"uint256"},{"indexed":false,"internalType":"uint256","name":"timestamp","type":"uint256"}],"name":"DuelCancelled","type":"event"},{"anonymous":false,"inputs":[{"indexed":true,"internalType":"uint256","name":"duelId","type":"uint256"},{"indexed":true,"internalType":"uint256","name":"creatorAgentId","type":"uint256"},{"indexed":true,"internalType":"address","name":"creator","type":"address"},{"indexed":false,"internalType":"string","name":"assetId","type":"string"},{"indexed":false,"internalType":"uint8","name":"direction","type":"uint8"},{"indexed":false,"internalType":"uint256","name":"stakeAmount","type":"uint256"},{"indexed":false,"internalType":"uint256","name":"durationSeconds","type":"uint256"},{"indexed":false,"internalType":"uint256","name":"timestamp","type":"uint256"}],"name":"DuelCreated","type":"event"},{"anonymous":false,"inputs":[{"indexed":true,"internalType":"uint256","name":"duelId","type":"uint256"},{"indexed":false,"internalType":"uint256","name":"refundAmount","type":"uint256"},{"indexed":false,"internalType":"uint256","name":"timestamp","type":"uint256"}],"name":"DuelExpired","type":"event"},{"anonymous":false,"inputs":[{"indexed":true,"internalType":"uint256","name":"duelId","type":"uint256"},{"indexed":true,"internalType":"uint256","name":"joinerAgentId","type":"uint256"},{"indexed":true,"internalType":"address","name":"joiner","type":"address"},{"indexed":false,"internalType":"uint256","name":"startPrice","type":"uint256"},{"indexed":false,"internalType":"uint256","name":"startTs","type":"uint256"},{"indexed":false,"internalType":"uint256","name":"endTs","type":"uint256"},{"indexed":false,"internalType":"uint256","name":"timestamp","type":"uint256"}],"name":"DuelJoined","type":"event"},{"anonymous":false,"inputs":[{"indexed":true,"internalType":"uint256","name":"duelId","type":"uint256"},{"indexed":true,"internalType":"address","name":"winner","type":"address"},{"indexed":false,"internalType":"uint256","name":"endPrice","type":"uint256"},{"indexed":false,"internalType":"uint256","name":"payout","type":"uint256"},{"indexed":false,"internalType":"uint256","name":"fee","type":"uint256"},{"indexed":false,"internalType":"uint256","name":"timestamp","type":"uint256"}],"name":"DuelSettled","type":"event"},{"anonymous":false,"inputs":[{"indexed":true,"internalType":"uint256","name":"duelId","type":"uint256"},{"indexed":true,"internalType":"address","name":"treasury","type":"address"},{"indexed":false,"internalType":"uint256","name":"amount","type":"uint256"},{"indexed":false,"internalType":"uint256","name":"timestamp","type":"uint256"}],"name":"FeeTransferred","type":"event"},{"anonymous":false,"inputs":[{"indexed":true,"internalType":"bytes32","name":"role","type":"bytes32"},{"indexed":true,"internalType":"bytes32","name":"previousAdminRole","type":"bytes32"},{"indexed":true,"internalType":"bytes32","name":"newAdminRole","type":"bytes32"}],"name":"RoleAdminChanged","type":"event"},{"anonymous":false,"inputs":[{"indexed":true,"internalType":"bytes32","name":"role","type":"bytes32"},{"indexed":true,"internalType":"address","name":"account","type":"address"},{"indexed":true,"internalType":"address","name":"sender","type":"address"}],"name":"RoleGranted","type":"event"},{"anonymous":false,"inputs":[{"indexed":true,"internalType":"bytes32","name":"role","type":"bytes32"},{"indexed":true,"internalType":"address","name":"account","type":"address"},{"indexed":true,"internalType":"address","name":"sender","type":"address"}],"name":"RoleRevoked","type":"event"},{"inputs":[],"name":"ADMIN_ROLE","outputs":[{"internalType":"bytes32","name":"","type":"bytes32"}],"stateMutability":"view","type":"function"},{"inputs":[],"name":"DEFAULT_ADMIN_ROLE","outputs":[{"internalType":"bytes32","name":"","type":"bytes32"}],"stateMutability":"view","type":"function"},{"inputs":[],"name":"MAX_DURATION","outputs":[{"internalType":"uint256","name":"","type":"uint256"}],"stateMutability":"view","type":"function"},{"inputs":[],"name":"MAX_STAKE","outputs":[{"internalType":"uint256","name":"","type":"uint256"}],"stateMutability":"view","type":"function"},{"inputs":[],"name":"MIN_DURATION","outputs":[{"internalType":"uint256","name":"","type":"uint256"}],"stateMutability":"view","type":"function"},{"inputs":[],"name":"MIN_STAKE","outputs":[{"internalType":"uint256","name":"","type":"uint256"}],"stateMutability":"view","type":"function"},{"inputs":[],"name":"ORACLE_ROLE","outputs":[{"internalType":"bytes32","name":"","type":"bytes32"}],"stateMutability":"view","type":"function"},{"inputs":[],"name":"agentRegistry","outputs":[{"internalType":"contract IAgentRegistry","name":"","type":"address"}],"stateMutability":"view","type":"function"},{"inputs":[{"internalType":"uint256","name":"duelId","type":"uint256"}],"name":"cancelDuel","outputs":[],"stateMutability":"nonpayable","type":"function"},{"inputs":[{"internalType":"uint256","name":"agentId","type":"uint256"},{"internalType":"string","name":"assetId","type":"string"},{"internalType":"enum HoneycombPredictDuel.Direction","name":"direction","type":"uint8"},{"internalType":"uint256","name":"durationSeconds","type":"uint256"}],"name":"createDuel","outputs":[{"internalType":"uint256","name":"duelId","type":"uint256"}],"stateMutability":"payable","type":"function"},{"inputs":[{"internalType":"uint256","name":"","type":"uint256"}],"name":"duelExists","outputs":[{"internalType":"bool","name":"","type":"bool"}],"stateMutability":"view","type":"function"},{"inputs":[{"internalType":"uint256","name":"","type":"uint256"}],"name":"duels","outputs":[{"internalType":"uint256","name":"id","type":"uint256"},{"internalType":"string","name":"assetId","type":"string"},{"internalType":"uint256","name":"creatorAgentId","type":"uint256"},{"internalType":"address","name":"creatorAddress","type":"address"},{"internalType":"enum HoneycombPredictDuel.Direction","name":"creatorDirection","type":"uint8"},{"internalType":"uint256","name":"stakeAmount","type":"uint256"},{"internalType":"uint256","name":"durationSeconds","type":"uint256"},{"internalType":"uint256","name":"joinerAgentId","type":"uint256"},{"internalType":"address","name":"joinerAddress","type":"address"},{"internalType":"uint256","name":"startPrice","type":"uint256"},{"internalType":"uint256","name":"endPrice","type":"uint256"},{"internalType":"uint256","name":"startTs","type":"uint256"},{"internalType":"uint256","name":"endTs","type":"uint256"},{"internalType":"enum HoneycombPredictDuel.DuelStatus","name":"status","type":"uint8"},{"internalType":"address","name":"winner","type":"address"},{"internalType":"uint256","name":"payout","type":"uint256"},{"internalType":"uint256","name":"fee","type":"uint256"},{"internalType":"uint256","name":"createdAt","type":"uint256"}],"stateMutability":"view","type":"function"},{"inputs":[{"internalType":"uint256","name":"duelId","type":"uint256"}],"name":"expireDuel","outputs":[],"stateMutability":"nonpayable","type":"function"},{"inputs":[],"name":"feePercentage","outputs":[{"internalType":"uint256","name":"","type":"uint256"}],"stateMutability":"view","type":"function"},{"inputs":[],"name":"feeTreasury","outputs":[{"internalType":"address","name":"","type":"address"}],"stateMutability":"view","type":"function"},{"inputs":[{"internalType":"uint256","name":"duelId","type":"uint256"}],"name":"getDuel","outputs":[{"components":[{"internalType":"uint256","name":"id","type":"uint256"},{"internalType":"string","name":"assetId","type":"string"},{"internalType":"uint256","name":"creatorAgentId","type":"uint256"},{"internalType":"address","name":"creatorAddress","type":"address"},{"internalType":"enum HoneycombPredictDuel.Direction","name":"creatorDirection","type":"uint8"},{"internalType":"uint256","name":"stakeAmount","type":"uint256"},{"internalType":"uint256","name":"durationSeconds","type":"uint256"},{"internalType":"uint256","name":"joinerAgentId","type":"uint256"},{"internalType":"address","name":"joinerAddress","type":"address"},{"internalType":"uint256","name":"startPrice","type":"uint256"},{"internalType":"uint256","name":"endPrice","type":"uint256"},{"internalType":"uint256","name":"startTs","type":"uint256"},{"internalType":"uint256","name":"endTs","type":"uint256"},{"internalType":"enum HoneycombPredictDuel.DuelStatus","name":"status","type":"uint8"},{"internalType":"address","name":"winner","type":"address"},{"internalType":"uint256","name":"payout","type":"uint256"},{"internalType":"uint256","name":"fee","type":"uint256"},{"internalType":"uint256","name":"createdAt","type":"uint256"}],"internalType":"struct HoneycombPredictDuel.Duel","name":"","type":"tuple"}],"stateMutability":"view","type":"function"},{"inputs":[{"internalType":"bytes32","name":"role","type":"bytes32"}],"name":"getRoleAdmin","outputs":[{"internalType":"bytes32","name":"","type":"bytes32"}],"stateMutability":"view","type":"function"},{"inputs":[{"internalType":"bytes32","name":"role","type":"bytes32"},{"internalType":"address","name":"account","type":"address"}],"name":"grantRole","outputs":[],"stateMutability":"nonpayable","type":"function"},{"inputs":[{"internalType":"bytes32","name":"role","type":"bytes32"},{"internalType":"address","name":"account","type":"address"}],"name":"hasRole","outputs":[{"internalType":"bool","name":"","type":"bool"}],"stateMutability":"view","type":"function"},{"inputs":[{"internalType":"uint256","name":"duelId","type":"uint256"},{"internalType":"uint256","name":"agentId","type":"uint256"},{"internalType":"uint256","name":"startPrice","type":"uint256"}],"name":"joinDuel","outputs":[],"stateMutability":"payable","type":"function"},{"inputs":[{"internalType":"bytes32","name":"role","type":"bytes32"},{"internalType":"address","name":"callerConfirmation","type":"address"}],"name":"renounceRole","outputs":[],"stateMutability":"nonpayable","type":"function"},{"inputs":[{"internalType":"bytes32","name":"role","type":"bytes32"},{"internalType":"address","name":"account","type":"address"}],"name":"revokeRole","outputs":[],"stateMutability":"nonpayable","type":"function"},{"inputs":[{"internalType":"address","name":"_agentRegistry","type":"address"}],"name":"setAgentRegistry","outputs":[],"stateMutability":"nonpayable","type":"function"},{"inputs":[{"internalType":"uint256","name":"_feePercentage","type":"uint256"}],"name":"setFeePercentage","outputs":[],"stateMutability":"nonpayable","type":"function"},{"inputs":[{"internalType":"address","name":"_feeTreasury","type":"address"}],"name":"setFeeTreasury","outputs":[],"stateMutability":"nonpayable","type":"function"},{"inputs":[{"internalType":"uint256","name":"duelId","type":"uint256"},{"internalType":"uint256","name":"endPrice","type":"uint256"}],"name":"settleDuel","outputs":[],"stateMutability":"nonpayable","type":"function"},{"inputs":[{"internalType":"bytes4","name":"interfaceId","type":"bytes4"}],"name":"supportsInterface","outputs":[{"internalType":"bool","name":"","type":"bool"}],"stateMutability":"view","type":"function"},{"inputs":[],"name":"totalDuels","outputs":[{"internalType":"uint256","name":"","type":"uint256"}],"stateMutability":"view","type":"function"}],"evm":{"bytecode":{"linkReferences":{},"object":"608034620000e457601f62001ea738819003918201601f19168301916001600160401b03831184841017620000e9578084926040948552833981010312620000e4576200005a60206200005283620000ff565b9201620000ff565b6001808055600a6004556005556001600160a01b0391821691908215620000d25716908115620000d25760018060a01b0319908160025416176002556003541617600355620000a93362000114565b50620000b53362000194565b50620000c13362000236565b50604051611bb39081620002d48239f35b60405163d92e233d60e01b8152600490fd5b600080fd5b634e487b7160e01b600052604160045260246000fd5b51906001600160a01b0382168203620000e457565b6001600160a01b031660008181527fad3228b676f7d3cd4284a5443f17f1962b36e491b30a40b2405849e597ba5fb5602052604081205490919060ff166200019057818052816020526040822081835260205260408220600160ff19825416179055339160008051602062001e878339815191528180a4600190565b5090565b6001600160a01b031660008181527f7d7ffb7a348e1c6a02869081a26547b49160dd3df72d1d75a570eb9b698292ec60205260408120549091907fa49807205ce4d355092ef5a8a18f56e8913cf4a201fbe287825b095693c217759060ff166200023157808352826020526040832082845260205260408320600160ff1982541617905560008051602062001e87833981519152339380a4600190565b505090565b6001600160a01b031660008181527fa629f6981c2f6895a67dc766e8e03ff72d04a413d0d8773a3ca56e9e474032c160205260408120549091907f68e79a7bf1e0bc45d0a330c573bc367f9cf464fd326078812f301165fbda4ef19060ff166200023157808352826020526040832082845260205260408320600160ff1982541617905560008051602062001e87833981519152339380a460019056fe60a080604052600436101561001357600080fd5b60003560e01c90816301ffc9a71461139e5750806307e2cea5146113635780630d1cfcae1461133a578063248a9ca31461130b57806328342ecf146112c35780632f2ff15d1461128457806336568abe1461123d5780634dd9faa11461120c578063565e614f14610f4a57806357d628d714610f1f57806360dc234014610ef657806375b238fc14610ebb578063859a62d014610d5457806389423d47146107a6578063904b5fa91461056757806391d148541461051a578063a001ecdd146104fc578063a217fddf146104e0578063ae06c1b7146104a5578063b1724b4614610487578063b6a6d1771461046b578063bfa37e3714610411578063c98517c5146103ed578063cb1c2b5c146103cb578063d547741f1461038a578063d9c312f4146102a2578063eb3323f11461018d5763f3af7b4d1461015357600080fd5b346101885760403660031901126101885761016c611b5a565b6101746119e5565b610182602435600435611605565b60018055005b600080fd5b34610188576020366003190112610188576004356101a9611b5a565b6101b16119e5565b80600052600760205260ff6040600020541615610290578060005260066020526040600020600c8101805460ff8116600581101561027a576102685760049060ff1916179055600080808060048501548095600360018060a01b03910154165af161021a6115d5565b50156102565760407fd6af165a1b2e9fdaa5c2731f9f084db7acc7334f78dfddcc6fb35379039e3731918151908152426020820152a260018055005b6040516312171d8360e31b8152600490fd5b60405163108670ab60e01b8152600490fd5b634e487b7160e01b600052602160045260246000fd5b60405163d457f04b60e01b8152600490fd5b34610188576020366003190112610188576004356102be611b5a565b80600052600760205260ff604060002054161561029057806000526006602052604060002090600c820180549060ff8216600581101561027a5761026857600384019060018060a01b0392838354169533870361037857600060048194928294936003849560ff1916179055015480985af16103386115d5565b5015610256577fcc8e4344704772a99102f31983264fbea37e736c28fb18f5e2fc2bf42eb7d12f916040915416938151908152426020820152a360018055005b60405163882f724f60e01b8152600490fd5b34610188576040366003190112610188576103c96004356103a9611407565b908060005260006020526103c4600160406000200154611a41565b611ae5565b005b3461018857600036600319011261018857602060405166038d7ea4c680008152f35b3461018857600036600319011261018857602060405168056bc75e2d631000008152f35b346101885760203660031901126101885761042a6113f1565b61043261196b565b6001600160a01b03168015610459576001600160601b0360a01b6003541617600355600080f35b60405163d92e233d60e01b8152600490fd5b34610188576000366003190112610188576020604051603c8152f35b3461018857600036600319011261018857602060405162093a808152f35b34610188576020366003190112610188576004356104c161196b565b603281116104ce57600455005b60405163390edff560e11b8152600490fd5b3461018857600036600319011261018857602060405160008152f35b34610188576000366003190112610188576020600454604051908152f35b3461018857604036600319011261018857610533611407565b600435600052600060205260406000209060018060a01b0316600052602052602060ff604060002054166040519015158152f35b606036600319011261018857604435602435600435610584611b5a565b8060005260206007815260ff6040600020541615610290578160005260068152604060002090600c82019485549160ff8316600581101561027a576102685760025460405163de99f15760e01b8152600481018890526001600160a01b03909116908281602481855afa90811561076b57600091610789575b501561077757604051634744f2c960e01b815233600482015260248101889052908290829060449082905afa91821561076b5760009261073e575b50501561072c578460028401541461071a57600483015434036107085784600684015560078301336001600160601b0360a01b82541617905580600884015542600a84015560058301544201958642116106f25760016106e99388600b7fd30a7c747768b746f2961e6bd11d70599c4d8bacc3a0ec66fc772bbe011af64097015560ff1916179055604051918291339742914290859094939260609260808301968352602083015260408201520152565b0390a460018055005b634e487b7160e01b600052601160045260246000fd5b604051634581e82760e01b8152600490fd5b60405163edd1a07d60e01b8152600490fd5b604051630e41dcbf60e21b8152600490fd5b61075d9250803d10610764575b61075581836114ce565b8101906115a1565b8780610638565b503d61074b565b6040513d6000823e3d90fd5b60405163e93ba22360e01b8152600490fd5b6107a09150833d85116107645761075581836114ce565b896105fd565b60803660031901126101885760243567ffffffffffffffff811161018857366023820112156101885767ffffffffffffffff81600401351161018857366024826004013583010111610188576002604435101561018857610805611b5a565b60025460405163de99f15760e01b815260048035908201526001600160a01b0390911690602081602481855afa90811561076b57600091610d35575b501561077757604051634744f2c960e01b81523360048083019190915235602482015290602090829060449082905afa90811561076b57600091610d16575b501561072c57806004013515610d045766038d7ea4c6800034108015610cf2575b610ce057603c606435108015610cd2575b610cc05760055460001981146106f25760018101600555604051916108d6836114b1565b8183526108e681600401356115b9565b6108f360405191826114ce565b6004820135808252602483016020830137600060208360040135830101526020840152600435604084015233606084015261093360443560808501611595565b3460a084015260643560c0840152600060e08401526000610100840152600061012084015260006101408401526000610160840152600061018084015260006101a084015260006101c084015260006101e0840152600061020084015242610220840152816000526006602052604060002083518155602084015180519067ffffffffffffffff8211610caa5781906109cf6001850154611477565b601f8111610c57575b50602090601f8311600114610be557600092610bda575b50508160011b916000199060031b1c19161760018201555b6040840151600282015560018060a01b036060850151166003820154906080860151600281101561027a5760ff60a01b9060a01b16916affffffffffffffffffffff60a81b161717600382015560a0840151600482015560c0840151600582015560e084015160068201556007810160018060a01b03610100860151166001600160601b0360a01b82541617905561012084015160088201556101408401516009820155610160840151600a820155610180840151600b8201556101a084015190600582101561027a57600c810180546101c0870151610100600160a81b0360089190911b1660ff949094166001600160a81b0319909116179290921790915560209360ff199190600f90610220906101e0810151600d850155610200810151600e8501550151910155826000526007845260016040600020918254161790556040519060a08252806004013560a083015280600401356024820160c0840137600060c082600401358401015260ff60443516848301523460408301526064356060830152426080830152827f688046adaf759d2e556524bfd3f6b4f0728f2dd2c03078bccb42c67a77740cb1339360c08160043595601f8019916004013501168101030190a460018055604051908152f35b0151905086806109ef565b9250600184016000526020600020906000935b601f1984168510610c3c576001945083601f19811610610c23575b505050811b016001820155610a07565b015160001960f88460031b161c19169055868080610c13565b81810151835560209485019460019093019290910190610bf8565b909150600184016000526020600020601f840160051c810160208510610ca3575b90849392915b601f830160051c82018110610c945750506109d8565b60008155859450600101610c7e565b5080610c78565b634e487b7160e01b600052604160045260246000fd5b604051637616640160e01b8152600490fd5b5062093a80606435116108b2565b604051630103be3b60e21b8152600490fd5b5068056bc75e2d6310000034116108a1565b6040516307d7e52d60e51b8152600490fd5b610d2f915060203d6020116107645761075581836114ce565b82610880565b610d4e915060203d6020116107645761075581836114ce565b83610841565b346101885760203660031901126101885760043560005260066020526040600020805460018201610d84906114f0565b916002810154926003820154600483015460058401546006850154600160a01b60019003600787015416600887015490600988015492600a89015494600b8a015496600c8b015498600d8c01549a600e8d01549c600f01549d6040516080526102409060805152806080516020015260805101610e009161141d565b9d60805160400152600160a01b600190038116608051606001526080516080019060a01c60ff1690610e319161145d565b60805160a0015260805160c0015260805160e00152608051610100015260805161012001526080516101400152608051610160015260805161018001526080516101a00160ff821690610e839161146a565b600160a01b600190039060081c166080516101c001526080516101e00152608051610200015260805161022001526080519003608051f35b346101885760003660031901126101885760206040517fa49807205ce4d355092ef5a8a18f56e8913cf4a201fbe287825b095693c217758152f35b34610188576000366003190112610188576003546040516001600160a01b039091168152602090f35b346101885760003660031901126101885760055460001981019081116106f257602090604051908152f35b34610188576020366003190112610188576004356000610220604051610f6f816114b1565b828152606060208201528260408201528260608201528260808201528260a08201528260c08201528260e08201528261010082015282610120820152826101408201528261016082015282610180820152826101a0820152826101c0820152826101e082015282610200820152015280600052600760205260ff604060002054161561029057600052600660205260406000206040519061100f826114b1565b8054825261101f600182016114f0565b60208301526002810154604083015260038101546001600160a01b03811660608401526110559060a01c60ff1660808401611595565b600481015460a083015260058082015460c0840152600682015460e084015260078201546001600160a01b031661010084015260088201546101208401526009820154610140840152600a820154610160840152600b820154610180840152600c820154919060ff8316101561027a578160ff600f93166101a085015260018060a01b039060081c166101c0840152600d8101546101e0840152600e8101546102008401520154610220820152604051809160208252805160208301526102206111306020830151610240604086015261026085019061141d565b916040810151606085015260018060a01b03606082015116608085015261115f608082015160a086019061145d565b60a081015160c085015260c081015160e085015260e081015161010085015260018060a01b03610100820151166101208501526101208101516101408501526101408101516101608501526101608101516101808501526101808101516101a08501526111d66101a08201516101c086019061146a565b60018060a01b036101c0820151166101e08501526101e08101516102008501526102008101518285015201516102408301520390f35b34610188576020366003190112610188576004356000526007602052602060ff604060002054166040519015158152f35b3461018857604036600319011261018857611256611407565b336001600160a01b03821603611272576103c990600435611ae5565b60405163334bd91960e11b8152600490fd5b34610188576040366003190112610188576103c96004356112a3611407565b908060005260006020526112be600160406000200154611a41565b611a67565b34610188576020366003190112610188576112dc6113f1565b6112e461196b565b6001600160a01b03168015610459576001600160601b0360a01b6002541617600255600080f35b346101885760203660031901126101885760043560005260006020526020600160406000200154604051908152f35b34610188576000366003190112610188576002546040516001600160a01b039091168152602090f35b346101885760003660031901126101885760206040517f68e79a7bf1e0bc45d0a330c573bc367f9cf464fd326078812f301165fbda4ef18152f35b34610188576020366003190112610188576004359063ffffffff60e01b821680920361018857602091637965db0b60e01b81149081156113e0575b5015158152f35b6301ffc9a760e01b149050836113d9565b600435906001600160a01b038216820361018857565b602435906001600160a01b038216820361018857565b919082519283825260005b848110611449575050826000602080949584010152601f8019910116010190565b602081830181015184830182015201611428565b90600282101561027a5752565b90600582101561027a5752565b90600182811c921680156114a7575b602083101461149157565b634e487b7160e01b600052602260045260246000fd5b91607f1691611486565b610240810190811067ffffffffffffffff821117610caa57604052565b90601f8019910116810190811067ffffffffffffffff821117610caa57604052565b9060405191826000825461150381611477565b908184526020946001916001811690816000146115735750600114611534575b505050611532925003836114ce565b565b600090815285812095935091905b81831061155b5750506115329350820101388080611523565b85548884018501529485019487945091830191611542565b9250505061153294925060ff191682840152151560051b820101388080611523565b600282101561027a5752565b90816020910312610188575180151581036101885790565b67ffffffffffffffff8111610caa57601f01601f191660200190565b3d15611600573d906115e6826115b9565b916115f460405193846114ce565b82523d6000602084013e565b606090565b60008181526007602052604060ff81832054161561195b57828252600660205280822093600c850191825460ff811660058110156119475760010361193657600b87015442106119255760029083600989015560ff191617835560049081870154918260011b9783890460021484151715611912578154808a02908a8204148a1517156118ff576064900493848a03998a116118ff576008820154808711156117fd575050600381015460ff8160a01c1660028110156117ea5791600e918693156000146117d2576116fd906001600160a01b03165b8954610100600160a81b031916600882901b610100600160a81b031617909955565b8a600d8201550155858080808b895af16117156115d5565b50156117c45760018060a01b0395808080868a600354165af16117366115d5565b50156117c45750916117bf918594937fde4be392324f18a1163e18e128b198f772c7fa56776ec3bea1b595ee8dd535769660035416887f09524b07171acde42f427cb76aad7ecb487b5510cf81d6c4a73ff2ad6cd47c30838051868152426020820152a35194859416974292859094939260609260808301968352602083015260408201520152565b0390a3565b90516312171d8360e31b8152fd5b5060078101546116fd906001600160a01b03166116db565b634e487b7160e01b895260218452602489fd5b8610156118595750600381015460ff8160a01c1660028110156117ea5791600e9160018794146000146117d2576116fd906001600160a01b03168954610100600160a81b031916600882901b610100600160a81b031617909955565b935086809950809396508185600d8395989a94015581600e820155868280808060018060a01b039a8b6003880154165af1966118936115d5565b50600783015416910154905af1906118a96115d5565b50159081156118f6575b506117c457507fde4be392324f18a1163e18e128b198f772c7fa56776ec3bea1b595ee8dd5357691848260809351928352816020840152820152426060820152a3565b905015386118b3565b634e487b7160e01b885260118352602488fd5b634e487b7160e01b875260118252602487fd5b8151637f51b27560e01b8152600490fd5b815163e4d2c12d60e01b8152600490fd5b634e487b7160e01b86526021600452602486fd5b5163d457f04b60e01b8152600490fd5b3360009081527f7d7ffb7a348e1c6a02869081a26547b49160dd3df72d1d75a570eb9b698292ec60205260409020547fa49807205ce4d355092ef5a8a18f56e8913cf4a201fbe287825b095693c217759060ff16156119c75750565b6044906040519063e2517d3f60e01b82523360048301526024820152fd5b3360009081527fa629f6981c2f6895a67dc766e8e03ff72d04a413d0d8773a3ca56e9e474032c160205260409020547f68e79a7bf1e0bc45d0a330c573bc367f9cf464fd326078812f301165fbda4ef19060ff16156119c75750565b80600052600060205260406000203360005260205260ff60406000205416156119c75750565b9060009180835282602052604083209160018060a01b03169182845260205260ff60408420541615600014611ae057808352826020526040832082845260205260408320600160ff198254161790557f2f8788117e7eff1d82e926ec794901d17c78024a50270940304540a733656f0d339380a4600190565b505090565b9060009180835282602052604083209160018060a01b03169182845260205260ff604084205416600014611ae05780835282602052604083208284526020526040832060ff1981541690557ff6391f5c32d9c69d2a47ea670b442974b53935d1edc7fd64eb21e047a839171b339380a4600190565b600260015414611b6b576002600155565b604051633ee5aeb560e01b8152600490fdfea26469706673582212202d3f728d637995cb75b41df8213e686cb8f8bbfb76e6e55a81a9c35a60a56d3364736f6c634300081800332f8788117e7eff1d82e926ec794901d17c78024a50270940304540a733656f0d","opcodes":"PUSH1 0x80 CALLVALUE PUSH3 0xE4 JUMPI PUSH1 0x1F PUSH3 0x1EA7 CODESIZE DUP2 SWAP1 SUB SWAP2 DUP3 ADD PUSH1 0x1F NOT AND DUP4 ADD SWAP2 PUSH1 0x1 PUSH1 0x1 PUSH1 0x40 SHL SUB DUP4 GT DUP5 DUP5 LT OR PUSH3 0xE9 JUMPI DUP1 DUP5 SWAP3 PUSH1 0x40 SWAP5 DUP6 MSTORE DUP4 CODECOPY DUP2 ADD SUB SLT PUSH3 0xE4 JUMPI PUSH3 0x5A PUSH1 0x20 PUSH3 0x52 DUP4 PUSH3 0xFF JUMP JUMPDEST SWAP3 ADD PUSH3 0xFF JUMP JUMPDEST PUSH1 0x1 DUP1 DUP1 SSTORE PUSH1 0xA PUSH1 0x4 SSTORE PUSH1 0x5 SSTORE PUSH1 0x1 PUSH1 0x1 PUSH1 0xA0 SHL SUB SWAP2 DUP3 AND SWAP2 SWAP1 DUP3 ISZERO PUSH3 0xD2 JUMPI AND SWAP1 DUP2 ISZERO PUSH3 0xD2 JUMPI PUSH1 0x1 DUP1 PUSH1 0xA0 SHL SUB NOT SWAP1 DUP2 PUSH1 0x2 SLOAD AND OR PUSH1 0x2 SSTORE PUSH1 0x3 SLOAD AND OR PUSH1 0x3 SSTORE PUSH3 0xA9 CALLER PUSH3 0x114 JUMP JUMPDEST POP PUSH3 0xB5 CALLER PUSH3 0x194 JUMP JUMPDEST POP PUSH3 0xC1 CALLER PUSH3 0x236 JUMP JUMPDEST POP PUSH1 0x40 MLOAD PUSH2 0x1BB3 SWAP1 DUP2 PUSH3 0x2D4 DUP3 CODECOPY RETURN JUMPDEST PUSH1 0x40 MLOAD PUSH4 0xD92E233D PUSH1 0xE0 SHL DUP2 MSTORE PUSH1 0x4 SWAP1 REVERT JUMPDEST PUSH1 0x0 DUP1 REVERT JUMPDEST PUSH4 0x4E487B71 PUSH1 0xE0 SHL PUSH1 0x0 MSTORE PUSH1 0x41 PUSH1 0x4 MSTORE PUSH1 0x24 PUSH1 0x0 REVERT JUMPDEST MLOAD SWAP1 PUSH1 0x1 PUSH1 0x1 PUSH1 0xA0 SHL SUB DUP3 AND DUP3 SUB PUSH3 0xE4 JUMPI JUMP JUMPDEST PUSH1 0x1 PUSH1 0x1 PUSH1 0xA0 SHL SUB AND PUSH1 0x0 DUP2 DUP2 MSTORE PUSH32 0xAD3228B676F7D3CD4284A5443F17F1962B36E491B30A40B2405849E597BA5FB5 PUSH1 0x20 MSTORE PUSH1 0x40 DUP2 KECCAK256 SLOAD SWAP1 SWAP2 SWAP1 PUSH1 0xFF AND PUSH3 0x190 JUMPI DUP2 DUP1 MSTORE DUP2 PUSH1 0x20 MSTORE PUSH1 0x40 DUP3 KECCAK256 DUP2 DUP4 MSTORE PUSH1 0x20 MSTORE PUSH1 0x40 DUP3 KECCAK256 PUSH1 0x1 PUSH1 0xFF NOT DUP3 SLOAD AND OR SWAP1 SSTORE CALLER SWAP2 PUSH1 0x0 DUP1 MLOAD PUSH1 0x20 PUSH3 0x1E87 DUP4 CODECOPY DUP2 MLOAD SWAP2 MSTORE DUP2 DUP1 LOG4 PUSH1 0x1 SWAP1 JUMP JUMPDEST POP SWAP1 JUMP JUMPDEST PUSH1 0x1 PUSH1 0x1 PUSH1 0xA0 SHL SUB AND PUSH1 0x0 DUP2 DUP2 MSTORE PUSH32 0x7D7FFB7A348E1C6A02869081A26547B49160DD3DF72D1D75A570EB9B698292EC PUSH1 0x20 MSTORE PUSH1 0x40 DUP2 KECCAK256 SLOAD SWAP1 SWAP2 SWAP1 PUSH32 0xA49807205CE4D355092EF5A8A18F56E8913CF4A201FBE287825B095693C21775 SWAP1 PUSH1 0xFF AND PUSH3 0x231 JUMPI DUP1 DUP4 MSTORE DUP3 PUSH1 0x20 MSTORE PUSH1 0x40 DUP4 KECCAK256 DUP3 DUP5 MSTORE PUSH1 0x20 MSTORE PUSH1 0x40 DUP4 KECCAK256 PUSH1 0x1 PUSH1 0xFF NOT DUP3 SLOAD AND OR SWAP1 SSTORE PUSH1 0x0 DUP1 MLOAD PUSH1 0x20 PUSH3 0x1E87 DUP4 CODECOPY DUP2 MLOAD SWAP2 MSTORE CALLER SWAP4 DUP1 LOG4 PUSH1 0x1 SWAP1 JUMP JUMPDEST POP POP SWAP1 JUMP JUMPDEST PUSH1 0x1 PUSH1 0x1 PUSH1 0xA0 SHL SUB AND PUSH1 0x0 DUP2 DUP2 MSTORE PUSH32 0xA629F6981C2F6895A67DC766E8E03FF72D04A413D0D8773A3CA56E9E474032C1 PUSH1 0x20 MSTORE PUSH1 0x40 DUP2 KECCAK256 SLOAD SWAP1 SWAP2 SWAP1 PUSH32 0x68E79A7BF1E0BC45D0A330C573BC367F9CF464FD326078812F301165FBDA4EF1 SWAP1 PUSH1 0xFF AND PUSH3 0x231 JUMPI DUP1 DUP4 MSTORE DUP3 PUSH1 0x20 MSTORE PUSH1 0x40 DUP4 KECCAK256 DUP3 DUP5 MSTORE PUSH1 0x20 MSTORE PUSH1 0x40 DUP4 KECCAK256 PUSH1 0x1 PUSH1 0xFF NOT DUP3 SLOAD AND OR SWAP1 SSTORE PUSH1 0x0 DUP1 MLOAD PUSH1 0x20 PUSH3 0x1E87 DUP4 CODECOPY DUP2 MLOAD SWAP2 MSTORE CALLER SWAP4 DUP1 LOG4 PUSH1 0x1 SWAP1 JUMP INVALID PUSH1 0xA0 DUP1 PUSH1 0x40 MSTORE PUSH1 0x4 CALLDATASIZE LT ISZERO PUSH2 0x13 JUMPI PUSH1 0x0 DUP1 REVERT JUMPDEST PUSH1 0x0 CALLDATALOAD PUSH1 0xE0 SHR SWAP1 DUP2 PUSH4 0x1FFC9A7 EQ PUSH2 0x139E JUMPI POP DUP1 PUSH4 0x7E2CEA5 EQ PUSH2 0x1363 JUMPI DUP1 PUSH4 0xD1CFCAE EQ PUSH2 0x133A JUMPI DUP1 PUSH4 0x248A9CA3 EQ PUSH2 0x130B JUMPI DUP1 PUSH4 0x28342ECF EQ PUSH2 0x12C3 JUMPI DUP1 PUSH4 0x2F2FF15D EQ PUSH2 0x1284 JUMPI DUP1 PUSH4 0x36568ABE EQ PUSH2 0x123D JUMPI DUP1 PUSH4 0x4DD9FAA1 EQ PUSH2 0x120C JUMPI DUP1 PUSH4 0x565E614F EQ PUSH2 0xF4A JUMPI DUP1 PUSH4 0x57D628D7 EQ PUSH2 0xF1F JUMPI DUP1 PUSH4 0x60DC2340 EQ PUSH2 0xEF6 JUMPI DUP1 PUSH4 0x75B238FC EQ PUSH2 0xEBB JUMPI DUP1 PUSH4 0x859A62D0 EQ PUSH2 0xD54 JUMPI DUP1 PUSH4 0x89423D47 EQ PUSH2 0x7A6 JUMPI DUP1 PUSH4 0x904B5FA9 EQ PUSH2 0x567 JUMPI DUP1 PUSH4 0x91D14854 EQ PUSH2 0x51A JUMPI DUP1 PUSH4 0xA001ECDD EQ PUSH2 0x4FC JUMPI DUP1 PUSH4 0xA217FDDF EQ PUSH2 0x4E0 JUMPI DUP1 PUSH4 0xAE06C1B7 EQ PUSH2 0x4A5 JUMPI DUP1 PUSH4 0xB1724B46 EQ PUSH2 0x487 JUMPI DUP1 PUSH4 0xB6A6D177 EQ PUSH2 0x46B JUMPI DUP1 PUSH4 0xBFA37E37 EQ PUSH2 0x411 JUMPI DUP1 PUSH4 0xC98517C5 EQ PUSH2 0x3ED JUMPI DUP1 PUSH4 0xCB1C2B5C EQ PUSH2 0x3CB JUMPI DUP1 PUSH4 0xD547741F EQ PUSH2 0x38A JUMPI DUP1 PUSH4 0xD9C312F4 EQ PUSH2 0x2A2 JUMPI DUP1 PUSH4 0xEB3323F1 EQ PUSH2 0x18D JUMPI PUSH4 0xF3AF7B4D EQ PUSH2 0x153 JUMPI PUSH1 0x0 DUP1 REVERT JUMPDEST CALLVALUE PUSH2 0x188 JUMPI PUSH1 0x40 CALLDATASIZE PUSH1 0x3 NOT ADD SLT PUSH2 0x188 JUMPI PUSH2 0x16C PUSH2 0x1B5A JUMP JUMPDEST PUSH2 0x174 PUSH2 0x19E5 JUMP JUMPDEST PUSH2 0x182 PUSH1 0x24 CALLDATALOAD PUSH1 0x4 CALLDATALOAD PUSH2 0x1605 JUMP JUMPDEST PUSH1 0x1 DUP1 SSTORE STOP JUMPDEST PUSH1 0x0 DUP1 REVERT JUMPDEST CALLVALUE PUSH2 0x188 JUMPI PUSH1 0x20 CALLDATASIZE PUSH1 0x3 NOT ADD SLT PUSH2 0x188 JUMPI PUSH1 0x4 CALLDATALOAD PUSH2 0x1A9 PUSH2 0x1B5A JUMP JUMPDEST PUSH2 0x1B1 PUSH2 0x19E5 JUMP JUMPDEST DUP1 PUSH1 0x0 MSTORE PUSH1 0x7 PUSH1 0x20 MSTORE PUSH1 0xFF PUSH1 0x40 PUSH1 0x0 KECCAK256 SLOAD AND ISZERO PUSH2 0x290 JUMPI DUP1 PUSH1 0x0 MSTORE PUSH1 0x6 PUSH1 0x20 MSTORE PUSH1 0x40 PUSH1 0x0 KECCAK256 PUSH1 0xC DUP2 ADD DUP1 SLOAD PUSH1 0xFF DUP2 AND PUSH1 0x5 DUP2 LT ISZERO PUSH2 0x27A JUMPI PUSH2 0x268 JUMPI PUSH1 0x4 SWAP1 PUSH1 0xFF NOT AND OR SWAP1 SSTORE PUSH1 0x0 DUP1 DUP1 DUP1 PUSH1 0x4 DUP6 ADD SLOAD DUP1 SWAP6 PUSH1 0x3 PUSH1 0x1 DUP1 PUSH1 0xA0 SHL SUB SWAP2 ADD SLOAD AND GAS CALL PUSH2 0x21A PUSH2 0x15D5 JUMP JUMPDEST POP ISZERO PUSH2 0x256 JUMPI PUSH1 0x40 PUSH32 0xD6AF165A1B2E9FDAA5C2731F9F084DB7ACC7334F78DFDDCC6FB35379039E3731 SWAP2 DUP2 MLOAD SWAP1 DUP2 MSTORE TIMESTAMP PUSH1 0x20 DUP3 ADD MSTORE LOG2 PUSH1 0x1 DUP1 SSTORE STOP JUMPDEST PUSH1 0x40 MLOAD PUSH4 0x12171D83 PUSH1 0xE3 SHL DUP2 MSTORE PUSH1 0x4 SWAP1 REVERT JUMPDEST PUSH1 0x40 MLOAD PUSH4 0x108670AB PUSH1 0xE0 SHL DUP2 MSTORE PUSH1 0x4 SWAP1 REVERT JUMPDEST PUSH4 0x4E487B71 PUSH1 0xE0 SHL PUSH1 0x0 MSTORE PUSH1 0x21 PUSH1 0x4 MSTORE PUSH1 0x24 PUSH1 0x0 REVERT JUMPDEST PUSH1 0x40 MLOAD PUSH4 0xD457F04B PUSH1 0xE0 SHL DUP2 MSTORE PUSH1 0x4 SWAP1 REVERT JUMPDEST CALLVALUE PUSH2 0x188 JUMPI PUSH1 0x20 CALLDATASIZE PUSH1 0x3 NOT ADD SLT PUSH2 0x188 JUMPI PUSH1 0x4 CALLDATALOAD PUSH2 0x2BE PUSH2 0x1B5A JUMP JUMPDEST DUP1 PUSH1 0x0 MSTORE PUSH1 0x7 PUSH1 0x20 MSTORE PUSH1 0xFF PUSH1 0x40 PUSH1 0x0 KECCAK256 SLOAD AND ISZERO PUSH2 0x290 JUMPI DUP1 PUSH1 0x0 MSTORE PUSH1 0x6 PUSH1 0x20 MSTORE PUSH1 0x40 PUSH1 0x0 KECCAK256 SWAP1 PUSH1 0xC DUP3 ADD DUP1 SLOAD SWAP1 PUSH1 0xFF DUP3 AND PUSH1 0x5 DUP2 LT ISZERO PUSH2 0x27A JUMPI PUSH2 0x268 JUMPI PUSH1 0x3 DUP5 ADD SWAP1 PUSH1 0x1 DUP1 PUSH1 0xA0 SHL SUB SWAP3 DUP4 DUP4 SLOAD AND SWAP6 CALLER DUP8 SUB PUSH2 0x378 JUMPI PUSH1 0x0 PUSH1 0x4 DUP2 SWAP5 SWAP3 DUP3 SWAP5 SWAP4 PUSH1 0x3 DUP5 SWAP6 PUSH1 0xFF NOT AND OR SWAP1 SSTORE ADD SLOAD DUP1 SWAP9 GAS CALL PUSH2 0x338 PUSH2 0x15D5 JUMP JUMPDEST POP ISZERO PUSH2 0x256 JUMPI PUSH32 0xCC8E4344704772A99102F31983264FBEA37E736C28FB18F5E2FC2BF42EB7D12F SWAP2 PUSH1 0x40 SWAP2 SLOAD AND SWAP4 DUP2 MLOAD SWAP1 DUP2 MSTORE TIMESTAMP PUSH1 0x20 DUP3 ADD MSTORE LOG3 PUSH1 0x1 DUP1 SSTORE STOP JUMPDEST PUSH1 0x40 MLOAD PUSH4 0x882F724F PUSH1 0xE0 SHL DUP2 MSTORE PUSH1 0x4 SWAP1 REVERT JUMPDEST CALLVALUE PUSH2 0x188 JUMPI PUSH1 0x40 CALLDATASIZE PUSH1 0x3 NOT ADD SLT PUSH2 0x188 JUMPI PUSH2 0x3C9 PUSH1 0x4 CALLDATALOAD PUSH2 0x3A9 PUSH2 0x1407 JUMP JUMPDEST SWAP1 DUP1 PUSH1 0x0 MSTORE PUSH1 0x0 PUSH1 0x20 MSTORE PUSH2 0x3C4 PUSH1 0x1 PUSH1 0x40 PUSH1 0x0 KECCAK256 ADD SLOAD PUSH2 0x1A41 JUMP JUMPDEST PUSH2 0x1AE5 JUMP JUMPDEST STOP JUMPDEST CALLVALUE PUSH2 0x188 JUMPI PUSH1 0x0 CALLDATASIZE PUSH1 0x3 NOT ADD SLT PUSH2 0x188 JUMPI PUSH1 0x20 PUSH1 0x40 MLOAD PUSH7 0x38D7EA4C68000 DUP2 MSTORE RETURN JUMPDEST CALLVALUE PUSH2 0x188 JUMPI PUSH1 0x0 CALLDATASIZE PUSH1 0x3 NOT ADD SLT PUSH2 0x188 JUMPI PUSH1 0x20 PUSH1 0x40 MLOAD PUSH9 0x56BC75E2D63100000 DUP2 MSTORE RETURN JUMPDEST CALLVALUE PUSH2 0x188 JUMPI PUSH1 0x20 CALLDATASIZE PUSH1 0x3 NOT ADD SLT PUSH2 0x188 JUMPI PUSH2 0x42A PUSH2 0x13F1 JUMP JUMPDEST PUSH2 0x432 PUSH2 0x196B JUMP JUMPDEST PUSH1 0x1 PUSH1 0x1 PUSH1 0xA0 SHL SUB AND DUP1 ISZERO PUSH2 0x459 JUMPI PUSH1 0x1 PUSH1 0x1 PUSH1 0x60 SHL SUB PUSH1 0xA0 SHL PUSH1 0x3 SLOAD AND OR PUSH1 0x3 SSTORE PUSH1 0x0 DUP1 RETURN JUMPDEST PUSH1 0x40 MLOAD PUSH4 0xD92E233D PUSH1 0xE0 SHL DUP2 MSTORE PUSH1 0x4 SWAP1 REVERT JUMPDEST CALLVALUE PUSH2 0x188 JUMPI PUSH1 0x0 CALLDATASIZE PUSH1 0x3 NOT ADD SLT PUSH2 0x188 JUMPI PUSH1 0x20 PUSH1 0x40 MLOAD PUSH1 0x3C DUP2 MSTORE RETURN JUMPDEST CALLVALUE PUSH2 0x188 JUMPI PUSH1 0x0 CALLDATASIZE PUSH1 0x3 NOT ADD SLT PUSH2 0x188 JUMPI PUSH1 0x20 PUSH1 0x40 MLOAD PUSH3 0x93A80 DUP2 MSTORE RETURN JUMPDEST CALLVALUE PUSH2 0x188 JUMPI PUSH1 0x20 CALLDATASIZE PUSH1 0x3 NOT ADD SLT PUSH2 0x188 JUMPI PUSH1 0x4 CALLDATALOAD PUSH2 0x4C1 PUSH2 0x196B JUMP JUMPDEST PUSH1 0x32 DUP2 GT PUSH2 0x4CE JUMPI PUSH1 0x4 SSTORE STOP JUMPDEST PUSH1 0x40 MLOAD PUSH4 0x390EDFF5 PUSH1 0xE1 SHL DUP2 MSTORE PUSH1 0x4 SWAP1 REVERT JUMPDEST CALLVALUE PUSH2 0x188 JUMPI PUSH1 0x0 CALLDATASIZE PUSH1 0x3 NOT ADD SLT PUSH2 0x188 JUMPI PUSH1 0x20 PUSH1 0x40 MLOAD PUSH1 0x0 DUP2 MSTORE RETURN JUMPDEST CALLVALUE PUSH2 0x188 JUMPI PUSH1 0x0 CALLDATASIZE PUSH1 0x3 NOT ADD SLT PUSH2 0x188 JUMPI PUSH1 0x20 PUSH1 0x4 SLOAD PUSH1 0x40 MLOAD SWAP1 DUP2 MSTORE RETURN JUMPDEST CALLVALUE PUSH2 0x188 JUMPI PUSH1 0x40 CALLDATASIZE PUSH1 0x3 NOT ADD SLT PUSH2 0x188 JUMPI PUSH2 0x533 PUSH2 0x1407 JUMP JUMPDEST PUSH1 0x4 CALLDATALOAD PUSH1 0x0 MSTORE PUSH1 0x0 PUSH1 0x20 MSTORE PUSH1 0x40 PUSH1 0x0 KECCAK256 SWAP1 PUSH1 0x1 DUP1 PUSH1 0xA0 SHL SUB AND PUSH1 0x0 MSTORE PUSH1 0x20 MSTORE PUSH1 0x20 PUSH1 0xFF PUSH1 0x40 PUSH1 0x0 KECCAK256 SLOAD AND PUSH1 0x40 MLOAD SWAP1 ISZERO ISZERO DUP2 MSTORE RETURN JUMPDEST PUSH1 0x60 CALLDATASIZE PUSH1 0x3 NOT ADD SLT PUSH2 0x188 JUMPI PUSH1 0x44 CALLDATALOAD PUSH1 0x24 CALLDATALOAD PUSH1 0x4 CALLDATALOAD PUSH2 0x584 PUSH2 0x1B5A JUMP JUMPDEST DUP1 PUSH1 0x0 MSTORE PUSH1 0x20 PUSH1 0x7 DUP2 MSTORE PUSH1 0xFF PUSH1 0x40 PUSH1 0x0 KECCAK256 SLOAD AND ISZERO PUSH2 0x290 JUMPI DUP2 PUSH1 0x0 MSTORE PUSH1 0x6 DUP2 MSTORE PUSH1 0x40 PUSH1 0x0 KECCAK256 SWAP1 PUSH1 0xC DUP3 ADD SWAP5 DUP6 SLOAD SWAP2 PUSH1 0xFF DUP4 AND PUSH1 0x5 DUP2 LT ISZERO PUSH2 0x27A JUMPI PUSH2 0x268 JUMPI PUSH1 0x2 SLOAD PUSH1 0x40 MLOAD PUSH4 0xDE99F157 PUSH1 0xE0 SHL DUP2 MSTORE PUSH1 0x4 DUP2 ADD DUP9 SWAP1 MSTORE PUSH1 0x1 PUSH1 0x1 PUSH1 0xA0 SHL SUB SWAP1 SWAP2 AND SWAP1 DUP3 DUP2 PUSH1 0x24 DUP2 DUP6 GAS STATICCALL SWAP1 DUP2 ISZERO PUSH2 0x76B JUMPI PUSH1 0x0 SWAP2 PUSH2 0x789 JUMPI JUMPDEST POP ISZERO PUSH2 0x777 JUMPI PUSH1 0x40 MLOAD PUSH4 0x4744F2C9 PUSH1 0xE0 SHL DUP2 MSTORE CALLER PUSH1 0x4 DUP3 ADD MSTORE PUSH1 0x24 DUP2 ADD DUP9 SWAP1 MSTORE SWAP1 DUP3 SWAP1 DUP3 SWAP1 PUSH1 0x44 SWAP1 DUP3 SWAP1 GAS STATICCALL SWAP2 DUP3 ISZERO PUSH2 0x76B JUMPI PUSH1 0x0 SWAP3 PUSH2 0x73E JUMPI JUMPDEST POP POP ISZERO PUSH2 0x72C JUMPI DUP5 PUSH1 0x2 DUP5 ADD SLOAD EQ PUSH2 0x71A JUMPI PUSH1 0x4 DUP4 ADD SLOAD CALLVALUE SUB PUSH2 0x708 JUMPI DUP5 PUSH1 0x6 DUP5 ADD SSTORE PUSH1 0x7 DUP4 ADD CALLER PUSH1 0x1 PUSH1 0x1 PUSH1 0x60 SHL SUB PUSH1 0xA0 SHL DUP3 SLOAD AND OR SWAP1 SSTORE DUP1 PUSH1 0x8 DUP5 ADD SSTORE TIMESTAMP PUSH1 0xA DUP5 ADD SSTORE PUSH1 0x5 DUP4 ADD SLOAD TIMESTAMP ADD SWAP6 DUP7 TIMESTAMP GT PUSH2 0x6F2 JUMPI PUSH1 0x1 PUSH2 0x6E9 SWAP4 DUP9 PUSH1 0xB PUSH32 0xD30A7C747768B746F2961E6BD11D70599C4D8BACC3A0EC66FC772BBE011AF640 SWAP8 ADD SSTORE PUSH1 0xFF NOT AND OR SWAP1 SSTORE PUSH1 0x40 MLOAD SWAP2 DUP3 SWAP2 CALLER SWAP8 TIMESTAMP SWAP2 TIMESTAMP SWAP1 DUP6 SWAP1 SWAP5 SWAP4 SWAP3 PUSH1 0x60 SWAP3 PUSH1 0x80 DUP4 ADD SWAP7 DUP4 MSTORE PUSH1 0x20 DUP4 ADD MSTORE PUSH1 0x40 DUP3 ADD MSTORE ADD MSTORE JUMP JUMPDEST SUB SWAP1 LOG4 PUSH1 0x1 DUP1 SSTORE STOP JUMPDEST PUSH4 0x4E487B71 PUSH1 0xE0 SHL PUSH1 0x0 MSTORE PUSH1 0x11 PUSH1 0x4 MSTORE PUSH1 0x24 PUSH1 0x0 REVERT JUMPDEST PUSH1 0x40 MLOAD PUSH4 0x4581E827 PUSH1 0xE0 SHL DUP2 MSTORE PUSH1 0x4 SWAP1 REVERT JUMPDEST PUSH1 0x40 MLOAD PUSH4 0xEDD1A07D PUSH1 0xE0 SHL DUP2 MSTORE PUSH1 0x4 SWAP1 REVERT JUMPDEST PUSH1 0x40 MLOAD PUSH4 0xE41DCBF PUSH1 0xE2 SHL DUP2 MSTORE PUSH1 0x4 SWAP1 REVERT JUMPDEST PUSH2 0x75D SWAP3 POP DUP1 RETURNDATASIZE LT PUSH2 0x764 JUMPI JUMPDEST PUSH2 0x755 DUP2 DUP4 PUSH2 0x14CE JUMP JUMPDEST DUP2 ADD SWAP1 PUSH2 0x15A1 JUMP JUMPDEST DUP8 DUP1 PUSH2 0x638 JUMP JUMPDEST POP RETURNDATASIZE PUSH2 0x74B JUMP JUMPDEST PUSH1 0x40 MLOAD RETURNDATASIZE PUSH1 0x0 DUP3 RETURNDATACOPY RETURNDATASIZE SWAP1 REVERT JUMPDEST PUSH1 0x40 MLOAD PUSH4 0xE93BA223 PUSH1 0xE0 SHL DUP2 MSTORE PUSH1 0x4 SWAP1 REVERT JUMPDEST PUSH2 0x7A0 SWAP2 POP DUP4 RETURNDATASIZE DUP6 GT PUSH2 0x764 JUMPI PUSH2 0x755 DUP2 DUP4 PUSH2 0x14CE JUMP JUMPDEST DUP10 PUSH2 0x5FD JUMP JUMPDEST PUSH1 0x80 CALLDATASIZE PUSH1 0x3 NOT ADD SLT PUSH2 0x188 JUMPI PUSH1 0x24 CALLDATALOAD PUSH8 0xFFFFFFFFFFFFFFFF DUP2 GT PUSH2 0x188 JUMPI CALLDATASIZE PUSH1 0x23 DUP3 ADD SLT ISZERO PUSH2 0x188 JUMPI PUSH8 0xFFFFFFFFFFFFFFFF DUP2 PUSH1 0x4 ADD CALLDATALOAD GT PUSH2 0x188 JUMPI CALLDATASIZE PUSH1 0x24 DUP3 PUSH1 0x4 ADD CALLDATALOAD DUP4 ADD ADD GT PUSH2 0x188 JUMPI PUSH1 0x2 PUSH1 0x44 CALLDATALOAD LT ISZERO PUSH2 0x188 JUMPI PUSH2 0x805 PUSH2 0x1B5A JUMP JUMPDEST PUSH1 0x2 SLOAD PUSH1 0x40 MLOAD PUSH4 0xDE99F157 PUSH1 0xE0 SHL DUP2 MSTORE PUSH1 0x4 DUP1 CALLDATALOAD SWAP1 DUP3 ADD MSTORE PUSH1 0x1 PUSH1 0x1 PUSH1 0xA0 SHL SUB SWAP1 SWAP2 AND SWAP1 PUSH1 0x20 DUP2 PUSH1 0x24 DUP2 DUP6 GAS STATICCALL SWAP1 DUP2 ISZERO PUSH2 0x76B JUMPI PUSH1 0x0 SWAP2 PUSH2 0xD35 JUMPI JUMPDEST POP ISZERO PUSH2 0x777 JUMPI PUSH1 0x40 MLOAD PUSH4 0x4744F2C9 PUSH1 0xE0 SHL DUP2 MSTORE CALLER PUSH1 0x4 DUP1 DUP4 ADD SWAP2 SWAP1 SWAP2 MSTORE CALLDATALOAD PUSH1 0x24 DUP3 ADD MSTORE SWAP1 PUSH1 0x20 SWAP1 DUP3 SWAP1 PUSH1 0x44 SWAP1 DUP3 SWAP1 GAS STATICCALL SWAP1 DUP2 ISZERO PUSH2 0x76B JUMPI PUSH1 0x0 SWAP2 PUSH2 0xD16 JUMPI JUMPDEST POP ISZERO PUSH2 0x72C JUMPI DUP1 PUSH1 0x4 ADD CALLDATALOAD ISZERO PUSH2 0xD04 JUMPI PUSH7 0x38D7EA4C68000 CALLVALUE LT DUP1 ISZERO PUSH2 0xCF2 JUMPI JUMPDEST PUSH2 0xCE0 JUMPI PUSH1 0x3C PUSH1 0x64 CALLDATALOAD LT DUP1 ISZERO PUSH2 0xCD2 JUMPI JUMPDEST PUSH2 0xCC0 JUMPI PUSH1 0x5 SLOAD PUSH1 0x0 NOT DUP2 EQ PUSH2 0x6F2 JUMPI PUSH1 0x1 DUP2 ADD PUSH1 0x5 SSTORE PUSH1 0x40 MLOAD SWAP2 PUSH2 0x8D6 DUP4 PUSH2 0x14B1 JUMP JUMPDEST DUP2 DUP4 MSTORE PUSH2 0x8E6 DUP2 PUSH1 0x4 ADD CALLDATALOAD PUSH2 0x15B9 JUMP JUMPDEST PUSH2 0x8F3 PUSH1 0x40 MLOAD SWAP2 DUP3 PUSH2 0x14CE JUMP JUMPDEST PUSH1 0x4 DUP3 ADD CALLDATALOAD DUP1 DUP3 MSTORE PUSH1 0x24 DUP4 ADD PUSH1 0x20 DUP4 ADD CALLDATACOPY PUSH1 0x0 PUSH1 0x20 DUP4 PUSH1 0x4 ADD CALLDATALOAD DUP4 ADD ADD MSTORE PUSH1 0x20 DUP5 ADD MSTORE PUSH1 0x4 CALLDATALOAD PUSH1 0x40 DUP5 ADD MSTORE CALLER PUSH1 0x60 DUP5 ADD MSTORE PUSH2 0x933 PUSH1 0x44 CALLDATALOAD PUSH1 0x80 DUP6 ADD PUSH2 0x1595 JUMP JUMPDEST CALLVALUE PUSH1 0xA0 DUP5 ADD MSTORE PUSH1 0x64 CALLDATALOAD PUSH1 0xC0 DUP5 ADD MSTORE PUSH1 0x0 PUSH1 0xE0 DUP5 ADD MSTORE PUSH1 0x0 PUSH2 0x100 DUP5 ADD MSTORE PUSH1 0x0 PUSH2 0x120 DUP5 ADD MSTORE PUSH1 0x0 PUSH2 0x140 DUP5 ADD MSTORE PUSH1 0x0 PUSH2 0x160 DUP5 ADD MSTORE PUSH1 0x0 PUSH2 0x180 DUP5 ADD MSTORE PUSH1 0x0 PUSH2 0x1A0 DUP5 ADD MSTORE PUSH1 0x0 PUSH2 0x1C0 DUP5 ADD MSTORE PUSH1 0x0 PUSH2 0x1E0 DUP5 ADD MSTORE PUSH1 0x0 PUSH2 0x200 DUP5 ADD MSTORE TIMESTAMP PUSH2 0x220 DUP5 ADD MSTORE DUP2 PUSH1 0x0 MSTORE PUSH1 0x6 PUSH1 0x20 MSTORE PUSH1 0x40 PUSH1 0x0 KECCAK256 DUP4 MLOAD DUP2 SSTORE PUSH1 0x20 DUP5 ADD MLOAD DUP1 MLOAD SWAP1 PUSH8 0xFFFFFFFFFFFFFFFF DUP3 GT PUSH2 0xCAA JUMPI DUP2 SWAP1 PUSH2 0x9CF PUSH1 0x1 DUP6 ADD SLOAD PUSH2 0x1477 JUMP JUMPDEST PUSH1 0x1F DUP2 GT PUSH2 0xC57 JUMPI JUMPDEST POP PUSH1 0x20 SWAP1 PUSH1 0x1F DUP4 GT PUSH1 0x1 EQ PUSH2 0xBE5 JUMPI PUSH1 0x0 SWAP3 PUSH2 0xBDA JUMPI JUMPDEST POP POP DUP2 PUSH1 0x1 SHL SWAP2 PUSH1 0x0 NOT SWAP1 PUSH1 0x3 SHL SHR NOT AND OR PUSH1 0x1 DUP3 ADD SSTORE JUMPDEST PUSH1 0x40 DUP5 ADD MLOAD PUSH1 0x2 DUP3 ADD SSTORE PUSH1 0x1 DUP1 PUSH1 0xA0 SHL SUB PUSH1 0x60 DUP6 ADD MLOAD AND PUSH1 0x3 DUP3 ADD SLOAD SWAP1 PUSH1 0x80 DUP7 ADD MLOAD PUSH1 0x2 DUP2 LT ISZERO PUSH2 0x27A JUMPI PUSH1 0xFF PUSH1 0xA0 SHL SWAP1 PUSH1 0xA0 SHL AND SWAP2 PUSH11 0xFFFFFFFFFFFFFFFFFFFFFF PUSH1 0xA8 SHL AND OR OR PUSH1 0x3 DUP3 ADD SSTORE PUSH1 0xA0 DUP5 ADD MLOAD PUSH1 0x4 DUP3 ADD SSTORE PUSH1 0xC0 DUP5 ADD MLOAD PUSH1 0x5 DUP3 ADD SSTORE PUSH1 0xE0 DUP5 ADD MLOAD PUSH1 0x6 DUP3 ADD SSTORE PUSH1 0x7 DUP2 ADD PUSH1 0x1 DUP1 PUSH1 0xA0 SHL SUB PUSH2 0x100 DUP7 ADD MLOAD AND PUSH1 0x1 PUSH1 0x1 PUSH1 0x60 SHL SUB PUSH1 0xA0 SHL DUP3 SLOAD AND OR SWAP1 SSTORE PUSH2 0x120 DUP5 ADD MLOAD PUSH1 0x8 DUP3 ADD SSTORE PUSH2 0x140 DUP5 ADD MLOAD PUSH1 0x9 DUP3 ADD SSTORE PUSH2 0x160 DUP5 ADD MLOAD PUSH1 0xA DUP3 ADD SSTORE PUSH2 0x180 DUP5 ADD MLOAD PUSH1 0xB DUP3 ADD SSTORE PUSH2 0x1A0 DUP5 ADD MLOAD SWAP1 PUSH1 0x5 DUP3 LT ISZERO PUSH2 0x27A JUMPI PUSH1 0xC DUP2 ADD DUP1 SLOAD PUSH2 0x1C0 DUP8 ADD MLOAD PUSH2 0x100 PUSH1 0x1 PUSH1 0xA8 SHL SUB PUSH1 0x8 SWAP2 SWAP1 SWAP2 SHL AND PUSH1 0xFF SWAP5 SWAP1 SWAP5 AND PUSH1 0x1 PUSH1 0x1 PUSH1 0xA8 SHL SUB NOT SWAP1 SWAP2 AND OR SWAP3 SWAP1 SWAP3 OR SWAP1 SWAP2 SSTORE PUSH1 0x20 SWAP4 PUSH1 0xFF NOT SWAP2 SWAP1 PUSH1 0xF SWAP1 PUSH2 0x220 SWAP1 PUSH2 0x1E0 DUP2 ADD MLOAD PUSH1 0xD DUP6 ADD SSTORE PUSH2 0x200 DUP2 ADD MLOAD PUSH1 0xE DUP6 ADD SSTORE ADD MLOAD SWAP2 ADD SSTORE DUP3 PUSH1 0x0 MSTORE PUSH1 0x7 DUP5 MSTORE PUSH1 0x1 PUSH1 0x40 PUSH1 0x0 KECCAK256 SWAP2 DUP3 SLOAD AND OR SWAP1 SSTORE PUSH1 0x40 MLOAD SWAP1 PUSH1 0xA0 DUP3 MSTORE DUP1 PUSH1 0x4 ADD CALLDATALOAD PUSH1 0xA0 DUP4 ADD MSTORE DUP1 PUSH1 0x4 ADD CALLDATALOAD PUSH1 0x24 DUP3 ADD PUSH1 0xC0 DUP5 ADD CALLDATACOPY PUSH1 0x0 PUSH1 0xC0 DUP3 PUSH1 0x4 ADD CALLDATALOAD DUP5 ADD ADD MSTORE PUSH1 0xFF PUSH1 0x44 CALLDATALOAD AND DUP5 DUP4 ADD MSTORE CALLVALUE PUSH1 0x40 DUP4 ADD MSTORE PUSH1 0x64 CALLDATALOAD PUSH1 0x60 DUP4 ADD MSTORE TIMESTAMP PUSH1 0x80 DUP4 ADD MSTORE DUP3 PUSH32 0x688046ADAF759D2E556524BFD3F6B4F0728F2DD2C03078BCCB42C67A77740CB1 CALLER SWAP4 PUSH1 0xC0 DUP2 PUSH1 0x4 CALLDATALOAD SWAP6 PUSH1 0x1F DUP1 NOT SWAP2 PUSH1 0x4 ADD CALLDATALOAD ADD AND DUP2 ADD SUB ADD SWAP1 LOG4 PUSH1 0x1 DUP1 SSTORE PUSH1 0x40 MLOAD SWAP1 DUP2 MSTORE RETURN JUMPDEST ADD MLOAD SWAP1 POP DUP7 DUP1 PUSH2 0x9EF JUMP JUMPDEST SWAP3 POP PUSH1 0x1 DUP5 ADD PUSH1 0x0 MSTORE PUSH1 0x20 PUSH1 0x0 KECCAK256 SWAP1 PUSH1 0x0 SWAP4 JUMPDEST PUSH1 0x1F NOT DUP5 AND DUP6 LT PUSH2 0xC3C JUMPI PUSH1 0x1 SWAP5 POP DUP4 PUSH1 0x1F NOT DUP2 AND LT PUSH2 0xC23 JUMPI JUMPDEST POP POP POP DUP2 SHL ADD PUSH1 0x1 DUP3 ADD SSTORE PUSH2 0xA07 JUMP JUMPDEST ADD MLOAD PUSH1 0x0 NOT PUSH1 0xF8 DUP5 PUSH1 0x3 SHL AND SHR NOT AND SWAP1 SSTORE DUP7 DUP1 DUP1 PUSH2 0xC13 JUMP JUMPDEST DUP2 DUP2 ADD MLOAD DUP4 SSTORE PUSH1 0x20 SWAP5 DUP6 ADD SWAP5 PUSH1 0x1 SWAP1 SWAP4 ADD SWAP3 SWAP1 SWAP2 ADD SWAP1 PUSH2 0xBF8 JUMP JUMPDEST SWAP1 SWAP2 POP PUSH1 0x1 DUP5 ADD PUSH1 0x0 MSTORE PUSH1 0x20 PUSH1 0x0 KECCAK256 PUSH1 0x1F DUP5 ADD PUSH1 0x5 SHR DUP2 ADD PUSH1 0x20 DUP6 LT PUSH2 0xCA3 JUMPI JUMPDEST SWAP1 DUP5 SWAP4 SWAP3 SWAP2 JUMPDEST PUSH1 0x1F DUP4 ADD PUSH1 0x5 SHR DUP3 ADD DUP2 LT PUSH2 0xC94 JUMPI POP POP PUSH2 0x9D8 JUMP JUMPDEST PUSH1 0x0 DUP2 SSTORE DUP6 SWAP5 POP PUSH1 0x1 ADD PUSH2 0xC7E JUMP JUMPDEST POP DUP1 PUSH2 0xC78 JUMP JUMPDEST PUSH4 0x4E487B71 PUSH1 0xE0 SHL PUSH1 0x0 MSTORE PUSH1 0x41 PUSH1 0x4 MSTORE PUSH1 0x24 PUSH1 0x0 REVERT JUMPDEST PUSH1 0x40 MLOAD PUSH4 0x76166401 PUSH1 0xE0 SHL DUP2 MSTORE PUSH1 0x4 SWAP1 REVERT JUMPDEST POP PUSH3 0x93A80 PUSH1 0x64 CALLDATALOAD GT PUSH2 0x8B2 JUMP JUMPDEST PUSH1 0x40 MLOAD PUSH4 0x103BE3B PUSH1 0xE2 SHL DUP2 MSTORE PUSH1 0x4 SWAP1 REVERT JUMPDEST POP PUSH9 0x56BC75E2D63100000 CALLVALUE GT PUSH2 0x8A1 JUMP JUMPDEST PUSH1 0x40 MLOAD PUSH4 0x7D7E52D PUSH1 0xE5 SHL DUP2 MSTORE PUSH1 0x4 SWAP1 REVERT JUMPDEST PUSH2 0xD2F SWAP2 POP PUSH1 0x20 RETURNDATASIZE PUSH1 0x20 GT PUSH2 0x764 JUMPI PUSH2 0x755 DUP2 DUP4 PUSH2 0x14CE JUMP JUMPDEST DUP3 PUSH2 0x880 JUMP JUMPDEST PUSH2 0xD4E SWAP2 POP PUSH1 0x20 RETURNDATASIZE PUSH1 0x20 GT PUSH2 0x764 JUMPI PUSH2 0x755 DUP2 DUP4 PUSH2 0x14CE JUMP JUMPDEST DUP4 PUSH2 0x841 JUMP JUMPDEST CALLVALUE PUSH2 0x188 JUMPI PUSH1 0x20 CALLDATASIZE PUSH1 0x3 NOT ADD SLT PUSH2 0x188 JUMPI PUSH1 0x4 CALLDATALOAD PUSH1 0x0 MSTORE PUSH1 0x6 PUSH1 0x20 MSTORE PUSH1 0x40 PUSH1 0x0 KECCAK256 DUP1 SLOAD PUSH1 0x1 DUP3 ADD PUSH2 0xD84 SWAP1 PUSH2 0x14F0 JUMP JUMPDEST SWAP2 PUSH1 0x2 DUP2 ADD SLOAD SWAP3 PUSH1 0x3 DUP3 ADD SLOAD PUSH1 0x4 DUP4 ADD SLOAD PUSH1 0x5 DUP5 ADD SLOAD PUSH1 0x6 DUP6 ADD SLOAD PUSH1 0x1 PUSH1 0xA0 SHL PUSH1 0x1 SWAP1 SUB PUSH1 0x7 DUP8 ADD SLOAD AND PUSH1 0x8 DUP8 ADD SLOAD SWAP1 PUSH1 0x9 DUP9 ADD SLOAD SWAP3 PUSH1 0xA DUP10 ADD SLOAD SWAP5 PUSH1 0xB DUP11 ADD SLOAD SWAP7 PUSH1 0xC DUP12 ADD SLOAD SWAP9 PUSH1 0xD DUP13 ADD SLOAD SWAP11 PUSH1 0xE DUP14 ADD SLOAD SWAP13 PUSH1 0xF ADD SLOAD SWAP14 PUSH1 0x40 MLOAD PUSH1 0x80 MSTORE PUSH2 0x240 SWAP1 PUSH1 0x80 MLOAD MSTORE DUP1 PUSH1 0x80 MLOAD PUSH1 0x20 ADD MSTORE PUSH1 0x80 MLOAD ADD PUSH2 0xE00 SWAP2 PUSH2 0x141D JUMP JUMPDEST SWAP14 PUSH1 0x80 MLOAD PUSH1 0x40 ADD MSTORE PUSH1 0x1 PUSH1 0xA0 SHL PUSH1 0x1 SWAP1 SUB DUP2 AND PUSH1 0x80 MLOAD PUSH1 0x60 ADD MSTORE PUSH1 0x80 MLOAD PUSH1 0x80 ADD SWAP1 PUSH1 0xA0 SHR PUSH1 0xFF AND SWAP1 PUSH2 0xE31 SWAP2 PUSH2 0x145D JUMP JUMPDEST PUSH1 0x80 MLOAD PUSH1 0xA0 ADD MSTORE PUSH1 0x80 MLOAD PUSH1 0xC0 ADD MSTORE PUSH1 0x80 MLOAD PUSH1 0xE0 ADD MSTORE PUSH1 0x80 MLOAD PUSH2 0x100 ADD MSTORE PUSH1 0x80 MLOAD PUSH2 0x120 ADD MSTORE PUSH1 0x80 MLOAD PUSH2 0x140 ADD MSTORE PUSH1 0x80 MLOAD PUSH2 0x160 ADD MSTORE PUSH1 0x80 MLOAD PUSH2 0x180 ADD MSTORE PUSH1 0x80 MLOAD PUSH2 0x1A0 ADD PUSH1 0xFF DUP3 AND SWAP1 PUSH2 0xE83 SWAP2 PUSH2 0x146A JUMP JUMPDEST PUSH1 0x1 PUSH1 0xA0 SHL PUSH1 0x1 SWAP1 SUB SWAP1 PUSH1 0x8 SHR AND PUSH1 0x80 MLOAD PUSH2 0x1C0 ADD MSTORE PUSH1 0x80 MLOAD PUSH2 0x1E0 ADD MSTORE PUSH1 0x80 MLOAD PUSH2 0x200 ADD MSTORE PUSH1 0x80 MLOAD PUSH2 0x220 ADD MSTORE PUSH1 0x80 MLOAD SWAP1 SUB PUSH1 0x80 MLOAD RETURN JUMPDEST CALLVALUE PUSH2 0x188 JUMPI PUSH1 0x0 CALLDATASIZE PUSH1 0x3 NOT ADD SLT PUSH2 0x188 JUMPI PUSH1 0x20 PUSH1 0x40 MLOAD PUSH32 0xA49807205CE4D355092EF5A8A18F56E8913CF4A201FBE287825B095693C21775 DUP2 MSTORE RETURN JUMPDEST CALLVALUE PUSH2 0x188 JUMPI PUSH1 0x0 CALLDATASIZE PUSH1 0x3 NOT ADD SLT PUSH2 0x188 JUMPI PUSH1 0x3 SLOAD PUSH1 0x40 MLOAD PUSH1 0x1 PUSH1 0x1 PUSH1 0xA0 SHL SUB SWAP1 SWAP2 AND DUP2 MSTORE PUSH1 0x20 SWAP1 RETURN JUMPDEST CALLVALUE PUSH2 0x188 JUMPI PUSH1 0x0 CALLDATASIZE PUSH1 0x3 NOT ADD SLT PUSH2 0x188 JUMPI PUSH1 0x5 SLOAD PUSH1 0x0 NOT DUP2 ADD SWAP1 DUP2 GT PUSH2 0x6F2 JUMPI PUSH1 0x20 SWAP1 PUSH1 0x40 MLOAD SWAP1 DUP2 MSTORE RETURN JUMPDEST CALLVALUE PUSH2 0x188 JUMPI PUSH1 0x20 CALLDATASIZE PUSH1 0x3 NOT ADD SLT PUSH2 0x188 JUMPI PUSH1 0x4 CALLDATALOAD PUSH1 0x0 PUSH2 0x220 PUSH1 0x40 MLOAD PUSH2 0xF6F DUP2 PUSH2 0x14B1 JUMP JUMPDEST DUP3 DUP2 MSTORE PUSH1 0x60 PUSH1 0x20 DUP3 ADD MSTORE DUP3 PUSH1 0x40 DUP3 ADD MSTORE DUP3 PUSH1 0x60 DUP3 ADD MSTORE DUP3 PUSH1 0x80 DUP3 ADD MSTORE DUP3 PUSH1 0xA0 DUP3 ADD MSTORE DUP3 PUSH1 0xC0 DUP3 ADD MSTORE DUP3 PUSH1 0xE0 DUP3 ADD MSTORE DUP3 PUSH2 0x100 DUP3 ADD MSTORE DUP3 PUSH2 0x120 DUP3 ADD MSTORE DUP3 PUSH2 0x140 DUP3 ADD MSTORE DUP3 PUSH2 0x160 DUP3 ADD MSTORE DUP3 PUSH2 0x180 DUP3 ADD MSTORE DUP3 PUSH2 0x1A0 DUP3 ADD MSTORE DUP3 PUSH2 0x1C0 DUP3 ADD MSTORE DUP3 PUSH2 0x1E0 DUP3 ADD MSTORE DUP3 PUSH2 0x200 DUP3 ADD MSTORE ADD MSTORE DUP1 PUSH1 0x0 MSTORE PUSH1 0x7 PUSH1 0x20 MSTORE PUSH1 0xFF PUSH1 0x40 PUSH1 0x0 KECCAK256 SLOAD AND ISZERO PUSH2 0x290 JUMPI PUSH1 0x0 MSTORE PUSH1 0x6 PUSH1 0x20 MSTORE PUSH1 0x40 PUSH1 0x0 KECCAK256 PUSH1 0x40 MLOAD SWAP1 PUSH2 0x100F DUP3 PUSH2 0x14B1 JUMP JUMPDEST DUP1 SLOAD DUP3 MSTORE PUSH2 0x101F PUSH1 0x1 DUP3 ADD PUSH2 0x14F0 JUMP JUMPDEST PUSH1 0x20 DUP4 ADD MSTORE PUSH1 0x2 DUP2 ADD SLOAD PUSH1 0x40 DUP4 ADD MSTORE PUSH1 0x3 DUP2 ADD SLOAD PUSH1 0x1 PUSH1 0x1 PUSH1 0xA0 SHL SUB DUP2 AND PUSH1 0x60 DUP5 ADD MSTORE PUSH2 0x1055 SWAP1 PUSH1 0xA0 SHR PUSH1 0xFF AND PUSH1 0x80 DUP5 ADD PUSH2 0x1595 JUMP JUMPDEST PUSH1 0x4 DUP2 ADD SLOAD PUSH1 0xA0 DUP4 ADD MSTORE PUSH1 0x5 DUP1 DUP3 ADD SLOAD PUSH1 0xC0 DUP5 ADD MSTORE PUSH1 0x6 DUP3 ADD SLOAD PUSH1 0xE0 DUP5 ADD MSTORE PUSH1 0x7 DUP3 ADD SLOAD PUSH1 0x1 PUSH1 0x1 PUSH1 0xA0 SHL SUB AND PUSH2 0x100 DUP5 ADD MSTORE PUSH1 0x8 DUP3 ADD SLOAD PUSH2 0x120 DUP5 ADD MSTORE PUSH1 0x9 DUP3 ADD SLOAD PUSH2 0x140 DUP5 ADD MSTORE PUSH1 0xA DUP3 ADD SLOAD PUSH2 0x160 DUP5 ADD MSTORE PUSH1 0xB DUP3 ADD SLOAD PUSH2 0x180 DUP5 ADD MSTORE PUSH1 0xC DUP3 ADD SLOAD SWAP2 SWAP1 PUSH1 0xFF DUP4 AND LT ISZERO PUSH2 0x27A JUMPI DUP2 PUSH1 0xFF PUSH1 0xF SWAP4 AND PUSH2 0x1A0 DUP6 ADD MSTORE PUSH1 0x1 DUP1 PUSH1 0xA0 SHL SUB SWAP1 PUSH1 0x8 SHR AND PUSH2 0x1C0 DUP5 ADD MSTORE PUSH1 0xD DUP2 ADD SLOAD PUSH2 0x1E0 DUP5 ADD MSTORE PUSH1 0xE DUP2 ADD SLOAD PUSH2 0x200 DUP5 ADD MSTORE ADD SLOAD PUSH2 0x220 DUP3 ADD MSTORE PUSH1 0x40 MLOAD DUP1 SWAP2 PUSH1 0x20 DUP3 MSTORE DUP1 MLOAD PUSH1 0x20 DUP4 ADD MSTORE PUSH2 0x220 PUSH2 0x1130 PUSH1 0x20 DUP4 ADD MLOAD PUSH2 0x240 PUSH1 0x40 DUP7 ADD MSTORE PUSH2 0x260 DUP6 ADD SWAP1 PUSH2 0x141D JUMP JUMPDEST SWAP2 PUSH1 0x40 DUP2 ADD MLOAD PUSH1 0x60 DUP6 ADD MSTORE PUSH1 0x1 DUP1 PUSH1 0xA0 SHL SUB PUSH1 0x60 DUP3 ADD MLOAD AND PUSH1 0x80 DUP6 ADD MSTORE PUSH2 0x115F PUSH1 0x80 DUP3 ADD MLOAD PUSH1 0xA0 DUP7 ADD SWAP1 PUSH2 0x145D JUMP JUMPDEST PUSH1 0xA0 DUP2 ADD MLOAD PUSH1 0xC0 DUP6 ADD MSTORE PUSH1 0xC0 DUP2 ADD MLOAD PUSH1 0xE0 DUP6 ADD MSTORE PUSH1 0xE0 DUP2 ADD MLOAD PUSH2 0x100 DUP6 ADD MSTORE PUSH1 0x1 DUP1 PUSH1 0xA0 SHL SUB PUSH2 0x100 DUP3 ADD MLOAD AND PUSH2 0x120 DUP6 ADD MSTORE PUSH2 0x120 DUP2 ADD MLOAD PUSH2 0x140 DUP6 ADD MSTORE PUSH2 0x140 DUP2 ADD MLOAD PUSH2 0x160 DUP6 ADD MSTORE PUSH2 0x160 DUP2 ADD MLOAD PUSH2 0x180 DUP6 ADD MSTORE PUSH2 0x180 DUP2 ADD MLOAD PUSH2 0x1A0 DUP6 ADD MSTORE PUSH2 0x11D6 PUSH2 0x1A0 DUP3 ADD MLOAD PUSH2 0x1C0 DUP7 ADD SWAP1 PUSH2 0x146A JUMP JUMPDEST PUSH1 0x1 DUP1 PUSH1 0xA0 SHL SUB PUSH2 0x1C0 DUP3 ADD MLOAD AND PUSH2 0x1E0 DUP6 ADD MSTORE PUSH2 0x1E0 DUP2 ADD MLOAD PUSH2 0x200 DUP6 ADD MSTORE PUSH2 0x200 DUP2 ADD MLOAD DUP3 DUP6 ADD MSTORE ADD MLOAD PUSH2 0x240 DUP4 ADD MSTORE SUB SWAP1 RETURN JUMPDEST CALLVALUE PUSH2 0x188 JUMPI PUSH1 0x20 CALLDATASIZE PUSH1 0x3 NOT ADD SLT PUSH2 0x188 JUMPI PUSH1 0x4 CALLDATALOAD PUSH1 0x0 MSTORE PUSH1 0x7 PUSH1 0x20 MSTORE PUSH1 0x20 PUSH1 0xFF PUSH1 0x40 PUSH1 0x0 KECCAK256 SLOAD AND PUSH1 0x40 MLOAD SWAP1 ISZERO ISZERO DUP2 MSTORE RETURN JUMPDEST CALLVALUE PUSH2 0x188 JUMPI PUSH1 0x40 CALLDATASIZE PUSH1 0x3 NOT ADD SLT PUSH2 0x188 JUMPI PUSH2 0x1256 PUSH2 0x1407 JUMP JUMPDEST CALLER PUSH1 0x1 PUSH1 0x1 PUSH1 0xA0 SHL SUB DUP3 AND SUB PUSH2 0x1272 JUMPI PUSH2 0x3C9 SWAP1 PUSH1 0x4 CALLDATALOAD PUSH2 0x1AE5 JUMP JUMPDEST PUSH1 0x40 MLOAD PUSH4 0x334BD919 PUSH1 0xE1 SHL DUP2 MSTORE PUSH1 0x4 SWAP1 REVERT JUMPDEST CALLVALUE PUSH2 0x188 JUMPI PUSH1 0x40 CALLDATASIZE PUSH1 0x3 NOT ADD SLT PUSH2 0x188 JUMPI PUSH2 0x3C9 PUSH1 0x4 CALLDATALOAD PUSH2 0x12A3 PUSH2 0x1407 JUMP JUMPDEST SWAP1 DUP1 PUSH1 0x0 MSTORE PUSH1 0x0 PUSH1 0x20 MSTORE PUSH2 0x12BE PUSH1 0x1 PUSH1 0x40 PUSH1 0x0 KECCAK256 ADD SLOAD PUSH2 0x1A41 JUMP JUMPDEST PUSH2 0x1A67 JUMP JUMPDEST CALLVALUE PUSH2 0x188 JUMPI PUSH1 0x20 CALLDATASIZE PUSH1 0x3 NOT ADD SLT PUSH2 0x188 JUMPI PUSH2 0x12DC PUSH2 0x13F1 JUMP JUMPDEST PUSH2 0x12E4 PUSH2 0x196B JUMP JUMPDEST PUSH1 0x1 PUSH1 0x1 PUSH1 0xA0 SHL SUB AND DUP1 ISZERO PUSH2 0x459 JUMPI PUSH1 0x1 PUSH1 0x1 PUSH1 0x60 SHL SUB PUSH1 0xA0 SHL PUSH1 0x2 SLOAD AND OR PUSH1 0x2 SSTORE PUSH1 0x0 DUP1 RETURN JUMPDEST CALLVALUE PUSH2 0x188 JUMPI PUSH1 0x20 CALLDATASIZE PUSH1 0x3 NOT ADD SLT PUSH2 0x188 JUMPI PUSH1 0x4 CALLDATALOAD PUSH1 0x0 MSTORE PUSH1 0x0 PUSH1 0x20 MSTORE PUSH1 0x20 PUSH1 0x1 PUSH1 0x40 PUSH1 0x0 KECCAK256 ADD SLOAD PUSH1 0x40 MLOAD SWAP1 DUP2 MSTORE RETURN JUMPDEST CALLVALUE PUSH2 0x188 JUMPI PUSH1 0x0 CALLDATASIZE PUSH1 0x3 NOT ADD SLT PUSH2 0x188 JUMPI PUSH1 0x2 SLOAD PUSH1 0x40 MLOAD PUSH1 0x1 PUSH1 0x1 PUSH1 0xA0 SHL SUB SWAP1 SWAP2 AND DUP2 MSTORE PUSH1 0x20 SWAP1 RETURN JUMPDEST CALLVALUE PUSH2 0x188 JUMPI PUSH1 0x0 CALLDATASIZE PUSH1 0x3 NOT ADD SLT PUSH2 0x188 JUMPI PUSH1 0x20 PUSH1 0x40 MLOAD PUSH32 0x68E79A7BF1E0BC45D0A330C573BC367F9CF464FD326078812F301165FBDA4EF1 DUP2 MSTORE RETURN JUMPDEST CALLVALUE PUSH2 0x188 JUMPI PUSH1 0x20 CALLDATASIZE PUSH1 0x3 NOT ADD SLT PUSH2 0x188 JUMPI PUSH1 0x4 CALLDATALOAD SWAP1 PUSH4 0xFFFFFFFF PUSH1 0xE0 SHL DUP3 AND DUP1 SWAP3 SUB PUSH2 0x188 JUMPI PUSH1 0x20 SWAP2 PUSH4 0x7965DB0B PUSH1 0xE0 SHL DUP2 EQ SWAP1 DUP2 ISZERO PUSH2 0x13E0 JUMPI JUMPDEST POP ISZERO ISZERO DUP2 MSTORE RETURN JUMPDEST PUSH4 0x1FFC9A7 PUSH1 0xE0 SHL EQ SWAP1 POP DUP4 PUSH2 0x13D9 JUMP JUMPDEST PUSH1 0x4 CALLDATALOAD SWAP1 PUSH1 0x1 PUSH1 0x1 PUSH1 0xA0 SHL SUB DUP3 AND DUP3 SUB PUSH2 0x188 JUMPI JUMP JUMPDEST PUSH1 0x24 CALLDATALOAD SWAP1 PUSH1 0x1 PUSH1 0x1 PUSH1 0xA0 SHL SUB DUP3 AND DUP3 SUB PUSH2 0x188 JUMPI JUMP JUMPDEST SWAP2 SWAP1 DUP3 MLOAD SWAP3 DUP4 DUP3 MSTORE PUSH1 0x0 JUMPDEST DUP5 DUP2 LT PUSH2 0x1449 JUMPI POP POP DUP3 PUSH1 0x0 PUSH1 0x20 DUP1 SWAP5 SWAP6 DUP5 ADD ADD MSTORE PUSH1 0x1F DUP1 NOT SWAP2 ADD AND ADD ADD SWAP1 JUMP JUMPDEST PUSH1 0x20 DUP2 DUP4 ADD DUP2 ADD MLOAD DUP5 DUP4 ADD DUP3 ADD MSTORE ADD PUSH2 0x1428 JUMP JUMPDEST SWAP1 PUSH1 0x2 DUP3 LT ISZERO PUSH2 0x27A JUMPI MSTORE JUMP JUMPDEST SWAP1 PUSH1 0x5 DUP3 LT ISZERO PUSH2 0x27A JUMPI MSTORE JUMP JUMPDEST SWAP1 PUSH1 0x1 DUP3 DUP2 SHR SWAP3 AND DUP1 ISZERO PUSH2 0x14A7 JUMPI JUMPDEST PUSH1 0x20 DUP4 LT EQ PUSH2 0x1491 JUMPI JUMP JUMPDEST PUSH4 0x4E487B71 PUSH1 0xE0 SHL PUSH1 0x0 MSTORE PUSH1 0x22 PUSH1 0x4 MSTORE PUSH1 0x24 PUSH1 0x0 REVERT JUMPDEST SWAP2 PUSH1 0x7F AND SWAP2 PUSH2 0x1486 JUMP JUMPDEST PUSH2 0x240 DUP2 ADD SWAP1 DUP2 LT PUSH8 0xFFFFFFFFFFFFFFFF DUP3 GT OR PUSH2 0xCAA JUMPI PUSH1 0x40 MSTORE JUMP JUMPDEST SWAP1 PUSH1 0x1F DUP1 NOT SWAP2 ADD AND DUP2 ADD SWAP1 DUP2 LT PUSH8 0xFFFFFFFFFFFFFFFF DUP3 GT OR PUSH2 0xCAA JUMPI PUSH1 0x40 MSTORE JUMP JUMPDEST SWAP1 PUSH1 0x40 MLOAD SWAP2 DUP3 PUSH1 0x0 DUP3 SLOAD PUSH2 0x1503 DUP2 PUSH2 0x1477 JUMP JUMPDEST SWAP1 DUP2 DUP5 MSTORE PUSH1 0x20 SWAP5 PUSH1 0x1 SWAP2 PUSH1 0x1 DUP2 AND SWAP1 DUP2 PUSH1 0x0 EQ PUSH2 0x1573 JUMPI POP PUSH1 0x1 EQ PUSH2 0x1534 JUMPI JUMPDEST POP POP POP PUSH2 0x1532 SWAP3 POP SUB DUP4 PUSH2 0x14CE JUMP JUMPDEST JUMP JUMPDEST PUSH1 0x0 SWAP1 DUP2 MSTORE DUP6 DUP2 KECCAK256 SWAP6 SWAP4 POP SWAP2 SWAP1 JUMPDEST DUP2 DUP4 LT PUSH2 0x155B JUMPI POP POP PUSH2 0x1532 SWAP4 POP DUP3 ADD ADD CODESIZE DUP1 DUP1 PUSH2 0x1523 JUMP JUMPDEST DUP6 SLOAD DUP9 DUP5 ADD DUP6 ADD MSTORE SWAP5 DUP6 ADD SWAP5 DUP8 SWAP5 POP SWAP2 DUP4 ADD SWAP2 PUSH2 0x1542 JUMP JUMPDEST SWAP3 POP POP POP PUSH2 0x1532 SWAP5 SWAP3 POP PUSH1 0xFF NOT AND DUP3 DUP5 ADD MSTORE ISZERO ISZERO PUSH1 0x5 SHL DUP3 ADD ADD CODESIZE DUP1 DUP1 PUSH2 0x1523 JUMP JUMPDEST PUSH1 0x2 DUP3 LT ISZERO PUSH2 0x27A JUMPI MSTORE JUMP JUMPDEST SWAP1 DUP2 PUSH1 0x20 SWAP2 SUB SLT PUSH2 0x188 JUMPI MLOAD DUP1 ISZERO ISZERO DUP2 SUB PUSH2 0x188 JUMPI SWAP1 JUMP JUMPDEST PUSH8 0xFFFFFFFFFFFFFFFF DUP2 GT PUSH2 0xCAA JUMPI PUSH1 0x1F ADD PUSH1 0x1F NOT AND PUSH1 0x20 ADD SWAP1 JUMP JUMPDEST RETURNDATASIZE ISZERO PUSH2 0x1600 JUMPI RETURNDATASIZE SWAP1 PUSH2 0x15E6 DUP3 PUSH2 0x15B9 JUMP JUMPDEST SWAP2 PUSH2 0x15F4 PUSH1 0x40 MLOAD SWAP4 DUP5 PUSH2 0x14CE JUMP JUMPDEST DUP3 MSTORE RETURNDATASIZE PUSH1 0x0 PUSH1 0x20 DUP5 ADD RETURNDATACOPY JUMP JUMPDEST PUSH1 0x60 SWAP1 JUMP JUMPDEST PUSH1 0x0 DUP2 DUP2 MSTORE PUSH1 0x7 PUSH1 0x20 MSTORE PUSH1 0x40 PUSH1 0xFF DUP2 DUP4 KECCAK256 SLOAD AND ISZERO PUSH2 0x195B JUMPI DUP3 DUP3 MSTORE PUSH1 0x6 PUSH1 0x20 MSTORE DUP1 DUP3 KECCAK256 SWAP4 PUSH1 0xC DUP6 ADD SWAP2 DUP3 SLOAD PUSH1 0xFF DUP2 AND PUSH1 0x5 DUP2 LT ISZERO PUSH2 0x1947 JUMPI PUSH1 0x1 SUB PUSH2 0x1936 JUMPI PUSH1 0xB DUP8 ADD SLOAD TIMESTAMP LT PUSH2 0x1925 JUMPI PUSH1 0x2 SWAP1 DUP4 PUSH1 0x9 DUP10 ADD SSTORE PUSH1 0xFF NOT AND OR DUP4 SSTORE PUSH1 0x4 SWAP1 DUP2 DUP8 ADD SLOAD SWAP2 DUP3 PUSH1 0x1 SHL SWAP8 DUP4 DUP10 DIV PUSH1 0x2 EQ DUP5 ISZERO OR ISZERO PUSH2 0x1912 JUMPI DUP2 SLOAD DUP1 DUP11 MUL SWAP1 DUP11 DUP3 DIV EQ DUP11 ISZERO OR ISZERO PUSH2 0x18FF JUMPI PUSH1 0x64 SWAP1 DIV SWAP4 DUP5 DUP11 SUB SWAP10 DUP11 GT PUSH2 0x18FF JUMPI PUSH1 0x8 DUP3 ADD SLOAD DUP1 DUP8 GT ISZERO PUSH2 0x17FD JUMPI POP POP PUSH1 0x3 DUP2 ADD SLOAD PUSH1 0xFF DUP2 PUSH1 0xA0 SHR AND PUSH1 0x2 DUP2 LT ISZERO PUSH2 0x17EA JUMPI SWAP2 PUSH1 0xE SWAP2 DUP7 SWAP4 ISZERO PUSH1 0x0 EQ PUSH2 0x17D2 JUMPI PUSH2 0x16FD SWAP1 PUSH1 0x1 PUSH1 0x1 PUSH1 0xA0 SHL SUB AND JUMPDEST DUP10 SLOAD PUSH2 0x100 PUSH1 0x1 PUSH1 0xA8 SHL SUB NOT AND PUSH1 0x8 DUP3 SWAP1 SHL PUSH2 0x100 PUSH1 0x1 PUSH1 0xA8 SHL SUB AND OR SWAP1 SWAP10 SSTORE JUMP JUMPDEST DUP11 PUSH1 0xD DUP3 ADD SSTORE ADD SSTORE DUP6 DUP1 DUP1 DUP1 DUP12 DUP10 GAS CALL PUSH2 0x1715 PUSH2 0x15D5 JUMP JUMPDEST POP ISZERO PUSH2 0x17C4 JUMPI PUSH1 0x1 DUP1 PUSH1 0xA0 SHL SUB SWAP6 DUP1 DUP1 DUP1 DUP7 DUP11 PUSH1 0x3 SLOAD AND GAS CALL PUSH2 0x1736 PUSH2 0x15D5 JUMP JUMPDEST POP ISZERO PUSH2 0x17C4 JUMPI POP SWAP2 PUSH2 0x17BF SWAP2 DUP6 SWAP5 SWAP4 PUSH32 0xDE4BE392324F18A1163E18E128B198F772C7FA56776EC3BEA1B595EE8DD53576 SWAP7 PUSH1 0x3 SLOAD AND DUP9 PUSH32 0x9524B07171ACDE42F427CB76AAD7ECB487B5510CF81D6C4A73FF2AD6CD47C30 DUP4 DUP1 MLOAD DUP7 DUP2 MSTORE TIMESTAMP PUSH1 0x20 DUP3 ADD MSTORE LOG3 MLOAD SWAP5 DUP6 SWAP5 AND SWAP8 TIMESTAMP SWAP3 DUP6 SWAP1 SWAP5 SWAP4 SWAP3 PUSH1 0x60 SWAP3 PUSH1 0x80 DUP4 ADD SWAP7 DUP4 MSTORE PUSH1 0x20 DUP4 ADD MSTORE PUSH1 0x40 DUP3 ADD MSTORE ADD MSTORE JUMP JUMPDEST SUB SWAP1 LOG3 JUMP JUMPDEST SWAP1 MLOAD PUSH4 0x12171D83 PUSH1 0xE3 SHL DUP2 MSTORE REVERT JUMPDEST POP PUSH1 0x7 DUP2 ADD SLOAD PUSH2 0x16FD SWAP1 PUSH1 0x1 PUSH1 0x1 PUSH1 0xA0 SHL SUB AND PUSH2 0x16DB JUMP JUMPDEST PUSH4 0x4E487B71 PUSH1 0xE0 SHL DUP10 MSTORE PUSH1 0x21 DUP5 MSTORE PUSH1 0x24 DUP10 REVERT JUMPDEST DUP7 LT ISZERO PUSH2 0x1859 JUMPI POP PUSH1 0x3 DUP2 ADD SLOAD PUSH1 0xFF DUP2 PUSH1 0xA0 SHR AND PUSH1 0x2 DUP2 LT ISZERO PUSH2 0x17EA JUMPI SWAP2 PUSH1 0xE SWAP2 PUSH1 0x1 DUP8 SWAP5 EQ PUSH1 0x0 EQ PUSH2 0x17D2 JUMPI PUSH2 0x16FD SWAP1 PUSH1 0x1 PUSH1 0x1 PUSH1 0xA0 SHL SUB AND DUP10 SLOAD PUSH2 0x100 PUSH1 0x1 PUSH1 0xA8 SHL SUB NOT AND PUSH1 0x8 DUP3 SWAP1 SHL PUSH2 0x100 PUSH1 0x1 PUSH1 0xA8 SHL SUB AND OR SWAP1 SWAP10 SSTORE JUMP JUMPDEST SWAP4 POP DUP7 DUP1 SWAP10 POP DUP1 SWAP4 SWAP7 POP DUP2 DUP6 PUSH1 0xD DUP4 SWAP6 SWAP9 SWAP11 SWAP5 ADD SSTORE DUP2 PUSH1 0xE DUP3 ADD SSTORE DUP7 DUP3 DUP1 DUP1 DUP1 PUSH1 0x1 DUP1 PUSH1 0xA0 SHL SUB SWAP11 DUP12 PUSH1 0x3 DUP9 ADD SLOAD AND GAS CALL SWAP7 PUSH2 0x1893 PUSH2 0x15D5 JUMP JUMPDEST POP PUSH1 0x7 DUP4 ADD SLOAD AND SWAP2 ADD SLOAD SWAP1 GAS CALL SWAP1 PUSH2 0x18A9 PUSH2 0x15D5 JUMP JUMPDEST POP ISZERO SWAP1 DUP2 ISZERO PUSH2 0x18F6 JUMPI JUMPDEST POP PUSH2 0x17C4 JUMPI POP PUSH32 0xDE4BE392324F18A1163E18E128B198F772C7FA56776EC3BEA1B595EE8DD53576 SWAP2 DUP5 DUP3 PUSH1 0x80 SWAP4 MLOAD SWAP3 DUP4 MSTORE DUP2 PUSH1 0x20 DUP5 ADD MSTORE DUP3 ADD MSTORE TIMESTAMP PUSH1 0x60 DUP3 ADD MSTORE LOG3 JUMP JUMPDEST SWAP1 POP ISZERO CODESIZE PUSH2 0x18B3 JUMP JUMPDEST PUSH4 0x4E487B71 PUSH1 0xE0 SHL DUP9 MSTORE PUSH1 0x11 DUP4 MSTORE PUSH1 0x24 DUP9 REVERT JUMPDEST PUSH4 0x4E487B71 PUSH1 0xE0 SHL DUP8 MSTORE PUSH1 0x11 DUP3 MSTORE PUSH1 0x24 DUP8 REVERT JUMPDEST DUP2 MLOAD PUSH4 0x7F51B275 PUSH1 0xE0 SHL DUP2 MSTORE PUSH1 0x4 SWAP1 REVERT JUMPDEST DUP2 MLOAD PUSH4 0xE4D2C12D PUSH1 0xE0 SHL DUP2 MSTORE PUSH1 0x4 SWAP1 REVERT JUMPDEST PUSH4 0x4E487B71 PUSH1 0xE0 SHL DUP7 MSTORE PUSH1 0x21 PUSH1 0x4 MSTORE PUSH1 0x24 DUP7 REVERT JUMPDEST MLOAD PUSH4 0xD457F04B PUSH1 0xE0 SHL DUP2 MSTORE PUSH1 0x4 SWAP1 REVERT JUMPDEST CALLER PUSH1 0x0 SWAP1 DUP2 MSTORE PUSH32 0x7D7FFB7A348E1C6A02869081A26547B49160DD3DF72D1D75A570EB9B698292EC PUSH1 0x20 MSTORE PUSH1 0x40 SWAP1 KECCAK256 SLOAD PUSH32 0xA49807205CE4D355092EF5A8A18F56E8913CF4A201FBE287825B095693C21775 SWAP1 PUSH1 0xFF AND ISZERO PUSH2 0x19C7 JUMPI POP JUMP JUMPDEST PUSH1 0x44 SWAP1 PUSH1 0x40 MLOAD SWAP1 PUSH4 0xE2517D3F PUSH1 0xE0 SHL DUP3 MSTORE CALLER PUSH1 0x4 DUP4 ADD MSTORE PUSH1 0x24 DUP3 ADD MSTORE REVERT JUMPDEST CALLER PUSH1 0x0 SWAP1 DUP2 MSTORE PUSH32 0xA629F6981C2F6895A67DC766E8E03FF72D04A413D0D8773A3CA56E9E474032C1 PUSH1 0x20 MSTORE PUSH1 0x40 SWAP1 KECCAK256 SLOAD PUSH32 0x68E79A7BF1E0BC45D0A330C573BC367F9CF464FD326078812F301165FBDA4EF1 SWAP1 PUSH1 0xFF AND ISZERO PUSH2 0x19C7 JUMPI POP JUMP JUMPDEST DUP1 PUSH1 0x0 MSTORE PUSH1 0x0 PUSH1 0x20 MSTORE PUSH1 0x40 PUSH1 0x0 KECCAK256 CALLER PUSH1 0x0 MSTORE PUSH1 0x20 MSTORE PUSH1 0xFF PUSH1 0x40 PUSH1 0x0 KECCAK256 SLOAD AND ISZERO PUSH2 0x19C7 JUMPI POP JUMP JUMPDEST SWAP1 PUSH1 0x0 SWAP2 DUP1 DUP4 MSTORE DUP3 PUSH1 0x20 MSTORE PUSH1 0x40 DUP4 KECCAK256 SWAP2 PUSH1 0x1 DUP1 PUSH1 0xA0 SHL SUB AND SWAP2 DUP3 DUP5 MSTORE PUSH1 0x20 MSTORE PUSH1 0xFF PUSH1 0x40 DUP5 KECCAK256 SLOAD AND ISZERO PUSH1 0x0 EQ PUSH2 0x1AE0 JUMPI DUP1 DUP4 MSTORE DUP3 PUSH1 0x20 MSTORE PUSH1 0x40 DUP4 KECCAK256 DUP3 DUP5 MSTORE PUSH1 0x20 MSTORE PUSH1 0x40 DUP4 KECCAK256 PUSH1 0x1 PUSH1 0xFF NOT DUP3 SLOAD AND OR SWAP1 SSTORE PUSH32 0x2F8788117E7EFF1D82E926EC794901D17C78024A50270940304540A733656F0D CALLER SWAP4 DUP1 LOG4 PUSH1 0x1 SWAP1 JUMP JUMPDEST POP POP SWAP1 JUMP JUMPDEST SWAP1 PUSH1 0x0 SWAP2 DUP1 DUP4 MSTORE DUP3 PUSH1 0x20 MSTORE PUSH1 0x40 DUP4 KECCAK256 SWAP2 PUSH1 0x1 DUP1 PUSH1 0xA0 SHL SUB AND SWAP2 DUP3 DUP5 MSTORE PUSH1 0x20 MSTORE PUSH1 0xFF PUSH1 0x40 DUP5 KECCAK256 SLOAD AND PUSH1 0x0 EQ PUSH2 0x1AE0 JUMPI DUP1 DUP4 MSTORE DUP3 PUSH1 0x20 MSTORE PUSH1 0x40 DUP4 KECCAK256 DUP3 DUP5 MSTORE PUSH1 0x20 MSTORE PUSH1 0x40 DUP4 KECCAK256 PUSH1 0xFF NOT DUP2 SLOAD AND SWAP1 SSTORE PUSH32 0xF6391F5C32D9C69D2A47EA670B442974B53935D1EDC7FD64EB21E047A839171B CALLER SWAP4 DUP1 LOG4 PUSH1 0x1 SWAP1 JUMP JUMPDEST PUSH1 0x2 PUSH1 0x1 SLOAD EQ PUSH2 0x1B6B JUMPI PUSH1 0x2 PUSH1 0x1 SSTORE JUMP JUMPDEST PUSH1 0x40 MLOAD PUSH4 0x3EE5AEB5 PUSH1 0xE0 SHL DUP2 MSTORE PUSH1 0x4 SWAP1 REVERT INVALID LOG2 PUSH5 0x6970667358 0x22 SLT KECCAK256 0x2D EXTCODEHASH PUSH19 0x8D637995CB75B41DF8213E686CB8F8BBFB76E6 0xE5 GAS DUP2 0xA9 0xC3 GAS PUSH1 0xA5 PUSH14 0x3364736F6C634300081800332F87 DUP9 GT PUSH31 0x7EFF1D82E926EC794901D17C78024A50270940304540A733656F0D00000000 "},"methodIdentifiers":{"ADMIN_ROLE()":"75b238fc","DEFAULT_ADMIN_ROLE()":"a217fddf","MAX_DURATION()":"b1724b46","MAX_STAKE()":"c98517c5","MIN_DURATION()":"b6a6d177","MIN_STAKE()":"cb1c2b5c","ORACLE_ROLE()":"07e2cea5","agentRegistry()":"0d1cfcae","cancelDuel(uint256)":"d9c312f4","createDuel(uint256,string,uint8,uint256)":"89423d47","duelExists(uint256)":"4dd9faa1","duels(uint256)":"859a62d0","expireDuel(uint256)":"eb3323f1","feePercentage()":"a001ecdd","feeTreasury()":"60dc2340","getDuel(uint256)":"565e614f","getRoleAdmin(bytes32)":"248a9ca3","grantRole(bytes32,address)":"2f2ff15d","hasRole(bytes32,address)":"91d14854","joinDuel(uint256,uint256,uint256)":"904b5fa9","renounceRole(bytes32,address)":"36568abe","revokeRole(bytes32,address)":"d547741f","setAgentRegistry(address)":"28342ecf","setFeePercentage(uint256)":"ae06c1b7","setFeeTreasury(address)":"bfa37e37","settleDuel(uint256,uint256)":"f3af7b4d","supportsInterface(bytes4)":"01ffc9a7","totalDuels()":"57d628d7"}}}}}