{"contracts/HoneycombReputation.sol":{"HoneycombReputation":{"abi":[{"inputs":[],"stateMutability":"nonpayable","type":"constructor"},{"inputs":[],"name":"AccessControlBadConfirmation","type":"error"},{"inputs":[{"internalType":"address","name":"account","type":"address"},{"internalType":"bytes32","name":"neededRole","type":"bytes32"}],"name":"AccessControlUnauthorizedAccount","type":"error"},{"inputs":[],"name":"ArrayLengthMismatch","type":"error"},{"inputs":[],"name":"BatchTooLarge","type":"error"},{"inputs":[],"name":"EmptyBatch","type":"error"},{"anonymous":false,"inputs":[{"indexed":false,"internalType":"uint256","name":"agentsUpdated","type":"uint256"},{"indexed":false,"internalType":"uint256","name":"timestamp","type":"uint256"}],"name":"BatchCheckpointSubmitted","type":"event"},{"anonymous":false,"inputs":[{"indexed":true,"internalType":"uint256","name":"agentId","type":"uint256"},{"indexed":false,"internalType":"uint256","name":"reputation","type":"uint256"},{"indexed":false,"internalType":"uint256","name":"timestamp","type":"uint256"}],"name":"ReputationCheckpoint","type":"event"},{"anonymous":false,"inputs":[{"indexed":true,"internalType":"bytes32","name":"role","type":"bytes32"},{"indexed":true,"internalType":"bytes32","name":"previousAdminRole","type":"bytes32"},{"indexed":true,"internalType":"bytes32","name":"newAdminRole","type":"bytes32"}],"name":"RoleAdminChanged","type":"event"},{"anonymous":false,"inputs":[{"indexed":true,"internalType":"bytes32","name":"role","type":"bytes32"},{"indexed":true,"internalType":"address","name":"account","type":"address"},{"indexed":true,"internalType":"address","name":"sender","type":"address"}],"name":"RoleGranted","type":"event"},{"anonymous":false,"inputs":[{"indexed":true,"internalType":"bytes32","name":"role","type":"bytes32"},{"indexed":true,"internalType":"address","name":"account","type":"address"},{"indexed":true,"internalType":"address","name":"sender","type":"address"}],"name":"RoleRevoked","type":"event"},{"inputs":[],"name":"ADMIN_ROLE","outputs":[{"internalType":"bytes32","name":"","type":"bytes32"}],"stateMutability":"view","type":"function"},{"inputs":[],"name":"DEFAULT_ADMIN_ROLE","outputs":[{"internalType":"bytes32","name":"","type":"bytes32"}],"stateMutability":"view","type":"function"},{"inputs":[],"name":"MAX_BATCH_SIZE","outputs":[{"internalType":"uint256","name":"","type":"uint256"}],"stateMutability":"view","type":"function"},{"inputs":[],"name":"REP_ORACLE_ROLE","outputs":[{"internalType":"bytes32","name":"","type":"bytes32"}],"stateMutability":"view","type":"function"},{"inputs":[{"internalType":"bytes32","name":"role","type":"bytes32"}],"name":"getRoleAdmin","outputs":[{"internalType":"bytes32","name":"","type":"bytes32"}],"stateMutability":"view","type":"function"},{"inputs":[{"internalType":"address","name":"oracle","type":"address"}],"name":"grantOracleRole","outputs":[],"stateMutability":"nonpayable","type":"function"},{"inputs":[{"internalType":"bytes32","name":"role","type":"bytes32"},{"internalType":"address","name":"account","type":"address"}],"name":"grantRole","outputs":[],"stateMutability":"nonpayable","type":"function"},{"inputs":[{"internalType":"bytes32","name":"role","type":"bytes32"},{"internalType":"address","name":"account","type":"address"}],"name":"hasRole","outputs":[{"internalType":"bool","name":"","type":"bool"}],"stateMutability":"view","type":"function"},{"inputs":[],"name":"lastCheckpointAt","outputs":[{"internalType":"uint256","name":"","type":"uint256"}],"stateMutability":"view","type":"function"},{"inputs":[{"internalType":"uint256","name":"agentId","type":"uint256"}],"name":"lastUpdated","outputs":[{"internalType":"uint256","name":"","type":"uint256"}],"stateMutability":"view","type":"function"},{"inputs":[{"internalType":"uint256","name":"","type":"uint256"}],"name":"lastUpdatedAt","outputs":[{"internalType":"uint256","name":"","type":"uint256"}],"stateMutability":"view","type":"function"},{"inputs":[{"internalType":"uint256","name":"","type":"uint256"}],"name":"latestRep","outputs":[{"internalType":"uint256","name":"","type":"uint256"}],"stateMutability":"view","type":"function"},{"inputs":[{"internalType":"bytes32","name":"role","type":"bytes32"},{"internalType":"address","name":"callerConfirmation","type":"address"}],"name":"renounceRole","outputs":[],"stateMutability":"nonpayable","type":"function"},{"inputs":[{"internalType":"uint256","name":"agentId","type":"uint256"}],"name":"reputationOf","outputs":[{"internalType":"uint256","name":"","type":"uint256"}],"stateMutability":"view","type":"function"},{"inputs":[{"internalType":"uint256[]","name":"agentIds","type":"uint256[]"}],"name":"reputationsOf","outputs":[{"internalType":"uint256[]","name":"reps","type":"uint256[]"}],"stateMutability":"view","type":"function"},{"inputs":[{"internalType":"address","name":"oracle","type":"address"}],"name":"revokeOracleRole","outputs":[],"stateMutability":"nonpayable","type":"function"},{"inputs":[{"internalType":"bytes32","name":"role","type":"bytes32"},{"internalType":"address","name":"account","type":"address"}],"name":"revokeRole","outputs":[],"stateMutability":"nonpayable","type":"function"},{"inputs":[{"internalType":"uint256[]","name":"agentIds","type":"uint256[]"},{"internalType":"uint256[]","name":"reps","type":"uint256[]"}],"name":"submitCheckpoint","outputs":[],"stateMutability":"nonpayable","type":"function"},{"inputs":[{"internalType":"bytes4","name":"interfaceId","type":"bytes4"}],"name":"supportsInterface","outputs":[{"internalType":"bool","name":"","type":"bool"}],"stateMutability":"view","type":"function"},{"inputs":[],"name":"totalCheckpoints","outputs":[{"internalType":"uint256","name":"","type":"uint256"}],"stateMutability":"view","type":"function"}],"evm":{"bytecode":{"linkReferences":{},"object":"608060405234610036576100123361003b565b5061001c336100b9565b5061002633610159565b50604051610a9390816101f58239f35b600080fd5b6001600160a01b031660008181527fad3228b676f7d3cd4284a5443f17f1962b36e491b30a40b2405849e597ba5fb5602052604081205490919060ff166100b557818052816020526040822081835260205260408220600160ff198254161790553391600080516020610c888339815191528180a4600190565b5090565b6001600160a01b031660008181527f7d7ffb7a348e1c6a02869081a26547b49160dd3df72d1d75a570eb9b698292ec60205260408120549091907fa49807205ce4d355092ef5a8a18f56e8913cf4a201fbe287825b095693c217759060ff1661015457808352826020526040832082845260205260408320600160ff19825416179055600080516020610c88833981519152339380a4600190565b505090565b6001600160a01b031660008181527f2a36a7537acac57cf73523994724d712533af61d374781949936e205d08ab9f660205260408120549091907fa6a5ca572e6a135da0438a35c2444fd102fd0590e32c36057131095fe8b989b79060ff1661015457808352826020526040832082845260205260408320600160ff19825416179055600080516020610c88833981519152339380a460019056fe6080604081815260048036101561001557600080fd5b600092833560e01c90816301ffc9a71461066c575080631667bcec1461064d578063248a9ca31461062457806324a29522146102b05780632f2ff15d146105fb57806336568abe146105b45780636022c1881461058b57806375b238fc1461055057806391d148541461050b578063983437a81461049f578063a217fddf146104f0578063a5cbe415146104c6578063adf94cca1461049f578063cd93f3ef146102f3578063cfdbf254146102d7578063d423bc1d146102b0578063d547741f14610276578063ddffac1214610150578063df9c49a31461011f5763f332687d146100ff57600080fd5b3461011b578260031936011261011b5760209250549051908152f35b8280fd5b833461014d57602036600319011261014d5761014961013c6106db565b610144610776565b610816565b5080f35b80fd5b503461011b576020806003193601126102725781359367ffffffffffffffff9283861161026e57610187601f9596369083016106f1565b61019081610748565b885188199890979101881687019081118782101761025b57889796949598528084526101bb81610748565b8489019601368737845b81811061020b575050505083519485948186019282875251809352850193925b8281106101f457505050500390f35b8351855286955093810193928101926001016101e5565b61021c8183859b9897999a9b610722565b3585526001865288852054875182101561024857600582901b88018701529497969593946001016101c5565b634e487b7160e01b865260328552602486fd5b634e487b7160e01b855260418452602485fd5b5080fd5b8380fd5b50903461011b578060031936011261011b5761014991356102ab600161029a6106c0565b9383875286602052862001546107f0565b6109c8565b503461011b57602036600319011261011b5760209282913581526002845220549051908152f35b50503461026e578160031936011261026e576020905160c88152f35b5091903461026e578060031936011261026e5767ffffffffffffffff83358181116102725761032590369086016106f1565b9160243590811161049b5761033d90369087016106f1565b9190600080516020610a3e83398151915292838752602093878552868820338952855260ff87892054161561047d5750841561046d5760c8851161045d5780850361044d57865b8581106103e8575050426003555050845460001981146103d5579460017f9f4c35768e3b0fa2575341074f44da0b96d5c4b16deba141123a28614a40978f959601905582519182524290820152a180f35b634e487b7160e01b855260118652602485fd5b806103f66001928887610722565b357f023b7a0422c37861e9e7fa964bf6c06634150dca3f98b2ab810032e69761d8cc89808c61042686898b610722565b35918186849352888d52205560028a528c82429120558151908152428a820152a201610384565b855163512509d360e11b81528890fd5b85516305beb17160e11b81528890fd5b855163c2e5347d60e01b81528890fd5b865163e2517d3f60e01b815233818b01526024810191909152604490fd5b8480fd5b503461011b57602036600319011261011b5760209282913581526001845220549051908152f35b833461014d57602036600319011261014d576101496104e36106db565b6104eb610776565b61092f565b50503461026e578160031936011261026e5751908152602090f35b503461011b578160031936011261011b578160209360ff9261052b6106c0565b903582528186528282206001600160a01b039091168252855220549151911615158152f35b50503461026e578160031936011261026e57602090517fa49807205ce4d355092ef5a8a18f56e8913cf4a201fbe287825b095693c217758152f35b50503461026e578160031936011261026e5760209051600080516020610a3e8339815191528152f35b5091903461026e578060031936011261026e576105cf6106c0565b90336001600160a01b038316036105ec57506101499192356109c8565b5163334bd91960e11b81528390fd5b50903461011b578060031936011261011b57610149913561061f600161029a6106c0565b6108b6565b503461011b57602036600319011261011b57816020936001923581528085522001549051908152f35b50503461026e578160031936011261026e576020906003549051908152f35b9250503461011b57602036600319011261011b573563ffffffff60e01b811680910361011b5760209250637965db0b60e01b81149081156106af575b5015158152f35b6301ffc9a760e01b149050386106a8565b602435906001600160a01b03821682036106d657565b600080fd5b600435906001600160a01b03821682036106d657565b9181601f840112156106d65782359167ffffffffffffffff83116106d6576020808501948460051b0101116106d657565b91908110156107325760051b0190565b634e487b7160e01b600052603260045260246000fd5b67ffffffffffffffff81116107605760051b60200190565b634e487b7160e01b600052604160045260246000fd5b3360009081527f7d7ffb7a348e1c6a02869081a26547b49160dd3df72d1d75a570eb9b698292ec60205260409020547fa49807205ce4d355092ef5a8a18f56e8913cf4a201fbe287825b095693c217759060ff16156107d25750565b6044906040519063e2517d3f60e01b82523360048301526024820152fd5b80600052600060205260406000203360005260205260ff60406000205416156107d25750565b6001600160a01b031660008181527f2a36a7537acac57cf73523994724d712533af61d374781949936e205d08ab9f66020526040812054909190600080516020610a3e8339815191529060ff166108b157808352826020526040832082845260205260408320600160ff198254161790557f2f8788117e7eff1d82e926ec794901d17c78024a50270940304540a733656f0d339380a4600190565b505090565b9060009180835282602052604083209160018060a01b03169182845260205260ff604084205416156000146108b157808352826020526040832082845260205260408320600160ff198254161790557f2f8788117e7eff1d82e926ec794901d17c78024a50270940304540a733656f0d339380a4600190565b6001600160a01b031660008181527f2a36a7537acac57cf73523994724d712533af61d374781949936e205d08ab9f66020526040812054909190600080516020610a3e8339815191529060ff16156108b15780835282602052604083208284526020526040832060ff1981541690557ff6391f5c32d9c69d2a47ea670b442974b53935d1edc7fd64eb21e047a839171b339380a4600190565b9060009180835282602052604083209160018060a01b03169182845260205260ff6040842054166000146108b15780835282602052604083208284526020526040832060ff1981541690557ff6391f5c32d9c69d2a47ea670b442974b53935d1edc7fd64eb21e047a839171b339380a460019056fea6a5ca572e6a135da0438a35c2444fd102fd0590e32c36057131095fe8b989b7a26469706673582212208ae948a9f2e8be4574415128f1d5ec06ef5c82f916924ba2b9731a177dc1eebd64736f6c634300081800332f8788117e7eff1d82e926ec794901d17c78024a50270940304540a733656f0d","opcodes":"PUSH1 0x80 PUSH1 0x40 MSTORE CALLVALUE PUSH2 0x36 JUMPI PUSH2 0x12 CALLER PUSH2 0x3B JUMP JUMPDEST POP PUSH2 0x1C CALLER PUSH2 0xB9 JUMP JUMPDEST POP PUSH2 0x26 CALLER PUSH2 0x159 JUMP JUMPDEST POP PUSH1 0x40 MLOAD PUSH2 0xA93 SWAP1 DUP2 PUSH2 0x1F5 DUP3 CODECOPY RETURN JUMPDEST PUSH1 0x0 DUP1 REVERT JUMPDEST PUSH1 0x1 PUSH1 0x1 PUSH1 0xA0 SHL SUB AND PUSH1 0x0 DUP2 DUP2 MSTORE PUSH32 0xAD3228B676F7D3CD4284A5443F17F1962B36E491B30A40B2405849E597BA5FB5 PUSH1 0x20 MSTORE PUSH1 0x40 DUP2 KECCAK256 SLOAD SWAP1 SWAP2 SWAP1 PUSH1 0xFF AND PUSH2 0xB5 JUMPI DUP2 DUP1 MSTORE DUP2 PUSH1 0x20 MSTORE PUSH1 0x40 DUP3 KECCAK256 DUP2 DUP4 MSTORE PUSH1 0x20 MSTORE PUSH1 0x40 DUP3 KECCAK256 PUSH1 0x1 PUSH1 0xFF NOT DUP3 SLOAD AND OR SWAP1 SSTORE CALLER SWAP2 PUSH1 0x0 DUP1 MLOAD PUSH1 0x20 PUSH2 0xC88 DUP4 CODECOPY DUP2 MLOAD SWAP2 MSTORE DUP2 DUP1 LOG4 PUSH1 0x1 SWAP1 JUMP JUMPDEST POP SWAP1 JUMP JUMPDEST PUSH1 0x1 PUSH1 0x1 PUSH1 0xA0 SHL SUB AND PUSH1 0x0 DUP2 DUP2 MSTORE PUSH32 0x7D7FFB7A348E1C6A02869081A26547B49160DD3DF72D1D75A570EB9B698292EC PUSH1 0x20 MSTORE PUSH1 0x40 DUP2 KECCAK256 SLOAD SWAP1 SWAP2 SWAP1 PUSH32 0xA49807205CE4D355092EF5A8A18F56E8913CF4A201FBE287825B095693C21775 SWAP1 PUSH1 0xFF AND PUSH2 0x154 JUMPI DUP1 DUP4 MSTORE DUP3 PUSH1 0x20 MSTORE PUSH1 0x40 DUP4 KECCAK256 DUP3 DUP5 MSTORE PUSH1 0x20 MSTORE PUSH1 0x40 DUP4 KECCAK256 PUSH1 0x1 PUSH1 0xFF NOT DUP3 SLOAD AND OR SWAP1 SSTORE PUSH1 0x0 DUP1 MLOAD PUSH1 0x20 PUSH2 0xC88 DUP4 CODECOPY DUP2 MLOAD SWAP2 MSTORE CALLER SWAP4 DUP1 LOG4 PUSH1 0x1 SWAP1 JUMP JUMPDEST POP POP SWAP1 JUMP JUMPDEST PUSH1 0x1 PUSH1 0x1 PUSH1 0xA0 SHL SUB AND PUSH1 0x0 DUP2 DUP2 MSTORE PUSH32 0x2A36A7537ACAC57CF73523994724D712533AF61D374781949936E205D08AB9F6 PUSH1 0x20 MSTORE PUSH1 0x40 DUP2 KECCAK256 SLOAD SWAP1 SWAP2 SWAP1 PUSH32 0xA6A5CA572E6A135DA0438A35C2444FD102FD0590E32C36057131095FE8B989B7 SWAP1 PUSH1 0xFF AND PUSH2 0x154 JUMPI DUP1 DUP4 MSTORE DUP3 PUSH1 0x20 MSTORE PUSH1 0x40 DUP4 KECCAK256 DUP3 DUP5 MSTORE PUSH1 0x20 MSTORE PUSH1 0x40 DUP4 KECCAK256 PUSH1 0x1 PUSH1 0xFF NOT DUP3 SLOAD AND OR SWAP1 SSTORE PUSH1 0x0 DUP1 MLOAD PUSH1 0x20 PUSH2 0xC88 DUP4 CODECOPY DUP2 MLOAD SWAP2 MSTORE CALLER SWAP4 DUP1 LOG4 PUSH1 0x1 SWAP1 JUMP INVALID PUSH1 0x80 PUSH1 0x40 DUP2 DUP2 MSTORE PUSH1 0x4 DUP1 CALLDATASIZE LT ISZERO PUSH2 0x15 JUMPI PUSH1 0x0 DUP1 REVERT JUMPDEST PUSH1 0x0 SWAP3 DUP4 CALLDATALOAD PUSH1 0xE0 SHR SWAP1 DUP2 PUSH4 0x1FFC9A7 EQ PUSH2 0x66C JUMPI POP DUP1 PUSH4 0x1667BCEC EQ PUSH2 0x64D JUMPI DUP1 PUSH4 0x248A9CA3 EQ PUSH2 0x624 JUMPI DUP1 PUSH4 0x24A29522 EQ PUSH2 0x2B0 JUMPI DUP1 PUSH4 0x2F2FF15D EQ PUSH2 0x5FB JUMPI DUP1 PUSH4 0x36568ABE EQ PUSH2 0x5B4 JUMPI DUP1 PUSH4 0x6022C188 EQ PUSH2 0x58B JUMPI DUP1 PUSH4 0x75B238FC EQ PUSH2 0x550 JUMPI DUP1 PUSH4 0x91D14854 EQ PUSH2 0x50B JUMPI DUP1 PUSH4 0x983437A8 EQ PUSH2 0x49F JUMPI DUP1 PUSH4 0xA217FDDF EQ PUSH2 0x4F0 JUMPI DUP1 PUSH4 0xA5CBE415 EQ PUSH2 0x4C6 JUMPI DUP1 PUSH4 0xADF94CCA EQ PUSH2 0x49F JUMPI DUP1 PUSH4 0xCD93F3EF EQ PUSH2 0x2F3 JUMPI DUP1 PUSH4 0xCFDBF254 EQ PUSH2 0x2D7 JUMPI DUP1 PUSH4 0xD423BC1D EQ PUSH2 0x2B0 JUMPI DUP1 PUSH4 0xD547741F EQ PUSH2 0x276 JUMPI DUP1 PUSH4 0xDDFFAC12 EQ PUSH2 0x150 JUMPI DUP1 PUSH4 0xDF9C49A3 EQ PUSH2 0x11F JUMPI PUSH4 0xF332687D EQ PUSH2 0xFF JUMPI PUSH1 0x0 DUP1 REVERT JUMPDEST CALLVALUE PUSH2 0x11B JUMPI DUP3 PUSH1 0x3 NOT CALLDATASIZE ADD SLT PUSH2 0x11B JUMPI PUSH1 0x20 SWAP3 POP SLOAD SWAP1 MLOAD SWAP1 DUP2 MSTORE RETURN JUMPDEST DUP3 DUP1 REVERT JUMPDEST DUP4 CALLVALUE PUSH2 0x14D JUMPI PUSH1 0x20 CALLDATASIZE PUSH1 0x3 NOT ADD SLT PUSH2 0x14D JUMPI PUSH2 0x149 PUSH2 0x13C PUSH2 0x6DB JUMP JUMPDEST PUSH2 0x144 PUSH2 0x776 JUMP JUMPDEST PUSH2 0x816 JUMP JUMPDEST POP DUP1 RETURN JUMPDEST DUP1 REVERT JUMPDEST POP CALLVALUE PUSH2 0x11B JUMPI PUSH1 0x20 DUP1 PUSH1 0x3 NOT CALLDATASIZE ADD SLT PUSH2 0x272 JUMPI DUP2 CALLDATALOAD SWAP4 PUSH8 0xFFFFFFFFFFFFFFFF SWAP3 DUP4 DUP7 GT PUSH2 0x26E JUMPI PUSH2 0x187 PUSH1 0x1F SWAP6 SWAP7 CALLDATASIZE SWAP1 DUP4 ADD PUSH2 0x6F1 JUMP JUMPDEST PUSH2 0x190 DUP2 PUSH2 0x748 JUMP JUMPDEST DUP9 MLOAD DUP9 NOT SWAP9 SWAP1 SWAP8 SWAP2 ADD DUP9 AND DUP8 ADD SWAP1 DUP2 GT DUP8 DUP3 LT OR PUSH2 0x25B JUMPI DUP9 SWAP8 SWAP7 SWAP5 SWAP6 SWAP9 MSTORE DUP1 DUP5 MSTORE PUSH2 0x1BB DUP2 PUSH2 0x748 JUMP JUMPDEST DUP5 DUP10 ADD SWAP7 ADD CALLDATASIZE DUP8 CALLDATACOPY DUP5 JUMPDEST DUP2 DUP2 LT PUSH2 0x20B JUMPI POP POP POP POP DUP4 MLOAD SWAP5 DUP6 SWAP5 DUP2 DUP7 ADD SWAP3 DUP3 DUP8 MSTORE MLOAD DUP1 SWAP4 MSTORE DUP6 ADD SWAP4 SWAP3 JUMPDEST DUP3 DUP2 LT PUSH2 0x1F4 JUMPI POP POP POP POP SUB SWAP1 RETURN JUMPDEST DUP4 MLOAD DUP6 MSTORE DUP7 SWAP6 POP SWAP4 DUP2 ADD SWAP4 SWAP3 DUP2 ADD SWAP3 PUSH1 0x1 ADD PUSH2 0x1E5 JUMP JUMPDEST PUSH2 0x21C DUP2 DUP4 DUP6 SWAP12 SWAP9 SWAP8 SWAP10 SWAP11 SWAP12 PUSH2 0x722 JUMP JUMPDEST CALLDATALOAD DUP6 MSTORE PUSH1 0x1 DUP7 MSTORE DUP9 DUP6 KECCAK256 SLOAD DUP8 MLOAD DUP3 LT ISZERO PUSH2 0x248 JUMPI PUSH1 0x5 DUP3 SWAP1 SHL DUP9 ADD DUP8 ADD MSTORE SWAP5 SWAP8 SWAP7 SWAP6 SWAP4 SWAP5 PUSH1 0x1 ADD PUSH2 0x1C5 JUMP JUMPDEST PUSH4 0x4E487B71 PUSH1 0xE0 SHL DUP7 MSTORE PUSH1 0x32 DUP6 MSTORE PUSH1 0x24 DUP7 REVERT JUMPDEST PUSH4 0x4E487B71 PUSH1 0xE0 SHL DUP6 MSTORE PUSH1 0x41 DUP5 MSTORE PUSH1 0x24 DUP6 REVERT JUMPDEST POP DUP1 REVERT JUMPDEST DUP4 DUP1 REVERT JUMPDEST POP SWAP1 CALLVALUE PUSH2 0x11B JUMPI DUP1 PUSH1 0x3 NOT CALLDATASIZE ADD SLT PUSH2 0x11B JUMPI PUSH2 0x149 SWAP2 CALLDATALOAD PUSH2 0x2AB PUSH1 0x1 PUSH2 0x29A PUSH2 0x6C0 JUMP JUMPDEST SWAP4 DUP4 DUP8 MSTORE DUP7 PUSH1 0x20 MSTORE DUP7 KECCAK256 ADD SLOAD PUSH2 0x7F0 JUMP JUMPDEST PUSH2 0x9C8 JUMP JUMPDEST POP CALLVALUE PUSH2 0x11B JUMPI PUSH1 0x20 CALLDATASIZE PUSH1 0x3 NOT ADD SLT PUSH2 0x11B JUMPI PUSH1 0x20 SWAP3 DUP3 SWAP2 CALLDATALOAD DUP2 MSTORE PUSH1 0x2 DUP5 MSTORE KECCAK256 SLOAD SWAP1 MLOAD SWAP1 DUP2 MSTORE RETURN JUMPDEST POP POP CALLVALUE PUSH2 0x26E JUMPI DUP2 PUSH1 0x3 NOT CALLDATASIZE ADD SLT PUSH2 0x26E JUMPI PUSH1 0x20 SWAP1 MLOAD PUSH1 0xC8 DUP2 MSTORE RETURN JUMPDEST POP SWAP2 SWAP1 CALLVALUE PUSH2 0x26E JUMPI DUP1 PUSH1 0x3 NOT CALLDATASIZE ADD SLT PUSH2 0x26E JUMPI PUSH8 0xFFFFFFFFFFFFFFFF DUP4 CALLDATALOAD DUP2 DUP2 GT PUSH2 0x272 JUMPI PUSH2 0x325 SWAP1 CALLDATASIZE SWAP1 DUP7 ADD PUSH2 0x6F1 JUMP JUMPDEST SWAP2 PUSH1 0x24 CALLDATALOAD SWAP1 DUP2 GT PUSH2 0x49B JUMPI PUSH2 0x33D SWAP1 CALLDATASIZE SWAP1 DUP8 ADD PUSH2 0x6F1 JUMP JUMPDEST SWAP2 SWAP1 PUSH1 0x0 DUP1 MLOAD PUSH1 0x20 PUSH2 0xA3E DUP4 CODECOPY DUP2 MLOAD SWAP2 MSTORE SWAP3 DUP4 DUP8 MSTORE PUSH1 0x20 SWAP4 DUP8 DUP6 MSTORE DUP7 DUP9 KECCAK256 CALLER DUP10 MSTORE DUP6 MSTORE PUSH1 0xFF DUP8 DUP10 KECCAK256 SLOAD AND ISZERO PUSH2 0x47D JUMPI POP DUP5 ISZERO PUSH2 0x46D JUMPI PUSH1 0xC8 DUP6 GT PUSH2 0x45D JUMPI DUP1 DUP6 SUB PUSH2 0x44D JUMPI DUP7 JUMPDEST DUP6 DUP2 LT PUSH2 0x3E8 JUMPI POP POP TIMESTAMP PUSH1 0x3 SSTORE POP POP DUP5 SLOAD PUSH1 0x0 NOT DUP2 EQ PUSH2 0x3D5 JUMPI SWAP5 PUSH1 0x1 PUSH32 0x9F4C35768E3B0FA2575341074F44DA0B96D5C4B16DEBA141123A28614A40978F SWAP6 SWAP7 ADD SWAP1 SSTORE DUP3 MLOAD SWAP2 DUP3 MSTORE TIMESTAMP SWAP1 DUP3 ADD MSTORE LOG1 DUP1 RETURN JUMPDEST PUSH4 0x4E487B71 PUSH1 0xE0 SHL DUP6 MSTORE PUSH1 0x11 DUP7 MSTORE PUSH1 0x24 DUP6 REVERT JUMPDEST DUP1 PUSH2 0x3F6 PUSH1 0x1 SWAP3 DUP9 DUP8 PUSH2 0x722 JUMP JUMPDEST CALLDATALOAD PUSH32 0x23B7A0422C37861E9E7FA964BF6C06634150DCA3F98B2AB810032E69761D8CC DUP10 DUP1 DUP13 PUSH2 0x426 DUP7 DUP10 DUP12 PUSH2 0x722 JUMP JUMPDEST CALLDATALOAD SWAP2 DUP2 DUP7 DUP5 SWAP4 MSTORE DUP9 DUP14 MSTORE KECCAK256 SSTORE PUSH1 0x2 DUP11 MSTORE DUP13 DUP3 TIMESTAMP SWAP2 KECCAK256 SSTORE DUP2 MLOAD SWAP1 DUP2 MSTORE TIMESTAMP DUP11 DUP3 ADD MSTORE LOG2 ADD PUSH2 0x384 JUMP JUMPDEST DUP6 MLOAD PUSH4 0x512509D3 PUSH1 0xE1 SHL DUP2 MSTORE DUP9 SWAP1 REVERT JUMPDEST DUP6 MLOAD PUSH4 0x5BEB171 PUSH1 0xE1 SHL DUP2 MSTORE DUP9 SWAP1 REVERT JUMPDEST DUP6 MLOAD PUSH4 0xC2E5347D PUSH1 0xE0 SHL DUP2 MSTORE DUP9 SWAP1 REVERT JUMPDEST DUP7 MLOAD PUSH4 0xE2517D3F PUSH1 0xE0 SHL DUP2 MSTORE CALLER DUP2 DUP12 ADD MSTORE PUSH1 0x24 DUP2 ADD SWAP2 SWAP1 SWAP2 MSTORE PUSH1 0x44 SWAP1 REVERT JUMPDEST DUP5 DUP1 REVERT JUMPDEST POP CALLVALUE PUSH2 0x11B JUMPI PUSH1 0x20 CALLDATASIZE PUSH1 0x3 NOT ADD SLT PUSH2 0x11B JUMPI PUSH1 0x20 SWAP3 DUP3 SWAP2 CALLDATALOAD DUP2 MSTORE PUSH1 0x1 DUP5 MSTORE KECCAK256 SLOAD SWAP1 MLOAD SWAP1 DUP2 MSTORE RETURN JUMPDEST DUP4 CALLVALUE PUSH2 0x14D JUMPI PUSH1 0x20 CALLDATASIZE PUSH1 0x3 NOT ADD SLT PUSH2 0x14D JUMPI PUSH2 0x149 PUSH2 0x4E3 PUSH2 0x6DB JUMP JUMPDEST PUSH2 0x4EB PUSH2 0x776 JUMP JUMPDEST PUSH2 0x92F JUMP JUMPDEST POP POP CALLVALUE PUSH2 0x26E JUMPI DUP2 PUSH1 0x3 NOT CALLDATASIZE ADD SLT PUSH2 0x26E JUMPI MLOAD SWAP1 DUP2 MSTORE PUSH1 0x20 SWAP1 RETURN JUMPDEST POP CALLVALUE PUSH2 0x11B JUMPI DUP2 PUSH1 0x3 NOT CALLDATASIZE ADD SLT PUSH2 0x11B JUMPI DUP2 PUSH1 0x20 SWAP4 PUSH1 0xFF SWAP3 PUSH2 0x52B PUSH2 0x6C0 JUMP JUMPDEST SWAP1 CALLDATALOAD DUP3 MSTORE DUP2 DUP7 MSTORE DUP3 DUP3 KECCAK256 PUSH1 0x1 PUSH1 0x1 PUSH1 0xA0 SHL SUB SWAP1 SWAP2 AND DUP3 MSTORE DUP6 MSTORE KECCAK256 SLOAD SWAP2 MLOAD SWAP2 AND ISZERO ISZERO DUP2 MSTORE RETURN JUMPDEST POP POP CALLVALUE PUSH2 0x26E JUMPI DUP2 PUSH1 0x3 NOT CALLDATASIZE ADD SLT PUSH2 0x26E JUMPI PUSH1 0x20 SWAP1 MLOAD PUSH32 0xA49807205CE4D355092EF5A8A18F56E8913CF4A201FBE287825B095693C21775 DUP2 MSTORE RETURN JUMPDEST POP POP CALLVALUE PUSH2 0x26E JUMPI DUP2 PUSH1 0x3 NOT CALLDATASIZE ADD SLT PUSH2 0x26E JUMPI PUSH1 0x20 SWAP1 MLOAD PUSH1 0x0 DUP1 MLOAD PUSH1 0x20 PUSH2 0xA3E DUP4 CODECOPY DUP2 MLOAD SWAP2 MSTORE DUP2 MSTORE RETURN JUMPDEST POP SWAP2 SWAP1 CALLVALUE PUSH2 0x26E JUMPI DUP1 PUSH1 0x3 NOT CALLDATASIZE ADD SLT PUSH2 0x26E JUMPI PUSH2 0x5CF PUSH2 0x6C0 JUMP JUMPDEST SWAP1 CALLER PUSH1 0x1 PUSH1 0x1 PUSH1 0xA0 SHL SUB DUP4 AND SUB PUSH2 0x5EC JUMPI POP PUSH2 0x149 SWAP2 SWAP3 CALLDATALOAD PUSH2 0x9C8 JUMP JUMPDEST MLOAD PUSH4 0x334BD919 PUSH1 0xE1 SHL DUP2 MSTORE DUP4 SWAP1 REVERT JUMPDEST POP SWAP1 CALLVALUE PUSH2 0x11B JUMPI DUP1 PUSH1 0x3 NOT CALLDATASIZE ADD SLT PUSH2 0x11B JUMPI PUSH2 0x149 SWAP2 CALLDATALOAD PUSH2 0x61F PUSH1 0x1 PUSH2 0x29A PUSH2 0x6C0 JUMP JUMPDEST PUSH2 0x8B6 JUMP JUMPDEST POP CALLVALUE PUSH2 0x11B JUMPI PUSH1 0x20 CALLDATASIZE PUSH1 0x3 NOT ADD SLT PUSH2 0x11B JUMPI DUP2 PUSH1 0x20 SWAP4 PUSH1 0x1 SWAP3 CALLDATALOAD DUP2 MSTORE DUP1 DUP6 MSTORE KECCAK256 ADD SLOAD SWAP1 MLOAD SWAP1 DUP2 MSTORE RETURN JUMPDEST POP POP CALLVALUE PUSH2 0x26E JUMPI DUP2 PUSH1 0x3 NOT CALLDATASIZE ADD SLT PUSH2 0x26E JUMPI PUSH1 0x20 SWAP1 PUSH1 0x3 SLOAD SWAP1 MLOAD SWAP1 DUP2 MSTORE RETURN JUMPDEST SWAP3 POP POP CALLVALUE PUSH2 0x11B JUMPI PUSH1 0x20 CALLDATASIZE PUSH1 0x3 NOT ADD SLT PUSH2 0x11B JUMPI CALLDATALOAD PUSH4 0xFFFFFFFF PUSH1 0xE0 SHL DUP2 AND DUP1 SWAP2 SUB PUSH2 0x11B JUMPI PUSH1 0x20 SWAP3 POP PUSH4 0x7965DB0B PUSH1 0xE0 SHL DUP2 EQ SWAP1 DUP2 ISZERO PUSH2 0x6AF JUMPI JUMPDEST POP ISZERO ISZERO DUP2 MSTORE RETURN JUMPDEST PUSH4 0x1FFC9A7 PUSH1 0xE0 SHL EQ SWAP1 POP CODESIZE PUSH2 0x6A8 JUMP JUMPDEST PUSH1 0x24 CALLDATALOAD SWAP1 PUSH1 0x1 PUSH1 0x1 PUSH1 0xA0 SHL SUB DUP3 AND DUP3 SUB PUSH2 0x6D6 JUMPI JUMP JUMPDEST PUSH1 0x0 DUP1 REVERT JUMPDEST PUSH1 0x4 CALLDATALOAD SWAP1 PUSH1 0x1 PUSH1 0x1 PUSH1 0xA0 SHL SUB DUP3 AND DUP3 SUB PUSH2 0x6D6 JUMPI JUMP JUMPDEST SWAP2 DUP2 PUSH1 0x1F DUP5 ADD SLT ISZERO PUSH2 0x6D6 JUMPI DUP3 CALLDATALOAD SWAP2 PUSH8 0xFFFFFFFFFFFFFFFF DUP4 GT PUSH2 0x6D6 JUMPI PUSH1 0x20 DUP1 DUP6 ADD SWAP5 DUP5 PUSH1 0x5 SHL ADD ADD GT PUSH2 0x6D6 JUMPI JUMP JUMPDEST SWAP2 SWAP1 DUP2 LT ISZERO PUSH2 0x732 JUMPI PUSH1 0x5 SHL ADD SWAP1 JUMP JUMPDEST PUSH4 0x4E487B71 PUSH1 0xE0 SHL PUSH1 0x0 MSTORE PUSH1 0x32 PUSH1 0x4 MSTORE PUSH1 0x24 PUSH1 0x0 REVERT JUMPDEST PUSH8 0xFFFFFFFFFFFFFFFF DUP2 GT PUSH2 0x760 JUMPI PUSH1 0x5 SHL PUSH1 0x20 ADD SWAP1 JUMP JUMPDEST PUSH4 0x4E487B71 PUSH1 0xE0 SHL PUSH1 0x0 MSTORE PUSH1 0x41 PUSH1 0x4 MSTORE PUSH1 0x24 PUSH1 0x0 REVERT JUMPDEST CALLER PUSH1 0x0 SWAP1 DUP2 MSTORE PUSH32 0x7D7FFB7A348E1C6A02869081A26547B49160DD3DF72D1D75A570EB9B698292EC PUSH1 0x20 MSTORE PUSH1 0x40 SWAP1 KECCAK256 SLOAD PUSH32 0xA49807205CE4D355092EF5A8A18F56E8913CF4A201FBE287825B095693C21775 SWAP1 PUSH1 0xFF AND ISZERO PUSH2 0x7D2 JUMPI POP JUMP JUMPDEST PUSH1 0x44 SWAP1 PUSH1 0x40 MLOAD SWAP1 PUSH4 0xE2517D3F PUSH1 0xE0 SHL DUP3 MSTORE CALLER PUSH1 0x4 DUP4 ADD MSTORE PUSH1 0x24 DUP3 ADD MSTORE REVERT JUMPDEST DUP1 PUSH1 0x0 MSTORE PUSH1 0x0 PUSH1 0x20 MSTORE PUSH1 0x40 PUSH1 0x0 KECCAK256 CALLER PUSH1 0x0 MSTORE PUSH1 0x20 MSTORE PUSH1 0xFF PUSH1 0x40 PUSH1 0x0 KECCAK256 SLOAD AND ISZERO PUSH2 0x7D2 JUMPI POP JUMP JUMPDEST PUSH1 0x1 PUSH1 0x1 PUSH1 0xA0 SHL SUB AND PUSH1 0x0 DUP2 DUP2 MSTORE PUSH32 0x2A36A7537ACAC57CF73523994724D712533AF61D374781949936E205D08AB9F6 PUSH1 0x20 MSTORE PUSH1 0x40 DUP2 KECCAK256 SLOAD SWAP1 SWAP2 SWAP1 PUSH1 0x0 DUP1 MLOAD PUSH1 0x20 PUSH2 0xA3E DUP4 CODECOPY DUP2 MLOAD SWAP2 MSTORE SWAP1 PUSH1 0xFF AND PUSH2 0x8B1 JUMPI DUP1 DUP4 MSTORE DUP3 PUSH1 0x20 MSTORE PUSH1 0x40 DUP4 KECCAK256 DUP3 DUP5 MSTORE PUSH1 0x20 MSTORE PUSH1 0x40 DUP4 KECCAK256 PUSH1 0x1 PUSH1 0xFF NOT DUP3 SLOAD AND OR SWAP1 SSTORE PUSH32 0x2F8788117E7EFF1D82E926EC794901D17C78024A50270940304540A733656F0D CALLER SWAP4 DUP1 LOG4 PUSH1 0x1 SWAP1 JUMP JUMPDEST POP POP SWAP1 JUMP JUMPDEST SWAP1 PUSH1 0x0 SWAP2 DUP1 DUP4 MSTORE DUP3 PUSH1 0x20 MSTORE PUSH1 0x40 DUP4 KECCAK256 SWAP2 PUSH1 0x1 DUP1 PUSH1 0xA0 SHL SUB AND SWAP2 DUP3 DUP5 MSTORE PUSH1 0x20 MSTORE PUSH1 0xFF PUSH1 0x40 DUP5 KECCAK256 SLOAD AND ISZERO PUSH1 0x0 EQ PUSH2 0x8B1 JUMPI DUP1 DUP4 MSTORE DUP3 PUSH1 0x20 MSTORE PUSH1 0x40 DUP4 KECCAK256 DUP3 DUP5 MSTORE PUSH1 0x20 MSTORE PUSH1 0x40 DUP4 KECCAK256 PUSH1 0x1 PUSH1 0xFF NOT DUP3 SLOAD AND OR SWAP1 SSTORE PUSH32 0x2F8788117E7EFF1D82E926EC794901D17C78024A50270940304540A733656F0D CALLER SWAP4 DUP1 LOG4 PUSH1 0x1 SWAP1 JUMP JUMPDEST PUSH1 0x1 PUSH1 0x1 PUSH1 0xA0 SHL SUB AND PUSH1 0x0 DUP2 DUP2 MSTORE PUSH32 0x2A36A7537ACAC57CF73523994724D712533AF61D374781949936E205D08AB9F6 PUSH1 0x20 MSTORE PUSH1 0x40 DUP2 KECCAK256 SLOAD SWAP1 SWAP2 SWAP1 PUSH1 0x0 DUP1 MLOAD PUSH1 0x20 PUSH2 0xA3E DUP4 CODECOPY DUP2 MLOAD SWAP2 MSTORE SWAP1 PUSH1 0xFF AND ISZERO PUSH2 0x8B1 JUMPI DUP1 DUP4 MSTORE DUP3 PUSH1 0x20 MSTORE PUSH1 0x40 DUP4 KECCAK256 DUP3 DUP5 MSTORE PUSH1 0x20 MSTORE PUSH1 0x40 DUP4 KECCAK256 PUSH1 0xFF NOT DUP2 SLOAD AND SWAP1 SSTORE PUSH32 0xF6391F5C32D9C69D2A47EA670B442974B53935D1EDC7FD64EB21E047A839171B CALLER SWAP4 DUP1 LOG4 PUSH1 0x1 SWAP1 JUMP JUMPDEST SWAP1 PUSH1 0x0 SWAP2 DUP1 DUP4 MSTORE DUP3 PUSH1 0x20 MSTORE PUSH1 0x40 DUP4 KECCAK256 SWAP2 PUSH1 0x1 DUP1 PUSH1 0xA0 SHL SUB AND SWAP2 DUP3 DUP5 MSTORE PUSH1 0x20 MSTORE PUSH1 0xFF PUSH1 0x40 DUP5 KECCAK256 SLOAD AND PUSH1 0x0 EQ PUSH2 0x8B1 JUMPI DUP1 DUP4 MSTORE DUP3 PUSH1 0x20 MSTORE PUSH1 0x40 DUP4 KECCAK256 DUP3 DUP5 MSTORE PUSH1 0x20 MSTORE PUSH1 0x40 DUP4 KECCAK256 PUSH1 0xFF NOT DUP2 SLOAD AND SWAP1 SSTORE PUSH32 0xF6391F5C32D9C69D2A47EA670B442974B53935D1EDC7FD64EB21E047A839171B CALLER SWAP4 DUP1 LOG4 PUSH1 0x1 SWAP1 JUMP INVALID 0xA6 0xA5 0xCA JUMPI 0x2E PUSH11 0x135DA0438A35C2444FD102 REVERT SDIV SWAP1 0xE3 0x2C CALLDATASIZE SDIV PUSH18 0x31095FE8B989B7A26469706673582212208A 0xE9 BASEFEE 0xA9 CALLCODE 0xE8 0xBE GASLIMIT PUSH21 0x415128F1D5EC06EF5C82F916924BA2B9731A177DC1 0xEE 0xBD PUSH5 0x736F6C6343 STOP ADDMOD XOR STOP CALLER 0x2F DUP8 DUP9 GT PUSH31 0x7EFF1D82E926EC794901D17C78024A50270940304540A733656F0D00000000 "},"methodIdentifiers":{"ADMIN_ROLE()":"75b238fc","DEFAULT_ADMIN_ROLE()":"a217fddf","MAX_BATCH_SIZE()":"cfdbf254","REP_ORACLE_ROLE()":"6022c188","getRoleAdmin(bytes32)":"248a9ca3","grantOracleRole(address)":"df9c49a3","grantRole(bytes32,address)":"2f2ff15d","hasRole(bytes32,address)":"91d14854","lastCheckpointAt()":"1667bcec","lastUpdated(uint256)":"24a29522","lastUpdatedAt(uint256)":"d423bc1d","latestRep(uint256)":"983437a8","renounceRole(bytes32,address)":"36568abe","reputationOf(uint256)":"adf94cca","reputationsOf(uint256[])":"ddffac12","revokeOracleRole(address)":"a5cbe415","revokeRole(bytes32,address)":"d547741f","submitCheckpoint(uint256[],uint256[])":"cd93f3ef","supportsInterface(bytes4)":"01ffc9a7","totalCheckpoints()":"f332687d"}}}}}