{"contracts/launchpad/HoneycombMigration.sol":{"HoneycombMigration":{"abi":[{"inputs":[{"internalType":"address","name":"_market","type":"address"},{"internalType":"address","name":"_router","type":"address"},{"internalType":"address","name":"_wbnb","type":"address"},{"internalType":"address","name":"_lpLockAddress","type":"address"},{"internalType":"address","name":"_treasury","type":"address"}],"stateMutability":"nonpayable","type":"constructor"},{"inputs":[],"name":"AlreadyMigrated","type":"error"},{"inputs":[],"name":"InsufficientLiquidity","type":"error"},{"inputs":[],"name":"InvalidAddress","type":"error"},{"inputs":[],"name":"MigrationFailed","type":"error"},{"inputs":[{"internalType":"address","name":"owner","type":"address"}],"name":"OwnableInvalidOwner","type":"error"},{"inputs":[{"internalType":"address","name":"account","type":"address"}],"name":"OwnableUnauthorizedAccount","type":"error"},{"inputs":[],"name":"ReentrancyGuardReentrantCall","type":"error"},{"inputs":[],"name":"TokenNotGraduated","type":"error"},{"inputs":[],"name":"TransferFailed","type":"error"},{"anonymous":false,"inputs":[{"indexed":false,"internalType":"address","name":"token","type":"address"},{"indexed":false,"internalType":"uint256","name":"amount","type":"uint256"}],"name":"DustCollected","type":"event"},{"anonymous":false,"inputs":[{"indexed":false,"internalType":"address","name":"newLpLockAddress","type":"address"}],"name":"LpLockAddressUpdated","type":"event"},{"anonymous":false,"inputs":[{"indexed":true,"internalType":"address","name":"token","type":"address"},{"indexed":true,"internalType":"address","name":"pair","type":"address"},{"indexed":false,"internalType":"uint256","name":"lpAmount","type":"uint256"},{"indexed":false,"internalType":"uint256","name":"nativeAdded","type":"uint256"},{"indexed":false,"internalType":"uint256","name":"tokenAdded","type":"uint256"},{"indexed":false,"internalType":"uint256","name":"timestamp","type":"uint256"}],"name":"Migrated","type":"event"},{"anonymous":false,"inputs":[{"indexed":true,"internalType":"address","name":"previousOwner","type":"address"},{"indexed":true,"internalType":"address","name":"newOwner","type":"address"}],"name":"OwnershipTransferred","type":"event"},{"anonymous":false,"inputs":[{"indexed":false,"internalType":"address","name":"newRouter","type":"address"}],"name":"RouterUpdated","type":"event"},{"anonymous":false,"inputs":[{"indexed":false,"internalType":"uint256","name":"newSlippageBps","type":"uint256"}],"name":"SlippageUpdated","type":"event"},{"anonymous":false,"inputs":[{"indexed":false,"internalType":"address","name":"newTreasury","type":"address"}],"name":"TreasuryUpdated","type":"event"},{"inputs":[],"name":"MIN_LIQUIDITY","outputs":[{"internalType":"uint256","name":"","type":"uint256"}],"stateMutability":"view","type":"function"},{"inputs":[{"internalType":"address","name":"token","type":"address"}],"name":"canMigrate","outputs":[{"internalType":"bool","name":"eligible","type":"bool"}],"stateMutability":"view","type":"function"},{"inputs":[{"internalType":"address","name":"token","type":"address"}],"name":"emergencyWithdraw","outputs":[],"stateMutability":"nonpayable","type":"function"},{"inputs":[],"name":"factory","outputs":[{"internalType":"contract IPancakeFactory","name":"","type":"address"}],"stateMutability":"view","type":"function"},{"inputs":[{"internalType":"address","name":"token","type":"address"}],"name":"getMigrationInfo","outputs":[{"internalType":"address","name":"pair","type":"address"},{"internalType":"uint256","name":"lpAmount","type":"uint256"},{"internalType":"bool","name":"isMigrated","type":"bool"}],"stateMutability":"view","type":"function"},{"inputs":[{"internalType":"address","name":"","type":"address"}],"name":"lpAmounts","outputs":[{"internalType":"uint256","name":"","type":"uint256"}],"stateMutability":"view","type":"function"},{"inputs":[],"name":"lpLockAddress","outputs":[{"internalType":"address","name":"","type":"address"}],"stateMutability":"view","type":"function"},{"inputs":[],"name":"market","outputs":[{"internalType":"contract IBondingCurveMarket","name":"","type":"address"}],"stateMutability":"view","type":"function"},{"inputs":[{"internalType":"address","name":"token","type":"address"}],"name":"migrate","outputs":[],"stateMutability":"nonpayable","type":"function"},{"inputs":[{"internalType":"address","name":"","type":"address"}],"name":"migrated","outputs":[{"internalType":"bool","name":"","type":"bool"}],"stateMutability":"view","type":"function"},{"inputs":[],"name":"owner","outputs":[{"internalType":"address","name":"","type":"address"}],"stateMutability":"view","type":"function"},{"inputs":[],"name":"renounceOwnership","outputs":[],"stateMutability":"nonpayable","type":"function"},{"inputs":[],"name":"router","outputs":[{"internalType":"contract IPancakeRouter02","name":"","type":"address"}],"stateMutability":"view","type":"function"},{"inputs":[{"internalType":"address","name":"_lpLockAddress","type":"address"}],"name":"setLpLockAddress","outputs":[],"stateMutability":"nonpayable","type":"function"},{"inputs":[{"internalType":"address","name":"_market","type":"address"}],"name":"setMarket","outputs":[],"stateMutability":"nonpayable","type":"function"},{"inputs":[{"internalType":"address","name":"_router","type":"address"}],"name":"setRouter","outputs":[],"stateMutability":"nonpayable","type":"function"},{"inputs":[{"internalType":"uint256","name":"_slippageBps","type":"uint256"}],"name":"setSlippageBps","outputs":[],"stateMutability":"nonpayable","type":"function"},{"inputs":[{"internalType":"address","name":"_treasury","type":"address"}],"name":"setTreasury","outputs":[],"stateMutability":"nonpayable","type":"function"},{"inputs":[],"name":"slippageBps","outputs":[{"internalType":"uint256","name":"","type":"uint256"}],"stateMutability":"view","type":"function"},{"inputs":[{"internalType":"address","name":"","type":"address"}],"name":"tokenPairs","outputs":[{"internalType":"address","name":"","type":"address"}],"stateMutability":"view","type":"function"},{"inputs":[{"internalType":"address","name":"newOwner","type":"address"}],"name":"transferOwnership","outputs":[],"stateMutability":"nonpayable","type":"function"},{"inputs":[],"name":"treasury","outputs":[{"internalType":"address","name":"","type":"address"}],"stateMutability":"view","type":"function"},{"inputs":[],"name":"wbnb","outputs":[{"internalType":"address","name":"","type":"address"}],"stateMutability":"view","type":"function"},{"stateMutability":"payable","type":"receive"}],"evm":{"bytecode":{"linkReferences":{},"object":"608060409080825234620002295760a081620014bd80380380916200002582856200022e565b83398101031262000229576200003b8162000268565b906200004a6020820162000268565b6200005784830162000268565b906200007460806200006c6060860162000268565b940162000268565b9133156200021157600080546001600160a01b0319808216339081178455895191986001600160a01b039892969389929083167f8be0079c531659141344cd1fd0a4f28419497f9722a3daafe3b4186f6b6457e08780a3600180556032600b5516948515801562000206575b8015620001fb575b620001ec575086169384158015620001e1575b620001d057866004926020928a6002541617600255168089600354161760035589519283809263c45a015560e01b82525afa918215620001c557908187949362000178575b5050821686600454161760045516846005541617600555836006541617600655169060075416176007555161123f90816200027e8239f35b91509192506020823d602011620001bc575b8162000199602093836200022e565b81010312620001b957509084620001b1819362000268565b903862000140565b80fd5b3d91506200018a565b8851903d90823e3d90fd5b885163e6c4247b60e01b8152600490fd5b5086861615620000fb565b63e6c4247b60e01b8152600490fd5b5087851615620000e8565b5087831615620000e0565b8551631e4fbdf760e01b815260006004820152602490fd5b600080fd5b601f909101601f19168101906001600160401b038211908210176200025257604052565b634e487b7160e01b600052604160045260246000fd5b51906001600160a01b0382168203620002295756fe60406080815260049081361015610020575b5050361561001e57600080fd5b005b600091823560e01c9081631a3ce4e614610f4e57816321b77d6314610f3157816347bbbdf514610ef45781634ba0a5ee14610eb5578163578c71d914610e9657816361d027b314610e6d5781636dcea85f14610e125781636ff1c9bc14610ca6578163715018a614610c4c57816373660e8e14610c125781637de07cea14610bd557816380f5560514610bac5781638d72647e14610b835781638da5cb5b14610b5b57816398d6240414610b32578163c0d7865514610a52578163c2d64ec6146109f1578163c45a0155146109c9578163ce5494bb146102e9578163f0f4426014610272578163f2fde38b146101de578163f3ec37c214610151575063f887ea4003610011573461014d578160031936011261014d5760035490516001600160a01b039091168152602090f35b5080fd5b919050346101da5760203660031901126101da5781356001600160a01b03811692908390036101d6576101826111dd565b82156101c85750600680546001600160a01b03191683179055519081527f3fb20f2af04f7289b523333f2b3e35c94ff35e8ec988ac7f666c9364228978b090602090a180f35b905163e6c4247b60e01b8152fd5b8380fd5b8280fd5b919050346101da5760203660031901126101da576001600160a01b0382358181169391929084900361026e576102126111dd565b8315610258575050600054826001600160601b0360a01b821617600055167f8be0079c531659141344cd1fd0a4f28419497f9722a3daafe3b4186f6b6457e0600080a380f35b51631e4fbdf760e01b8152908101849052602490fd5b8480fd5b919050346101da5760203660031901126101da5781356001600160a01b03811692908390036101d6576102a36111dd565b82156101c85750600780546001600160a01b03191683179055519081527f7dae230f18360d76a040c81f050aa14eb9d6dc7901b20fc5d855e2a20fe814d190602090a180f35b8391503461014d57602090816003193601126101da576001600160a01b03938135858116939091908483036109c5576002600154146109b55760026001558486526008815260ff82872054166109a557602460c088600254168451928380926374544e3b60e11b82528a8a8301525afa90811561093f578791610976575b50608081015115610966576103e88281835110928315610959575b50505061094957859685875260088252828720600160ff1982541617905582816002541660248251809b8193631629ede960e31b83528b8b8401525af197881561093f5787908899610906575b50863b1561085a5783516340c10f1960e01b815230878201908152602081018b90528990829081906040010381838c5af180156108ce576108d8575b50600354845163095ea7b360e01b81529083166001600160a01b0316878201908152602081018b905284908290819060400103818c8c5af180156108ce57610896575b50600b5461271090810390808211610883576104768161046e84866111b4565b04928c6111b4565b0483600354169161012c420191824211610870578c9695946060948c9460c4948d948c519b8c98899763f305d71960e01b895288015260248701526044860152606485015230608485015260a48401525af195861561086657889589948a9861081e575b50871561080f57899a838354169185856005541660448d8b51968793849263e6a4390560e01b84528a84015260248301525afa9283156108055788868e8e8e9482986107d2575b50908391815260098b522095169d8e95866001600160601b0360a01b825416179055600a895220558c866105868760065416958d8c5194858094819363a9059cbb60e01b9b8c84528d840160209093929193604081019460018060a01b031681520152565b03925af180156107c65761078e575b5088820391808311610779578d8c8b899303610695575b505050505050476105f8575b505082519485528401528201524260608201527faea3d21fd3e325f1fb534c8ff520ceb18b97460a6a934b03758bb0cc8939567090608090a36001805580f35b89479283610608575b50506105b8565b8180858193600754165af161061b611028565b501561068757509183917f51eb5aa877b3d80e186f9a323c6dce052491963271d09ee40615d0bb182359d583608097957faea3d21fd3e325f1fb534c8ff520ceb18b97460a6a934b03758bb0cc89395670999751906000825284820152a191939581939550898b610601565b84516312171d8360e31b8152fd5b6007548b5196875288166001600160a01b03168787019081526020810186905286928391829060400103925af1801561076f57610717575b87516001600160a01b0391909116815260208101919091527f51eb5aa877b3d80e186f9a323c6dce052491963271d09ee40615d0bb182359d59150604090a18a8080858d8c6105ac565b8583813d8311610768575b61072c8183610fde565b810103126107645761075e7f51eb5aa877b3d80e186f9a323c6dce052491963271d09ee40615d0bb182359d593611016565b506106cd565b8c80fd5b503d610722565b88513d8f823e3d90fd5b601185634e487b7160e01b6000525260246000fd5b8681813d83116107bf575b6107a38183610fde565b810103126107bb576107b490611016565b508d610595565b8d80fd5b503d610799565b8e8a51903d90823e3d90fd5b84929198506107f6908c8d3d106107fe575b6107ee8183610fde565b810190611195565b979091610521565b503d6107e4565b88513d8e823e3d90fd5b50845163513dfed160e11b8152fd5b9650965092506060853d60601161085e575b8161083d60609383610fde565b8101031261085a578451928483870151960151939593968b6104da565b8780fd5b3d9150610830565b84513d8a823e3d90fd5b634e487b7160e01b8c5260118a5260248cfd5b634e487b7160e01b8a526011885260248afd5b8381813d83116108c7575b6108ab8183610fde565b810103126108c3576108bc90611016565b508961044e565b8880fd5b503d6108a1565b85513d8b823e3d90fd5b67ffffffffffffffff81999299116108f3578452968961040b565b634e487b7160e01b825260418752602482fd5b809950848092503d8311610938575b61091f8183610fde565b810103126109345781885198015197896103cf565b8680fd5b503d610915565b83513d89823e3d90fd5b815163bb55fd2760e01b81528490fd5b0151109050888281610382565b82516318caafeb60e01b81528590fd5b610998915060c03d60c01161099e575b6109908183610fde565b810190611068565b88610367565b503d610986565b81516332870f2f60e21b81528490fd5b8151633ee5aeb560e01b81528490fd5b8580fd5b9050346101da57826003193601126101da575490516001600160a01b03909116815260209150f35b8391503461014d57602036600319011261014d57356001600160a01b0381811693918490036101da5760609383526009602052818320541691600a60205260ff82808320549260086020522054169082519384526020840152151590820152f35b9050346101da5760203660031901126101da5780356001600160a01b03818116929183900361026e57610a836111dd565b8215610b23576001600160601b0360a01b9083826003541617600355845163c45a015560e01b81526020818581885afa908115610b1957917f7aed1d3e8155a07ccf395e44ea3109a0e2d6c9b29bbbe9f142d9790596f4dc8096939160209695938991610afc575b50169082541617905551908152a180f35b610b139150873d89116107fe576107ee8183610fde565b38610aeb565b86513d89823e3d90fd5b50825163e6c4247b60e01b8152fd5b50503461014d578160031936011261014d5760065490516001600160a01b039091168152602090f35b50503461014d578160031936011261014d57905490516001600160a01b039091168152602090f35b50503461014d578160031936011261014d5760055490516001600160a01b039091168152602090f35b50503461014d578160031936011261014d5760025490516001600160a01b039091168152602090f35b9050346101da5760203660031901126101da5735916001600160a01b0383168303610c0f5750610c066020926110d9565b90519015158152f35b80fd5b9050346101da5760203660031901126101da57356001600160a01b038116908190036101da5782829160209452600a845220549051908152f35b8334610c0f5780600319360112610c0f57610c656111dd565b80546001600160a01b03198116825581906001600160a01b03167f8be0079c531659141344cd1fd0a4f28419497f9722a3daafe3b4186f6b6457e08280a380f35b919050346101da578260208060031936011261014d576001600160a01b03908435828116908190036101d657610cda6111dd565b80610d0c5750508180809281541647905af1610cf4611028565b5015610cff57505080f35b516312171d8360e31b8152fd5b84516370a0823160e01b815230818801529395919493918583602481855afa928315610e08578793610dd9575b5082610d4a575b5050505050505080f35b8654855163a9059cbb60e01b815294166001600160a01b0316908401908152602081019290925291948492869290918391829060400103925af1908115610dd05750610d9c575b808080808695610d40565b81813d8311610dc9575b610db08183610fde565b8101031261014d57610dc190611016565b503880610d91565b503d610da6565b513d85823e3d90fd5b9092508581813d8311610e01575b610df18183610fde565b8101031261093457519138610d39565b503d610de7565b85513d89823e3d90fd5b9050346101da5760203660031901126101da5780356001600160a01b03811692908390036101d657610e426111dd565b8215610e605750506001600160601b0360a01b600254161760025580f35b5163e6c4247b60e01b8152fd5b50503461014d578160031936011261014d5760075490516001600160a01b039091168152602090f35b50503461014d578160031936011261014d57602090600b549051908152f35b9050346101da5760203660031901126101da57356001600160a01b038116908190036101da57818360ff92602095526008855220541690519015158152f35b9050346101da5760203660031901126101da576001600160a01b039035818116908190036101d65783839160209552600985522054169051908152f35b50503461014d578160031936011261014d57602090516103e88152f35b919050346101da5760203660031901126101da57813591610f6d6111dd565b6103e88311610fa85750816020917ff5a802650e0a86db227cc342f06327d2ca0ff5cf2b12e0084fc5d8a7db2c54fd93600b5551908152a180f35b6020606492519162461bcd60e51b835282015260116024820152700a6d8d2e0e0c2ceca40e8dede40d0d2ced607b1b6044820152fd5b90601f8019910116810190811067ffffffffffffffff82111761100057604052565b634e487b7160e01b600052604160045260246000fd5b5190811515820361102357565b600080fd5b3d15611063573d9067ffffffffffffffff82116110005760405191611057601f8201601f191660200184610fde565b82523d6000602084013e565b606090565b908160c0910312611023576040519060c0820182811067ffffffffffffffff821117611000576110d19160a091604052805184526020810151602085015260408101516040850152606081015160608501526110c660808201611016565b608085015201611016565b60a082015290565b6001600160a01b0390811660008181526008602052604090205490919060ff1661118e5760c09060025416916024604051809481936374544e3b60e11b835260048301525afa90811561118257600091611163575b50608081015115159081611154575b81611146575090565b6103e8915060200151101590565b90506103e8815110159061113d565b61117c915060c03d60c01161099e576109908183610fde565b3861112e565b6040513d6000823e3d90fd5b5050600090565b9081602091031261102357516001600160a01b03811681036110235790565b818102929181159184041417156111c757565b634e487b7160e01b600052601160045260246000fd5b6000546001600160a01b031633036111f157565b60405163118cdaa760e01b8152336004820152602490fdfea2646970667358221220f350eb728c4e309e31360370d366dade45c8285531d007ba36b1360d8593796764736f6c63430008180033","opcodes":"PUSH1 0x80 PUSH1 0x40 SWAP1 DUP1 DUP3 MSTORE CALLVALUE PUSH3 0x229 JUMPI PUSH1 0xA0 DUP2 PUSH3 0x14BD DUP1 CODESIZE SUB DUP1 SWAP2 PUSH3 0x25 DUP3 DUP6 PUSH3 0x22E JUMP JUMPDEST DUP4 CODECOPY DUP2 ADD SUB SLT PUSH3 0x229 JUMPI PUSH3 0x3B DUP2 PUSH3 0x268 JUMP JUMPDEST SWAP1 PUSH3 0x4A PUSH1 0x20 DUP3 ADD PUSH3 0x268 JUMP JUMPDEST PUSH3 0x57 DUP5 DUP4 ADD PUSH3 0x268 JUMP JUMPDEST SWAP1 PUSH3 0x74 PUSH1 0x80 PUSH3 0x6C PUSH1 0x60 DUP7 ADD PUSH3 0x268 JUMP JUMPDEST SWAP5 ADD PUSH3 0x268 JUMP JUMPDEST SWAP2 CALLER ISZERO PUSH3 0x211 JUMPI PUSH1 0x0 DUP1 SLOAD PUSH1 0x1 PUSH1 0x1 PUSH1 0xA0 SHL SUB NOT DUP1 DUP3 AND CALLER SWAP1 DUP2 OR DUP5 SSTORE DUP10 MLOAD SWAP2 SWAP9 PUSH1 0x1 PUSH1 0x1 PUSH1 0xA0 SHL SUB SWAP9 SWAP3 SWAP7 SWAP4 DUP10 SWAP3 SWAP1 DUP4 AND PUSH32 0x8BE0079C531659141344CD1FD0A4F28419497F9722A3DAAFE3B4186F6B6457E0 DUP8 DUP1 LOG3 PUSH1 0x1 DUP1 SSTORE PUSH1 0x32 PUSH1 0xB SSTORE AND SWAP5 DUP6 ISZERO DUP1 ISZERO PUSH3 0x206 JUMPI JUMPDEST DUP1 ISZERO PUSH3 0x1FB JUMPI JUMPDEST PUSH3 0x1EC JUMPI POP DUP7 AND SWAP4 DUP5 ISZERO DUP1 ISZERO PUSH3 0x1E1 JUMPI JUMPDEST PUSH3 0x1D0 JUMPI DUP7 PUSH1 0x4 SWAP3 PUSH1 0x20 SWAP3 DUP11 PUSH1 0x2 SLOAD AND OR PUSH1 0x2 SSTORE AND DUP1 DUP10 PUSH1 0x3 SLOAD AND OR PUSH1 0x3 SSTORE DUP10 MLOAD SWAP3 DUP4 DUP1 SWAP3 PUSH4 0xC45A0155 PUSH1 0xE0 SHL DUP3 MSTORE GAS STATICCALL SWAP2 DUP3 ISZERO PUSH3 0x1C5 JUMPI SWAP1 DUP2 DUP8 SWAP5 SWAP4 PUSH3 0x178 JUMPI JUMPDEST POP POP DUP3 AND DUP7 PUSH1 0x4 SLOAD AND OR PUSH1 0x4 SSTORE AND DUP5 PUSH1 0x5 SLOAD AND OR PUSH1 0x5 SSTORE DUP4 PUSH1 0x6 SLOAD AND OR PUSH1 0x6 SSTORE AND SWAP1 PUSH1 0x7 SLOAD AND OR PUSH1 0x7 SSTORE MLOAD PUSH2 0x123F SWAP1 DUP2 PUSH3 0x27E DUP3 CODECOPY RETURN JUMPDEST SWAP2 POP SWAP2 SWAP3 POP PUSH1 0x20 DUP3 RETURNDATASIZE PUSH1 0x20 GT PUSH3 0x1BC JUMPI JUMPDEST DUP2 PUSH3 0x199 PUSH1 0x20 SWAP4 DUP4 PUSH3 0x22E JUMP JUMPDEST DUP2 ADD SUB SLT PUSH3 0x1B9 JUMPI POP SWAP1 DUP5 PUSH3 0x1B1 DUP2 SWAP4 PUSH3 0x268 JUMP JUMPDEST SWAP1 CODESIZE PUSH3 0x140 JUMP JUMPDEST DUP1 REVERT JUMPDEST RETURNDATASIZE SWAP2 POP PUSH3 0x18A JUMP JUMPDEST DUP9 MLOAD SWAP1 RETURNDATASIZE SWAP1 DUP3 RETURNDATACOPY RETURNDATASIZE SWAP1 REVERT JUMPDEST DUP9 MLOAD PUSH4 0xE6C4247B PUSH1 0xE0 SHL DUP2 MSTORE PUSH1 0x4 SWAP1 REVERT JUMPDEST POP DUP7 DUP7 AND ISZERO PUSH3 0xFB JUMP JUMPDEST PUSH4 0xE6C4247B PUSH1 0xE0 SHL DUP2 MSTORE PUSH1 0x4 SWAP1 REVERT JUMPDEST POP DUP8 DUP6 AND ISZERO PUSH3 0xE8 JUMP JUMPDEST POP DUP8 DUP4 AND ISZERO PUSH3 0xE0 JUMP JUMPDEST DUP6 MLOAD PUSH4 0x1E4FBDF7 PUSH1 0xE0 SHL DUP2 MSTORE PUSH1 0x0 PUSH1 0x4 DUP3 ADD MSTORE PUSH1 0x24 SWAP1 REVERT JUMPDEST PUSH1 0x0 DUP1 REVERT JUMPDEST PUSH1 0x1F SWAP1 SWAP2 ADD PUSH1 0x1F NOT AND DUP2 ADD SWAP1 PUSH1 0x1 PUSH1 0x1 PUSH1 0x40 SHL SUB DUP3 GT SWAP1 DUP3 LT OR PUSH3 0x252 JUMPI PUSH1 0x40 MSTORE JUMP JUMPDEST PUSH4 0x4E487B71 PUSH1 0xE0 SHL PUSH1 0x0 MSTORE PUSH1 0x41 PUSH1 0x4 MSTORE PUSH1 0x24 PUSH1 0x0 REVERT JUMPDEST MLOAD SWAP1 PUSH1 0x1 PUSH1 0x1 PUSH1 0xA0 SHL SUB DUP3 AND DUP3 SUB PUSH3 0x229 JUMPI JUMP INVALID PUSH1 0x40 PUSH1 0x80 DUP2 MSTORE PUSH1 0x4 SWAP1 DUP2 CALLDATASIZE LT ISZERO PUSH2 0x20 JUMPI JUMPDEST POP POP CALLDATASIZE ISZERO PUSH2 0x1E JUMPI PUSH1 0x0 DUP1 REVERT JUMPDEST STOP JUMPDEST PUSH1 0x0 SWAP2 DUP3 CALLDATALOAD PUSH1 0xE0 SHR SWAP1 DUP2 PUSH4 0x1A3CE4E6 EQ PUSH2 0xF4E JUMPI DUP2 PUSH4 0x21B77D63 EQ PUSH2 0xF31 JUMPI DUP2 PUSH4 0x47BBBDF5 EQ PUSH2 0xEF4 JUMPI DUP2 PUSH4 0x4BA0A5EE EQ PUSH2 0xEB5 JUMPI DUP2 PUSH4 0x578C71D9 EQ PUSH2 0xE96 JUMPI DUP2 PUSH4 0x61D027B3 EQ PUSH2 0xE6D JUMPI DUP2 PUSH4 0x6DCEA85F EQ PUSH2 0xE12 JUMPI DUP2 PUSH4 0x6FF1C9BC EQ PUSH2 0xCA6 JUMPI DUP2 PUSH4 0x715018A6 EQ PUSH2 0xC4C JUMPI DUP2 PUSH4 0x73660E8E EQ PUSH2 0xC12 JUMPI DUP2 PUSH4 0x7DE07CEA EQ PUSH2 0xBD5 JUMPI DUP2 PUSH4 0x80F55605 EQ PUSH2 0xBAC JUMPI DUP2 PUSH4 0x8D72647E EQ PUSH2 0xB83 JUMPI DUP2 PUSH4 0x8DA5CB5B EQ PUSH2 0xB5B JUMPI DUP2 PUSH4 0x98D62404 EQ PUSH2 0xB32 JUMPI DUP2 PUSH4 0xC0D78655 EQ PUSH2 0xA52 JUMPI DUP2 PUSH4 0xC2D64EC6 EQ PUSH2 0x9F1 JUMPI DUP2 PUSH4 0xC45A0155 EQ PUSH2 0x9C9 JUMPI DUP2 PUSH4 0xCE5494BB EQ PUSH2 0x2E9 JUMPI DUP2 PUSH4 0xF0F44260 EQ PUSH2 0x272 JUMPI DUP2 PUSH4 0xF2FDE38B EQ PUSH2 0x1DE JUMPI DUP2 PUSH4 0xF3EC37C2 EQ PUSH2 0x151 JUMPI POP PUSH4 0xF887EA40 SUB PUSH2 0x11 JUMPI CALLVALUE PUSH2 0x14D JUMPI DUP2 PUSH1 0x3 NOT CALLDATASIZE ADD SLT PUSH2 0x14D JUMPI PUSH1 0x3 SLOAD SWAP1 MLOAD PUSH1 0x1 PUSH1 0x1 PUSH1 0xA0 SHL SUB SWAP1 SWAP2 AND DUP2 MSTORE PUSH1 0x20 SWAP1 RETURN JUMPDEST POP DUP1 REVERT JUMPDEST SWAP2 SWAP1 POP CALLVALUE PUSH2 0x1DA JUMPI PUSH1 0x20 CALLDATASIZE PUSH1 0x3 NOT ADD SLT PUSH2 0x1DA JUMPI DUP2 CALLDATALOAD PUSH1 0x1 PUSH1 0x1 PUSH1 0xA0 SHL SUB DUP2 AND SWAP3 SWAP1 DUP4 SWAP1 SUB PUSH2 0x1D6 JUMPI PUSH2 0x182 PUSH2 0x11DD JUMP JUMPDEST DUP3 ISZERO PUSH2 0x1C8 JUMPI POP PUSH1 0x6 DUP1 SLOAD PUSH1 0x1 PUSH1 0x1 PUSH1 0xA0 SHL SUB NOT AND DUP4 OR SWAP1 SSTORE MLOAD SWAP1 DUP2 MSTORE PUSH32 0x3FB20F2AF04F7289B523333F2B3E35C94FF35E8EC988AC7F666C9364228978B0 SWAP1 PUSH1 0x20 SWAP1 LOG1 DUP1 RETURN JUMPDEST SWAP1 MLOAD PUSH4 0xE6C4247B PUSH1 0xE0 SHL DUP2 MSTORE REVERT JUMPDEST DUP4 DUP1 REVERT JUMPDEST DUP3 DUP1 REVERT JUMPDEST SWAP2 SWAP1 POP CALLVALUE PUSH2 0x1DA JUMPI PUSH1 0x20 CALLDATASIZE PUSH1 0x3 NOT ADD SLT PUSH2 0x1DA JUMPI PUSH1 0x1 PUSH1 0x1 PUSH1 0xA0 SHL SUB DUP3 CALLDATALOAD DUP2 DUP2 AND SWAP4 SWAP2 SWAP3 SWAP1 DUP5 SWAP1 SUB PUSH2 0x26E JUMPI PUSH2 0x212 PUSH2 0x11DD JUMP JUMPDEST DUP4 ISZERO PUSH2 0x258 JUMPI POP POP PUSH1 0x0 SLOAD DUP3 PUSH1 0x1 PUSH1 0x1 PUSH1 0x60 SHL SUB PUSH1 0xA0 SHL DUP3 AND OR PUSH1 0x0 SSTORE AND PUSH32 0x8BE0079C531659141344CD1FD0A4F28419497F9722A3DAAFE3B4186F6B6457E0 PUSH1 0x0 DUP1 LOG3 DUP1 RETURN JUMPDEST MLOAD PUSH4 0x1E4FBDF7 PUSH1 0xE0 SHL DUP2 MSTORE SWAP1 DUP2 ADD DUP5 SWAP1 MSTORE PUSH1 0x24 SWAP1 REVERT JUMPDEST DUP5 DUP1 REVERT JUMPDEST SWAP2 SWAP1 POP CALLVALUE PUSH2 0x1DA JUMPI PUSH1 0x20 CALLDATASIZE PUSH1 0x3 NOT ADD SLT PUSH2 0x1DA JUMPI DUP2 CALLDATALOAD PUSH1 0x1 PUSH1 0x1 PUSH1 0xA0 SHL SUB DUP2 AND SWAP3 SWAP1 DUP4 SWAP1 SUB PUSH2 0x1D6 JUMPI PUSH2 0x2A3 PUSH2 0x11DD JUMP JUMPDEST DUP3 ISZERO PUSH2 0x1C8 JUMPI POP PUSH1 0x7 DUP1 SLOAD PUSH1 0x1 PUSH1 0x1 PUSH1 0xA0 SHL SUB NOT AND DUP4 OR SWAP1 SSTORE MLOAD SWAP1 DUP2 MSTORE PUSH32 0x7DAE230F18360D76A040C81F050AA14EB9D6DC7901B20FC5D855E2A20FE814D1 SWAP1 PUSH1 0x20 SWAP1 LOG1 DUP1 RETURN JUMPDEST DUP4 SWAP2 POP CALLVALUE PUSH2 0x14D JUMPI PUSH1 0x20 SWAP1 DUP2 PUSH1 0x3 NOT CALLDATASIZE ADD SLT PUSH2 0x1DA JUMPI PUSH1 0x1 PUSH1 0x1 PUSH1 0xA0 SHL SUB SWAP4 DUP2 CALLDATALOAD DUP6 DUP2 AND SWAP4 SWAP1 SWAP2 SWAP1 DUP5 DUP4 SUB PUSH2 0x9C5 JUMPI PUSH1 0x2 PUSH1 0x1 SLOAD EQ PUSH2 0x9B5 JUMPI PUSH1 0x2 PUSH1 0x1 SSTORE DUP5 DUP7 MSTORE PUSH1 0x8 DUP2 MSTORE PUSH1 0xFF DUP3 DUP8 KECCAK256 SLOAD AND PUSH2 0x9A5 JUMPI PUSH1 0x24 PUSH1 0xC0 DUP9 PUSH1 0x2 SLOAD AND DUP5 MLOAD SWAP3 DUP4 DUP1 SWAP3 PUSH4 0x74544E3B PUSH1 0xE1 SHL DUP3 MSTORE DUP11 DUP11 DUP4 ADD MSTORE GAS STATICCALL SWAP1 DUP2 ISZERO PUSH2 0x93F JUMPI DUP8 SWAP2 PUSH2 0x976 JUMPI JUMPDEST POP PUSH1 0x80 DUP2 ADD MLOAD ISZERO PUSH2 0x966 JUMPI PUSH2 0x3E8 DUP3 DUP2 DUP4 MLOAD LT SWAP3 DUP4 ISZERO PUSH2 0x959 JUMPI JUMPDEST POP POP POP PUSH2 0x949 JUMPI DUP6 SWAP7 DUP6 DUP8 MSTORE PUSH1 0x8 DUP3 MSTORE DUP3 DUP8 KECCAK256 PUSH1 0x1 PUSH1 0xFF NOT DUP3 SLOAD AND OR SWAP1 SSTORE DUP3 DUP2 PUSH1 0x2 SLOAD AND PUSH1 0x24 DUP3 MLOAD DUP1 SWAP12 DUP2 SWAP4 PUSH4 0x1629EDE9 PUSH1 0xE3 SHL DUP4 MSTORE DUP12 DUP12 DUP5 ADD MSTORE GAS CALL SWAP8 DUP9 ISZERO PUSH2 0x93F JUMPI DUP8 SWAP1 DUP9 SWAP10 PUSH2 0x906 JUMPI JUMPDEST POP DUP7 EXTCODESIZE ISZERO PUSH2 0x85A JUMPI DUP4 MLOAD PUSH4 0x40C10F19 PUSH1 0xE0 SHL DUP2 MSTORE ADDRESS DUP8 DUP3 ADD SWAP1 DUP2 MSTORE PUSH1 0x20 DUP2 ADD DUP12 SWAP1 MSTORE DUP10 SWAP1 DUP3 SWAP1 DUP2 SWAP1 PUSH1 0x40 ADD SUB DUP2 DUP4 DUP13 GAS CALL DUP1 ISZERO PUSH2 0x8CE JUMPI PUSH2 0x8D8 JUMPI JUMPDEST POP PUSH1 0x3 SLOAD DUP5 MLOAD PUSH4 0x95EA7B3 PUSH1 0xE0 SHL DUP2 MSTORE SWAP1 DUP4 AND PUSH1 0x1 PUSH1 0x1 PUSH1 0xA0 SHL SUB AND DUP8 DUP3 ADD SWAP1 DUP2 MSTORE PUSH1 0x20 DUP2 ADD DUP12 SWAP1 MSTORE DUP5 SWAP1 DUP3 SWAP1 DUP2 SWAP1 PUSH1 0x40 ADD SUB DUP2 DUP13 DUP13 GAS CALL DUP1 ISZERO PUSH2 0x8CE JUMPI PUSH2 0x896 JUMPI JUMPDEST POP PUSH1 0xB SLOAD PUSH2 0x2710 SWAP1 DUP2 SUB SWAP1 DUP1 DUP3 GT PUSH2 0x883 JUMPI PUSH2 0x476 DUP2 PUSH2 0x46E DUP5 DUP7 PUSH2 0x11B4 JUMP JUMPDEST DIV SWAP3 DUP13 PUSH2 0x11B4 JUMP JUMPDEST DIV DUP4 PUSH1 0x3 SLOAD AND SWAP2 PUSH2 0x12C TIMESTAMP ADD SWAP2 DUP3 TIMESTAMP GT PUSH2 0x870 JUMPI DUP13 SWAP7 SWAP6 SWAP5 PUSH1 0x60 SWAP5 DUP13 SWAP5 PUSH1 0xC4 SWAP5 DUP14 SWAP5 DUP13 MLOAD SWAP12 DUP13 SWAP9 DUP10 SWAP8 PUSH4 0xF305D719 PUSH1 0xE0 SHL DUP10 MSTORE DUP9 ADD MSTORE PUSH1 0x24 DUP8 ADD MSTORE PUSH1 0x44 DUP7 ADD MSTORE PUSH1 0x64 DUP6 ADD MSTORE ADDRESS PUSH1 0x84 DUP6 ADD MSTORE PUSH1 0xA4 DUP5 ADD MSTORE GAS CALL SWAP6 DUP7 ISZERO PUSH2 0x866 JUMPI DUP9 SWAP6 DUP10 SWAP5 DUP11 SWAP9 PUSH2 0x81E JUMPI JUMPDEST POP DUP8 ISZERO PUSH2 0x80F JUMPI DUP10 SWAP11 DUP4 DUP4 SLOAD AND SWAP2 DUP6 DUP6 PUSH1 0x5 SLOAD AND PUSH1 0x44 DUP14 DUP12 MLOAD SWAP7 DUP8 SWAP4 DUP5 SWAP3 PUSH4 0xE6A43905 PUSH1 0xE0 SHL DUP5 MSTORE DUP11 DUP5 ADD MSTORE PUSH1 0x24 DUP4 ADD MSTORE GAS STATICCALL SWAP3 DUP4 ISZERO PUSH2 0x805 JUMPI DUP9 DUP7 DUP15 DUP15 DUP15 SWAP5 DUP3 SWAP9 PUSH2 0x7D2 JUMPI JUMPDEST POP SWAP1 DUP4 SWAP2 DUP2 MSTORE PUSH1 0x9 DUP12 MSTORE KECCAK256 SWAP6 AND SWAP14 DUP15 SWAP6 DUP7 PUSH1 0x1 PUSH1 0x1 PUSH1 0x60 SHL SUB PUSH1 0xA0 SHL DUP3 SLOAD AND OR SWAP1 SSTORE PUSH1 0xA DUP10 MSTORE KECCAK256 SSTORE DUP13 DUP7 PUSH2 0x586 DUP8 PUSH1 0x6 SLOAD AND SWAP6 DUP14 DUP13 MLOAD SWAP5 DUP6 DUP1 SWAP5 DUP2 SWAP4 PUSH4 0xA9059CBB PUSH1 0xE0 SHL SWAP12 DUP13 DUP5 MSTORE DUP14 DUP5 ADD PUSH1 0x20 SWAP1 SWAP4 SWAP3 SWAP2 SWAP4 PUSH1 0x40 DUP2 ADD SWAP5 PUSH1 0x1 DUP1 PUSH1 0xA0 SHL SUB AND DUP2 MSTORE ADD MSTORE JUMP JUMPDEST SUB SWAP3 GAS CALL DUP1 ISZERO PUSH2 0x7C6 JUMPI PUSH2 0x78E JUMPI JUMPDEST POP DUP9 DUP3 SUB SWAP2 DUP1 DUP4 GT PUSH2 0x779 JUMPI DUP14 DUP13 DUP12 DUP10 SWAP4 SUB PUSH2 0x695 JUMPI JUMPDEST POP POP POP POP POP POP SELFBALANCE PUSH2 0x5F8 JUMPI JUMPDEST POP POP DUP3 MLOAD SWAP5 DUP6 MSTORE DUP5 ADD MSTORE DUP3 ADD MSTORE TIMESTAMP PUSH1 0x60 DUP3 ADD MSTORE PUSH32 0xAEA3D21FD3E325F1FB534C8FF520CEB18B97460A6A934B03758BB0CC89395670 SWAP1 PUSH1 0x80 SWAP1 LOG3 PUSH1 0x1 DUP1 SSTORE DUP1 RETURN JUMPDEST DUP10 SELFBALANCE SWAP3 DUP4 PUSH2 0x608 JUMPI JUMPDEST POP POP PUSH2 0x5B8 JUMP JUMPDEST DUP2 DUP1 DUP6 DUP2 SWAP4 PUSH1 0x7 SLOAD AND GAS CALL PUSH2 0x61B PUSH2 0x1028 JUMP JUMPDEST POP ISZERO PUSH2 0x687 JUMPI POP SWAP2 DUP4 SWAP2 PUSH32 0x51EB5AA877B3D80E186F9A323C6DCE052491963271D09EE40615D0BB182359D5 DUP4 PUSH1 0x80 SWAP8 SWAP6 PUSH32 0xAEA3D21FD3E325F1FB534C8FF520CEB18B97460A6A934B03758BB0CC89395670 SWAP10 SWAP8 MLOAD SWAP1 PUSH1 0x0 DUP3 MSTORE DUP5 DUP3 ADD MSTORE LOG1 SWAP2 SWAP4 SWAP6 DUP2 SWAP4 SWAP6 POP DUP10 DUP12 PUSH2 0x601 JUMP JUMPDEST DUP5 MLOAD PUSH4 0x12171D83 PUSH1 0xE3 SHL DUP2 MSTORE REVERT JUMPDEST PUSH1 0x7 SLOAD DUP12 MLOAD SWAP7 DUP8 MSTORE DUP9 AND PUSH1 0x1 PUSH1 0x1 PUSH1 0xA0 SHL SUB AND DUP8 DUP8 ADD SWAP1 DUP2 MSTORE PUSH1 0x20 DUP2 ADD DUP7 SWAP1 MSTORE DUP7 SWAP3 DUP4 SWAP2 DUP3 SWAP1 PUSH1 0x40 ADD SUB SWAP3 GAS CALL DUP1 ISZERO PUSH2 0x76F JUMPI PUSH2 0x717 JUMPI JUMPDEST DUP8 MLOAD PUSH1 0x1 PUSH1 0x1 PUSH1 0xA0 SHL SUB SWAP2 SWAP1 SWAP2 AND DUP2 MSTORE PUSH1 0x20 DUP2 ADD SWAP2 SWAP1 SWAP2 MSTORE PUSH32 0x51EB5AA877B3D80E186F9A323C6DCE052491963271D09EE40615D0BB182359D5 SWAP2 POP PUSH1 0x40 SWAP1 LOG1 DUP11 DUP1 DUP1 DUP6 DUP14 DUP13 PUSH2 0x5AC JUMP JUMPDEST DUP6 DUP4 DUP2 RETURNDATASIZE DUP4 GT PUSH2 0x768 JUMPI JUMPDEST PUSH2 0x72C DUP2 DUP4 PUSH2 0xFDE JUMP JUMPDEST DUP2 ADD SUB SLT PUSH2 0x764 JUMPI PUSH2 0x75E PUSH32 0x51EB5AA877B3D80E186F9A323C6DCE052491963271D09EE40615D0BB182359D5 SWAP4 PUSH2 0x1016 JUMP JUMPDEST POP PUSH2 0x6CD JUMP JUMPDEST DUP13 DUP1 REVERT JUMPDEST POP RETURNDATASIZE PUSH2 0x722 JUMP JUMPDEST DUP9 MLOAD RETURNDATASIZE DUP16 DUP3 RETURNDATACOPY RETURNDATASIZE SWAP1 REVERT JUMPDEST PUSH1 0x11 DUP6 PUSH4 0x4E487B71 PUSH1 0xE0 SHL PUSH1 0x0 MSTORE MSTORE PUSH1 0x24 PUSH1 0x0 REVERT JUMPDEST DUP7 DUP2 DUP2 RETURNDATASIZE DUP4 GT PUSH2 0x7BF JUMPI JUMPDEST PUSH2 0x7A3 DUP2 DUP4 PUSH2 0xFDE JUMP JUMPDEST DUP2 ADD SUB SLT PUSH2 0x7BB JUMPI PUSH2 0x7B4 SWAP1 PUSH2 0x1016 JUMP JUMPDEST POP DUP14 PUSH2 0x595 JUMP JUMPDEST DUP14 DUP1 REVERT JUMPDEST POP RETURNDATASIZE PUSH2 0x799 JUMP JUMPDEST DUP15 DUP11 MLOAD SWAP1 RETURNDATASIZE SWAP1 DUP3 RETURNDATACOPY RETURNDATASIZE SWAP1 REVERT JUMPDEST DUP5 SWAP3 SWAP2 SWAP9 POP PUSH2 0x7F6 SWAP1 DUP13 DUP14 RETURNDATASIZE LT PUSH2 0x7FE JUMPI JUMPDEST PUSH2 0x7EE DUP2 DUP4 PUSH2 0xFDE JUMP JUMPDEST DUP2 ADD SWAP1 PUSH2 0x1195 JUMP JUMPDEST SWAP8 SWAP1 SWAP2 PUSH2 0x521 JUMP JUMPDEST POP RETURNDATASIZE PUSH2 0x7E4 JUMP JUMPDEST DUP9 MLOAD RETURNDATASIZE DUP15 DUP3 RETURNDATACOPY RETURNDATASIZE SWAP1 REVERT JUMPDEST POP DUP5 MLOAD PUSH4 0x513DFED1 PUSH1 0xE1 SHL DUP2 MSTORE REVERT JUMPDEST SWAP7 POP SWAP7 POP SWAP3 POP PUSH1 0x60 DUP6 RETURNDATASIZE PUSH1 0x60 GT PUSH2 0x85E JUMPI JUMPDEST DUP2 PUSH2 0x83D PUSH1 0x60 SWAP4 DUP4 PUSH2 0xFDE JUMP JUMPDEST DUP2 ADD SUB SLT PUSH2 0x85A JUMPI DUP5 MLOAD SWAP3 DUP5 DUP4 DUP8 ADD MLOAD SWAP7 ADD MLOAD SWAP4 SWAP6 SWAP4 SWAP7 DUP12 PUSH2 0x4DA JUMP JUMPDEST DUP8 DUP1 REVERT JUMPDEST RETURNDATASIZE SWAP2 POP PUSH2 0x830 JUMP JUMPDEST DUP5 MLOAD RETURNDATASIZE DUP11 DUP3 RETURNDATACOPY RETURNDATASIZE SWAP1 REVERT JUMPDEST PUSH4 0x4E487B71 PUSH1 0xE0 SHL DUP13 MSTORE PUSH1 0x11 DUP11 MSTORE PUSH1 0x24 DUP13 REVERT JUMPDEST PUSH4 0x4E487B71 PUSH1 0xE0 SHL DUP11 MSTORE PUSH1 0x11 DUP9 MSTORE PUSH1 0x24 DUP11 REVERT JUMPDEST DUP4 DUP2 DUP2 RETURNDATASIZE DUP4 GT PUSH2 0x8C7 JUMPI JUMPDEST PUSH2 0x8AB DUP2 DUP4 PUSH2 0xFDE JUMP JUMPDEST DUP2 ADD SUB SLT PUSH2 0x8C3 JUMPI PUSH2 0x8BC SWAP1 PUSH2 0x1016 JUMP JUMPDEST POP DUP10 PUSH2 0x44E JUMP JUMPDEST DUP9 DUP1 REVERT JUMPDEST POP RETURNDATASIZE PUSH2 0x8A1 JUMP JUMPDEST DUP6 MLOAD RETURNDATASIZE DUP12 DUP3 RETURNDATACOPY RETURNDATASIZE SWAP1 REVERT JUMPDEST PUSH8 0xFFFFFFFFFFFFFFFF DUP2 SWAP10 SWAP3 SWAP10 GT PUSH2 0x8F3 JUMPI DUP5 MSTORE SWAP7 DUP10 PUSH2 0x40B JUMP JUMPDEST PUSH4 0x4E487B71 PUSH1 0xE0 SHL DUP3 MSTORE PUSH1 0x41 DUP8 MSTORE PUSH1 0x24 DUP3 REVERT JUMPDEST DUP1 SWAP10 POP DUP5 DUP1 SWAP3 POP RETURNDATASIZE DUP4 GT PUSH2 0x938 JUMPI JUMPDEST PUSH2 0x91F DUP2 DUP4 PUSH2 0xFDE JUMP JUMPDEST DUP2 ADD SUB SLT PUSH2 0x934 JUMPI DUP2 DUP9 MLOAD SWAP9 ADD MLOAD SWAP8 DUP10 PUSH2 0x3CF JUMP JUMPDEST DUP7 DUP1 REVERT JUMPDEST POP RETURNDATASIZE PUSH2 0x915 JUMP JUMPDEST DUP4 MLOAD RETURNDATASIZE DUP10 DUP3 RETURNDATACOPY RETURNDATASIZE SWAP1 REVERT JUMPDEST DUP2 MLOAD PUSH4 0xBB55FD27 PUSH1 0xE0 SHL DUP2 MSTORE DUP5 SWAP1 REVERT JUMPDEST ADD MLOAD LT SWAP1 POP DUP9 DUP3 DUP2 PUSH2 0x382 JUMP JUMPDEST DUP3 MLOAD PUSH4 0x18CAAFEB PUSH1 0xE0 SHL DUP2 MSTORE DUP6 SWAP1 REVERT JUMPDEST PUSH2 0x998 SWAP2 POP PUSH1 0xC0 RETURNDATASIZE PUSH1 0xC0 GT PUSH2 0x99E JUMPI JUMPDEST PUSH2 0x990 DUP2 DUP4 PUSH2 0xFDE JUMP JUMPDEST DUP2 ADD SWAP1 PUSH2 0x1068 JUMP JUMPDEST DUP9 PUSH2 0x367 JUMP JUMPDEST POP RETURNDATASIZE PUSH2 0x986 JUMP JUMPDEST DUP2 MLOAD PUSH4 0x32870F2F PUSH1 0xE2 SHL DUP2 MSTORE DUP5 SWAP1 REVERT JUMPDEST DUP2 MLOAD PUSH4 0x3EE5AEB5 PUSH1 0xE0 SHL DUP2 MSTORE DUP5 SWAP1 REVERT JUMPDEST DUP6 DUP1 REVERT JUMPDEST SWAP1 POP CALLVALUE PUSH2 0x1DA JUMPI DUP3 PUSH1 0x3 NOT CALLDATASIZE ADD SLT PUSH2 0x1DA JUMPI SLOAD SWAP1 MLOAD PUSH1 0x1 PUSH1 0x1 PUSH1 0xA0 SHL SUB SWAP1 SWAP2 AND DUP2 MSTORE PUSH1 0x20 SWAP2 POP RETURN JUMPDEST DUP4 SWAP2 POP CALLVALUE PUSH2 0x14D JUMPI PUSH1 0x20 CALLDATASIZE PUSH1 0x3 NOT ADD SLT PUSH2 0x14D JUMPI CALLDATALOAD PUSH1 0x1 PUSH1 0x1 PUSH1 0xA0 SHL SUB DUP2 DUP2 AND SWAP4 SWAP2 DUP5 SWAP1 SUB PUSH2 0x1DA JUMPI PUSH1 0x60 SWAP4 DUP4 MSTORE PUSH1 0x9 PUSH1 0x20 MSTORE DUP2 DUP4 KECCAK256 SLOAD AND SWAP2 PUSH1 0xA PUSH1 0x20 MSTORE PUSH1 0xFF DUP3 DUP1 DUP4 KECCAK256 SLOAD SWAP3 PUSH1 0x8 PUSH1 0x20 MSTORE KECCAK256 SLOAD AND SWAP1 DUP3 MLOAD SWAP4 DUP5 MSTORE PUSH1 0x20 DUP5 ADD MSTORE ISZERO ISZERO SWAP1 DUP3 ADD MSTORE RETURN JUMPDEST SWAP1 POP CALLVALUE PUSH2 0x1DA JUMPI PUSH1 0x20 CALLDATASIZE PUSH1 0x3 NOT ADD SLT PUSH2 0x1DA JUMPI DUP1 CALLDATALOAD PUSH1 0x1 PUSH1 0x1 PUSH1 0xA0 SHL SUB DUP2 DUP2 AND SWAP3 SWAP2 DUP4 SWAP1 SUB PUSH2 0x26E JUMPI PUSH2 0xA83 PUSH2 0x11DD JUMP JUMPDEST DUP3 ISZERO PUSH2 0xB23 JUMPI PUSH1 0x1 PUSH1 0x1 PUSH1 0x60 SHL SUB PUSH1 0xA0 SHL SWAP1 DUP4 DUP3 PUSH1 0x3 SLOAD AND OR PUSH1 0x3 SSTORE DUP5 MLOAD PUSH4 0xC45A0155 PUSH1 0xE0 SHL DUP2 MSTORE PUSH1 0x20 DUP2 DUP6 DUP2 DUP9 GAS STATICCALL SWAP1 DUP2 ISZERO PUSH2 0xB19 JUMPI SWAP2 PUSH32 0x7AED1D3E8155A07CCF395E44EA3109A0E2D6C9B29BBBE9F142D9790596F4DC80 SWAP7 SWAP4 SWAP2 PUSH1 0x20 SWAP7 SWAP6 SWAP4 DUP10 SWAP2 PUSH2 0xAFC JUMPI JUMPDEST POP AND SWAP1 DUP3 SLOAD AND OR SWAP1 SSTORE MLOAD SWAP1 DUP2 MSTORE LOG1 DUP1 RETURN JUMPDEST PUSH2 0xB13 SWAP2 POP DUP8 RETURNDATASIZE DUP10 GT PUSH2 0x7FE JUMPI PUSH2 0x7EE DUP2 DUP4 PUSH2 0xFDE JUMP JUMPDEST CODESIZE PUSH2 0xAEB JUMP JUMPDEST DUP7 MLOAD RETURNDATASIZE DUP10 DUP3 RETURNDATACOPY RETURNDATASIZE SWAP1 REVERT JUMPDEST POP DUP3 MLOAD PUSH4 0xE6C4247B PUSH1 0xE0 SHL DUP2 MSTORE REVERT JUMPDEST POP POP CALLVALUE PUSH2 0x14D JUMPI DUP2 PUSH1 0x3 NOT CALLDATASIZE ADD SLT PUSH2 0x14D JUMPI PUSH1 0x6 SLOAD SWAP1 MLOAD PUSH1 0x1 PUSH1 0x1 PUSH1 0xA0 SHL SUB SWAP1 SWAP2 AND DUP2 MSTORE PUSH1 0x20 SWAP1 RETURN JUMPDEST POP POP CALLVALUE PUSH2 0x14D JUMPI DUP2 PUSH1 0x3 NOT CALLDATASIZE ADD SLT PUSH2 0x14D JUMPI SWAP1 SLOAD SWAP1 MLOAD PUSH1 0x1 PUSH1 0x1 PUSH1 0xA0 SHL SUB SWAP1 SWAP2 AND DUP2 MSTORE PUSH1 0x20 SWAP1 RETURN JUMPDEST POP POP CALLVALUE PUSH2 0x14D JUMPI DUP2 PUSH1 0x3 NOT CALLDATASIZE ADD SLT PUSH2 0x14D JUMPI PUSH1 0x5 SLOAD SWAP1 MLOAD PUSH1 0x1 PUSH1 0x1 PUSH1 0xA0 SHL SUB SWAP1 SWAP2 AND DUP2 MSTORE PUSH1 0x20 SWAP1 RETURN JUMPDEST POP POP CALLVALUE PUSH2 0x14D JUMPI DUP2 PUSH1 0x3 NOT CALLDATASIZE ADD SLT PUSH2 0x14D JUMPI PUSH1 0x2 SLOAD SWAP1 MLOAD PUSH1 0x1 PUSH1 0x1 PUSH1 0xA0 SHL SUB SWAP1 SWAP2 AND DUP2 MSTORE PUSH1 0x20 SWAP1 RETURN JUMPDEST SWAP1 POP CALLVALUE PUSH2 0x1DA JUMPI PUSH1 0x20 CALLDATASIZE PUSH1 0x3 NOT ADD SLT PUSH2 0x1DA JUMPI CALLDATALOAD SWAP2 PUSH1 0x1 PUSH1 0x1 PUSH1 0xA0 SHL SUB DUP4 AND DUP4 SUB PUSH2 0xC0F JUMPI POP PUSH2 0xC06 PUSH1 0x20 SWAP3 PUSH2 0x10D9 JUMP JUMPDEST SWAP1 MLOAD SWAP1 ISZERO ISZERO DUP2 MSTORE RETURN JUMPDEST DUP1 REVERT JUMPDEST SWAP1 POP CALLVALUE PUSH2 0x1DA JUMPI PUSH1 0x20 CALLDATASIZE PUSH1 0x3 NOT ADD SLT PUSH2 0x1DA JUMPI CALLDATALOAD PUSH1 0x1 PUSH1 0x1 PUSH1 0xA0 SHL SUB DUP2 AND SWAP1 DUP2 SWAP1 SUB PUSH2 0x1DA JUMPI DUP3 DUP3 SWAP2 PUSH1 0x20 SWAP5 MSTORE PUSH1 0xA DUP5 MSTORE KECCAK256 SLOAD SWAP1 MLOAD SWAP1 DUP2 MSTORE RETURN JUMPDEST DUP4 CALLVALUE PUSH2 0xC0F JUMPI DUP1 PUSH1 0x3 NOT CALLDATASIZE ADD SLT PUSH2 0xC0F JUMPI PUSH2 0xC65 PUSH2 0x11DD JUMP JUMPDEST DUP1 SLOAD PUSH1 0x1 PUSH1 0x1 PUSH1 0xA0 SHL SUB NOT DUP2 AND DUP3 SSTORE DUP2 SWAP1 PUSH1 0x1 PUSH1 0x1 PUSH1 0xA0 SHL SUB AND PUSH32 0x8BE0079C531659141344CD1FD0A4F28419497F9722A3DAAFE3B4186F6B6457E0 DUP3 DUP1 LOG3 DUP1 RETURN JUMPDEST SWAP2 SWAP1 POP CALLVALUE PUSH2 0x1DA JUMPI DUP3 PUSH1 0x20 DUP1 PUSH1 0x3 NOT CALLDATASIZE ADD SLT PUSH2 0x14D JUMPI PUSH1 0x1 PUSH1 0x1 PUSH1 0xA0 SHL SUB SWAP1 DUP5 CALLDATALOAD DUP3 DUP2 AND SWAP1 DUP2 SWAP1 SUB PUSH2 0x1D6 JUMPI PUSH2 0xCDA PUSH2 0x11DD JUMP JUMPDEST DUP1 PUSH2 0xD0C JUMPI POP POP DUP2 DUP1 DUP1 SWAP3 DUP2 SLOAD AND SELFBALANCE SWAP1 GAS CALL PUSH2 0xCF4 PUSH2 0x1028 JUMP JUMPDEST POP ISZERO PUSH2 0xCFF JUMPI POP POP DUP1 RETURN JUMPDEST MLOAD PUSH4 0x12171D83 PUSH1 0xE3 SHL DUP2 MSTORE REVERT JUMPDEST DUP5 MLOAD PUSH4 0x70A08231 PUSH1 0xE0 SHL DUP2 MSTORE ADDRESS DUP2 DUP9 ADD MSTORE SWAP4 SWAP6 SWAP2 SWAP5 SWAP4 SWAP2 DUP6 DUP4 PUSH1 0x24 DUP2 DUP6 GAS STATICCALL SWAP3 DUP4 ISZERO PUSH2 0xE08 JUMPI DUP8 SWAP4 PUSH2 0xDD9 JUMPI JUMPDEST POP DUP3 PUSH2 0xD4A JUMPI JUMPDEST POP POP POP POP POP POP POP DUP1 RETURN JUMPDEST DUP7 SLOAD DUP6 MLOAD PUSH4 0xA9059CBB PUSH1 0xE0 SHL DUP2 MSTORE SWAP5 AND PUSH1 0x1 PUSH1 0x1 PUSH1 0xA0 SHL SUB AND SWAP1 DUP5 ADD SWAP1 DUP2 MSTORE PUSH1 0x20 DUP2 ADD SWAP3 SWAP1 SWAP3 MSTORE SWAP2 SWAP5 DUP5 SWAP3 DUP7 SWAP3 SWAP1 SWAP2 DUP4 SWAP2 DUP3 SWAP1 PUSH1 0x40 ADD SUB SWAP3 GAS CALL SWAP1 DUP2 ISZERO PUSH2 0xDD0 JUMPI POP PUSH2 0xD9C JUMPI JUMPDEST DUP1 DUP1 DUP1 DUP1 DUP7 SWAP6 PUSH2 0xD40 JUMP JUMPDEST DUP2 DUP2 RETURNDATASIZE DUP4 GT PUSH2 0xDC9 JUMPI JUMPDEST PUSH2 0xDB0 DUP2 DUP4 PUSH2 0xFDE JUMP JUMPDEST DUP2 ADD SUB SLT PUSH2 0x14D JUMPI PUSH2 0xDC1 SWAP1 PUSH2 0x1016 JUMP JUMPDEST POP CODESIZE DUP1 PUSH2 0xD91 JUMP JUMPDEST POP RETURNDATASIZE PUSH2 0xDA6 JUMP JUMPDEST MLOAD RETURNDATASIZE DUP6 DUP3 RETURNDATACOPY RETURNDATASIZE SWAP1 REVERT JUMPDEST SWAP1 SWAP3 POP DUP6 DUP2 DUP2 RETURNDATASIZE DUP4 GT PUSH2 0xE01 JUMPI JUMPDEST PUSH2 0xDF1 DUP2 DUP4 PUSH2 0xFDE JUMP JUMPDEST DUP2 ADD SUB SLT PUSH2 0x934 JUMPI MLOAD SWAP2 CODESIZE PUSH2 0xD39 JUMP JUMPDEST POP RETURNDATASIZE PUSH2 0xDE7 JUMP JUMPDEST DUP6 MLOAD RETURNDATASIZE DUP10 DUP3 RETURNDATACOPY RETURNDATASIZE SWAP1 REVERT JUMPDEST SWAP1 POP CALLVALUE PUSH2 0x1DA JUMPI PUSH1 0x20 CALLDATASIZE PUSH1 0x3 NOT ADD SLT PUSH2 0x1DA JUMPI DUP1 CALLDATALOAD PUSH1 0x1 PUSH1 0x1 PUSH1 0xA0 SHL SUB DUP2 AND SWAP3 SWAP1 DUP4 SWAP1 SUB PUSH2 0x1D6 JUMPI PUSH2 0xE42 PUSH2 0x11DD JUMP JUMPDEST DUP3 ISZERO PUSH2 0xE60 JUMPI POP POP PUSH1 0x1 PUSH1 0x1 PUSH1 0x60 SHL SUB PUSH1 0xA0 SHL PUSH1 0x2 SLOAD AND OR PUSH1 0x2 SSTORE DUP1 RETURN JUMPDEST MLOAD PUSH4 0xE6C4247B PUSH1 0xE0 SHL DUP2 MSTORE REVERT JUMPDEST POP POP CALLVALUE PUSH2 0x14D JUMPI DUP2 PUSH1 0x3 NOT CALLDATASIZE ADD SLT PUSH2 0x14D JUMPI PUSH1 0x7 SLOAD SWAP1 MLOAD PUSH1 0x1 PUSH1 0x1 PUSH1 0xA0 SHL SUB SWAP1 SWAP2 AND DUP2 MSTORE PUSH1 0x20 SWAP1 RETURN JUMPDEST POP POP CALLVALUE PUSH2 0x14D JUMPI DUP2 PUSH1 0x3 NOT CALLDATASIZE ADD SLT PUSH2 0x14D JUMPI PUSH1 0x20 SWAP1 PUSH1 0xB SLOAD SWAP1 MLOAD SWAP1 DUP2 MSTORE RETURN JUMPDEST SWAP1 POP CALLVALUE PUSH2 0x1DA JUMPI PUSH1 0x20 CALLDATASIZE PUSH1 0x3 NOT ADD SLT PUSH2 0x1DA JUMPI CALLDATALOAD PUSH1 0x1 PUSH1 0x1 PUSH1 0xA0 SHL SUB DUP2 AND SWAP1 DUP2 SWAP1 SUB PUSH2 0x1DA JUMPI DUP2 DUP4 PUSH1 0xFF SWAP3 PUSH1 0x20 SWAP6 MSTORE PUSH1 0x8 DUP6 MSTORE KECCAK256 SLOAD AND SWAP1 MLOAD SWAP1 ISZERO ISZERO DUP2 MSTORE RETURN JUMPDEST SWAP1 POP CALLVALUE PUSH2 0x1DA JUMPI PUSH1 0x20 CALLDATASIZE PUSH1 0x3 NOT ADD SLT PUSH2 0x1DA JUMPI PUSH1 0x1 PUSH1 0x1 PUSH1 0xA0 SHL SUB SWAP1 CALLDATALOAD DUP2 DUP2 AND SWAP1 DUP2 SWAP1 SUB PUSH2 0x1D6 JUMPI DUP4 DUP4 SWAP2 PUSH1 0x20 SWAP6 MSTORE PUSH1 0x9 DUP6 MSTORE KECCAK256 SLOAD AND SWAP1 MLOAD SWAP1 DUP2 MSTORE RETURN JUMPDEST POP POP CALLVALUE PUSH2 0x14D JUMPI DUP2 PUSH1 0x3 NOT CALLDATASIZE ADD SLT PUSH2 0x14D JUMPI PUSH1 0x20 SWAP1 MLOAD PUSH2 0x3E8 DUP2 MSTORE RETURN JUMPDEST SWAP2 SWAP1 POP CALLVALUE PUSH2 0x1DA JUMPI PUSH1 0x20 CALLDATASIZE PUSH1 0x3 NOT ADD SLT PUSH2 0x1DA JUMPI DUP2 CALLDATALOAD SWAP2 PUSH2 0xF6D PUSH2 0x11DD JUMP JUMPDEST PUSH2 0x3E8 DUP4 GT PUSH2 0xFA8 JUMPI POP DUP2 PUSH1 0x20 SWAP2 PUSH32 0xF5A802650E0A86DB227CC342F06327D2CA0FF5CF2B12E0084FC5D8A7DB2C54FD SWAP4 PUSH1 0xB SSTORE MLOAD SWAP1 DUP2 MSTORE LOG1 DUP1 RETURN JUMPDEST PUSH1 0x20 PUSH1 0x64 SWAP3 MLOAD SWAP2 PUSH3 0x461BCD PUSH1 0xE5 SHL DUP4 MSTORE DUP3 ADD MSTORE PUSH1 0x11 PUSH1 0x24 DUP3 ADD MSTORE PUSH17 0xA6D8D2E0E0C2CECA40E8DEDE40D0D2CED PUSH1 0x7B SHL PUSH1 0x44 DUP3 ADD MSTORE REVERT JUMPDEST SWAP1 PUSH1 0x1F DUP1 NOT SWAP2 ADD AND DUP2 ADD SWAP1 DUP2 LT PUSH8 0xFFFFFFFFFFFFFFFF DUP3 GT OR PUSH2 0x1000 JUMPI PUSH1 0x40 MSTORE JUMP JUMPDEST PUSH4 0x4E487B71 PUSH1 0xE0 SHL PUSH1 0x0 MSTORE PUSH1 0x41 PUSH1 0x4 MSTORE PUSH1 0x24 PUSH1 0x0 REVERT JUMPDEST MLOAD SWAP1 DUP2 ISZERO ISZERO DUP3 SUB PUSH2 0x1023 JUMPI JUMP JUMPDEST PUSH1 0x0 DUP1 REVERT JUMPDEST RETURNDATASIZE ISZERO PUSH2 0x1063 JUMPI RETURNDATASIZE SWAP1 PUSH8 0xFFFFFFFFFFFFFFFF DUP3 GT PUSH2 0x1000 JUMPI PUSH1 0x40 MLOAD SWAP2 PUSH2 0x1057 PUSH1 0x1F DUP3 ADD PUSH1 0x1F NOT AND PUSH1 0x20 ADD DUP5 PUSH2 0xFDE JUMP JUMPDEST DUP3 MSTORE RETURNDATASIZE PUSH1 0x0 PUSH1 0x20 DUP5 ADD RETURNDATACOPY JUMP JUMPDEST PUSH1 0x60 SWAP1 JUMP JUMPDEST SWAP1 DUP2 PUSH1 0xC0 SWAP2 SUB SLT PUSH2 0x1023 JUMPI PUSH1 0x40 MLOAD SWAP1 PUSH1 0xC0 DUP3 ADD DUP3 DUP2 LT PUSH8 0xFFFFFFFFFFFFFFFF DUP3 GT OR PUSH2 0x1000 JUMPI PUSH2 0x10D1 SWAP2 PUSH1 0xA0 SWAP2 PUSH1 0x40 MSTORE DUP1 MLOAD DUP5 MSTORE PUSH1 0x20 DUP2 ADD MLOAD PUSH1 0x20 DUP6 ADD MSTORE PUSH1 0x40 DUP2 ADD MLOAD PUSH1 0x40 DUP6 ADD MSTORE PUSH1 0x60 DUP2 ADD MLOAD PUSH1 0x60 DUP6 ADD MSTORE PUSH2 0x10C6 PUSH1 0x80 DUP3 ADD PUSH2 0x1016 JUMP JUMPDEST PUSH1 0x80 DUP6 ADD MSTORE ADD PUSH2 0x1016 JUMP JUMPDEST PUSH1 0xA0 DUP3 ADD MSTORE SWAP1 JUMP JUMPDEST PUSH1 0x1 PUSH1 0x1 PUSH1 0xA0 SHL SUB SWAP1 DUP2 AND PUSH1 0x0 DUP2 DUP2 MSTORE PUSH1 0x8 PUSH1 0x20 MSTORE PUSH1 0x40 SWAP1 KECCAK256 SLOAD SWAP1 SWAP2 SWAP1 PUSH1 0xFF AND PUSH2 0x118E JUMPI PUSH1 0xC0 SWAP1 PUSH1 0x2 SLOAD AND SWAP2 PUSH1 0x24 PUSH1 0x40 MLOAD DUP1 SWAP5 DUP2 SWAP4 PUSH4 0x74544E3B PUSH1 0xE1 SHL DUP4 MSTORE PUSH1 0x4 DUP4 ADD MSTORE GAS STATICCALL SWAP1 DUP2 ISZERO PUSH2 0x1182 JUMPI PUSH1 0x0 SWAP2 PUSH2 0x1163 JUMPI JUMPDEST POP PUSH1 0x80 DUP2 ADD MLOAD ISZERO ISZERO SWAP1 DUP2 PUSH2 0x1154 JUMPI JUMPDEST DUP2 PUSH2 0x1146 JUMPI POP SWAP1 JUMP JUMPDEST PUSH2 0x3E8 SWAP2 POP PUSH1 0x20 ADD MLOAD LT ISZERO SWAP1 JUMP JUMPDEST SWAP1 POP PUSH2 0x3E8 DUP2 MLOAD LT ISZERO SWAP1 PUSH2 0x113D JUMP JUMPDEST PUSH2 0x117C SWAP2 POP PUSH1 0xC0 RETURNDATASIZE PUSH1 0xC0 GT PUSH2 0x99E JUMPI PUSH2 0x990 DUP2 DUP4 PUSH2 0xFDE JUMP JUMPDEST CODESIZE PUSH2 0x112E JUMP JUMPDEST PUSH1 0x40 MLOAD RETURNDATASIZE PUSH1 0x0 DUP3 RETURNDATACOPY RETURNDATASIZE SWAP1 REVERT JUMPDEST POP POP PUSH1 0x0 SWAP1 JUMP JUMPDEST SWAP1 DUP2 PUSH1 0x20 SWAP2 SUB SLT PUSH2 0x1023 JUMPI MLOAD PUSH1 0x1 PUSH1 0x1 PUSH1 0xA0 SHL SUB DUP2 AND DUP2 SUB PUSH2 0x1023 JUMPI SWAP1 JUMP JUMPDEST DUP2 DUP2 MUL SWAP3 SWAP2 DUP2 ISZERO SWAP2 DUP5 DIV EQ OR ISZERO PUSH2 0x11C7 JUMPI JUMP JUMPDEST PUSH4 0x4E487B71 PUSH1 0xE0 SHL PUSH1 0x0 MSTORE PUSH1 0x11 PUSH1 0x4 MSTORE PUSH1 0x24 PUSH1 0x0 REVERT JUMPDEST PUSH1 0x0 SLOAD PUSH1 0x1 PUSH1 0x1 PUSH1 0xA0 SHL SUB AND CALLER SUB PUSH2 0x11F1 JUMPI JUMP JUMPDEST PUSH1 0x40 MLOAD PUSH4 0x118CDAA7 PUSH1 0xE0 SHL DUP2 MSTORE CALLER PUSH1 0x4 DUP3 ADD MSTORE PUSH1 0x24 SWAP1 REVERT INVALID LOG2 PUSH5 0x6970667358 0x22 SLT KECCAK256 RETURN POP 0xEB PUSH19 0x8C4E309E31360370D366DADE45C8285531D007 0xBA CALLDATASIZE 0xB1 CALLDATASIZE 0xD DUP6 SWAP4 PUSH26 0x6764736F6C634300081800330000000000000000000000000000 "},"methodIdentifiers":{"MIN_LIQUIDITY()":"21b77d63","canMigrate(address)":"7de07cea","emergencyWithdraw(address)":"6ff1c9bc","factory()":"c45a0155","getMigrationInfo(address)":"c2d64ec6","lpAmounts(address)":"73660e8e","lpLockAddress()":"98d62404","market()":"80f55605","migrate(address)":"ce5494bb","migrated(address)":"4ba0a5ee","owner()":"8da5cb5b","renounceOwnership()":"715018a6","router()":"f887ea40","setLpLockAddress(address)":"f3ec37c2","setMarket(address)":"6dcea85f","setRouter(address)":"c0d78655","setSlippageBps(uint256)":"1a3ce4e6","setTreasury(address)":"f0f44260","slippageBps()":"578c71d9","tokenPairs(address)":"47bbbdf5","transferOwnership(address)":"f2fde38b","treasury()":"61d027b3","wbnb()":"8d72647e"}}}}}