{"contracts/HoneycombAIAgentRegistry.sol":{"HoneycombAIAgentRegistry":{"abi":[{"inputs":[],"stateMutability":"nonpayable","type":"constructor"},{"inputs":[],"name":"AccessControlBadConfirmation","type":"error"},{"inputs":[{"internalType":"address","name":"account","type":"address"},{"internalType":"bytes32","name":"neededRole","type":"bytes32"}],"name":"AccessControlUnauthorizedAccount","type":"error"},{"inputs":[],"name":"AgentNotActive","type":"error"},{"inputs":[],"name":"AgentNotFound","type":"error"},{"inputs":[],"name":"InvalidCID","type":"error"},{"inputs":[],"name":"InvalidPayoutAddress","type":"error"},{"inputs":[],"name":"InvalidPrice","type":"error"},{"inputs":[],"name":"NotAgentOwner","type":"error"},{"inputs":[],"name":"ReentrancyGuardReentrantCall","type":"error"},{"anonymous":false,"inputs":[{"indexed":true,"internalType":"uint256","name":"agentId","type":"uint256"},{"indexed":false,"internalType":"uint256","name":"timestamp","type":"uint256"}],"name":"AgentActivated","type":"event"},{"anonymous":false,"inputs":[{"indexed":true,"internalType":"uint256","name":"agentId","type":"uint256"},{"indexed":true,"internalType":"address","name":"owner","type":"address"},{"indexed":false,"internalType":"address","name":"payoutAddress","type":"address"},{"indexed":false,"internalType":"string","name":"metadataCID","type":"string"},{"indexed":false,"internalType":"enum HoneycombAIAgentRegistry.PricingType","name":"pricingType","type":"uint8"},{"indexed":false,"internalType":"uint256","name":"priceWeiPerUnit","type":"uint256"},{"indexed":false,"internalType":"uint256","name":"timestamp","type":"uint256"}],"name":"AgentCreated","type":"event"},{"anonymous":false,"inputs":[{"indexed":true,"internalType":"uint256","name":"agentId","type":"uint256"},{"indexed":false,"internalType":"uint256","name":"timestamp","type":"uint256"}],"name":"AgentDeactivated","type":"event"},{"anonymous":false,"inputs":[{"indexed":true,"internalType":"uint256","name":"agentId","type":"uint256"},{"indexed":false,"internalType":"enum HoneycombAIAgentRegistry.PricingType","name":"pricingType","type":"uint8"},{"indexed":false,"internalType":"uint256","name":"priceWeiPerUnit","type":"uint256"},{"indexed":false,"internalType":"uint256","name":"timestamp","type":"uint256"}],"name":"AgentPricingUpdated","type":"event"},{"anonymous":false,"inputs":[{"indexed":true,"internalType":"uint256","name":"agentId","type":"uint256"},{"indexed":true,"internalType":"address","name":"verifier","type":"address"},{"indexed":false,"internalType":"uint256","name":"timestamp","type":"uint256"}],"name":"AgentUnverified","type":"event"},{"anonymous":false,"inputs":[{"indexed":true,"internalType":"uint256","name":"agentId","type":"uint256"},{"indexed":false,"internalType":"string","name":"metadataCID","type":"string"},{"indexed":false,"internalType":"uint256","name":"timestamp","type":"uint256"}],"name":"AgentUpdated","type":"event"},{"anonymous":false,"inputs":[{"indexed":true,"internalType":"uint256","name":"agentId","type":"uint256"},{"indexed":true,"internalType":"address","name":"verifier","type":"address"},{"indexed":false,"internalType":"uint256","name":"timestamp","type":"uint256"}],"name":"AgentVerified","type":"event"},{"anonymous":false,"inputs":[{"indexed":true,"internalType":"bytes32","name":"role","type":"bytes32"},{"indexed":true,"internalType":"bytes32","name":"previousAdminRole","type":"bytes32"},{"indexed":true,"internalType":"bytes32","name":"newAdminRole","type":"bytes32"}],"name":"RoleAdminChanged","type":"event"},{"anonymous":false,"inputs":[{"indexed":true,"internalType":"bytes32","name":"role","type":"bytes32"},{"indexed":true,"internalType":"address","name":"account","type":"address"},{"indexed":true,"internalType":"address","name":"sender","type":"address"}],"name":"RoleGranted","type":"event"},{"anonymous":false,"inputs":[{"indexed":true,"internalType":"bytes32","name":"role","type":"bytes32"},{"indexed":true,"internalType":"address","name":"account","type":"address"},{"indexed":true,"internalType":"address","name":"sender","type":"address"}],"name":"RoleRevoked","type":"event"},{"anonymous":false,"inputs":[{"indexed":true,"internalType":"uint256","name":"agentId","type":"uint256"},{"indexed":false,"internalType":"uint256","name":"units","type":"uint256"},{"indexed":false,"internalType":"uint256","name":"earningsWei","type":"uint256"},{"indexed":false,"internalType":"uint256","name":"timestamp","type":"uint256"}],"name":"UsageRecorded","type":"event"},{"inputs":[],"name":"ADMIN_ROLE","outputs":[{"internalType":"bytes32","name":"","type":"bytes32"}],"stateMutability":"view","type":"function"},{"inputs":[],"name":"DEFAULT_ADMIN_ROLE","outputs":[{"internalType":"bytes32","name":"","type":"bytes32"}],"stateMutability":"view","type":"function"},{"inputs":[],"name":"VERIFIER_ROLE","outputs":[{"internalType":"bytes32","name":"","type":"bytes32"}],"stateMutability":"view","type":"function"},{"inputs":[{"internalType":"uint256","name":"agentId","type":"uint256"}],"name":"activateAgent","outputs":[],"stateMutability":"nonpayable","type":"function"},{"inputs":[{"internalType":"uint256","name":"","type":"uint256"}],"name":"agentExists","outputs":[{"internalType":"bool","name":"","type":"bool"}],"stateMutability":"view","type":"function"},{"inputs":[{"internalType":"uint256","name":"","type":"uint256"}],"name":"agents","outputs":[{"internalType":"uint256","name":"id","type":"uint256"},{"internalType":"address","name":"owner","type":"address"},{"internalType":"address","name":"payoutAddress","type":"address"},{"internalType":"string","name":"metadataCID","type":"string"},{"components":[{"internalType":"enum HoneycombAIAgentRegistry.PricingType","name":"pricingType","type":"uint8"},{"internalType":"uint256","name":"priceWeiPerUnit","type":"uint256"}],"internalType":"struct HoneycombAIAgentRegistry.PricingModel","name":"pricing","type":"tuple"},{"internalType":"uint256","name":"createdAt","type":"uint256"},{"internalType":"uint256","name":"updatedAt","type":"uint256"},{"internalType":"bool","name":"verified","type":"bool"},{"internalType":"bool","name":"active","type":"bool"},{"internalType":"uint256","name":"totalUsageUnits","type":"uint256"},{"internalType":"uint256","name":"totalEarningsWei","type":"uint256"}],"stateMutability":"view","type":"function"},{"inputs":[{"internalType":"uint256","name":"agentId","type":"uint256"},{"internalType":"uint256","name":"units","type":"uint256"}],"name":"calculateCost","outputs":[{"internalType":"uint256","name":"","type":"uint256"}],"stateMutability":"view","type":"function"},{"inputs":[{"internalType":"string","name":"metadataCID","type":"string"},{"internalType":"address","name":"payoutAddress","type":"address"},{"internalType":"enum HoneycombAIAgentRegistry.PricingType","name":"pricingType","type":"uint8"},{"internalType":"uint256","name":"priceWeiPerUnit","type":"uint256"}],"name":"createAgent","outputs":[{"internalType":"uint256","name":"agentId","type":"uint256"}],"stateMutability":"nonpayable","type":"function"},{"inputs":[{"internalType":"uint256","name":"agentId","type":"uint256"}],"name":"deactivateAgent","outputs":[],"stateMutability":"nonpayable","type":"function"},{"inputs":[{"internalType":"uint256","name":"agentId","type":"uint256"}],"name":"getAgent","outputs":[{"components":[{"internalType":"uint256","name":"id","type":"uint256"},{"internalType":"address","name":"owner","type":"address"},{"internalType":"address","name":"payoutAddress","type":"address"},{"internalType":"string","name":"metadataCID","type":"string"},{"components":[{"internalType":"enum HoneycombAIAgentRegistry.PricingType","name":"pricingType","type":"uint8"},{"internalType":"uint256","name":"priceWeiPerUnit","type":"uint256"}],"internalType":"struct HoneycombAIAgentRegistry.PricingModel","name":"pricing","type":"tuple"},{"internalType":"uint256","name":"createdAt","type":"uint256"},{"internalType":"uint256","name":"updatedAt","type":"uint256"},{"internalType":"bool","name":"verified","type":"bool"},{"internalType":"bool","name":"active","type":"bool"},{"internalType":"uint256","name":"totalUsageUnits","type":"uint256"},{"internalType":"uint256","name":"totalEarningsWei","type":"uint256"}],"internalType":"struct HoneycombAIAgentRegistry.AIAgent","name":"","type":"tuple"}],"stateMutability":"view","type":"function"},{"inputs":[{"internalType":"uint256","name":"agentId","type":"uint256"}],"name":"getAgentPricing","outputs":[{"components":[{"internalType":"enum HoneycombAIAgentRegistry.PricingType","name":"pricingType","type":"uint8"},{"internalType":"uint256","name":"priceWeiPerUnit","type":"uint256"}],"internalType":"struct HoneycombAIAgentRegistry.PricingModel","name":"","type":"tuple"}],"stateMutability":"view","type":"function"},{"inputs":[{"internalType":"address","name":"owner","type":"address"}],"name":"getAgentsByOwner","outputs":[{"internalType":"uint256[]","name":"","type":"uint256[]"}],"stateMutability":"view","type":"function"},{"inputs":[{"internalType":"bytes32","name":"role","type":"bytes32"}],"name":"getRoleAdmin","outputs":[{"internalType":"bytes32","name":"","type":"bytes32"}],"stateMutability":"view","type":"function"},{"inputs":[{"internalType":"bytes32","name":"role","type":"bytes32"},{"internalType":"address","name":"account","type":"address"}],"name":"grantRole","outputs":[],"stateMutability":"nonpayable","type":"function"},{"inputs":[{"internalType":"bytes32","name":"role","type":"bytes32"},{"internalType":"address","name":"account","type":"address"}],"name":"hasRole","outputs":[{"internalType":"bool","name":"","type":"bool"}],"stateMutability":"view","type":"function"},{"inputs":[{"internalType":"uint256","name":"agentId","type":"uint256"}],"name":"isAgentActive","outputs":[{"internalType":"bool","name":"","type":"bool"}],"stateMutability":"view","type":"function"},{"inputs":[{"internalType":"address","name":"","type":"address"},{"internalType":"uint256","name":"","type":"uint256"}],"name":"ownerAgents","outputs":[{"internalType":"uint256","name":"","type":"uint256"}],"stateMutability":"view","type":"function"},{"inputs":[{"internalType":"uint256","name":"agentId","type":"uint256"}],"name":"ownerOf","outputs":[{"internalType":"address","name":"","type":"address"}],"stateMutability":"view","type":"function"},{"inputs":[{"internalType":"uint256","name":"agentId","type":"uint256"},{"internalType":"uint256","name":"units","type":"uint256"},{"internalType":"uint256","name":"earningsWei","type":"uint256"}],"name":"recordUsage","outputs":[],"stateMutability":"nonpayable","type":"function"},{"inputs":[{"internalType":"bytes32","name":"role","type":"bytes32"},{"internalType":"address","name":"callerConfirmation","type":"address"}],"name":"renounceRole","outputs":[],"stateMutability":"nonpayable","type":"function"},{"inputs":[{"internalType":"bytes32","name":"role","type":"bytes32"},{"internalType":"address","name":"account","type":"address"}],"name":"revokeRole","outputs":[],"stateMutability":"nonpayable","type":"function"},{"inputs":[{"internalType":"bytes4","name":"interfaceId","type":"bytes4"}],"name":"supportsInterface","outputs":[{"internalType":"bool","name":"","type":"bool"}],"stateMutability":"view","type":"function"},{"inputs":[],"name":"totalAgents","outputs":[{"internalType":"uint256","name":"","type":"uint256"}],"stateMutability":"view","type":"function"},{"inputs":[{"internalType":"uint256","name":"agentId","type":"uint256"}],"name":"unverifyAgent","outputs":[],"stateMutability":"nonpayable","type":"function"},{"inputs":[{"internalType":"uint256","name":"agentId","type":"uint256"},{"internalType":"string","name":"metadataCID","type":"string"}],"name":"updateAgentMetadata","outputs":[],"stateMutability":"nonpayable","type":"function"},{"inputs":[{"internalType":"uint256","name":"agentId","type":"uint256"},{"internalType":"enum HoneycombAIAgentRegistry.PricingType","name":"pricingType","type":"uint8"},{"internalType":"uint256","name":"priceWeiPerUnit","type":"uint256"}],"name":"updateAgentPricing","outputs":[],"stateMutability":"nonpayable","type":"function"},{"inputs":[{"internalType":"uint256","name":"agentId","type":"uint256"},{"internalType":"address","name":"newPayoutAddress","type":"address"}],"name":"updatePayoutAddress","outputs":[],"stateMutability":"nonpayable","type":"function"},{"inputs":[{"internalType":"uint256","name":"agentId","type":"uint256"}],"name":"verifyAgent","outputs":[],"stateMutability":"nonpayable","type":"function"}],"evm":{"bytecode":{"linkReferences":{},"object":"60806040523462000047576001805560016002556200001e336200004c565b506200002a33620000cc565b5062000036336200016e565b5060405161191a90816200020c8239f35b600080fd5b6001600160a01b031660008181527fad3228b676f7d3cd4284a5443f17f1962b36e491b30a40b2405849e597ba5fb5602052604081205490919060ff16620000c857818052816020526040822081835260205260408220600160ff19825416179055339160008051602062001b268339815191528180a4600190565b5090565b6001600160a01b031660008181527f7d7ffb7a348e1c6a02869081a26547b49160dd3df72d1d75a570eb9b698292ec60205260408120549091907fa49807205ce4d355092ef5a8a18f56e8913cf4a201fbe287825b095693c217759060ff166200016957808352826020526040832082845260205260408320600160ff1982541617905560008051602062001b26833981519152339380a4600190565b505090565b6001600160a01b031660008181527f1da0b5176dfe03406af5a6eed66ca01dda9b45ac4da671c3fa379cb93717ef8160205260408120549091907f0ce23c3e399818cfee81a7ab0880f714e53d7672b08df0fa62f2843416e1ea099060ff166200016957808352826020526040832082845260205260408320600160ff1982541617905560008051602062001b26833981519152339380a460019056fe608080604052600436101561001357600080fd5b60003560e01c90816301ffc9a7146114325750806311ba6b4a1461138d5780631ab6f888146112d9578063248a9ca3146112aa5780632743553914610ee05780632de5aaf714610cf85780632f2ff15d14610cb957806336568abe14610c72578063392d2d8e14610c245780634e12dbd714610af2578063513856c814610a11578063534451c81461096057806362febe4f146109085780636352211e146108ba5780636f4ea56a1461078f578063731f4c601461071e57806375b238fc146106e357806391d14854146106965780639563f046146106055780639964c10c14610577578063a217fddf1461055b578063c505371214610530578063ce394696146104bf578063d11257d014610416578063d547741f146103d5578063de99f157146103a4578063e7705db6146103695763ed72e9991461015357600080fd5b346103645760403660031901126103645767ffffffffffffffff600435602435828111610364576101889036906004016114b1565b919061019261174c565b816000526020926005845260ff604060002054161561035257826000526003845260019360018060a01b03856040600020015416330361034057811561032e5783600052600381526003604060002001958211610318576101fd826101f7885461152c565b886116c8565b600095601f83116001146102945761025083807f150cd089408b0f5f4a0002310b75a112412f1bc8d9d4463e97da392283893a16979899600091610289575b508160011b916000199060031b1c19161790565b90555b84600052600381524260076040600020015561027c60405193849360408552604085019161171e565b9042908301520390a28055005b90508601353861023c565b601f1983169681600052826000209760005b818110610303575090847f150cd089408b0f5f4a0002310b75a112412f1bc8d9d4463e97da392283893a1697989992106102e9575b50508683811b019055610253565b850135600019600386901b60f8161c1916905538806102db565b868301358a55988801989184019184016102a6565b634e487b7160e01b600052604160045260246000fd5b604051633875d9bd60e21b8152600490fd5b604051630e41dcbf60e21b8152600490fd5b60405163e93ba22360e01b8152600490fd5b600080fd5b346103645760003660031901126103645760206040517f0ce23c3e399818cfee81a7ab0880f714e53d7672b08df0fa62f2843416e1ea098152f35b34610364576020366003190112610364576004356000526005602052602060ff604060002054166040519015158152f35b34610364576040366003190112610364576104146004356103f461149b565b9080600052600060205261040f6001604060002001546117cb565b61186f565b005b346103645760203660031901126103645760043561043261174c565b80600052600560205260ff6040600020541615610352576000818152600360205260409020600101546001600160a01b031633036103405780600052600360205260406000206008810161010061ff00198254161790556007429101557f03abac2578332336ba401702eae8ea0f10b2a42716cc3faa7cb509ee3d63f50a6020604051428152a260018055005b34610364576040366003190112610364576004356024359080600052600560205260ff604060002054161561035257600052600360205260056040600020015481810291818304149015171561051a57602090604051908152f35b634e487b7160e01b600052601160045260246000fd5b3461036457600036600319011261036457600254600019810190811161051a57602090604051908152f35b3461036457600036600319011261036457602060405160008152f35b346103645760203660031901126103645760043561059361176f565b61059b61174c565b80600052600560205260ff60406000205416156103525780600052600360205260406000206008810160ff198154169055600742910155604051904282527f83934406f3a14535859059ec85cc79140b871327a4984a9a977f6d61bf76f06760203393a360018055005b346103645760203660031901126103645760043561062161176f565b61062961174c565b80600052600560205260ff604060002054161561035257806000526003602052604060002060088101600160ff19825416179055600742910155604051904282527f10c9ebb251a79ec4896311bccd4b2dc337d0d1a0032096ba1e63325ce972d37760203393a360018055005b34610364576040366003190112610364576106af61149b565b600435600052600060205260406000209060018060a01b0316600052602052602060ff604060002054166040519015158152f35b346103645760003660031901126103645760206040517fa49807205ce4d355092ef5a8a18f56e8913cf4a201fbe287825b095693c217758152f35b3461036457602080600319360112610364576004359060008160405161074381611566565b8281520152816000526005815260ff6040600020541615610352576040916000526003815261077760048360002001611672565b908083519261078784825161151f565b015190820152f35b34610364576060366003190112610364573360009081527f7d7ffb7a348e1c6a02869081a26547b49160dd3df72d1d75a570eb9b698292ec60209081526040909120546004359160443591602435907fa49807205ce4d355092ef5a8a18f56e8913cf4a201fbe287825b095693c217759060ff161561089c575061081161174c565b836000526005825260ff6040600020541615610352577feaab2658e61a52ed505263c32acae2e61ea8d6b6e9b5824475d27cf4279e134a926060928560005260038152600960406000200161086784825461173f565b90558560005260038152600a60406000200161088483825461173f565b9055604051928352820152426040820152a260018055005b6044906040519063e2517d3f60e01b82523360048301526024820152fd5b346103645760203660031901126103645760043580600052600560205260ff6040600020541615610352576000526003602052602060018060a01b0360016040600020015416604051908152f35b3461036457604036600319011261036457610921611485565b6001600160a01b0316600090815260046020526040902080546024359190821015610364576020916109529161169a565b90546040519160031b1c8152f35b346103645760403660031901126103645760043561097c61149b565b61098461174c565b81600052600560205260ff6040600020541615610352576000828152600360205260409020600101546001600160a01b0391908216330361034057169081156109ff57600052600360205260406000209060028201906bffffffffffffffffffffffff60a01b82541617905560074291015560018055600080f35b6040516305ca16c960e51b8152600490fd5b3461036457602036600319011261036457600435600052600360205260406000206020815460018060a01b039283600182015416936002820154169060ff610a5b600383016115c1565b93610a6860048401611672565b94600684015487610aab600787015493600888015495600a60098a0154990154996040519d8e9d8e610180948152015260408d01528060608d01528b01906114df565b97610aba60808b01825161151f565b015160a089015260c088015260e0870152818116151561010087015260081c1615156101208501526101408401526101608301520390f35b3461036457606036600319011261036457600435602435600381101561036457604435610b1d61174c565b826000526020916005835260ff60406000205416156103525760008481526003845260409020600101546001600160a01b03163303610340578115610c135760405191610b6983611566565b610b738284611666565b83830193818552856000526003815260406000206004810194516003811015610bfd577f753fbe1f2a2b8837fdf6d561bf19afca99664f27a16a19093277aba6590cc2fe9660609660059260ff8019835416911617905551910155856000526003815242600760406000200155610bed604051809461151f565b820152426040820152a260018055005b634e487b7160e01b600052602160045260246000fd5b60405162bfc92160e01b8152600490fd5b346103645760203660031901126103645760043580600052600560205260ff6040600020541615610352576000526003602052602060ff60086040600020015460081c166040519015158152f35b3461036457604036600319011261036457610c8b61149b565b336001600160a01b03821603610ca7576104149060043561186f565b60405163334bd91960e11b8152600490fd5b3461036457604036600319011261036457610414600435610cd861149b565b90806000526000602052610cf36001604060002001546117cb565b6117f1565b34610364576020366003190112610364576004356000610140604051610d1d81611582565b828152826020820152826040820152606080820152604051610d3e81611566565b83815283602082015260808201528260a08201528260c08201528260e08201528261010082015282610120820152015280600052600560205260ff60406000205416156103525760005260036020526040600020600a60405191610da183611582565b8054835260018101546001600160a01b0390811660208501526002820154166040840152610dd1600382016115c1565b6060840152610de260048201611672565b6080840152600681015460a0840152600781015460c084015260ff6008820154818116151560e086015260081c161515610100840152600981015461012084015201546101408201526040518091602082528051602083015260018060a01b03602082015116604083015260018060a01b0360408201511660608301526060810151610140610e7f610180928360808701526101a08601906114df565b9260206080820151610e9560a08801825161151f565b015160c086015260a081015160e086015260c081015161010086015260e081015115156101208601526101008101511515828601526101208101516101608601520151908301520390f35b346103645760803660031901126103645760043567ffffffffffffffff811161036457610f119036906004016114b1565b610f1961149b565b6003604435101561036457610f2c61174c565b811561032e576001600160a01b038116156109ff5760643515610c135760025491600019831461051a5760018301600255604051610f6981611566565b610f7560443582611666565b606435602082015260405190610f8a82611582565b8482523360208301526001600160a01b038416604083015267ffffffffffffffff831161031857604051610fc8601f8501601f19166020018261159f565b83815236848801116103645783876020830137600060208583010152606083015260808201524260a08201524260c0820152600060e0820152600161010082015260006101208201526000610140820152836000526003602052604060002090805182556001820160018060a01b03602083015116906bffffffffffffffffffffffff60a01b9182825416179055600283019060018060a01b0360408401511690825416179055606081015180519067ffffffffffffffff8211610318576110a082611097600387015461152c565b600387016116c8565b602090601f8311600114611238576110d192916000918361122d575b50508160011b916000199060031b1c19161790565b60038301555b60808101518051916003831015610bfd57602061014092600a9460ff801960048901541691161760048701550151600585015560a0810151600685015560c081015160078501556008840160e08201511515815460ff61ff00610100860151151560081b1692169061ffff1916171790556101208101516009850155015191015533600052600460205260406000208054680100000000000000008110156103185760209585936111b2837f5209ebb9a387c66673961c3d49840f355486f16787ddd972555d970c18eaadc39560016111fd9601815561169a565b81549060031b9087821b91600019901b191617905584600052600588526040600020600160ff198254161790556040519560018060a01b0316865260a08887015260a086019161171e565b9261120d6040820160443561151f565b60643560608201524260808201528033940390a360018055604051908152f35b0151905089806110bc565b9190600385016000526020600020906000935b601f198416851061128f576001945083601f19811610611276575b505050811b0160038301556110d7565b015160001960f88460031b161c19169055888080611266565b8181015183556020948501946001909301929091019061124b565b346103645760203660031901126103645760043560005260006020526020600160406000200154604051908152f35b3461036457602080600319360112610364576001600160a01b036112fb611485565b1660005260048152604060002060405190818382549182815201908192600052846000209060005b868282106113795786866113398288038361159f565b604051928392818401908285525180915260408401929160005b82811061136257505050500390f35b835185528695509381019392810192600101611353565b835485529093019260019283019201611323565b34610364576020366003190112610364576004356113a961174c565b80600052600560205260ff6040600020541615610352576000818152600360205260409020600101546001600160a01b031633036103405780600052600360205260406000206008810161ff001981541690556007429101557f0b69d5ec2a1fb8f6ccb495208da819a90a3ba49eabd4e1ff66ba3ad7425c0f3e6020604051428152a260018055005b34610364576020366003190112610364576004359063ffffffff60e01b821680920361036457602091637965db0b60e01b8114908115611474575b5015158152f35b6301ffc9a760e01b1490508361146d565b600435906001600160a01b038216820361036457565b602435906001600160a01b038216820361036457565b9181601f840112156103645782359167ffffffffffffffff8311610364576020838186019501011161036457565b919082519283825260005b84811061150b575050826000602080949584010152601f8019910116010190565b6020818301810151848301820152016114ea565b906003821015610bfd5752565b90600182811c9216801561155c575b602083101461154657565b634e487b7160e01b600052602260045260246000fd5b91607f169161153b565b6040810190811067ffffffffffffffff82111761031857604052565b610160810190811067ffffffffffffffff82111761031857604052565b90601f8019910116810190811067ffffffffffffffff82111761031857604052565b906040519182600082546115d48161152c565b908184526020946001916001811690816000146116445750600114611605575b5050506116039250038361159f565b565b600090815285812095935091905b81831061162c57505061160393508201013880806115f4565b85548884018501529485019487945091830191611613565b9250505061160394925060ff191682840152151560051b8201013880806115f4565b6003821015610bfd5752565b9060405161167f81611566565b60206001829461169360ff82541685611666565b0154910152565b80548210156116b25760005260206000200190600090565b634e487b7160e01b600052603260045260246000fd5b90601f81116116d657505050565b6000916000526020600020906020601f850160051c83019410611714575b601f0160051c01915b82811061170957505050565b8181556001016116fd565b90925082906116f4565b908060209392818452848401376000828201840152601f01601f1916010190565b9190820180921161051a57565b60026001541461175d576002600155565b604051633ee5aeb560e01b8152600490fd5b3360009081527f1da0b5176dfe03406af5a6eed66ca01dda9b45ac4da671c3fa379cb93717ef8160205260409020547f0ce23c3e399818cfee81a7ab0880f714e53d7672b08df0fa62f2843416e1ea099060ff161561089c5750565b80600052600060205260406000203360005260205260ff604060002054161561089c5750565b9060009180835282602052604083209160018060a01b03169182845260205260ff6040842054161560001461186a57808352826020526040832082845260205260408320600160ff198254161790557f2f8788117e7eff1d82e926ec794901d17c78024a50270940304540a733656f0d339380a4600190565b505090565b9060009180835282602052604083209160018060a01b03169182845260205260ff60408420541660001461186a5780835282602052604083208284526020526040832060ff1981541690557ff6391f5c32d9c69d2a47ea670b442974b53935d1edc7fd64eb21e047a839171b339380a460019056fea26469706673582212207fc84ad2cdffc4c8e563dee28dd213acc5b238d8b295cc52108a3038fc971e0564736f6c634300081800332f8788117e7eff1d82e926ec794901d17c78024a50270940304540a733656f0d","opcodes":"PUSH1 0x80 PUSH1 0x40 MSTORE CALLVALUE PUSH3 0x47 JUMPI PUSH1 0x1 DUP1 SSTORE PUSH1 0x1 PUSH1 0x2 SSTORE PUSH3 0x1E CALLER PUSH3 0x4C JUMP JUMPDEST POP PUSH3 0x2A CALLER PUSH3 0xCC JUMP JUMPDEST POP PUSH3 0x36 CALLER PUSH3 0x16E JUMP JUMPDEST POP PUSH1 0x40 MLOAD PUSH2 0x191A SWAP1 DUP2 PUSH3 0x20C DUP3 CODECOPY RETURN JUMPDEST PUSH1 0x0 DUP1 REVERT JUMPDEST PUSH1 0x1 PUSH1 0x1 PUSH1 0xA0 SHL SUB AND PUSH1 0x0 DUP2 DUP2 MSTORE PUSH32 0xAD3228B676F7D3CD4284A5443F17F1962B36E491B30A40B2405849E597BA5FB5 PUSH1 0x20 MSTORE PUSH1 0x40 DUP2 KECCAK256 SLOAD SWAP1 SWAP2 SWAP1 PUSH1 0xFF AND PUSH3 0xC8 JUMPI DUP2 DUP1 MSTORE DUP2 PUSH1 0x20 MSTORE PUSH1 0x40 DUP3 KECCAK256 DUP2 DUP4 MSTORE PUSH1 0x20 MSTORE PUSH1 0x40 DUP3 KECCAK256 PUSH1 0x1 PUSH1 0xFF NOT DUP3 SLOAD AND OR SWAP1 SSTORE CALLER SWAP2 PUSH1 0x0 DUP1 MLOAD PUSH1 0x20 PUSH3 0x1B26 DUP4 CODECOPY DUP2 MLOAD SWAP2 MSTORE DUP2 DUP1 LOG4 PUSH1 0x1 SWAP1 JUMP JUMPDEST POP SWAP1 JUMP JUMPDEST PUSH1 0x1 PUSH1 0x1 PUSH1 0xA0 SHL SUB AND PUSH1 0x0 DUP2 DUP2 MSTORE PUSH32 0x7D7FFB7A348E1C6A02869081A26547B49160DD3DF72D1D75A570EB9B698292EC PUSH1 0x20 MSTORE PUSH1 0x40 DUP2 KECCAK256 SLOAD SWAP1 SWAP2 SWAP1 PUSH32 0xA49807205CE4D355092EF5A8A18F56E8913CF4A201FBE287825B095693C21775 SWAP1 PUSH1 0xFF AND PUSH3 0x169 JUMPI DUP1 DUP4 MSTORE DUP3 PUSH1 0x20 MSTORE PUSH1 0x40 DUP4 KECCAK256 DUP3 DUP5 MSTORE PUSH1 0x20 MSTORE PUSH1 0x40 DUP4 KECCAK256 PUSH1 0x1 PUSH1 0xFF NOT DUP3 SLOAD AND OR SWAP1 SSTORE PUSH1 0x0 DUP1 MLOAD PUSH1 0x20 PUSH3 0x1B26 DUP4 CODECOPY DUP2 MLOAD SWAP2 MSTORE CALLER SWAP4 DUP1 LOG4 PUSH1 0x1 SWAP1 JUMP JUMPDEST POP POP SWAP1 JUMP JUMPDEST PUSH1 0x1 PUSH1 0x1 PUSH1 0xA0 SHL SUB AND PUSH1 0x0 DUP2 DUP2 MSTORE PUSH32 0x1DA0B5176DFE03406AF5A6EED66CA01DDA9B45AC4DA671C3FA379CB93717EF81 PUSH1 0x20 MSTORE PUSH1 0x40 DUP2 KECCAK256 SLOAD SWAP1 SWAP2 SWAP1 PUSH32 0xCE23C3E399818CFEE81A7AB0880F714E53D7672B08DF0FA62F2843416E1EA09 SWAP1 PUSH1 0xFF AND PUSH3 0x169 JUMPI DUP1 DUP4 MSTORE DUP3 PUSH1 0x20 MSTORE PUSH1 0x40 DUP4 KECCAK256 DUP3 DUP5 MSTORE PUSH1 0x20 MSTORE PUSH1 0x40 DUP4 KECCAK256 PUSH1 0x1 PUSH1 0xFF NOT DUP3 SLOAD AND OR SWAP1 SSTORE PUSH1 0x0 DUP1 MLOAD PUSH1 0x20 PUSH3 0x1B26 DUP4 CODECOPY DUP2 MLOAD SWAP2 MSTORE CALLER SWAP4 DUP1 LOG4 PUSH1 0x1 SWAP1 JUMP INVALID PUSH1 0x80 DUP1 PUSH1 0x40 MSTORE PUSH1 0x4 CALLDATASIZE LT ISZERO PUSH2 0x13 JUMPI PUSH1 0x0 DUP1 REVERT JUMPDEST PUSH1 0x0 CALLDATALOAD PUSH1 0xE0 SHR SWAP1 DUP2 PUSH4 0x1FFC9A7 EQ PUSH2 0x1432 JUMPI POP DUP1 PUSH4 0x11BA6B4A EQ PUSH2 0x138D JUMPI DUP1 PUSH4 0x1AB6F888 EQ PUSH2 0x12D9 JUMPI DUP1 PUSH4 0x248A9CA3 EQ PUSH2 0x12AA JUMPI DUP1 PUSH4 0x27435539 EQ PUSH2 0xEE0 JUMPI DUP1 PUSH4 0x2DE5AAF7 EQ PUSH2 0xCF8 JUMPI DUP1 PUSH4 0x2F2FF15D EQ PUSH2 0xCB9 JUMPI DUP1 PUSH4 0x36568ABE EQ PUSH2 0xC72 JUMPI DUP1 PUSH4 0x392D2D8E EQ PUSH2 0xC24 JUMPI DUP1 PUSH4 0x4E12DBD7 EQ PUSH2 0xAF2 JUMPI DUP1 PUSH4 0x513856C8 EQ PUSH2 0xA11 JUMPI DUP1 PUSH4 0x534451C8 EQ PUSH2 0x960 JUMPI DUP1 PUSH4 0x62FEBE4F EQ PUSH2 0x908 JUMPI DUP1 PUSH4 0x6352211E EQ PUSH2 0x8BA JUMPI DUP1 PUSH4 0x6F4EA56A EQ PUSH2 0x78F JUMPI DUP1 PUSH4 0x731F4C60 EQ PUSH2 0x71E JUMPI DUP1 PUSH4 0x75B238FC EQ PUSH2 0x6E3 JUMPI DUP1 PUSH4 0x91D14854 EQ PUSH2 0x696 JUMPI DUP1 PUSH4 0x9563F046 EQ PUSH2 0x605 JUMPI DUP1 PUSH4 0x9964C10C EQ PUSH2 0x577 JUMPI DUP1 PUSH4 0xA217FDDF EQ PUSH2 0x55B JUMPI DUP1 PUSH4 0xC5053712 EQ PUSH2 0x530 JUMPI DUP1 PUSH4 0xCE394696 EQ PUSH2 0x4BF JUMPI DUP1 PUSH4 0xD11257D0 EQ PUSH2 0x416 JUMPI DUP1 PUSH4 0xD547741F EQ PUSH2 0x3D5 JUMPI DUP1 PUSH4 0xDE99F157 EQ PUSH2 0x3A4 JUMPI DUP1 PUSH4 0xE7705DB6 EQ PUSH2 0x369 JUMPI PUSH4 0xED72E999 EQ PUSH2 0x153 JUMPI PUSH1 0x0 DUP1 REVERT JUMPDEST CALLVALUE PUSH2 0x364 JUMPI PUSH1 0x40 CALLDATASIZE PUSH1 0x3 NOT ADD SLT PUSH2 0x364 JUMPI PUSH8 0xFFFFFFFFFFFFFFFF PUSH1 0x4 CALLDATALOAD PUSH1 0x24 CALLDATALOAD DUP3 DUP2 GT PUSH2 0x364 JUMPI PUSH2 0x188 SWAP1 CALLDATASIZE SWAP1 PUSH1 0x4 ADD PUSH2 0x14B1 JUMP JUMPDEST SWAP2 SWAP1 PUSH2 0x192 PUSH2 0x174C JUMP JUMPDEST DUP2 PUSH1 0x0 MSTORE PUSH1 0x20 SWAP3 PUSH1 0x5 DUP5 MSTORE PUSH1 0xFF PUSH1 0x40 PUSH1 0x0 KECCAK256 SLOAD AND ISZERO PUSH2 0x352 JUMPI DUP3 PUSH1 0x0 MSTORE PUSH1 0x3 DUP5 MSTORE PUSH1 0x1 SWAP4 PUSH1 0x1 DUP1 PUSH1 0xA0 SHL SUB DUP6 PUSH1 0x40 PUSH1 0x0 KECCAK256 ADD SLOAD AND CALLER SUB PUSH2 0x340 JUMPI DUP2 ISZERO PUSH2 0x32E JUMPI DUP4 PUSH1 0x0 MSTORE PUSH1 0x3 DUP2 MSTORE PUSH1 0x3 PUSH1 0x40 PUSH1 0x0 KECCAK256 ADD SWAP6 DUP3 GT PUSH2 0x318 JUMPI PUSH2 0x1FD DUP3 PUSH2 0x1F7 DUP9 SLOAD PUSH2 0x152C JUMP JUMPDEST DUP9 PUSH2 0x16C8 JUMP JUMPDEST PUSH1 0x0 SWAP6 PUSH1 0x1F DUP4 GT PUSH1 0x1 EQ PUSH2 0x294 JUMPI PUSH2 0x250 DUP4 DUP1 PUSH32 0x150CD089408B0F5F4A0002310B75A112412F1BC8D9D4463E97DA392283893A16 SWAP8 SWAP9 SWAP10 PUSH1 0x0 SWAP2 PUSH2 0x289 JUMPI JUMPDEST POP DUP2 PUSH1 0x1 SHL SWAP2 PUSH1 0x0 NOT SWAP1 PUSH1 0x3 SHL SHR NOT AND OR SWAP1 JUMP JUMPDEST SWAP1 SSTORE JUMPDEST DUP5 PUSH1 0x0 MSTORE PUSH1 0x3 DUP2 MSTORE TIMESTAMP PUSH1 0x7 PUSH1 0x40 PUSH1 0x0 KECCAK256 ADD SSTORE PUSH2 0x27C PUSH1 0x40 MLOAD SWAP4 DUP5 SWAP4 PUSH1 0x40 DUP6 MSTORE PUSH1 0x40 DUP6 ADD SWAP2 PUSH2 0x171E JUMP JUMPDEST SWAP1 TIMESTAMP SWAP1 DUP4 ADD MSTORE SUB SWAP1 LOG2 DUP1 SSTORE STOP JUMPDEST SWAP1 POP DUP7 ADD CALLDATALOAD CODESIZE PUSH2 0x23C JUMP JUMPDEST PUSH1 0x1F NOT DUP4 AND SWAP7 DUP2 PUSH1 0x0 MSTORE DUP3 PUSH1 0x0 KECCAK256 SWAP8 PUSH1 0x0 JUMPDEST DUP2 DUP2 LT PUSH2 0x303 JUMPI POP SWAP1 DUP5 PUSH32 0x150CD089408B0F5F4A0002310B75A112412F1BC8D9D4463E97DA392283893A16 SWAP8 SWAP9 SWAP10 SWAP3 LT PUSH2 0x2E9 JUMPI JUMPDEST POP POP DUP7 DUP4 DUP2 SHL ADD SWAP1 SSTORE PUSH2 0x253 JUMP JUMPDEST DUP6 ADD CALLDATALOAD PUSH1 0x0 NOT PUSH1 0x3 DUP7 SWAP1 SHL PUSH1 0xF8 AND SHR NOT AND SWAP1 SSTORE CODESIZE DUP1 PUSH2 0x2DB JUMP JUMPDEST DUP7 DUP4 ADD CALLDATALOAD DUP11 SSTORE SWAP9 DUP9 ADD SWAP9 SWAP2 DUP5 ADD SWAP2 DUP5 ADD PUSH2 0x2A6 JUMP JUMPDEST PUSH4 0x4E487B71 PUSH1 0xE0 SHL PUSH1 0x0 MSTORE PUSH1 0x41 PUSH1 0x4 MSTORE PUSH1 0x24 PUSH1 0x0 REVERT JUMPDEST PUSH1 0x40 MLOAD PUSH4 0x3875D9BD PUSH1 0xE2 SHL DUP2 MSTORE PUSH1 0x4 SWAP1 REVERT JUMPDEST PUSH1 0x40 MLOAD PUSH4 0xE41DCBF PUSH1 0xE2 SHL DUP2 MSTORE PUSH1 0x4 SWAP1 REVERT JUMPDEST PUSH1 0x40 MLOAD PUSH4 0xE93BA223 PUSH1 0xE0 SHL DUP2 MSTORE PUSH1 0x4 SWAP1 REVERT JUMPDEST PUSH1 0x0 DUP1 REVERT JUMPDEST CALLVALUE PUSH2 0x364 JUMPI PUSH1 0x0 CALLDATASIZE PUSH1 0x3 NOT ADD SLT PUSH2 0x364 JUMPI PUSH1 0x20 PUSH1 0x40 MLOAD PUSH32 0xCE23C3E399818CFEE81A7AB0880F714E53D7672B08DF0FA62F2843416E1EA09 DUP2 MSTORE RETURN JUMPDEST CALLVALUE PUSH2 0x364 JUMPI PUSH1 0x20 CALLDATASIZE PUSH1 0x3 NOT ADD SLT PUSH2 0x364 JUMPI PUSH1 0x4 CALLDATALOAD PUSH1 0x0 MSTORE PUSH1 0x5 PUSH1 0x20 MSTORE PUSH1 0x20 PUSH1 0xFF PUSH1 0x40 PUSH1 0x0 KECCAK256 SLOAD AND PUSH1 0x40 MLOAD SWAP1 ISZERO ISZERO DUP2 MSTORE RETURN JUMPDEST CALLVALUE PUSH2 0x364 JUMPI PUSH1 0x40 CALLDATASIZE PUSH1 0x3 NOT ADD SLT PUSH2 0x364 JUMPI PUSH2 0x414 PUSH1 0x4 CALLDATALOAD PUSH2 0x3F4 PUSH2 0x149B JUMP JUMPDEST SWAP1 DUP1 PUSH1 0x0 MSTORE PUSH1 0x0 PUSH1 0x20 MSTORE PUSH2 0x40F PUSH1 0x1 PUSH1 0x40 PUSH1 0x0 KECCAK256 ADD SLOAD PUSH2 0x17CB JUMP JUMPDEST PUSH2 0x186F JUMP JUMPDEST STOP JUMPDEST CALLVALUE PUSH2 0x364 JUMPI PUSH1 0x20 CALLDATASIZE PUSH1 0x3 NOT ADD SLT PUSH2 0x364 JUMPI PUSH1 0x4 CALLDATALOAD PUSH2 0x432 PUSH2 0x174C JUMP JUMPDEST DUP1 PUSH1 0x0 MSTORE PUSH1 0x5 PUSH1 0x20 MSTORE PUSH1 0xFF PUSH1 0x40 PUSH1 0x0 KECCAK256 SLOAD AND ISZERO PUSH2 0x352 JUMPI PUSH1 0x0 DUP2 DUP2 MSTORE PUSH1 0x3 PUSH1 0x20 MSTORE PUSH1 0x40 SWAP1 KECCAK256 PUSH1 0x1 ADD SLOAD PUSH1 0x1 PUSH1 0x1 PUSH1 0xA0 SHL SUB AND CALLER SUB PUSH2 0x340 JUMPI DUP1 PUSH1 0x0 MSTORE PUSH1 0x3 PUSH1 0x20 MSTORE PUSH1 0x40 PUSH1 0x0 KECCAK256 PUSH1 0x8 DUP2 ADD PUSH2 0x100 PUSH2 0xFF00 NOT DUP3 SLOAD AND OR SWAP1 SSTORE PUSH1 0x7 TIMESTAMP SWAP2 ADD SSTORE PUSH32 0x3ABAC2578332336BA401702EAE8EA0F10B2A42716CC3FAA7CB509EE3D63F50A PUSH1 0x20 PUSH1 0x40 MLOAD TIMESTAMP DUP2 MSTORE LOG2 PUSH1 0x1 DUP1 SSTORE STOP JUMPDEST CALLVALUE PUSH2 0x364 JUMPI PUSH1 0x40 CALLDATASIZE PUSH1 0x3 NOT ADD SLT PUSH2 0x364 JUMPI PUSH1 0x4 CALLDATALOAD PUSH1 0x24 CALLDATALOAD SWAP1 DUP1 PUSH1 0x0 MSTORE PUSH1 0x5 PUSH1 0x20 MSTORE PUSH1 0xFF PUSH1 0x40 PUSH1 0x0 KECCAK256 SLOAD AND ISZERO PUSH2 0x352 JUMPI PUSH1 0x0 MSTORE PUSH1 0x3 PUSH1 0x20 MSTORE PUSH1 0x5 PUSH1 0x40 PUSH1 0x0 KECCAK256 ADD SLOAD DUP2 DUP2 MUL SWAP2 DUP2 DUP4 DIV EQ SWAP1 ISZERO OR ISZERO PUSH2 0x51A JUMPI PUSH1 0x20 SWAP1 PUSH1 0x40 MLOAD SWAP1 DUP2 MSTORE RETURN JUMPDEST PUSH4 0x4E487B71 PUSH1 0xE0 SHL PUSH1 0x0 MSTORE PUSH1 0x11 PUSH1 0x4 MSTORE PUSH1 0x24 PUSH1 0x0 REVERT JUMPDEST CALLVALUE PUSH2 0x364 JUMPI PUSH1 0x0 CALLDATASIZE PUSH1 0x3 NOT ADD SLT PUSH2 0x364 JUMPI PUSH1 0x2 SLOAD PUSH1 0x0 NOT DUP2 ADD SWAP1 DUP2 GT PUSH2 0x51A JUMPI PUSH1 0x20 SWAP1 PUSH1 0x40 MLOAD SWAP1 DUP2 MSTORE RETURN JUMPDEST CALLVALUE PUSH2 0x364 JUMPI PUSH1 0x0 CALLDATASIZE PUSH1 0x3 NOT ADD SLT PUSH2 0x364 JUMPI PUSH1 0x20 PUSH1 0x40 MLOAD PUSH1 0x0 DUP2 MSTORE RETURN JUMPDEST CALLVALUE PUSH2 0x364 JUMPI PUSH1 0x20 CALLDATASIZE PUSH1 0x3 NOT ADD SLT PUSH2 0x364 JUMPI PUSH1 0x4 CALLDATALOAD PUSH2 0x593 PUSH2 0x176F JUMP JUMPDEST PUSH2 0x59B PUSH2 0x174C JUMP JUMPDEST DUP1 PUSH1 0x0 MSTORE PUSH1 0x5 PUSH1 0x20 MSTORE PUSH1 0xFF PUSH1 0x40 PUSH1 0x0 KECCAK256 SLOAD AND ISZERO PUSH2 0x352 JUMPI DUP1 PUSH1 0x0 MSTORE PUSH1 0x3 PUSH1 0x20 MSTORE PUSH1 0x40 PUSH1 0x0 KECCAK256 PUSH1 0x8 DUP2 ADD PUSH1 0xFF NOT DUP2 SLOAD AND SWAP1 SSTORE PUSH1 0x7 TIMESTAMP SWAP2 ADD SSTORE PUSH1 0x40 MLOAD SWAP1 TIMESTAMP DUP3 MSTORE PUSH32 0x83934406F3A14535859059EC85CC79140B871327A4984A9A977F6D61BF76F067 PUSH1 0x20 CALLER SWAP4 LOG3 PUSH1 0x1 DUP1 SSTORE STOP JUMPDEST CALLVALUE PUSH2 0x364 JUMPI PUSH1 0x20 CALLDATASIZE PUSH1 0x3 NOT ADD SLT PUSH2 0x364 JUMPI PUSH1 0x4 CALLDATALOAD PUSH2 0x621 PUSH2 0x176F JUMP JUMPDEST PUSH2 0x629 PUSH2 0x174C JUMP JUMPDEST DUP1 PUSH1 0x0 MSTORE PUSH1 0x5 PUSH1 0x20 MSTORE PUSH1 0xFF PUSH1 0x40 PUSH1 0x0 KECCAK256 SLOAD AND ISZERO PUSH2 0x352 JUMPI DUP1 PUSH1 0x0 MSTORE PUSH1 0x3 PUSH1 0x20 MSTORE PUSH1 0x40 PUSH1 0x0 KECCAK256 PUSH1 0x8 DUP2 ADD PUSH1 0x1 PUSH1 0xFF NOT DUP3 SLOAD AND OR SWAP1 SSTORE PUSH1 0x7 TIMESTAMP SWAP2 ADD SSTORE PUSH1 0x40 MLOAD SWAP1 TIMESTAMP DUP3 MSTORE PUSH32 0x10C9EBB251A79EC4896311BCCD4B2DC337D0D1A0032096BA1E63325CE972D377 PUSH1 0x20 CALLER SWAP4 LOG3 PUSH1 0x1 DUP1 SSTORE STOP JUMPDEST CALLVALUE PUSH2 0x364 JUMPI PUSH1 0x40 CALLDATASIZE PUSH1 0x3 NOT ADD SLT PUSH2 0x364 JUMPI PUSH2 0x6AF PUSH2 0x149B JUMP JUMPDEST PUSH1 0x4 CALLDATALOAD PUSH1 0x0 MSTORE PUSH1 0x0 PUSH1 0x20 MSTORE PUSH1 0x40 PUSH1 0x0 KECCAK256 SWAP1 PUSH1 0x1 DUP1 PUSH1 0xA0 SHL SUB AND PUSH1 0x0 MSTORE PUSH1 0x20 MSTORE PUSH1 0x20 PUSH1 0xFF PUSH1 0x40 PUSH1 0x0 KECCAK256 SLOAD AND PUSH1 0x40 MLOAD SWAP1 ISZERO ISZERO DUP2 MSTORE RETURN JUMPDEST CALLVALUE PUSH2 0x364 JUMPI PUSH1 0x0 CALLDATASIZE PUSH1 0x3 NOT ADD SLT PUSH2 0x364 JUMPI PUSH1 0x20 PUSH1 0x40 MLOAD PUSH32 0xA49807205CE4D355092EF5A8A18F56E8913CF4A201FBE287825B095693C21775 DUP2 MSTORE RETURN JUMPDEST CALLVALUE PUSH2 0x364 JUMPI PUSH1 0x20 DUP1 PUSH1 0x3 NOT CALLDATASIZE ADD SLT PUSH2 0x364 JUMPI PUSH1 0x4 CALLDATALOAD SWAP1 PUSH1 0x0 DUP2 PUSH1 0x40 MLOAD PUSH2 0x743 DUP2 PUSH2 0x1566 JUMP JUMPDEST DUP3 DUP2 MSTORE ADD MSTORE DUP2 PUSH1 0x0 MSTORE PUSH1 0x5 DUP2 MSTORE PUSH1 0xFF PUSH1 0x40 PUSH1 0x0 KECCAK256 SLOAD AND ISZERO PUSH2 0x352 JUMPI PUSH1 0x40 SWAP2 PUSH1 0x0 MSTORE PUSH1 0x3 DUP2 MSTORE PUSH2 0x777 PUSH1 0x4 DUP4 PUSH1 0x0 KECCAK256 ADD PUSH2 0x1672 JUMP JUMPDEST SWAP1 DUP1 DUP4 MLOAD SWAP3 PUSH2 0x787 DUP5 DUP3 MLOAD PUSH2 0x151F JUMP JUMPDEST ADD MLOAD SWAP1 DUP3 ADD MSTORE RETURN JUMPDEST CALLVALUE PUSH2 0x364 JUMPI PUSH1 0x60 CALLDATASIZE PUSH1 0x3 NOT ADD SLT PUSH2 0x364 JUMPI CALLER PUSH1 0x0 SWAP1 DUP2 MSTORE PUSH32 0x7D7FFB7A348E1C6A02869081A26547B49160DD3DF72D1D75A570EB9B698292EC PUSH1 0x20 SWAP1 DUP2 MSTORE PUSH1 0x40 SWAP1 SWAP2 KECCAK256 SLOAD PUSH1 0x4 CALLDATALOAD SWAP2 PUSH1 0x44 CALLDATALOAD SWAP2 PUSH1 0x24 CALLDATALOAD SWAP1 PUSH32 0xA49807205CE4D355092EF5A8A18F56E8913CF4A201FBE287825B095693C21775 SWAP1 PUSH1 0xFF AND ISZERO PUSH2 0x89C JUMPI POP PUSH2 0x811 PUSH2 0x174C JUMP JUMPDEST DUP4 PUSH1 0x0 MSTORE PUSH1 0x5 DUP3 MSTORE PUSH1 0xFF PUSH1 0x40 PUSH1 0x0 KECCAK256 SLOAD AND ISZERO PUSH2 0x352 JUMPI PUSH32 0xEAAB2658E61A52ED505263C32ACAE2E61EA8D6B6E9B5824475D27CF4279E134A SWAP3 PUSH1 0x60 SWAP3 DUP6 PUSH1 0x0 MSTORE PUSH1 0x3 DUP2 MSTORE PUSH1 0x9 PUSH1 0x40 PUSH1 0x0 KECCAK256 ADD PUSH2 0x867 DUP5 DUP3 SLOAD PUSH2 0x173F JUMP JUMPDEST SWAP1 SSTORE DUP6 PUSH1 0x0 MSTORE PUSH1 0x3 DUP2 MSTORE PUSH1 0xA PUSH1 0x40 PUSH1 0x0 KECCAK256 ADD PUSH2 0x884 DUP4 DUP3 SLOAD PUSH2 0x173F JUMP JUMPDEST SWAP1 SSTORE PUSH1 0x40 MLOAD SWAP3 DUP4 MSTORE DUP3 ADD MSTORE TIMESTAMP PUSH1 0x40 DUP3 ADD MSTORE LOG2 PUSH1 0x1 DUP1 SSTORE STOP JUMPDEST PUSH1 0x44 SWAP1 PUSH1 0x40 MLOAD SWAP1 PUSH4 0xE2517D3F PUSH1 0xE0 SHL DUP3 MSTORE CALLER PUSH1 0x4 DUP4 ADD MSTORE PUSH1 0x24 DUP3 ADD MSTORE REVERT JUMPDEST CALLVALUE PUSH2 0x364 JUMPI PUSH1 0x20 CALLDATASIZE PUSH1 0x3 NOT ADD SLT PUSH2 0x364 JUMPI PUSH1 0x4 CALLDATALOAD DUP1 PUSH1 0x0 MSTORE PUSH1 0x5 PUSH1 0x20 MSTORE PUSH1 0xFF PUSH1 0x40 PUSH1 0x0 KECCAK256 SLOAD AND ISZERO PUSH2 0x352 JUMPI PUSH1 0x0 MSTORE PUSH1 0x3 PUSH1 0x20 MSTORE PUSH1 0x20 PUSH1 0x1 DUP1 PUSH1 0xA0 SHL SUB PUSH1 0x1 PUSH1 0x40 PUSH1 0x0 KECCAK256 ADD SLOAD AND PUSH1 0x40 MLOAD SWAP1 DUP2 MSTORE RETURN JUMPDEST CALLVALUE PUSH2 0x364 JUMPI PUSH1 0x40 CALLDATASIZE PUSH1 0x3 NOT ADD SLT PUSH2 0x364 JUMPI PUSH2 0x921 PUSH2 0x1485 JUMP JUMPDEST PUSH1 0x1 PUSH1 0x1 PUSH1 0xA0 SHL SUB AND PUSH1 0x0 SWAP1 DUP2 MSTORE PUSH1 0x4 PUSH1 0x20 MSTORE PUSH1 0x40 SWAP1 KECCAK256 DUP1 SLOAD PUSH1 0x24 CALLDATALOAD SWAP2 SWAP1 DUP3 LT ISZERO PUSH2 0x364 JUMPI PUSH1 0x20 SWAP2 PUSH2 0x952 SWAP2 PUSH2 0x169A JUMP JUMPDEST SWAP1 SLOAD PUSH1 0x40 MLOAD SWAP2 PUSH1 0x3 SHL SHR DUP2 MSTORE RETURN JUMPDEST CALLVALUE PUSH2 0x364 JUMPI PUSH1 0x40 CALLDATASIZE PUSH1 0x3 NOT ADD SLT PUSH2 0x364 JUMPI PUSH1 0x4 CALLDATALOAD PUSH2 0x97C PUSH2 0x149B JUMP JUMPDEST PUSH2 0x984 PUSH2 0x174C JUMP JUMPDEST DUP2 PUSH1 0x0 MSTORE PUSH1 0x5 PUSH1 0x20 MSTORE PUSH1 0xFF PUSH1 0x40 PUSH1 0x0 KECCAK256 SLOAD AND ISZERO PUSH2 0x352 JUMPI PUSH1 0x0 DUP3 DUP2 MSTORE PUSH1 0x3 PUSH1 0x20 MSTORE PUSH1 0x40 SWAP1 KECCAK256 PUSH1 0x1 ADD SLOAD PUSH1 0x1 PUSH1 0x1 PUSH1 0xA0 SHL SUB SWAP2 SWAP1 DUP3 AND CALLER SUB PUSH2 0x340 JUMPI AND SWAP1 DUP2 ISZERO PUSH2 0x9FF JUMPI PUSH1 0x0 MSTORE PUSH1 0x3 PUSH1 0x20 MSTORE PUSH1 0x40 PUSH1 0x0 KECCAK256 SWAP1 PUSH1 0x2 DUP3 ADD SWAP1 PUSH12 0xFFFFFFFFFFFFFFFFFFFFFFFF PUSH1 0xA0 SHL DUP3 SLOAD AND OR SWAP1 SSTORE PUSH1 0x7 TIMESTAMP SWAP2 ADD SSTORE PUSH1 0x1 DUP1 SSTORE PUSH1 0x0 DUP1 RETURN JUMPDEST PUSH1 0x40 MLOAD PUSH4 0x5CA16C9 PUSH1 0xE5 SHL DUP2 MSTORE PUSH1 0x4 SWAP1 REVERT JUMPDEST CALLVALUE PUSH2 0x364 JUMPI PUSH1 0x20 CALLDATASIZE PUSH1 0x3 NOT ADD SLT PUSH2 0x364 JUMPI PUSH1 0x4 CALLDATALOAD PUSH1 0x0 MSTORE PUSH1 0x3 PUSH1 0x20 MSTORE PUSH1 0x40 PUSH1 0x0 KECCAK256 PUSH1 0x20 DUP2 SLOAD PUSH1 0x1 DUP1 PUSH1 0xA0 SHL SUB SWAP3 DUP4 PUSH1 0x1 DUP3 ADD SLOAD AND SWAP4 PUSH1 0x2 DUP3 ADD SLOAD AND SWAP1 PUSH1 0xFF PUSH2 0xA5B PUSH1 0x3 DUP4 ADD PUSH2 0x15C1 JUMP JUMPDEST SWAP4 PUSH2 0xA68 PUSH1 0x4 DUP5 ADD PUSH2 0x1672 JUMP JUMPDEST SWAP5 PUSH1 0x6 DUP5 ADD SLOAD DUP8 PUSH2 0xAAB PUSH1 0x7 DUP8 ADD SLOAD SWAP4 PUSH1 0x8 DUP9 ADD SLOAD SWAP6 PUSH1 0xA PUSH1 0x9 DUP11 ADD SLOAD SWAP10 ADD SLOAD SWAP10 PUSH1 0x40 MLOAD SWAP14 DUP15 SWAP14 DUP15 PUSH2 0x180 SWAP5 DUP2 MSTORE ADD MSTORE PUSH1 0x40 DUP14 ADD MSTORE DUP1 PUSH1 0x60 DUP14 ADD MSTORE DUP12 ADD SWAP1 PUSH2 0x14DF JUMP JUMPDEST SWAP8 PUSH2 0xABA PUSH1 0x80 DUP12 ADD DUP3 MLOAD PUSH2 0x151F JUMP JUMPDEST ADD MLOAD PUSH1 0xA0 DUP10 ADD MSTORE PUSH1 0xC0 DUP9 ADD MSTORE PUSH1 0xE0 DUP8 ADD MSTORE DUP2 DUP2 AND ISZERO ISZERO PUSH2 0x100 DUP8 ADD MSTORE PUSH1 0x8 SHR AND ISZERO ISZERO PUSH2 0x120 DUP6 ADD MSTORE PUSH2 0x140 DUP5 ADD MSTORE PUSH2 0x160 DUP4 ADD MSTORE SUB SWAP1 RETURN JUMPDEST CALLVALUE PUSH2 0x364 JUMPI PUSH1 0x60 CALLDATASIZE PUSH1 0x3 NOT ADD SLT PUSH2 0x364 JUMPI PUSH1 0x4 CALLDATALOAD PUSH1 0x24 CALLDATALOAD PUSH1 0x3 DUP2 LT ISZERO PUSH2 0x364 JUMPI PUSH1 0x44 CALLDATALOAD PUSH2 0xB1D PUSH2 0x174C JUMP JUMPDEST DUP3 PUSH1 0x0 MSTORE PUSH1 0x20 SWAP2 PUSH1 0x5 DUP4 MSTORE PUSH1 0xFF PUSH1 0x40 PUSH1 0x0 KECCAK256 SLOAD AND ISZERO PUSH2 0x352 JUMPI PUSH1 0x0 DUP5 DUP2 MSTORE PUSH1 0x3 DUP5 MSTORE PUSH1 0x40 SWAP1 KECCAK256 PUSH1 0x1 ADD SLOAD PUSH1 0x1 PUSH1 0x1 PUSH1 0xA0 SHL SUB AND CALLER SUB PUSH2 0x340 JUMPI DUP2 ISZERO PUSH2 0xC13 JUMPI PUSH1 0x40 MLOAD SWAP2 PUSH2 0xB69 DUP4 PUSH2 0x1566 JUMP JUMPDEST PUSH2 0xB73 DUP3 DUP5 PUSH2 0x1666 JUMP JUMPDEST DUP4 DUP4 ADD SWAP4 DUP2 DUP6 MSTORE DUP6 PUSH1 0x0 MSTORE PUSH1 0x3 DUP2 MSTORE PUSH1 0x40 PUSH1 0x0 KECCAK256 PUSH1 0x4 DUP2 ADD SWAP5 MLOAD PUSH1 0x3 DUP2 LT ISZERO PUSH2 0xBFD JUMPI PUSH32 0x753FBE1F2A2B8837FDF6D561BF19AFCA99664F27A16A19093277ABA6590CC2FE SWAP7 PUSH1 0x60 SWAP7 PUSH1 0x5 SWAP3 PUSH1 0xFF DUP1 NOT DUP4 SLOAD AND SWAP2 AND OR SWAP1 SSTORE MLOAD SWAP2 ADD SSTORE DUP6 PUSH1 0x0 MSTORE PUSH1 0x3 DUP2 MSTORE TIMESTAMP PUSH1 0x7 PUSH1 0x40 PUSH1 0x0 KECCAK256 ADD SSTORE PUSH2 0xBED PUSH1 0x40 MLOAD DUP1 SWAP5 PUSH2 0x151F JUMP JUMPDEST DUP3 ADD MSTORE TIMESTAMP PUSH1 0x40 DUP3 ADD MSTORE LOG2 PUSH1 0x1 DUP1 SSTORE STOP JUMPDEST PUSH4 0x4E487B71 PUSH1 0xE0 SHL PUSH1 0x0 MSTORE PUSH1 0x21 PUSH1 0x4 MSTORE PUSH1 0x24 PUSH1 0x0 REVERT JUMPDEST PUSH1 0x40 MLOAD PUSH3 0xBFC921 PUSH1 0xE0 SHL DUP2 MSTORE PUSH1 0x4 SWAP1 REVERT JUMPDEST CALLVALUE PUSH2 0x364 JUMPI PUSH1 0x20 CALLDATASIZE PUSH1 0x3 NOT ADD SLT PUSH2 0x364 JUMPI PUSH1 0x4 CALLDATALOAD DUP1 PUSH1 0x0 MSTORE PUSH1 0x5 PUSH1 0x20 MSTORE PUSH1 0xFF PUSH1 0x40 PUSH1 0x0 KECCAK256 SLOAD AND ISZERO PUSH2 0x352 JUMPI PUSH1 0x0 MSTORE PUSH1 0x3 PUSH1 0x20 MSTORE PUSH1 0x20 PUSH1 0xFF PUSH1 0x8 PUSH1 0x40 PUSH1 0x0 KECCAK256 ADD SLOAD PUSH1 0x8 SHR AND PUSH1 0x40 MLOAD SWAP1 ISZERO ISZERO DUP2 MSTORE RETURN JUMPDEST CALLVALUE PUSH2 0x364 JUMPI PUSH1 0x40 CALLDATASIZE PUSH1 0x3 NOT ADD SLT PUSH2 0x364 JUMPI PUSH2 0xC8B PUSH2 0x149B JUMP JUMPDEST CALLER PUSH1 0x1 PUSH1 0x1 PUSH1 0xA0 SHL SUB DUP3 AND SUB PUSH2 0xCA7 JUMPI PUSH2 0x414 SWAP1 PUSH1 0x4 CALLDATALOAD PUSH2 0x186F JUMP JUMPDEST PUSH1 0x40 MLOAD PUSH4 0x334BD919 PUSH1 0xE1 SHL DUP2 MSTORE PUSH1 0x4 SWAP1 REVERT JUMPDEST CALLVALUE PUSH2 0x364 JUMPI PUSH1 0x40 CALLDATASIZE PUSH1 0x3 NOT ADD SLT PUSH2 0x364 JUMPI PUSH2 0x414 PUSH1 0x4 CALLDATALOAD PUSH2 0xCD8 PUSH2 0x149B JUMP JUMPDEST SWAP1 DUP1 PUSH1 0x0 MSTORE PUSH1 0x0 PUSH1 0x20 MSTORE PUSH2 0xCF3 PUSH1 0x1 PUSH1 0x40 PUSH1 0x0 KECCAK256 ADD SLOAD PUSH2 0x17CB JUMP JUMPDEST PUSH2 0x17F1 JUMP JUMPDEST CALLVALUE PUSH2 0x364 JUMPI PUSH1 0x20 CALLDATASIZE PUSH1 0x3 NOT ADD SLT PUSH2 0x364 JUMPI PUSH1 0x4 CALLDATALOAD PUSH1 0x0 PUSH2 0x140 PUSH1 0x40 MLOAD PUSH2 0xD1D DUP2 PUSH2 0x1582 JUMP JUMPDEST DUP3 DUP2 MSTORE DUP3 PUSH1 0x20 DUP3 ADD MSTORE DUP3 PUSH1 0x40 DUP3 ADD MSTORE PUSH1 0x60 DUP1 DUP3 ADD MSTORE PUSH1 0x40 MLOAD PUSH2 0xD3E DUP2 PUSH2 0x1566 JUMP JUMPDEST DUP4 DUP2 MSTORE DUP4 PUSH1 0x20 DUP3 ADD MSTORE PUSH1 0x80 DUP3 ADD MSTORE DUP3 PUSH1 0xA0 DUP3 ADD MSTORE DUP3 PUSH1 0xC0 DUP3 ADD MSTORE DUP3 PUSH1 0xE0 DUP3 ADD MSTORE DUP3 PUSH2 0x100 DUP3 ADD MSTORE DUP3 PUSH2 0x120 DUP3 ADD MSTORE ADD MSTORE DUP1 PUSH1 0x0 MSTORE PUSH1 0x5 PUSH1 0x20 MSTORE PUSH1 0xFF PUSH1 0x40 PUSH1 0x0 KECCAK256 SLOAD AND ISZERO PUSH2 0x352 JUMPI PUSH1 0x0 MSTORE PUSH1 0x3 PUSH1 0x20 MSTORE PUSH1 0x40 PUSH1 0x0 KECCAK256 PUSH1 0xA PUSH1 0x40 MLOAD SWAP2 PUSH2 0xDA1 DUP4 PUSH2 0x1582 JUMP JUMPDEST DUP1 SLOAD DUP4 MSTORE PUSH1 0x1 DUP2 ADD SLOAD PUSH1 0x1 PUSH1 0x1 PUSH1 0xA0 SHL SUB SWAP1 DUP2 AND PUSH1 0x20 DUP6 ADD MSTORE PUSH1 0x2 DUP3 ADD SLOAD AND PUSH1 0x40 DUP5 ADD MSTORE PUSH2 0xDD1 PUSH1 0x3 DUP3 ADD PUSH2 0x15C1 JUMP JUMPDEST PUSH1 0x60 DUP5 ADD MSTORE PUSH2 0xDE2 PUSH1 0x4 DUP3 ADD PUSH2 0x1672 JUMP JUMPDEST PUSH1 0x80 DUP5 ADD MSTORE PUSH1 0x6 DUP2 ADD SLOAD PUSH1 0xA0 DUP5 ADD MSTORE PUSH1 0x7 DUP2 ADD SLOAD PUSH1 0xC0 DUP5 ADD MSTORE PUSH1 0xFF PUSH1 0x8 DUP3 ADD SLOAD DUP2 DUP2 AND ISZERO ISZERO PUSH1 0xE0 DUP7 ADD MSTORE PUSH1 0x8 SHR AND ISZERO ISZERO PUSH2 0x100 DUP5 ADD MSTORE PUSH1 0x9 DUP2 ADD SLOAD PUSH2 0x120 DUP5 ADD MSTORE ADD SLOAD PUSH2 0x140 DUP3 ADD MSTORE PUSH1 0x40 MLOAD DUP1 SWAP2 PUSH1 0x20 DUP3 MSTORE DUP1 MLOAD PUSH1 0x20 DUP4 ADD MSTORE PUSH1 0x1 DUP1 PUSH1 0xA0 SHL SUB PUSH1 0x20 DUP3 ADD MLOAD AND PUSH1 0x40 DUP4 ADD MSTORE PUSH1 0x1 DUP1 PUSH1 0xA0 SHL SUB PUSH1 0x40 DUP3 ADD MLOAD AND PUSH1 0x60 DUP4 ADD MSTORE PUSH1 0x60 DUP2 ADD MLOAD PUSH2 0x140 PUSH2 0xE7F PUSH2 0x180 SWAP3 DUP4 PUSH1 0x80 DUP8 ADD MSTORE PUSH2 0x1A0 DUP7 ADD SWAP1 PUSH2 0x14DF JUMP JUMPDEST SWAP3 PUSH1 0x20 PUSH1 0x80 DUP3 ADD MLOAD PUSH2 0xE95 PUSH1 0xA0 DUP9 ADD DUP3 MLOAD PUSH2 0x151F JUMP JUMPDEST ADD MLOAD PUSH1 0xC0 DUP7 ADD MSTORE PUSH1 0xA0 DUP2 ADD MLOAD PUSH1 0xE0 DUP7 ADD MSTORE PUSH1 0xC0 DUP2 ADD MLOAD PUSH2 0x100 DUP7 ADD MSTORE PUSH1 0xE0 DUP2 ADD MLOAD ISZERO ISZERO PUSH2 0x120 DUP7 ADD MSTORE PUSH2 0x100 DUP2 ADD MLOAD ISZERO ISZERO DUP3 DUP7 ADD MSTORE PUSH2 0x120 DUP2 ADD MLOAD PUSH2 0x160 DUP7 ADD MSTORE ADD MLOAD SWAP1 DUP4 ADD MSTORE SUB SWAP1 RETURN JUMPDEST CALLVALUE PUSH2 0x364 JUMPI PUSH1 0x80 CALLDATASIZE PUSH1 0x3 NOT ADD SLT PUSH2 0x364 JUMPI PUSH1 0x4 CALLDATALOAD PUSH8 0xFFFFFFFFFFFFFFFF DUP2 GT PUSH2 0x364 JUMPI PUSH2 0xF11 SWAP1 CALLDATASIZE SWAP1 PUSH1 0x4 ADD PUSH2 0x14B1 JUMP JUMPDEST PUSH2 0xF19 PUSH2 0x149B JUMP JUMPDEST PUSH1 0x3 PUSH1 0x44 CALLDATALOAD LT ISZERO PUSH2 0x364 JUMPI PUSH2 0xF2C PUSH2 0x174C JUMP JUMPDEST DUP2 ISZERO PUSH2 0x32E JUMPI PUSH1 0x1 PUSH1 0x1 PUSH1 0xA0 SHL SUB DUP2 AND ISZERO PUSH2 0x9FF JUMPI PUSH1 0x64 CALLDATALOAD ISZERO PUSH2 0xC13 JUMPI PUSH1 0x2 SLOAD SWAP2 PUSH1 0x0 NOT DUP4 EQ PUSH2 0x51A JUMPI PUSH1 0x1 DUP4 ADD PUSH1 0x2 SSTORE PUSH1 0x40 MLOAD PUSH2 0xF69 DUP2 PUSH2 0x1566 JUMP JUMPDEST PUSH2 0xF75 PUSH1 0x44 CALLDATALOAD DUP3 PUSH2 0x1666 JUMP JUMPDEST PUSH1 0x64 CALLDATALOAD PUSH1 0x20 DUP3 ADD MSTORE PUSH1 0x40 MLOAD SWAP1 PUSH2 0xF8A DUP3 PUSH2 0x1582 JUMP JUMPDEST DUP5 DUP3 MSTORE CALLER PUSH1 0x20 DUP4 ADD MSTORE PUSH1 0x1 PUSH1 0x1 PUSH1 0xA0 SHL SUB DUP5 AND PUSH1 0x40 DUP4 ADD MSTORE PUSH8 0xFFFFFFFFFFFFFFFF DUP4 GT PUSH2 0x318 JUMPI PUSH1 0x40 MLOAD PUSH2 0xFC8 PUSH1 0x1F DUP6 ADD PUSH1 0x1F NOT AND PUSH1 0x20 ADD DUP3 PUSH2 0x159F JUMP JUMPDEST DUP4 DUP2 MSTORE CALLDATASIZE DUP5 DUP9 ADD GT PUSH2 0x364 JUMPI DUP4 DUP8 PUSH1 0x20 DUP4 ADD CALLDATACOPY PUSH1 0x0 PUSH1 0x20 DUP6 DUP4 ADD ADD MSTORE PUSH1 0x60 DUP4 ADD MSTORE PUSH1 0x80 DUP3 ADD MSTORE TIMESTAMP PUSH1 0xA0 DUP3 ADD MSTORE TIMESTAMP PUSH1 0xC0 DUP3 ADD MSTORE PUSH1 0x0 PUSH1 0xE0 DUP3 ADD MSTORE PUSH1 0x1 PUSH2 0x100 DUP3 ADD MSTORE PUSH1 0x0 PUSH2 0x120 DUP3 ADD MSTORE PUSH1 0x0 PUSH2 0x140 DUP3 ADD MSTORE DUP4 PUSH1 0x0 MSTORE PUSH1 0x3 PUSH1 0x20 MSTORE PUSH1 0x40 PUSH1 0x0 KECCAK256 SWAP1 DUP1 MLOAD DUP3 SSTORE PUSH1 0x1 DUP3 ADD PUSH1 0x1 DUP1 PUSH1 0xA0 SHL SUB PUSH1 0x20 DUP4 ADD MLOAD AND SWAP1 PUSH12 0xFFFFFFFFFFFFFFFFFFFFFFFF PUSH1 0xA0 SHL SWAP2 DUP3 DUP3 SLOAD AND OR SWAP1 SSTORE PUSH1 0x2 DUP4 ADD SWAP1 PUSH1 0x1 DUP1 PUSH1 0xA0 SHL SUB PUSH1 0x40 DUP5 ADD MLOAD AND SWAP1 DUP3 SLOAD AND OR SWAP1 SSTORE PUSH1 0x60 DUP2 ADD MLOAD DUP1 MLOAD SWAP1 PUSH8 0xFFFFFFFFFFFFFFFF DUP3 GT PUSH2 0x318 JUMPI PUSH2 0x10A0 DUP3 PUSH2 0x1097 PUSH1 0x3 DUP8 ADD SLOAD PUSH2 0x152C JUMP JUMPDEST PUSH1 0x3 DUP8 ADD PUSH2 0x16C8 JUMP JUMPDEST PUSH1 0x20 SWAP1 PUSH1 0x1F DUP4 GT PUSH1 0x1 EQ PUSH2 0x1238 JUMPI PUSH2 0x10D1 SWAP3 SWAP2 PUSH1 0x0 SWAP2 DUP4 PUSH2 0x122D JUMPI JUMPDEST POP POP DUP2 PUSH1 0x1 SHL SWAP2 PUSH1 0x0 NOT SWAP1 PUSH1 0x3 SHL SHR NOT AND OR SWAP1 JUMP JUMPDEST PUSH1 0x3 DUP4 ADD SSTORE JUMPDEST PUSH1 0x80 DUP2 ADD MLOAD DUP1 MLOAD SWAP2 PUSH1 0x3 DUP4 LT ISZERO PUSH2 0xBFD JUMPI PUSH1 0x20 PUSH2 0x140 SWAP3 PUSH1 0xA SWAP5 PUSH1 0xFF DUP1 NOT PUSH1 0x4 DUP10 ADD SLOAD AND SWAP2 AND OR PUSH1 0x4 DUP8 ADD SSTORE ADD MLOAD PUSH1 0x5 DUP6 ADD SSTORE PUSH1 0xA0 DUP2 ADD MLOAD PUSH1 0x6 DUP6 ADD SSTORE PUSH1 0xC0 DUP2 ADD MLOAD PUSH1 0x7 DUP6 ADD SSTORE PUSH1 0x8 DUP5 ADD PUSH1 0xE0 DUP3 ADD MLOAD ISZERO ISZERO DUP2 SLOAD PUSH1 0xFF PUSH2 0xFF00 PUSH2 0x100 DUP7 ADD MLOAD ISZERO ISZERO PUSH1 0x8 SHL AND SWAP3 AND SWAP1 PUSH2 0xFFFF NOT AND OR OR SWAP1 SSTORE PUSH2 0x120 DUP2 ADD MLOAD PUSH1 0x9 DUP6 ADD SSTORE ADD MLOAD SWAP2 ADD SSTORE CALLER PUSH1 0x0 MSTORE PUSH1 0x4 PUSH1 0x20 MSTORE PUSH1 0x40 PUSH1 0x0 KECCAK256 DUP1 SLOAD PUSH9 0x10000000000000000 DUP2 LT ISZERO PUSH2 0x318 JUMPI PUSH1 0x20 SWAP6 DUP6 SWAP4 PUSH2 0x11B2 DUP4 PUSH32 0x5209EBB9A387C66673961C3D49840F355486F16787DDD972555D970C18EAADC3 SWAP6 PUSH1 0x1 PUSH2 0x11FD SWAP7 ADD DUP2 SSTORE PUSH2 0x169A JUMP JUMPDEST DUP2 SLOAD SWAP1 PUSH1 0x3 SHL SWAP1 DUP8 DUP3 SHL SWAP2 PUSH1 0x0 NOT SWAP1 SHL NOT AND OR SWAP1 SSTORE DUP5 PUSH1 0x0 MSTORE PUSH1 0x5 DUP9 MSTORE PUSH1 0x40 PUSH1 0x0 KECCAK256 PUSH1 0x1 PUSH1 0xFF NOT DUP3 SLOAD AND OR SWAP1 SSTORE PUSH1 0x40 MLOAD SWAP6 PUSH1 0x1 DUP1 PUSH1 0xA0 SHL SUB AND DUP7 MSTORE PUSH1 0xA0 DUP9 DUP8 ADD MSTORE PUSH1 0xA0 DUP7 ADD SWAP2 PUSH2 0x171E JUMP JUMPDEST SWAP3 PUSH2 0x120D PUSH1 0x40 DUP3 ADD PUSH1 0x44 CALLDATALOAD PUSH2 0x151F JUMP JUMPDEST PUSH1 0x64 CALLDATALOAD PUSH1 0x60 DUP3 ADD MSTORE TIMESTAMP PUSH1 0x80 DUP3 ADD MSTORE DUP1 CALLER SWAP5 SUB SWAP1 LOG3 PUSH1 0x1 DUP1 SSTORE PUSH1 0x40 MLOAD SWAP1 DUP2 MSTORE RETURN JUMPDEST ADD MLOAD SWAP1 POP DUP10 DUP1 PUSH2 0x10BC JUMP JUMPDEST SWAP2 SWAP1 PUSH1 0x3 DUP6 ADD PUSH1 0x0 MSTORE PUSH1 0x20 PUSH1 0x0 KECCAK256 SWAP1 PUSH1 0x0 SWAP4 JUMPDEST PUSH1 0x1F NOT DUP5 AND DUP6 LT PUSH2 0x128F JUMPI PUSH1 0x1 SWAP5 POP DUP4 PUSH1 0x1F NOT DUP2 AND LT PUSH2 0x1276 JUMPI JUMPDEST POP POP POP DUP2 SHL ADD PUSH1 0x3 DUP4 ADD SSTORE PUSH2 0x10D7 JUMP JUMPDEST ADD MLOAD PUSH1 0x0 NOT PUSH1 0xF8 DUP5 PUSH1 0x3 SHL AND SHR NOT AND SWAP1 SSTORE DUP9 DUP1 DUP1 PUSH2 0x1266 JUMP JUMPDEST DUP2 DUP2 ADD MLOAD DUP4 SSTORE PUSH1 0x20 SWAP5 DUP6 ADD SWAP5 PUSH1 0x1 SWAP1 SWAP4 ADD SWAP3 SWAP1 SWAP2 ADD SWAP1 PUSH2 0x124B JUMP JUMPDEST CALLVALUE PUSH2 0x364 JUMPI PUSH1 0x20 CALLDATASIZE PUSH1 0x3 NOT ADD SLT PUSH2 0x364 JUMPI PUSH1 0x4 CALLDATALOAD PUSH1 0x0 MSTORE PUSH1 0x0 PUSH1 0x20 MSTORE PUSH1 0x20 PUSH1 0x1 PUSH1 0x40 PUSH1 0x0 KECCAK256 ADD SLOAD PUSH1 0x40 MLOAD SWAP1 DUP2 MSTORE RETURN JUMPDEST CALLVALUE PUSH2 0x364 JUMPI PUSH1 0x20 DUP1 PUSH1 0x3 NOT CALLDATASIZE ADD SLT PUSH2 0x364 JUMPI PUSH1 0x1 PUSH1 0x1 PUSH1 0xA0 SHL SUB PUSH2 0x12FB PUSH2 0x1485 JUMP JUMPDEST AND PUSH1 0x0 MSTORE PUSH1 0x4 DUP2 MSTORE PUSH1 0x40 PUSH1 0x0 KECCAK256 PUSH1 0x40 MLOAD SWAP1 DUP2 DUP4 DUP3 SLOAD SWAP2 DUP3 DUP2 MSTORE ADD SWAP1 DUP2 SWAP3 PUSH1 0x0 MSTORE DUP5 PUSH1 0x0 KECCAK256 SWAP1 PUSH1 0x0 JUMPDEST DUP7 DUP3 DUP3 LT PUSH2 0x1379 JUMPI DUP7 DUP7 PUSH2 0x1339 DUP3 DUP9 SUB DUP4 PUSH2 0x159F JUMP JUMPDEST PUSH1 0x40 MLOAD SWAP3 DUP4 SWAP3 DUP2 DUP5 ADD SWAP1 DUP3 DUP6 MSTORE MLOAD DUP1 SWAP2 MSTORE PUSH1 0x40 DUP5 ADD SWAP3 SWAP2 PUSH1 0x0 JUMPDEST DUP3 DUP2 LT PUSH2 0x1362 JUMPI POP POP POP POP SUB SWAP1 RETURN JUMPDEST DUP4 MLOAD DUP6 MSTORE DUP7 SWAP6 POP SWAP4 DUP2 ADD SWAP4 SWAP3 DUP2 ADD SWAP3 PUSH1 0x1 ADD PUSH2 0x1353 JUMP JUMPDEST DUP4 SLOAD DUP6 MSTORE SWAP1 SWAP4 ADD SWAP3 PUSH1 0x1 SWAP3 DUP4 ADD SWAP3 ADD PUSH2 0x1323 JUMP JUMPDEST CALLVALUE PUSH2 0x364 JUMPI PUSH1 0x20 CALLDATASIZE PUSH1 0x3 NOT ADD SLT PUSH2 0x364 JUMPI PUSH1 0x4 CALLDATALOAD PUSH2 0x13A9 PUSH2 0x174C JUMP JUMPDEST DUP1 PUSH1 0x0 MSTORE PUSH1 0x5 PUSH1 0x20 MSTORE PUSH1 0xFF PUSH1 0x40 PUSH1 0x0 KECCAK256 SLOAD AND ISZERO PUSH2 0x352 JUMPI PUSH1 0x0 DUP2 DUP2 MSTORE PUSH1 0x3 PUSH1 0x20 MSTORE PUSH1 0x40 SWAP1 KECCAK256 PUSH1 0x1 ADD SLOAD PUSH1 0x1 PUSH1 0x1 PUSH1 0xA0 SHL SUB AND CALLER SUB PUSH2 0x340 JUMPI DUP1 PUSH1 0x0 MSTORE PUSH1 0x3 PUSH1 0x20 MSTORE PUSH1 0x40 PUSH1 0x0 KECCAK256 PUSH1 0x8 DUP2 ADD PUSH2 0xFF00 NOT DUP2 SLOAD AND SWAP1 SSTORE PUSH1 0x7 TIMESTAMP SWAP2 ADD SSTORE PUSH32 0xB69D5EC2A1FB8F6CCB495208DA819A90A3BA49EABD4E1FF66BA3AD7425C0F3E PUSH1 0x20 PUSH1 0x40 MLOAD TIMESTAMP DUP2 MSTORE LOG2 PUSH1 0x1 DUP1 SSTORE STOP JUMPDEST CALLVALUE PUSH2 0x364 JUMPI PUSH1 0x20 CALLDATASIZE PUSH1 0x3 NOT ADD SLT PUSH2 0x364 JUMPI PUSH1 0x4 CALLDATALOAD SWAP1 PUSH4 0xFFFFFFFF PUSH1 0xE0 SHL DUP3 AND DUP1 SWAP3 SUB PUSH2 0x364 JUMPI PUSH1 0x20 SWAP2 PUSH4 0x7965DB0B PUSH1 0xE0 SHL DUP2 EQ SWAP1 DUP2 ISZERO PUSH2 0x1474 JUMPI JUMPDEST POP ISZERO ISZERO DUP2 MSTORE RETURN JUMPDEST PUSH4 0x1FFC9A7 PUSH1 0xE0 SHL EQ SWAP1 POP DUP4 PUSH2 0x146D JUMP JUMPDEST PUSH1 0x4 CALLDATALOAD SWAP1 PUSH1 0x1 PUSH1 0x1 PUSH1 0xA0 SHL SUB DUP3 AND DUP3 SUB PUSH2 0x364 JUMPI JUMP JUMPDEST PUSH1 0x24 CALLDATALOAD SWAP1 PUSH1 0x1 PUSH1 0x1 PUSH1 0xA0 SHL SUB DUP3 AND DUP3 SUB PUSH2 0x364 JUMPI JUMP JUMPDEST SWAP2 DUP2 PUSH1 0x1F DUP5 ADD SLT ISZERO PUSH2 0x364 JUMPI DUP3 CALLDATALOAD SWAP2 PUSH8 0xFFFFFFFFFFFFFFFF DUP4 GT PUSH2 0x364 JUMPI PUSH1 0x20 DUP4 DUP2 DUP7 ADD SWAP6 ADD ADD GT PUSH2 0x364 JUMPI JUMP JUMPDEST SWAP2 SWAP1 DUP3 MLOAD SWAP3 DUP4 DUP3 MSTORE PUSH1 0x0 JUMPDEST DUP5 DUP2 LT PUSH2 0x150B JUMPI POP POP DUP3 PUSH1 0x0 PUSH1 0x20 DUP1 SWAP5 SWAP6 DUP5 ADD ADD MSTORE PUSH1 0x1F DUP1 NOT SWAP2 ADD AND ADD ADD SWAP1 JUMP JUMPDEST PUSH1 0x20 DUP2 DUP4 ADD DUP2 ADD MLOAD DUP5 DUP4 ADD DUP3 ADD MSTORE ADD PUSH2 0x14EA JUMP JUMPDEST SWAP1 PUSH1 0x3 DUP3 LT ISZERO PUSH2 0xBFD JUMPI MSTORE JUMP JUMPDEST SWAP1 PUSH1 0x1 DUP3 DUP2 SHR SWAP3 AND DUP1 ISZERO PUSH2 0x155C JUMPI JUMPDEST PUSH1 0x20 DUP4 LT EQ PUSH2 0x1546 JUMPI JUMP JUMPDEST PUSH4 0x4E487B71 PUSH1 0xE0 SHL PUSH1 0x0 MSTORE PUSH1 0x22 PUSH1 0x4 MSTORE PUSH1 0x24 PUSH1 0x0 REVERT JUMPDEST SWAP2 PUSH1 0x7F AND SWAP2 PUSH2 0x153B JUMP JUMPDEST PUSH1 0x40 DUP2 ADD SWAP1 DUP2 LT PUSH8 0xFFFFFFFFFFFFFFFF DUP3 GT OR PUSH2 0x318 JUMPI PUSH1 0x40 MSTORE JUMP JUMPDEST PUSH2 0x160 DUP2 ADD SWAP1 DUP2 LT PUSH8 0xFFFFFFFFFFFFFFFF DUP3 GT OR PUSH2 0x318 JUMPI PUSH1 0x40 MSTORE JUMP JUMPDEST SWAP1 PUSH1 0x1F DUP1 NOT SWAP2 ADD AND DUP2 ADD SWAP1 DUP2 LT PUSH8 0xFFFFFFFFFFFFFFFF DUP3 GT OR PUSH2 0x318 JUMPI PUSH1 0x40 MSTORE JUMP JUMPDEST SWAP1 PUSH1 0x40 MLOAD SWAP2 DUP3 PUSH1 0x0 DUP3 SLOAD PUSH2 0x15D4 DUP2 PUSH2 0x152C JUMP JUMPDEST SWAP1 DUP2 DUP5 MSTORE PUSH1 0x20 SWAP5 PUSH1 0x1 SWAP2 PUSH1 0x1 DUP2 AND SWAP1 DUP2 PUSH1 0x0 EQ PUSH2 0x1644 JUMPI POP PUSH1 0x1 EQ PUSH2 0x1605 JUMPI JUMPDEST POP POP POP PUSH2 0x1603 SWAP3 POP SUB DUP4 PUSH2 0x159F JUMP JUMPDEST JUMP JUMPDEST PUSH1 0x0 SWAP1 DUP2 MSTORE DUP6 DUP2 KECCAK256 SWAP6 SWAP4 POP SWAP2 SWAP1 JUMPDEST DUP2 DUP4 LT PUSH2 0x162C JUMPI POP POP PUSH2 0x1603 SWAP4 POP DUP3 ADD ADD CODESIZE DUP1 DUP1 PUSH2 0x15F4 JUMP JUMPDEST DUP6 SLOAD DUP9 DUP5 ADD DUP6 ADD MSTORE SWAP5 DUP6 ADD SWAP5 DUP8 SWAP5 POP SWAP2 DUP4 ADD SWAP2 PUSH2 0x1613 JUMP JUMPDEST SWAP3 POP POP POP PUSH2 0x1603 SWAP5 SWAP3 POP PUSH1 0xFF NOT AND DUP3 DUP5 ADD MSTORE ISZERO ISZERO PUSH1 0x5 SHL DUP3 ADD ADD CODESIZE DUP1 DUP1 PUSH2 0x15F4 JUMP JUMPDEST PUSH1 0x3 DUP3 LT ISZERO PUSH2 0xBFD JUMPI MSTORE JUMP JUMPDEST SWAP1 PUSH1 0x40 MLOAD PUSH2 0x167F DUP2 PUSH2 0x1566 JUMP JUMPDEST PUSH1 0x20 PUSH1 0x1 DUP3 SWAP5 PUSH2 0x1693 PUSH1 0xFF DUP3 SLOAD AND DUP6 PUSH2 0x1666 JUMP JUMPDEST ADD SLOAD SWAP2 ADD MSTORE JUMP JUMPDEST DUP1 SLOAD DUP3 LT ISZERO PUSH2 0x16B2 JUMPI PUSH1 0x0 MSTORE PUSH1 0x20 PUSH1 0x0 KECCAK256 ADD SWAP1 PUSH1 0x0 SWAP1 JUMP JUMPDEST PUSH4 0x4E487B71 PUSH1 0xE0 SHL PUSH1 0x0 MSTORE PUSH1 0x32 PUSH1 0x4 MSTORE PUSH1 0x24 PUSH1 0x0 REVERT JUMPDEST SWAP1 PUSH1 0x1F DUP2 GT PUSH2 0x16D6 JUMPI POP POP POP JUMP JUMPDEST PUSH1 0x0 SWAP2 PUSH1 0x0 MSTORE PUSH1 0x20 PUSH1 0x0 KECCAK256 SWAP1 PUSH1 0x20 PUSH1 0x1F DUP6 ADD PUSH1 0x5 SHR DUP4 ADD SWAP5 LT PUSH2 0x1714 JUMPI JUMPDEST PUSH1 0x1F ADD PUSH1 0x5 SHR ADD SWAP2 JUMPDEST DUP3 DUP2 LT PUSH2 0x1709 JUMPI POP POP POP JUMP JUMPDEST DUP2 DUP2 SSTORE PUSH1 0x1 ADD PUSH2 0x16FD JUMP JUMPDEST SWAP1 SWAP3 POP DUP3 SWAP1 PUSH2 0x16F4 JUMP JUMPDEST SWAP1 DUP1 PUSH1 0x20 SWAP4 SWAP3 DUP2 DUP5 MSTORE DUP5 DUP5 ADD CALLDATACOPY PUSH1 0x0 DUP3 DUP3 ADD DUP5 ADD MSTORE PUSH1 0x1F ADD PUSH1 0x1F NOT AND ADD ADD SWAP1 JUMP JUMPDEST SWAP2 SWAP1 DUP3 ADD DUP1 SWAP3 GT PUSH2 0x51A JUMPI JUMP JUMPDEST PUSH1 0x2 PUSH1 0x1 SLOAD EQ PUSH2 0x175D JUMPI PUSH1 0x2 PUSH1 0x1 SSTORE JUMP JUMPDEST PUSH1 0x40 MLOAD PUSH4 0x3EE5AEB5 PUSH1 0xE0 SHL DUP2 MSTORE PUSH1 0x4 SWAP1 REVERT JUMPDEST CALLER PUSH1 0x0 SWAP1 DUP2 MSTORE PUSH32 0x1DA0B5176DFE03406AF5A6EED66CA01DDA9B45AC4DA671C3FA379CB93717EF81 PUSH1 0x20 MSTORE PUSH1 0x40 SWAP1 KECCAK256 SLOAD PUSH32 0xCE23C3E399818CFEE81A7AB0880F714E53D7672B08DF0FA62F2843416E1EA09 SWAP1 PUSH1 0xFF AND ISZERO PUSH2 0x89C JUMPI POP JUMP JUMPDEST DUP1 PUSH1 0x0 MSTORE PUSH1 0x0 PUSH1 0x20 MSTORE PUSH1 0x40 PUSH1 0x0 KECCAK256 CALLER PUSH1 0x0 MSTORE PUSH1 0x20 MSTORE PUSH1 0xFF PUSH1 0x40 PUSH1 0x0 KECCAK256 SLOAD AND ISZERO PUSH2 0x89C JUMPI POP JUMP JUMPDEST SWAP1 PUSH1 0x0 SWAP2 DUP1 DUP4 MSTORE DUP3 PUSH1 0x20 MSTORE PUSH1 0x40 DUP4 KECCAK256 SWAP2 PUSH1 0x1 DUP1 PUSH1 0xA0 SHL SUB AND SWAP2 DUP3 DUP5 MSTORE PUSH1 0x20 MSTORE PUSH1 0xFF PUSH1 0x40 DUP5 KECCAK256 SLOAD AND ISZERO PUSH1 0x0 EQ PUSH2 0x186A JUMPI DUP1 DUP4 MSTORE DUP3 PUSH1 0x20 MSTORE PUSH1 0x40 DUP4 KECCAK256 DUP3 DUP5 MSTORE PUSH1 0x20 MSTORE PUSH1 0x40 DUP4 KECCAK256 PUSH1 0x1 PUSH1 0xFF NOT DUP3 SLOAD AND OR SWAP1 SSTORE PUSH32 0x2F8788117E7EFF1D82E926EC794901D17C78024A50270940304540A733656F0D CALLER SWAP4 DUP1 LOG4 PUSH1 0x1 SWAP1 JUMP JUMPDEST POP POP SWAP1 JUMP JUMPDEST SWAP1 PUSH1 0x0 SWAP2 DUP1 DUP4 MSTORE DUP3 PUSH1 0x20 MSTORE PUSH1 0x40 DUP4 KECCAK256 SWAP2 PUSH1 0x1 DUP1 PUSH1 0xA0 SHL SUB AND SWAP2 DUP3 DUP5 MSTORE PUSH1 0x20 MSTORE PUSH1 0xFF PUSH1 0x40 DUP5 KECCAK256 SLOAD AND PUSH1 0x0 EQ PUSH2 0x186A JUMPI DUP1 DUP4 MSTORE DUP3 PUSH1 0x20 MSTORE PUSH1 0x40 DUP4 KECCAK256 DUP3 DUP5 MSTORE PUSH1 0x20 MSTORE PUSH1 0x40 DUP4 KECCAK256 PUSH1 0xFF NOT DUP2 SLOAD AND SWAP1 SSTORE PUSH32 0xF6391F5C32D9C69D2A47EA670B442974B53935D1EDC7FD64EB21E047A839171B CALLER SWAP4 DUP1 LOG4 PUSH1 0x1 SWAP1 JUMP INVALID LOG2 PUSH5 0x6970667358 0x22 SLT KECCAK256 PUSH32 0xC84AD2CDFFC4C8E563DEE28DD213ACC5B238D8B295CC52108A3038FC971E0564 PUSH20 0x6F6C634300081800332F8788117E7EFF1D82E926 0xEC PUSH26 0x4901D17C78024A50270940304540A733656F0D00000000000000 "},"methodIdentifiers":{"ADMIN_ROLE()":"75b238fc","DEFAULT_ADMIN_ROLE()":"a217fddf","VERIFIER_ROLE()":"e7705db6","activateAgent(uint256)":"d11257d0","agentExists(uint256)":"de99f157","agents(uint256)":"513856c8","calculateCost(uint256,uint256)":"ce394696","createAgent(string,address,uint8,uint256)":"27435539","deactivateAgent(uint256)":"11ba6b4a","getAgent(uint256)":"2de5aaf7","getAgentPricing(uint256)":"731f4c60","getAgentsByOwner(address)":"1ab6f888","getRoleAdmin(bytes32)":"248a9ca3","grantRole(bytes32,address)":"2f2ff15d","hasRole(bytes32,address)":"91d14854","isAgentActive(uint256)":"392d2d8e","ownerAgents(address,uint256)":"62febe4f","ownerOf(uint256)":"6352211e","recordUsage(uint256,uint256,uint256)":"6f4ea56a","renounceRole(bytes32,address)":"36568abe","revokeRole(bytes32,address)":"d547741f","supportsInterface(bytes4)":"01ffc9a7","totalAgents()":"c5053712","unverifyAgent(uint256)":"9964c10c","updateAgentMetadata(uint256,string)":"ed72e999","updateAgentPricing(uint256,uint8,uint256)":"4e12dbd7","updatePayoutAddress(uint256,address)":"534451c8","verifyAgent(uint256)":"9563f046"}}}}}