{"contracts/HoneycombAIAgentEscrow.sol":{"HoneycombAIAgentEscrow":{"abi":[{"inputs":[{"internalType":"address","name":"_registry","type":"address"},{"internalType":"address","name":"_feeVault","type":"address"}],"stateMutability":"nonpayable","type":"constructor"},{"inputs":[],"name":"AgentNotActive","type":"error"},{"inputs":[],"name":"AgentNotFound","type":"error"},{"inputs":[],"name":"InsufficientBalance","type":"error"},{"inputs":[],"name":"InsufficientPayment","type":"error"},{"inputs":[],"name":"InvalidFeeVault","type":"error"},{"inputs":[],"name":"InvalidUnits","type":"error"},{"inputs":[],"name":"NotAgentOwner","type":"error"},{"inputs":[{"internalType":"address","name":"owner","type":"address"}],"name":"OwnableInvalidOwner","type":"error"},{"inputs":[{"internalType":"address","name":"account","type":"address"}],"name":"OwnableUnauthorizedAccount","type":"error"},{"inputs":[],"name":"PaymentAlreadyUsed","type":"error"},{"inputs":[],"name":"ReentrancyGuardReentrantCall","type":"error"},{"inputs":[],"name":"WithdrawFailed","type":"error"},{"anonymous":false,"inputs":[{"indexed":true,"internalType":"uint256","name":"agentId","type":"uint256"},{"indexed":true,"internalType":"address","name":"to","type":"address"},{"indexed":false,"internalType":"uint256","name":"amount","type":"uint256"},{"indexed":false,"internalType":"uint256","name":"timestamp","type":"uint256"}],"name":"EarningsWithdrawn","type":"event"},{"anonymous":false,"inputs":[{"indexed":false,"internalType":"address","name":"oldVault","type":"address"},{"indexed":false,"internalType":"address","name":"newVault","type":"address"},{"indexed":false,"internalType":"uint256","name":"timestamp","type":"uint256"}],"name":"FeeVaultUpdated","type":"event"},{"anonymous":false,"inputs":[{"indexed":true,"internalType":"address","name":"previousOwner","type":"address"},{"indexed":true,"internalType":"address","name":"newOwner","type":"address"}],"name":"OwnershipTransferred","type":"event"},{"anonymous":false,"inputs":[{"indexed":true,"internalType":"uint256","name":"agentId","type":"uint256"},{"indexed":true,"internalType":"address","name":"user","type":"address"},{"indexed":false,"internalType":"uint256","name":"units","type":"uint256"},{"indexed":false,"internalType":"uint256","name":"totalAmount","type":"uint256"},{"indexed":false,"internalType":"uint256","name":"agentAmount","type":"uint256"},{"indexed":false,"internalType":"uint256","name":"platformFee","type":"uint256"},{"indexed":false,"internalType":"bytes32","name":"paymentHash","type":"bytes32"},{"indexed":false,"internalType":"uint256","name":"timestamp","type":"uint256"}],"name":"UsagePaid","type":"event"},{"inputs":[],"name":"BPS_DENOMINATOR","outputs":[{"internalType":"uint256","name":"","type":"uint256"}],"stateMutability":"view","type":"function"},{"inputs":[],"name":"PLATFORM_FEE_BPS","outputs":[{"internalType":"uint256","name":"","type":"uint256"}],"stateMutability":"view","type":"function"},{"inputs":[{"internalType":"uint256","name":"","type":"uint256"}],"name":"agentBalances","outputs":[{"internalType":"uint256","name":"","type":"uint256"}],"stateMutability":"view","type":"function"},{"inputs":[{"internalType":"uint256","name":"agentId","type":"uint256"},{"internalType":"uint256","name":"units","type":"uint256"}],"name":"calculatePayment","outputs":[{"internalType":"uint256","name":"totalCost","type":"uint256"},{"internalType":"uint256","name":"platformFee","type":"uint256"},{"internalType":"uint256","name":"agentEarnings","type":"uint256"}],"stateMutability":"view","type":"function"},{"inputs":[],"name":"feeVault","outputs":[{"internalType":"address","name":"","type":"address"}],"stateMutability":"view","type":"function"},{"inputs":[{"internalType":"uint256","name":"agentId","type":"uint256"}],"name":"getAgentBalance","outputs":[{"internalType":"uint256","name":"","type":"uint256"}],"stateMutability":"view","type":"function"},{"inputs":[],"name":"getPlatformFeeBps","outputs":[{"internalType":"uint256","name":"","type":"uint256"}],"stateMutability":"pure","type":"function"},{"inputs":[{"internalType":"bytes32","name":"paymentHash","type":"bytes32"}],"name":"isPaymentUsed","outputs":[{"internalType":"bool","name":"","type":"bool"}],"stateMutability":"view","type":"function"},{"inputs":[],"name":"owner","outputs":[{"internalType":"address","name":"","type":"address"}],"stateMutability":"view","type":"function"},{"inputs":[{"internalType":"uint256","name":"agentId","type":"uint256"},{"internalType":"uint256","name":"units","type":"uint256"}],"name":"payForUsage","outputs":[{"internalType":"bytes32","name":"paymentHash","type":"bytes32"}],"stateMutability":"payable","type":"function"},{"inputs":[],"name":"registry","outputs":[{"internalType":"address","name":"","type":"address"}],"stateMutability":"view","type":"function"},{"inputs":[],"name":"renounceOwnership","outputs":[],"stateMutability":"nonpayable","type":"function"},{"inputs":[{"internalType":"address","name":"newOwner","type":"address"}],"name":"transferOwnership","outputs":[],"stateMutability":"nonpayable","type":"function"},{"inputs":[{"internalType":"address","name":"newFeeVault","type":"address"}],"name":"updateFeeVault","outputs":[],"stateMutability":"nonpayable","type":"function"},{"inputs":[{"internalType":"bytes32","name":"","type":"bytes32"}],"name":"usedPaymentHashes","outputs":[{"internalType":"bool","name":"","type":"bool"}],"stateMutability":"view","type":"function"},{"inputs":[{"internalType":"uint256","name":"agentId","type":"uint256"}],"name":"withdrawAgentEarnings","outputs":[],"stateMutability":"nonpayable","type":"function"}],"evm":{"bytecode":{"linkReferences":{},"object":"60a0346101775761101a90601f38839003908101601f19168201906001600160401b0382118383101761017c578083916040958694855283398101031261017757610055602061004e83610192565b9201610192565b331561015f57600080546001600160a01b0319808216339081178455865191946001600160a01b039490938516907f8be0079c531659141344cd1fd0a4f28419497f9722a3daafe3b4186f6b6457e09080a3600180558285161561012a5750169182156100f257608052600254161760025551610e7390816101a7823960805181818161022d015281816105ce015281816106c4015261075f0152f35b835162461bcd60e51b8152602060048201526011602482015270125b9d985b1a5908199959481d985d5b1d607a1b6044820152606490fd5b62461bcd60e51b815260206004820152601060248201526f496e76616c696420726567697374727960801b6044820152606490fd5b8251631e4fbdf760e01b815260006004820152602490fd5b600080fd5b634e487b7160e01b600052604160045260246000fd5b51906001600160a01b03821682036101775756fe6080604052600436101561001257600080fd5b60003560e01c806326e3c6851461010d5780632a6cccb214610108578063478222c2146101035780634da4d7eb146100fe578063539aa77f146100f95780636e246a5b146100f4578063715018a6146100ef5780637b103999146100ea5780638da5cb5b146100e557806398041c68146100e0578063bd6ef83d146100db578063c8a46f95146100d1578063df199425146100db578063e1a45218146100d6578063ef30161b146100d15763f2fde38b146100cc57600080fd5b61096e565b610920565b610951565b6108f4565b61071c565b6106f3565b6106ae565b610650565b61057b565b61010d565b610205565b6101dc565b61013f565b3461012957600036600319011261012957602060405160648152f35b600080fd5b6001600160a01b0381160361012957565b346101295760203660031901126101295760043561015c8161012e565b610164610dee565b6001600160a01b0390811680156101ca577f3ac9726ebfde44038e778fc370c2ccfae4a6e4d09a2532409a03c7366963aaa99160609160025491816bffffffffffffffffffffffff60a01b841617600255604051921682526020820152426040820152a1005b60405163423eca3760e11b8152600490fd5b34610129576000366003190112610129576002546040516001600160a01b039091168152602090f35b604080600319360112610129576004359060243590610222610e1a565b811561056b576102bb7f000000000000000000000000000000000000000000000000000000000000000082516103548460209485946102ff86860163de99f15760e01b81528661027a8d602483019190602083019252565b039661028e601f1998898101835282610a10565b8c6102da6102e660009b8c998a998a808099819951908d5afa6102af610a53565b81610552575b50610aa7565b51928391820194631c9696c760e11b8652602483019190602083019252565b038b8101835282610a10565b5190855afa6102f3610a53565b81610539575b50610ae5565b875163671ca34b60e11b888201908152602482018c9052604482018b9052606487810183529091906103319082610a10565b51915afa610346610340610a53565b91610b24565b848082518301019101610b70565b928334106105285784519081018781523360601b6bffffffffffffffffffffffff1916602082015260348101879052346054820152426074820152436094820152916103ac908260b485015b03908101835282610a10565b519020936103ce6103c7866000526004602052604060002090565b5460ff1690565b610517576104bd956103fa6103ed876000526004602052604060002090565b805460ff19166001179055565b7ff9ebb7f45268fb69c1e731387899457cc770c4fb86fd131c05f62bebac203ab18661043061042834610b95565b612710900490565b61049961043d8234610bab565b95610452866000526003602052604060002090565b61045d888254610bb8565b9055826104e9575b8951938493339842933490879260a094919796959260c0850198855260208501526040840152606083015260808201520152565b0390a38134116104c1575b50506104af60018055565b519081529081906020820190565b0390f35b8080806104d16104e29534610bab565b335af16104dc610a53565b50610c07565b38806104a4565b610512888080808761050260025460018060a01b031690565b5af161050c610a53565b50610bc5565b610465565b83516353b0e62d60e11b8152600490fd5b845163cd1c886760e01b8152600490fd5b61054c9150898082518301019101610a90565b386102f9565b6105659150848082518301019101610a90565b386102b5565b51630e433c2360e31b8152600490fd5b346101295760403660031901126101295760405163671ca34b60e11b602082019081526004356024808401919091523560448084019190915282526106099160009182916105ca606482610a10565b51907f00000000000000000000000000000000000000000000000000000000000000005afa6105fa610340610a53565b60208082518301019101610b70565b606481028181046064148215171561064b576127109004906104bd61062e8383610bab565b604051938493846040919493926060820195825260208201520152565b610b7f565b34610129576000806003193601126106ab5761066a610dee565b80546001600160a01b03198116825581906001600160a01b03167f8be0079c531659141344cd1fd0a4f28419497f9722a3daafe3b4186f6b6457e08280a380f35b80fd5b34610129576000366003190112610129576040517f00000000000000000000000000000000000000000000000000000000000000006001600160a01b03168152602090f35b34610129576000366003190112610129576000546040516001600160a01b039091168152602090f35b346101295760208060031936011261012957600435610739610e1a565b604080516331a9108f60e11b8482019081526024808301859052825293919291601f19917f000000000000000000000000000000000000000000000000000000000000000091906107c9906107bd90610793604482610a10565b6000809981925190875afa6107af6107a9610a53565b91610c43565b838082518301019101610c92565b6001600160a01b031690565b6001600160a01b039290831633036108e3576107ef856000526003602052604060002090565b549384156108d257868880610862959489849583610817836000526003602052604060002090565b558551632de5aaf760e01b89820190815260248201939093529061083f9082604481016103a0565b51915afa9261085561084f610a53565b94610ca7565b8301518301019101610d5a565b50505050505050505091505016928480808085885af1610880610a53565b50156108c257519081524260208201527f75ebaff45d7ecf31647f8f1ba3273aad172e59724911298cf81ff50a253b5fe990604090a36108bf60018055565b80f35b51631d42c86760e21b8152600490fd5b8651631e9acf1760e31b8152600490fd5b8551630e41dcbf60e21b8152600490fd5b346101295760203660031901126101295760043560005260036020526020604060002054604051908152f35b34610129576020366003190112610129576004356000526004602052602060ff604060002054166040519015158152f35b346101295760003660031901126101295760206040516127108152f35b346101295760203660031901126101295760043561098b8161012e565b610993610dee565b6001600160a01b0390811680156109e157600080546001600160a01b03198116831782559092167f8be0079c531659141344cd1fd0a4f28419497f9722a3daafe3b4186f6b6457e08380a380f35b604051631e4fbdf760e01b815260006004820152602490fd5b634e487b7160e01b600052604160045260246000fd5b90601f8019910116810190811067ffffffffffffffff821117610a3257604052565b6109fa565b67ffffffffffffffff8111610a3257601f01601f191660200190565b3d15610a7e573d90610a6482610a37565b91610a726040519384610a10565b82523d6000602084013e565b606090565b5190811515820361012957565b9081602091031261012957610aa490610a83565b90565b15610aae57565b60405162461bcd60e51b815260206004820152600f60248201526e1059d95b9d081b9bdd08199bdd5b99608a1b6044820152606490fd5b15610aec57565b60405162461bcd60e51b815260206004820152601060248201526f4167656e74206e6f742061637469766560801b6044820152606490fd5b15610b2b57565b60405162461bcd60e51b815260206004820152601860248201527f4661696c656420746f2063616c63756c61746520636f737400000000000000006044820152606490fd5b90816020910312610129575190565b634e487b7160e01b600052601160045260246000fd5b9060648202918083046064149015171561064b57565b9190820391821161064b57565b9190820180921161064b57565b15610bcc57565b60405162461bcd60e51b8152602060048201526013602482015272119959481d1c985b9cd9995c8819985a5b1959606a1b6044820152606490fd5b15610c0e57565b60405162461bcd60e51b815260206004820152600d60248201526c1499599d5b990819985a5b1959609a1b6044820152606490fd5b15610c4a57565b60405162461bcd60e51b81526020600482015260136024820152722330b4b632b2103a379033b2ba1037bbb732b960691b6044820152606490fd5b5190610c908261012e565b565b908160209103126101295751610aa48161012e565b15610cae57565b60405162461bcd60e51b815260206004820152601360248201527211985a5b1959081d1bc819d95d081859d95b9d606a1b6044820152606490fd5b9080601f8301121561012957815190610d0182610a37565b92610d0f6040519485610a10565b828452602091602084830101116101295760005b838110610d395750505060206000918301015290565b8181018301518582018401528201610d23565b519060ff8216820361012957565b906101808282031261012957815192610d7560208401610c85565b92610d8260408201610c85565b9260608201519067ffffffffffffffff821161012957610da3918301610ce9565b91610db060808301610d4c565b9160a08101519160c08201519160e081015191610dd06101008301610a83565b91610dde6101208201610a83565b9161016061014083015192015190565b6000546001600160a01b03163303610e0257565b60405163118cdaa760e01b8152336004820152602490fd5b600260015414610e2b576002600155565b604051633ee5aeb560e01b8152600490fdfea2646970667358221220b99bc99f2bb648fbe824ad73d584087f6c333d70395612dab999cf45bbf2a54d64736f6c63430008180033","opcodes":"PUSH1 0xA0 CALLVALUE PUSH2 0x177 JUMPI PUSH2 0x101A SWAP1 PUSH1 0x1F CODESIZE DUP4 SWAP1 SUB SWAP1 DUP2 ADD PUSH1 0x1F NOT AND DUP3 ADD SWAP1 PUSH1 0x1 PUSH1 0x1 PUSH1 0x40 SHL SUB DUP3 GT DUP4 DUP4 LT OR PUSH2 0x17C JUMPI DUP1 DUP4 SWAP2 PUSH1 0x40 SWAP6 DUP7 SWAP5 DUP6 MSTORE DUP4 CODECOPY DUP2 ADD SUB SLT PUSH2 0x177 JUMPI PUSH2 0x55 PUSH1 0x20 PUSH2 0x4E DUP4 PUSH2 0x192 JUMP JUMPDEST SWAP3 ADD PUSH2 0x192 JUMP JUMPDEST CALLER ISZERO PUSH2 0x15F JUMPI PUSH1 0x0 DUP1 SLOAD PUSH1 0x1 PUSH1 0x1 PUSH1 0xA0 SHL SUB NOT DUP1 DUP3 AND CALLER SWAP1 DUP2 OR DUP5 SSTORE DUP7 MLOAD SWAP2 SWAP5 PUSH1 0x1 PUSH1 0x1 PUSH1 0xA0 SHL SUB SWAP5 SWAP1 SWAP4 DUP6 AND SWAP1 PUSH32 0x8BE0079C531659141344CD1FD0A4F28419497F9722A3DAAFE3B4186F6B6457E0 SWAP1 DUP1 LOG3 PUSH1 0x1 DUP1 SSTORE DUP3 DUP6 AND ISZERO PUSH2 0x12A JUMPI POP AND SWAP2 DUP3 ISZERO PUSH2 0xF2 JUMPI PUSH1 0x80 MSTORE PUSH1 0x2 SLOAD AND OR PUSH1 0x2 SSTORE MLOAD PUSH2 0xE73 SWAP1 DUP2 PUSH2 0x1A7 DUP3 CODECOPY PUSH1 0x80 MLOAD DUP2 DUP2 DUP2 PUSH2 0x22D ADD MSTORE DUP2 DUP2 PUSH2 0x5CE ADD MSTORE DUP2 DUP2 PUSH2 0x6C4 ADD MSTORE PUSH2 0x75F ADD MSTORE RETURN JUMPDEST DUP4 MLOAD PUSH3 0x461BCD PUSH1 0xE5 SHL DUP2 MSTORE PUSH1 0x20 PUSH1 0x4 DUP3 ADD MSTORE PUSH1 0x11 PUSH1 0x24 DUP3 ADD MSTORE PUSH17 0x125B9D985B1A5908199959481D985D5B1D PUSH1 0x7A SHL PUSH1 0x44 DUP3 ADD MSTORE PUSH1 0x64 SWAP1 REVERT JUMPDEST PUSH3 0x461BCD PUSH1 0xE5 SHL DUP2 MSTORE PUSH1 0x20 PUSH1 0x4 DUP3 ADD MSTORE PUSH1 0x10 PUSH1 0x24 DUP3 ADD MSTORE PUSH16 0x496E76616C6964207265676973747279 PUSH1 0x80 SHL PUSH1 0x44 DUP3 ADD MSTORE PUSH1 0x64 SWAP1 REVERT JUMPDEST DUP3 MLOAD PUSH4 0x1E4FBDF7 PUSH1 0xE0 SHL DUP2 MSTORE PUSH1 0x0 PUSH1 0x4 DUP3 ADD MSTORE PUSH1 0x24 SWAP1 REVERT JUMPDEST PUSH1 0x0 DUP1 REVERT JUMPDEST PUSH4 0x4E487B71 PUSH1 0xE0 SHL PUSH1 0x0 MSTORE PUSH1 0x41 PUSH1 0x4 MSTORE PUSH1 0x24 PUSH1 0x0 REVERT JUMPDEST MLOAD SWAP1 PUSH1 0x1 PUSH1 0x1 PUSH1 0xA0 SHL SUB DUP3 AND DUP3 SUB PUSH2 0x177 JUMPI JUMP INVALID PUSH1 0x80 PUSH1 0x40 MSTORE PUSH1 0x4 CALLDATASIZE LT ISZERO PUSH2 0x12 JUMPI PUSH1 0x0 DUP1 REVERT JUMPDEST PUSH1 0x0 CALLDATALOAD PUSH1 0xE0 SHR DUP1 PUSH4 0x26E3C685 EQ PUSH2 0x10D JUMPI DUP1 PUSH4 0x2A6CCCB2 EQ PUSH2 0x108 JUMPI DUP1 PUSH4 0x478222C2 EQ PUSH2 0x103 JUMPI DUP1 PUSH4 0x4DA4D7EB EQ PUSH2 0xFE JUMPI DUP1 PUSH4 0x539AA77F EQ PUSH2 0xF9 JUMPI DUP1 PUSH4 0x6E246A5B EQ PUSH2 0xF4 JUMPI DUP1 PUSH4 0x715018A6 EQ PUSH2 0xEF JUMPI DUP1 PUSH4 0x7B103999 EQ PUSH2 0xEA JUMPI DUP1 PUSH4 0x8DA5CB5B EQ PUSH2 0xE5 JUMPI DUP1 PUSH4 0x98041C68 EQ PUSH2 0xE0 JUMPI DUP1 PUSH4 0xBD6EF83D EQ PUSH2 0xDB JUMPI DUP1 PUSH4 0xC8A46F95 EQ PUSH2 0xD1 JUMPI DUP1 PUSH4 0xDF199425 EQ PUSH2 0xDB JUMPI DUP1 PUSH4 0xE1A45218 EQ PUSH2 0xD6 JUMPI DUP1 PUSH4 0xEF30161B EQ PUSH2 0xD1 JUMPI PUSH4 0xF2FDE38B EQ PUSH2 0xCC JUMPI PUSH1 0x0 DUP1 REVERT JUMPDEST PUSH2 0x96E JUMP JUMPDEST PUSH2 0x920 JUMP JUMPDEST PUSH2 0x951 JUMP JUMPDEST PUSH2 0x8F4 JUMP JUMPDEST PUSH2 0x71C JUMP JUMPDEST PUSH2 0x6F3 JUMP JUMPDEST PUSH2 0x6AE JUMP JUMPDEST PUSH2 0x650 JUMP JUMPDEST PUSH2 0x57B JUMP JUMPDEST PUSH2 0x10D JUMP JUMPDEST PUSH2 0x205 JUMP JUMPDEST PUSH2 0x1DC JUMP JUMPDEST PUSH2 0x13F JUMP JUMPDEST CALLVALUE PUSH2 0x129 JUMPI PUSH1 0x0 CALLDATASIZE PUSH1 0x3 NOT ADD SLT PUSH2 0x129 JUMPI PUSH1 0x20 PUSH1 0x40 MLOAD PUSH1 0x64 DUP2 MSTORE RETURN JUMPDEST PUSH1 0x0 DUP1 REVERT JUMPDEST PUSH1 0x1 PUSH1 0x1 PUSH1 0xA0 SHL SUB DUP2 AND SUB PUSH2 0x129 JUMPI JUMP JUMPDEST CALLVALUE PUSH2 0x129 JUMPI PUSH1 0x20 CALLDATASIZE PUSH1 0x3 NOT ADD SLT PUSH2 0x129 JUMPI PUSH1 0x4 CALLDATALOAD PUSH2 0x15C DUP2 PUSH2 0x12E JUMP JUMPDEST PUSH2 0x164 PUSH2 0xDEE JUMP JUMPDEST PUSH1 0x1 PUSH1 0x1 PUSH1 0xA0 SHL SUB SWAP1 DUP2 AND DUP1 ISZERO PUSH2 0x1CA JUMPI PUSH32 0x3AC9726EBFDE44038E778FC370C2CCFAE4A6E4D09A2532409A03C7366963AAA9 SWAP2 PUSH1 0x60 SWAP2 PUSH1 0x2 SLOAD SWAP2 DUP2 PUSH12 0xFFFFFFFFFFFFFFFFFFFFFFFF PUSH1 0xA0 SHL DUP5 AND OR PUSH1 0x2 SSTORE PUSH1 0x40 MLOAD SWAP3 AND DUP3 MSTORE PUSH1 0x20 DUP3 ADD MSTORE TIMESTAMP PUSH1 0x40 DUP3 ADD MSTORE LOG1 STOP JUMPDEST PUSH1 0x40 MLOAD PUSH4 0x423ECA37 PUSH1 0xE1 SHL DUP2 MSTORE PUSH1 0x4 SWAP1 REVERT JUMPDEST CALLVALUE PUSH2 0x129 JUMPI PUSH1 0x0 CALLDATASIZE PUSH1 0x3 NOT ADD SLT PUSH2 0x129 JUMPI PUSH1 0x2 SLOAD PUSH1 0x40 MLOAD PUSH1 0x1 PUSH1 0x1 PUSH1 0xA0 SHL SUB SWAP1 SWAP2 AND DUP2 MSTORE PUSH1 0x20 SWAP1 RETURN JUMPDEST PUSH1 0x40 DUP1 PUSH1 0x3 NOT CALLDATASIZE ADD SLT PUSH2 0x129 JUMPI PUSH1 0x4 CALLDATALOAD SWAP1 PUSH1 0x24 CALLDATALOAD SWAP1 PUSH2 0x222 PUSH2 0xE1A JUMP JUMPDEST DUP2 ISZERO PUSH2 0x56B JUMPI PUSH2 0x2BB PUSH32 0x0 DUP3 MLOAD PUSH2 0x354 DUP5 PUSH1 0x20 SWAP5 DUP6 SWAP5 PUSH2 0x2FF DUP7 DUP7 ADD PUSH4 0xDE99F157 PUSH1 0xE0 SHL DUP2 MSTORE DUP7 PUSH2 0x27A DUP14 PUSH1 0x24 DUP4 ADD SWAP2 SWAP1 PUSH1 0x20 DUP4 ADD SWAP3 MSTORE JUMP JUMPDEST SUB SWAP7 PUSH2 0x28E PUSH1 0x1F NOT SWAP9 DUP10 DUP2 ADD DUP4 MSTORE DUP3 PUSH2 0xA10 JUMP JUMPDEST DUP13 PUSH2 0x2DA PUSH2 0x2E6 PUSH1 0x0 SWAP12 DUP13 SWAP10 DUP11 SWAP10 DUP11 DUP1 DUP1 SWAP10 DUP2 SWAP10 MLOAD SWAP1 DUP14 GAS STATICCALL PUSH2 0x2AF PUSH2 0xA53 JUMP JUMPDEST DUP2 PUSH2 0x552 JUMPI JUMPDEST POP PUSH2 0xAA7 JUMP JUMPDEST MLOAD SWAP3 DUP4 SWAP2 DUP3 ADD SWAP5 PUSH4 0x1C9696C7 PUSH1 0xE1 SHL DUP7 MSTORE PUSH1 0x24 DUP4 ADD SWAP2 SWAP1 PUSH1 0x20 DUP4 ADD SWAP3 MSTORE JUMP JUMPDEST SUB DUP12 DUP2 ADD DUP4 MSTORE DUP3 PUSH2 0xA10 JUMP JUMPDEST MLOAD SWAP1 DUP6 GAS STATICCALL PUSH2 0x2F3 PUSH2 0xA53 JUMP JUMPDEST DUP2 PUSH2 0x539 JUMPI JUMPDEST POP PUSH2 0xAE5 JUMP JUMPDEST DUP8 MLOAD PUSH4 0x671CA34B PUSH1 0xE1 SHL DUP9 DUP3 ADD SWAP1 DUP2 MSTORE PUSH1 0x24 DUP3 ADD DUP13 SWAP1 MSTORE PUSH1 0x44 DUP3 ADD DUP12 SWAP1 MSTORE PUSH1 0x64 DUP8 DUP2 ADD DUP4 MSTORE SWAP1 SWAP2 SWAP1 PUSH2 0x331 SWAP1 DUP3 PUSH2 0xA10 JUMP JUMPDEST MLOAD SWAP2 GAS STATICCALL PUSH2 0x346 PUSH2 0x340 PUSH2 0xA53 JUMP JUMPDEST SWAP2 PUSH2 0xB24 JUMP JUMPDEST DUP5 DUP1 DUP3 MLOAD DUP4 ADD ADD SWAP2 ADD PUSH2 0xB70 JUMP JUMPDEST SWAP3 DUP4 CALLVALUE LT PUSH2 0x528 JUMPI DUP5 MLOAD SWAP1 DUP2 ADD DUP8 DUP2 MSTORE CALLER PUSH1 0x60 SHL PUSH12 0xFFFFFFFFFFFFFFFFFFFFFFFF NOT AND PUSH1 0x20 DUP3 ADD MSTORE PUSH1 0x34 DUP2 ADD DUP8 SWAP1 MSTORE CALLVALUE PUSH1 0x54 DUP3 ADD MSTORE TIMESTAMP PUSH1 0x74 DUP3 ADD MSTORE NUMBER PUSH1 0x94 DUP3 ADD MSTORE SWAP2 PUSH2 0x3AC SWAP1 DUP3 PUSH1 0xB4 DUP6 ADD JUMPDEST SUB SWAP1 DUP2 ADD DUP4 MSTORE DUP3 PUSH2 0xA10 JUMP JUMPDEST MLOAD SWAP1 KECCAK256 SWAP4 PUSH2 0x3CE PUSH2 0x3C7 DUP7 PUSH1 0x0 MSTORE PUSH1 0x4 PUSH1 0x20 MSTORE PUSH1 0x40 PUSH1 0x0 KECCAK256 SWAP1 JUMP JUMPDEST SLOAD PUSH1 0xFF AND SWAP1 JUMP JUMPDEST PUSH2 0x517 JUMPI PUSH2 0x4BD SWAP6 PUSH2 0x3FA PUSH2 0x3ED DUP8 PUSH1 0x0 MSTORE PUSH1 0x4 PUSH1 0x20 MSTORE PUSH1 0x40 PUSH1 0x0 KECCAK256 SWAP1 JUMP JUMPDEST DUP1 SLOAD PUSH1 0xFF NOT AND PUSH1 0x1 OR SWAP1 SSTORE JUMP JUMPDEST PUSH32 0xF9EBB7F45268FB69C1E731387899457CC770C4FB86FD131C05F62BEBAC203AB1 DUP7 PUSH2 0x430 PUSH2 0x428 CALLVALUE PUSH2 0xB95 JUMP JUMPDEST PUSH2 0x2710 SWAP1 DIV SWAP1 JUMP JUMPDEST PUSH2 0x499 PUSH2 0x43D DUP3 CALLVALUE PUSH2 0xBAB JUMP JUMPDEST SWAP6 PUSH2 0x452 DUP7 PUSH1 0x0 MSTORE PUSH1 0x3 PUSH1 0x20 MSTORE PUSH1 0x40 PUSH1 0x0 KECCAK256 SWAP1 JUMP JUMPDEST PUSH2 0x45D DUP9 DUP3 SLOAD PUSH2 0xBB8 JUMP JUMPDEST SWAP1 SSTORE DUP3 PUSH2 0x4E9 JUMPI JUMPDEST DUP10 MLOAD SWAP4 DUP5 SWAP4 CALLER SWAP9 TIMESTAMP SWAP4 CALLVALUE SWAP1 DUP8 SWAP3 PUSH1 0xA0 SWAP5 SWAP2 SWAP8 SWAP7 SWAP6 SWAP3 PUSH1 0xC0 DUP6 ADD SWAP9 DUP6 MSTORE PUSH1 0x20 DUP6 ADD MSTORE PUSH1 0x40 DUP5 ADD MSTORE PUSH1 0x60 DUP4 ADD MSTORE PUSH1 0x80 DUP3 ADD MSTORE ADD MSTORE JUMP JUMPDEST SUB SWAP1 LOG3 DUP2 CALLVALUE GT PUSH2 0x4C1 JUMPI JUMPDEST POP POP PUSH2 0x4AF PUSH1 0x1 DUP1 SSTORE JUMP JUMPDEST MLOAD SWAP1 DUP2 MSTORE SWAP1 DUP2 SWAP1 PUSH1 0x20 DUP3 ADD SWAP1 JUMP JUMPDEST SUB SWAP1 RETURN JUMPDEST DUP1 DUP1 DUP1 PUSH2 0x4D1 PUSH2 0x4E2 SWAP6 CALLVALUE PUSH2 0xBAB JUMP JUMPDEST CALLER GAS CALL PUSH2 0x4DC PUSH2 0xA53 JUMP JUMPDEST POP PUSH2 0xC07 JUMP JUMPDEST CODESIZE DUP1 PUSH2 0x4A4 JUMP JUMPDEST PUSH2 0x512 DUP9 DUP1 DUP1 DUP1 DUP8 PUSH2 0x502 PUSH1 0x2 SLOAD PUSH1 0x1 DUP1 PUSH1 0xA0 SHL SUB AND SWAP1 JUMP JUMPDEST GAS CALL PUSH2 0x50C PUSH2 0xA53 JUMP JUMPDEST POP PUSH2 0xBC5 JUMP JUMPDEST PUSH2 0x465 JUMP JUMPDEST DUP4 MLOAD PUSH4 0x53B0E62D PUSH1 0xE1 SHL DUP2 MSTORE PUSH1 0x4 SWAP1 REVERT JUMPDEST DUP5 MLOAD PUSH4 0xCD1C8867 PUSH1 0xE0 SHL DUP2 MSTORE PUSH1 0x4 SWAP1 REVERT JUMPDEST PUSH2 0x54C SWAP2 POP DUP10 DUP1 DUP3 MLOAD DUP4 ADD ADD SWAP2 ADD PUSH2 0xA90 JUMP JUMPDEST CODESIZE PUSH2 0x2F9 JUMP JUMPDEST PUSH2 0x565 SWAP2 POP DUP5 DUP1 DUP3 MLOAD DUP4 ADD ADD SWAP2 ADD PUSH2 0xA90 JUMP JUMPDEST CODESIZE PUSH2 0x2B5 JUMP JUMPDEST MLOAD PUSH4 0xE433C23 PUSH1 0xE3 SHL DUP2 MSTORE PUSH1 0x4 SWAP1 REVERT JUMPDEST CALLVALUE PUSH2 0x129 JUMPI PUSH1 0x40 CALLDATASIZE PUSH1 0x3 NOT ADD SLT PUSH2 0x129 JUMPI PUSH1 0x40 MLOAD PUSH4 0x671CA34B PUSH1 0xE1 SHL PUSH1 0x20 DUP3 ADD SWAP1 DUP2 MSTORE PUSH1 0x4 CALLDATALOAD PUSH1 0x24 DUP1 DUP5 ADD SWAP2 SWAP1 SWAP2 MSTORE CALLDATALOAD PUSH1 0x44 DUP1 DUP5 ADD SWAP2 SWAP1 SWAP2 MSTORE DUP3 MSTORE PUSH2 0x609 SWAP2 PUSH1 0x0 SWAP2 DUP3 SWAP2 PUSH2 0x5CA PUSH1 0x64 DUP3 PUSH2 0xA10 JUMP JUMPDEST MLOAD SWAP1 PUSH32 0x0 GAS STATICCALL PUSH2 0x5FA PUSH2 0x340 PUSH2 0xA53 JUMP JUMPDEST PUSH1 0x20 DUP1 DUP3 MLOAD DUP4 ADD ADD SWAP2 ADD PUSH2 0xB70 JUMP JUMPDEST PUSH1 0x64 DUP2 MUL DUP2 DUP2 DIV PUSH1 0x64 EQ DUP3 ISZERO OR ISZERO PUSH2 0x64B JUMPI PUSH2 0x2710 SWAP1 DIV SWAP1 PUSH2 0x4BD PUSH2 0x62E DUP4 DUP4 PUSH2 0xBAB JUMP JUMPDEST PUSH1 0x40 MLOAD SWAP4 DUP5 SWAP4 DUP5 PUSH1 0x40 SWAP2 SWAP5 SWAP4 SWAP3 PUSH1 0x60 DUP3 ADD SWAP6 DUP3 MSTORE PUSH1 0x20 DUP3 ADD MSTORE ADD MSTORE JUMP JUMPDEST PUSH2 0xB7F JUMP JUMPDEST CALLVALUE PUSH2 0x129 JUMPI PUSH1 0x0 DUP1 PUSH1 0x3 NOT CALLDATASIZE ADD SLT PUSH2 0x6AB JUMPI PUSH2 0x66A PUSH2 0xDEE JUMP JUMPDEST DUP1 SLOAD PUSH1 0x1 PUSH1 0x1 PUSH1 0xA0 SHL SUB NOT DUP2 AND DUP3 SSTORE DUP2 SWAP1 PUSH1 0x1 PUSH1 0x1 PUSH1 0xA0 SHL SUB AND PUSH32 0x8BE0079C531659141344CD1FD0A4F28419497F9722A3DAAFE3B4186F6B6457E0 DUP3 DUP1 LOG3 DUP1 RETURN JUMPDEST DUP1 REVERT JUMPDEST CALLVALUE PUSH2 0x129 JUMPI PUSH1 0x0 CALLDATASIZE PUSH1 0x3 NOT ADD SLT PUSH2 0x129 JUMPI PUSH1 0x40 MLOAD PUSH32 0x0 PUSH1 0x1 PUSH1 0x1 PUSH1 0xA0 SHL SUB AND DUP2 MSTORE PUSH1 0x20 SWAP1 RETURN JUMPDEST CALLVALUE PUSH2 0x129 JUMPI PUSH1 0x0 CALLDATASIZE PUSH1 0x3 NOT ADD SLT PUSH2 0x129 JUMPI PUSH1 0x0 SLOAD PUSH1 0x40 MLOAD PUSH1 0x1 PUSH1 0x1 PUSH1 0xA0 SHL SUB SWAP1 SWAP2 AND DUP2 MSTORE PUSH1 0x20 SWAP1 RETURN JUMPDEST CALLVALUE PUSH2 0x129 JUMPI PUSH1 0x20 DUP1 PUSH1 0x3 NOT CALLDATASIZE ADD SLT PUSH2 0x129 JUMPI PUSH1 0x4 CALLDATALOAD PUSH2 0x739 PUSH2 0xE1A JUMP JUMPDEST PUSH1 0x40 DUP1 MLOAD PUSH4 0x31A9108F PUSH1 0xE1 SHL DUP5 DUP3 ADD SWAP1 DUP2 MSTORE PUSH1 0x24 DUP1 DUP4 ADD DUP6 SWAP1 MSTORE DUP3 MSTORE SWAP4 SWAP2 SWAP3 SWAP2 PUSH1 0x1F NOT SWAP2 PUSH32 0x0 SWAP2 SWAP1 PUSH2 0x7C9 SWAP1 PUSH2 0x7BD SWAP1 PUSH2 0x793 PUSH1 0x44 DUP3 PUSH2 0xA10 JUMP JUMPDEST PUSH1 0x0 DUP1 SWAP10 DUP2 SWAP3 MLOAD SWAP1 DUP8 GAS STATICCALL PUSH2 0x7AF PUSH2 0x7A9 PUSH2 0xA53 JUMP JUMPDEST SWAP2 PUSH2 0xC43 JUMP JUMPDEST DUP4 DUP1 DUP3 MLOAD DUP4 ADD ADD SWAP2 ADD PUSH2 0xC92 JUMP JUMPDEST PUSH1 0x1 PUSH1 0x1 PUSH1 0xA0 SHL SUB AND SWAP1 JUMP JUMPDEST PUSH1 0x1 PUSH1 0x1 PUSH1 0xA0 SHL SUB SWAP3 SWAP1 DUP4 AND CALLER SUB PUSH2 0x8E3 JUMPI PUSH2 0x7EF DUP6 PUSH1 0x0 MSTORE PUSH1 0x3 PUSH1 0x20 MSTORE PUSH1 0x40 PUSH1 0x0 KECCAK256 SWAP1 JUMP JUMPDEST SLOAD SWAP4 DUP5 ISZERO PUSH2 0x8D2 JUMPI DUP7 DUP9 DUP1 PUSH2 0x862 SWAP6 SWAP5 DUP10 DUP5 SWAP6 DUP4 PUSH2 0x817 DUP4 PUSH1 0x0 MSTORE PUSH1 0x3 PUSH1 0x20 MSTORE PUSH1 0x40 PUSH1 0x0 KECCAK256 SWAP1 JUMP JUMPDEST SSTORE DUP6 MLOAD PUSH4 0x2DE5AAF7 PUSH1 0xE0 SHL DUP10 DUP3 ADD SWAP1 DUP2 MSTORE PUSH1 0x24 DUP3 ADD SWAP4 SWAP1 SWAP4 MSTORE SWAP1 PUSH2 0x83F SWAP1 DUP3 PUSH1 0x44 DUP2 ADD PUSH2 0x3A0 JUMP JUMPDEST MLOAD SWAP2 GAS STATICCALL SWAP3 PUSH2 0x855 PUSH2 0x84F PUSH2 0xA53 JUMP JUMPDEST SWAP5 PUSH2 0xCA7 JUMP JUMPDEST DUP4 ADD MLOAD DUP4 ADD ADD SWAP2 ADD PUSH2 0xD5A JUMP JUMPDEST POP POP POP POP POP POP POP POP POP SWAP2 POP POP AND SWAP3 DUP5 DUP1 DUP1 DUP1 DUP6 DUP9 GAS CALL PUSH2 0x880 PUSH2 0xA53 JUMP JUMPDEST POP ISZERO PUSH2 0x8C2 JUMPI MLOAD SWAP1 DUP2 MSTORE TIMESTAMP PUSH1 0x20 DUP3 ADD MSTORE PUSH32 0x75EBAFF45D7ECF31647F8F1BA3273AAD172E59724911298CF81FF50A253B5FE9 SWAP1 PUSH1 0x40 SWAP1 LOG3 PUSH2 0x8BF PUSH1 0x1 DUP1 SSTORE JUMP JUMPDEST DUP1 RETURN JUMPDEST MLOAD PUSH4 0x1D42C867 PUSH1 0xE2 SHL DUP2 MSTORE PUSH1 0x4 SWAP1 REVERT JUMPDEST DUP7 MLOAD PUSH4 0x1E9ACF17 PUSH1 0xE3 SHL DUP2 MSTORE PUSH1 0x4 SWAP1 REVERT JUMPDEST DUP6 MLOAD PUSH4 0xE41DCBF PUSH1 0xE2 SHL DUP2 MSTORE PUSH1 0x4 SWAP1 REVERT JUMPDEST CALLVALUE PUSH2 0x129 JUMPI PUSH1 0x20 CALLDATASIZE PUSH1 0x3 NOT ADD SLT PUSH2 0x129 JUMPI PUSH1 0x4 CALLDATALOAD PUSH1 0x0 MSTORE PUSH1 0x3 PUSH1 0x20 MSTORE PUSH1 0x20 PUSH1 0x40 PUSH1 0x0 KECCAK256 SLOAD PUSH1 0x40 MLOAD SWAP1 DUP2 MSTORE RETURN JUMPDEST CALLVALUE PUSH2 0x129 JUMPI PUSH1 0x20 CALLDATASIZE PUSH1 0x3 NOT ADD SLT PUSH2 0x129 JUMPI PUSH1 0x4 CALLDATALOAD PUSH1 0x0 MSTORE PUSH1 0x4 PUSH1 0x20 MSTORE PUSH1 0x20 PUSH1 0xFF PUSH1 0x40 PUSH1 0x0 KECCAK256 SLOAD AND PUSH1 0x40 MLOAD SWAP1 ISZERO ISZERO DUP2 MSTORE RETURN JUMPDEST CALLVALUE PUSH2 0x129 JUMPI PUSH1 0x0 CALLDATASIZE PUSH1 0x3 NOT ADD SLT PUSH2 0x129 JUMPI PUSH1 0x20 PUSH1 0x40 MLOAD PUSH2 0x2710 DUP2 MSTORE RETURN JUMPDEST CALLVALUE PUSH2 0x129 JUMPI PUSH1 0x20 CALLDATASIZE PUSH1 0x3 NOT ADD SLT PUSH2 0x129 JUMPI PUSH1 0x4 CALLDATALOAD PUSH2 0x98B DUP2 PUSH2 0x12E JUMP JUMPDEST PUSH2 0x993 PUSH2 0xDEE JUMP JUMPDEST PUSH1 0x1 PUSH1 0x1 PUSH1 0xA0 SHL SUB SWAP1 DUP2 AND DUP1 ISZERO PUSH2 0x9E1 JUMPI PUSH1 0x0 DUP1 SLOAD PUSH1 0x1 PUSH1 0x1 PUSH1 0xA0 SHL SUB NOT DUP2 AND DUP4 OR DUP3 SSTORE SWAP1 SWAP3 AND PUSH32 0x8BE0079C531659141344CD1FD0A4F28419497F9722A3DAAFE3B4186F6B6457E0 DUP4 DUP1 LOG3 DUP1 RETURN JUMPDEST PUSH1 0x40 MLOAD PUSH4 0x1E4FBDF7 PUSH1 0xE0 SHL DUP2 MSTORE PUSH1 0x0 PUSH1 0x4 DUP3 ADD MSTORE PUSH1 0x24 SWAP1 REVERT JUMPDEST PUSH4 0x4E487B71 PUSH1 0xE0 SHL PUSH1 0x0 MSTORE PUSH1 0x41 PUSH1 0x4 MSTORE PUSH1 0x24 PUSH1 0x0 REVERT JUMPDEST SWAP1 PUSH1 0x1F DUP1 NOT SWAP2 ADD AND DUP2 ADD SWAP1 DUP2 LT PUSH8 0xFFFFFFFFFFFFFFFF DUP3 GT OR PUSH2 0xA32 JUMPI PUSH1 0x40 MSTORE JUMP JUMPDEST PUSH2 0x9FA JUMP JUMPDEST PUSH8 0xFFFFFFFFFFFFFFFF DUP2 GT PUSH2 0xA32 JUMPI PUSH1 0x1F ADD PUSH1 0x1F NOT AND PUSH1 0x20 ADD SWAP1 JUMP JUMPDEST RETURNDATASIZE ISZERO PUSH2 0xA7E JUMPI RETURNDATASIZE SWAP1 PUSH2 0xA64 DUP3 PUSH2 0xA37 JUMP JUMPDEST SWAP2 PUSH2 0xA72 PUSH1 0x40 MLOAD SWAP4 DUP5 PUSH2 0xA10 JUMP JUMPDEST DUP3 MSTORE RETURNDATASIZE PUSH1 0x0 PUSH1 0x20 DUP5 ADD RETURNDATACOPY JUMP JUMPDEST PUSH1 0x60 SWAP1 JUMP JUMPDEST MLOAD SWAP1 DUP2 ISZERO ISZERO DUP3 SUB PUSH2 0x129 JUMPI JUMP JUMPDEST SWAP1 DUP2 PUSH1 0x20 SWAP2 SUB SLT PUSH2 0x129 JUMPI PUSH2 0xAA4 SWAP1 PUSH2 0xA83 JUMP JUMPDEST SWAP1 JUMP JUMPDEST ISZERO PUSH2 0xAAE JUMPI JUMP JUMPDEST PUSH1 0x40 MLOAD PUSH3 0x461BCD PUSH1 0xE5 SHL DUP2 MSTORE PUSH1 0x20 PUSH1 0x4 DUP3 ADD MSTORE PUSH1 0xF PUSH1 0x24 DUP3 ADD MSTORE PUSH15 0x1059D95B9D081B9BDD08199BDD5B99 PUSH1 0x8A SHL PUSH1 0x44 DUP3 ADD MSTORE PUSH1 0x64 SWAP1 REVERT JUMPDEST ISZERO PUSH2 0xAEC JUMPI JUMP JUMPDEST PUSH1 0x40 MLOAD PUSH3 0x461BCD PUSH1 0xE5 SHL DUP2 MSTORE PUSH1 0x20 PUSH1 0x4 DUP3 ADD MSTORE PUSH1 0x10 PUSH1 0x24 DUP3 ADD MSTORE PUSH16 0x4167656E74206E6F7420616374697665 PUSH1 0x80 SHL PUSH1 0x44 DUP3 ADD MSTORE PUSH1 0x64 SWAP1 REVERT JUMPDEST ISZERO PUSH2 0xB2B JUMPI JUMP JUMPDEST PUSH1 0x40 MLOAD PUSH3 0x461BCD PUSH1 0xE5 SHL DUP2 MSTORE PUSH1 0x20 PUSH1 0x4 DUP3 ADD MSTORE PUSH1 0x18 PUSH1 0x24 DUP3 ADD MSTORE PUSH32 0x4661696C656420746F2063616C63756C61746520636F73740000000000000000 PUSH1 0x44 DUP3 ADD MSTORE PUSH1 0x64 SWAP1 REVERT JUMPDEST SWAP1 DUP2 PUSH1 0x20 SWAP2 SUB SLT PUSH2 0x129 JUMPI MLOAD SWAP1 JUMP JUMPDEST PUSH4 0x4E487B71 PUSH1 0xE0 SHL PUSH1 0x0 MSTORE PUSH1 0x11 PUSH1 0x4 MSTORE PUSH1 0x24 PUSH1 0x0 REVERT JUMPDEST SWAP1 PUSH1 0x64 DUP3 MUL SWAP2 DUP1 DUP4 DIV PUSH1 0x64 EQ SWAP1 ISZERO OR ISZERO PUSH2 0x64B JUMPI JUMP JUMPDEST SWAP2 SWAP1 DUP3 SUB SWAP2 DUP3 GT PUSH2 0x64B JUMPI JUMP JUMPDEST SWAP2 SWAP1 DUP3 ADD DUP1 SWAP3 GT PUSH2 0x64B JUMPI JUMP JUMPDEST ISZERO PUSH2 0xBCC JUMPI JUMP JUMPDEST PUSH1 0x40 MLOAD PUSH3 0x461BCD PUSH1 0xE5 SHL DUP2 MSTORE PUSH1 0x20 PUSH1 0x4 DUP3 ADD MSTORE PUSH1 0x13 PUSH1 0x24 DUP3 ADD MSTORE PUSH19 0x119959481D1C985B9CD9995C8819985A5B1959 PUSH1 0x6A SHL PUSH1 0x44 DUP3 ADD MSTORE PUSH1 0x64 SWAP1 REVERT JUMPDEST ISZERO PUSH2 0xC0E JUMPI JUMP JUMPDEST PUSH1 0x40 MLOAD PUSH3 0x461BCD PUSH1 0xE5 SHL DUP2 MSTORE PUSH1 0x20 PUSH1 0x4 DUP3 ADD MSTORE PUSH1 0xD PUSH1 0x24 DUP3 ADD MSTORE PUSH13 0x1499599D5B990819985A5B1959 PUSH1 0x9A SHL PUSH1 0x44 DUP3 ADD MSTORE PUSH1 0x64 SWAP1 REVERT JUMPDEST ISZERO PUSH2 0xC4A JUMPI JUMP JUMPDEST PUSH1 0x40 MLOAD PUSH3 0x461BCD PUSH1 0xE5 SHL DUP2 MSTORE PUSH1 0x20 PUSH1 0x4 DUP3 ADD MSTORE PUSH1 0x13 PUSH1 0x24 DUP3 ADD MSTORE PUSH19 0x2330B4B632B2103A379033B2BA1037BBB732B9 PUSH1 0x69 SHL PUSH1 0x44 DUP3 ADD MSTORE PUSH1 0x64 SWAP1 REVERT JUMPDEST MLOAD SWAP1 PUSH2 0xC90 DUP3 PUSH2 0x12E JUMP JUMPDEST JUMP JUMPDEST SWAP1 DUP2 PUSH1 0x20 SWAP2 SUB SLT PUSH2 0x129 JUMPI MLOAD PUSH2 0xAA4 DUP2 PUSH2 0x12E JUMP JUMPDEST ISZERO PUSH2 0xCAE JUMPI JUMP JUMPDEST PUSH1 0x40 MLOAD PUSH3 0x461BCD PUSH1 0xE5 SHL DUP2 MSTORE PUSH1 0x20 PUSH1 0x4 DUP3 ADD MSTORE PUSH1 0x13 PUSH1 0x24 DUP3 ADD MSTORE PUSH19 0x11985A5B1959081D1BC819D95D081859D95B9D PUSH1 0x6A SHL PUSH1 0x44 DUP3 ADD MSTORE PUSH1 0x64 SWAP1 REVERT JUMPDEST SWAP1 DUP1 PUSH1 0x1F DUP4 ADD SLT ISZERO PUSH2 0x129 JUMPI DUP2 MLOAD SWAP1 PUSH2 0xD01 DUP3 PUSH2 0xA37 JUMP JUMPDEST SWAP3 PUSH2 0xD0F PUSH1 0x40 MLOAD SWAP5 DUP6 PUSH2 0xA10 JUMP JUMPDEST DUP3 DUP5 MSTORE PUSH1 0x20 SWAP2 PUSH1 0x20 DUP5 DUP4 ADD ADD GT PUSH2 0x129 JUMPI PUSH1 0x0 JUMPDEST DUP4 DUP2 LT PUSH2 0xD39 JUMPI POP POP POP PUSH1 0x20 PUSH1 0x0 SWAP2 DUP4 ADD ADD MSTORE SWAP1 JUMP JUMPDEST DUP2 DUP2 ADD DUP4 ADD MLOAD DUP6 DUP3 ADD DUP5 ADD MSTORE DUP3 ADD PUSH2 0xD23 JUMP JUMPDEST MLOAD SWAP1 PUSH1 0xFF DUP3 AND DUP3 SUB PUSH2 0x129 JUMPI JUMP JUMPDEST SWAP1 PUSH2 0x180 DUP3 DUP3 SUB SLT PUSH2 0x129 JUMPI DUP2 MLOAD SWAP3 PUSH2 0xD75 PUSH1 0x20 DUP5 ADD PUSH2 0xC85 JUMP JUMPDEST SWAP3 PUSH2 0xD82 PUSH1 0x40 DUP3 ADD PUSH2 0xC85 JUMP JUMPDEST SWAP3 PUSH1 0x60 DUP3 ADD MLOAD SWAP1 PUSH8 0xFFFFFFFFFFFFFFFF DUP3 GT PUSH2 0x129 JUMPI PUSH2 0xDA3 SWAP2 DUP4 ADD PUSH2 0xCE9 JUMP JUMPDEST SWAP2 PUSH2 0xDB0 PUSH1 0x80 DUP4 ADD PUSH2 0xD4C JUMP JUMPDEST SWAP2 PUSH1 0xA0 DUP2 ADD MLOAD SWAP2 PUSH1 0xC0 DUP3 ADD MLOAD SWAP2 PUSH1 0xE0 DUP2 ADD MLOAD SWAP2 PUSH2 0xDD0 PUSH2 0x100 DUP4 ADD PUSH2 0xA83 JUMP JUMPDEST SWAP2 PUSH2 0xDDE PUSH2 0x120 DUP3 ADD PUSH2 0xA83 JUMP JUMPDEST SWAP2 PUSH2 0x160 PUSH2 0x140 DUP4 ADD MLOAD SWAP3 ADD MLOAD SWAP1 JUMP JUMPDEST PUSH1 0x0 SLOAD PUSH1 0x1 PUSH1 0x1 PUSH1 0xA0 SHL SUB AND CALLER SUB PUSH2 0xE02 JUMPI JUMP JUMPDEST PUSH1 0x40 MLOAD PUSH4 0x118CDAA7 PUSH1 0xE0 SHL DUP2 MSTORE CALLER PUSH1 0x4 DUP3 ADD MSTORE PUSH1 0x24 SWAP1 REVERT JUMPDEST PUSH1 0x2 PUSH1 0x1 SLOAD EQ PUSH2 0xE2B JUMPI PUSH1 0x2 PUSH1 0x1 SSTORE JUMP JUMPDEST PUSH1 0x40 MLOAD PUSH4 0x3EE5AEB5 PUSH1 0xE0 SHL DUP2 MSTORE PUSH1 0x4 SWAP1 REVERT INVALID LOG2 PUSH5 0x6970667358 0x22 SLT KECCAK256 0xB9 SWAP12 0xC9 SWAP16 0x2B 0xB6 BASEFEE 0xFB 0xE8 0x24 0xAD PUSH20 0xD584087F6C333D70395612DAB999CF45BBF2A54D PUSH5 0x736F6C6343 STOP ADDMOD XOR STOP CALLER "},"methodIdentifiers":{"BPS_DENOMINATOR()":"e1a45218","PLATFORM_FEE_BPS()":"539aa77f","agentBalances(uint256)":"df199425","calculatePayment(uint256,uint256)":"6e246a5b","feeVault()":"478222c2","getAgentBalance(uint256)":"bd6ef83d","getPlatformFeeBps()":"26e3c685","isPaymentUsed(bytes32)":"ef30161b","owner()":"8da5cb5b","payForUsage(uint256,uint256)":"4da4d7eb","registry()":"7b103999","renounceOwnership()":"715018a6","transferOwnership(address)":"f2fde38b","updateFeeVault(address)":"2a6cccb2","usedPaymentHashes(bytes32)":"c8a46f95","withdrawAgentEarnings(uint256)":"98041c68"}}}}}