{"contracts/launchpad/HoneycombToken.sol":{"HoneycombToken":{"abi":[{"inputs":[{"internalType":"string","name":"_name","type":"string"},{"internalType":"string","name":"_symbol","type":"string"},{"internalType":"string","name":"_metadataCID","type":"string"},{"internalType":"uint256","name":"_creatorBeeId","type":"uint256"}],"stateMutability":"nonpayable","type":"constructor"},{"inputs":[{"internalType":"address","name":"spender","type":"address"},{"internalType":"uint256","name":"allowance","type":"uint256"},{"internalType":"uint256","name":"needed","type":"uint256"}],"name":"ERC20InsufficientAllowance","type":"error"},{"inputs":[{"internalType":"address","name":"sender","type":"address"},{"internalType":"uint256","name":"balance","type":"uint256"},{"internalType":"uint256","name":"needed","type":"uint256"}],"name":"ERC20InsufficientBalance","type":"error"},{"inputs":[{"internalType":"address","name":"approver","type":"address"}],"name":"ERC20InvalidApprover","type":"error"},{"inputs":[{"internalType":"address","name":"receiver","type":"address"}],"name":"ERC20InvalidReceiver","type":"error"},{"inputs":[{"internalType":"address","name":"sender","type":"address"}],"name":"ERC20InvalidSender","type":"error"},{"inputs":[{"internalType":"address","name":"spender","type":"address"}],"name":"ERC20InvalidSpender","type":"error"},{"inputs":[],"name":"MarketAlreadySet","type":"error"},{"inputs":[],"name":"MaxSupplyExceeded","type":"error"},{"inputs":[],"name":"NotFactory","type":"error"},{"inputs":[],"name":"NotMarket","type":"error"},{"anonymous":false,"inputs":[{"indexed":true,"internalType":"address","name":"owner","type":"address"},{"indexed":true,"internalType":"address","name":"spender","type":"address"},{"indexed":false,"internalType":"uint256","name":"value","type":"uint256"}],"name":"Approval","type":"event"},{"anonymous":false,"inputs":[{"indexed":true,"internalType":"address","name":"from","type":"address"},{"indexed":true,"internalType":"address","name":"to","type":"address"},{"indexed":false,"internalType":"uint256","name":"value","type":"uint256"}],"name":"Transfer","type":"event"},{"inputs":[],"name":"MAX_SUPPLY","outputs":[{"internalType":"uint256","name":"","type":"uint256"}],"stateMutability":"view","type":"function"},{"inputs":[{"internalType":"address","name":"owner","type":"address"},{"internalType":"address","name":"spender","type":"address"}],"name":"allowance","outputs":[{"internalType":"uint256","name":"","type":"uint256"}],"stateMutability":"view","type":"function"},{"inputs":[{"internalType":"address","name":"spender","type":"address"},{"internalType":"uint256","name":"value","type":"uint256"}],"name":"approve","outputs":[{"internalType":"bool","name":"","type":"bool"}],"stateMutability":"nonpayable","type":"function"},{"inputs":[{"internalType":"address","name":"account","type":"address"}],"name":"balanceOf","outputs":[{"internalType":"uint256","name":"","type":"uint256"}],"stateMutability":"view","type":"function"},{"inputs":[{"internalType":"address","name":"from","type":"address"},{"internalType":"uint256","name":"amount","type":"uint256"}],"name":"burn","outputs":[],"stateMutability":"nonpayable","type":"function"},{"inputs":[{"internalType":"uint256","name":"amount","type":"uint256"}],"name":"burnSelf","outputs":[],"stateMutability":"nonpayable","type":"function"},{"inputs":[],"name":"creatorBeeId","outputs":[{"internalType":"uint256","name":"","type":"uint256"}],"stateMutability":"view","type":"function"},{"inputs":[],"name":"decimals","outputs":[{"internalType":"uint8","name":"","type":"uint8"}],"stateMutability":"pure","type":"function"},{"inputs":[],"name":"factory","outputs":[{"internalType":"address","name":"","type":"address"}],"stateMutability":"view","type":"function"},{"inputs":[],"name":"market","outputs":[{"internalType":"address","name":"","type":"address"}],"stateMutability":"view","type":"function"},{"inputs":[],"name":"metadataCID","outputs":[{"internalType":"string","name":"","type":"string"}],"stateMutability":"view","type":"function"},{"inputs":[{"internalType":"address","name":"to","type":"address"},{"internalType":"uint256","name":"amount","type":"uint256"}],"name":"mint","outputs":[],"stateMutability":"nonpayable","type":"function"},{"inputs":[],"name":"name","outputs":[{"internalType":"string","name":"","type":"string"}],"stateMutability":"view","type":"function"},{"inputs":[{"internalType":"address","name":"_market","type":"address"}],"name":"setMarket","outputs":[],"stateMutability":"nonpayable","type":"function"},{"inputs":[],"name":"symbol","outputs":[{"internalType":"string","name":"","type":"string"}],"stateMutability":"view","type":"function"},{"inputs":[],"name":"totalSupply","outputs":[{"internalType":"uint256","name":"","type":"uint256"}],"stateMutability":"view","type":"function"},{"inputs":[{"internalType":"address","name":"to","type":"address"},{"internalType":"uint256","name":"value","type":"uint256"}],"name":"transfer","outputs":[{"internalType":"bool","name":"","type":"bool"}],"stateMutability":"nonpayable","type":"function"},{"inputs":[{"internalType":"address","name":"from","type":"address"},{"internalType":"address","name":"to","type":"address"},{"internalType":"uint256","name":"value","type":"uint256"}],"name":"transferFrom","outputs":[{"internalType":"bool","name":"","type":"bool"}],"stateMutability":"nonpayable","type":"function"}],"evm":{"bytecode":{"linkReferences":{},"object":"60a060405234620004b45762001080803803806200001d81620004b9565b9283398101608082820312620004b45781516001600160401b0390818111620004b457826200004e918501620004df565b91602080850151838111620004b457826200006b918701620004df565b916040860151848111620004b45760609162000089918801620004df565b95015194845191848311620003b4576003938454936001978886811c96168015620004a9575b8487101462000493578190601f968781116200043d575b508490878311600114620003d657600092620003ca575b505060001982881b1c191690881b1785555b8051868111620003b45760049182548981811c91168015620003a9575b8582101462000394579081878493116200033e575b508490878311600114620002d757600092620002cb575b505060001982881b1c191690881b1781555b336080528251958611620002b657600654908782811c92168015620002ab575b838310146200029657508381116200024a575b5080928511600114620001da5750938394918492600095620001ce575b50501b92600019911b1c1916176006555b600755604051610b2e908162000552823960805181818161016801526103dd0152f35b0151935038806200019a565b92919084601f198116600660005285600020956000905b898383106200022f575050501062000214575b50505050811b01600655620001ab565b01519060f884600019921b161c191690553880808062000204565b858701518955909701969485019488935090810190620001f1565b6006600052816000208480880160051c8201928489106200028c575b0160051c019087905b8281106200027f5750506200017d565b600081550187906200026f565b9250819262000266565b602290634e487b7160e01b6000525260246000fd5b91607f16916200016a565b604190634e487b7160e01b6000525260246000fd5b01519050388062000138565b908a9350601f1983169185600052866000209260005b888282106200032757505084116200030e575b505050811b0181556200014a565b0151600019838a1b60f8161c1916905538808062000300565b8385015186558e97909501949384019301620002ed565b90915083600052846000208780850160051c8201928786106200038a575b918c91869594930160051c01915b8281106200037a57505062000121565b600081558594508c91016200036a565b925081926200035c565b602284634e487b7160e01b6000525260246000fd5b90607f16906200010c565b634e487b7160e01b600052604160045260246000fd5b015190503880620000dd565b908a9350601f1983169189600052866000209260005b888282106200042657505084116200040d575b505050811b018555620000ef565b0151600019838a1b60f8161c19169055388080620003ff565b8385015186558e97909501949384019301620003ec565b90915087600052846000208780850160051c82019287861062000489575b918c91869594930160051c01915b82811062000479575050620000c6565b600081558594508c910162000469565b925081926200045b565b634e487b7160e01b600052602260045260246000fd5b95607f1695620000af565b600080fd5b6040519190601f01601f191682016001600160401b03811183821017620003b457604052565b919080601f84011215620004b45782516001600160401b038111620003b45760209062000515601f8201601f19168301620004b9565b92818452828287010111620004b45760005b8181106200053d57508260009394955001015290565b85810183015184820184015282016200052756fe608060408181526004918236101561001657600080fd5b600092833560e01c91826306fdde031461080457508163095ea7b31461075a57816318160ddd1461073b57816323b872dd14610644578163313ce5671461062857816332cb6b0c1461060157816340c10f191461052257816358871c46146104465781636dcea85f146103b757816370a082311461038057816380f556051461035757816395d89b41146102365781639dc29fac146101e9578163a9059cbb146101b8578163b8b12a1e1461019757508063c45a015514610154578063dd62ed3e1461010c5763e03d9141146100eb57600080fd5b346101085781600319360112610108576020906007549051908152f35b5080fd5b503461010857806003193601126101085780602092610129610927565b610131610942565b6001600160a01b0391821683526001865283832091168252845220549051908152f35b5034610108578160031936011261010857517f00000000000000000000000000000000000000000000000000000000000000006001600160a01b03168152602090f35b839034610108576020366003190112610108576101b5903533610a59565b80f35b5050346101085780600319360112610108576020906101e26101d8610927565b602435903361097b565b5160018152f35b905034610232578160031936011261023257610203610927565b6005549092906001600160a01b0316330361022557836101b560243585610a59565b5163c4bbea6960e01b8152fd5b8280fd5b83833461010857816003193601126101085780519082845460018160011c906001831692831561034d575b602093848410811461033a5783885290811561031e57506001146102c9575b505050829003601f01601f191682019267ffffffffffffffff8411838510176102b657508291826102b29252826108de565b0390f35b634e487b7160e01b815260418552602490fd5b8787529192508591837f8a35acfbc15ff81a39ae7d344fd709f28e8600b4aa8c65c6b64bfe7fe36bd19b5b83851061030a5750505050830101858080610280565b8054888601830152930192849082016102f4565b60ff1916878501525050151560051b8401019050858080610280565b634e487b7160e01b895260228a52602489fd5b91607f1691610261565b50503461010857816003193601126101085760055490516001600160a01b039091168152602090f35b5050346101085760203660031901126101085760209181906001600160a01b036103a8610927565b16815280845220549051908152f35b905034610232576020366003190112610232576103d2610927565b6001600160a01b03917f000000000000000000000000000000000000000000000000000000000000000083163303610438576005549383851661042b57505016906bffffffffffffffffffffffff60a01b161760055580f35b516306ddda6b60e01b8152fd5b8351631966391b60e11b8152fd5b8383346101085781600319360112610108578051908260065460018160011c9060018316928315610518575b602093848410811461033a5783885290811561031e57506001146104c257505050829003601f01601f191682019267ffffffffffffffff8411838510176102b657508291826102b29252826108de565b600687529192508591837ff652222313e28459528d920b65115c16c04f3efc82aaedc97be59f3f377c0d3f5b8385106105045750505050830101858080610280565b8054888601830152930192849082016104ee565b91607f1691610472565b9190503461023257806003193601126102325761053d610927565b6005546024359291906001600160a01b0390811633036105f157600254916b033b2e3c9fd0803ce80000006105728685610958565b116105e157169384156105ca5750827fddf252ad1be2c89b69c2b068fc378daa952ba7f163c4a11628f55a4df523b3ef926105b08795602094610958565b60025585855284835280852082815401905551908152a380f35b825163ec442f0560e01b8152908101869052602490fd5b8351638a164f6360e01b81528690fd5b825163c4bbea6960e01b81528590fd5b505034610108578160031936011261010857602090516b033b2e3c9fd0803ce80000008152f35b5050346101085781600319360112610108576020905160128152f35b9050823461073857606036600319011261073857610660610927565b610668610942565b916044359360018060a01b0383168083526001602052868320338452602052868320549160001983106106a4575b6020886101e289898961097b565b86831061070c5781156106f55733156106de575082526001602090815286832033845281529186902090859003905582906101e287610696565b8751634a1406b160e11b8152908101849052602490fd5b875163e602df0560e01b8152908101849052602490fd5b8751637dc7a0d960e11b8152339181019182526020820193909352604081018790528291506060010390fd5b80fd5b5050346101085781600319360112610108576020906002549051908152f35b905034610232578160031936011261023257610774610927565b6024359033156107ed576001600160a01b03169182156107d657508083602095338152600187528181208582528752205582519081527f8c5be1e5ebec7d5bd14f71427d1e84f3dd0314c0f7b2291e5b200ac8c7c3b925843392a35160018152f35b8351634a1406b160e11b8152908101859052602490fd5b835163e602df0560e01b8152808401869052602490fd5b849084346102325782600319360112610232578260035460018160011c90600183169283156108d4575b602093848410811461033a5783885290811561031e575060011461087e57505050829003601f01601f191682019267ffffffffffffffff8411838510176102b657508291826102b29252826108de565b600387529192508591837fc2575a0e9e593c00f959f8c92f12db2869c3395a3b0502d05e2516446f71f85b5b8385106108c05750505050830101858080610280565b8054888601830152930192849082016108aa565b91607f169161082e565b6020808252825181830181905290939260005b82811061091357505060409293506000838284010152601f8019910116010190565b8181018601518482016040015285016108f1565b600435906001600160a01b038216820361093d57565b600080fd5b602435906001600160a01b038216820361093d57565b9190820180921161096557565b634e487b7160e01b600052601160045260246000fd5b916001600160a01b03808416928315610a405716928315610a2757600090838252816020526040822054908382106109f5575091604082827fddf252ad1be2c89b69c2b068fc378daa952ba7f163c4a11628f55a4df523b3ef958760209652828652038282205586815220818154019055604051908152a3565b60405163391434e360e21b81526001600160a01b03919091166004820152602481019190915260448101839052606490fd5b60405163ec442f0560e01b815260006004820152602490fd5b604051634b637e8f60e11b815260006004820152602490fd5b906001600160a01b038216908115610a405760009282845283602052604084205490828210610ac65750817fddf252ad1be2c89b69c2b068fc378daa952ba7f163c4a11628f55a4df523b3ef926020928587528684520360408620558060025403600255604051908152a3565b60405163391434e360e21b81526001600160a01b03919091166004820152602481019190915260448101829052606490fdfea2646970667358221220c6f4e8c26a547bb91658f7d1531fb4ce026e0b115580056303ed8470f1d0f99464736f6c63430008180033","opcodes":"PUSH1 0xA0 PUSH1 0x40 MSTORE CALLVALUE PUSH3 0x4B4 JUMPI PUSH3 0x1080 DUP1 CODESIZE SUB DUP1 PUSH3 0x1D DUP2 PUSH3 0x4B9 JUMP JUMPDEST SWAP3 DUP4 CODECOPY DUP2 ADD PUSH1 0x80 DUP3 DUP3 SUB SLT PUSH3 0x4B4 JUMPI DUP2 MLOAD PUSH1 0x1 PUSH1 0x1 PUSH1 0x40 SHL SUB SWAP1 DUP2 DUP2 GT PUSH3 0x4B4 JUMPI DUP3 PUSH3 0x4E SWAP2 DUP6 ADD PUSH3 0x4DF JUMP JUMPDEST SWAP2 PUSH1 0x20 DUP1 DUP6 ADD MLOAD DUP4 DUP2 GT PUSH3 0x4B4 JUMPI DUP3 PUSH3 0x6B SWAP2 DUP8 ADD PUSH3 0x4DF JUMP JUMPDEST SWAP2 PUSH1 0x40 DUP7 ADD MLOAD DUP5 DUP2 GT PUSH3 0x4B4 JUMPI PUSH1 0x60 SWAP2 PUSH3 0x89 SWAP2 DUP9 ADD PUSH3 0x4DF JUMP JUMPDEST SWAP6 ADD MLOAD SWAP5 DUP5 MLOAD SWAP2 DUP5 DUP4 GT PUSH3 0x3B4 JUMPI PUSH1 0x3 SWAP4 DUP5 SLOAD SWAP4 PUSH1 0x1 SWAP8 DUP9 DUP7 DUP2 SHR SWAP7 AND DUP1 ISZERO PUSH3 0x4A9 JUMPI JUMPDEST DUP5 DUP8 LT EQ PUSH3 0x493 JUMPI DUP2 SWAP1 PUSH1 0x1F SWAP7 DUP8 DUP2 GT PUSH3 0x43D JUMPI JUMPDEST POP DUP5 SWAP1 DUP8 DUP4 GT PUSH1 0x1 EQ PUSH3 0x3D6 JUMPI PUSH1 0x0 SWAP3 PUSH3 0x3CA JUMPI JUMPDEST POP POP PUSH1 0x0 NOT DUP3 DUP9 SHL SHR NOT AND SWAP1 DUP9 SHL OR DUP6 SSTORE JUMPDEST DUP1 MLOAD DUP7 DUP2 GT PUSH3 0x3B4 JUMPI PUSH1 0x4 SWAP2 DUP3 SLOAD DUP10 DUP2 DUP2 SHR SWAP2 AND DUP1 ISZERO PUSH3 0x3A9 JUMPI JUMPDEST DUP6 DUP3 LT EQ PUSH3 0x394 JUMPI SWAP1 DUP2 DUP8 DUP5 SWAP4 GT PUSH3 0x33E JUMPI JUMPDEST POP DUP5 SWAP1 DUP8 DUP4 GT PUSH1 0x1 EQ PUSH3 0x2D7 JUMPI PUSH1 0x0 SWAP3 PUSH3 0x2CB JUMPI JUMPDEST POP POP PUSH1 0x0 NOT DUP3 DUP9 SHL SHR NOT AND SWAP1 DUP9 SHL OR DUP2 SSTORE JUMPDEST CALLER PUSH1 0x80 MSTORE DUP3 MLOAD SWAP6 DUP7 GT PUSH3 0x2B6 JUMPI PUSH1 0x6 SLOAD SWAP1 DUP8 DUP3 DUP2 SHR SWAP3 AND DUP1 ISZERO PUSH3 0x2AB JUMPI JUMPDEST DUP4 DUP4 LT EQ PUSH3 0x296 JUMPI POP DUP4 DUP2 GT PUSH3 0x24A JUMPI JUMPDEST POP DUP1 SWAP3 DUP6 GT PUSH1 0x1 EQ PUSH3 0x1DA JUMPI POP SWAP4 DUP4 SWAP5 SWAP2 DUP5 SWAP3 PUSH1 0x0 SWAP6 PUSH3 0x1CE JUMPI JUMPDEST POP POP SHL SWAP3 PUSH1 0x0 NOT SWAP2 SHL SHR NOT AND OR PUSH1 0x6 SSTORE JUMPDEST PUSH1 0x7 SSTORE PUSH1 0x40 MLOAD PUSH2 0xB2E SWAP1 DUP2 PUSH3 0x552 DUP3 CODECOPY PUSH1 0x80 MLOAD DUP2 DUP2 DUP2 PUSH2 0x168 ADD MSTORE PUSH2 0x3DD ADD MSTORE RETURN JUMPDEST ADD MLOAD SWAP4 POP CODESIZE DUP1 PUSH3 0x19A JUMP JUMPDEST SWAP3 SWAP2 SWAP1 DUP5 PUSH1 0x1F NOT DUP2 AND PUSH1 0x6 PUSH1 0x0 MSTORE DUP6 PUSH1 0x0 KECCAK256 SWAP6 PUSH1 0x0 SWAP1 JUMPDEST DUP10 DUP4 DUP4 LT PUSH3 0x22F JUMPI POP POP POP LT PUSH3 0x214 JUMPI JUMPDEST POP POP POP POP DUP2 SHL ADD PUSH1 0x6 SSTORE PUSH3 0x1AB JUMP JUMPDEST ADD MLOAD SWAP1 PUSH1 0xF8 DUP5 PUSH1 0x0 NOT SWAP3 SHL AND SHR NOT AND SWAP1 SSTORE CODESIZE DUP1 DUP1 DUP1 PUSH3 0x204 JUMP JUMPDEST DUP6 DUP8 ADD MLOAD DUP10 SSTORE SWAP1 SWAP8 ADD SWAP7 SWAP5 DUP6 ADD SWAP5 DUP9 SWAP4 POP SWAP1 DUP2 ADD SWAP1 PUSH3 0x1F1 JUMP JUMPDEST PUSH1 0x6 PUSH1 0x0 MSTORE DUP2 PUSH1 0x0 KECCAK256 DUP5 DUP1 DUP9 ADD PUSH1 0x5 SHR DUP3 ADD SWAP3 DUP5 DUP10 LT PUSH3 0x28C JUMPI JUMPDEST ADD PUSH1 0x5 SHR ADD SWAP1 DUP8 SWAP1 JUMPDEST DUP3 DUP2 LT PUSH3 0x27F JUMPI POP POP PUSH3 0x17D JUMP JUMPDEST PUSH1 0x0 DUP2 SSTORE ADD DUP8 SWAP1 PUSH3 0x26F JUMP JUMPDEST SWAP3 POP DUP2 SWAP3 PUSH3 0x266 JUMP JUMPDEST PUSH1 0x22 SWAP1 PUSH4 0x4E487B71 PUSH1 0xE0 SHL PUSH1 0x0 MSTORE MSTORE PUSH1 0x24 PUSH1 0x0 REVERT JUMPDEST SWAP2 PUSH1 0x7F AND SWAP2 PUSH3 0x16A JUMP JUMPDEST PUSH1 0x41 SWAP1 PUSH4 0x4E487B71 PUSH1 0xE0 SHL PUSH1 0x0 MSTORE MSTORE PUSH1 0x24 PUSH1 0x0 REVERT JUMPDEST ADD MLOAD SWAP1 POP CODESIZE DUP1 PUSH3 0x138 JUMP JUMPDEST SWAP1 DUP11 SWAP4 POP PUSH1 0x1F NOT DUP4 AND SWAP2 DUP6 PUSH1 0x0 MSTORE DUP7 PUSH1 0x0 KECCAK256 SWAP3 PUSH1 0x0 JUMPDEST DUP9 DUP3 DUP3 LT PUSH3 0x327 JUMPI POP POP DUP5 GT PUSH3 0x30E JUMPI JUMPDEST POP POP POP DUP2 SHL ADD DUP2 SSTORE PUSH3 0x14A JUMP JUMPDEST ADD MLOAD PUSH1 0x0 NOT DUP4 DUP11 SHL PUSH1 0xF8 AND SHR NOT AND SWAP1 SSTORE CODESIZE DUP1 DUP1 PUSH3 0x300 JUMP JUMPDEST DUP4 DUP6 ADD MLOAD DUP7 SSTORE DUP15 SWAP8 SWAP1 SWAP6 ADD SWAP5 SWAP4 DUP5 ADD SWAP4 ADD PUSH3 0x2ED JUMP JUMPDEST SWAP1 SWAP2 POP DUP4 PUSH1 0x0 MSTORE DUP5 PUSH1 0x0 KECCAK256 DUP8 DUP1 DUP6 ADD PUSH1 0x5 SHR DUP3 ADD SWAP3 DUP8 DUP7 LT PUSH3 0x38A JUMPI JUMPDEST SWAP2 DUP13 SWAP2 DUP7 SWAP6 SWAP5 SWAP4 ADD PUSH1 0x5 SHR ADD SWAP2 JUMPDEST DUP3 DUP2 LT PUSH3 0x37A JUMPI POP POP PUSH3 0x121 JUMP JUMPDEST PUSH1 0x0 DUP2 SSTORE DUP6 SWAP5 POP DUP13 SWAP2 ADD PUSH3 0x36A JUMP JUMPDEST SWAP3 POP DUP2 SWAP3 PUSH3 0x35C JUMP JUMPDEST PUSH1 0x22 DUP5 PUSH4 0x4E487B71 PUSH1 0xE0 SHL PUSH1 0x0 MSTORE MSTORE PUSH1 0x24 PUSH1 0x0 REVERT JUMPDEST SWAP1 PUSH1 0x7F AND SWAP1 PUSH3 0x10C JUMP JUMPDEST PUSH4 0x4E487B71 PUSH1 0xE0 SHL PUSH1 0x0 MSTORE PUSH1 0x41 PUSH1 0x4 MSTORE PUSH1 0x24 PUSH1 0x0 REVERT JUMPDEST ADD MLOAD SWAP1 POP CODESIZE DUP1 PUSH3 0xDD JUMP JUMPDEST SWAP1 DUP11 SWAP4 POP PUSH1 0x1F NOT DUP4 AND SWAP2 DUP10 PUSH1 0x0 MSTORE DUP7 PUSH1 0x0 KECCAK256 SWAP3 PUSH1 0x0 JUMPDEST DUP9 DUP3 DUP3 LT PUSH3 0x426 JUMPI POP POP DUP5 GT PUSH3 0x40D JUMPI JUMPDEST POP POP POP DUP2 SHL ADD DUP6 SSTORE PUSH3 0xEF JUMP JUMPDEST ADD MLOAD PUSH1 0x0 NOT DUP4 DUP11 SHL PUSH1 0xF8 AND SHR NOT AND SWAP1 SSTORE CODESIZE DUP1 DUP1 PUSH3 0x3FF JUMP JUMPDEST DUP4 DUP6 ADD MLOAD DUP7 SSTORE DUP15 SWAP8 SWAP1 SWAP6 ADD SWAP5 SWAP4 DUP5 ADD SWAP4 ADD PUSH3 0x3EC JUMP JUMPDEST SWAP1 SWAP2 POP DUP8 PUSH1 0x0 MSTORE DUP5 PUSH1 0x0 KECCAK256 DUP8 DUP1 DUP6 ADD PUSH1 0x5 SHR DUP3 ADD SWAP3 DUP8 DUP7 LT PUSH3 0x489 JUMPI JUMPDEST SWAP2 DUP13 SWAP2 DUP7 SWAP6 SWAP5 SWAP4 ADD PUSH1 0x5 SHR ADD SWAP2 JUMPDEST DUP3 DUP2 LT PUSH3 0x479 JUMPI POP POP PUSH3 0xC6 JUMP JUMPDEST PUSH1 0x0 DUP2 SSTORE DUP6 SWAP5 POP DUP13 SWAP2 ADD PUSH3 0x469 JUMP JUMPDEST SWAP3 POP DUP2 SWAP3 PUSH3 0x45B JUMP JUMPDEST PUSH4 0x4E487B71 PUSH1 0xE0 SHL PUSH1 0x0 MSTORE PUSH1 0x22 PUSH1 0x4 MSTORE PUSH1 0x24 PUSH1 0x0 REVERT JUMPDEST SWAP6 PUSH1 0x7F AND SWAP6 PUSH3 0xAF JUMP JUMPDEST PUSH1 0x0 DUP1 REVERT JUMPDEST PUSH1 0x40 MLOAD SWAP2 SWAP1 PUSH1 0x1F ADD PUSH1 0x1F NOT AND DUP3 ADD PUSH1 0x1 PUSH1 0x1 PUSH1 0x40 SHL SUB DUP2 GT DUP4 DUP3 LT OR PUSH3 0x3B4 JUMPI PUSH1 0x40 MSTORE JUMP JUMPDEST SWAP2 SWAP1 DUP1 PUSH1 0x1F DUP5 ADD SLT ISZERO PUSH3 0x4B4 JUMPI DUP3 MLOAD PUSH1 0x1 PUSH1 0x1 PUSH1 0x40 SHL SUB DUP2 GT PUSH3 0x3B4 JUMPI PUSH1 0x20 SWAP1 PUSH3 0x515 PUSH1 0x1F DUP3 ADD PUSH1 0x1F NOT AND DUP4 ADD PUSH3 0x4B9 JUMP JUMPDEST SWAP3 DUP2 DUP5 MSTORE DUP3 DUP3 DUP8 ADD ADD GT PUSH3 0x4B4 JUMPI PUSH1 0x0 JUMPDEST DUP2 DUP2 LT PUSH3 0x53D JUMPI POP DUP3 PUSH1 0x0 SWAP4 SWAP5 SWAP6 POP ADD ADD MSTORE SWAP1 JUMP JUMPDEST DUP6 DUP2 ADD DUP4 ADD MLOAD DUP5 DUP3 ADD DUP5 ADD MSTORE DUP3 ADD PUSH3 0x527 JUMP INVALID PUSH1 0x80 PUSH1 0x40 DUP2 DUP2 MSTORE PUSH1 0x4 SWAP2 DUP3 CALLDATASIZE LT ISZERO PUSH2 0x16 JUMPI PUSH1 0x0 DUP1 REVERT JUMPDEST PUSH1 0x0 SWAP3 DUP4 CALLDATALOAD PUSH1 0xE0 SHR SWAP2 DUP3 PUSH4 0x6FDDE03 EQ PUSH2 0x804 JUMPI POP DUP2 PUSH4 0x95EA7B3 EQ PUSH2 0x75A JUMPI DUP2 PUSH4 0x18160DDD EQ PUSH2 0x73B JUMPI DUP2 PUSH4 0x23B872DD EQ PUSH2 0x644 JUMPI DUP2 PUSH4 0x313CE567 EQ PUSH2 0x628 JUMPI DUP2 PUSH4 0x32CB6B0C EQ PUSH2 0x601 JUMPI DUP2 PUSH4 0x40C10F19 EQ PUSH2 0x522 JUMPI DUP2 PUSH4 0x58871C46 EQ PUSH2 0x446 JUMPI DUP2 PUSH4 0x6DCEA85F EQ PUSH2 0x3B7 JUMPI DUP2 PUSH4 0x70A08231 EQ PUSH2 0x380 JUMPI DUP2 PUSH4 0x80F55605 EQ PUSH2 0x357 JUMPI DUP2 PUSH4 0x95D89B41 EQ PUSH2 0x236 JUMPI DUP2 PUSH4 0x9DC29FAC EQ PUSH2 0x1E9 JUMPI DUP2 PUSH4 0xA9059CBB EQ PUSH2 0x1B8 JUMPI DUP2 PUSH4 0xB8B12A1E EQ PUSH2 0x197 JUMPI POP DUP1 PUSH4 0xC45A0155 EQ PUSH2 0x154 JUMPI DUP1 PUSH4 0xDD62ED3E EQ PUSH2 0x10C JUMPI PUSH4 0xE03D9141 EQ PUSH2 0xEB JUMPI PUSH1 0x0 DUP1 REVERT JUMPDEST CALLVALUE PUSH2 0x108 JUMPI DUP2 PUSH1 0x3 NOT CALLDATASIZE ADD SLT PUSH2 0x108 JUMPI PUSH1 0x20 SWAP1 PUSH1 0x7 SLOAD SWAP1 MLOAD SWAP1 DUP2 MSTORE RETURN JUMPDEST POP DUP1 REVERT JUMPDEST POP CALLVALUE PUSH2 0x108 JUMPI DUP1 PUSH1 0x3 NOT CALLDATASIZE ADD SLT PUSH2 0x108 JUMPI DUP1 PUSH1 0x20 SWAP3 PUSH2 0x129 PUSH2 0x927 JUMP JUMPDEST PUSH2 0x131 PUSH2 0x942 JUMP JUMPDEST PUSH1 0x1 PUSH1 0x1 PUSH1 0xA0 SHL SUB SWAP2 DUP3 AND DUP4 MSTORE PUSH1 0x1 DUP7 MSTORE DUP4 DUP4 KECCAK256 SWAP2 AND DUP3 MSTORE DUP5 MSTORE KECCAK256 SLOAD SWAP1 MLOAD SWAP1 DUP2 MSTORE RETURN JUMPDEST POP CALLVALUE PUSH2 0x108 JUMPI DUP2 PUSH1 0x3 NOT CALLDATASIZE ADD SLT PUSH2 0x108 JUMPI MLOAD PUSH32 0x0 PUSH1 0x1 PUSH1 0x1 PUSH1 0xA0 SHL SUB AND DUP2 MSTORE PUSH1 0x20 SWAP1 RETURN JUMPDEST DUP4 SWAP1 CALLVALUE PUSH2 0x108 JUMPI PUSH1 0x20 CALLDATASIZE PUSH1 0x3 NOT ADD SLT PUSH2 0x108 JUMPI PUSH2 0x1B5 SWAP1 CALLDATALOAD CALLER PUSH2 0xA59 JUMP JUMPDEST DUP1 RETURN JUMPDEST POP POP CALLVALUE PUSH2 0x108 JUMPI DUP1 PUSH1 0x3 NOT CALLDATASIZE ADD SLT PUSH2 0x108 JUMPI PUSH1 0x20 SWAP1 PUSH2 0x1E2 PUSH2 0x1D8 PUSH2 0x927 JUMP JUMPDEST PUSH1 0x24 CALLDATALOAD SWAP1 CALLER PUSH2 0x97B JUMP JUMPDEST MLOAD PUSH1 0x1 DUP2 MSTORE RETURN JUMPDEST SWAP1 POP CALLVALUE PUSH2 0x232 JUMPI DUP2 PUSH1 0x3 NOT CALLDATASIZE ADD SLT PUSH2 0x232 JUMPI PUSH2 0x203 PUSH2 0x927 JUMP JUMPDEST PUSH1 0x5 SLOAD SWAP1 SWAP3 SWAP1 PUSH1 0x1 PUSH1 0x1 PUSH1 0xA0 SHL SUB AND CALLER SUB PUSH2 0x225 JUMPI DUP4 PUSH2 0x1B5 PUSH1 0x24 CALLDATALOAD DUP6 PUSH2 0xA59 JUMP JUMPDEST MLOAD PUSH4 0xC4BBEA69 PUSH1 0xE0 SHL DUP2 MSTORE REVERT JUMPDEST DUP3 DUP1 REVERT JUMPDEST DUP4 DUP4 CALLVALUE PUSH2 0x108 JUMPI DUP2 PUSH1 0x3 NOT CALLDATASIZE ADD SLT PUSH2 0x108 JUMPI DUP1 MLOAD SWAP1 DUP3 DUP5 SLOAD PUSH1 0x1 DUP2 PUSH1 0x1 SHR SWAP1 PUSH1 0x1 DUP4 AND SWAP3 DUP4 ISZERO PUSH2 0x34D JUMPI JUMPDEST PUSH1 0x20 SWAP4 DUP5 DUP5 LT DUP2 EQ PUSH2 0x33A JUMPI DUP4 DUP9 MSTORE SWAP1 DUP2 ISZERO PUSH2 0x31E JUMPI POP PUSH1 0x1 EQ PUSH2 0x2C9 JUMPI JUMPDEST POP POP POP DUP3 SWAP1 SUB PUSH1 0x1F ADD PUSH1 0x1F NOT AND DUP3 ADD SWAP3 PUSH8 0xFFFFFFFFFFFFFFFF DUP5 GT DUP4 DUP6 LT OR PUSH2 0x2B6 JUMPI POP DUP3 SWAP2 DUP3 PUSH2 0x2B2 SWAP3 MSTORE DUP3 PUSH2 0x8DE JUMP JUMPDEST SUB SWAP1 RETURN JUMPDEST PUSH4 0x4E487B71 PUSH1 0xE0 SHL DUP2 MSTORE PUSH1 0x41 DUP6 MSTORE PUSH1 0x24 SWAP1 REVERT JUMPDEST DUP8 DUP8 MSTORE SWAP2 SWAP3 POP DUP6 SWAP2 DUP4 PUSH32 0x8A35ACFBC15FF81A39AE7D344FD709F28E8600B4AA8C65C6B64BFE7FE36BD19B JUMPDEST DUP4 DUP6 LT PUSH2 0x30A JUMPI POP POP POP POP DUP4 ADD ADD DUP6 DUP1 DUP1 PUSH2 0x280 JUMP JUMPDEST DUP1 SLOAD DUP9 DUP7 ADD DUP4 ADD MSTORE SWAP4 ADD SWAP3 DUP5 SWAP1 DUP3 ADD PUSH2 0x2F4 JUMP JUMPDEST PUSH1 0xFF NOT AND DUP8 DUP6 ADD MSTORE POP POP ISZERO ISZERO PUSH1 0x5 SHL DUP5 ADD ADD SWAP1 POP DUP6 DUP1 DUP1 PUSH2 0x280 JUMP JUMPDEST PUSH4 0x4E487B71 PUSH1 0xE0 SHL DUP10 MSTORE PUSH1 0x22 DUP11 MSTORE PUSH1 0x24 DUP10 REVERT JUMPDEST SWAP2 PUSH1 0x7F AND SWAP2 PUSH2 0x261 JUMP JUMPDEST POP POP CALLVALUE PUSH2 0x108 JUMPI DUP2 PUSH1 0x3 NOT CALLDATASIZE ADD SLT PUSH2 0x108 JUMPI PUSH1 0x5 SLOAD SWAP1 MLOAD PUSH1 0x1 PUSH1 0x1 PUSH1 0xA0 SHL SUB SWAP1 SWAP2 AND DUP2 MSTORE PUSH1 0x20 SWAP1 RETURN JUMPDEST POP POP CALLVALUE PUSH2 0x108 JUMPI PUSH1 0x20 CALLDATASIZE PUSH1 0x3 NOT ADD SLT PUSH2 0x108 JUMPI PUSH1 0x20 SWAP2 DUP2 SWAP1 PUSH1 0x1 PUSH1 0x1 PUSH1 0xA0 SHL SUB PUSH2 0x3A8 PUSH2 0x927 JUMP JUMPDEST AND DUP2 MSTORE DUP1 DUP5 MSTORE KECCAK256 SLOAD SWAP1 MLOAD SWAP1 DUP2 MSTORE RETURN JUMPDEST SWAP1 POP CALLVALUE PUSH2 0x232 JUMPI PUSH1 0x20 CALLDATASIZE PUSH1 0x3 NOT ADD SLT PUSH2 0x232 JUMPI PUSH2 0x3D2 PUSH2 0x927 JUMP JUMPDEST PUSH1 0x1 PUSH1 0x1 PUSH1 0xA0 SHL SUB SWAP2 PUSH32 0x0 DUP4 AND CALLER SUB PUSH2 0x438 JUMPI PUSH1 0x5 SLOAD SWAP4 DUP4 DUP6 AND PUSH2 0x42B JUMPI POP POP AND SWAP1 PUSH12 0xFFFFFFFFFFFFFFFFFFFFFFFF PUSH1 0xA0 SHL AND OR PUSH1 0x5 SSTORE DUP1 RETURN JUMPDEST MLOAD PUSH4 0x6DDDA6B PUSH1 0xE0 SHL DUP2 MSTORE REVERT JUMPDEST DUP4 MLOAD PUSH4 0x1966391B PUSH1 0xE1 SHL DUP2 MSTORE REVERT JUMPDEST DUP4 DUP4 CALLVALUE PUSH2 0x108 JUMPI DUP2 PUSH1 0x3 NOT CALLDATASIZE ADD SLT PUSH2 0x108 JUMPI DUP1 MLOAD SWAP1 DUP3 PUSH1 0x6 SLOAD PUSH1 0x1 DUP2 PUSH1 0x1 SHR SWAP1 PUSH1 0x1 DUP4 AND SWAP3 DUP4 ISZERO PUSH2 0x518 JUMPI JUMPDEST PUSH1 0x20 SWAP4 DUP5 DUP5 LT DUP2 EQ PUSH2 0x33A JUMPI DUP4 DUP9 MSTORE SWAP1 DUP2 ISZERO PUSH2 0x31E JUMPI POP PUSH1 0x1 EQ PUSH2 0x4C2 JUMPI POP POP POP DUP3 SWAP1 SUB PUSH1 0x1F ADD PUSH1 0x1F NOT AND DUP3 ADD SWAP3 PUSH8 0xFFFFFFFFFFFFFFFF DUP5 GT DUP4 DUP6 LT OR PUSH2 0x2B6 JUMPI POP DUP3 SWAP2 DUP3 PUSH2 0x2B2 SWAP3 MSTORE DUP3 PUSH2 0x8DE JUMP JUMPDEST PUSH1 0x6 DUP8 MSTORE SWAP2 SWAP3 POP DUP6 SWAP2 DUP4 PUSH32 0xF652222313E28459528D920B65115C16C04F3EFC82AAEDC97BE59F3F377C0D3F JUMPDEST DUP4 DUP6 LT PUSH2 0x504 JUMPI POP POP POP POP DUP4 ADD ADD DUP6 DUP1 DUP1 PUSH2 0x280 JUMP JUMPDEST DUP1 SLOAD DUP9 DUP7 ADD DUP4 ADD MSTORE SWAP4 ADD SWAP3 DUP5 SWAP1 DUP3 ADD PUSH2 0x4EE JUMP JUMPDEST SWAP2 PUSH1 0x7F AND SWAP2 PUSH2 0x472 JUMP JUMPDEST SWAP2 SWAP1 POP CALLVALUE PUSH2 0x232 JUMPI DUP1 PUSH1 0x3 NOT CALLDATASIZE ADD SLT PUSH2 0x232 JUMPI PUSH2 0x53D PUSH2 0x927 JUMP JUMPDEST PUSH1 0x5 SLOAD PUSH1 0x24 CALLDATALOAD SWAP3 SWAP2 SWAP1 PUSH1 0x1 PUSH1 0x1 PUSH1 0xA0 SHL SUB SWAP1 DUP2 AND CALLER SUB PUSH2 0x5F1 JUMPI PUSH1 0x2 SLOAD SWAP2 PUSH12 0x33B2E3C9FD0803CE8000000 PUSH2 0x572 DUP7 DUP6 PUSH2 0x958 JUMP JUMPDEST GT PUSH2 0x5E1 JUMPI AND SWAP4 DUP5 ISZERO PUSH2 0x5CA JUMPI POP DUP3 PUSH32 0xDDF252AD1BE2C89B69C2B068FC378DAA952BA7F163C4A11628F55A4DF523B3EF SWAP3 PUSH2 0x5B0 DUP8 SWAP6 PUSH1 0x20 SWAP5 PUSH2 0x958 JUMP JUMPDEST PUSH1 0x2 SSTORE DUP6 DUP6 MSTORE DUP5 DUP4 MSTORE DUP1 DUP6 KECCAK256 DUP3 DUP2 SLOAD ADD SWAP1 SSTORE MLOAD SWAP1 DUP2 MSTORE LOG3 DUP1 RETURN JUMPDEST DUP3 MLOAD PUSH4 0xEC442F05 PUSH1 0xE0 SHL DUP2 MSTORE SWAP1 DUP2 ADD DUP7 SWAP1 MSTORE PUSH1 0x24 SWAP1 REVERT JUMPDEST DUP4 MLOAD PUSH4 0x8A164F63 PUSH1 0xE0 SHL DUP2 MSTORE DUP7 SWAP1 REVERT JUMPDEST DUP3 MLOAD PUSH4 0xC4BBEA69 PUSH1 0xE0 SHL DUP2 MSTORE DUP6 SWAP1 REVERT JUMPDEST POP POP CALLVALUE PUSH2 0x108 JUMPI DUP2 PUSH1 0x3 NOT CALLDATASIZE ADD SLT PUSH2 0x108 JUMPI PUSH1 0x20 SWAP1 MLOAD PUSH12 0x33B2E3C9FD0803CE8000000 DUP2 MSTORE RETURN JUMPDEST POP POP CALLVALUE PUSH2 0x108 JUMPI DUP2 PUSH1 0x3 NOT CALLDATASIZE ADD SLT PUSH2 0x108 JUMPI PUSH1 0x20 SWAP1 MLOAD PUSH1 0x12 DUP2 MSTORE RETURN JUMPDEST SWAP1 POP DUP3 CALLVALUE PUSH2 0x738 JUMPI PUSH1 0x60 CALLDATASIZE PUSH1 0x3 NOT ADD SLT PUSH2 0x738 JUMPI PUSH2 0x660 PUSH2 0x927 JUMP JUMPDEST PUSH2 0x668 PUSH2 0x942 JUMP JUMPDEST SWAP2 PUSH1 0x44 CALLDATALOAD SWAP4 PUSH1 0x1 DUP1 PUSH1 0xA0 SHL SUB DUP4 AND DUP1 DUP4 MSTORE PUSH1 0x1 PUSH1 0x20 MSTORE DUP7 DUP4 KECCAK256 CALLER DUP5 MSTORE PUSH1 0x20 MSTORE DUP7 DUP4 KECCAK256 SLOAD SWAP2 PUSH1 0x0 NOT DUP4 LT PUSH2 0x6A4 JUMPI JUMPDEST PUSH1 0x20 DUP9 PUSH2 0x1E2 DUP10 DUP10 DUP10 PUSH2 0x97B JUMP JUMPDEST DUP7 DUP4 LT PUSH2 0x70C JUMPI DUP2 ISZERO PUSH2 0x6F5 JUMPI CALLER ISZERO PUSH2 0x6DE JUMPI POP DUP3 MSTORE PUSH1 0x1 PUSH1 0x20 SWAP1 DUP2 MSTORE DUP7 DUP4 KECCAK256 CALLER DUP5 MSTORE DUP2 MSTORE SWAP2 DUP7 SWAP1 KECCAK256 SWAP1 DUP6 SWAP1 SUB SWAP1 SSTORE DUP3 SWAP1 PUSH2 0x1E2 DUP8 PUSH2 0x696 JUMP JUMPDEST DUP8 MLOAD PUSH4 0x4A1406B1 PUSH1 0xE1 SHL DUP2 MSTORE SWAP1 DUP2 ADD DUP5 SWAP1 MSTORE PUSH1 0x24 SWAP1 REVERT JUMPDEST DUP8 MLOAD PUSH4 0xE602DF05 PUSH1 0xE0 SHL DUP2 MSTORE SWAP1 DUP2 ADD DUP5 SWAP1 MSTORE PUSH1 0x24 SWAP1 REVERT JUMPDEST DUP8 MLOAD PUSH4 0x7DC7A0D9 PUSH1 0xE1 SHL DUP2 MSTORE CALLER SWAP2 DUP2 ADD SWAP2 DUP3 MSTORE PUSH1 0x20 DUP3 ADD SWAP4 SWAP1 SWAP4 MSTORE PUSH1 0x40 DUP2 ADD DUP8 SWAP1 MSTORE DUP3 SWAP2 POP PUSH1 0x60 ADD SUB SWAP1 REVERT JUMPDEST DUP1 REVERT JUMPDEST POP POP CALLVALUE PUSH2 0x108 JUMPI DUP2 PUSH1 0x3 NOT CALLDATASIZE ADD SLT PUSH2 0x108 JUMPI PUSH1 0x20 SWAP1 PUSH1 0x2 SLOAD SWAP1 MLOAD SWAP1 DUP2 MSTORE RETURN JUMPDEST SWAP1 POP CALLVALUE PUSH2 0x232 JUMPI DUP2 PUSH1 0x3 NOT CALLDATASIZE ADD SLT PUSH2 0x232 JUMPI PUSH2 0x774 PUSH2 0x927 JUMP JUMPDEST PUSH1 0x24 CALLDATALOAD SWAP1 CALLER ISZERO PUSH2 0x7ED JUMPI PUSH1 0x1 PUSH1 0x1 PUSH1 0xA0 SHL SUB AND SWAP2 DUP3 ISZERO PUSH2 0x7D6 JUMPI POP DUP1 DUP4 PUSH1 0x20 SWAP6 CALLER DUP2 MSTORE PUSH1 0x1 DUP8 MSTORE DUP2 DUP2 KECCAK256 DUP6 DUP3 MSTORE DUP8 MSTORE KECCAK256 SSTORE DUP3 MLOAD SWAP1 DUP2 MSTORE PUSH32 0x8C5BE1E5EBEC7D5BD14F71427D1E84F3DD0314C0F7B2291E5B200AC8C7C3B925 DUP5 CALLER SWAP3 LOG3 MLOAD PUSH1 0x1 DUP2 MSTORE RETURN JUMPDEST DUP4 MLOAD PUSH4 0x4A1406B1 PUSH1 0xE1 SHL DUP2 MSTORE SWAP1 DUP2 ADD DUP6 SWAP1 MSTORE PUSH1 0x24 SWAP1 REVERT JUMPDEST DUP4 MLOAD PUSH4 0xE602DF05 PUSH1 0xE0 SHL DUP2 MSTORE DUP1 DUP5 ADD DUP7 SWAP1 MSTORE PUSH1 0x24 SWAP1 REVERT JUMPDEST DUP5 SWAP1 DUP5 CALLVALUE PUSH2 0x232 JUMPI DUP3 PUSH1 0x3 NOT CALLDATASIZE ADD SLT PUSH2 0x232 JUMPI DUP3 PUSH1 0x3 SLOAD PUSH1 0x1 DUP2 PUSH1 0x1 SHR SWAP1 PUSH1 0x1 DUP4 AND SWAP3 DUP4 ISZERO PUSH2 0x8D4 JUMPI JUMPDEST PUSH1 0x20 SWAP4 DUP5 DUP5 LT DUP2 EQ PUSH2 0x33A JUMPI DUP4 DUP9 MSTORE SWAP1 DUP2 ISZERO PUSH2 0x31E JUMPI POP PUSH1 0x1 EQ PUSH2 0x87E JUMPI POP POP POP DUP3 SWAP1 SUB PUSH1 0x1F ADD PUSH1 0x1F NOT AND DUP3 ADD SWAP3 PUSH8 0xFFFFFFFFFFFFFFFF DUP5 GT DUP4 DUP6 LT OR PUSH2 0x2B6 JUMPI POP DUP3 SWAP2 DUP3 PUSH2 0x2B2 SWAP3 MSTORE DUP3 PUSH2 0x8DE JUMP JUMPDEST PUSH1 0x3 DUP8 MSTORE SWAP2 SWAP3 POP DUP6 SWAP2 DUP4 PUSH32 0xC2575A0E9E593C00F959F8C92F12DB2869C3395A3B0502D05E2516446F71F85B JUMPDEST DUP4 DUP6 LT PUSH2 0x8C0 JUMPI POP POP POP POP DUP4 ADD ADD DUP6 DUP1 DUP1 PUSH2 0x280 JUMP JUMPDEST DUP1 SLOAD DUP9 DUP7 ADD DUP4 ADD MSTORE SWAP4 ADD SWAP3 DUP5 SWAP1 DUP3 ADD PUSH2 0x8AA JUMP JUMPDEST SWAP2 PUSH1 0x7F AND SWAP2 PUSH2 0x82E JUMP JUMPDEST PUSH1 0x20 DUP1 DUP3 MSTORE DUP3 MLOAD DUP2 DUP4 ADD DUP2 SWAP1 MSTORE SWAP1 SWAP4 SWAP3 PUSH1 0x0 JUMPDEST DUP3 DUP2 LT PUSH2 0x913 JUMPI POP POP PUSH1 0x40 SWAP3 SWAP4 POP PUSH1 0x0 DUP4 DUP3 DUP5 ADD ADD MSTORE PUSH1 0x1F DUP1 NOT SWAP2 ADD AND ADD ADD SWAP1 JUMP JUMPDEST DUP2 DUP2 ADD DUP7 ADD MLOAD DUP5 DUP3 ADD PUSH1 0x40 ADD MSTORE DUP6 ADD PUSH2 0x8F1 JUMP JUMPDEST PUSH1 0x4 CALLDATALOAD SWAP1 PUSH1 0x1 PUSH1 0x1 PUSH1 0xA0 SHL SUB DUP3 AND DUP3 SUB PUSH2 0x93D JUMPI JUMP JUMPDEST PUSH1 0x0 DUP1 REVERT JUMPDEST PUSH1 0x24 CALLDATALOAD SWAP1 PUSH1 0x1 PUSH1 0x1 PUSH1 0xA0 SHL SUB DUP3 AND DUP3 SUB PUSH2 0x93D JUMPI JUMP JUMPDEST SWAP2 SWAP1 DUP3 ADD DUP1 SWAP3 GT PUSH2 0x965 JUMPI JUMP JUMPDEST PUSH4 0x4E487B71 PUSH1 0xE0 SHL PUSH1 0x0 MSTORE PUSH1 0x11 PUSH1 0x4 MSTORE PUSH1 0x24 PUSH1 0x0 REVERT JUMPDEST SWAP2 PUSH1 0x1 PUSH1 0x1 PUSH1 0xA0 SHL SUB DUP1 DUP5 AND SWAP3 DUP4 ISZERO PUSH2 0xA40 JUMPI AND SWAP3 DUP4 ISZERO PUSH2 0xA27 JUMPI PUSH1 0x0 SWAP1 DUP4 DUP3 MSTORE DUP2 PUSH1 0x20 MSTORE PUSH1 0x40 DUP3 KECCAK256 SLOAD SWAP1 DUP4 DUP3 LT PUSH2 0x9F5 JUMPI POP SWAP2 PUSH1 0x40 DUP3 DUP3 PUSH32 0xDDF252AD1BE2C89B69C2B068FC378DAA952BA7F163C4A11628F55A4DF523B3EF SWAP6 DUP8 PUSH1 0x20 SWAP7 MSTORE DUP3 DUP7 MSTORE SUB DUP3 DUP3 KECCAK256 SSTORE DUP7 DUP2 MSTORE KECCAK256 DUP2 DUP2 SLOAD ADD SWAP1 SSTORE PUSH1 0x40 MLOAD SWAP1 DUP2 MSTORE LOG3 JUMP JUMPDEST PUSH1 0x40 MLOAD PUSH4 0x391434E3 PUSH1 0xE2 SHL DUP2 MSTORE PUSH1 0x1 PUSH1 0x1 PUSH1 0xA0 SHL SUB SWAP2 SWAP1 SWAP2 AND PUSH1 0x4 DUP3 ADD MSTORE PUSH1 0x24 DUP2 ADD SWAP2 SWAP1 SWAP2 MSTORE PUSH1 0x44 DUP2 ADD DUP4 SWAP1 MSTORE PUSH1 0x64 SWAP1 REVERT JUMPDEST PUSH1 0x40 MLOAD PUSH4 0xEC442F05 PUSH1 0xE0 SHL DUP2 MSTORE PUSH1 0x0 PUSH1 0x4 DUP3 ADD MSTORE PUSH1 0x24 SWAP1 REVERT JUMPDEST PUSH1 0x40 MLOAD PUSH4 0x4B637E8F PUSH1 0xE1 SHL DUP2 MSTORE PUSH1 0x0 PUSH1 0x4 DUP3 ADD MSTORE PUSH1 0x24 SWAP1 REVERT JUMPDEST SWAP1 PUSH1 0x1 PUSH1 0x1 PUSH1 0xA0 SHL SUB DUP3 AND SWAP1 DUP2 ISZERO PUSH2 0xA40 JUMPI PUSH1 0x0 SWAP3 DUP3 DUP5 MSTORE DUP4 PUSH1 0x20 MSTORE PUSH1 0x40 DUP5 KECCAK256 SLOAD SWAP1 DUP3 DUP3 LT PUSH2 0xAC6 JUMPI POP DUP2 PUSH32 0xDDF252AD1BE2C89B69C2B068FC378DAA952BA7F163C4A11628F55A4DF523B3EF SWAP3 PUSH1 0x20 SWAP3 DUP6 DUP8 MSTORE DUP7 DUP5 MSTORE SUB PUSH1 0x40 DUP7 KECCAK256 SSTORE DUP1 PUSH1 0x2 SLOAD SUB PUSH1 0x2 SSTORE PUSH1 0x40 MLOAD SWAP1 DUP2 MSTORE LOG3 JUMP JUMPDEST PUSH1 0x40 MLOAD PUSH4 0x391434E3 PUSH1 0xE2 SHL DUP2 MSTORE PUSH1 0x1 PUSH1 0x1 PUSH1 0xA0 SHL SUB SWAP2 SWAP1 SWAP2 AND PUSH1 0x4 DUP3 ADD MSTORE PUSH1 0x24 DUP2 ADD SWAP2 SWAP1 SWAP2 MSTORE PUSH1 0x44 DUP2 ADD DUP3 SWAP1 MSTORE PUSH1 0x64 SWAP1 REVERT INVALID LOG2 PUSH5 0x6970667358 0x22 SLT KECCAK256 0xC6 DELEGATECALL 0xE8 0xC2 PUSH11 0x547BB91658F7D1531FB4CE MUL PUSH15 0xB115580056303ED8470F1D0F99464 PUSH20 0x6F6C634300081800330000000000000000000000 "},"methodIdentifiers":{"MAX_SUPPLY()":"32cb6b0c","allowance(address,address)":"dd62ed3e","approve(address,uint256)":"095ea7b3","balanceOf(address)":"70a08231","burn(address,uint256)":"9dc29fac","burnSelf(uint256)":"b8b12a1e","creatorBeeId()":"e03d9141","decimals()":"313ce567","factory()":"c45a0155","market()":"80f55605","metadataCID()":"58871c46","mint(address,uint256)":"40c10f19","name()":"06fdde03","setMarket(address)":"6dcea85f","symbol()":"95d89b41","totalSupply()":"18160ddd","transfer(address,uint256)":"a9059cbb","transferFrom(address,address,uint256)":"23b872dd"}}}}}