{"contracts/HoneycombBountyEscrow.sol":{"HoneycombBountyEscrow":{"abi":[{"inputs":[{"internalType":"address","name":"_agentRegistry","type":"address"}],"stateMutability":"nonpayable","type":"constructor"},{"inputs":[],"name":"AccessControlBadConfirmation","type":"error"},{"inputs":[{"internalType":"address","name":"account","type":"address"},{"internalType":"bytes32","name":"neededRole","type":"bytes32"}],"name":"AccessControlUnauthorizedAccount","type":"error"},{"inputs":[],"name":"AgentNotFound","type":"error"},{"inputs":[],"name":"AlreadySubmittedSolution","type":"error"},{"inputs":[],"name":"BountyDeadlineNotPassed","type":"error"},{"inputs":[],"name":"BountyDeadlinePassed","type":"error"},{"inputs":[],"name":"BountyNotFound","type":"error"},{"inputs":[],"name":"BountyNotOpen","type":"error"},{"inputs":[],"name":"CannotSolveOwnBounty","type":"error"},{"inputs":[],"name":"InvalidCID","type":"error"},{"inputs":[],"name":"InvalidDeadline","type":"error"},{"inputs":[],"name":"InvalidRewardAmount","type":"error"},{"inputs":[],"name":"NoSolutions","type":"error"},{"inputs":[],"name":"NotAgentOwner","type":"error"},{"inputs":[],"name":"NotBountyCreator","type":"error"},{"inputs":[],"name":"ReentrancyGuardReentrantCall","type":"error"},{"inputs":[],"name":"SolutionNotFound","type":"error"},{"inputs":[],"name":"TransferFailed","type":"error"},{"anonymous":false,"inputs":[{"indexed":true,"internalType":"uint256","name":"bountyId","type":"uint256"},{"indexed":true,"internalType":"uint256","name":"solutionId","type":"uint256"},{"indexed":true,"internalType":"address","name":"solverAddress","type":"address"},{"indexed":false,"internalType":"uint256","name":"rewardAmount","type":"uint256"},{"indexed":false,"internalType":"uint256","name":"timestamp","type":"uint256"}],"name":"BountyAwarded","type":"event"},{"anonymous":false,"inputs":[{"indexed":true,"internalType":"uint256","name":"bountyId","type":"uint256"},{"indexed":true,"internalType":"address","name":"creator","type":"address"},{"indexed":false,"internalType":"uint256","name":"refundAmount","type":"uint256"},{"indexed":false,"internalType":"uint256","name":"timestamp","type":"uint256"}],"name":"BountyCancelled","type":"event"},{"anonymous":false,"inputs":[{"indexed":true,"internalType":"uint256","name":"bountyId","type":"uint256"},{"indexed":true,"internalType":"uint256","name":"creatorAgentId","type":"uint256"},{"indexed":true,"internalType":"address","name":"creator","type":"address"},{"indexed":false,"internalType":"string","name":"bountyCID","type":"string"},{"indexed":false,"internalType":"uint256","name":"rewardAmount","type":"uint256"},{"indexed":false,"internalType":"uint256","name":"deadline","type":"uint256"},{"indexed":false,"internalType":"uint256","name":"timestamp","type":"uint256"}],"name":"BountyCreated","type":"event"},{"anonymous":false,"inputs":[{"indexed":true,"internalType":"bytes32","name":"role","type":"bytes32"},{"indexed":true,"internalType":"bytes32","name":"previousAdminRole","type":"bytes32"},{"indexed":true,"internalType":"bytes32","name":"newAdminRole","type":"bytes32"}],"name":"RoleAdminChanged","type":"event"},{"anonymous":false,"inputs":[{"indexed":true,"internalType":"bytes32","name":"role","type":"bytes32"},{"indexed":true,"internalType":"address","name":"account","type":"address"},{"indexed":true,"internalType":"address","name":"sender","type":"address"}],"name":"RoleGranted","type":"event"},{"anonymous":false,"inputs":[{"indexed":true,"internalType":"bytes32","name":"role","type":"bytes32"},{"indexed":true,"internalType":"address","name":"account","type":"address"},{"indexed":true,"internalType":"address","name":"sender","type":"address"}],"name":"RoleRevoked","type":"event"},{"anonymous":false,"inputs":[{"indexed":true,"internalType":"uint256","name":"bountyId","type":"uint256"},{"indexed":true,"internalType":"uint256","name":"solutionId","type":"uint256"},{"indexed":true,"internalType":"uint256","name":"agentId","type":"uint256"},{"indexed":false,"internalType":"address","name":"solver","type":"address"},{"indexed":false,"internalType":"string","name":"solutionCID","type":"string"},{"indexed":false,"internalType":"uint256","name":"timestamp","type":"uint256"}],"name":"SolutionSubmitted","type":"event"},{"inputs":[],"name":"ADMIN_ROLE","outputs":[{"internalType":"bytes32","name":"","type":"bytes32"}],"stateMutability":"view","type":"function"},{"inputs":[],"name":"DEFAULT_ADMIN_ROLE","outputs":[{"internalType":"bytes32","name":"","type":"bytes32"}],"stateMutability":"view","type":"function"},{"inputs":[],"name":"MAX_DEADLINE_DURATION","outputs":[{"internalType":"uint256","name":"","type":"uint256"}],"stateMutability":"view","type":"function"},{"inputs":[],"name":"MAX_REWARD","outputs":[{"internalType":"uint256","name":"","type":"uint256"}],"stateMutability":"view","type":"function"},{"inputs":[],"name":"MIN_DEADLINE_DURATION","outputs":[{"internalType":"uint256","name":"","type":"uint256"}],"stateMutability":"view","type":"function"},{"inputs":[],"name":"MIN_REWARD","outputs":[{"internalType":"uint256","name":"","type":"uint256"}],"stateMutability":"view","type":"function"},{"inputs":[],"name":"agentRegistry","outputs":[{"internalType":"contract IAgentRegistry","name":"","type":"address"}],"stateMutability":"view","type":"function"},{"inputs":[{"internalType":"uint256","name":"bountyId","type":"uint256"},{"internalType":"uint256","name":"solutionId","type":"uint256"}],"name":"awardSolution","outputs":[],"stateMutability":"nonpayable","type":"function"},{"inputs":[{"internalType":"uint256","name":"","type":"uint256"}],"name":"bounties","outputs":[{"internalType":"uint256","name":"id","type":"uint256"},{"internalType":"uint256","name":"creatorAgentId","type":"uint256"},{"internalType":"address","name":"creatorAddress","type":"address"},{"internalType":"string","name":"bountyCID","type":"string"},{"internalType":"uint256","name":"rewardAmount","type":"uint256"},{"internalType":"uint256","name":"deadline","type":"uint256"},{"internalType":"enum HoneycombBountyEscrow.BountyStatus","name":"status","type":"uint8"},{"internalType":"uint256","name":"winningSolutionId","type":"uint256"},{"internalType":"uint256","name":"createdAt","type":"uint256"}],"stateMutability":"view","type":"function"},{"inputs":[{"internalType":"uint256","name":"","type":"uint256"}],"name":"bountyExists","outputs":[{"internalType":"bool","name":"","type":"bool"}],"stateMutability":"view","type":"function"},{"inputs":[{"internalType":"uint256","name":"bountyId","type":"uint256"}],"name":"cancelBounty","outputs":[],"stateMutability":"nonpayable","type":"function"},{"inputs":[{"internalType":"uint256","name":"agentId","type":"uint256"},{"internalType":"string","name":"bountyCID","type":"string"},{"internalType":"uint256","name":"deadlineTimestamp","type":"uint256"}],"name":"createBounty","outputs":[{"internalType":"uint256","name":"bountyId","type":"uint256"}],"stateMutability":"payable","type":"function"},{"inputs":[{"internalType":"uint256","name":"bountyId","type":"uint256"}],"name":"getBounty","outputs":[{"components":[{"internalType":"uint256","name":"id","type":"uint256"},{"internalType":"uint256","name":"creatorAgentId","type":"uint256"},{"internalType":"address","name":"creatorAddress","type":"address"},{"internalType":"string","name":"bountyCID","type":"string"},{"internalType":"uint256","name":"rewardAmount","type":"uint256"},{"internalType":"uint256","name":"deadline","type":"uint256"},{"internalType":"enum HoneycombBountyEscrow.BountyStatus","name":"status","type":"uint8"},{"internalType":"uint256","name":"winningSolutionId","type":"uint256"},{"internalType":"uint256","name":"createdAt","type":"uint256"}],"internalType":"struct HoneycombBountyEscrow.Bounty","name":"","type":"tuple"}],"stateMutability":"view","type":"function"},{"inputs":[{"internalType":"bytes32","name":"role","type":"bytes32"}],"name":"getRoleAdmin","outputs":[{"internalType":"bytes32","name":"","type":"bytes32"}],"stateMutability":"view","type":"function"},{"inputs":[{"internalType":"uint256","name":"bountyId","type":"uint256"},{"internalType":"uint256","name":"solutionId","type":"uint256"}],"name":"getSolution","outputs":[{"components":[{"internalType":"uint256","name":"id","type":"uint256"},{"internalType":"uint256","name":"bountyId","type":"uint256"},{"internalType":"uint256","name":"agentId","type":"uint256"},{"internalType":"address","name":"solverAddress","type":"address"},{"internalType":"string","name":"solutionCID","type":"string"},{"internalType":"uint256","name":"createdAt","type":"uint256"}],"internalType":"struct HoneycombBountyEscrow.Solution","name":"","type":"tuple"}],"stateMutability":"view","type":"function"},{"inputs":[{"internalType":"bytes32","name":"role","type":"bytes32"},{"internalType":"address","name":"account","type":"address"}],"name":"grantRole","outputs":[],"stateMutability":"nonpayable","type":"function"},{"inputs":[{"internalType":"bytes32","name":"role","type":"bytes32"},{"internalType":"address","name":"account","type":"address"}],"name":"hasRole","outputs":[{"internalType":"bool","name":"","type":"bool"}],"stateMutability":"view","type":"function"},{"inputs":[{"internalType":"bytes32","name":"role","type":"bytes32"},{"internalType":"address","name":"callerConfirmation","type":"address"}],"name":"renounceRole","outputs":[],"stateMutability":"nonpayable","type":"function"},{"inputs":[{"internalType":"bytes32","name":"role","type":"bytes32"},{"internalType":"address","name":"account","type":"address"}],"name":"revokeRole","outputs":[],"stateMutability":"nonpayable","type":"function"},{"inputs":[{"internalType":"address","name":"_agentRegistry","type":"address"}],"name":"setAgentRegistry","outputs":[],"stateMutability":"nonpayable","type":"function"},{"inputs":[{"internalType":"uint256","name":"","type":"uint256"}],"name":"solutionCounts","outputs":[{"internalType":"uint256","name":"","type":"uint256"}],"stateMutability":"view","type":"function"},{"inputs":[{"internalType":"uint256","name":"","type":"uint256"},{"internalType":"uint256","name":"","type":"uint256"}],"name":"solutions","outputs":[{"internalType":"uint256","name":"id","type":"uint256"},{"internalType":"uint256","name":"bountyId","type":"uint256"},{"internalType":"uint256","name":"agentId","type":"uint256"},{"internalType":"address","name":"solverAddress","type":"address"},{"internalType":"string","name":"solutionCID","type":"string"},{"internalType":"uint256","name":"createdAt","type":"uint256"}],"stateMutability":"view","type":"function"},{"inputs":[{"internalType":"uint256","name":"bountyId","type":"uint256"},{"internalType":"uint256","name":"agentId","type":"uint256"},{"internalType":"string","name":"solutionCID","type":"string"}],"name":"submitSolution","outputs":[{"internalType":"uint256","name":"solutionId","type":"uint256"}],"stateMutability":"nonpayable","type":"function"},{"inputs":[{"internalType":"bytes4","name":"interfaceId","type":"bytes4"}],"name":"supportsInterface","outputs":[{"internalType":"bool","name":"","type":"bool"}],"stateMutability":"view","type":"function"},{"inputs":[],"name":"totalBounties","outputs":[{"internalType":"uint256","name":"","type":"uint256"}],"stateMutability":"view","type":"function"}],"evm":{"bytecode":{"linkReferences":{},"object":"608060405260016003553480156200001657600080fd5b5060405162001f9938038062001f99833981016040819052620000399162000149565b60018055600280546001600160a01b0319166001600160a01b038316179055620000656000336200009a565b50620000927fa49807205ce4d355092ef5a8a18f56e8913cf4a201fbe287825b095693c21775336200009a565b50506200017b565b6000828152602081815260408083206001600160a01b038516845290915281205460ff166200013f576000838152602081815260408083206001600160a01b03861684529091529020805460ff19166001179055620000f63390565b6001600160a01b0316826001600160a01b0316847f2f8788117e7eff1d82e926ec794901d17c78024a50270940304540a733656f0d60405160405180910390a450600162000143565b5060005b92915050565b6000602082840312156200015c57600080fd5b81516001600160a01b03811681146200017457600080fd5b9392505050565b611e0e806200018b6000396000f3fe6080604052600436106101665760003560e01c806391d14854116100d1578063c57b9c0c1161008a578063dc2f874411610064578063dc2f87441461045e578063e5e5dff114610493578063e6f82e01146104b3578063ee8c4bbf146104e057600080fd5b8063c57b9c0c14610415578063d2c7606d1461042b578063d547741f1461043e57600080fd5b806391d148541461034157806391f94695146103615780639aacb18c14610381578063a03ee5b1146103ae578063a217fddf146103ce578063bd977a89146103e357600080fd5b806336568abe1161012357806336568abe146102755780633cefb4c01461029557806348ea0c03146102c55780637322ae37146102e057806375b238fc146102f857806385feeb231461032c57600080fd5b806301ffc9a71461016b5780630d1cfcae146101a05780630e1505e0146101d8578063248a9ca31461020357806328342ecf146102335780632f2ff15d14610255575b600080fd5b34801561017757600080fd5b5061018b6101863660046117a3565b61050d565b60405190151581526020015b60405180910390f35b3480156101ac57600080fd5b506002546101c0906001600160a01b031681565b6040516001600160a01b039091168152602001610197565b3480156101e457600080fd5b506101f5683635c9adc5dea0000081565b604051908152602001610197565b34801561020f57600080fd5b506101f561021e3660046117d4565b60009081526020819052604090206001015490565b34801561023f57600080fd5b5061025361024e366004611809565b610544565b005b34801561026157600080fd5b50610253610270366004611824565b610591565b34801561028157600080fd5b50610253610290366004611824565b6105bc565b3480156102a157600080fd5b5061018b6102b03660046117d4565b60076020526000908152604090205460ff1681565b3480156102d157600080fd5b506101f566038d7ea4c6800081565b3480156102ec57600080fd5b506101f56301e1338081565b34801561030457600080fd5b506101f57fa49807205ce4d355092ef5a8a18f56e8913cf4a201fbe287825b095693c2177581565b34801561033857600080fd5b506101f56105f4565b34801561034d57600080fd5b5061018b61035c366004611824565b61060a565b34801561036d57600080fd5b5061025361037c366004611850565b610633565b34801561038d57600080fd5b506103a161039c366004611850565b610834565b60405161019791906118b8565b3480156103ba57600080fd5b506101f56103c9366004611963565b6109db565b3480156103da57600080fd5b506101f5600081565b3480156103ef57600080fd5b506104036103fe366004611850565b610d9a565b604051610197969594939291906119b6565b34801561042157600080fd5b506101f5610e1081565b6101f56104393660046119fc565b610e6e565b34801561044a57600080fd5b50610253610459366004611824565b6111ca565b34801561046a57600080fd5b5061047e6104793660046117d4565b6111ef565b60405161019799989796959493929190611a87565b34801561049f57600080fd5b506102536104ae3660046117d4565b6112ce565b3480156104bf57600080fd5b506101f56104ce3660046117d4565b60066020526000908152604090205481565b3480156104ec57600080fd5b506105006104fb3660046117d4565b61145d565b6040516101979190611aed565b60006001600160e01b03198216637965db0b60e01b148061053e57506301ffc9a760e01b6001600160e01b03198316145b92915050565b7fa49807205ce4d355092ef5a8a18f56e8913cf4a201fbe287825b095693c2177561056e816115cf565b50600280546001600160a01b0319166001600160a01b0392909216919091179055565b6000828152602081905260409020600101546105ac816115cf565b6105b683836115d9565b50505050565b6001600160a01b03811633146105e55760405163334bd91960e11b815260040160405180910390fd5b6105ef828261166b565b505050565b600060016003546106059190611b9a565b905090565b6000918252602082815260408084206001600160a01b0393909316845291905290205460ff1690565b61063b6116d6565b60008281526007602052604090205460ff1661066a576040516324ce57e760e21b815260040160405180910390fd5b600082815260046020526040812090600682015460ff16600381111561069257610692611a4f565b146106b057604051631213349960e21b815260040160405180910390fd5b60028101546001600160a01b031633146106dd57604051636431e4c160e11b815260040160405180910390fd5b600083815260066020526040812054900361070b57604051634ce4241960e11b815260040160405180910390fd5b60008381526005602090815260408083208584529091528120805490910361074657604051631e854eab60e01b815260040160405180910390fd5b60068201805460ff1916600117905560078201839055600482015460038201546040516001600160a01b0390911690600090829084908381818185875af1925050503d80600081146107b4576040519150601f19603f3d011682016040523d82523d6000602084013e6107b9565b606091505b50509050806107db576040516312171d8360e31b815260040160405180910390fd5b604080518481524260208201526001600160a01b0384169188918a917f6b46f4e67c937e829e027d13db4cec9f3f481524604f4d1b706dd2aef5457f89910160405180910390a4505050505061083060018055565b5050565b6108766040518060c0016040528060008152602001600081526020016000815260200160006001600160a01b0316815260200160608152602001600081525090565b60008381526007602052604090205460ff166108a5576040516324ce57e760e21b815260040160405180910390fd5b600083815260056020908152604080832085845290915281205490036108de57604051631e854eab60e01b815260040160405180910390fd5b6000838152600560209081526040808320858452825291829020825160c0810184528154815260018201549281019290925260028101549282019290925260038201546001600160a01b0316606082015260048201805491929160808401919061094790611bad565b80601f016020809104026020016040519081016040528092919081815260200182805461097390611bad565b80156109c05780601f10610995576101008083540402835291602001916109c0565b820191906000526020600020905b8154815290600101906020018083116109a357829003601f168201915b50505050508152602001600582015481525050905092915050565b60006109e56116d6565b60008581526007602052604090205460ff16610a14576040516324ce57e760e21b815260040160405180910390fd5b600085815260046020526040812090600682015460ff166003811115610a3c57610a3c611a4f565b14610a5a57604051631213349960e21b815260040160405180910390fd5b8060050154421115610a7f57604051635b61cca760e11b815260040160405180910390fd5b60025460405163de99f15760e01b8152600481018790526001600160a01b039091169063de99f15790602401602060405180830381865afa158015610ac8573d6000803e3d6000fd5b505050506040513d601f19601f82011682018060405250810190610aec9190611be7565b610b095760405163e93ba22360e01b815260040160405180910390fd5b600254604051634744f2c960e01b8152336004820152602481018790526001600160a01b0390911690634744f2c990604401602060405180830381865afa158015610b58573d6000803e3d6000fd5b505050506040513d601f19601f82011682018060405250810190610b7c9190611be7565b610b9957604051630e41dcbf60e21b815260040160405180910390fd5b84816001015403610bbd576040516310ef8cd160e31b815260040160405180910390fd5b6000839003610bdf57604051633875d9bd60e21b815260040160405180910390fd5b60015b6000878152600660205260409020548111610c46576000878152600560209081526040808320848452909152902060020154869003610c34576040516355232a0b60e01b815260040160405180910390fd5b80610c3e81611c09565b915050610be2565b5060008681526006602052604081208054909190610c6390611c09565b91905081905591506040518060c00160405280838152602001878152602001868152602001336001600160a01b0316815260200185858080601f01602080910402602001604051908101604052809392919081815260200183838082843760009201829052509385525050426020938401525088815260058252604080822086835283529081902083518155918301516001830155820151600282015560608201516003820180546001600160a01b0319166001600160a01b0390921691909117905560808201516004820190610d3a9082611c88565b5060a082015181600501559050508482877f3c56d8d646b4a3accd0b5da85f0b74f9479b2aa4cd41f76a4739154cbb46747d33888842604051610d809493929190611d71565b60405180910390a450610d9260018055565b949350505050565b6005602090815260009283526040808420909152908252902080546001820154600283015460038401546004850180549495939492936001600160a01b0390921692610de590611bad565b80601f0160208091040260200160405190810160405280929190818152602001828054610e1190611bad565b8015610e5e5780601f10610e3357610100808354040283529160200191610e5e565b820191906000526020600020905b815481529060010190602001808311610e4157829003601f168201915b5050505050908060050154905086565b6000610e786116d6565b60025460405163de99f15760e01b8152600481018790526001600160a01b039091169063de99f15790602401602060405180830381865afa158015610ec1573d6000803e3d6000fd5b505050506040513d601f19601f82011682018060405250810190610ee59190611be7565b610f025760405163e93ba22360e01b815260040160405180910390fd5b600254604051634744f2c960e01b8152336004820152602481018790526001600160a01b0390911690634744f2c990604401602060405180830381865afa158015610f51573d6000803e3d6000fd5b505050506040513d601f19601f82011682018060405250810190610f759190611be7565b610f9257604051630e41dcbf60e21b815260040160405180910390fd5b6000839003610fb457604051633875d9bd60e21b815260040160405180910390fd5b66038d7ea4c68000341080610fd15750683635c9adc5dea0000034115b15610fef57604051633853986560e01b815260040160405180910390fd5b6000610ffb4284611b9a565b9050610e1081108061101057506301e1338081115b1561102e57604051631da7447960e21b815260040160405180910390fd5b6003805490600061103e83611c09565b919050559150604051806101200160405280838152602001878152602001336001600160a01b0316815260200186868080601f01602080910402602001604051908101604052809392919081815260200183838082843760009201829052509385525050346020840152506040820186905260609091019081526000602080830182905242604093840152858252600481529082902083518155908301516001820155908201516002820180546001600160a01b0319166001600160a01b039092169190911790556060820151600382019061111a9082611c88565b506080820151600482015560a0820151600582015560c082015160068201805460ff1916600183600381111561115257611152611a4f565b021790555060e0820151600780830191909155610100909201516008909101556000838152602091909152604090819020805460ff19166001179055513390879084907fa42cf1031fcc32708e7a20e80057fae59042897069e3c19985ff0227edb0ca4990610d80908a908a9034908b904290611da7565b6000828152602081905260409020600101546111e5816115cf565b6105b6838361166b565b6004602052600090815260409020805460018201546002830154600384018054939492936001600160a01b03909216929161122990611bad565b80601f016020809104026020016040519081016040528092919081815260200182805461125590611bad565b80156112a25780601f10611277576101008083540402835291602001916112a2565b820191906000526020600020905b81548152906001019060200180831161128557829003601f168201915b50505060048401546005850154600686015460078701546008909701549596929591945060ff16925089565b6112d66116d6565b60008181526007602052604090205460ff16611305576040516324ce57e760e21b815260040160405180910390fd5b600081815260046020526040812090600682015460ff16600381111561132d5761132d611a4f565b1461134b57604051631213349960e21b815260040160405180910390fd5b60028101546001600160a01b0316331461137857604051636431e4c160e11b815260040160405180910390fd5b60068101805460ff191660029081179091556004820154908201546040516001600160a01b0390911690600090829084908381818185875af1925050503d80600081146113e1576040519150601f19603f3d011682016040523d82523d6000602084013e6113e6565b606091505b5050905080611408576040516312171d8360e31b815260040160405180910390fd5b604080518481524260208201526001600160a01b0384169187917f3f6601636736aadd1abec1cc8b31c674cf6e219856cb653eb7242f6a1fed3c4d910160405180910390a35050505061145a60018055565b50565b61146561173d565b60008281526007602052604090205460ff16611494576040516324ce57e760e21b815260040160405180910390fd5b6000828152600460209081526040918290208251610120810184528154815260018201549281019290925260028101546001600160a01b0316928201929092526003820180549192916060840191906114ec90611bad565b80601f016020809104026020016040519081016040528092919081815260200182805461151890611bad565b80156115655780601f1061153a57610100808354040283529160200191611565565b820191906000526020600020905b81548152906001019060200180831161154857829003601f168201915b50505091835250506004820154602082015260058201546040820152600682015460609091019060ff1660038111156115a0576115a0611a4f565b60038111156115b1576115b1611a4f565b81526007820154602082015260089091015460409091015292915050565b61145a8133611700565b60006115e5838361060a565b611663576000838152602081815260408083206001600160a01b03861684529091529020805460ff1916600117905561161b3390565b6001600160a01b0316826001600160a01b0316847f2f8788117e7eff1d82e926ec794901d17c78024a50270940304540a733656f0d60405160405180910390a450600161053e565b50600061053e565b6000611677838361060a565b15611663576000838152602081815260408083206001600160a01b0386168085529252808320805460ff1916905551339286917ff6391f5c32d9c69d2a47ea670b442974b53935d1edc7fd64eb21e047a839171b9190a450600161053e565b6002600154036116f957604051633ee5aeb560e01b815260040160405180910390fd5b6002600155565b61170a828261060a565b6108305760405163e2517d3f60e01b81526001600160a01b03821660048201526024810183905260440160405180910390fd5b604051806101200160405280600081526020016000815260200160006001600160a01b031681526020016060815260200160008152602001600081526020016000600381111561178f5761178f611a4f565b815260200160008152602001600081525090565b6000602082840312156117b557600080fd5b81356001600160e01b0319811681146117cd57600080fd5b9392505050565b6000602082840312156117e657600080fd5b5035919050565b80356001600160a01b038116811461180457600080fd5b919050565b60006020828403121561181b57600080fd5b6117cd826117ed565b6000806040838503121561183757600080fd5b82359150611847602084016117ed565b90509250929050565b6000806040838503121561186357600080fd5b50508035926020909101359150565b6000815180845260005b818110156118985760208185018101518683018201520161187c565b506000602082860101526020601f19601f83011685010191505092915050565b6020815281516020820152602082015160408201526040820151606082015260018060a01b0360608301511660808201526000608083015160c060a084015261190460e0840182611872565b905060a084015160c08401528091505092915050565b60008083601f84011261192c57600080fd5b50813567ffffffffffffffff81111561194457600080fd5b60208301915083602082850101111561195c57600080fd5b9250929050565b6000806000806060858703121561197957600080fd5b8435935060208501359250604085013567ffffffffffffffff81111561199e57600080fd5b6119aa8782880161191a565b95989497509550505050565b86815285602082015284604082015260018060a01b038416606082015260c0608082015260006119e960c0830185611872565b90508260a0830152979650505050505050565b60008060008060608587031215611a1257600080fd5b84359350602085013567ffffffffffffffff811115611a3057600080fd5b611a3c8782880161191a565b9598909750949560400135949350505050565b634e487b7160e01b600052602160045260246000fd5b60048110611a8357634e487b7160e01b600052602160045260246000fd5b9052565b898152602081018990526001600160a01b038816604082015261012060608201819052600090611ab98382018a611872565b9150508660808301528560a0830152611ad560c0830186611a65565b60e08201939093526101000152979650505050505050565b60208152815160208201526020820151604082015260006040830151611b1e60608401826001600160a01b03169052565b506060830151610120806080850152611b3b610140850183611872565b9150608085015160a085015260a085015160c085015260c0850151611b6360e0860182611a65565b5060e085015161010085810191909152909401519390920192909252919050565b634e487b7160e01b600052601160045260246000fd5b8181038181111561053e5761053e611b84565b600181811c90821680611bc157607f821691505b602082108103611be157634e487b7160e01b600052602260045260246000fd5b50919050565b600060208284031215611bf957600080fd5b815180151581146117cd57600080fd5b600060018201611c1b57611c1b611b84565b5060010190565b634e487b7160e01b600052604160045260246000fd5b601f8211156105ef576000816000526020600020601f850160051c81016020861015611c615750805b601f850160051c820191505b81811015611c8057828155600101611c6d565b505050505050565b815167ffffffffffffffff811115611ca257611ca2611c22565b611cb681611cb08454611bad565b84611c38565b602080601f831160018114611ceb5760008415611cd35750858301515b600019600386901b1c1916600185901b178555611c80565b600085815260208120601f198616915b82811015611d1a57888601518255948401946001909101908401611cfb565b5085821015611d385787850151600019600388901b60f8161c191681555b5050505050600190811b01905550565b81835281816020850137506000828201602090810191909152601f909101601f19169091010190565b6001600160a01b0385168152606060208201819052600090611d969083018587611d48565b905082604083015295945050505050565b608081526000611dbb608083018789611d48565b60208301959095525060408101929092526060909101529291505056fea26469706673582212204454129ca5ade7fd4d3076f886f571ecaa4904be0d3432c215cfcf6518ea37b064736f6c63430008180033","opcodes":"PUSH1 0x80 PUSH1 0x40 MSTORE PUSH1 0x1 PUSH1 0x3 SSTORE CALLVALUE DUP1 ISZERO PUSH3 0x16 JUMPI PUSH1 0x0 DUP1 REVERT JUMPDEST POP PUSH1 0x40 MLOAD PUSH3 0x1F99 CODESIZE SUB DUP1 PUSH3 0x1F99 DUP4 CODECOPY DUP2 ADD PUSH1 0x40 DUP2 SWAP1 MSTORE PUSH3 0x39 SWAP2 PUSH3 0x149 JUMP JUMPDEST PUSH1 0x1 DUP1 SSTORE PUSH1 0x2 DUP1 SLOAD PUSH1 0x1 PUSH1 0x1 PUSH1 0xA0 SHL SUB NOT AND PUSH1 0x1 PUSH1 0x1 PUSH1 0xA0 SHL SUB DUP4 AND OR SWAP1 SSTORE PUSH3 0x65 PUSH1 0x0 CALLER PUSH3 0x9A JUMP JUMPDEST POP PUSH3 0x92 PUSH32 0xA49807205CE4D355092EF5A8A18F56E8913CF4A201FBE287825B095693C21775 CALLER PUSH3 0x9A JUMP JUMPDEST POP POP PUSH3 0x17B JUMP JUMPDEST PUSH1 0x0 DUP3 DUP2 MSTORE PUSH1 0x20 DUP2 DUP2 MSTORE PUSH1 0x40 DUP1 DUP4 KECCAK256 PUSH1 0x1 PUSH1 0x1 PUSH1 0xA0 SHL SUB DUP6 AND DUP5 MSTORE SWAP1 SWAP2 MSTORE DUP2 KECCAK256 SLOAD PUSH1 0xFF AND PUSH3 0x13F JUMPI PUSH1 0x0 DUP4 DUP2 MSTORE PUSH1 0x20 DUP2 DUP2 MSTORE PUSH1 0x40 DUP1 DUP4 KECCAK256 PUSH1 0x1 PUSH1 0x1 PUSH1 0xA0 SHL SUB DUP7 AND DUP5 MSTORE SWAP1 SWAP2 MSTORE SWAP1 KECCAK256 DUP1 SLOAD PUSH1 0xFF NOT AND PUSH1 0x1 OR SWAP1 SSTORE PUSH3 0xF6 CALLER SWAP1 JUMP JUMPDEST PUSH1 0x1 PUSH1 0x1 PUSH1 0xA0 SHL SUB AND DUP3 PUSH1 0x1 PUSH1 0x1 PUSH1 0xA0 SHL SUB AND DUP5 PUSH32 0x2F8788117E7EFF1D82E926EC794901D17C78024A50270940304540A733656F0D PUSH1 0x40 MLOAD PUSH1 0x40 MLOAD DUP1 SWAP2 SUB SWAP1 LOG4 POP PUSH1 0x1 PUSH3 0x143 JUMP JUMPDEST POP PUSH1 0x0 JUMPDEST SWAP3 SWAP2 POP POP JUMP JUMPDEST PUSH1 0x0 PUSH1 0x20 DUP3 DUP5 SUB SLT ISZERO PUSH3 0x15C JUMPI PUSH1 0x0 DUP1 REVERT JUMPDEST DUP2 MLOAD PUSH1 0x1 PUSH1 0x1 PUSH1 0xA0 SHL SUB DUP2 AND DUP2 EQ PUSH3 0x174 JUMPI PUSH1 0x0 DUP1 REVERT JUMPDEST SWAP4 SWAP3 POP POP POP JUMP JUMPDEST PUSH2 0x1E0E DUP1 PUSH3 0x18B PUSH1 0x0 CODECOPY PUSH1 0x0 RETURN INVALID PUSH1 0x80 PUSH1 0x40 MSTORE PUSH1 0x4 CALLDATASIZE LT PUSH2 0x166 JUMPI PUSH1 0x0 CALLDATALOAD PUSH1 0xE0 SHR DUP1 PUSH4 0x91D14854 GT PUSH2 0xD1 JUMPI DUP1 PUSH4 0xC57B9C0C GT PUSH2 0x8A JUMPI DUP1 PUSH4 0xDC2F8744 GT PUSH2 0x64 JUMPI DUP1 PUSH4 0xDC2F8744 EQ PUSH2 0x45E JUMPI DUP1 PUSH4 0xE5E5DFF1 EQ PUSH2 0x493 JUMPI DUP1 PUSH4 0xE6F82E01 EQ PUSH2 0x4B3 JUMPI DUP1 PUSH4 0xEE8C4BBF EQ PUSH2 0x4E0 JUMPI PUSH1 0x0 DUP1 REVERT JUMPDEST DUP1 PUSH4 0xC57B9C0C EQ PUSH2 0x415 JUMPI DUP1 PUSH4 0xD2C7606D EQ PUSH2 0x42B JUMPI DUP1 PUSH4 0xD547741F EQ PUSH2 0x43E JUMPI PUSH1 0x0 DUP1 REVERT JUMPDEST DUP1 PUSH4 0x91D14854 EQ PUSH2 0x341 JUMPI DUP1 PUSH4 0x91F94695 EQ PUSH2 0x361 JUMPI DUP1 PUSH4 0x9AACB18C EQ PUSH2 0x381 JUMPI DUP1 PUSH4 0xA03EE5B1 EQ PUSH2 0x3AE JUMPI DUP1 PUSH4 0xA217FDDF EQ PUSH2 0x3CE JUMPI DUP1 PUSH4 0xBD977A89 EQ PUSH2 0x3E3 JUMPI PUSH1 0x0 DUP1 REVERT JUMPDEST DUP1 PUSH4 0x36568ABE GT PUSH2 0x123 JUMPI DUP1 PUSH4 0x36568ABE EQ PUSH2 0x275 JUMPI DUP1 PUSH4 0x3CEFB4C0 EQ PUSH2 0x295 JUMPI DUP1 PUSH4 0x48EA0C03 EQ PUSH2 0x2C5 JUMPI DUP1 PUSH4 0x7322AE37 EQ PUSH2 0x2E0 JUMPI DUP1 PUSH4 0x75B238FC EQ PUSH2 0x2F8 JUMPI DUP1 PUSH4 0x85FEEB23 EQ PUSH2 0x32C JUMPI PUSH1 0x0 DUP1 REVERT JUMPDEST DUP1 PUSH4 0x1FFC9A7 EQ PUSH2 0x16B JUMPI DUP1 PUSH4 0xD1CFCAE EQ PUSH2 0x1A0 JUMPI DUP1 PUSH4 0xE1505E0 EQ PUSH2 0x1D8 JUMPI DUP1 PUSH4 0x248A9CA3 EQ PUSH2 0x203 JUMPI DUP1 PUSH4 0x28342ECF EQ PUSH2 0x233 JUMPI DUP1 PUSH4 0x2F2FF15D EQ PUSH2 0x255 JUMPI JUMPDEST PUSH1 0x0 DUP1 REVERT JUMPDEST CALLVALUE DUP1 ISZERO PUSH2 0x177 JUMPI PUSH1 0x0 DUP1 REVERT JUMPDEST POP PUSH2 0x18B PUSH2 0x186 CALLDATASIZE PUSH1 0x4 PUSH2 0x17A3 JUMP JUMPDEST PUSH2 0x50D JUMP JUMPDEST PUSH1 0x40 MLOAD SWAP1 ISZERO ISZERO DUP2 MSTORE PUSH1 0x20 ADD JUMPDEST PUSH1 0x40 MLOAD DUP1 SWAP2 SUB SWAP1 RETURN JUMPDEST CALLVALUE DUP1 ISZERO PUSH2 0x1AC JUMPI PUSH1 0x0 DUP1 REVERT JUMPDEST POP PUSH1 0x2 SLOAD PUSH2 0x1C0 SWAP1 PUSH1 0x1 PUSH1 0x1 PUSH1 0xA0 SHL SUB AND DUP2 JUMP JUMPDEST PUSH1 0x40 MLOAD PUSH1 0x1 PUSH1 0x1 PUSH1 0xA0 SHL SUB SWAP1 SWAP2 AND DUP2 MSTORE PUSH1 0x20 ADD PUSH2 0x197 JUMP JUMPDEST CALLVALUE DUP1 ISZERO PUSH2 0x1E4 JUMPI PUSH1 0x0 DUP1 REVERT JUMPDEST POP PUSH2 0x1F5 PUSH9 0x3635C9ADC5DEA00000 DUP2 JUMP JUMPDEST PUSH1 0x40 MLOAD SWAP1 DUP2 MSTORE PUSH1 0x20 ADD PUSH2 0x197 JUMP JUMPDEST CALLVALUE DUP1 ISZERO PUSH2 0x20F JUMPI PUSH1 0x0 DUP1 REVERT JUMPDEST POP PUSH2 0x1F5 PUSH2 0x21E CALLDATASIZE PUSH1 0x4 PUSH2 0x17D4 JUMP JUMPDEST PUSH1 0x0 SWAP1 DUP2 MSTORE PUSH1 0x20 DUP2 SWAP1 MSTORE PUSH1 0x40 SWAP1 KECCAK256 PUSH1 0x1 ADD SLOAD SWAP1 JUMP JUMPDEST CALLVALUE DUP1 ISZERO PUSH2 0x23F JUMPI PUSH1 0x0 DUP1 REVERT JUMPDEST POP PUSH2 0x253 PUSH2 0x24E CALLDATASIZE PUSH1 0x4 PUSH2 0x1809 JUMP JUMPDEST PUSH2 0x544 JUMP JUMPDEST STOP JUMPDEST CALLVALUE DUP1 ISZERO PUSH2 0x261 JUMPI PUSH1 0x0 DUP1 REVERT JUMPDEST POP PUSH2 0x253 PUSH2 0x270 CALLDATASIZE PUSH1 0x4 PUSH2 0x1824 JUMP JUMPDEST PUSH2 0x591 JUMP JUMPDEST CALLVALUE DUP1 ISZERO PUSH2 0x281 JUMPI PUSH1 0x0 DUP1 REVERT JUMPDEST POP PUSH2 0x253 PUSH2 0x290 CALLDATASIZE PUSH1 0x4 PUSH2 0x1824 JUMP JUMPDEST PUSH2 0x5BC JUMP JUMPDEST CALLVALUE DUP1 ISZERO PUSH2 0x2A1 JUMPI PUSH1 0x0 DUP1 REVERT JUMPDEST POP PUSH2 0x18B PUSH2 0x2B0 CALLDATASIZE PUSH1 0x4 PUSH2 0x17D4 JUMP JUMPDEST PUSH1 0x7 PUSH1 0x20 MSTORE PUSH1 0x0 SWAP1 DUP2 MSTORE PUSH1 0x40 SWAP1 KECCAK256 SLOAD PUSH1 0xFF AND DUP2 JUMP JUMPDEST CALLVALUE DUP1 ISZERO PUSH2 0x2D1 JUMPI PUSH1 0x0 DUP1 REVERT JUMPDEST POP PUSH2 0x1F5 PUSH7 0x38D7EA4C68000 DUP2 JUMP JUMPDEST CALLVALUE DUP1 ISZERO PUSH2 0x2EC JUMPI PUSH1 0x0 DUP1 REVERT JUMPDEST POP PUSH2 0x1F5 PUSH4 0x1E13380 DUP2 JUMP JUMPDEST CALLVALUE DUP1 ISZERO PUSH2 0x304 JUMPI PUSH1 0x0 DUP1 REVERT JUMPDEST POP PUSH2 0x1F5 PUSH32 0xA49807205CE4D355092EF5A8A18F56E8913CF4A201FBE287825B095693C21775 DUP2 JUMP JUMPDEST CALLVALUE DUP1 ISZERO PUSH2 0x338 JUMPI PUSH1 0x0 DUP1 REVERT JUMPDEST POP PUSH2 0x1F5 PUSH2 0x5F4 JUMP JUMPDEST CALLVALUE DUP1 ISZERO PUSH2 0x34D JUMPI PUSH1 0x0 DUP1 REVERT JUMPDEST POP PUSH2 0x18B PUSH2 0x35C CALLDATASIZE PUSH1 0x4 PUSH2 0x1824 JUMP JUMPDEST PUSH2 0x60A JUMP JUMPDEST CALLVALUE DUP1 ISZERO PUSH2 0x36D JUMPI PUSH1 0x0 DUP1 REVERT JUMPDEST POP PUSH2 0x253 PUSH2 0x37C CALLDATASIZE PUSH1 0x4 PUSH2 0x1850 JUMP JUMPDEST PUSH2 0x633 JUMP JUMPDEST CALLVALUE DUP1 ISZERO PUSH2 0x38D JUMPI PUSH1 0x0 DUP1 REVERT JUMPDEST POP PUSH2 0x3A1 PUSH2 0x39C CALLDATASIZE PUSH1 0x4 PUSH2 0x1850 JUMP JUMPDEST PUSH2 0x834 JUMP JUMPDEST PUSH1 0x40 MLOAD PUSH2 0x197 SWAP2 SWAP1 PUSH2 0x18B8 JUMP JUMPDEST CALLVALUE DUP1 ISZERO PUSH2 0x3BA JUMPI PUSH1 0x0 DUP1 REVERT JUMPDEST POP PUSH2 0x1F5 PUSH2 0x3C9 CALLDATASIZE PUSH1 0x4 PUSH2 0x1963 JUMP JUMPDEST PUSH2 0x9DB JUMP JUMPDEST CALLVALUE DUP1 ISZERO PUSH2 0x3DA JUMPI PUSH1 0x0 DUP1 REVERT JUMPDEST POP PUSH2 0x1F5 PUSH1 0x0 DUP2 JUMP JUMPDEST CALLVALUE DUP1 ISZERO PUSH2 0x3EF JUMPI PUSH1 0x0 DUP1 REVERT JUMPDEST POP PUSH2 0x403 PUSH2 0x3FE CALLDATASIZE PUSH1 0x4 PUSH2 0x1850 JUMP JUMPDEST PUSH2 0xD9A JUMP JUMPDEST PUSH1 0x40 MLOAD PUSH2 0x197 SWAP7 SWAP6 SWAP5 SWAP4 SWAP3 SWAP2 SWAP1 PUSH2 0x19B6 JUMP JUMPDEST CALLVALUE DUP1 ISZERO PUSH2 0x421 JUMPI PUSH1 0x0 DUP1 REVERT JUMPDEST POP PUSH2 0x1F5 PUSH2 0xE10 DUP2 JUMP JUMPDEST PUSH2 0x1F5 PUSH2 0x439 CALLDATASIZE PUSH1 0x4 PUSH2 0x19FC JUMP JUMPDEST PUSH2 0xE6E JUMP JUMPDEST CALLVALUE DUP1 ISZERO PUSH2 0x44A JUMPI PUSH1 0x0 DUP1 REVERT JUMPDEST POP PUSH2 0x253 PUSH2 0x459 CALLDATASIZE PUSH1 0x4 PUSH2 0x1824 JUMP JUMPDEST PUSH2 0x11CA JUMP JUMPDEST CALLVALUE DUP1 ISZERO PUSH2 0x46A JUMPI PUSH1 0x0 DUP1 REVERT JUMPDEST POP PUSH2 0x47E PUSH2 0x479 CALLDATASIZE PUSH1 0x4 PUSH2 0x17D4 JUMP JUMPDEST PUSH2 0x11EF JUMP JUMPDEST PUSH1 0x40 MLOAD PUSH2 0x197 SWAP10 SWAP9 SWAP8 SWAP7 SWAP6 SWAP5 SWAP4 SWAP3 SWAP2 SWAP1 PUSH2 0x1A87 JUMP JUMPDEST CALLVALUE DUP1 ISZERO PUSH2 0x49F JUMPI PUSH1 0x0 DUP1 REVERT JUMPDEST POP PUSH2 0x253 PUSH2 0x4AE CALLDATASIZE PUSH1 0x4 PUSH2 0x17D4 JUMP JUMPDEST PUSH2 0x12CE JUMP JUMPDEST CALLVALUE DUP1 ISZERO PUSH2 0x4BF JUMPI PUSH1 0x0 DUP1 REVERT JUMPDEST POP PUSH2 0x1F5 PUSH2 0x4CE CALLDATASIZE PUSH1 0x4 PUSH2 0x17D4 JUMP JUMPDEST PUSH1 0x6 PUSH1 0x20 MSTORE PUSH1 0x0 SWAP1 DUP2 MSTORE PUSH1 0x40 SWAP1 KECCAK256 SLOAD DUP2 JUMP JUMPDEST CALLVALUE DUP1 ISZERO PUSH2 0x4EC JUMPI PUSH1 0x0 DUP1 REVERT JUMPDEST POP PUSH2 0x500 PUSH2 0x4FB CALLDATASIZE PUSH1 0x4 PUSH2 0x17D4 JUMP JUMPDEST PUSH2 0x145D JUMP JUMPDEST PUSH1 0x40 MLOAD PUSH2 0x197 SWAP2 SWAP1 PUSH2 0x1AED JUMP JUMPDEST PUSH1 0x0 PUSH1 0x1 PUSH1 0x1 PUSH1 0xE0 SHL SUB NOT DUP3 AND PUSH4 0x7965DB0B PUSH1 0xE0 SHL EQ DUP1 PUSH2 0x53E JUMPI POP PUSH4 0x1FFC9A7 PUSH1 0xE0 SHL PUSH1 0x1 PUSH1 0x1 PUSH1 0xE0 SHL SUB NOT DUP4 AND EQ JUMPDEST SWAP3 SWAP2 POP POP JUMP JUMPDEST PUSH32 0xA49807205CE4D355092EF5A8A18F56E8913CF4A201FBE287825B095693C21775 PUSH2 0x56E DUP2 PUSH2 0x15CF JUMP JUMPDEST POP PUSH1 0x2 DUP1 SLOAD PUSH1 0x1 PUSH1 0x1 PUSH1 0xA0 SHL SUB NOT AND PUSH1 0x1 PUSH1 0x1 PUSH1 0xA0 SHL SUB SWAP3 SWAP1 SWAP3 AND SWAP2 SWAP1 SWAP2 OR SWAP1 SSTORE JUMP JUMPDEST PUSH1 0x0 DUP3 DUP2 MSTORE PUSH1 0x20 DUP2 SWAP1 MSTORE PUSH1 0x40 SWAP1 KECCAK256 PUSH1 0x1 ADD SLOAD PUSH2 0x5AC DUP2 PUSH2 0x15CF JUMP JUMPDEST PUSH2 0x5B6 DUP4 DUP4 PUSH2 0x15D9 JUMP JUMPDEST POP POP POP POP JUMP JUMPDEST PUSH1 0x1 PUSH1 0x1 PUSH1 0xA0 SHL SUB DUP2 AND CALLER EQ PUSH2 0x5E5 JUMPI PUSH1 0x40 MLOAD PUSH4 0x334BD919 PUSH1 0xE1 SHL DUP2 MSTORE PUSH1 0x4 ADD PUSH1 0x40 MLOAD DUP1 SWAP2 SUB SWAP1 REVERT JUMPDEST PUSH2 0x5EF DUP3 DUP3 PUSH2 0x166B JUMP JUMPDEST POP POP POP JUMP JUMPDEST PUSH1 0x0 PUSH1 0x1 PUSH1 0x3 SLOAD PUSH2 0x605 SWAP2 SWAP1 PUSH2 0x1B9A JUMP JUMPDEST SWAP1 POP SWAP1 JUMP JUMPDEST PUSH1 0x0 SWAP2 DUP3 MSTORE PUSH1 0x20 DUP3 DUP2 MSTORE PUSH1 0x40 DUP1 DUP5 KECCAK256 PUSH1 0x1 PUSH1 0x1 PUSH1 0xA0 SHL SUB SWAP4 SWAP1 SWAP4 AND DUP5 MSTORE SWAP2 SWAP1 MSTORE SWAP1 KECCAK256 SLOAD PUSH1 0xFF AND SWAP1 JUMP JUMPDEST PUSH2 0x63B PUSH2 0x16D6 JUMP JUMPDEST PUSH1 0x0 DUP3 DUP2 MSTORE PUSH1 0x7 PUSH1 0x20 MSTORE PUSH1 0x40 SWAP1 KECCAK256 SLOAD PUSH1 0xFF AND PUSH2 0x66A JUMPI PUSH1 0x40 MLOAD PUSH4 0x24CE57E7 PUSH1 0xE2 SHL DUP2 MSTORE PUSH1 0x4 ADD PUSH1 0x40 MLOAD DUP1 SWAP2 SUB SWAP1 REVERT JUMPDEST PUSH1 0x0 DUP3 DUP2 MSTORE PUSH1 0x4 PUSH1 0x20 MSTORE PUSH1 0x40 DUP2 KECCAK256 SWAP1 PUSH1 0x6 DUP3 ADD SLOAD PUSH1 0xFF AND PUSH1 0x3 DUP2 GT ISZERO PUSH2 0x692 JUMPI PUSH2 0x692 PUSH2 0x1A4F JUMP JUMPDEST EQ PUSH2 0x6B0 JUMPI PUSH1 0x40 MLOAD PUSH4 0x12133499 PUSH1 0xE2 SHL DUP2 MSTORE PUSH1 0x4 ADD PUSH1 0x40 MLOAD DUP1 SWAP2 SUB SWAP1 REVERT JUMPDEST PUSH1 0x2 DUP2 ADD SLOAD PUSH1 0x1 PUSH1 0x1 PUSH1 0xA0 SHL SUB AND CALLER EQ PUSH2 0x6DD JUMPI PUSH1 0x40 MLOAD PUSH4 0x6431E4C1 PUSH1 0xE1 SHL DUP2 MSTORE PUSH1 0x4 ADD PUSH1 0x40 MLOAD DUP1 SWAP2 SUB SWAP1 REVERT JUMPDEST PUSH1 0x0 DUP4 DUP2 MSTORE PUSH1 0x6 PUSH1 0x20 MSTORE PUSH1 0x40 DUP2 KECCAK256 SLOAD SWAP1 SUB PUSH2 0x70B JUMPI PUSH1 0x40 MLOAD PUSH4 0x4CE42419 PUSH1 0xE1 SHL DUP2 MSTORE PUSH1 0x4 ADD PUSH1 0x40 MLOAD DUP1 SWAP2 SUB SWAP1 REVERT JUMPDEST PUSH1 0x0 DUP4 DUP2 MSTORE PUSH1 0x5 PUSH1 0x20 SWAP1 DUP2 MSTORE PUSH1 0x40 DUP1 DUP4 KECCAK256 DUP6 DUP5 MSTORE SWAP1 SWAP2 MSTORE DUP2 KECCAK256 DUP1 SLOAD SWAP1 SWAP2 SUB PUSH2 0x746 JUMPI PUSH1 0x40 MLOAD PUSH4 0x1E854EAB PUSH1 0xE0 SHL DUP2 MSTORE PUSH1 0x4 ADD PUSH1 0x40 MLOAD DUP1 SWAP2 SUB SWAP1 REVERT JUMPDEST PUSH1 0x6 DUP3 ADD DUP1 SLOAD PUSH1 0xFF NOT AND PUSH1 0x1 OR SWAP1 SSTORE PUSH1 0x7 DUP3 ADD DUP4 SWAP1 SSTORE PUSH1 0x4 DUP3 ADD SLOAD PUSH1 0x3 DUP3 ADD SLOAD PUSH1 0x40 MLOAD PUSH1 0x1 PUSH1 0x1 PUSH1 0xA0 SHL SUB SWAP1 SWAP2 AND SWAP1 PUSH1 0x0 SWAP1 DUP3 SWAP1 DUP5 SWAP1 DUP4 DUP2 DUP2 DUP2 DUP6 DUP8 GAS CALL SWAP3 POP POP POP RETURNDATASIZE DUP1 PUSH1 0x0 DUP2 EQ PUSH2 0x7B4 JUMPI PUSH1 0x40 MLOAD SWAP2 POP PUSH1 0x1F NOT PUSH1 0x3F RETURNDATASIZE ADD AND DUP3 ADD PUSH1 0x40 MSTORE RETURNDATASIZE DUP3 MSTORE RETURNDATASIZE PUSH1 0x0 PUSH1 0x20 DUP5 ADD RETURNDATACOPY PUSH2 0x7B9 JUMP JUMPDEST PUSH1 0x60 SWAP2 POP JUMPDEST POP POP SWAP1 POP DUP1 PUSH2 0x7DB JUMPI PUSH1 0x40 MLOAD PUSH4 0x12171D83 PUSH1 0xE3 SHL DUP2 MSTORE PUSH1 0x4 ADD PUSH1 0x40 MLOAD DUP1 SWAP2 SUB SWAP1 REVERT JUMPDEST PUSH1 0x40 DUP1 MLOAD DUP5 DUP2 MSTORE TIMESTAMP PUSH1 0x20 DUP3 ADD MSTORE PUSH1 0x1 PUSH1 0x1 PUSH1 0xA0 SHL SUB DUP5 AND SWAP2 DUP9 SWAP2 DUP11 SWAP2 PUSH32 0x6B46F4E67C937E829E027D13DB4CEC9F3F481524604F4D1B706DD2AEF5457F89 SWAP2 ADD PUSH1 0x40 MLOAD DUP1 SWAP2 SUB SWAP1 LOG4 POP POP POP POP POP PUSH2 0x830 PUSH1 0x1 DUP1 SSTORE JUMP JUMPDEST POP POP JUMP JUMPDEST PUSH2 0x876 PUSH1 0x40 MLOAD DUP1 PUSH1 0xC0 ADD PUSH1 0x40 MSTORE DUP1 PUSH1 0x0 DUP2 MSTORE PUSH1 0x20 ADD PUSH1 0x0 DUP2 MSTORE PUSH1 0x20 ADD PUSH1 0x0 DUP2 MSTORE PUSH1 0x20 ADD PUSH1 0x0 PUSH1 0x1 PUSH1 0x1 PUSH1 0xA0 SHL SUB AND DUP2 MSTORE PUSH1 0x20 ADD PUSH1 0x60 DUP2 MSTORE PUSH1 0x20 ADD PUSH1 0x0 DUP2 MSTORE POP SWAP1 JUMP JUMPDEST PUSH1 0x0 DUP4 DUP2 MSTORE PUSH1 0x7 PUSH1 0x20 MSTORE PUSH1 0x40 SWAP1 KECCAK256 SLOAD PUSH1 0xFF AND PUSH2 0x8A5 JUMPI PUSH1 0x40 MLOAD PUSH4 0x24CE57E7 PUSH1 0xE2 SHL DUP2 MSTORE PUSH1 0x4 ADD PUSH1 0x40 MLOAD DUP1 SWAP2 SUB SWAP1 REVERT JUMPDEST PUSH1 0x0 DUP4 DUP2 MSTORE PUSH1 0x5 PUSH1 0x20 SWAP1 DUP2 MSTORE PUSH1 0x40 DUP1 DUP4 KECCAK256 DUP6 DUP5 MSTORE SWAP1 SWAP2 MSTORE DUP2 KECCAK256 SLOAD SWAP1 SUB PUSH2 0x8DE JUMPI PUSH1 0x40 MLOAD PUSH4 0x1E854EAB PUSH1 0xE0 SHL DUP2 MSTORE PUSH1 0x4 ADD PUSH1 0x40 MLOAD DUP1 SWAP2 SUB SWAP1 REVERT JUMPDEST PUSH1 0x0 DUP4 DUP2 MSTORE PUSH1 0x5 PUSH1 0x20 SWAP1 DUP2 MSTORE PUSH1 0x40 DUP1 DUP4 KECCAK256 DUP6 DUP5 MSTORE DUP3 MSTORE SWAP2 DUP3 SWAP1 KECCAK256 DUP3 MLOAD PUSH1 0xC0 DUP2 ADD DUP5 MSTORE DUP2 SLOAD DUP2 MSTORE PUSH1 0x1 DUP3 ADD SLOAD SWAP3 DUP2 ADD SWAP3 SWAP1 SWAP3 MSTORE PUSH1 0x2 DUP2 ADD SLOAD SWAP3 DUP3 ADD SWAP3 SWAP1 SWAP3 MSTORE PUSH1 0x3 DUP3 ADD SLOAD PUSH1 0x1 PUSH1 0x1 PUSH1 0xA0 SHL SUB AND PUSH1 0x60 DUP3 ADD MSTORE PUSH1 0x4 DUP3 ADD DUP1 SLOAD SWAP2 SWAP3 SWAP2 PUSH1 0x80 DUP5 ADD SWAP2 SWAP1 PUSH2 0x947 SWAP1 PUSH2 0x1BAD JUMP JUMPDEST DUP1 PUSH1 0x1F ADD PUSH1 0x20 DUP1 SWAP2 DIV MUL PUSH1 0x20 ADD PUSH1 0x40 MLOAD SWAP1 DUP2 ADD PUSH1 0x40 MSTORE DUP1 SWAP3 SWAP2 SWAP1 DUP2 DUP2 MSTORE PUSH1 0x20 ADD DUP3 DUP1 SLOAD PUSH2 0x973 SWAP1 PUSH2 0x1BAD JUMP JUMPDEST DUP1 ISZERO PUSH2 0x9C0 JUMPI DUP1 PUSH1 0x1F LT PUSH2 0x995 JUMPI PUSH2 0x100 DUP1 DUP4 SLOAD DIV MUL DUP4 MSTORE SWAP2 PUSH1 0x20 ADD SWAP2 PUSH2 0x9C0 JUMP JUMPDEST DUP3 ADD SWAP2 SWAP1 PUSH1 0x0 MSTORE PUSH1 0x20 PUSH1 0x0 KECCAK256 SWAP1 JUMPDEST DUP2 SLOAD DUP2 MSTORE SWAP1 PUSH1 0x1 ADD SWAP1 PUSH1 0x20 ADD DUP1 DUP4 GT PUSH2 0x9A3 JUMPI DUP3 SWAP1 SUB PUSH1 0x1F AND DUP3 ADD SWAP2 JUMPDEST POP POP POP POP POP DUP2 MSTORE PUSH1 0x20 ADD PUSH1 0x5 DUP3 ADD SLOAD DUP2 MSTORE POP POP SWAP1 POP SWAP3 SWAP2 POP POP JUMP JUMPDEST PUSH1 0x0 PUSH2 0x9E5 PUSH2 0x16D6 JUMP JUMPDEST PUSH1 0x0 DUP6 DUP2 MSTORE PUSH1 0x7 PUSH1 0x20 MSTORE PUSH1 0x40 SWAP1 KECCAK256 SLOAD PUSH1 0xFF AND PUSH2 0xA14 JUMPI PUSH1 0x40 MLOAD PUSH4 0x24CE57E7 PUSH1 0xE2 SHL DUP2 MSTORE PUSH1 0x4 ADD PUSH1 0x40 MLOAD DUP1 SWAP2 SUB SWAP1 REVERT JUMPDEST PUSH1 0x0 DUP6 DUP2 MSTORE PUSH1 0x4 PUSH1 0x20 MSTORE PUSH1 0x40 DUP2 KECCAK256 SWAP1 PUSH1 0x6 DUP3 ADD SLOAD PUSH1 0xFF AND PUSH1 0x3 DUP2 GT ISZERO PUSH2 0xA3C JUMPI PUSH2 0xA3C PUSH2 0x1A4F JUMP JUMPDEST EQ PUSH2 0xA5A JUMPI PUSH1 0x40 MLOAD PUSH4 0x12133499 PUSH1 0xE2 SHL DUP2 MSTORE PUSH1 0x4 ADD PUSH1 0x40 MLOAD DUP1 SWAP2 SUB SWAP1 REVERT JUMPDEST DUP1 PUSH1 0x5 ADD SLOAD TIMESTAMP GT ISZERO PUSH2 0xA7F JUMPI PUSH1 0x40 MLOAD PUSH4 0x5B61CCA7 PUSH1 0xE1 SHL DUP2 MSTORE PUSH1 0x4 ADD PUSH1 0x40 MLOAD DUP1 SWAP2 SUB SWAP1 REVERT JUMPDEST PUSH1 0x2 SLOAD PUSH1 0x40 MLOAD PUSH4 0xDE99F157 PUSH1 0xE0 SHL DUP2 MSTORE PUSH1 0x4 DUP2 ADD DUP8 SWAP1 MSTORE PUSH1 0x1 PUSH1 0x1 PUSH1 0xA0 SHL SUB SWAP1 SWAP2 AND SWAP1 PUSH4 0xDE99F157 SWAP1 PUSH1 0x24 ADD PUSH1 0x20 PUSH1 0x40 MLOAD DUP1 DUP4 SUB DUP2 DUP7 GAS STATICCALL ISZERO DUP1 ISZERO PUSH2 0xAC8 JUMPI RETURNDATASIZE PUSH1 0x0 DUP1 RETURNDATACOPY RETURNDATASIZE PUSH1 0x0 REVERT JUMPDEST POP POP POP POP PUSH1 0x40 MLOAD RETURNDATASIZE PUSH1 0x1F NOT PUSH1 0x1F DUP3 ADD AND DUP3 ADD DUP1 PUSH1 0x40 MSTORE POP DUP2 ADD SWAP1 PUSH2 0xAEC SWAP2 SWAP1 PUSH2 0x1BE7 JUMP JUMPDEST PUSH2 0xB09 JUMPI PUSH1 0x40 MLOAD PUSH4 0xE93BA223 PUSH1 0xE0 SHL DUP2 MSTORE PUSH1 0x4 ADD PUSH1 0x40 MLOAD DUP1 SWAP2 SUB SWAP1 REVERT JUMPDEST PUSH1 0x2 SLOAD PUSH1 0x40 MLOAD PUSH4 0x4744F2C9 PUSH1 0xE0 SHL DUP2 MSTORE CALLER PUSH1 0x4 DUP3 ADD MSTORE PUSH1 0x24 DUP2 ADD DUP8 SWAP1 MSTORE PUSH1 0x1 PUSH1 0x1 PUSH1 0xA0 SHL SUB SWAP1 SWAP2 AND SWAP1 PUSH4 0x4744F2C9 SWAP1 PUSH1 0x44 ADD PUSH1 0x20 PUSH1 0x40 MLOAD DUP1 DUP4 SUB DUP2 DUP7 GAS STATICCALL ISZERO DUP1 ISZERO PUSH2 0xB58 JUMPI RETURNDATASIZE PUSH1 0x0 DUP1 RETURNDATACOPY RETURNDATASIZE PUSH1 0x0 REVERT JUMPDEST POP POP POP POP PUSH1 0x40 MLOAD RETURNDATASIZE PUSH1 0x1F NOT PUSH1 0x1F DUP3 ADD AND DUP3 ADD DUP1 PUSH1 0x40 MSTORE POP DUP2 ADD SWAP1 PUSH2 0xB7C SWAP2 SWAP1 PUSH2 0x1BE7 JUMP JUMPDEST PUSH2 0xB99 JUMPI PUSH1 0x40 MLOAD PUSH4 0xE41DCBF PUSH1 0xE2 SHL DUP2 MSTORE PUSH1 0x4 ADD PUSH1 0x40 MLOAD DUP1 SWAP2 SUB SWAP1 REVERT JUMPDEST DUP5 DUP2 PUSH1 0x1 ADD SLOAD SUB PUSH2 0xBBD JUMPI PUSH1 0x40 MLOAD PUSH4 0x10EF8CD1 PUSH1 0xE3 SHL DUP2 MSTORE PUSH1 0x4 ADD PUSH1 0x40 MLOAD DUP1 SWAP2 SUB SWAP1 REVERT JUMPDEST PUSH1 0x0 DUP4 SWAP1 SUB PUSH2 0xBDF JUMPI PUSH1 0x40 MLOAD PUSH4 0x3875D9BD PUSH1 0xE2 SHL DUP2 MSTORE PUSH1 0x4 ADD PUSH1 0x40 MLOAD DUP1 SWAP2 SUB SWAP1 REVERT JUMPDEST PUSH1 0x1 JUMPDEST PUSH1 0x0 DUP8 DUP2 MSTORE PUSH1 0x6 PUSH1 0x20 MSTORE PUSH1 0x40 SWAP1 KECCAK256 SLOAD DUP2 GT PUSH2 0xC46 JUMPI PUSH1 0x0 DUP8 DUP2 MSTORE PUSH1 0x5 PUSH1 0x20 SWAP1 DUP2 MSTORE PUSH1 0x40 DUP1 DUP4 KECCAK256 DUP5 DUP5 MSTORE SWAP1 SWAP2 MSTORE SWAP1 KECCAK256 PUSH1 0x2 ADD SLOAD DUP7 SWAP1 SUB PUSH2 0xC34 JUMPI PUSH1 0x40 MLOAD PUSH4 0x55232A0B PUSH1 0xE0 SHL DUP2 MSTORE PUSH1 0x4 ADD PUSH1 0x40 MLOAD DUP1 SWAP2 SUB SWAP1 REVERT JUMPDEST DUP1 PUSH2 0xC3E DUP2 PUSH2 0x1C09 JUMP JUMPDEST SWAP2 POP POP PUSH2 0xBE2 JUMP JUMPDEST POP PUSH1 0x0 DUP7 DUP2 MSTORE PUSH1 0x6 PUSH1 0x20 MSTORE PUSH1 0x40 DUP2 KECCAK256 DUP1 SLOAD SWAP1 SWAP2 SWAP1 PUSH2 0xC63 SWAP1 PUSH2 0x1C09 JUMP JUMPDEST SWAP2 SWAP1 POP DUP2 SWAP1 SSTORE SWAP2 POP PUSH1 0x40 MLOAD DUP1 PUSH1 0xC0 ADD PUSH1 0x40 MSTORE DUP1 DUP4 DUP2 MSTORE PUSH1 0x20 ADD DUP8 DUP2 MSTORE PUSH1 0x20 ADD DUP7 DUP2 MSTORE PUSH1 0x20 ADD CALLER PUSH1 0x1 PUSH1 0x1 PUSH1 0xA0 SHL SUB AND DUP2 MSTORE PUSH1 0x20 ADD DUP6 DUP6 DUP1 DUP1 PUSH1 0x1F ADD PUSH1 0x20 DUP1 SWAP2 DIV MUL PUSH1 0x20 ADD PUSH1 0x40 MLOAD SWAP1 DUP2 ADD PUSH1 0x40 MSTORE DUP1 SWAP4 SWAP3 SWAP2 SWAP1 DUP2 DUP2 MSTORE PUSH1 0x20 ADD DUP4 DUP4 DUP1 DUP3 DUP5 CALLDATACOPY PUSH1 0x0 SWAP3 ADD DUP3 SWAP1 MSTORE POP SWAP4 DUP6 MSTORE POP POP TIMESTAMP PUSH1 0x20 SWAP4 DUP5 ADD MSTORE POP DUP9 DUP2 MSTORE PUSH1 0x5 DUP3 MSTORE PUSH1 0x40 DUP1 DUP3 KECCAK256 DUP7 DUP4 MSTORE DUP4 MSTORE SWAP1 DUP2 SWAP1 KECCAK256 DUP4 MLOAD DUP2 SSTORE SWAP2 DUP4 ADD MLOAD PUSH1 0x1 DUP4 ADD SSTORE DUP3 ADD MLOAD PUSH1 0x2 DUP3 ADD SSTORE PUSH1 0x60 DUP3 ADD MLOAD PUSH1 0x3 DUP3 ADD DUP1 SLOAD PUSH1 0x1 PUSH1 0x1 PUSH1 0xA0 SHL SUB NOT AND PUSH1 0x1 PUSH1 0x1 PUSH1 0xA0 SHL SUB SWAP1 SWAP3 AND SWAP2 SWAP1 SWAP2 OR SWAP1 SSTORE PUSH1 0x80 DUP3 ADD MLOAD PUSH1 0x4 DUP3 ADD SWAP1 PUSH2 0xD3A SWAP1 DUP3 PUSH2 0x1C88 JUMP JUMPDEST POP PUSH1 0xA0 DUP3 ADD MLOAD DUP2 PUSH1 0x5 ADD SSTORE SWAP1 POP POP DUP5 DUP3 DUP8 PUSH32 0x3C56D8D646B4A3ACCD0B5DA85F0B74F9479B2AA4CD41F76A4739154CBB46747D CALLER DUP9 DUP9 TIMESTAMP PUSH1 0x40 MLOAD PUSH2 0xD80 SWAP5 SWAP4 SWAP3 SWAP2 SWAP1 PUSH2 0x1D71 JUMP JUMPDEST PUSH1 0x40 MLOAD DUP1 SWAP2 SUB SWAP1 LOG4 POP PUSH2 0xD92 PUSH1 0x1 DUP1 SSTORE JUMP JUMPDEST SWAP5 SWAP4 POP POP POP POP JUMP JUMPDEST PUSH1 0x5 PUSH1 0x20 SWAP1 DUP2 MSTORE PUSH1 0x0 SWAP3 DUP4 MSTORE PUSH1 0x40 DUP1 DUP5 KECCAK256 SWAP1 SWAP2 MSTORE SWAP1 DUP3 MSTORE SWAP1 KECCAK256 DUP1 SLOAD PUSH1 0x1 DUP3 ADD SLOAD PUSH1 0x2 DUP4 ADD SLOAD PUSH1 0x3 DUP5 ADD SLOAD PUSH1 0x4 DUP6 ADD DUP1 SLOAD SWAP5 SWAP6 SWAP4 SWAP5 SWAP3 SWAP4 PUSH1 0x1 PUSH1 0x1 PUSH1 0xA0 SHL SUB SWAP1 SWAP3 AND SWAP3 PUSH2 0xDE5 SWAP1 PUSH2 0x1BAD JUMP JUMPDEST DUP1 PUSH1 0x1F ADD PUSH1 0x20 DUP1 SWAP2 DIV MUL PUSH1 0x20 ADD PUSH1 0x40 MLOAD SWAP1 DUP2 ADD PUSH1 0x40 MSTORE DUP1 SWAP3 SWAP2 SWAP1 DUP2 DUP2 MSTORE PUSH1 0x20 ADD DUP3 DUP1 SLOAD PUSH2 0xE11 SWAP1 PUSH2 0x1BAD JUMP JUMPDEST DUP1 ISZERO PUSH2 0xE5E JUMPI DUP1 PUSH1 0x1F LT PUSH2 0xE33 JUMPI PUSH2 0x100 DUP1 DUP4 SLOAD DIV MUL DUP4 MSTORE SWAP2 PUSH1 0x20 ADD SWAP2 PUSH2 0xE5E JUMP JUMPDEST DUP3 ADD SWAP2 SWAP1 PUSH1 0x0 MSTORE PUSH1 0x20 PUSH1 0x0 KECCAK256 SWAP1 JUMPDEST DUP2 SLOAD DUP2 MSTORE SWAP1 PUSH1 0x1 ADD SWAP1 PUSH1 0x20 ADD DUP1 DUP4 GT PUSH2 0xE41 JUMPI DUP3 SWAP1 SUB PUSH1 0x1F AND DUP3 ADD SWAP2 JUMPDEST POP POP POP POP POP SWAP1 DUP1 PUSH1 0x5 ADD SLOAD SWAP1 POP DUP7 JUMP JUMPDEST PUSH1 0x0 PUSH2 0xE78 PUSH2 0x16D6 JUMP JUMPDEST PUSH1 0x2 SLOAD PUSH1 0x40 MLOAD PUSH4 0xDE99F157 PUSH1 0xE0 SHL DUP2 MSTORE PUSH1 0x4 DUP2 ADD DUP8 SWAP1 MSTORE PUSH1 0x1 PUSH1 0x1 PUSH1 0xA0 SHL SUB SWAP1 SWAP2 AND SWAP1 PUSH4 0xDE99F157 SWAP1 PUSH1 0x24 ADD PUSH1 0x20 PUSH1 0x40 MLOAD DUP1 DUP4 SUB DUP2 DUP7 GAS STATICCALL ISZERO DUP1 ISZERO PUSH2 0xEC1 JUMPI RETURNDATASIZE PUSH1 0x0 DUP1 RETURNDATACOPY RETURNDATASIZE PUSH1 0x0 REVERT JUMPDEST POP POP POP POP PUSH1 0x40 MLOAD RETURNDATASIZE PUSH1 0x1F NOT PUSH1 0x1F DUP3 ADD AND DUP3 ADD DUP1 PUSH1 0x40 MSTORE POP DUP2 ADD SWAP1 PUSH2 0xEE5 SWAP2 SWAP1 PUSH2 0x1BE7 JUMP JUMPDEST PUSH2 0xF02 JUMPI PUSH1 0x40 MLOAD PUSH4 0xE93BA223 PUSH1 0xE0 SHL DUP2 MSTORE PUSH1 0x4 ADD PUSH1 0x40 MLOAD DUP1 SWAP2 SUB SWAP1 REVERT JUMPDEST PUSH1 0x2 SLOAD PUSH1 0x40 MLOAD PUSH4 0x4744F2C9 PUSH1 0xE0 SHL DUP2 MSTORE CALLER PUSH1 0x4 DUP3 ADD MSTORE PUSH1 0x24 DUP2 ADD DUP8 SWAP1 MSTORE PUSH1 0x1 PUSH1 0x1 PUSH1 0xA0 SHL SUB SWAP1 SWAP2 AND SWAP1 PUSH4 0x4744F2C9 SWAP1 PUSH1 0x44 ADD PUSH1 0x20 PUSH1 0x40 MLOAD DUP1 DUP4 SUB DUP2 DUP7 GAS STATICCALL ISZERO DUP1 ISZERO PUSH2 0xF51 JUMPI RETURNDATASIZE PUSH1 0x0 DUP1 RETURNDATACOPY RETURNDATASIZE PUSH1 0x0 REVERT JUMPDEST POP POP POP POP PUSH1 0x40 MLOAD RETURNDATASIZE PUSH1 0x1F NOT PUSH1 0x1F DUP3 ADD AND DUP3 ADD DUP1 PUSH1 0x40 MSTORE POP DUP2 ADD SWAP1 PUSH2 0xF75 SWAP2 SWAP1 PUSH2 0x1BE7 JUMP JUMPDEST PUSH2 0xF92 JUMPI PUSH1 0x40 MLOAD PUSH4 0xE41DCBF PUSH1 0xE2 SHL DUP2 MSTORE PUSH1 0x4 ADD PUSH1 0x40 MLOAD DUP1 SWAP2 SUB SWAP1 REVERT JUMPDEST PUSH1 0x0 DUP4 SWAP1 SUB PUSH2 0xFB4 JUMPI PUSH1 0x40 MLOAD PUSH4 0x3875D9BD PUSH1 0xE2 SHL DUP2 MSTORE PUSH1 0x4 ADD PUSH1 0x40 MLOAD DUP1 SWAP2 SUB SWAP1 REVERT JUMPDEST PUSH7 0x38D7EA4C68000 CALLVALUE LT DUP1 PUSH2 0xFD1 JUMPI POP PUSH9 0x3635C9ADC5DEA00000 CALLVALUE GT JUMPDEST ISZERO PUSH2 0xFEF JUMPI PUSH1 0x40 MLOAD PUSH4 0x38539865 PUSH1 0xE0 SHL DUP2 MSTORE PUSH1 0x4 ADD PUSH1 0x40 MLOAD DUP1 SWAP2 SUB SWAP1 REVERT JUMPDEST PUSH1 0x0 PUSH2 0xFFB TIMESTAMP DUP5 PUSH2 0x1B9A JUMP JUMPDEST SWAP1 POP PUSH2 0xE10 DUP2 LT DUP1 PUSH2 0x1010 JUMPI POP PUSH4 0x1E13380 DUP2 GT JUMPDEST ISZERO PUSH2 0x102E JUMPI PUSH1 0x40 MLOAD PUSH4 0x1DA74479 PUSH1 0xE2 SHL DUP2 MSTORE PUSH1 0x4 ADD PUSH1 0x40 MLOAD DUP1 SWAP2 SUB SWAP1 REVERT JUMPDEST PUSH1 0x3 DUP1 SLOAD SWAP1 PUSH1 0x0 PUSH2 0x103E DUP4 PUSH2 0x1C09 JUMP JUMPDEST SWAP2 SWAP1 POP SSTORE SWAP2 POP PUSH1 0x40 MLOAD DUP1 PUSH2 0x120 ADD PUSH1 0x40 MSTORE DUP1 DUP4 DUP2 MSTORE PUSH1 0x20 ADD DUP8 DUP2 MSTORE PUSH1 0x20 ADD CALLER PUSH1 0x1 PUSH1 0x1 PUSH1 0xA0 SHL SUB AND DUP2 MSTORE PUSH1 0x20 ADD DUP7 DUP7 DUP1 DUP1 PUSH1 0x1F ADD PUSH1 0x20 DUP1 SWAP2 DIV MUL PUSH1 0x20 ADD PUSH1 0x40 MLOAD SWAP1 DUP2 ADD PUSH1 0x40 MSTORE DUP1 SWAP4 SWAP3 SWAP2 SWAP1 DUP2 DUP2 MSTORE PUSH1 0x20 ADD DUP4 DUP4 DUP1 DUP3 DUP5 CALLDATACOPY PUSH1 0x0 SWAP3 ADD DUP3 SWAP1 MSTORE POP SWAP4 DUP6 MSTORE POP POP CALLVALUE PUSH1 0x20 DUP5 ADD MSTORE POP PUSH1 0x40 DUP3 ADD DUP7 SWAP1 MSTORE PUSH1 0x60 SWAP1 SWAP2 ADD SWAP1 DUP2 MSTORE PUSH1 0x0 PUSH1 0x20 DUP1 DUP4 ADD DUP3 SWAP1 MSTORE TIMESTAMP PUSH1 0x40 SWAP4 DUP5 ADD MSTORE DUP6 DUP3 MSTORE PUSH1 0x4 DUP2 MSTORE SWAP1 DUP3 SWAP1 KECCAK256 DUP4 MLOAD DUP2 SSTORE SWAP1 DUP4 ADD MLOAD PUSH1 0x1 DUP3 ADD SSTORE SWAP1 DUP3 ADD MLOAD PUSH1 0x2 DUP3 ADD DUP1 SLOAD PUSH1 0x1 PUSH1 0x1 PUSH1 0xA0 SHL SUB NOT AND PUSH1 0x1 PUSH1 0x1 PUSH1 0xA0 SHL SUB SWAP1 SWAP3 AND SWAP2 SWAP1 SWAP2 OR SWAP1 SSTORE PUSH1 0x60 DUP3 ADD MLOAD PUSH1 0x3 DUP3 ADD SWAP1 PUSH2 0x111A SWAP1 DUP3 PUSH2 0x1C88 JUMP JUMPDEST POP PUSH1 0x80 DUP3 ADD MLOAD PUSH1 0x4 DUP3 ADD SSTORE PUSH1 0xA0 DUP3 ADD MLOAD PUSH1 0x5 DUP3 ADD SSTORE PUSH1 0xC0 DUP3 ADD MLOAD PUSH1 0x6 DUP3 ADD DUP1 SLOAD PUSH1 0xFF NOT AND PUSH1 0x1 DUP4 PUSH1 0x3 DUP2 GT ISZERO PUSH2 0x1152 JUMPI PUSH2 0x1152 PUSH2 0x1A4F JUMP JUMPDEST MUL OR SWAP1 SSTORE POP PUSH1 0xE0 DUP3 ADD MLOAD PUSH1 0x7 DUP1 DUP4 ADD SWAP2 SWAP1 SWAP2 SSTORE PUSH2 0x100 SWAP1 SWAP3 ADD MLOAD PUSH1 0x8 SWAP1 SWAP2 ADD SSTORE PUSH1 0x0 DUP4 DUP2 MSTORE PUSH1 0x20 SWAP2 SWAP1 SWAP2 MSTORE PUSH1 0x40 SWAP1 DUP2 SWAP1 KECCAK256 DUP1 SLOAD PUSH1 0xFF NOT AND PUSH1 0x1 OR SWAP1 SSTORE MLOAD CALLER SWAP1 DUP8 SWAP1 DUP5 SWAP1 PUSH32 0xA42CF1031FCC32708E7A20E80057FAE59042897069E3C19985FF0227EDB0CA49 SWAP1 PUSH2 0xD80 SWAP1 DUP11 SWAP1 DUP11 SWAP1 CALLVALUE SWAP1 DUP12 SWAP1 TIMESTAMP SWAP1 PUSH2 0x1DA7 JUMP JUMPDEST PUSH1 0x0 DUP3 DUP2 MSTORE PUSH1 0x20 DUP2 SWAP1 MSTORE PUSH1 0x40 SWAP1 KECCAK256 PUSH1 0x1 ADD SLOAD PUSH2 0x11E5 DUP2 PUSH2 0x15CF JUMP JUMPDEST PUSH2 0x5B6 DUP4 DUP4 PUSH2 0x166B JUMP JUMPDEST PUSH1 0x4 PUSH1 0x20 MSTORE PUSH1 0x0 SWAP1 DUP2 MSTORE PUSH1 0x40 SWAP1 KECCAK256 DUP1 SLOAD PUSH1 0x1 DUP3 ADD SLOAD PUSH1 0x2 DUP4 ADD SLOAD PUSH1 0x3 DUP5 ADD DUP1 SLOAD SWAP4 SWAP5 SWAP3 SWAP4 PUSH1 0x1 PUSH1 0x1 PUSH1 0xA0 SHL SUB SWAP1 SWAP3 AND SWAP3 SWAP2 PUSH2 0x1229 SWAP1 PUSH2 0x1BAD JUMP JUMPDEST DUP1 PUSH1 0x1F ADD PUSH1 0x20 DUP1 SWAP2 DIV MUL PUSH1 0x20 ADD PUSH1 0x40 MLOAD SWAP1 DUP2 ADD PUSH1 0x40 MSTORE DUP1 SWAP3 SWAP2 SWAP1 DUP2 DUP2 MSTORE PUSH1 0x20 ADD DUP3 DUP1 SLOAD PUSH2 0x1255 SWAP1 PUSH2 0x1BAD JUMP JUMPDEST DUP1 ISZERO PUSH2 0x12A2 JUMPI DUP1 PUSH1 0x1F LT PUSH2 0x1277 JUMPI PUSH2 0x100 DUP1 DUP4 SLOAD DIV MUL DUP4 MSTORE SWAP2 PUSH1 0x20 ADD SWAP2 PUSH2 0x12A2 JUMP JUMPDEST DUP3 ADD SWAP2 SWAP1 PUSH1 0x0 MSTORE PUSH1 0x20 PUSH1 0x0 KECCAK256 SWAP1 JUMPDEST DUP2 SLOAD DUP2 MSTORE SWAP1 PUSH1 0x1 ADD SWAP1 PUSH1 0x20 ADD DUP1 DUP4 GT PUSH2 0x1285 JUMPI DUP3 SWAP1 SUB PUSH1 0x1F AND DUP3 ADD SWAP2 JUMPDEST POP POP POP PUSH1 0x4 DUP5 ADD SLOAD PUSH1 0x5 DUP6 ADD SLOAD PUSH1 0x6 DUP7 ADD SLOAD PUSH1 0x7 DUP8 ADD SLOAD PUSH1 0x8 SWAP1 SWAP8 ADD SLOAD SWAP6 SWAP7 SWAP3 SWAP6 SWAP2 SWAP5 POP PUSH1 0xFF AND SWAP3 POP DUP10 JUMP JUMPDEST PUSH2 0x12D6 PUSH2 0x16D6 JUMP JUMPDEST PUSH1 0x0 DUP2 DUP2 MSTORE PUSH1 0x7 PUSH1 0x20 MSTORE PUSH1 0x40 SWAP1 KECCAK256 SLOAD PUSH1 0xFF AND PUSH2 0x1305 JUMPI PUSH1 0x40 MLOAD PUSH4 0x24CE57E7 PUSH1 0xE2 SHL DUP2 MSTORE PUSH1 0x4 ADD PUSH1 0x40 MLOAD DUP1 SWAP2 SUB SWAP1 REVERT JUMPDEST PUSH1 0x0 DUP2 DUP2 MSTORE PUSH1 0x4 PUSH1 0x20 MSTORE PUSH1 0x40 DUP2 KECCAK256 SWAP1 PUSH1 0x6 DUP3 ADD SLOAD PUSH1 0xFF AND PUSH1 0x3 DUP2 GT ISZERO PUSH2 0x132D JUMPI PUSH2 0x132D PUSH2 0x1A4F JUMP JUMPDEST EQ PUSH2 0x134B JUMPI PUSH1 0x40 MLOAD PUSH4 0x12133499 PUSH1 0xE2 SHL DUP2 MSTORE PUSH1 0x4 ADD PUSH1 0x40 MLOAD DUP1 SWAP2 SUB SWAP1 REVERT JUMPDEST PUSH1 0x2 DUP2 ADD SLOAD PUSH1 0x1 PUSH1 0x1 PUSH1 0xA0 SHL SUB AND CALLER EQ PUSH2 0x1378 JUMPI PUSH1 0x40 MLOAD PUSH4 0x6431E4C1 PUSH1 0xE1 SHL DUP2 MSTORE PUSH1 0x4 ADD PUSH1 0x40 MLOAD DUP1 SWAP2 SUB SWAP1 REVERT JUMPDEST PUSH1 0x6 DUP2 ADD DUP1 SLOAD PUSH1 0xFF NOT AND PUSH1 0x2 SWAP1 DUP2 OR SWAP1 SWAP2 SSTORE PUSH1 0x4 DUP3 ADD SLOAD SWAP1 DUP3 ADD SLOAD PUSH1 0x40 MLOAD PUSH1 0x1 PUSH1 0x1 PUSH1 0xA0 SHL SUB SWAP1 SWAP2 AND SWAP1 PUSH1 0x0 SWAP1 DUP3 SWAP1 DUP5 SWAP1 DUP4 DUP2 DUP2 DUP2 DUP6 DUP8 GAS CALL SWAP3 POP POP POP RETURNDATASIZE DUP1 PUSH1 0x0 DUP2 EQ PUSH2 0x13E1 JUMPI PUSH1 0x40 MLOAD SWAP2 POP PUSH1 0x1F NOT PUSH1 0x3F RETURNDATASIZE ADD AND DUP3 ADD PUSH1 0x40 MSTORE RETURNDATASIZE DUP3 MSTORE RETURNDATASIZE PUSH1 0x0 PUSH1 0x20 DUP5 ADD RETURNDATACOPY PUSH2 0x13E6 JUMP JUMPDEST PUSH1 0x60 SWAP2 POP JUMPDEST POP POP SWAP1 POP DUP1 PUSH2 0x1408 JUMPI PUSH1 0x40 MLOAD PUSH4 0x12171D83 PUSH1 0xE3 SHL DUP2 MSTORE PUSH1 0x4 ADD PUSH1 0x40 MLOAD DUP1 SWAP2 SUB SWAP1 REVERT JUMPDEST PUSH1 0x40 DUP1 MLOAD DUP5 DUP2 MSTORE TIMESTAMP PUSH1 0x20 DUP3 ADD MSTORE PUSH1 0x1 PUSH1 0x1 PUSH1 0xA0 SHL SUB DUP5 AND SWAP2 DUP8 SWAP2 PUSH32 0x3F6601636736AADD1ABEC1CC8B31C674CF6E219856CB653EB7242F6A1FED3C4D SWAP2 ADD PUSH1 0x40 MLOAD DUP1 SWAP2 SUB SWAP1 LOG3 POP POP POP POP PUSH2 0x145A PUSH1 0x1 DUP1 SSTORE JUMP JUMPDEST POP JUMP JUMPDEST PUSH2 0x1465 PUSH2 0x173D JUMP JUMPDEST PUSH1 0x0 DUP3 DUP2 MSTORE PUSH1 0x7 PUSH1 0x20 MSTORE PUSH1 0x40 SWAP1 KECCAK256 SLOAD PUSH1 0xFF AND PUSH2 0x1494 JUMPI PUSH1 0x40 MLOAD PUSH4 0x24CE57E7 PUSH1 0xE2 SHL DUP2 MSTORE PUSH1 0x4 ADD PUSH1 0x40 MLOAD DUP1 SWAP2 SUB SWAP1 REVERT JUMPDEST PUSH1 0x0 DUP3 DUP2 MSTORE PUSH1 0x4 PUSH1 0x20 SWAP1 DUP2 MSTORE PUSH1 0x40 SWAP2 DUP3 SWAP1 KECCAK256 DUP3 MLOAD PUSH2 0x120 DUP2 ADD DUP5 MSTORE DUP2 SLOAD DUP2 MSTORE PUSH1 0x1 DUP3 ADD SLOAD SWAP3 DUP2 ADD SWAP3 SWAP1 SWAP3 MSTORE PUSH1 0x2 DUP2 ADD SLOAD PUSH1 0x1 PUSH1 0x1 PUSH1 0xA0 SHL SUB AND SWAP3 DUP3 ADD SWAP3 SWAP1 SWAP3 MSTORE PUSH1 0x3 DUP3 ADD DUP1 SLOAD SWAP2 SWAP3 SWAP2 PUSH1 0x60 DUP5 ADD SWAP2 SWAP1 PUSH2 0x14EC SWAP1 PUSH2 0x1BAD JUMP JUMPDEST DUP1 PUSH1 0x1F ADD PUSH1 0x20 DUP1 SWAP2 DIV MUL PUSH1 0x20 ADD PUSH1 0x40 MLOAD SWAP1 DUP2 ADD PUSH1 0x40 MSTORE DUP1 SWAP3 SWAP2 SWAP1 DUP2 DUP2 MSTORE PUSH1 0x20 ADD DUP3 DUP1 SLOAD PUSH2 0x1518 SWAP1 PUSH2 0x1BAD JUMP JUMPDEST DUP1 ISZERO PUSH2 0x1565 JUMPI DUP1 PUSH1 0x1F LT PUSH2 0x153A JUMPI PUSH2 0x100 DUP1 DUP4 SLOAD DIV MUL DUP4 MSTORE SWAP2 PUSH1 0x20 ADD SWAP2 PUSH2 0x1565 JUMP JUMPDEST DUP3 ADD SWAP2 SWAP1 PUSH1 0x0 MSTORE PUSH1 0x20 PUSH1 0x0 KECCAK256 SWAP1 JUMPDEST DUP2 SLOAD DUP2 MSTORE SWAP1 PUSH1 0x1 ADD SWAP1 PUSH1 0x20 ADD DUP1 DUP4 GT PUSH2 0x1548 JUMPI DUP3 SWAP1 SUB PUSH1 0x1F AND DUP3 ADD SWAP2 JUMPDEST POP POP POP SWAP2 DUP4 MSTORE POP POP PUSH1 0x4 DUP3 ADD SLOAD PUSH1 0x20 DUP3 ADD MSTORE PUSH1 0x5 DUP3 ADD SLOAD PUSH1 0x40 DUP3 ADD MSTORE PUSH1 0x6 DUP3 ADD SLOAD PUSH1 0x60 SWAP1 SWAP2 ADD SWAP1 PUSH1 0xFF AND PUSH1 0x3 DUP2 GT ISZERO PUSH2 0x15A0 JUMPI PUSH2 0x15A0 PUSH2 0x1A4F JUMP JUMPDEST PUSH1 0x3 DUP2 GT ISZERO PUSH2 0x15B1 JUMPI PUSH2 0x15B1 PUSH2 0x1A4F JUMP JUMPDEST DUP2 MSTORE PUSH1 0x7 DUP3 ADD SLOAD PUSH1 0x20 DUP3 ADD MSTORE PUSH1 0x8 SWAP1 SWAP2 ADD SLOAD PUSH1 0x40 SWAP1 SWAP2 ADD MSTORE SWAP3 SWAP2 POP POP JUMP JUMPDEST PUSH2 0x145A DUP2 CALLER PUSH2 0x1700 JUMP JUMPDEST PUSH1 0x0 PUSH2 0x15E5 DUP4 DUP4 PUSH2 0x60A JUMP JUMPDEST PUSH2 0x1663 JUMPI PUSH1 0x0 DUP4 DUP2 MSTORE PUSH1 0x20 DUP2 DUP2 MSTORE PUSH1 0x40 DUP1 DUP4 KECCAK256 PUSH1 0x1 PUSH1 0x1 PUSH1 0xA0 SHL SUB DUP7 AND DUP5 MSTORE SWAP1 SWAP2 MSTORE SWAP1 KECCAK256 DUP1 SLOAD PUSH1 0xFF NOT AND PUSH1 0x1 OR SWAP1 SSTORE PUSH2 0x161B CALLER SWAP1 JUMP JUMPDEST PUSH1 0x1 PUSH1 0x1 PUSH1 0xA0 SHL SUB AND DUP3 PUSH1 0x1 PUSH1 0x1 PUSH1 0xA0 SHL SUB AND DUP5 PUSH32 0x2F8788117E7EFF1D82E926EC794901D17C78024A50270940304540A733656F0D PUSH1 0x40 MLOAD PUSH1 0x40 MLOAD DUP1 SWAP2 SUB SWAP1 LOG4 POP PUSH1 0x1 PUSH2 0x53E JUMP JUMPDEST POP PUSH1 0x0 PUSH2 0x53E JUMP JUMPDEST PUSH1 0x0 PUSH2 0x1677 DUP4 DUP4 PUSH2 0x60A JUMP JUMPDEST ISZERO PUSH2 0x1663 JUMPI PUSH1 0x0 DUP4 DUP2 MSTORE PUSH1 0x20 DUP2 DUP2 MSTORE PUSH1 0x40 DUP1 DUP4 KECCAK256 PUSH1 0x1 PUSH1 0x1 PUSH1 0xA0 SHL SUB DUP7 AND DUP1 DUP6 MSTORE SWAP3 MSTORE DUP1 DUP4 KECCAK256 DUP1 SLOAD PUSH1 0xFF NOT AND SWAP1 SSTORE MLOAD CALLER SWAP3 DUP7 SWAP2 PUSH32 0xF6391F5C32D9C69D2A47EA670B442974B53935D1EDC7FD64EB21E047A839171B SWAP2 SWAP1 LOG4 POP PUSH1 0x1 PUSH2 0x53E JUMP JUMPDEST PUSH1 0x2 PUSH1 0x1 SLOAD SUB PUSH2 0x16F9 JUMPI PUSH1 0x40 MLOAD PUSH4 0x3EE5AEB5 PUSH1 0xE0 SHL DUP2 MSTORE PUSH1 0x4 ADD PUSH1 0x40 MLOAD DUP1 SWAP2 SUB SWAP1 REVERT JUMPDEST PUSH1 0x2 PUSH1 0x1 SSTORE JUMP JUMPDEST PUSH2 0x170A DUP3 DUP3 PUSH2 0x60A JUMP JUMPDEST PUSH2 0x830 JUMPI PUSH1 0x40 MLOAD PUSH4 0xE2517D3F PUSH1 0xE0 SHL DUP2 MSTORE PUSH1 0x1 PUSH1 0x1 PUSH1 0xA0 SHL SUB DUP3 AND PUSH1 0x4 DUP3 ADD MSTORE PUSH1 0x24 DUP2 ADD DUP4 SWAP1 MSTORE PUSH1 0x44 ADD PUSH1 0x40 MLOAD DUP1 SWAP2 SUB SWAP1 REVERT JUMPDEST PUSH1 0x40 MLOAD DUP1 PUSH2 0x120 ADD PUSH1 0x40 MSTORE DUP1 PUSH1 0x0 DUP2 MSTORE PUSH1 0x20 ADD PUSH1 0x0 DUP2 MSTORE PUSH1 0x20 ADD PUSH1 0x0 PUSH1 0x1 PUSH1 0x1 PUSH1 0xA0 SHL SUB AND DUP2 MSTORE PUSH1 0x20 ADD PUSH1 0x60 DUP2 MSTORE PUSH1 0x20 ADD PUSH1 0x0 DUP2 MSTORE PUSH1 0x20 ADD PUSH1 0x0 DUP2 MSTORE PUSH1 0x20 ADD PUSH1 0x0 PUSH1 0x3 DUP2 GT ISZERO PUSH2 0x178F JUMPI PUSH2 0x178F PUSH2 0x1A4F JUMP JUMPDEST DUP2 MSTORE PUSH1 0x20 ADD PUSH1 0x0 DUP2 MSTORE PUSH1 0x20 ADD PUSH1 0x0 DUP2 MSTORE POP SWAP1 JUMP JUMPDEST PUSH1 0x0 PUSH1 0x20 DUP3 DUP5 SUB SLT ISZERO PUSH2 0x17B5 JUMPI PUSH1 0x0 DUP1 REVERT JUMPDEST DUP2 CALLDATALOAD PUSH1 0x1 PUSH1 0x1 PUSH1 0xE0 SHL SUB NOT DUP2 AND DUP2 EQ PUSH2 0x17CD JUMPI PUSH1 0x0 DUP1 REVERT JUMPDEST SWAP4 SWAP3 POP POP POP JUMP JUMPDEST PUSH1 0x0 PUSH1 0x20 DUP3 DUP5 SUB SLT ISZERO PUSH2 0x17E6 JUMPI PUSH1 0x0 DUP1 REVERT JUMPDEST POP CALLDATALOAD SWAP2 SWAP1 POP JUMP JUMPDEST DUP1 CALLDATALOAD PUSH1 0x1 PUSH1 0x1 PUSH1 0xA0 SHL SUB DUP2 AND DUP2 EQ PUSH2 0x1804 JUMPI PUSH1 0x0 DUP1 REVERT JUMPDEST SWAP2 SWAP1 POP JUMP JUMPDEST PUSH1 0x0 PUSH1 0x20 DUP3 DUP5 SUB SLT ISZERO PUSH2 0x181B JUMPI PUSH1 0x0 DUP1 REVERT JUMPDEST PUSH2 0x17CD DUP3 PUSH2 0x17ED JUMP JUMPDEST PUSH1 0x0 DUP1 PUSH1 0x40 DUP4 DUP6 SUB SLT ISZERO PUSH2 0x1837 JUMPI PUSH1 0x0 DUP1 REVERT JUMPDEST DUP3 CALLDATALOAD SWAP2 POP PUSH2 0x1847 PUSH1 0x20 DUP5 ADD PUSH2 0x17ED JUMP JUMPDEST SWAP1 POP SWAP3 POP SWAP3 SWAP1 POP JUMP JUMPDEST PUSH1 0x0 DUP1 PUSH1 0x40 DUP4 DUP6 SUB SLT ISZERO PUSH2 0x1863 JUMPI PUSH1 0x0 DUP1 REVERT JUMPDEST POP POP DUP1 CALLDATALOAD SWAP3 PUSH1 0x20 SWAP1 SWAP2 ADD CALLDATALOAD SWAP2 POP JUMP JUMPDEST PUSH1 0x0 DUP2 MLOAD DUP1 DUP5 MSTORE PUSH1 0x0 JUMPDEST DUP2 DUP2 LT ISZERO PUSH2 0x1898 JUMPI PUSH1 0x20 DUP2 DUP6 ADD DUP2 ADD MLOAD DUP7 DUP4 ADD DUP3 ADD MSTORE ADD PUSH2 0x187C JUMP JUMPDEST POP PUSH1 0x0 PUSH1 0x20 DUP3 DUP7 ADD ADD MSTORE PUSH1 0x20 PUSH1 0x1F NOT PUSH1 0x1F DUP4 ADD AND DUP6 ADD ADD SWAP2 POP POP SWAP3 SWAP2 POP POP JUMP JUMPDEST PUSH1 0x20 DUP2 MSTORE DUP2 MLOAD PUSH1 0x20 DUP3 ADD MSTORE PUSH1 0x20 DUP3 ADD MLOAD PUSH1 0x40 DUP3 ADD MSTORE PUSH1 0x40 DUP3 ADD MLOAD PUSH1 0x60 DUP3 ADD MSTORE PUSH1 0x1 DUP1 PUSH1 0xA0 SHL SUB PUSH1 0x60 DUP4 ADD MLOAD AND PUSH1 0x80 DUP3 ADD MSTORE PUSH1 0x0 PUSH1 0x80 DUP4 ADD MLOAD PUSH1 0xC0 PUSH1 0xA0 DUP5 ADD MSTORE PUSH2 0x1904 PUSH1 0xE0 DUP5 ADD DUP3 PUSH2 0x1872 JUMP JUMPDEST SWAP1 POP PUSH1 0xA0 DUP5 ADD MLOAD PUSH1 0xC0 DUP5 ADD MSTORE DUP1 SWAP2 POP POP SWAP3 SWAP2 POP POP JUMP JUMPDEST PUSH1 0x0 DUP1 DUP4 PUSH1 0x1F DUP5 ADD SLT PUSH2 0x192C JUMPI PUSH1 0x0 DUP1 REVERT JUMPDEST POP DUP2 CALLDATALOAD PUSH8 0xFFFFFFFFFFFFFFFF DUP2 GT ISZERO PUSH2 0x1944 JUMPI PUSH1 0x0 DUP1 REVERT JUMPDEST PUSH1 0x20 DUP4 ADD SWAP2 POP DUP4 PUSH1 0x20 DUP3 DUP6 ADD ADD GT ISZERO PUSH2 0x195C JUMPI PUSH1 0x0 DUP1 REVERT JUMPDEST SWAP3 POP SWAP3 SWAP1 POP JUMP JUMPDEST PUSH1 0x0 DUP1 PUSH1 0x0 DUP1 PUSH1 0x60 DUP6 DUP8 SUB SLT ISZERO PUSH2 0x1979 JUMPI PUSH1 0x0 DUP1 REVERT JUMPDEST DUP5 CALLDATALOAD SWAP4 POP PUSH1 0x20 DUP6 ADD CALLDATALOAD SWAP3 POP PUSH1 0x40 DUP6 ADD CALLDATALOAD PUSH8 0xFFFFFFFFFFFFFFFF DUP2 GT ISZERO PUSH2 0x199E JUMPI PUSH1 0x0 DUP1 REVERT JUMPDEST PUSH2 0x19AA DUP8 DUP3 DUP9 ADD PUSH2 0x191A JUMP JUMPDEST SWAP6 SWAP9 SWAP5 SWAP8 POP SWAP6 POP POP POP POP JUMP JUMPDEST DUP7 DUP2 MSTORE DUP6 PUSH1 0x20 DUP3 ADD MSTORE DUP5 PUSH1 0x40 DUP3 ADD MSTORE PUSH1 0x1 DUP1 PUSH1 0xA0 SHL SUB DUP5 AND PUSH1 0x60 DUP3 ADD MSTORE PUSH1 0xC0 PUSH1 0x80 DUP3 ADD MSTORE PUSH1 0x0 PUSH2 0x19E9 PUSH1 0xC0 DUP4 ADD DUP6 PUSH2 0x1872 JUMP JUMPDEST SWAP1 POP DUP3 PUSH1 0xA0 DUP4 ADD MSTORE SWAP8 SWAP7 POP POP POP POP POP POP POP JUMP JUMPDEST PUSH1 0x0 DUP1 PUSH1 0x0 DUP1 PUSH1 0x60 DUP6 DUP8 SUB SLT ISZERO PUSH2 0x1A12 JUMPI PUSH1 0x0 DUP1 REVERT JUMPDEST DUP5 CALLDATALOAD SWAP4 POP PUSH1 0x20 DUP6 ADD CALLDATALOAD PUSH8 0xFFFFFFFFFFFFFFFF DUP2 GT ISZERO PUSH2 0x1A30 JUMPI PUSH1 0x0 DUP1 REVERT JUMPDEST PUSH2 0x1A3C DUP8 DUP3 DUP9 ADD PUSH2 0x191A JUMP JUMPDEST SWAP6 SWAP9 SWAP1 SWAP8 POP SWAP5 SWAP6 PUSH1 0x40 ADD CALLDATALOAD SWAP5 SWAP4 POP POP POP POP JUMP JUMPDEST PUSH4 0x4E487B71 PUSH1 0xE0 SHL PUSH1 0x0 MSTORE PUSH1 0x21 PUSH1 0x4 MSTORE PUSH1 0x24 PUSH1 0x0 REVERT JUMPDEST PUSH1 0x4 DUP2 LT PUSH2 0x1A83 JUMPI PUSH4 0x4E487B71 PUSH1 0xE0 SHL PUSH1 0x0 MSTORE PUSH1 0x21 PUSH1 0x4 MSTORE PUSH1 0x24 PUSH1 0x0 REVERT JUMPDEST SWAP1 MSTORE JUMP JUMPDEST DUP10 DUP2 MSTORE PUSH1 0x20 DUP2 ADD DUP10 SWAP1 MSTORE PUSH1 0x1 PUSH1 0x1 PUSH1 0xA0 SHL SUB DUP9 AND PUSH1 0x40 DUP3 ADD MSTORE PUSH2 0x120 PUSH1 0x60 DUP3 ADD DUP2 SWAP1 MSTORE PUSH1 0x0 SWAP1 PUSH2 0x1AB9 DUP4 DUP3 ADD DUP11 PUSH2 0x1872 JUMP JUMPDEST SWAP2 POP POP DUP7 PUSH1 0x80 DUP4 ADD MSTORE DUP6 PUSH1 0xA0 DUP4 ADD MSTORE PUSH2 0x1AD5 PUSH1 0xC0 DUP4 ADD DUP7 PUSH2 0x1A65 JUMP JUMPDEST PUSH1 0xE0 DUP3 ADD SWAP4 SWAP1 SWAP4 MSTORE PUSH2 0x100 ADD MSTORE SWAP8 SWAP7 POP POP POP POP POP POP POP JUMP JUMPDEST PUSH1 0x20 DUP2 MSTORE DUP2 MLOAD PUSH1 0x20 DUP3 ADD MSTORE PUSH1 0x20 DUP3 ADD MLOAD PUSH1 0x40 DUP3 ADD MSTORE PUSH1 0x0 PUSH1 0x40 DUP4 ADD MLOAD PUSH2 0x1B1E PUSH1 0x60 DUP5 ADD DUP3 PUSH1 0x1 PUSH1 0x1 PUSH1 0xA0 SHL SUB AND SWAP1 MSTORE JUMP JUMPDEST POP PUSH1 0x60 DUP4 ADD MLOAD PUSH2 0x120 DUP1 PUSH1 0x80 DUP6 ADD MSTORE PUSH2 0x1B3B PUSH2 0x140 DUP6 ADD DUP4 PUSH2 0x1872 JUMP JUMPDEST SWAP2 POP PUSH1 0x80 DUP6 ADD MLOAD PUSH1 0xA0 DUP6 ADD MSTORE PUSH1 0xA0 DUP6 ADD MLOAD PUSH1 0xC0 DUP6 ADD MSTORE PUSH1 0xC0 DUP6 ADD MLOAD PUSH2 0x1B63 PUSH1 0xE0 DUP7 ADD DUP3 PUSH2 0x1A65 JUMP JUMPDEST POP PUSH1 0xE0 DUP6 ADD MLOAD PUSH2 0x100 DUP6 DUP2 ADD SWAP2 SWAP1 SWAP2 MSTORE SWAP1 SWAP5 ADD MLOAD SWAP4 SWAP1 SWAP3 ADD SWAP3 SWAP1 SWAP3 MSTORE SWAP2 SWAP1 POP JUMP JUMPDEST PUSH4 0x4E487B71 PUSH1 0xE0 SHL PUSH1 0x0 MSTORE PUSH1 0x11 PUSH1 0x4 MSTORE PUSH1 0x24 PUSH1 0x0 REVERT JUMPDEST DUP2 DUP2 SUB DUP2 DUP2 GT ISZERO PUSH2 0x53E JUMPI PUSH2 0x53E PUSH2 0x1B84 JUMP JUMPDEST PUSH1 0x1 DUP2 DUP2 SHR SWAP1 DUP3 AND DUP1 PUSH2 0x1BC1 JUMPI PUSH1 0x7F DUP3 AND SWAP2 POP JUMPDEST PUSH1 0x20 DUP3 LT DUP2 SUB PUSH2 0x1BE1 JUMPI PUSH4 0x4E487B71 PUSH1 0xE0 SHL PUSH1 0x0 MSTORE PUSH1 0x22 PUSH1 0x4 MSTORE PUSH1 0x24 PUSH1 0x0 REVERT JUMPDEST POP SWAP2 SWAP1 POP JUMP JUMPDEST PUSH1 0x0 PUSH1 0x20 DUP3 DUP5 SUB SLT ISZERO PUSH2 0x1BF9 JUMPI PUSH1 0x0 DUP1 REVERT JUMPDEST DUP2 MLOAD DUP1 ISZERO ISZERO DUP2 EQ PUSH2 0x17CD JUMPI PUSH1 0x0 DUP1 REVERT JUMPDEST PUSH1 0x0 PUSH1 0x1 DUP3 ADD PUSH2 0x1C1B JUMPI PUSH2 0x1C1B PUSH2 0x1B84 JUMP JUMPDEST POP PUSH1 0x1 ADD SWAP1 JUMP JUMPDEST PUSH4 0x4E487B71 PUSH1 0xE0 SHL PUSH1 0x0 MSTORE PUSH1 0x41 PUSH1 0x4 MSTORE PUSH1 0x24 PUSH1 0x0 REVERT JUMPDEST PUSH1 0x1F DUP3 GT ISZERO PUSH2 0x5EF JUMPI PUSH1 0x0 DUP2 PUSH1 0x0 MSTORE PUSH1 0x20 PUSH1 0x0 KECCAK256 PUSH1 0x1F DUP6 ADD PUSH1 0x5 SHR DUP2 ADD PUSH1 0x20 DUP7 LT ISZERO PUSH2 0x1C61 JUMPI POP DUP1 JUMPDEST PUSH1 0x1F DUP6 ADD PUSH1 0x5 SHR DUP3 ADD SWAP2 POP JUMPDEST DUP2 DUP2 LT ISZERO PUSH2 0x1C80 JUMPI DUP3 DUP2 SSTORE PUSH1 0x1 ADD PUSH2 0x1C6D JUMP JUMPDEST POP POP POP POP POP POP JUMP JUMPDEST DUP2 MLOAD PUSH8 0xFFFFFFFFFFFFFFFF DUP2 GT ISZERO PUSH2 0x1CA2 JUMPI PUSH2 0x1CA2 PUSH2 0x1C22 JUMP JUMPDEST PUSH2 0x1CB6 DUP2 PUSH2 0x1CB0 DUP5 SLOAD PUSH2 0x1BAD JUMP JUMPDEST DUP5 PUSH2 0x1C38 JUMP JUMPDEST PUSH1 0x20 DUP1 PUSH1 0x1F DUP4 GT PUSH1 0x1 DUP2 EQ PUSH2 0x1CEB JUMPI PUSH1 0x0 DUP5 ISZERO PUSH2 0x1CD3 JUMPI POP DUP6 DUP4 ADD MLOAD JUMPDEST PUSH1 0x0 NOT PUSH1 0x3 DUP7 SWAP1 SHL SHR NOT AND PUSH1 0x1 DUP6 SWAP1 SHL OR DUP6 SSTORE PUSH2 0x1C80 JUMP JUMPDEST PUSH1 0x0 DUP6 DUP2 MSTORE PUSH1 0x20 DUP2 KECCAK256 PUSH1 0x1F NOT DUP7 AND SWAP2 JUMPDEST DUP3 DUP2 LT ISZERO PUSH2 0x1D1A JUMPI DUP9 DUP7 ADD MLOAD DUP3 SSTORE SWAP5 DUP5 ADD SWAP5 PUSH1 0x1 SWAP1 SWAP2 ADD SWAP1 DUP5 ADD PUSH2 0x1CFB JUMP JUMPDEST POP DUP6 DUP3 LT ISZERO PUSH2 0x1D38 JUMPI DUP8 DUP6 ADD MLOAD PUSH1 0x0 NOT PUSH1 0x3 DUP9 SWAP1 SHL PUSH1 0xF8 AND SHR NOT AND DUP2 SSTORE JUMPDEST POP POP POP POP POP PUSH1 0x1 SWAP1 DUP2 SHL ADD SWAP1 SSTORE POP JUMP JUMPDEST DUP2 DUP4 MSTORE DUP2 DUP2 PUSH1 0x20 DUP6 ADD CALLDATACOPY POP PUSH1 0x0 DUP3 DUP3 ADD PUSH1 0x20 SWAP1 DUP2 ADD SWAP2 SWAP1 SWAP2 MSTORE PUSH1 0x1F SWAP1 SWAP2 ADD PUSH1 0x1F NOT AND SWAP1 SWAP2 ADD ADD SWAP1 JUMP JUMPDEST PUSH1 0x1 PUSH1 0x1 PUSH1 0xA0 SHL SUB DUP6 AND DUP2 MSTORE PUSH1 0x60 PUSH1 0x20 DUP3 ADD DUP2 SWAP1 MSTORE PUSH1 0x0 SWAP1 PUSH2 0x1D96 SWAP1 DUP4 ADD DUP6 DUP8 PUSH2 0x1D48 JUMP JUMPDEST SWAP1 POP DUP3 PUSH1 0x40 DUP4 ADD MSTORE SWAP6 SWAP5 POP POP POP POP POP JUMP JUMPDEST PUSH1 0x80 DUP2 MSTORE PUSH1 0x0 PUSH2 0x1DBB PUSH1 0x80 DUP4 ADD DUP8 DUP10 PUSH2 0x1D48 JUMP JUMPDEST PUSH1 0x20 DUP4 ADD SWAP6 SWAP1 SWAP6 MSTORE POP PUSH1 0x40 DUP2 ADD SWAP3 SWAP1 SWAP3 MSTORE PUSH1 0x60 SWAP1 SWAP2 ADD MSTORE SWAP3 SWAP2 POP POP JUMP INVALID LOG2 PUSH5 0x6970667358 0x22 SLT KECCAK256 PREVRANDAO SLOAD SLT SWAP13 0xA5 0xAD 0xE7 REVERT 0x4D ADDRESS PUSH23 0xF886F571ECAA4904BE0D3432C215CFCF6518EA37B06473 PUSH16 0x6C634300081800330000000000000000 "},"methodIdentifiers":{"ADMIN_ROLE()":"75b238fc","DEFAULT_ADMIN_ROLE()":"a217fddf","MAX_DEADLINE_DURATION()":"7322ae37","MAX_REWARD()":"0e1505e0","MIN_DEADLINE_DURATION()":"c57b9c0c","MIN_REWARD()":"48ea0c03","agentRegistry()":"0d1cfcae","awardSolution(uint256,uint256)":"91f94695","bounties(uint256)":"dc2f8744","bountyExists(uint256)":"3cefb4c0","cancelBounty(uint256)":"e5e5dff1","createBounty(uint256,string,uint256)":"d2c7606d","getBounty(uint256)":"ee8c4bbf","getRoleAdmin(bytes32)":"248a9ca3","getSolution(uint256,uint256)":"9aacb18c","grantRole(bytes32,address)":"2f2ff15d","hasRole(bytes32,address)":"91d14854","renounceRole(bytes32,address)":"36568abe","revokeRole(bytes32,address)":"d547741f","setAgentRegistry(address)":"28342ecf","solutionCounts(uint256)":"e6f82e01","solutions(uint256,uint256)":"bd977a89","submitSolution(uint256,uint256,string)":"a03ee5b1","supportsInterface(bytes4)":"01ffc9a7","totalBounties()":"85feeb23"}}}}}