{"contracts/launchpad/HoneycombRouter.sol":{"HoneycombRouter":{"abi":[{"inputs":[{"internalType":"address","name":"_market","type":"address"},{"internalType":"address","name":"_wbnb","type":"address"}],"stateMutability":"nonpayable","type":"constructor"},{"anonymous":false,"inputs":[{"indexed":true,"internalType":"address","name":"sender","type":"address"},{"indexed":true,"internalType":"address","name":"tokenIn","type":"address"},{"indexed":true,"internalType":"address","name":"tokenOut","type":"address"},{"indexed":false,"internalType":"uint256","name":"amountIn","type":"uint256"},{"indexed":false,"internalType":"uint256","name":"amountOut","type":"uint256"},{"indexed":false,"internalType":"address","name":"to","type":"address"}],"name":"Swap","type":"event"},{"inputs":[],"name":"WBNB","outputs":[{"internalType":"address","name":"","type":"address"}],"stateMutability":"view","type":"function"},{"inputs":[{"internalType":"uint256","name":"amountIn","type":"uint256"},{"internalType":"address[]","name":"path","type":"address[]"}],"name":"getAmountsOut","outputs":[{"internalType":"uint256[]","name":"amounts","type":"uint256[]"}],"stateMutability":"view","type":"function"},{"inputs":[{"internalType":"address","name":"token","type":"address"}],"name":"getTokenPrice","outputs":[{"internalType":"uint256","name":"","type":"uint256"}],"stateMutability":"view","type":"function"},{"inputs":[{"internalType":"address","name":"token","type":"address"}],"name":"isTokenActive","outputs":[{"internalType":"bool","name":"","type":"bool"}],"stateMutability":"view","type":"function"},{"inputs":[],"name":"market","outputs":[{"internalType":"contract HoneycombBondingCurveMarket","name":"","type":"address"}],"stateMutability":"view","type":"function"},{"inputs":[{"internalType":"uint256","name":"amountOutMin","type":"uint256"},{"internalType":"address[]","name":"path","type":"address[]"},{"internalType":"address","name":"to","type":"address"},{"internalType":"uint256","name":"deadline","type":"uint256"}],"name":"swapExactETHForTokens","outputs":[{"internalType":"uint256[]","name":"amounts","type":"uint256[]"}],"stateMutability":"payable","type":"function"},{"inputs":[{"internalType":"uint256","name":"amountIn","type":"uint256"},{"internalType":"uint256","name":"amountOutMin","type":"uint256"},{"internalType":"address[]","name":"path","type":"address[]"},{"internalType":"address","name":"to","type":"address"},{"internalType":"uint256","name":"deadline","type":"uint256"}],"name":"swapExactTokensForETH","outputs":[{"internalType":"uint256[]","name":"amounts","type":"uint256[]"}],"stateMutability":"nonpayable","type":"function"},{"stateMutability":"payable","type":"receive"}],"evm":{"bytecode":{"linkReferences":{},"object":"60c060405234801561001057600080fd5b5060405161119a38038061119a83398101604081905261002f91610062565b6001600160a01b039182166080521660a052610095565b80516001600160a01b038116811461005d57600080fd5b919050565b6000806040838503121561007557600080fd5b61007e83610046565b915061008c60208401610046565b90509250929050565b60805160a05161108d61010d6000396000818161015701528181610232015281816105870152818161068b015281816108b90152610aef01526000818160db0152818161036401528181610411015281816107570152818161096f01528181610a1801528181610b510152610c41015261108d6000f3fe6080604052600436106100745760003560e01c8063895b327e1161004e578063895b327e146101155780638dd9500214610145578063d02641a014610179578063d06ca61f146101a757600080fd5b806318cbafe5146100805780637ff36ab5146100b657806380f55605146100c957600080fd5b3661007b57005b600080fd5b34801561008c57600080fd5b506100a061009b366004610d97565b6101c7565b6040516100ad9190610e07565b60405180910390f35b6100a06100c4366004610e4b565b610625565b3480156100d557600080fd5b506100fd7f000000000000000000000000000000000000000000000000000000000000000081565b6040516001600160a01b0390911681526020016100ad565b34801561012157600080fd5b50610135610130366004610eb1565b61094b565b60405190151581526020016100ad565b34801561015157600080fd5b506100fd7f000000000000000000000000000000000000000000000000000000000000000081565b34801561018557600080fd5b50610199610194366004610eb1565b6109f6565b6040519081526020016100ad565b3480156101b357600080fd5b506100a06101c2366004610ecc565b610a8b565b6060428210156102105760405162461bcd60e51b815260206004820152600f60248201526e149bdd5d195c8e8811561412549151608a1b60448201526064015b60405180910390fd5b600284146102305760405162461bcd60e51b815260040161020790610f18565b7f00000000000000000000000000000000000000000000000000000000000000006001600160a01b03168585600181811061026d5761026d610f46565b90506020020160208101906102829190610eb1565b6001600160a01b0316146102a85760405162461bcd60e51b815260040161020790610f18565b6000858560008181106102bd576102bd610f46565b90506020020160208101906102d29190610eb1565b6040516323b872dd60e01b8152336004820152306024820152604481018a90529091506001600160a01b038216906323b872dd906064016020604051808303816000875af1158015610328573d6000803e3d6000fd5b505050506040513d601f19601f8201168201806040525081019061034c9190610f6c565b5060405163095ea7b360e01b81526001600160a01b037f000000000000000000000000000000000000000000000000000000000000000081166004830152602482018a905282169063095ea7b3906044016020604051808303816000875af11580156103bc573d6000803e3d6000fd5b505050506040513d601f19601f820116820180604052508101906103e09190610f6c565b50604051633513923160e11b81526001600160a01b038281166004830152602482018a9052604482018990526000917f000000000000000000000000000000000000000000000000000000000000000090911690636a272462906064016020604051808303816000875af115801561045c573d6000803e3d6000fd5b505050506040513d601f19601f820116820180604052508101906104809190610f87565b90506000856001600160a01b03168260405160006040518083038185875af1925050503d80600081146104cf576040519150601f19603f3d011682016040523d82523d6000602084013e6104d4565b606091505b50509050806105255760405162461bcd60e51b815260206004820152601b60248201527f526f757465723a204554485f5452414e534645525f4641494c454400000000006044820152606401610207565b6040805160028082526060820183529091602083019080368337019050509350898460008151811061055957610559610f46565b602002602001018181525050818460018151811061057957610579610f46565b6020026020010181815250507f00000000000000000000000000000000000000000000000000000000000000006001600160a01b0316836001600160a01b0316336001600160a01b03167f54787c404bb33c88e86f4baf88183a3b0141d0a848e6a9f7a13b66ae3a9b73d18d868b6040516106109392919092835260208301919091526001600160a01b0316604082015260600190565b60405180910390a45050509695505050505050565b6060428210156106695760405162461bcd60e51b815260206004820152600f60248201526e149bdd5d195c8e8811561412549151608a1b6044820152606401610207565b600284146106895760405162461bcd60e51b815260040161020790610f18565b7f00000000000000000000000000000000000000000000000000000000000000006001600160a01b0316858560008181106106c6576106c6610f46565b90506020020160208101906106db9190610eb1565b6001600160a01b0316146107015760405162461bcd60e51b815260040161020790610f18565b60008585600181811061071657610716610f46565b905060200201602081019061072b9190610eb1565b60405163cce7ec1360e01b81526001600160a01b038083166004830152602482018a90529192506000917f0000000000000000000000000000000000000000000000000000000000000000169063cce7ec1390349060440160206040518083038185885af11580156107a1573d6000803e3d6000fd5b50505050506040513d601f19601f820116820180604052508101906107c69190610f87565b90506001600160a01b038516301461084d5760405163a9059cbb60e01b81526001600160a01b0386811660048301526024820183905283169063a9059cbb906044016020604051808303816000875af1158015610827573d6000803e3d6000fd5b505050506040513d601f19601f8201168201806040525081019061084b9190610f6c565b505b6040805160028082526060820183529091602083019080368337019050509250348360008151811061088157610881610f46565b60200260200101818152505080836001815181106108a1576108a1610f46565b602002602001018181525050816001600160a01b03167f00000000000000000000000000000000000000000000000000000000000000006001600160a01b0316336001600160a01b03167f54787c404bb33c88e86f4baf88183a3b0141d0a848e6a9f7a13b66ae3a9b73d134858a6040516109389392919092835260208301919091526001600160a01b0316604082015260600190565b60405180910390a4505095945050505050565b6040516374544e3b60e11b81526001600160a01b03828116600483015260009182917f0000000000000000000000000000000000000000000000000000000000000000169063e8a89c769060240160c060405180830381865afa1580156109b6573d6000803e3d6000fd5b505050506040513d601f19601f820116820180604052508101906109da9190610fa0565b90508060a0015180156109ef57508060800151155b9392505050565b6040516341976e0960e01b81526001600160a01b0382811660048301526000917f0000000000000000000000000000000000000000000000000000000000000000909116906341976e0990602401602060405180830381865afa158015610a61573d6000803e3d6000fd5b505050506040513d601f19601f82011682018060405250810190610a859190610f87565b92915050565b606060028214610aad5760405162461bcd60e51b815260040161020790610f18565b60408051600280825260608201835290916020830190803683370190505090508381600081518110610ae157610ae1610f46565b6020026020010181815250507f00000000000000000000000000000000000000000000000000000000000000006001600160a01b031683836000818110610b2a57610b2a610f46565b9050602002016020810190610b3f9190610eb1565b6001600160a01b031603610c3d5760007f00000000000000000000000000000000000000000000000000000000000000006001600160a01b0316638aaae30585856001818110610b9157610b91610f46565b9050602002016020810190610ba69190610eb1565b6040516001600160e01b031960e084901b1681526001600160a01b039091166004820152602481018890526044016040805180830381865afa158015610bf0573d6000803e3d6000fd5b505050506040513d601f19601f82011682018060405250810190610c149190611033565b5090508082600181518110610c2b57610c2b610f46565b602002602001018181525050506109ef565b60007f00000000000000000000000000000000000000000000000000000000000000006001600160a01b0316631bf6e95885856000818110610c8157610c81610f46565b9050602002016020810190610c969190610eb1565b6040516001600160e01b031960e084901b1681526001600160a01b039091166004820152602481018890526044016040805180830381865afa158015610ce0573d6000803e3d6000fd5b505050506040513d601f19601f82011682018060405250810190610d049190611033565b5090508082600181518110610d1b57610d1b610f46565b602002602001018181525050509392505050565b60008083601f840112610d4157600080fd5b50813567ffffffffffffffff811115610d5957600080fd5b6020830191508360208260051b8501011115610d7457600080fd5b9250929050565b80356001600160a01b0381168114610d9257600080fd5b919050565b60008060008060008060a08789031215610db057600080fd5b8635955060208701359450604087013567ffffffffffffffff811115610dd557600080fd5b610de189828a01610d2f565b9095509350610df4905060608801610d7b565b9150608087013590509295509295509295565b6020808252825182820181905260009190848201906040850190845b81811015610e3f57835183529284019291840191600101610e23565b50909695505050505050565b600080600080600060808688031215610e6357600080fd5b85359450602086013567ffffffffffffffff811115610e8157600080fd5b610e8d88828901610d2f565b9095509350610ea0905060408701610d7b565b949793965091946060013592915050565b600060208284031215610ec357600080fd5b6109ef82610d7b565b600080600060408486031215610ee157600080fd5b83359250602084013567ffffffffffffffff811115610eff57600080fd5b610f0b86828701610d2f565b9497909650939450505050565b6020808252601490820152730a4deeae8cae47440929cac82989288bea082a8960631b604082015260600190565b634e487b7160e01b600052603260045260246000fd5b80518015158114610d9257600080fd5b600060208284031215610f7e57600080fd5b6109ef82610f5c565b600060208284031215610f9957600080fd5b5051919050565b600060c08284031215610fb257600080fd5b60405160c0810181811067ffffffffffffffff82111715610fe357634e487b7160e01b600052604160045260246000fd5b80604052508251815260208301516020820152604083015160408201526060830151606082015261101660808401610f5c565b608082015261102760a08401610f5c565b60a08201529392505050565b6000806040838503121561104657600080fd5b50508051602090910151909290915056fea26469706673582212205d04c3e910f7ca09b2e1fe051b375a789e55bbc3e6a3d226fd607fabe662da1f64736f6c63430008180033","opcodes":"PUSH1 0xC0 PUSH1 0x40 MSTORE CALLVALUE DUP1 ISZERO PUSH2 0x10 JUMPI PUSH1 0x0 DUP1 REVERT JUMPDEST POP PUSH1 0x40 MLOAD PUSH2 0x119A CODESIZE SUB DUP1 PUSH2 0x119A DUP4 CODECOPY DUP2 ADD PUSH1 0x40 DUP2 SWAP1 MSTORE PUSH2 0x2F SWAP2 PUSH2 0x62 JUMP JUMPDEST PUSH1 0x1 PUSH1 0x1 PUSH1 0xA0 SHL SUB SWAP2 DUP3 AND PUSH1 0x80 MSTORE AND PUSH1 0xA0 MSTORE PUSH2 0x95 JUMP JUMPDEST DUP1 MLOAD PUSH1 0x1 PUSH1 0x1 PUSH1 0xA0 SHL SUB DUP2 AND DUP2 EQ PUSH2 0x5D JUMPI PUSH1 0x0 DUP1 REVERT JUMPDEST SWAP2 SWAP1 POP JUMP JUMPDEST PUSH1 0x0 DUP1 PUSH1 0x40 DUP4 DUP6 SUB SLT ISZERO PUSH2 0x75 JUMPI PUSH1 0x0 DUP1 REVERT JUMPDEST PUSH2 0x7E DUP4 PUSH2 0x46 JUMP JUMPDEST SWAP2 POP PUSH2 0x8C PUSH1 0x20 DUP5 ADD PUSH2 0x46 JUMP JUMPDEST SWAP1 POP SWAP3 POP SWAP3 SWAP1 POP JUMP JUMPDEST PUSH1 0x80 MLOAD PUSH1 0xA0 MLOAD PUSH2 0x108D PUSH2 0x10D PUSH1 0x0 CODECOPY PUSH1 0x0 DUP2 DUP2 PUSH2 0x157 ADD MSTORE DUP2 DUP2 PUSH2 0x232 ADD MSTORE DUP2 DUP2 PUSH2 0x587 ADD MSTORE DUP2 DUP2 PUSH2 0x68B ADD MSTORE DUP2 DUP2 PUSH2 0x8B9 ADD MSTORE PUSH2 0xAEF ADD MSTORE PUSH1 0x0 DUP2 DUP2 PUSH1 0xDB ADD MSTORE DUP2 DUP2 PUSH2 0x364 ADD MSTORE DUP2 DUP2 PUSH2 0x411 ADD MSTORE DUP2 DUP2 PUSH2 0x757 ADD MSTORE DUP2 DUP2 PUSH2 0x96F ADD MSTORE DUP2 DUP2 PUSH2 0xA18 ADD MSTORE DUP2 DUP2 PUSH2 0xB51 ADD MSTORE PUSH2 0xC41 ADD MSTORE PUSH2 0x108D PUSH1 0x0 RETURN INVALID PUSH1 0x80 PUSH1 0x40 MSTORE PUSH1 0x4 CALLDATASIZE LT PUSH2 0x74 JUMPI PUSH1 0x0 CALLDATALOAD PUSH1 0xE0 SHR DUP1 PUSH4 0x895B327E GT PUSH2 0x4E JUMPI DUP1 PUSH4 0x895B327E EQ PUSH2 0x115 JUMPI DUP1 PUSH4 0x8DD95002 EQ PUSH2 0x145 JUMPI DUP1 PUSH4 0xD02641A0 EQ PUSH2 0x179 JUMPI DUP1 PUSH4 0xD06CA61F EQ PUSH2 0x1A7 JUMPI PUSH1 0x0 DUP1 REVERT JUMPDEST DUP1 PUSH4 0x18CBAFE5 EQ PUSH2 0x80 JUMPI DUP1 PUSH4 0x7FF36AB5 EQ PUSH2 0xB6 JUMPI DUP1 PUSH4 0x80F55605 EQ PUSH2 0xC9 JUMPI PUSH1 0x0 DUP1 REVERT JUMPDEST CALLDATASIZE PUSH2 0x7B JUMPI STOP JUMPDEST PUSH1 0x0 DUP1 REVERT JUMPDEST CALLVALUE DUP1 ISZERO PUSH2 0x8C JUMPI PUSH1 0x0 DUP1 REVERT JUMPDEST POP PUSH2 0xA0 PUSH2 0x9B CALLDATASIZE PUSH1 0x4 PUSH2 0xD97 JUMP JUMPDEST PUSH2 0x1C7 JUMP JUMPDEST PUSH1 0x40 MLOAD PUSH2 0xAD SWAP2 SWAP1 PUSH2 0xE07 JUMP JUMPDEST PUSH1 0x40 MLOAD DUP1 SWAP2 SUB SWAP1 RETURN JUMPDEST PUSH2 0xA0 PUSH2 0xC4 CALLDATASIZE PUSH1 0x4 PUSH2 0xE4B JUMP JUMPDEST PUSH2 0x625 JUMP JUMPDEST CALLVALUE DUP1 ISZERO PUSH2 0xD5 JUMPI PUSH1 0x0 DUP1 REVERT JUMPDEST POP PUSH2 0xFD PUSH32 0x0 DUP2 JUMP JUMPDEST PUSH1 0x40 MLOAD PUSH1 0x1 PUSH1 0x1 PUSH1 0xA0 SHL SUB SWAP1 SWAP2 AND DUP2 MSTORE PUSH1 0x20 ADD PUSH2 0xAD JUMP JUMPDEST CALLVALUE DUP1 ISZERO PUSH2 0x121 JUMPI PUSH1 0x0 DUP1 REVERT JUMPDEST POP PUSH2 0x135 PUSH2 0x130 CALLDATASIZE PUSH1 0x4 PUSH2 0xEB1 JUMP JUMPDEST PUSH2 0x94B JUMP JUMPDEST PUSH1 0x40 MLOAD SWAP1 ISZERO ISZERO DUP2 MSTORE PUSH1 0x20 ADD PUSH2 0xAD JUMP JUMPDEST CALLVALUE DUP1 ISZERO PUSH2 0x151 JUMPI PUSH1 0x0 DUP1 REVERT JUMPDEST POP PUSH2 0xFD PUSH32 0x0 DUP2 JUMP JUMPDEST CALLVALUE DUP1 ISZERO PUSH2 0x185 JUMPI PUSH1 0x0 DUP1 REVERT JUMPDEST POP PUSH2 0x199 PUSH2 0x194 CALLDATASIZE PUSH1 0x4 PUSH2 0xEB1 JUMP JUMPDEST PUSH2 0x9F6 JUMP JUMPDEST PUSH1 0x40 MLOAD SWAP1 DUP2 MSTORE PUSH1 0x20 ADD PUSH2 0xAD JUMP JUMPDEST CALLVALUE DUP1 ISZERO PUSH2 0x1B3 JUMPI PUSH1 0x0 DUP1 REVERT JUMPDEST POP PUSH2 0xA0 PUSH2 0x1C2 CALLDATASIZE PUSH1 0x4 PUSH2 0xECC JUMP JUMPDEST PUSH2 0xA8B JUMP JUMPDEST PUSH1 0x60 TIMESTAMP DUP3 LT ISZERO PUSH2 0x210 JUMPI PUSH1 0x40 MLOAD PUSH3 0x461BCD PUSH1 0xE5 SHL DUP2 MSTORE PUSH1 0x20 PUSH1 0x4 DUP3 ADD MSTORE PUSH1 0xF PUSH1 0x24 DUP3 ADD MSTORE PUSH15 0x149BDD5D195C8E8811561412549151 PUSH1 0x8A SHL PUSH1 0x44 DUP3 ADD MSTORE PUSH1 0x64 ADD JUMPDEST PUSH1 0x40 MLOAD DUP1 SWAP2 SUB SWAP1 REVERT JUMPDEST PUSH1 0x2 DUP5 EQ PUSH2 0x230 JUMPI PUSH1 0x40 MLOAD PUSH3 0x461BCD PUSH1 0xE5 SHL DUP2 MSTORE PUSH1 0x4 ADD PUSH2 0x207 SWAP1 PUSH2 0xF18 JUMP JUMPDEST PUSH32 0x0 PUSH1 0x1 PUSH1 0x1 PUSH1 0xA0 SHL SUB AND DUP6 DUP6 PUSH1 0x1 DUP2 DUP2 LT PUSH2 0x26D JUMPI PUSH2 0x26D PUSH2 0xF46 JUMP JUMPDEST SWAP1 POP PUSH1 0x20 MUL ADD PUSH1 0x20 DUP2 ADD SWAP1 PUSH2 0x282 SWAP2 SWAP1 PUSH2 0xEB1 JUMP JUMPDEST PUSH1 0x1 PUSH1 0x1 PUSH1 0xA0 SHL SUB AND EQ PUSH2 0x2A8 JUMPI PUSH1 0x40 MLOAD PUSH3 0x461BCD PUSH1 0xE5 SHL DUP2 MSTORE PUSH1 0x4 ADD PUSH2 0x207 SWAP1 PUSH2 0xF18 JUMP JUMPDEST PUSH1 0x0 DUP6 DUP6 PUSH1 0x0 DUP2 DUP2 LT PUSH2 0x2BD JUMPI PUSH2 0x2BD PUSH2 0xF46 JUMP JUMPDEST SWAP1 POP PUSH1 0x20 MUL ADD PUSH1 0x20 DUP2 ADD SWAP1 PUSH2 0x2D2 SWAP2 SWAP1 PUSH2 0xEB1 JUMP JUMPDEST PUSH1 0x40 MLOAD PUSH4 0x23B872DD PUSH1 0xE0 SHL DUP2 MSTORE CALLER PUSH1 0x4 DUP3 ADD MSTORE ADDRESS PUSH1 0x24 DUP3 ADD MSTORE PUSH1 0x44 DUP2 ADD DUP11 SWAP1 MSTORE SWAP1 SWAP2 POP PUSH1 0x1 PUSH1 0x1 PUSH1 0xA0 SHL SUB DUP3 AND SWAP1 PUSH4 0x23B872DD SWAP1 PUSH1 0x64 ADD PUSH1 0x20 PUSH1 0x40 MLOAD DUP1 DUP4 SUB DUP2 PUSH1 0x0 DUP8 GAS CALL ISZERO DUP1 ISZERO PUSH2 0x328 JUMPI RETURNDATASIZE PUSH1 0x0 DUP1 RETURNDATACOPY RETURNDATASIZE PUSH1 0x0 REVERT JUMPDEST POP POP POP POP PUSH1 0x40 MLOAD RETURNDATASIZE PUSH1 0x1F NOT PUSH1 0x1F DUP3 ADD AND DUP3 ADD DUP1 PUSH1 0x40 MSTORE POP DUP2 ADD SWAP1 PUSH2 0x34C SWAP2 SWAP1 PUSH2 0xF6C JUMP JUMPDEST POP PUSH1 0x40 MLOAD PUSH4 0x95EA7B3 PUSH1 0xE0 SHL DUP2 MSTORE PUSH1 0x1 PUSH1 0x1 PUSH1 0xA0 SHL SUB PUSH32 0x0 DUP2 AND PUSH1 0x4 DUP4 ADD MSTORE PUSH1 0x24 DUP3 ADD DUP11 SWAP1 MSTORE DUP3 AND SWAP1 PUSH4 0x95EA7B3 SWAP1 PUSH1 0x44 ADD PUSH1 0x20 PUSH1 0x40 MLOAD DUP1 DUP4 SUB DUP2 PUSH1 0x0 DUP8 GAS CALL ISZERO DUP1 ISZERO PUSH2 0x3BC JUMPI RETURNDATASIZE PUSH1 0x0 DUP1 RETURNDATACOPY RETURNDATASIZE PUSH1 0x0 REVERT JUMPDEST POP POP POP POP PUSH1 0x40 MLOAD RETURNDATASIZE PUSH1 0x1F NOT PUSH1 0x1F DUP3 ADD AND DUP3 ADD DUP1 PUSH1 0x40 MSTORE POP DUP2 ADD SWAP1 PUSH2 0x3E0 SWAP2 SWAP1 PUSH2 0xF6C JUMP JUMPDEST POP PUSH1 0x40 MLOAD PUSH4 0x35139231 PUSH1 0xE1 SHL DUP2 MSTORE PUSH1 0x1 PUSH1 0x1 PUSH1 0xA0 SHL SUB DUP3 DUP2 AND PUSH1 0x4 DUP4 ADD MSTORE PUSH1 0x24 DUP3 ADD DUP11 SWAP1 MSTORE PUSH1 0x44 DUP3 ADD DUP10 SWAP1 MSTORE PUSH1 0x0 SWAP2 PUSH32 0x0 SWAP1 SWAP2 AND SWAP1 PUSH4 0x6A272462 SWAP1 PUSH1 0x64 ADD PUSH1 0x20 PUSH1 0x40 MLOAD DUP1 DUP4 SUB DUP2 PUSH1 0x0 DUP8 GAS CALL ISZERO DUP1 ISZERO PUSH2 0x45C JUMPI RETURNDATASIZE PUSH1 0x0 DUP1 RETURNDATACOPY RETURNDATASIZE PUSH1 0x0 REVERT JUMPDEST POP POP POP POP PUSH1 0x40 MLOAD RETURNDATASIZE PUSH1 0x1F NOT PUSH1 0x1F DUP3 ADD AND DUP3 ADD DUP1 PUSH1 0x40 MSTORE POP DUP2 ADD SWAP1 PUSH2 0x480 SWAP2 SWAP1 PUSH2 0xF87 JUMP JUMPDEST SWAP1 POP PUSH1 0x0 DUP6 PUSH1 0x1 PUSH1 0x1 PUSH1 0xA0 SHL SUB AND DUP3 PUSH1 0x40 MLOAD PUSH1 0x0 PUSH1 0x40 MLOAD DUP1 DUP4 SUB DUP2 DUP6 DUP8 GAS CALL SWAP3 POP POP POP RETURNDATASIZE DUP1 PUSH1 0x0 DUP2 EQ PUSH2 0x4CF JUMPI PUSH1 0x40 MLOAD SWAP2 POP PUSH1 0x1F NOT PUSH1 0x3F RETURNDATASIZE ADD AND DUP3 ADD PUSH1 0x40 MSTORE RETURNDATASIZE DUP3 MSTORE RETURNDATASIZE PUSH1 0x0 PUSH1 0x20 DUP5 ADD RETURNDATACOPY PUSH2 0x4D4 JUMP JUMPDEST PUSH1 0x60 SWAP2 POP JUMPDEST POP POP SWAP1 POP DUP1 PUSH2 0x525 JUMPI PUSH1 0x40 MLOAD PUSH3 0x461BCD PUSH1 0xE5 SHL DUP2 MSTORE PUSH1 0x20 PUSH1 0x4 DUP3 ADD MSTORE PUSH1 0x1B PUSH1 0x24 DUP3 ADD MSTORE PUSH32 0x526F757465723A204554485F5452414E534645525F4641494C45440000000000 PUSH1 0x44 DUP3 ADD MSTORE PUSH1 0x64 ADD PUSH2 0x207 JUMP JUMPDEST PUSH1 0x40 DUP1 MLOAD PUSH1 0x2 DUP1 DUP3 MSTORE PUSH1 0x60 DUP3 ADD DUP4 MSTORE SWAP1 SWAP2 PUSH1 0x20 DUP4 ADD SWAP1 DUP1 CALLDATASIZE DUP4 CALLDATACOPY ADD SWAP1 POP POP SWAP4 POP DUP10 DUP5 PUSH1 0x0 DUP2 MLOAD DUP2 LT PUSH2 0x559 JUMPI PUSH2 0x559 PUSH2 0xF46 JUMP JUMPDEST PUSH1 0x20 MUL PUSH1 0x20 ADD ADD DUP2 DUP2 MSTORE POP POP DUP2 DUP5 PUSH1 0x1 DUP2 MLOAD DUP2 LT PUSH2 0x579 JUMPI PUSH2 0x579 PUSH2 0xF46 JUMP JUMPDEST PUSH1 0x20 MUL PUSH1 0x20 ADD ADD DUP2 DUP2 MSTORE POP POP PUSH32 0x0 PUSH1 0x1 PUSH1 0x1 PUSH1 0xA0 SHL SUB AND DUP4 PUSH1 0x1 PUSH1 0x1 PUSH1 0xA0 SHL SUB AND CALLER PUSH1 0x1 PUSH1 0x1 PUSH1 0xA0 SHL SUB AND PUSH32 0x54787C404BB33C88E86F4BAF88183A3B0141D0A848E6A9F7A13B66AE3A9B73D1 DUP14 DUP7 DUP12 PUSH1 0x40 MLOAD PUSH2 0x610 SWAP4 SWAP3 SWAP2 SWAP1 SWAP3 DUP4 MSTORE PUSH1 0x20 DUP4 ADD SWAP2 SWAP1 SWAP2 MSTORE PUSH1 0x1 PUSH1 0x1 PUSH1 0xA0 SHL SUB AND PUSH1 0x40 DUP3 ADD MSTORE PUSH1 0x60 ADD SWAP1 JUMP JUMPDEST PUSH1 0x40 MLOAD DUP1 SWAP2 SUB SWAP1 LOG4 POP POP POP SWAP7 SWAP6 POP POP POP POP POP POP JUMP JUMPDEST PUSH1 0x60 TIMESTAMP DUP3 LT ISZERO PUSH2 0x669 JUMPI PUSH1 0x40 MLOAD PUSH3 0x461BCD PUSH1 0xE5 SHL DUP2 MSTORE PUSH1 0x20 PUSH1 0x4 DUP3 ADD MSTORE PUSH1 0xF PUSH1 0x24 DUP3 ADD MSTORE PUSH15 0x149BDD5D195C8E8811561412549151 PUSH1 0x8A SHL PUSH1 0x44 DUP3 ADD MSTORE PUSH1 0x64 ADD PUSH2 0x207 JUMP JUMPDEST PUSH1 0x2 DUP5 EQ PUSH2 0x689 JUMPI PUSH1 0x40 MLOAD PUSH3 0x461BCD PUSH1 0xE5 SHL DUP2 MSTORE PUSH1 0x4 ADD PUSH2 0x207 SWAP1 PUSH2 0xF18 JUMP JUMPDEST PUSH32 0x0 PUSH1 0x1 PUSH1 0x1 PUSH1 0xA0 SHL SUB AND DUP6 DUP6 PUSH1 0x0 DUP2 DUP2 LT PUSH2 0x6C6 JUMPI PUSH2 0x6C6 PUSH2 0xF46 JUMP JUMPDEST SWAP1 POP PUSH1 0x20 MUL ADD PUSH1 0x20 DUP2 ADD SWAP1 PUSH2 0x6DB SWAP2 SWAP1 PUSH2 0xEB1 JUMP JUMPDEST PUSH1 0x1 PUSH1 0x1 PUSH1 0xA0 SHL SUB AND EQ PUSH2 0x701 JUMPI PUSH1 0x40 MLOAD PUSH3 0x461BCD PUSH1 0xE5 SHL DUP2 MSTORE PUSH1 0x4 ADD PUSH2 0x207 SWAP1 PUSH2 0xF18 JUMP JUMPDEST PUSH1 0x0 DUP6 DUP6 PUSH1 0x1 DUP2 DUP2 LT PUSH2 0x716 JUMPI PUSH2 0x716 PUSH2 0xF46 JUMP JUMPDEST SWAP1 POP PUSH1 0x20 MUL ADD PUSH1 0x20 DUP2 ADD SWAP1 PUSH2 0x72B SWAP2 SWAP1 PUSH2 0xEB1 JUMP JUMPDEST PUSH1 0x40 MLOAD PUSH4 0xCCE7EC13 PUSH1 0xE0 SHL DUP2 MSTORE PUSH1 0x1 PUSH1 0x1 PUSH1 0xA0 SHL SUB DUP1 DUP4 AND PUSH1 0x4 DUP4 ADD MSTORE PUSH1 0x24 DUP3 ADD DUP11 SWAP1 MSTORE SWAP2 SWAP3 POP PUSH1 0x0 SWAP2 PUSH32 0x0 AND SWAP1 PUSH4 0xCCE7EC13 SWAP1 CALLVALUE SWAP1 PUSH1 0x44 ADD PUSH1 0x20 PUSH1 0x40 MLOAD DUP1 DUP4 SUB DUP2 DUP6 DUP9 GAS CALL ISZERO DUP1 ISZERO PUSH2 0x7A1 JUMPI RETURNDATASIZE PUSH1 0x0 DUP1 RETURNDATACOPY RETURNDATASIZE PUSH1 0x0 REVERT JUMPDEST POP POP POP POP POP PUSH1 0x40 MLOAD RETURNDATASIZE PUSH1 0x1F NOT PUSH1 0x1F DUP3 ADD AND DUP3 ADD DUP1 PUSH1 0x40 MSTORE POP DUP2 ADD SWAP1 PUSH2 0x7C6 SWAP2 SWAP1 PUSH2 0xF87 JUMP JUMPDEST SWAP1 POP PUSH1 0x1 PUSH1 0x1 PUSH1 0xA0 SHL SUB DUP6 AND ADDRESS EQ PUSH2 0x84D JUMPI PUSH1 0x40 MLOAD PUSH4 0xA9059CBB PUSH1 0xE0 SHL DUP2 MSTORE PUSH1 0x1 PUSH1 0x1 PUSH1 0xA0 SHL SUB DUP7 DUP2 AND PUSH1 0x4 DUP4 ADD MSTORE PUSH1 0x24 DUP3 ADD DUP4 SWAP1 MSTORE DUP4 AND SWAP1 PUSH4 0xA9059CBB SWAP1 PUSH1 0x44 ADD PUSH1 0x20 PUSH1 0x40 MLOAD DUP1 DUP4 SUB DUP2 PUSH1 0x0 DUP8 GAS CALL ISZERO DUP1 ISZERO PUSH2 0x827 JUMPI RETURNDATASIZE PUSH1 0x0 DUP1 RETURNDATACOPY RETURNDATASIZE PUSH1 0x0 REVERT JUMPDEST POP POP POP POP PUSH1 0x40 MLOAD RETURNDATASIZE PUSH1 0x1F NOT PUSH1 0x1F DUP3 ADD AND DUP3 ADD DUP1 PUSH1 0x40 MSTORE POP DUP2 ADD SWAP1 PUSH2 0x84B SWAP2 SWAP1 PUSH2 0xF6C JUMP JUMPDEST POP JUMPDEST PUSH1 0x40 DUP1 MLOAD PUSH1 0x2 DUP1 DUP3 MSTORE PUSH1 0x60 DUP3 ADD DUP4 MSTORE SWAP1 SWAP2 PUSH1 0x20 DUP4 ADD SWAP1 DUP1 CALLDATASIZE DUP4 CALLDATACOPY ADD SWAP1 POP POP SWAP3 POP CALLVALUE DUP4 PUSH1 0x0 DUP2 MLOAD DUP2 LT PUSH2 0x881 JUMPI PUSH2 0x881 PUSH2 0xF46 JUMP JUMPDEST PUSH1 0x20 MUL PUSH1 0x20 ADD ADD DUP2 DUP2 MSTORE POP POP DUP1 DUP4 PUSH1 0x1 DUP2 MLOAD DUP2 LT PUSH2 0x8A1 JUMPI PUSH2 0x8A1 PUSH2 0xF46 JUMP JUMPDEST PUSH1 0x20 MUL PUSH1 0x20 ADD ADD DUP2 DUP2 MSTORE POP POP DUP2 PUSH1 0x1 PUSH1 0x1 PUSH1 0xA0 SHL SUB AND PUSH32 0x0 PUSH1 0x1 PUSH1 0x1 PUSH1 0xA0 SHL SUB AND CALLER PUSH1 0x1 PUSH1 0x1 PUSH1 0xA0 SHL SUB AND PUSH32 0x54787C404BB33C88E86F4BAF88183A3B0141D0A848E6A9F7A13B66AE3A9B73D1 CALLVALUE DUP6 DUP11 PUSH1 0x40 MLOAD PUSH2 0x938 SWAP4 SWAP3 SWAP2 SWAP1 SWAP3 DUP4 MSTORE PUSH1 0x20 DUP4 ADD SWAP2 SWAP1 SWAP2 MSTORE PUSH1 0x1 PUSH1 0x1 PUSH1 0xA0 SHL SUB AND PUSH1 0x40 DUP3 ADD MSTORE PUSH1 0x60 ADD SWAP1 JUMP JUMPDEST PUSH1 0x40 MLOAD DUP1 SWAP2 SUB SWAP1 LOG4 POP POP SWAP6 SWAP5 POP POP POP POP POP JUMP JUMPDEST PUSH1 0x40 MLOAD PUSH4 0x74544E3B PUSH1 0xE1 SHL DUP2 MSTORE PUSH1 0x1 PUSH1 0x1 PUSH1 0xA0 SHL SUB DUP3 DUP2 AND PUSH1 0x4 DUP4 ADD MSTORE PUSH1 0x0 SWAP2 DUP3 SWAP2 PUSH32 0x0 AND SWAP1 PUSH4 0xE8A89C76 SWAP1 PUSH1 0x24 ADD PUSH1 0xC0 PUSH1 0x40 MLOAD DUP1 DUP4 SUB DUP2 DUP7 GAS STATICCALL ISZERO DUP1 ISZERO PUSH2 0x9B6 JUMPI RETURNDATASIZE PUSH1 0x0 DUP1 RETURNDATACOPY RETURNDATASIZE PUSH1 0x0 REVERT JUMPDEST POP POP POP POP PUSH1 0x40 MLOAD RETURNDATASIZE PUSH1 0x1F NOT PUSH1 0x1F DUP3 ADD AND DUP3 ADD DUP1 PUSH1 0x40 MSTORE POP DUP2 ADD SWAP1 PUSH2 0x9DA SWAP2 SWAP1 PUSH2 0xFA0 JUMP JUMPDEST SWAP1 POP DUP1 PUSH1 0xA0 ADD MLOAD DUP1 ISZERO PUSH2 0x9EF JUMPI POP DUP1 PUSH1 0x80 ADD MLOAD ISZERO JUMPDEST SWAP4 SWAP3 POP POP POP JUMP JUMPDEST PUSH1 0x40 MLOAD PUSH4 0x41976E09 PUSH1 0xE0 SHL DUP2 MSTORE PUSH1 0x1 PUSH1 0x1 PUSH1 0xA0 SHL SUB DUP3 DUP2 AND PUSH1 0x4 DUP4 ADD MSTORE PUSH1 0x0 SWAP2 PUSH32 0x0 SWAP1 SWAP2 AND SWAP1 PUSH4 0x41976E09 SWAP1 PUSH1 0x24 ADD PUSH1 0x20 PUSH1 0x40 MLOAD DUP1 DUP4 SUB DUP2 DUP7 GAS STATICCALL ISZERO DUP1 ISZERO PUSH2 0xA61 JUMPI RETURNDATASIZE PUSH1 0x0 DUP1 RETURNDATACOPY RETURNDATASIZE PUSH1 0x0 REVERT JUMPDEST POP POP POP POP PUSH1 0x40 MLOAD RETURNDATASIZE PUSH1 0x1F NOT PUSH1 0x1F DUP3 ADD AND DUP3 ADD DUP1 PUSH1 0x40 MSTORE POP DUP2 ADD SWAP1 PUSH2 0xA85 SWAP2 SWAP1 PUSH2 0xF87 JUMP JUMPDEST SWAP3 SWAP2 POP POP JUMP JUMPDEST PUSH1 0x60 PUSH1 0x2 DUP3 EQ PUSH2 0xAAD JUMPI PUSH1 0x40 MLOAD PUSH3 0x461BCD PUSH1 0xE5 SHL DUP2 MSTORE PUSH1 0x4 ADD PUSH2 0x207 SWAP1 PUSH2 0xF18 JUMP JUMPDEST PUSH1 0x40 DUP1 MLOAD PUSH1 0x2 DUP1 DUP3 MSTORE PUSH1 0x60 DUP3 ADD DUP4 MSTORE SWAP1 SWAP2 PUSH1 0x20 DUP4 ADD SWAP1 DUP1 CALLDATASIZE DUP4 CALLDATACOPY ADD SWAP1 POP POP SWAP1 POP DUP4 DUP2 PUSH1 0x0 DUP2 MLOAD DUP2 LT PUSH2 0xAE1 JUMPI PUSH2 0xAE1 PUSH2 0xF46 JUMP JUMPDEST PUSH1 0x20 MUL PUSH1 0x20 ADD ADD DUP2 DUP2 MSTORE POP POP PUSH32 0x0 PUSH1 0x1 PUSH1 0x1 PUSH1 0xA0 SHL SUB AND DUP4 DUP4 PUSH1 0x0 DUP2 DUP2 LT PUSH2 0xB2A JUMPI PUSH2 0xB2A PUSH2 0xF46 JUMP JUMPDEST SWAP1 POP PUSH1 0x20 MUL ADD PUSH1 0x20 DUP2 ADD SWAP1 PUSH2 0xB3F SWAP2 SWAP1 PUSH2 0xEB1 JUMP JUMPDEST PUSH1 0x1 PUSH1 0x1 PUSH1 0xA0 SHL SUB AND SUB PUSH2 0xC3D JUMPI PUSH1 0x0 PUSH32 0x0 PUSH1 0x1 PUSH1 0x1 PUSH1 0xA0 SHL SUB AND PUSH4 0x8AAAE305 DUP6 DUP6 PUSH1 0x1 DUP2 DUP2 LT PUSH2 0xB91 JUMPI PUSH2 0xB91 PUSH2 0xF46 JUMP JUMPDEST SWAP1 POP PUSH1 0x20 MUL ADD PUSH1 0x20 DUP2 ADD SWAP1 PUSH2 0xBA6 SWAP2 SWAP1 PUSH2 0xEB1 JUMP JUMPDEST PUSH1 0x40 MLOAD PUSH1 0x1 PUSH1 0x1 PUSH1 0xE0 SHL SUB NOT PUSH1 0xE0 DUP5 SWAP1 SHL AND DUP2 MSTORE PUSH1 0x1 PUSH1 0x1 PUSH1 0xA0 SHL SUB SWAP1 SWAP2 AND PUSH1 0x4 DUP3 ADD MSTORE PUSH1 0x24 DUP2 ADD DUP9 SWAP1 MSTORE PUSH1 0x44 ADD PUSH1 0x40 DUP1 MLOAD DUP1 DUP4 SUB DUP2 DUP7 GAS STATICCALL ISZERO DUP1 ISZERO PUSH2 0xBF0 JUMPI RETURNDATASIZE PUSH1 0x0 DUP1 RETURNDATACOPY RETURNDATASIZE PUSH1 0x0 REVERT JUMPDEST POP POP POP POP PUSH1 0x40 MLOAD RETURNDATASIZE PUSH1 0x1F NOT PUSH1 0x1F DUP3 ADD AND DUP3 ADD DUP1 PUSH1 0x40 MSTORE POP DUP2 ADD SWAP1 PUSH2 0xC14 SWAP2 SWAP1 PUSH2 0x1033 JUMP JUMPDEST POP SWAP1 POP DUP1 DUP3 PUSH1 0x1 DUP2 MLOAD DUP2 LT PUSH2 0xC2B JUMPI PUSH2 0xC2B PUSH2 0xF46 JUMP JUMPDEST PUSH1 0x20 MUL PUSH1 0x20 ADD ADD DUP2 DUP2 MSTORE POP POP POP PUSH2 0x9EF JUMP JUMPDEST PUSH1 0x0 PUSH32 0x0 PUSH1 0x1 PUSH1 0x1 PUSH1 0xA0 SHL SUB AND PUSH4 0x1BF6E958 DUP6 DUP6 PUSH1 0x0 DUP2 DUP2 LT PUSH2 0xC81 JUMPI PUSH2 0xC81 PUSH2 0xF46 JUMP JUMPDEST SWAP1 POP PUSH1 0x20 MUL ADD PUSH1 0x20 DUP2 ADD SWAP1 PUSH2 0xC96 SWAP2 SWAP1 PUSH2 0xEB1 JUMP JUMPDEST PUSH1 0x40 MLOAD PUSH1 0x1 PUSH1 0x1 PUSH1 0xE0 SHL SUB NOT PUSH1 0xE0 DUP5 SWAP1 SHL AND DUP2 MSTORE PUSH1 0x1 PUSH1 0x1 PUSH1 0xA0 SHL SUB SWAP1 SWAP2 AND PUSH1 0x4 DUP3 ADD MSTORE PUSH1 0x24 DUP2 ADD DUP9 SWAP1 MSTORE PUSH1 0x44 ADD PUSH1 0x40 DUP1 MLOAD DUP1 DUP4 SUB DUP2 DUP7 GAS STATICCALL ISZERO DUP1 ISZERO PUSH2 0xCE0 JUMPI RETURNDATASIZE PUSH1 0x0 DUP1 RETURNDATACOPY RETURNDATASIZE PUSH1 0x0 REVERT JUMPDEST POP POP POP POP PUSH1 0x40 MLOAD RETURNDATASIZE PUSH1 0x1F NOT PUSH1 0x1F DUP3 ADD AND DUP3 ADD DUP1 PUSH1 0x40 MSTORE POP DUP2 ADD SWAP1 PUSH2 0xD04 SWAP2 SWAP1 PUSH2 0x1033 JUMP JUMPDEST POP SWAP1 POP DUP1 DUP3 PUSH1 0x1 DUP2 MLOAD DUP2 LT PUSH2 0xD1B JUMPI PUSH2 0xD1B PUSH2 0xF46 JUMP JUMPDEST PUSH1 0x20 MUL PUSH1 0x20 ADD ADD DUP2 DUP2 MSTORE POP POP POP SWAP4 SWAP3 POP POP POP JUMP JUMPDEST PUSH1 0x0 DUP1 DUP4 PUSH1 0x1F DUP5 ADD SLT PUSH2 0xD41 JUMPI PUSH1 0x0 DUP1 REVERT JUMPDEST POP DUP2 CALLDATALOAD PUSH8 0xFFFFFFFFFFFFFFFF DUP2 GT ISZERO PUSH2 0xD59 JUMPI PUSH1 0x0 DUP1 REVERT JUMPDEST PUSH1 0x20 DUP4 ADD SWAP2 POP DUP4 PUSH1 0x20 DUP3 PUSH1 0x5 SHL DUP6 ADD ADD GT ISZERO PUSH2 0xD74 JUMPI PUSH1 0x0 DUP1 REVERT JUMPDEST SWAP3 POP SWAP3 SWAP1 POP JUMP JUMPDEST DUP1 CALLDATALOAD PUSH1 0x1 PUSH1 0x1 PUSH1 0xA0 SHL SUB DUP2 AND DUP2 EQ PUSH2 0xD92 JUMPI PUSH1 0x0 DUP1 REVERT JUMPDEST SWAP2 SWAP1 POP JUMP JUMPDEST PUSH1 0x0 DUP1 PUSH1 0x0 DUP1 PUSH1 0x0 DUP1 PUSH1 0xA0 DUP8 DUP10 SUB SLT ISZERO PUSH2 0xDB0 JUMPI PUSH1 0x0 DUP1 REVERT JUMPDEST DUP7 CALLDATALOAD SWAP6 POP PUSH1 0x20 DUP8 ADD CALLDATALOAD SWAP5 POP PUSH1 0x40 DUP8 ADD CALLDATALOAD PUSH8 0xFFFFFFFFFFFFFFFF DUP2 GT ISZERO PUSH2 0xDD5 JUMPI PUSH1 0x0 DUP1 REVERT JUMPDEST PUSH2 0xDE1 DUP10 DUP3 DUP11 ADD PUSH2 0xD2F JUMP JUMPDEST SWAP1 SWAP6 POP SWAP4 POP PUSH2 0xDF4 SWAP1 POP PUSH1 0x60 DUP9 ADD PUSH2 0xD7B JUMP JUMPDEST SWAP2 POP PUSH1 0x80 DUP8 ADD CALLDATALOAD SWAP1 POP SWAP3 SWAP6 POP SWAP3 SWAP6 POP SWAP3 SWAP6 JUMP JUMPDEST PUSH1 0x20 DUP1 DUP3 MSTORE DUP3 MLOAD DUP3 DUP3 ADD DUP2 SWAP1 MSTORE PUSH1 0x0 SWAP2 SWAP1 DUP5 DUP3 ADD SWAP1 PUSH1 0x40 DUP6 ADD SWAP1 DUP5 JUMPDEST DUP2 DUP2 LT ISZERO PUSH2 0xE3F JUMPI DUP4 MLOAD DUP4 MSTORE SWAP3 DUP5 ADD SWAP3 SWAP2 DUP5 ADD SWAP2 PUSH1 0x1 ADD PUSH2 0xE23 JUMP JUMPDEST POP SWAP1 SWAP7 SWAP6 POP POP POP POP POP POP JUMP JUMPDEST PUSH1 0x0 DUP1 PUSH1 0x0 DUP1 PUSH1 0x0 PUSH1 0x80 DUP7 DUP9 SUB SLT ISZERO PUSH2 0xE63 JUMPI PUSH1 0x0 DUP1 REVERT JUMPDEST DUP6 CALLDATALOAD SWAP5 POP PUSH1 0x20 DUP7 ADD CALLDATALOAD PUSH8 0xFFFFFFFFFFFFFFFF DUP2 GT ISZERO PUSH2 0xE81 JUMPI PUSH1 0x0 DUP1 REVERT JUMPDEST PUSH2 0xE8D DUP9 DUP3 DUP10 ADD PUSH2 0xD2F JUMP JUMPDEST SWAP1 SWAP6 POP SWAP4 POP PUSH2 0xEA0 SWAP1 POP PUSH1 0x40 DUP8 ADD PUSH2 0xD7B JUMP JUMPDEST SWAP5 SWAP8 SWAP4 SWAP7 POP SWAP2 SWAP5 PUSH1 0x60 ADD CALLDATALOAD SWAP3 SWAP2 POP POP JUMP JUMPDEST PUSH1 0x0 PUSH1 0x20 DUP3 DUP5 SUB SLT ISZERO PUSH2 0xEC3 JUMPI PUSH1 0x0 DUP1 REVERT JUMPDEST PUSH2 0x9EF DUP3 PUSH2 0xD7B JUMP JUMPDEST PUSH1 0x0 DUP1 PUSH1 0x0 PUSH1 0x40 DUP5 DUP7 SUB SLT ISZERO PUSH2 0xEE1 JUMPI PUSH1 0x0 DUP1 REVERT JUMPDEST DUP4 CALLDATALOAD SWAP3 POP PUSH1 0x20 DUP5 ADD CALLDATALOAD PUSH8 0xFFFFFFFFFFFFFFFF DUP2 GT ISZERO PUSH2 0xEFF JUMPI PUSH1 0x0 DUP1 REVERT JUMPDEST PUSH2 0xF0B DUP7 DUP3 DUP8 ADD PUSH2 0xD2F JUMP JUMPDEST SWAP5 SWAP8 SWAP1 SWAP7 POP SWAP4 SWAP5 POP POP POP POP JUMP JUMPDEST PUSH1 0x20 DUP1 DUP3 MSTORE PUSH1 0x14 SWAP1 DUP3 ADD MSTORE PUSH20 0xA4DEEAE8CAE47440929CAC82989288BEA082A89 PUSH1 0x63 SHL PUSH1 0x40 DUP3 ADD MSTORE PUSH1 0x60 ADD SWAP1 JUMP JUMPDEST PUSH4 0x4E487B71 PUSH1 0xE0 SHL PUSH1 0x0 MSTORE PUSH1 0x32 PUSH1 0x4 MSTORE PUSH1 0x24 PUSH1 0x0 REVERT JUMPDEST DUP1 MLOAD DUP1 ISZERO ISZERO DUP2 EQ PUSH2 0xD92 JUMPI PUSH1 0x0 DUP1 REVERT JUMPDEST PUSH1 0x0 PUSH1 0x20 DUP3 DUP5 SUB SLT ISZERO PUSH2 0xF7E JUMPI PUSH1 0x0 DUP1 REVERT JUMPDEST PUSH2 0x9EF DUP3 PUSH2 0xF5C JUMP JUMPDEST PUSH1 0x0 PUSH1 0x20 DUP3 DUP5 SUB SLT ISZERO PUSH2 0xF99 JUMPI PUSH1 0x0 DUP1 REVERT JUMPDEST POP MLOAD SWAP2 SWAP1 POP JUMP JUMPDEST PUSH1 0x0 PUSH1 0xC0 DUP3 DUP5 SUB SLT ISZERO PUSH2 0xFB2 JUMPI PUSH1 0x0 DUP1 REVERT JUMPDEST PUSH1 0x40 MLOAD PUSH1 0xC0 DUP2 ADD DUP2 DUP2 LT PUSH8 0xFFFFFFFFFFFFFFFF DUP3 GT OR ISZERO PUSH2 0xFE3 JUMPI PUSH4 0x4E487B71 PUSH1 0xE0 SHL PUSH1 0x0 MSTORE PUSH1 0x41 PUSH1 0x4 MSTORE PUSH1 0x24 PUSH1 0x0 REVERT JUMPDEST DUP1 PUSH1 0x40 MSTORE POP DUP3 MLOAD DUP2 MSTORE PUSH1 0x20 DUP4 ADD MLOAD PUSH1 0x20 DUP3 ADD MSTORE PUSH1 0x40 DUP4 ADD MLOAD PUSH1 0x40 DUP3 ADD MSTORE PUSH1 0x60 DUP4 ADD MLOAD PUSH1 0x60 DUP3 ADD MSTORE PUSH2 0x1016 PUSH1 0x80 DUP5 ADD PUSH2 0xF5C JUMP JUMPDEST PUSH1 0x80 DUP3 ADD MSTORE PUSH2 0x1027 PUSH1 0xA0 DUP5 ADD PUSH2 0xF5C JUMP JUMPDEST PUSH1 0xA0 DUP3 ADD MSTORE SWAP4 SWAP3 POP POP POP JUMP JUMPDEST PUSH1 0x0 DUP1 PUSH1 0x40 DUP4 DUP6 SUB SLT ISZERO PUSH2 0x1046 JUMPI PUSH1 0x0 DUP1 REVERT JUMPDEST POP POP DUP1 MLOAD PUSH1 0x20 SWAP1 SWAP2 ADD MLOAD SWAP1 SWAP3 SWAP1 SWAP2 POP JUMP INVALID LOG2 PUSH5 0x6970667358 0x22 SLT KECCAK256 TSTORE DIV 0xC3 0xE9 LT 0xF7 0xCA MULMOD 0xB2 0xE1 INVALID SDIV SHL CALLDATACOPY GAS PUSH25 0x9E55BBC3E6A3D226FD607FABE662DA1F64736F6C6343000818 STOP CALLER "},"methodIdentifiers":{"WBNB()":"8dd95002","getAmountsOut(uint256,address[])":"d06ca61f","getTokenPrice(address)":"d02641a0","isTokenActive(address)":"895b327e","market()":"80f55605","swapExactETHForTokens(uint256,address[],address,uint256)":"7ff36ab5","swapExactTokensForETH(uint256,uint256,address[],address,uint256)":"18cbafe5"}}}}}