{"contracts/HoneycombReputation.sol":{"HoneycombReputation":{"abi":[{"inputs":[],"stateMutability":"nonpayable","type":"constructor"},{"inputs":[],"name":"AccessControlBadConfirmation","type":"error"},{"inputs":[{"internalType":"address","name":"account","type":"address"},{"internalType":"bytes32","name":"neededRole","type":"bytes32"}],"name":"AccessControlUnauthorizedAccount","type":"error"},{"inputs":[],"name":"ArrayLengthMismatch","type":"error"},{"inputs":[],"name":"BatchTooLarge","type":"error"},{"inputs":[],"name":"EmptyBatch","type":"error"},{"anonymous":false,"inputs":[{"indexed":false,"internalType":"uint256","name":"agentsUpdated","type":"uint256"},{"indexed":false,"internalType":"uint256","name":"timestamp","type":"uint256"}],"name":"BatchCheckpointSubmitted","type":"event"},{"anonymous":false,"inputs":[{"indexed":true,"internalType":"uint256","name":"agentId","type":"uint256"},{"indexed":false,"internalType":"uint256","name":"reputation","type":"uint256"},{"indexed":false,"internalType":"uint256","name":"timestamp","type":"uint256"}],"name":"ReputationCheckpoint","type":"event"},{"anonymous":false,"inputs":[{"indexed":true,"internalType":"bytes32","name":"role","type":"bytes32"},{"indexed":true,"internalType":"bytes32","name":"previousAdminRole","type":"bytes32"},{"indexed":true,"internalType":"bytes32","name":"newAdminRole","type":"bytes32"}],"name":"RoleAdminChanged","type":"event"},{"anonymous":false,"inputs":[{"indexed":true,"internalType":"bytes32","name":"role","type":"bytes32"},{"indexed":true,"internalType":"address","name":"account","type":"address"},{"indexed":true,"internalType":"address","name":"sender","type":"address"}],"name":"RoleGranted","type":"event"},{"anonymous":false,"inputs":[{"indexed":true,"internalType":"bytes32","name":"role","type":"bytes32"},{"indexed":true,"internalType":"address","name":"account","type":"address"},{"indexed":true,"internalType":"address","name":"sender","type":"address"}],"name":"RoleRevoked","type":"event"},{"inputs":[],"name":"ADMIN_ROLE","outputs":[{"internalType":"bytes32","name":"","type":"bytes32"}],"stateMutability":"view","type":"function"},{"inputs":[],"name":"DEFAULT_ADMIN_ROLE","outputs":[{"internalType":"bytes32","name":"","type":"bytes32"}],"stateMutability":"view","type":"function"},{"inputs":[],"name":"MAX_BATCH_SIZE","outputs":[{"internalType":"uint256","name":"","type":"uint256"}],"stateMutability":"view","type":"function"},{"inputs":[],"name":"REP_ORACLE_ROLE","outputs":[{"internalType":"bytes32","name":"","type":"bytes32"}],"stateMutability":"view","type":"function"},{"inputs":[{"internalType":"bytes32","name":"role","type":"bytes32"}],"name":"getRoleAdmin","outputs":[{"internalType":"bytes32","name":"","type":"bytes32"}],"stateMutability":"view","type":"function"},{"inputs":[{"internalType":"address","name":"oracle","type":"address"}],"name":"grantOracleRole","outputs":[],"stateMutability":"nonpayable","type":"function"},{"inputs":[{"internalType":"bytes32","name":"role","type":"bytes32"},{"internalType":"address","name":"account","type":"address"}],"name":"grantRole","outputs":[],"stateMutability":"nonpayable","type":"function"},{"inputs":[{"internalType":"bytes32","name":"role","type":"bytes32"},{"internalType":"address","name":"account","type":"address"}],"name":"hasRole","outputs":[{"internalType":"bool","name":"","type":"bool"}],"stateMutability":"view","type":"function"},{"inputs":[],"name":"lastCheckpointAt","outputs":[{"internalType":"uint256","name":"","type":"uint256"}],"stateMutability":"view","type":"function"},{"inputs":[{"internalType":"uint256","name":"agentId","type":"uint256"}],"name":"lastUpdated","outputs":[{"internalType":"uint256","name":"","type":"uint256"}],"stateMutability":"view","type":"function"},{"inputs":[{"internalType":"uint256","name":"","type":"uint256"}],"name":"lastUpdatedAt","outputs":[{"internalType":"uint256","name":"","type":"uint256"}],"stateMutability":"view","type":"function"},{"inputs":[{"internalType":"uint256","name":"","type":"uint256"}],"name":"latestRep","outputs":[{"internalType":"uint256","name":"","type":"uint256"}],"stateMutability":"view","type":"function"},{"inputs":[{"internalType":"bytes32","name":"role","type":"bytes32"},{"internalType":"address","name":"callerConfirmation","type":"address"}],"name":"renounceRole","outputs":[],"stateMutability":"nonpayable","type":"function"},{"inputs":[{"internalType":"uint256","name":"agentId","type":"uint256"}],"name":"reputationOf","outputs":[{"internalType":"uint256","name":"","type":"uint256"}],"stateMutability":"view","type":"function"},{"inputs":[{"internalType":"uint256[]","name":"agentIds","type":"uint256[]"}],"name":"reputationsOf","outputs":[{"internalType":"uint256[]","name":"reps","type":"uint256[]"}],"stateMutability":"view","type":"function"},{"inputs":[{"internalType":"address","name":"oracle","type":"address"}],"name":"revokeOracleRole","outputs":[],"stateMutability":"nonpayable","type":"function"},{"inputs":[{"internalType":"bytes32","name":"role","type":"bytes32"},{"internalType":"address","name":"account","type":"address"}],"name":"revokeRole","outputs":[],"stateMutability":"nonpayable","type":"function"},{"inputs":[{"internalType":"uint256[]","name":"agentIds","type":"uint256[]"},{"internalType":"uint256[]","name":"reps","type":"uint256[]"}],"name":"submitCheckpoint","outputs":[],"stateMutability":"nonpayable","type":"function"},{"inputs":[{"internalType":"bytes4","name":"interfaceId","type":"bytes4"}],"name":"supportsInterface","outputs":[{"internalType":"bool","name":"","type":"bool"}],"stateMutability":"view","type":"function"},{"inputs":[],"name":"totalCheckpoints","outputs":[{"internalType":"uint256","name":"","type":"uint256"}],"stateMutability":"view","type":"function"}],"evm":{"bytecode":{"linkReferences":{},"object":"608060405234801561001057600080fd5b5061001c600033610078565b506100477fa49807205ce4d355092ef5a8a18f56e8913cf4a201fbe287825b095693c2177533610078565b506100727fa6a5ca572e6a135da0438a35c2444fd102fd0590e32c36057131095fe8b989b733610078565b50610124565b6000828152602081815260408083206001600160a01b038516845290915281205460ff1661011a576000838152602081815260408083206001600160a01b03861684529091529020805460ff191660011790556100d23390565b6001600160a01b0316826001600160a01b0316847f2f8788117e7eff1d82e926ec794901d17c78024a50270940304540a733656f0d60405160405180910390a450600161011e565b5060005b92915050565b610a83806101336000396000f3fe608060405234801561001057600080fd5b506004361061012c5760003560e01c8063a217fddf116100ad578063d423bc1d11610071578063d423bc1d146102a0578063d547741f146102c0578063ddffac12146102d3578063df9c49a3146102f3578063f332687d1461030657600080fd5b8063a217fddf1461024a578063a5cbe41514610252578063adf94cca14610265578063cd93f3ef14610285578063cfdbf2541461029857600080fd5b806336568abe116100f457806336568abe146101c85780636022c188146101db57806375b238fc146101f057806391d1485414610217578063983437a81461022a57600080fd5b806301ffc9a7146101315780631667bcec14610159578063248a9ca31461017057806324a29522146101935780632f2ff15d146101b3575b600080fd5b61014461013f3660046107ef565b61030f565b60405190151581526020015b60405180910390f35b61016260035481565b604051908152602001610150565b61016261017e366004610820565b60009081526020819052604090206001015490565b6101626101a1366004610820565b60009081526002602052604090205490565b6101c66101c1366004610855565b610346565b005b6101c66101d6366004610855565b610371565b610162600080516020610a2e83398151915281565b6101627fa49807205ce4d355092ef5a8a18f56e8913cf4a201fbe287825b095693c2177581565b610144610225366004610855565b6103a9565b610162610238366004610820565b60016020526000908152604090205481565b610162600081565b6101c6610260366004610881565b6103d2565b610162610273366004610820565b60009081526001602052604090205490565b6101c66102933660046108e8565b610414565b61016260c881565b6101626102ae366004610820565b60026020526000908152604090205481565b6101c66102ce366004610855565b610593565b6102e66102e1366004610954565b6105b8565b6040516101509190610996565b6101c6610301366004610881565b610662565b61016260045481565b60006001600160e01b03198216637965db0b60e01b148061034057506301ffc9a760e01b6001600160e01b03198316145b92915050565b600082815260208190526040902060010154610361816106a4565b61036b83836106b1565b50505050565b6001600160a01b038116331461039a5760405163334bd91960e11b815260040160405180910390fd5b6103a48282610743565b505050565b6000918252602082815260408084206001600160a01b0393909316845291905290205460ff1690565b7fa49807205ce4d355092ef5a8a18f56e8913cf4a201fbe287825b095693c217756103fc816106a4565b6103a4600080516020610a2e83398151915283610743565b600080516020610a2e83398151915261042c816106a4565b600084900361044e5760405163c2e5347d60e01b815260040160405180910390fd5b60c8841115610470576040516305beb17160e11b815260040160405180910390fd5b8382146104905760405163512509d360e11b815260040160405180910390fd5b60005b8481101561053a5760008686838181106104af576104af6109da565b90506020020135905060008585848181106104cc576104cc6109da565b60008581526001602090815260408083209382029590950135928390556002815290849020429081905584518381529182015290935084927f023b7a0422c37861e9e7fa964bf6c06634150dca3f98b2ab810032e69761d8cc92500160405180910390a25050600101610493565b50426003556004805490600061054f836109f0565b9091555050604080518581524260208201527f9f4c35768e3b0fa2575341074f44da0b96d5c4b16deba141123a28614a40978f910160405180910390a15050505050565b6000828152602081905260409020600101546105ae816106a4565b61036b8383610743565b60608167ffffffffffffffff8111156105d3576105d3610a17565b6040519080825280602002602001820160405280156105fc578160200160208202803683370190505b50905060005b8281101561065b5760016000858584818110610620576106206109da565b90506020020135815260200190815260200160002054828281518110610648576106486109da565b6020908102919091010152600101610602565b5092915050565b7fa49807205ce4d355092ef5a8a18f56e8913cf4a201fbe287825b095693c2177561068c816106a4565b6103a4600080516020610a2e833981519152836106b1565b6106ae81336107ae565b50565b60006106bd83836103a9565b61073b576000838152602081815260408083206001600160a01b03861684529091529020805460ff191660011790556106f33390565b6001600160a01b0316826001600160a01b0316847f2f8788117e7eff1d82e926ec794901d17c78024a50270940304540a733656f0d60405160405180910390a4506001610340565b506000610340565b600061074f83836103a9565b1561073b576000838152602081815260408083206001600160a01b0386168085529252808320805460ff1916905551339286917ff6391f5c32d9c69d2a47ea670b442974b53935d1edc7fd64eb21e047a839171b9190a4506001610340565b6107b882826103a9565b6107eb5760405163e2517d3f60e01b81526001600160a01b03821660048201526024810183905260440160405180910390fd5b5050565b60006020828403121561080157600080fd5b81356001600160e01b03198116811461081957600080fd5b9392505050565b60006020828403121561083257600080fd5b5035919050565b80356001600160a01b038116811461085057600080fd5b919050565b6000806040838503121561086857600080fd5b8235915061087860208401610839565b90509250929050565b60006020828403121561089357600080fd5b61081982610839565b60008083601f8401126108ae57600080fd5b50813567ffffffffffffffff8111156108c657600080fd5b6020830191508360208260051b85010111156108e157600080fd5b9250929050565b600080600080604085870312156108fe57600080fd5b843567ffffffffffffffff8082111561091657600080fd5b6109228883890161089c565b9096509450602087013591508082111561093b57600080fd5b506109488782880161089c565b95989497509550505050565b6000806020838503121561096757600080fd5b823567ffffffffffffffff81111561097e57600080fd5b61098a8582860161089c565b90969095509350505050565b6020808252825182820181905260009190848201906040850190845b818110156109ce578351835292840192918401916001016109b2565b50909695505050505050565b634e487b7160e01b600052603260045260246000fd5b600060018201610a1057634e487b7160e01b600052601160045260246000fd5b5060010190565b634e487b7160e01b600052604160045260246000fdfea6a5ca572e6a135da0438a35c2444fd102fd0590e32c36057131095fe8b989b7a264697066735822122021c2e097abe020a2c0243238c7752ac856a32788c61bb49a87ce7ac6296ed84864736f6c63430008180033","opcodes":"PUSH1 0x80 PUSH1 0x40 MSTORE CALLVALUE DUP1 ISZERO PUSH2 0x10 JUMPI PUSH1 0x0 DUP1 REVERT JUMPDEST POP PUSH2 0x1C PUSH1 0x0 CALLER PUSH2 0x78 JUMP JUMPDEST POP PUSH2 0x47 PUSH32 0xA49807205CE4D355092EF5A8A18F56E8913CF4A201FBE287825B095693C21775 CALLER PUSH2 0x78 JUMP JUMPDEST POP PUSH2 0x72 PUSH32 0xA6A5CA572E6A135DA0438A35C2444FD102FD0590E32C36057131095FE8B989B7 CALLER PUSH2 0x78 JUMP JUMPDEST POP PUSH2 0x124 JUMP JUMPDEST PUSH1 0x0 DUP3 DUP2 MSTORE PUSH1 0x20 DUP2 DUP2 MSTORE PUSH1 0x40 DUP1 DUP4 KECCAK256 PUSH1 0x1 PUSH1 0x1 PUSH1 0xA0 SHL SUB DUP6 AND DUP5 MSTORE SWAP1 SWAP2 MSTORE DUP2 KECCAK256 SLOAD PUSH1 0xFF AND PUSH2 0x11A JUMPI PUSH1 0x0 DUP4 DUP2 MSTORE PUSH1 0x20 DUP2 DUP2 MSTORE PUSH1 0x40 DUP1 DUP4 KECCAK256 PUSH1 0x1 PUSH1 0x1 PUSH1 0xA0 SHL SUB DUP7 AND DUP5 MSTORE SWAP1 SWAP2 MSTORE SWAP1 KECCAK256 DUP1 SLOAD PUSH1 0xFF NOT AND PUSH1 0x1 OR SWAP1 SSTORE PUSH2 0xD2 CALLER SWAP1 JUMP JUMPDEST PUSH1 0x1 PUSH1 0x1 PUSH1 0xA0 SHL SUB AND DUP3 PUSH1 0x1 PUSH1 0x1 PUSH1 0xA0 SHL SUB AND DUP5 PUSH32 0x2F8788117E7EFF1D82E926EC794901D17C78024A50270940304540A733656F0D PUSH1 0x40 MLOAD PUSH1 0x40 MLOAD DUP1 SWAP2 SUB SWAP1 LOG4 POP PUSH1 0x1 PUSH2 0x11E JUMP JUMPDEST POP PUSH1 0x0 JUMPDEST SWAP3 SWAP2 POP POP JUMP JUMPDEST PUSH2 0xA83 DUP1 PUSH2 0x133 PUSH1 0x0 CODECOPY PUSH1 0x0 RETURN INVALID PUSH1 0x80 PUSH1 0x40 MSTORE CALLVALUE DUP1 ISZERO PUSH2 0x10 JUMPI PUSH1 0x0 DUP1 REVERT JUMPDEST POP PUSH1 0x4 CALLDATASIZE LT PUSH2 0x12C JUMPI PUSH1 0x0 CALLDATALOAD PUSH1 0xE0 SHR DUP1 PUSH4 0xA217FDDF GT PUSH2 0xAD JUMPI DUP1 PUSH4 0xD423BC1D GT PUSH2 0x71 JUMPI DUP1 PUSH4 0xD423BC1D EQ PUSH2 0x2A0 JUMPI DUP1 PUSH4 0xD547741F EQ PUSH2 0x2C0 JUMPI DUP1 PUSH4 0xDDFFAC12 EQ PUSH2 0x2D3 JUMPI DUP1 PUSH4 0xDF9C49A3 EQ PUSH2 0x2F3 JUMPI DUP1 PUSH4 0xF332687D EQ PUSH2 0x306 JUMPI PUSH1 0x0 DUP1 REVERT JUMPDEST DUP1 PUSH4 0xA217FDDF EQ PUSH2 0x24A JUMPI DUP1 PUSH4 0xA5CBE415 EQ PUSH2 0x252 JUMPI DUP1 PUSH4 0xADF94CCA EQ PUSH2 0x265 JUMPI DUP1 PUSH4 0xCD93F3EF EQ PUSH2 0x285 JUMPI DUP1 PUSH4 0xCFDBF254 EQ PUSH2 0x298 JUMPI PUSH1 0x0 DUP1 REVERT JUMPDEST DUP1 PUSH4 0x36568ABE GT PUSH2 0xF4 JUMPI DUP1 PUSH4 0x36568ABE EQ PUSH2 0x1C8 JUMPI DUP1 PUSH4 0x6022C188 EQ PUSH2 0x1DB JUMPI DUP1 PUSH4 0x75B238FC EQ PUSH2 0x1F0 JUMPI DUP1 PUSH4 0x91D14854 EQ PUSH2 0x217 JUMPI DUP1 PUSH4 0x983437A8 EQ PUSH2 0x22A JUMPI PUSH1 0x0 DUP1 REVERT JUMPDEST DUP1 PUSH4 0x1FFC9A7 EQ PUSH2 0x131 JUMPI DUP1 PUSH4 0x1667BCEC EQ PUSH2 0x159 JUMPI DUP1 PUSH4 0x248A9CA3 EQ PUSH2 0x170 JUMPI DUP1 PUSH4 0x24A29522 EQ PUSH2 0x193 JUMPI DUP1 PUSH4 0x2F2FF15D EQ PUSH2 0x1B3 JUMPI JUMPDEST PUSH1 0x0 DUP1 REVERT JUMPDEST PUSH2 0x144 PUSH2 0x13F CALLDATASIZE PUSH1 0x4 PUSH2 0x7EF JUMP JUMPDEST PUSH2 0x30F JUMP JUMPDEST PUSH1 0x40 MLOAD SWAP1 ISZERO ISZERO DUP2 MSTORE PUSH1 0x20 ADD JUMPDEST PUSH1 0x40 MLOAD DUP1 SWAP2 SUB SWAP1 RETURN JUMPDEST PUSH2 0x162 PUSH1 0x3 SLOAD DUP2 JUMP JUMPDEST PUSH1 0x40 MLOAD SWAP1 DUP2 MSTORE PUSH1 0x20 ADD PUSH2 0x150 JUMP JUMPDEST PUSH2 0x162 PUSH2 0x17E CALLDATASIZE PUSH1 0x4 PUSH2 0x820 JUMP JUMPDEST PUSH1 0x0 SWAP1 DUP2 MSTORE PUSH1 0x20 DUP2 SWAP1 MSTORE PUSH1 0x40 SWAP1 KECCAK256 PUSH1 0x1 ADD SLOAD SWAP1 JUMP JUMPDEST PUSH2 0x162 PUSH2 0x1A1 CALLDATASIZE PUSH1 0x4 PUSH2 0x820 JUMP JUMPDEST PUSH1 0x0 SWAP1 DUP2 MSTORE PUSH1 0x2 PUSH1 0x20 MSTORE PUSH1 0x40 SWAP1 KECCAK256 SLOAD SWAP1 JUMP JUMPDEST PUSH2 0x1C6 PUSH2 0x1C1 CALLDATASIZE PUSH1 0x4 PUSH2 0x855 JUMP JUMPDEST PUSH2 0x346 JUMP JUMPDEST STOP JUMPDEST PUSH2 0x1C6 PUSH2 0x1D6 CALLDATASIZE PUSH1 0x4 PUSH2 0x855 JUMP JUMPDEST PUSH2 0x371 JUMP JUMPDEST PUSH2 0x162 PUSH1 0x0 DUP1 MLOAD PUSH1 0x20 PUSH2 0xA2E DUP4 CODECOPY DUP2 MLOAD SWAP2 MSTORE DUP2 JUMP JUMPDEST PUSH2 0x162 PUSH32 0xA49807205CE4D355092EF5A8A18F56E8913CF4A201FBE287825B095693C21775 DUP2 JUMP JUMPDEST PUSH2 0x144 PUSH2 0x225 CALLDATASIZE PUSH1 0x4 PUSH2 0x855 JUMP JUMPDEST PUSH2 0x3A9 JUMP JUMPDEST PUSH2 0x162 PUSH2 0x238 CALLDATASIZE PUSH1 0x4 PUSH2 0x820 JUMP JUMPDEST PUSH1 0x1 PUSH1 0x20 MSTORE PUSH1 0x0 SWAP1 DUP2 MSTORE PUSH1 0x40 SWAP1 KECCAK256 SLOAD DUP2 JUMP JUMPDEST PUSH2 0x162 PUSH1 0x0 DUP2 JUMP JUMPDEST PUSH2 0x1C6 PUSH2 0x260 CALLDATASIZE PUSH1 0x4 PUSH2 0x881 JUMP JUMPDEST PUSH2 0x3D2 JUMP JUMPDEST PUSH2 0x162 PUSH2 0x273 CALLDATASIZE PUSH1 0x4 PUSH2 0x820 JUMP JUMPDEST PUSH1 0x0 SWAP1 DUP2 MSTORE PUSH1 0x1 PUSH1 0x20 MSTORE PUSH1 0x40 SWAP1 KECCAK256 SLOAD SWAP1 JUMP JUMPDEST PUSH2 0x1C6 PUSH2 0x293 CALLDATASIZE PUSH1 0x4 PUSH2 0x8E8 JUMP JUMPDEST PUSH2 0x414 JUMP JUMPDEST PUSH2 0x162 PUSH1 0xC8 DUP2 JUMP JUMPDEST PUSH2 0x162 PUSH2 0x2AE CALLDATASIZE PUSH1 0x4 PUSH2 0x820 JUMP JUMPDEST PUSH1 0x2 PUSH1 0x20 MSTORE PUSH1 0x0 SWAP1 DUP2 MSTORE PUSH1 0x40 SWAP1 KECCAK256 SLOAD DUP2 JUMP JUMPDEST PUSH2 0x1C6 PUSH2 0x2CE CALLDATASIZE PUSH1 0x4 PUSH2 0x855 JUMP JUMPDEST PUSH2 0x593 JUMP JUMPDEST PUSH2 0x2E6 PUSH2 0x2E1 CALLDATASIZE PUSH1 0x4 PUSH2 0x954 JUMP JUMPDEST PUSH2 0x5B8 JUMP JUMPDEST PUSH1 0x40 MLOAD PUSH2 0x150 SWAP2 SWAP1 PUSH2 0x996 JUMP JUMPDEST PUSH2 0x1C6 PUSH2 0x301 CALLDATASIZE PUSH1 0x4 PUSH2 0x881 JUMP JUMPDEST PUSH2 0x662 JUMP JUMPDEST PUSH2 0x162 PUSH1 0x4 SLOAD DUP2 JUMP JUMPDEST PUSH1 0x0 PUSH1 0x1 PUSH1 0x1 PUSH1 0xE0 SHL SUB NOT DUP3 AND PUSH4 0x7965DB0B PUSH1 0xE0 SHL EQ DUP1 PUSH2 0x340 JUMPI POP PUSH4 0x1FFC9A7 PUSH1 0xE0 SHL PUSH1 0x1 PUSH1 0x1 PUSH1 0xE0 SHL SUB NOT DUP4 AND EQ JUMPDEST SWAP3 SWAP2 POP POP JUMP JUMPDEST PUSH1 0x0 DUP3 DUP2 MSTORE PUSH1 0x20 DUP2 SWAP1 MSTORE PUSH1 0x40 SWAP1 KECCAK256 PUSH1 0x1 ADD SLOAD PUSH2 0x361 DUP2 PUSH2 0x6A4 JUMP JUMPDEST PUSH2 0x36B DUP4 DUP4 PUSH2 0x6B1 JUMP JUMPDEST POP POP POP POP JUMP JUMPDEST PUSH1 0x1 PUSH1 0x1 PUSH1 0xA0 SHL SUB DUP2 AND CALLER EQ PUSH2 0x39A JUMPI PUSH1 0x40 MLOAD PUSH4 0x334BD919 PUSH1 0xE1 SHL DUP2 MSTORE PUSH1 0x4 ADD PUSH1 0x40 MLOAD DUP1 SWAP2 SUB SWAP1 REVERT JUMPDEST PUSH2 0x3A4 DUP3 DUP3 PUSH2 0x743 JUMP JUMPDEST POP POP POP JUMP JUMPDEST PUSH1 0x0 SWAP2 DUP3 MSTORE PUSH1 0x20 DUP3 DUP2 MSTORE PUSH1 0x40 DUP1 DUP5 KECCAK256 PUSH1 0x1 PUSH1 0x1 PUSH1 0xA0 SHL SUB SWAP4 SWAP1 SWAP4 AND DUP5 MSTORE SWAP2 SWAP1 MSTORE SWAP1 KECCAK256 SLOAD PUSH1 0xFF AND SWAP1 JUMP JUMPDEST PUSH32 0xA49807205CE4D355092EF5A8A18F56E8913CF4A201FBE287825B095693C21775 PUSH2 0x3FC DUP2 PUSH2 0x6A4 JUMP JUMPDEST PUSH2 0x3A4 PUSH1 0x0 DUP1 MLOAD PUSH1 0x20 PUSH2 0xA2E DUP4 CODECOPY DUP2 MLOAD SWAP2 MSTORE DUP4 PUSH2 0x743 JUMP JUMPDEST PUSH1 0x0 DUP1 MLOAD PUSH1 0x20 PUSH2 0xA2E DUP4 CODECOPY DUP2 MLOAD SWAP2 MSTORE PUSH2 0x42C DUP2 PUSH2 0x6A4 JUMP JUMPDEST PUSH1 0x0 DUP5 SWAP1 SUB PUSH2 0x44E JUMPI PUSH1 0x40 MLOAD PUSH4 0xC2E5347D PUSH1 0xE0 SHL DUP2 MSTORE PUSH1 0x4 ADD PUSH1 0x40 MLOAD DUP1 SWAP2 SUB SWAP1 REVERT JUMPDEST PUSH1 0xC8 DUP5 GT ISZERO PUSH2 0x470 JUMPI PUSH1 0x40 MLOAD PUSH4 0x5BEB171 PUSH1 0xE1 SHL DUP2 MSTORE PUSH1 0x4 ADD PUSH1 0x40 MLOAD DUP1 SWAP2 SUB SWAP1 REVERT JUMPDEST DUP4 DUP3 EQ PUSH2 0x490 JUMPI PUSH1 0x40 MLOAD PUSH4 0x512509D3 PUSH1 0xE1 SHL DUP2 MSTORE PUSH1 0x4 ADD PUSH1 0x40 MLOAD DUP1 SWAP2 SUB SWAP1 REVERT JUMPDEST PUSH1 0x0 JUMPDEST DUP5 DUP2 LT ISZERO PUSH2 0x53A JUMPI PUSH1 0x0 DUP7 DUP7 DUP4 DUP2 DUP2 LT PUSH2 0x4AF JUMPI PUSH2 0x4AF PUSH2 0x9DA JUMP JUMPDEST SWAP1 POP PUSH1 0x20 MUL ADD CALLDATALOAD SWAP1 POP PUSH1 0x0 DUP6 DUP6 DUP5 DUP2 DUP2 LT PUSH2 0x4CC JUMPI PUSH2 0x4CC PUSH2 0x9DA JUMP JUMPDEST PUSH1 0x0 DUP6 DUP2 MSTORE PUSH1 0x1 PUSH1 0x20 SWAP1 DUP2 MSTORE PUSH1 0x40 DUP1 DUP4 KECCAK256 SWAP4 DUP3 MUL SWAP6 SWAP1 SWAP6 ADD CALLDATALOAD SWAP3 DUP4 SWAP1 SSTORE PUSH1 0x2 DUP2 MSTORE SWAP1 DUP5 SWAP1 KECCAK256 TIMESTAMP SWAP1 DUP2 SWAP1 SSTORE DUP5 MLOAD DUP4 DUP2 MSTORE SWAP2 DUP3 ADD MSTORE SWAP1 SWAP4 POP DUP5 SWAP3 PUSH32 0x23B7A0422C37861E9E7FA964BF6C06634150DCA3F98B2AB810032E69761D8CC SWAP3 POP ADD PUSH1 0x40 MLOAD DUP1 SWAP2 SUB SWAP1 LOG2 POP POP PUSH1 0x1 ADD PUSH2 0x493 JUMP JUMPDEST POP TIMESTAMP PUSH1 0x3 SSTORE PUSH1 0x4 DUP1 SLOAD SWAP1 PUSH1 0x0 PUSH2 0x54F DUP4 PUSH2 0x9F0 JUMP JUMPDEST SWAP1 SWAP2 SSTORE POP POP PUSH1 0x40 DUP1 MLOAD DUP6 DUP2 MSTORE TIMESTAMP PUSH1 0x20 DUP3 ADD MSTORE PUSH32 0x9F4C35768E3B0FA2575341074F44DA0B96D5C4B16DEBA141123A28614A40978F SWAP2 ADD PUSH1 0x40 MLOAD DUP1 SWAP2 SUB SWAP1 LOG1 POP POP POP POP POP JUMP JUMPDEST PUSH1 0x0 DUP3 DUP2 MSTORE PUSH1 0x20 DUP2 SWAP1 MSTORE PUSH1 0x40 SWAP1 KECCAK256 PUSH1 0x1 ADD SLOAD PUSH2 0x5AE DUP2 PUSH2 0x6A4 JUMP JUMPDEST PUSH2 0x36B DUP4 DUP4 PUSH2 0x743 JUMP JUMPDEST PUSH1 0x60 DUP2 PUSH8 0xFFFFFFFFFFFFFFFF DUP2 GT ISZERO PUSH2 0x5D3 JUMPI PUSH2 0x5D3 PUSH2 0xA17 JUMP JUMPDEST PUSH1 0x40 MLOAD SWAP1 DUP1 DUP3 MSTORE DUP1 PUSH1 0x20 MUL PUSH1 0x20 ADD DUP3 ADD PUSH1 0x40 MSTORE DUP1 ISZERO PUSH2 0x5FC JUMPI DUP2 PUSH1 0x20 ADD PUSH1 0x20 DUP3 MUL DUP1 CALLDATASIZE DUP4 CALLDATACOPY ADD SWAP1 POP JUMPDEST POP SWAP1 POP PUSH1 0x0 JUMPDEST DUP3 DUP2 LT ISZERO PUSH2 0x65B JUMPI PUSH1 0x1 PUSH1 0x0 DUP6 DUP6 DUP5 DUP2 DUP2 LT PUSH2 0x620 JUMPI PUSH2 0x620 PUSH2 0x9DA JUMP JUMPDEST SWAP1 POP PUSH1 0x20 MUL ADD CALLDATALOAD DUP2 MSTORE PUSH1 0x20 ADD SWAP1 DUP2 MSTORE PUSH1 0x20 ADD PUSH1 0x0 KECCAK256 SLOAD DUP3 DUP3 DUP2 MLOAD DUP2 LT PUSH2 0x648 JUMPI PUSH2 0x648 PUSH2 0x9DA JUMP JUMPDEST PUSH1 0x20 SWAP1 DUP2 MUL SWAP2 SWAP1 SWAP2 ADD ADD MSTORE PUSH1 0x1 ADD PUSH2 0x602 JUMP JUMPDEST POP SWAP3 SWAP2 POP POP JUMP JUMPDEST PUSH32 0xA49807205CE4D355092EF5A8A18F56E8913CF4A201FBE287825B095693C21775 PUSH2 0x68C DUP2 PUSH2 0x6A4 JUMP JUMPDEST PUSH2 0x3A4 PUSH1 0x0 DUP1 MLOAD PUSH1 0x20 PUSH2 0xA2E DUP4 CODECOPY DUP2 MLOAD SWAP2 MSTORE DUP4 PUSH2 0x6B1 JUMP JUMPDEST PUSH2 0x6AE DUP2 CALLER PUSH2 0x7AE JUMP JUMPDEST POP JUMP JUMPDEST PUSH1 0x0 PUSH2 0x6BD DUP4 DUP4 PUSH2 0x3A9 JUMP JUMPDEST PUSH2 0x73B JUMPI PUSH1 0x0 DUP4 DUP2 MSTORE PUSH1 0x20 DUP2 DUP2 MSTORE PUSH1 0x40 DUP1 DUP4 KECCAK256 PUSH1 0x1 PUSH1 0x1 PUSH1 0xA0 SHL SUB DUP7 AND DUP5 MSTORE SWAP1 SWAP2 MSTORE SWAP1 KECCAK256 DUP1 SLOAD PUSH1 0xFF NOT AND PUSH1 0x1 OR SWAP1 SSTORE PUSH2 0x6F3 CALLER SWAP1 JUMP JUMPDEST PUSH1 0x1 PUSH1 0x1 PUSH1 0xA0 SHL SUB AND DUP3 PUSH1 0x1 PUSH1 0x1 PUSH1 0xA0 SHL SUB AND DUP5 PUSH32 0x2F8788117E7EFF1D82E926EC794901D17C78024A50270940304540A733656F0D PUSH1 0x40 MLOAD PUSH1 0x40 MLOAD DUP1 SWAP2 SUB SWAP1 LOG4 POP PUSH1 0x1 PUSH2 0x340 JUMP JUMPDEST POP PUSH1 0x0 PUSH2 0x340 JUMP JUMPDEST PUSH1 0x0 PUSH2 0x74F DUP4 DUP4 PUSH2 0x3A9 JUMP JUMPDEST ISZERO PUSH2 0x73B JUMPI PUSH1 0x0 DUP4 DUP2 MSTORE PUSH1 0x20 DUP2 DUP2 MSTORE PUSH1 0x40 DUP1 DUP4 KECCAK256 PUSH1 0x1 PUSH1 0x1 PUSH1 0xA0 SHL SUB DUP7 AND DUP1 DUP6 MSTORE SWAP3 MSTORE DUP1 DUP4 KECCAK256 DUP1 SLOAD PUSH1 0xFF NOT AND SWAP1 SSTORE MLOAD CALLER SWAP3 DUP7 SWAP2 PUSH32 0xF6391F5C32D9C69D2A47EA670B442974B53935D1EDC7FD64EB21E047A839171B SWAP2 SWAP1 LOG4 POP PUSH1 0x1 PUSH2 0x340 JUMP JUMPDEST PUSH2 0x7B8 DUP3 DUP3 PUSH2 0x3A9 JUMP JUMPDEST PUSH2 0x7EB JUMPI PUSH1 0x40 MLOAD PUSH4 0xE2517D3F PUSH1 0xE0 SHL DUP2 MSTORE PUSH1 0x1 PUSH1 0x1 PUSH1 0xA0 SHL SUB DUP3 AND PUSH1 0x4 DUP3 ADD MSTORE PUSH1 0x24 DUP2 ADD DUP4 SWAP1 MSTORE PUSH1 0x44 ADD PUSH1 0x40 MLOAD DUP1 SWAP2 SUB SWAP1 REVERT JUMPDEST POP POP JUMP JUMPDEST PUSH1 0x0 PUSH1 0x20 DUP3 DUP5 SUB SLT ISZERO PUSH2 0x801 JUMPI PUSH1 0x0 DUP1 REVERT JUMPDEST DUP2 CALLDATALOAD PUSH1 0x1 PUSH1 0x1 PUSH1 0xE0 SHL SUB NOT DUP2 AND DUP2 EQ PUSH2 0x819 JUMPI PUSH1 0x0 DUP1 REVERT JUMPDEST SWAP4 SWAP3 POP POP POP JUMP JUMPDEST PUSH1 0x0 PUSH1 0x20 DUP3 DUP5 SUB SLT ISZERO PUSH2 0x832 JUMPI PUSH1 0x0 DUP1 REVERT JUMPDEST POP CALLDATALOAD SWAP2 SWAP1 POP JUMP JUMPDEST DUP1 CALLDATALOAD PUSH1 0x1 PUSH1 0x1 PUSH1 0xA0 SHL SUB DUP2 AND DUP2 EQ PUSH2 0x850 JUMPI PUSH1 0x0 DUP1 REVERT JUMPDEST SWAP2 SWAP1 POP JUMP JUMPDEST PUSH1 0x0 DUP1 PUSH1 0x40 DUP4 DUP6 SUB SLT ISZERO PUSH2 0x868 JUMPI PUSH1 0x0 DUP1 REVERT JUMPDEST DUP3 CALLDATALOAD SWAP2 POP PUSH2 0x878 PUSH1 0x20 DUP5 ADD PUSH2 0x839 JUMP JUMPDEST SWAP1 POP SWAP3 POP SWAP3 SWAP1 POP JUMP JUMPDEST PUSH1 0x0 PUSH1 0x20 DUP3 DUP5 SUB SLT ISZERO PUSH2 0x893 JUMPI PUSH1 0x0 DUP1 REVERT JUMPDEST PUSH2 0x819 DUP3 PUSH2 0x839 JUMP JUMPDEST PUSH1 0x0 DUP1 DUP4 PUSH1 0x1F DUP5 ADD SLT PUSH2 0x8AE JUMPI PUSH1 0x0 DUP1 REVERT JUMPDEST POP DUP2 CALLDATALOAD PUSH8 0xFFFFFFFFFFFFFFFF DUP2 GT ISZERO PUSH2 0x8C6 JUMPI PUSH1 0x0 DUP1 REVERT JUMPDEST PUSH1 0x20 DUP4 ADD SWAP2 POP DUP4 PUSH1 0x20 DUP3 PUSH1 0x5 SHL DUP6 ADD ADD GT ISZERO PUSH2 0x8E1 JUMPI PUSH1 0x0 DUP1 REVERT JUMPDEST SWAP3 POP SWAP3 SWAP1 POP JUMP JUMPDEST PUSH1 0x0 DUP1 PUSH1 0x0 DUP1 PUSH1 0x40 DUP6 DUP8 SUB SLT ISZERO PUSH2 0x8FE JUMPI PUSH1 0x0 DUP1 REVERT JUMPDEST DUP5 CALLDATALOAD PUSH8 0xFFFFFFFFFFFFFFFF DUP1 DUP3 GT ISZERO PUSH2 0x916 JUMPI PUSH1 0x0 DUP1 REVERT JUMPDEST PUSH2 0x922 DUP9 DUP4 DUP10 ADD PUSH2 0x89C JUMP JUMPDEST SWAP1 SWAP7 POP SWAP5 POP PUSH1 0x20 DUP8 ADD CALLDATALOAD SWAP2 POP DUP1 DUP3 GT ISZERO PUSH2 0x93B JUMPI PUSH1 0x0 DUP1 REVERT JUMPDEST POP PUSH2 0x948 DUP8 DUP3 DUP9 ADD PUSH2 0x89C JUMP JUMPDEST SWAP6 SWAP9 SWAP5 SWAP8 POP SWAP6 POP POP POP POP JUMP JUMPDEST PUSH1 0x0 DUP1 PUSH1 0x20 DUP4 DUP6 SUB SLT ISZERO PUSH2 0x967 JUMPI PUSH1 0x0 DUP1 REVERT JUMPDEST DUP3 CALLDATALOAD PUSH8 0xFFFFFFFFFFFFFFFF DUP2 GT ISZERO PUSH2 0x97E JUMPI PUSH1 0x0 DUP1 REVERT JUMPDEST PUSH2 0x98A DUP6 DUP3 DUP7 ADD PUSH2 0x89C JUMP JUMPDEST SWAP1 SWAP7 SWAP1 SWAP6 POP SWAP4 POP POP POP POP JUMP JUMPDEST PUSH1 0x20 DUP1 DUP3 MSTORE DUP3 MLOAD DUP3 DUP3 ADD DUP2 SWAP1 MSTORE PUSH1 0x0 SWAP2 SWAP1 DUP5 DUP3 ADD SWAP1 PUSH1 0x40 DUP6 ADD SWAP1 DUP5 JUMPDEST DUP2 DUP2 LT ISZERO PUSH2 0x9CE JUMPI DUP4 MLOAD DUP4 MSTORE SWAP3 DUP5 ADD SWAP3 SWAP2 DUP5 ADD SWAP2 PUSH1 0x1 ADD PUSH2 0x9B2 JUMP JUMPDEST POP SWAP1 SWAP7 SWAP6 POP POP POP POP POP POP JUMP JUMPDEST PUSH4 0x4E487B71 PUSH1 0xE0 SHL PUSH1 0x0 MSTORE PUSH1 0x32 PUSH1 0x4 MSTORE PUSH1 0x24 PUSH1 0x0 REVERT JUMPDEST PUSH1 0x0 PUSH1 0x1 DUP3 ADD PUSH2 0xA10 JUMPI PUSH4 0x4E487B71 PUSH1 0xE0 SHL PUSH1 0x0 MSTORE PUSH1 0x11 PUSH1 0x4 MSTORE PUSH1 0x24 PUSH1 0x0 REVERT JUMPDEST POP PUSH1 0x1 ADD SWAP1 JUMP JUMPDEST PUSH4 0x4E487B71 PUSH1 0xE0 SHL PUSH1 0x0 MSTORE PUSH1 0x41 PUSH1 0x4 MSTORE PUSH1 0x24 PUSH1 0x0 REVERT INVALID 0xA6 0xA5 0xCA JUMPI 0x2E PUSH11 0x135DA0438A35C2444FD102 REVERT SDIV SWAP1 0xE3 0x2C CALLDATASIZE SDIV PUSH18 0x31095FE8B989B7A264697066735822122021 0xC2 0xE0 SWAP8 0xAB 0xE0 KECCAK256 LOG2 0xC0 0x24 ORIGIN CODESIZE 0xC7 PUSH22 0x2AC856A32788C61BB49A87CE7AC6296ED84864736F6C PUSH4 0x43000818 STOP CALLER "},"methodIdentifiers":{"ADMIN_ROLE()":"75b238fc","DEFAULT_ADMIN_ROLE()":"a217fddf","MAX_BATCH_SIZE()":"cfdbf254","REP_ORACLE_ROLE()":"6022c188","getRoleAdmin(bytes32)":"248a9ca3","grantOracleRole(address)":"df9c49a3","grantRole(bytes32,address)":"2f2ff15d","hasRole(bytes32,address)":"91d14854","lastCheckpointAt()":"1667bcec","lastUpdated(uint256)":"24a29522","lastUpdatedAt(uint256)":"d423bc1d","latestRep(uint256)":"983437a8","renounceRole(bytes32,address)":"36568abe","reputationOf(uint256)":"adf94cca","reputationsOf(uint256[])":"ddffac12","revokeOracleRole(address)":"a5cbe415","revokeRole(bytes32,address)":"d547741f","submitCheckpoint(uint256[],uint256[])":"cd93f3ef","supportsInterface(bytes4)":"01ffc9a7","totalCheckpoints()":"f332687d"}}}}}