{
  "_format": "hh-sol-artifact-1",
  "contractName": "AgentReplication",
  "sourceName": "contracts/web4/AgentReplication.sol",
  "abi": [
    {
      "inputs": [
        {
          "internalType": "address",
          "name": "_nfaToken",
          "type": "address"
        },
        {
          "internalType": "address",
          "name": "_economyHub",
          "type": "address"
        }
      ],
      "stateMutability": "nonpayable",
      "type": "constructor"
    },
    {
      "inputs": [],
      "name": "InsufficientFunding",
      "type": "error"
    },
    {
      "inputs": [],
      "name": "InvalidRevenueShare",
      "type": "error"
    },
    {
      "inputs": [],
      "name": "NoParent",
      "type": "error"
    },
    {
      "inputs": [],
      "name": "NotAgentOwner",
      "type": "error"
    },
    {
      "inputs": [],
      "name": "NotAuthorizedModule",
      "type": "error"
    },
    {
      "inputs": [
        {
          "internalType": "address",
          "name": "owner",
          "type": "address"
        }
      ],
      "name": "OwnableInvalidOwner",
      "type": "error"
    },
    {
      "inputs": [
        {
          "internalType": "address",
          "name": "account",
          "type": "address"
        }
      ],
      "name": "OwnableUnauthorizedAccount",
      "type": "error"
    },
    {
      "inputs": [],
      "name": "ParentNotActive",
      "type": "error"
    },
    {
      "inputs": [],
      "name": "ReentrancyGuardReentrantCall",
      "type": "error"
    },
    {
      "inputs": [],
      "name": "TransferFailed",
      "type": "error"
    },
    {
      "inputs": [],
      "name": "ZeroAmount",
      "type": "error"
    },
    {
      "anonymous": false,
      "inputs": [
        {
          "indexed": true,
          "internalType": "uint256",
          "name": "parentId",
          "type": "uint256"
        },
        {
          "indexed": true,
          "internalType": "uint256",
          "name": "childId",
          "type": "uint256"
        },
        {
          "indexed": false,
          "internalType": "uint16",
          "name": "revenueShareBps",
          "type": "uint16"
        },
        {
          "indexed": false,
          "internalType": "uint256",
          "name": "fundingAmount",
          "type": "uint256"
        },
        {
          "indexed": false,
          "internalType": "address",
          "name": "childOwner",
          "type": "address"
        }
      ],
      "name": "AgentReplicated",
      "type": "event"
    },
    {
      "anonymous": false,
      "inputs": [
        {
          "indexed": true,
          "internalType": "address",
          "name": "module",
          "type": "address"
        },
        {
          "indexed": false,
          "internalType": "bool",
          "name": "authorized",
          "type": "bool"
        }
      ],
      "name": "ModuleAuthorized",
      "type": "event"
    },
    {
      "anonymous": false,
      "inputs": [
        {
          "indexed": true,
          "internalType": "address",
          "name": "previousOwner",
          "type": "address"
        },
        {
          "indexed": true,
          "internalType": "address",
          "name": "newOwner",
          "type": "address"
        }
      ],
      "name": "OwnershipTransferred",
      "type": "event"
    },
    {
      "anonymous": false,
      "inputs": [
        {
          "indexed": true,
          "internalType": "uint256",
          "name": "childId",
          "type": "uint256"
        },
        {
          "indexed": true,
          "internalType": "uint256",
          "name": "parentId",
          "type": "uint256"
        },
        {
          "indexed": false,
          "internalType": "uint256",
          "name": "amount",
          "type": "uint256"
        },
        {
          "indexed": false,
          "internalType": "uint256",
          "name": "totalShared",
          "type": "uint256"
        }
      ],
      "name": "RevenueShared",
      "type": "event"
    },
    {
      "inputs": [],
      "name": "BPS_DENOMINATOR",
      "outputs": [
        {
          "internalType": "uint256",
          "name": "",
          "type": "uint256"
        }
      ],
      "stateMutability": "view",
      "type": "function"
    },
    {
      "inputs": [],
      "name": "MAX_REVENUE_SHARE_BPS",
      "outputs": [
        {
          "internalType": "uint16",
          "name": "",
          "type": "uint16"
        }
      ],
      "stateMutability": "view",
      "type": "function"
    },
    {
      "inputs": [
        {
          "internalType": "address",
          "name": "",
          "type": "address"
        }
      ],
      "name": "authorizedModules",
      "outputs": [
        {
          "internalType": "bool",
          "name": "",
          "type": "bool"
        }
      ],
      "stateMutability": "view",
      "type": "function"
    },
    {
      "inputs": [
        {
          "internalType": "uint256",
          "name": "",
          "type": "uint256"
        }
      ],
      "name": "childLineage",
      "outputs": [
        {
          "internalType": "uint256",
          "name": "parentId",
          "type": "uint256"
        },
        {
          "internalType": "uint16",
          "name": "revenueShareBps",
          "type": "uint16"
        },
        {
          "internalType": "uint256",
          "name": "totalRevenueShared",
          "type": "uint256"
        },
        {
          "internalType": "uint256",
          "name": "replicatedAt",
          "type": "uint256"
        },
        {
          "internalType": "bool",
          "name": "exists",
          "type": "bool"
        }
      ],
      "stateMutability": "view",
      "type": "function"
    },
    {
      "inputs": [],
      "name": "economyHub",
      "outputs": [
        {
          "internalType": "contract IAgentEconomyHubFull",
          "name": "",
          "type": "address"
        }
      ],
      "stateMutability": "view",
      "type": "function"
    },
    {
      "inputs": [
        {
          "internalType": "uint256",
          "name": "parentId",
          "type": "uint256"
        }
      ],
      "name": "getChildCount",
      "outputs": [
        {
          "internalType": "uint256",
          "name": "",
          "type": "uint256"
        }
      ],
      "stateMutability": "view",
      "type": "function"
    },
    {
      "inputs": [
        {
          "internalType": "uint256",
          "name": "parentId",
          "type": "uint256"
        }
      ],
      "name": "getChildren",
      "outputs": [
        {
          "internalType": "uint256[]",
          "name": "",
          "type": "uint256[]"
        }
      ],
      "stateMutability": "view",
      "type": "function"
    },
    {
      "inputs": [
        {
          "internalType": "uint256",
          "name": "childId",
          "type": "uint256"
        }
      ],
      "name": "getLineage",
      "outputs": [
        {
          "components": [
            {
              "internalType": "uint256",
              "name": "parentId",
              "type": "uint256"
            },
            {
              "internalType": "uint16",
              "name": "revenueShareBps",
              "type": "uint16"
            },
            {
              "internalType": "uint256",
              "name": "totalRevenueShared",
              "type": "uint256"
            },
            {
              "internalType": "uint256",
              "name": "replicatedAt",
              "type": "uint256"
            },
            {
              "internalType": "bool",
              "name": "exists",
              "type": "bool"
            }
          ],
          "internalType": "struct AgentReplication.Lineage",
          "name": "",
          "type": "tuple"
        }
      ],
      "stateMutability": "view",
      "type": "function"
    },
    {
      "inputs": [
        {
          "internalType": "uint256",
          "name": "childId",
          "type": "uint256"
        }
      ],
      "name": "getParent",
      "outputs": [
        {
          "internalType": "uint256",
          "name": "parentId",
          "type": "uint256"
        },
        {
          "internalType": "uint16",
          "name": "bps",
          "type": "uint16"
        },
        {
          "internalType": "bool",
          "name": "exists",
          "type": "bool"
        }
      ],
      "stateMutability": "view",
      "type": "function"
    },
    {
      "inputs": [],
      "name": "nfaToken",
      "outputs": [
        {
          "internalType": "contract IBAP578Mintable",
          "name": "",
          "type": "address"
        }
      ],
      "stateMutability": "view",
      "type": "function"
    },
    {
      "inputs": [],
      "name": "owner",
      "outputs": [
        {
          "internalType": "address",
          "name": "",
          "type": "address"
        }
      ],
      "stateMutability": "view",
      "type": "function"
    },
    {
      "inputs": [
        {
          "internalType": "uint256",
          "name": "",
          "type": "uint256"
        },
        {
          "internalType": "uint256",
          "name": "",
          "type": "uint256"
        }
      ],
      "name": "parentChildren",
      "outputs": [
        {
          "internalType": "uint256",
          "name": "",
          "type": "uint256"
        }
      ],
      "stateMutability": "view",
      "type": "function"
    },
    {
      "inputs": [
        {
          "internalType": "uint256",
          "name": "childId",
          "type": "uint256"
        },
        {
          "internalType": "uint256",
          "name": "amount",
          "type": "uint256"
        }
      ],
      "name": "recordRevenueShared",
      "outputs": [],
      "stateMutability": "nonpayable",
      "type": "function"
    },
    {
      "inputs": [],
      "name": "renounceOwnership",
      "outputs": [],
      "stateMutability": "nonpayable",
      "type": "function"
    },
    {
      "inputs": [
        {
          "internalType": "uint256",
          "name": "parentId",
          "type": "uint256"
        },
        {
          "internalType": "address",
          "name": "childOwner",
          "type": "address"
        },
        {
          "internalType": "string",
          "name": "name_",
          "type": "string"
        },
        {
          "internalType": "string",
          "name": "description_",
          "type": "string"
        },
        {
          "internalType": "string",
          "name": "modelType_",
          "type": "string"
        },
        {
          "internalType": "bytes32",
          "name": "systemPromptHash",
          "type": "bytes32"
        },
        {
          "internalType": "string",
          "name": "metadataURI",
          "type": "string"
        },
        {
          "internalType": "uint16",
          "name": "revenueShareBps",
          "type": "uint16"
        },
        {
          "internalType": "uint256",
          "name": "fundingAmount",
          "type": "uint256"
        }
      ],
      "name": "replicate",
      "outputs": [
        {
          "internalType": "uint256",
          "name": "childId",
          "type": "uint256"
        }
      ],
      "stateMutability": "payable",
      "type": "function"
    },
    {
      "inputs": [],
      "name": "replicationFee",
      "outputs": [
        {
          "internalType": "uint256",
          "name": "",
          "type": "uint256"
        }
      ],
      "stateMutability": "view",
      "type": "function"
    },
    {
      "inputs": [
        {
          "internalType": "address",
          "name": "module",
          "type": "address"
        },
        {
          "internalType": "bool",
          "name": "authorized",
          "type": "bool"
        }
      ],
      "name": "setModuleAuthorized",
      "outputs": [],
      "stateMutability": "nonpayable",
      "type": "function"
    },
    {
      "inputs": [
        {
          "internalType": "uint256",
          "name": "_fee",
          "type": "uint256"
        }
      ],
      "name": "setReplicationFee",
      "outputs": [],
      "stateMutability": "nonpayable",
      "type": "function"
    },
    {
      "inputs": [
        {
          "internalType": "address",
          "name": "newOwner",
          "type": "address"
        }
      ],
      "name": "transferOwnership",
      "outputs": [],
      "stateMutability": "nonpayable",
      "type": "function"
    }
  ],
  "bytecode": "0x60c03461014357601f6112ce38819003918201601f19168301916001600160401b0383118484101761014857808492604094855283398101031261014357610052602061004b8361015e565b920161015e565b90331561012a5760008054336001600160a01b0319821681178355604051946001600160a01b0394909385939192918416907f8be0079c531659141344cd1fd0a4f28419497f9722a3daafe3b4186f6b6457e09080a3600180556611c37937e08000600555166080521660a05261115b90816101738239608051818181610235015281816107c00152818161082701528181610891015281816109c101528181610a070152610a6c015260a051818181610392015281816108f601528181610a9d01528181610af101528181610b2d0152610b850152f35b604051631e4fbdf760e01b815260006004820152602490fd5b600080fd5b634e487b7160e01b600052604160045260246000fd5b51906001600160a01b03821682036101435756fe608080604052600436101561001357600080fd5b600090813560e01c9081630d5c609b146106f05750806317f6fe5b146106b15780633ceaef1e1461068e578063403d66b21461064d578063414533de1461060257806349ae8dc31461055e57806357c6cc39146104a75780636431d6901461041b578063715018a6146103c157806373bbfe821461037c5780637a77af5c146103525780638da5cb5b1461032b578063b5ae20581461030e578063b8cbb10714610264578063bfd8fefc1461021f578063c86dde4f146101bf578063e1a45218146101a2578063f2fde38b146101125763fffba098146100f257600080fd5b3461010f578060031936011261010f576020600554604051908152f35b80fd5b503461010f57602036600319011261010f5761012c610f80565b6101346110f9565b6001600160a01b0390811690811561018957600054826bffffffffffffffffffffffff60a01b821617600055167f8be0079c531659141344cd1fd0a4f28419497f9722a3daafe3b4186f6b6457e0600080a380f35b604051631e4fbdf760e01b815260048101849052602490fd5b503461010f578060031936011261010f5760206040516127108152f35b503461010f57602036600319011261010f57604060a091600435815260026020522080549061ffff60018201541690600281015460ff60046003840154930154169260405194855260208501526040840152606083015215156080820152f35b503461010f578060031936011261010f576040517f00000000000000000000000000000000000000000000000000000000000000006001600160a01b03168152602090f35b503461010f5761027336610fc9565b90338352600460205260ff604084205416156102fc578083526002602052604083209160ff600484015416156102ea5760407fdb8541ae165c617401adfc561428b410a690a08a8dbc77a6be816c00e6b230a49160028501946102d7828754611075565b809655549482519182526020820152a380f35b60405163175ba4b360e21b8152600490fd5b60405163ae75444760e01b8152600490fd5b503461010f578060031936011261010f5760206040516113888152f35b503461010f578060031936011261010f57546040516001600160a01b039091168152602090f35b503461010f57602036600319011261010f5760406020916004358152600383522054604051908152f35b503461010f578060031936011261010f576040517f00000000000000000000000000000000000000000000000000000000000000006001600160a01b03168152602090f35b503461010f578060031936011261010f576103da6110f9565b600080546001600160a01b0319811682556001600160a01b03167f8be0079c531659141344cd1fd0a4f28419497f9722a3daafe3b4186f6b6457e08280a380f35b503461010f57604036600319011261010f57610435610f80565b60243590811515908183036104a3577f7bfed9e73cc01c459d482800942a9eef9046d01f68c4881d389495df294d10ca916104996020926104746110f9565b60018060a01b03169485875260048452604087209060ff801983541691151516179055565b604051908152a280f35b8380fd5b503461010f57602036600319011261010f5760408160a092608083516104cc81611037565b8281528260208201528285820152826060820152015260043581526002602052206040516104f981611037565b81549182825261ffff80600183015416906020840191825260028301549160408501928352608060ff60046003870154966060890197885201541695019415158552604051958652511660208501525160408401525160608301525115156080820152f35b503461010f576020806003193601126105fe576004358252600381526040822060405192838383549182815201908193835284832090835b8181106105ea57505050846105ac910385611053565b60405193838594850191818652518092526040850193925b8281106105d357505050500390f35b8351855286955093810193928101926001016105c4565b825484529286019260019283019201610596565b5080fd5b503461010f57602036600319011261010f576040606091600435815260026020522080549060ff600461ffff6001840154169201541690604051928352602083015215156040820152f35b503461010f5761065c36610fc9565b9190815260036020526040812090815483101561010f57602061067f8484610fdf565b90549060031b1c604051908152f35b503461010f57602036600319011261010f576106a86110f9565b60043560055580f35b503461010f57602036600319011261010f5760209060ff906040906001600160a01b036106dc610f80565b168152600484522054166040519015158152f35b8261012036600319011261010f576024356001600160a01b03811681036105fe5767ffffffffffffffff916044358381116105fe57610733903690600401610f9b565b919093606435818111610f7c5761074e903690600401610f9b565b959093608435838111610f7857610769903690600401610f9b565b9360c435908111610f7457610782903690600401610f9b565b909160e4359a61ffff8c168c03610e8a57600260015414610f65575060026001556040516331a9108f60e11b815260048035908201526020816024817f00000000000000000000000000000000000000000000000000000000000000006001600160a01b03165afa908115610e96578891610f23575b50336001600160a01b0390911603610f1157604051631c9696c760e11b815260048035908201526020816024817f00000000000000000000000000000000000000000000000000000000000000006001600160a01b03165afa908115610e96578891610ed6575b5015610ec55761138861ffff8c1611610eb3576101043515610ea1576040516313966db560e01b8152956020876004817f00000000000000000000000000000000000000000000000000000000000000006001600160a01b03165afa968715610e96578897610e5e575b506108d687600554611075565b604051634903b0d160e01b815260048035908201529099906020816024817f00000000000000000000000000000000000000000000000000000000000000006001600160a01b03165afa908115610e53578a91610e1d575b506101043511610e0b57893410610e0b5760405163cdcc6d6960e01b815260e060048201529b8c9788976109679160e48a019190611098565b9060031988830301602489015261097d92611098565b9060031986830301604487015261099392611098565b90606484016001905260a43560848501528660a48501526003198483030160c48501526109bf92611098565b7f00000000000000000000000000000000000000000000000000000000000000006001600160a01b0316939190039082905a94602095f1938415610dfe578194610dca575b507f00000000000000000000000000000000000000000000000000000000000000006001600160a01b03163b1561010f576040516323b872dd60e01b81523060048201526001600160a01b0384811660248301526044820186905282908290606490829084907f0000000000000000000000000000000000000000000000000000000000000000165af18015610dbf57610db0575b50907f00000000000000000000000000000000000000000000000000000000000000006001600160a01b03163b156105fe5760405163a6f7986160e01b815260048035908201526101043560248201528281604481837f00000000000000000000000000000000000000000000000000000000000000006001600160a01b03165af18015610d9157908391610d9c575b50507f00000000000000000000000000000000000000000000000000000000000000006001600160a01b03163b156105fe57604051635488ba9360e01b81526004810185905261010435602482018190528390829060449082907f00000000000000000000000000000000000000000000000000000000000000006001600160a01b03165af18015610d9157908391610d7d575b5050610c3e604051610bce81611037565b600435815260046020820161ffff891681526040830186815260608401904282526080850192600184528a89526002602052604089209551865561ffff6001870191511661ffff1982541617905551600285015551600384015551151591019060ff801983541691151516179055565b600435825260036020526040822080549068010000000000000000821015610d695790610c7091600182018155610fdf565b81549060031b9086821b91600019901b191617905580340390348211610d55579082913403610d39575b505060055480610cfe575b60208480878661ffff60405192168252610104358583015260018060a01b031660408201527fc4562a56824d2f193a9631da738a40fafa2519e676de557566371afe26617e42606060043592a360018055604051908152f35b8154829182918291906001600160a01b03165af1610d1a6110b9565b5015610d27578380610ca5565b6040516312171d8360e31b8152600490fd5b81808092335af1610d486110b9565b5015610d27578085610c9a565b634e487b7160e01b83526011600452602483fd5b634e487b7160e01b84526041600452602484fd5b610d869061100d565b6105fe578186610bbd565b6040513d85823e3d90fd5b610da59061100d565b6105fe578186610b29565b610db99061100d565b85610a99565b6040513d84823e3d90fd5b9093506020813d602011610df6575b81610de660209383611053565b810103126104a357519285610a04565b3d9150610dd9565b50604051903d90823e3d90fd5b6040516357e000b160e01b8152600490fd5b90506020813d602011610e4b575b81610e3860209383611053565b81010312610e4757518e61092e565b8980fd5b3d9150610e2b565b6040513d8c823e3d90fd5b9096506020813d602011610e8e575b81610e7a60209383611053565b81010312610e8a5751958c6108c9565b8780fd5b3d9150610e6d565b6040513d8a823e3d90fd5b604051631f2a200560e01b8152600490fd5b604051630c1405c960e31b8152600490fd5b60405162cc037960e61b8152600490fd5b90506020813d602011610f09575b81610ef160209383611053565b81010312610e8a57518015158103610e8a578c61085f565b3d9150610ee4565b604051630e41dcbf60e21b8152600490fd5b90506020813d602011610f5d575b81610f3e60209383611053565b81010312610e8a57516001600160a01b0381168103610e8a578c6107f8565b3d9150610f31565b633ee5aeb560e01b8152600490fd5b8580fd5b8480fd5b8280fd5b600435906001600160a01b0382168203610f9657565b600080fd5b9181601f84011215610f965782359167ffffffffffffffff8311610f965760208381860195010111610f9657565b6040906003190112610f96576004359060243590565b8054821015610ff75760005260206000200190600090565b634e487b7160e01b600052603260045260246000fd5b67ffffffffffffffff811161102157604052565b634e487b7160e01b600052604160045260246000fd5b60a0810190811067ffffffffffffffff82111761102157604052565b90601f8019910116810190811067ffffffffffffffff82111761102157604052565b9190820180921161108257565b634e487b7160e01b600052601160045260246000fd5b908060209392818452848401376000828201840152601f01601f1916010190565b3d156110f4573d9067ffffffffffffffff821161102157604051916110e8601f8201601f191660200184611053565b82523d6000602084013e565b606090565b6000546001600160a01b0316330361110d57565b60405163118cdaa760e01b8152336004820152602490fdfea2646970667358221220c8ee1232d5dbadb6f5f6ac42dec1d4c6f52a8cb97ee4f4c35249b2f14cb34db164736f6c63430008180033",
  "linkReferences": {},
  "deployedLinkReferences": {}
}