{
  "_format": "hh-sol-artifact-1",
  "contractName": "SkillMarketplace",
  "sourceName": "contracts/web4/SkillMarketplace.sol",
  "abi": [
    {
      "inputs": [
        {
          "internalType": "address",
          "name": "_agentToken",
          "type": "address"
        },
        {
          "internalType": "address",
          "name": "_economyHub",
          "type": "address"
        },
        {
          "internalType": "address",
          "name": "_feeVault",
          "type": "address"
        }
      ],
      "stateMutability": "nonpayable",
      "type": "constructor"
    },
    {
      "inputs": [],
      "name": "AlreadyPurchased",
      "type": "error"
    },
    {
      "inputs": [],
      "name": "CannotBuyOwnSkill",
      "type": "error"
    },
    {
      "inputs": [],
      "name": "InsufficientPayment",
      "type": "error"
    },
    {
      "inputs": [],
      "name": "NotAgentOwner",
      "type": "error"
    },
    {
      "inputs": [
        {
          "internalType": "address",
          "name": "owner",
          "type": "address"
        }
      ],
      "name": "OwnableInvalidOwner",
      "type": "error"
    },
    {
      "inputs": [
        {
          "internalType": "address",
          "name": "account",
          "type": "address"
        }
      ],
      "name": "OwnableUnauthorizedAccount",
      "type": "error"
    },
    {
      "inputs": [],
      "name": "ReentrancyGuardReentrantCall",
      "type": "error"
    },
    {
      "inputs": [],
      "name": "SkillInactive",
      "type": "error"
    },
    {
      "inputs": [],
      "name": "SkillNotFound",
      "type": "error"
    },
    {
      "inputs": [],
      "name": "TransferFailed",
      "type": "error"
    },
    {
      "inputs": [],
      "name": "ZeroPrice",
      "type": "error"
    },
    {
      "anonymous": false,
      "inputs": [
        {
          "indexed": true,
          "internalType": "address",
          "name": "previousOwner",
          "type": "address"
        },
        {
          "indexed": true,
          "internalType": "address",
          "name": "newOwner",
          "type": "address"
        }
      ],
      "name": "OwnershipTransferred",
      "type": "event"
    },
    {
      "anonymous": false,
      "inputs": [
        {
          "indexed": true,
          "internalType": "uint256",
          "name": "skillId",
          "type": "uint256"
        },
        {
          "indexed": true,
          "internalType": "uint256",
          "name": "agentId",
          "type": "uint256"
        },
        {
          "indexed": false,
          "internalType": "uint256",
          "name": "price",
          "type": "uint256"
        },
        {
          "indexed": false,
          "internalType": "bytes32",
          "name": "metadataHash",
          "type": "bytes32"
        },
        {
          "indexed": false,
          "internalType": "string",
          "name": "category",
          "type": "string"
        }
      ],
      "name": "SkillCreated",
      "type": "event"
    },
    {
      "anonymous": false,
      "inputs": [
        {
          "indexed": true,
          "internalType": "uint256",
          "name": "skillId",
          "type": "uint256"
        },
        {
          "indexed": true,
          "internalType": "uint256",
          "name": "buyerAgentId",
          "type": "uint256"
        },
        {
          "indexed": true,
          "internalType": "uint256",
          "name": "sellerAgentId",
          "type": "uint256"
        },
        {
          "indexed": false,
          "internalType": "uint256",
          "name": "totalPaid",
          "type": "uint256"
        },
        {
          "indexed": false,
          "internalType": "uint256",
          "name": "sellerAmount",
          "type": "uint256"
        },
        {
          "indexed": false,
          "internalType": "uint256",
          "name": "platformFee",
          "type": "uint256"
        },
        {
          "indexed": false,
          "internalType": "uint256",
          "name": "parentShare",
          "type": "uint256"
        }
      ],
      "name": "SkillPurchased",
      "type": "event"
    },
    {
      "anonymous": false,
      "inputs": [
        {
          "indexed": true,
          "internalType": "uint256",
          "name": "skillId",
          "type": "uint256"
        },
        {
          "indexed": false,
          "internalType": "uint256",
          "name": "price",
          "type": "uint256"
        },
        {
          "indexed": false,
          "internalType": "bool",
          "name": "active",
          "type": "bool"
        }
      ],
      "name": "SkillUpdated",
      "type": "event"
    },
    {
      "inputs": [],
      "name": "BPS_DENOMINATOR",
      "outputs": [
        {
          "internalType": "uint256",
          "name": "",
          "type": "uint256"
        }
      ],
      "stateMutability": "view",
      "type": "function"
    },
    {
      "inputs": [
        {
          "internalType": "uint256",
          "name": "",
          "type": "uint256"
        },
        {
          "internalType": "uint256",
          "name": "",
          "type": "uint256"
        }
      ],
      "name": "agentSkills",
      "outputs": [
        {
          "internalType": "uint256",
          "name": "",
          "type": "uint256"
        }
      ],
      "stateMutability": "view",
      "type": "function"
    },
    {
      "inputs": [],
      "name": "agentToken",
      "outputs": [
        {
          "internalType": "contract IAgentIdentity",
          "name": "",
          "type": "address"
        }
      ],
      "stateMutability": "view",
      "type": "function"
    },
    {
      "inputs": [
        {
          "internalType": "uint256",
          "name": "agentId",
          "type": "uint256"
        },
        {
          "internalType": "uint256",
          "name": "price",
          "type": "uint256"
        },
        {
          "internalType": "bytes32",
          "name": "metadataHash",
          "type": "bytes32"
        },
        {
          "internalType": "string",
          "name": "category",
          "type": "string"
        }
      ],
      "name": "createSkill",
      "outputs": [
        {
          "internalType": "uint256",
          "name": "skillId",
          "type": "uint256"
        }
      ],
      "stateMutability": "nonpayable",
      "type": "function"
    },
    {
      "inputs": [],
      "name": "economyHub",
      "outputs": [
        {
          "internalType": "contract IAgentEconomyHub",
          "name": "",
          "type": "address"
        }
      ],
      "stateMutability": "view",
      "type": "function"
    },
    {
      "inputs": [],
      "name": "feeVault",
      "outputs": [
        {
          "internalType": "address",
          "name": "",
          "type": "address"
        }
      ],
      "stateMutability": "view",
      "type": "function"
    },
    {
      "inputs": [
        {
          "internalType": "uint256",
          "name": "agentId",
          "type": "uint256"
        }
      ],
      "name": "getAgentSkillIds",
      "outputs": [
        {
          "internalType": "uint256[]",
          "name": "",
          "type": "uint256[]"
        }
      ],
      "stateMutability": "view",
      "type": "function"
    },
    {
      "inputs": [
        {
          "internalType": "uint256",
          "name": "skillId",
          "type": "uint256"
        }
      ],
      "name": "getSkill",
      "outputs": [
        {
          "components": [
            {
              "internalType": "uint256",
              "name": "agentId",
              "type": "uint256"
            },
            {
              "internalType": "uint256",
              "name": "price",
              "type": "uint256"
            },
            {
              "internalType": "bytes32",
              "name": "metadataHash",
              "type": "bytes32"
            },
            {
              "internalType": "string",
              "name": "category",
              "type": "string"
            },
            {
              "internalType": "bool",
              "name": "active",
              "type": "bool"
            },
            {
              "internalType": "uint256",
              "name": "totalPurchases",
              "type": "uint256"
            },
            {
              "internalType": "uint256",
              "name": "totalRevenue",
              "type": "uint256"
            },
            {
              "internalType": "uint256",
              "name": "createdAt",
              "type": "uint256"
            }
          ],
          "internalType": "struct SkillMarketplace.Skill",
          "name": "",
          "type": "tuple"
        }
      ],
      "stateMutability": "view",
      "type": "function"
    },
    {
      "inputs": [],
      "name": "getSkillCount",
      "outputs": [
        {
          "internalType": "uint256",
          "name": "",
          "type": "uint256"
        }
      ],
      "stateMutability": "view",
      "type": "function"
    },
    {
      "inputs": [
        {
          "internalType": "uint256",
          "name": "",
          "type": "uint256"
        },
        {
          "internalType": "uint256",
          "name": "",
          "type": "uint256"
        }
      ],
      "name": "hasPurchased",
      "outputs": [
        {
          "internalType": "bool",
          "name": "",
          "type": "bool"
        }
      ],
      "stateMutability": "view",
      "type": "function"
    },
    {
      "inputs": [],
      "name": "owner",
      "outputs": [
        {
          "internalType": "address",
          "name": "",
          "type": "address"
        }
      ],
      "stateMutability": "view",
      "type": "function"
    },
    {
      "inputs": [],
      "name": "platformFeeBps",
      "outputs": [
        {
          "internalType": "uint256",
          "name": "",
          "type": "uint256"
        }
      ],
      "stateMutability": "view",
      "type": "function"
    },
    {
      "inputs": [
        {
          "internalType": "uint256",
          "name": "skillId",
          "type": "uint256"
        },
        {
          "internalType": "uint256",
          "name": "buyerAgentId",
          "type": "uint256"
        }
      ],
      "name": "purchaseSkill",
      "outputs": [],
      "stateMutability": "payable",
      "type": "function"
    },
    {
      "inputs": [],
      "name": "renounceOwnership",
      "outputs": [],
      "stateMutability": "nonpayable",
      "type": "function"
    },
    {
      "inputs": [],
      "name": "revenueSharing",
      "outputs": [
        {
          "internalType": "contract IRevenueSharing",
          "name": "",
          "type": "address"
        }
      ],
      "stateMutability": "view",
      "type": "function"
    },
    {
      "inputs": [
        {
          "internalType": "address",
          "name": "_feeVault",
          "type": "address"
        }
      ],
      "name": "setFeeVault",
      "outputs": [],
      "stateMutability": "nonpayable",
      "type": "function"
    },
    {
      "inputs": [
        {
          "internalType": "uint256",
          "name": "_bps",
          "type": "uint256"
        }
      ],
      "name": "setPlatformFeeBps",
      "outputs": [],
      "stateMutability": "nonpayable",
      "type": "function"
    },
    {
      "inputs": [
        {
          "internalType": "address",
          "name": "_revenueSharing",
          "type": "address"
        }
      ],
      "name": "setRevenueSharing",
      "outputs": [],
      "stateMutability": "nonpayable",
      "type": "function"
    },
    {
      "inputs": [
        {
          "internalType": "uint256",
          "name": "",
          "type": "uint256"
        }
      ],
      "name": "skills",
      "outputs": [
        {
          "internalType": "uint256",
          "name": "agentId",
          "type": "uint256"
        },
        {
          "internalType": "uint256",
          "name": "price",
          "type": "uint256"
        },
        {
          "internalType": "bytes32",
          "name": "metadataHash",
          "type": "bytes32"
        },
        {
          "internalType": "string",
          "name": "category",
          "type": "string"
        },
        {
          "internalType": "bool",
          "name": "active",
          "type": "bool"
        },
        {
          "internalType": "uint256",
          "name": "totalPurchases",
          "type": "uint256"
        },
        {
          "internalType": "uint256",
          "name": "totalRevenue",
          "type": "uint256"
        },
        {
          "internalType": "uint256",
          "name": "createdAt",
          "type": "uint256"
        }
      ],
      "stateMutability": "view",
      "type": "function"
    },
    {
      "inputs": [
        {
          "internalType": "address",
          "name": "newOwner",
          "type": "address"
        }
      ],
      "name": "transferOwnership",
      "outputs": [],
      "stateMutability": "nonpayable",
      "type": "function"
    },
    {
      "inputs": [
        {
          "internalType": "uint256",
          "name": "skillId",
          "type": "uint256"
        },
        {
          "internalType": "uint256",
          "name": "price",
          "type": "uint256"
        },
        {
          "internalType": "bool",
          "name": "active",
          "type": "bool"
        }
      ],
      "name": "updateSkill",
      "outputs": [],
      "stateMutability": "nonpayable",
      "type": "function"
    }
  ],
  "bytecode": "0x60c03461012d57601f6114b138819003918201601f19168301916001600160401b038311848410176101325780849260609460405283398101031261012d5761004781610148565b61005f604061005860208501610148565b9301610148565b91331561011457600080546001600160a01b03198082163390811784556040519691956001600160a01b039592948694859391908416907f8be0079c531659141344cd1fd0a4f28419497f9722a3daafe3b4186f6b6457e09080a36001805560fa6003556001600555166080521660a05216906004541617600455611354908161015d823960805181818161044a015281816104ea0152610e21015260a0518181816109ff01528181610bab0152610d340152f35b604051631e4fbdf760e01b815260006004820152602490fd5b600080fd5b634e487b7160e01b600052604160045260246000fd5b51906001600160a01b038216820361012d5756fe608080604052600436101561001357600080fd5b60009060e08235811c91826305f53b2914611043575081630b6e14fb1461100357816322dcd13e14610fe55781632e442adb14610fa0578163478222c214610f7757816350d15fbe14610ee15781636d77ffae14610dbd578163715018a614610d6357816373bbfe8214610d1e5781638caf9b3f146108f85781638da5cb5b146108d1578163a591f97f1461088c578163a8e5516a14610479578163b05707e914610434578163bc8345c014610394578163bd880fae1461027557508063c580c94214610215578063c8615e01146101e3578063d56a9e84146101ba578063e1a452181461019d5763f2fde38b1461010a57600080fd5b3461019a57602036600319011261019a576004356001600160a01b0381811691829003610196576101396112f2565b811561017d57600054826001600160601b0360a01b821617600055167f8be0079c531659141344cd1fd0a4f28419497f9722a3daafe3b4186f6b6457e0600080a380f35b604051631e4fbdf760e01b815260048101849052602490fd5b8280fd5b80fd5b503461019a578060031936011261019a5760206040516127108152f35b503461019a578060031936011261019a576002546040516001600160a01b039091168152602090f35b503461019a5760ff60406020926101f936611080565b9082526008855282822090825284522054166040519015158152f35b503461019a57602036600319011261019a576004356102326112f2565b6103e881116102415760035580f35b60405162461bcd60e51b815260206004820152600c60248201526b08ccaca40e8dede40d0d2ced60a31b6044820152606490fd5b905034610390576020918260031936011261019a578060409183835161029a8161112d565b828152828782015282858201526060808201528260808201528260a08201528260c0820152015260043581526006845220604051916102d88361112d565b815483526001820154848401908152600283015491604085019283526103006003850161116c565b936060860194855260ff6004820154169460808701951515865260058201549460a08801958652600760068401549360c08a01948552015494848901958652604051998a99818b5251908a01525160408901525160608801525193610373610100958660808a0152610120890190611211565b9551151560a08801525160c0870152519085015251908301520390f35b5080fd5b823461019a57602080600319360112610390576004358252600781526040822060405192838383549182815201908193835284832090835b81811061042057505050846103e291038561114a565b60405193838594850191818652518092526040850193925b82811061040957505050500390f35b8351855286955093810193928101926001016103fa565b8254845292860192600192830192016103cc565b823461019a578060031936011261019a576040517f00000000000000000000000000000000000000000000000000000000000000006001600160a01b03168152602090f35b9050346103905760803660031901126103905760643567ffffffffffffffff8082116108885736602383011215610888578082600401351161088857366024836004013584010111610888576040516331a9108f60e11b815260048035908201526001600160a01b036020826024817f000000000000000000000000000000000000000000000000000000000000000085165afa91821561087d57869261084c575b503391160361083a576024351561082857600554926000198414610814576001840160055560405161054c8161112d565b60043581526020810192602435845260408201604435815261057186600401356112a6565b9061057f604051928361114a565b600487013580835260248801602084013788602088600401358401015260608401918252600160808501528860a08501528860c085015242858501528789526006602052604089209584518755516001870155516002860155518051918211610800576105ef60038601546110c9565b601f81116107bb575b50602090601f831160011461074a5760079493929189918361073f575b50508160011b916000199060031b1c19161760038501555b61064c60808201511515600486019060ff801983541691151516179055565b60a0810151600585015560c08101516006850155015191015560043583526007602052604083208054906801000000000000000082101561072b576020946106bc837f86a7def6fd2b6d7f6be86797ca6b24ce4d015eb3b8278ff23e6ff896814e59da936001889601815561109b565b81549060031b9085821b91600019901b19161790556040519060243582526044358783015260606040830152846004013560608301528460040135602486016080840137608085600401358301015260808160043595601f8019916004013501168101030190a3604051908152f35b634e487b7160e01b85526041600452602485fd5b015190503880610615565b906003860189526020892091895b601f19851681106107a357509183916001936007979695601f1981161061078a575b505050811b01600385015561062d565b015160001960f88460031b161c1916905538808061077a565b91926020600181928685015181550194019201610758565b60038601895260208920601f840160051c8101602085106107f9575b601f830160051c820181106107ed5750506105f8565b600081556001016107d7565b50806107d7565b634e487b7160e01b88526041600452602488fd5b634e487b7160e01b85526011600452602485fd5b604051634dfba02360e01b8152600490fd5b604051630e41dcbf60e21b8152600490fd5b61086f91925060203d602011610876575b610867818361114a565b810190611274565b903861051b565b503d61085d565b6040513d88823e3d90fd5b8380fd5b823461019a57602036600319011261019a576004356001600160a01b03811690819003610390576108bb6112f2565b6001600160601b0360a01b600454161760045580f35b823461019a578060031936011261019a57546040516001600160a01b039091168152602090f35b8261090236611080565b906001916002835414610d0c57600283558184526020916006835260408520600781015415610cfa5760ff60048201541615610ce8578481019384543410610cd65783825414610cc4578387526008815260408720838852815260ff604088205416610cb25783875260088152604087208388528152604087208660ff1982541617905560058201805490878201809211610c9e5755845460068301805490828201809211610c8a575561271092836109bd60035484611293565b0490899260018060a01b03958b87600254169283610b3a575b509150506109ee846109e9858c54611251565b611251565b9583151580610b2d575b610b0c575b7f0000000000000000000000000000000000000000000000000000000000000000168254813b15610196578791604484926040519485938492635488ba9360e01b845260048401528160248401525af18015610b0157610ae9575b508854803411610aaa575b5050907fae2614130431f49aae94c5a67ffaef14ba6ae71c73e65b76e620deef6de9b3b29460809493925498549360405194855284015260408301526060820152a4805580f35b8180610abc8193989796959834611251565b335af1610ac76112c2565b5015610ad757909192898b610a63565b6040516312171d8360e31b8152600490fd5b610af290611103565b610afd57898b610a58565b8980fd5b6040513d84823e3d90fd5b908080808685600454165af1610b206112c2565b5015610ad7578a906109fd565b50806004541615156109f8565b606085546024604051809781936320a299ef60e11b835260048301525afa8015610b015782948391610c2b575b5080610c1e575b610b7b575b8d91506109d6565b610b9792939650610b8f8661ffff92611251565b911690611293565b049283610ba7575b808080610b73565b8a867f000000000000000000000000000000000000000000000000000000000000000016803b1561039057604486936040519485938492635488ba9360e01b845260048401528160248401525af18015610c135715610b9f57610c0c909a919a611103565b988a610b9f565b6040513d8d823e3d90fd5b5061ffff82161515610b6e565b94505090506060833d606011610c82575b81610c496060938361114a565b81010312610c7e57825190878401519361ffff85168503610c7a5760400151918215158303610c7a5793918f610b67565b8e80fd5b8c80fd5b3d9150610c3c565b634e487b7160e01b8a52601160045260248afd5b634e487b7160e01b89526011600452602489fd5b604051630cd9ed5560e21b8152600490fd5b6040516307bb189960e21b8152600490fd5b60405163cd1c886760e01b8152600490fd5b60405163216f170f60e01b8152600490fd5b6040516301f4bca560e01b8152600490fd5b604051633ee5aeb560e01b8152600490fd5b823461019a578060031936011261019a576040517f00000000000000000000000000000000000000000000000000000000000000006001600160a01b03168152602090f35b823461019a578060031936011261019a57610d7c6112f2565b80546001600160a01b03198116825581906001600160a01b03167f8be0079c531659141344cd1fd0a4f28419497f9722a3daafe3b4186f6b6457e08280a380f35b823461019a57606036600319011261019a5760043560243560443580151591828203610edd5783855260066020526040852092600784015415610cfa5783546040516331a9108f60e11b815260048101919091526001600160a01b036020826024817f000000000000000000000000000000000000000000000000000000000000000085165afa918215610ed2578892610eb1575b503391160361083a57811561082857610ea36040936004868560017f15769f37b83c1d7ea0c46663b4880dc3ef471abc7615a142288f1282b166d748990155019060ff801983541691151516179055565b82519182526020820152a280f35b610ecb91925060203d60201161087657610867818361114a565b9088610e52565b6040513d8a823e3d90fd5b8480fd5b823461019a57602036600319011261019a576040906004358152600660205220805490600181015491600282015493610f1c6003840161116c565b9260ff60048201541693610f5e6005830154916007600685015494015495604051998a99610100928b5260208b015260408a01528060608a0152880190611211565b941515608087015260a086015260c08501528301520390f35b823461019a578060031936011261019a576004546040516001600160a01b039091168152602090f35b823461019a57602036600319011261019a576004356001600160a01b0381169081900361039057610fcf6112f2565b6001600160601b0360a01b600254161760025580f35b823461019a578060031936011261019a576020600354604051908152f35b823461019a5761101236611080565b9190815260076020526040812090815483101561019a576020611035848461109b565b90546040519160031b1c8152f35b839034610390578160031936011261039057600554600019810190811161106c57602092508152f35b634e487b7160e01b83526011600452602483fd5b6040906003190112611096576004359060243590565b600080fd5b80548210156110b35760005260206000200190600090565b634e487b7160e01b600052603260045260246000fd5b90600182811c921680156110f9575b60208310146110e357565b634e487b7160e01b600052602260045260246000fd5b91607f16916110d8565b67ffffffffffffffff811161111757604052565b634e487b7160e01b600052604160045260246000fd5b610100810190811067ffffffffffffffff82111761111757604052565b90601f8019910116810190811067ffffffffffffffff82111761111757604052565b9060405191826000825461117f816110c9565b908184526020946001916001811690816000146111ef57506001146111b0575b5050506111ae9250038361114a565b565b600090815285812095935091905b8183106111d75750506111ae935082010138808061119f565b855488840185015294850194879450918301916111be565b925050506111ae94925060ff191682840152151560051b82010138808061119f565b919082519283825260005b84811061123d575050826000602080949584010152601f8019910116010190565b60208183018101518483018201520161121c565b9190820391821161125e57565b634e487b7160e01b600052601160045260246000fd5b9081602091031261109657516001600160a01b03811681036110965790565b8181029291811591840414171561125e57565b67ffffffffffffffff811161111757601f01601f191660200190565b3d156112ed573d906112d3826112a6565b916112e1604051938461114a565b82523d6000602084013e565b606090565b6000546001600160a01b0316330361130657565b60405163118cdaa760e01b8152336004820152602490fdfea2646970667358221220af947cc07ca37a821d6de3097071023020c14f925d2901b0174a344bf545d41964736f6c63430008180033",
  "linkReferences": {},
  "deployedLinkReferences": {}
}