{
  "_format": "hh-sol-artifact-1",
  "contractName": "HoneycombBondingCurveMarket",
  "sourceName": "contracts/launchpad/HoneycombBondingCurveMarket.sol",
  "abi": [
    {
      "inputs": [
        {
          "internalType": "address",
          "name": "_factory",
          "type": "address"
        },
        {
          "internalType": "address",
          "name": "_feeVault",
          "type": "address"
        },
        {
          "internalType": "uint256",
          "name": "_graduationThreshold",
          "type": "uint256"
        },
        {
          "internalType": "uint256",
          "name": "_cooldownSeconds",
          "type": "uint256"
        },
        {
          "internalType": "uint256",
          "name": "_maxBuyPerTx",
          "type": "uint256"
        },
        {
          "internalType": "uint256",
          "name": "_launchDelay",
          "type": "uint256"
        },
        {
          "internalType": "uint256",
          "name": "_initialVirtualNative",
          "type": "uint256"
        },
        {
          "internalType": "uint256",
          "name": "_initialVirtualToken",
          "type": "uint256"
        }
      ],
      "stateMutability": "nonpayable",
      "type": "constructor"
    },
    {
      "inputs": [],
      "name": "AlreadyWithdrawn",
      "type": "error"
    },
    {
      "inputs": [],
      "name": "CooldownActive",
      "type": "error"
    },
    {
      "inputs": [],
      "name": "ExceedsMaxBuy",
      "type": "error"
    },
    {
      "inputs": [],
      "name": "InsufficientNative",
      "type": "error"
    },
    {
      "inputs": [],
      "name": "MarketAlreadyInitialized",
      "type": "error"
    },
    {
      "inputs": [],
      "name": "MarketNotInitialized",
      "type": "error"
    },
    {
      "inputs": [],
      "name": "NotGraduated",
      "type": "error"
    },
    {
      "inputs": [],
      "name": "OnlyMigrationContract",
      "type": "error"
    },
    {
      "inputs": [
        {
          "internalType": "address",
          "name": "owner",
          "type": "address"
        }
      ],
      "name": "OwnableInvalidOwner",
      "type": "error"
    },
    {
      "inputs": [
        {
          "internalType": "address",
          "name": "account",
          "type": "address"
        }
      ],
      "name": "OwnableUnauthorizedAccount",
      "type": "error"
    },
    {
      "inputs": [],
      "name": "ReentrancyGuardReentrantCall",
      "type": "error"
    },
    {
      "inputs": [],
      "name": "SlippageExceeded",
      "type": "error"
    },
    {
      "inputs": [],
      "name": "TokenGraduated",
      "type": "error"
    },
    {
      "inputs": [],
      "name": "TokenNotFromFactory",
      "type": "error"
    },
    {
      "inputs": [],
      "name": "TradingNotStarted",
      "type": "error"
    },
    {
      "inputs": [],
      "name": "TransferFailed",
      "type": "error"
    },
    {
      "inputs": [],
      "name": "ZeroAmount",
      "type": "error"
    },
    {
      "anonymous": false,
      "inputs": [
        {
          "indexed": true,
          "internalType": "address",
          "name": "token",
          "type": "address"
        },
        {
          "indexed": false,
          "internalType": "uint256",
          "name": "totalRaised",
          "type": "uint256"
        }
      ],
      "name": "Graduated",
      "type": "event"
    },
    {
      "anonymous": false,
      "inputs": [
        {
          "indexed": true,
          "internalType": "address",
          "name": "token",
          "type": "address"
        },
        {
          "indexed": false,
          "internalType": "uint256",
          "name": "nativeReserve",
          "type": "uint256"
        },
        {
          "indexed": false,
          "internalType": "uint256",
          "name": "tokenReserve",
          "type": "uint256"
        },
        {
          "indexed": false,
          "internalType": "uint256",
          "name": "tradingStart",
          "type": "uint256"
        }
      ],
      "name": "MarketInitialized",
      "type": "event"
    },
    {
      "anonymous": false,
      "inputs": [
        {
          "indexed": true,
          "internalType": "address",
          "name": "previousOwner",
          "type": "address"
        },
        {
          "indexed": true,
          "internalType": "address",
          "name": "newOwner",
          "type": "address"
        }
      ],
      "name": "OwnershipTransferred",
      "type": "event"
    },
    {
      "anonymous": false,
      "inputs": [
        {
          "indexed": true,
          "internalType": "address",
          "name": "token",
          "type": "address"
        },
        {
          "indexed": true,
          "internalType": "address",
          "name": "trader",
          "type": "address"
        },
        {
          "indexed": false,
          "internalType": "bool",
          "name": "isBuy",
          "type": "bool"
        },
        {
          "indexed": false,
          "internalType": "uint256",
          "name": "nativeAmt",
          "type": "uint256"
        },
        {
          "indexed": false,
          "internalType": "uint256",
          "name": "tokenAmt",
          "type": "uint256"
        },
        {
          "indexed": false,
          "internalType": "uint256",
          "name": "fee",
          "type": "uint256"
        },
        {
          "indexed": false,
          "internalType": "uint256",
          "name": "price",
          "type": "uint256"
        }
      ],
      "name": "Trade",
      "type": "event"
    },
    {
      "inputs": [],
      "name": "BPS_DENOMINATOR",
      "outputs": [
        {
          "internalType": "uint256",
          "name": "",
          "type": "uint256"
        }
      ],
      "stateMutability": "view",
      "type": "function"
    },
    {
      "inputs": [],
      "name": "FEE_BPS",
      "outputs": [
        {
          "internalType": "uint256",
          "name": "",
          "type": "uint256"
        }
      ],
      "stateMutability": "view",
      "type": "function"
    },
    {
      "inputs": [
        {
          "internalType": "address",
          "name": "token",
          "type": "address"
        },
        {
          "internalType": "uint256",
          "name": "minTokensOut",
          "type": "uint256"
        }
      ],
      "name": "buy",
      "outputs": [
        {
          "internalType": "uint256",
          "name": "tokensOut",
          "type": "uint256"
        }
      ],
      "stateMutability": "payable",
      "type": "function"
    },
    {
      "inputs": [],
      "name": "cooldownSeconds",
      "outputs": [
        {
          "internalType": "uint256",
          "name": "",
          "type": "uint256"
        }
      ],
      "stateMutability": "view",
      "type": "function"
    },
    {
      "inputs": [],
      "name": "factory",
      "outputs": [
        {
          "internalType": "contract ITokenFactory",
          "name": "",
          "type": "address"
        }
      ],
      "stateMutability": "view",
      "type": "function"
    },
    {
      "inputs": [],
      "name": "feeVault",
      "outputs": [
        {
          "internalType": "address",
          "name": "",
          "type": "address"
        }
      ],
      "stateMutability": "view",
      "type": "function"
    },
    {
      "inputs": [
        {
          "internalType": "address",
          "name": "token",
          "type": "address"
        },
        {
          "internalType": "uint256",
          "name": "nativeIn",
          "type": "uint256"
        }
      ],
      "name": "getBuyQuote",
      "outputs": [
        {
          "internalType": "uint256",
          "name": "tokensOut",
          "type": "uint256"
        },
        {
          "internalType": "uint256",
          "name": "fee",
          "type": "uint256"
        }
      ],
      "stateMutability": "view",
      "type": "function"
    },
    {
      "inputs": [
        {
          "internalType": "address",
          "name": "token",
          "type": "address"
        }
      ],
      "name": "getMarketState",
      "outputs": [
        {
          "components": [
            {
              "internalType": "uint256",
              "name": "nativeReserve",
              "type": "uint256"
            },
            {
              "internalType": "uint256",
              "name": "tokenReserve",
              "type": "uint256"
            },
            {
              "internalType": "uint256",
              "name": "totalRaisedNative",
              "type": "uint256"
            },
            {
              "internalType": "uint256",
              "name": "tradingStartTime",
              "type": "uint256"
            },
            {
              "internalType": "bool",
              "name": "graduated",
              "type": "bool"
            },
            {
              "internalType": "bool",
              "name": "initialized",
              "type": "bool"
            }
          ],
          "internalType": "struct HoneycombBondingCurveMarket.MarketState",
          "name": "",
          "type": "tuple"
        }
      ],
      "stateMutability": "view",
      "type": "function"
    },
    {
      "inputs": [
        {
          "internalType": "address",
          "name": "token",
          "type": "address"
        }
      ],
      "name": "getPrice",
      "outputs": [
        {
          "internalType": "uint256",
          "name": "",
          "type": "uint256"
        }
      ],
      "stateMutability": "view",
      "type": "function"
    },
    {
      "inputs": [
        {
          "internalType": "address",
          "name": "token",
          "type": "address"
        },
        {
          "internalType": "uint256",
          "name": "tokenAmountIn",
          "type": "uint256"
        }
      ],
      "name": "getSellQuote",
      "outputs": [
        {
          "internalType": "uint256",
          "name": "nativeOut",
          "type": "uint256"
        },
        {
          "internalType": "uint256",
          "name": "fee",
          "type": "uint256"
        }
      ],
      "stateMutability": "view",
      "type": "function"
    },
    {
      "inputs": [],
      "name": "graduationThreshold",
      "outputs": [
        {
          "internalType": "uint256",
          "name": "",
          "type": "uint256"
        }
      ],
      "stateMutability": "view",
      "type": "function"
    },
    {
      "inputs": [],
      "name": "initialVirtualNative",
      "outputs": [
        {
          "internalType": "uint256",
          "name": "",
          "type": "uint256"
        }
      ],
      "stateMutability": "view",
      "type": "function"
    },
    {
      "inputs": [],
      "name": "initialVirtualToken",
      "outputs": [
        {
          "internalType": "uint256",
          "name": "",
          "type": "uint256"
        }
      ],
      "stateMutability": "view",
      "type": "function"
    },
    {
      "inputs": [
        {
          "internalType": "address",
          "name": "token",
          "type": "address"
        }
      ],
      "name": "initializeMarket",
      "outputs": [],
      "stateMutability": "nonpayable",
      "type": "function"
    },
    {
      "inputs": [
        {
          "internalType": "address",
          "name": "",
          "type": "address"
        },
        {
          "internalType": "address",
          "name": "",
          "type": "address"
        }
      ],
      "name": "lastTradeTime",
      "outputs": [
        {
          "internalType": "uint256",
          "name": "",
          "type": "uint256"
        }
      ],
      "stateMutability": "view",
      "type": "function"
    },
    {
      "inputs": [],
      "name": "launchDelay",
      "outputs": [
        {
          "internalType": "uint256",
          "name": "",
          "type": "uint256"
        }
      ],
      "stateMutability": "view",
      "type": "function"
    },
    {
      "inputs": [
        {
          "internalType": "address",
          "name": "",
          "type": "address"
        }
      ],
      "name": "markets",
      "outputs": [
        {
          "internalType": "uint256",
          "name": "nativeReserve",
          "type": "uint256"
        },
        {
          "internalType": "uint256",
          "name": "tokenReserve",
          "type": "uint256"
        },
        {
          "internalType": "uint256",
          "name": "totalRaisedNative",
          "type": "uint256"
        },
        {
          "internalType": "uint256",
          "name": "tradingStartTime",
          "type": "uint256"
        },
        {
          "internalType": "bool",
          "name": "graduated",
          "type": "bool"
        },
        {
          "internalType": "bool",
          "name": "initialized",
          "type": "bool"
        }
      ],
      "stateMutability": "view",
      "type": "function"
    },
    {
      "inputs": [],
      "name": "maxBuyPerTx",
      "outputs": [
        {
          "internalType": "uint256",
          "name": "",
          "type": "uint256"
        }
      ],
      "stateMutability": "view",
      "type": "function"
    },
    {
      "inputs": [],
      "name": "migrationContract",
      "outputs": [
        {
          "internalType": "address",
          "name": "",
          "type": "address"
        }
      ],
      "stateMutability": "view",
      "type": "function"
    },
    {
      "inputs": [],
      "name": "owner",
      "outputs": [
        {
          "internalType": "address",
          "name": "",
          "type": "address"
        }
      ],
      "stateMutability": "view",
      "type": "function"
    },
    {
      "inputs": [],
      "name": "renounceOwnership",
      "outputs": [],
      "stateMutability": "nonpayable",
      "type": "function"
    },
    {
      "inputs": [
        {
          "internalType": "address",
          "name": "token",
          "type": "address"
        },
        {
          "internalType": "uint256",
          "name": "tokenAmountIn",
          "type": "uint256"
        },
        {
          "internalType": "uint256",
          "name": "minNativeOut",
          "type": "uint256"
        }
      ],
      "name": "sell",
      "outputs": [
        {
          "internalType": "uint256",
          "name": "nativeOut",
          "type": "uint256"
        }
      ],
      "stateMutability": "nonpayable",
      "type": "function"
    },
    {
      "inputs": [
        {
          "internalType": "uint256",
          "name": "_cooldown",
          "type": "uint256"
        }
      ],
      "name": "setCooldownSeconds",
      "outputs": [],
      "stateMutability": "nonpayable",
      "type": "function"
    },
    {
      "inputs": [
        {
          "internalType": "address",
          "name": "_factory",
          "type": "address"
        }
      ],
      "name": "setFactory",
      "outputs": [],
      "stateMutability": "nonpayable",
      "type": "function"
    },
    {
      "inputs": [
        {
          "internalType": "address",
          "name": "_feeVault",
          "type": "address"
        }
      ],
      "name": "setFeeVault",
      "outputs": [],
      "stateMutability": "nonpayable",
      "type": "function"
    },
    {
      "inputs": [
        {
          "internalType": "uint256",
          "name": "_threshold",
          "type": "uint256"
        }
      ],
      "name": "setGraduationThreshold",
      "outputs": [],
      "stateMutability": "nonpayable",
      "type": "function"
    },
    {
      "inputs": [
        {
          "internalType": "uint256",
          "name": "_delay",
          "type": "uint256"
        }
      ],
      "name": "setLaunchDelay",
      "outputs": [],
      "stateMutability": "nonpayable",
      "type": "function"
    },
    {
      "inputs": [
        {
          "internalType": "uint256",
          "name": "_maxBuy",
          "type": "uint256"
        }
      ],
      "name": "setMaxBuyPerTx",
      "outputs": [],
      "stateMutability": "nonpayable",
      "type": "function"
    },
    {
      "inputs": [
        {
          "internalType": "address",
          "name": "_migration",
          "type": "address"
        }
      ],
      "name": "setMigrationContract",
      "outputs": [],
      "stateMutability": "nonpayable",
      "type": "function"
    },
    {
      "inputs": [
        {
          "internalType": "address",
          "name": "newOwner",
          "type": "address"
        }
      ],
      "name": "transferOwnership",
      "outputs": [],
      "stateMutability": "nonpayable",
      "type": "function"
    },
    {
      "inputs": [
        {
          "internalType": "address",
          "name": "token",
          "type": "address"
        }
      ],
      "name": "withdrawForMigration",
      "outputs": [
        {
          "internalType": "uint256",
          "name": "nativeAmount",
          "type": "uint256"
        },
        {
          "internalType": "uint256",
          "name": "tokenAmount",
          "type": "uint256"
        }
      ],
      "stateMutability": "nonpayable",
      "type": "function"
    },
    {
      "stateMutability": "payable",
      "type": "receive"
    }
  ],
  "bytecode": "0x60806040523480156200001157600080fd5b506040516200165338038062001653833981016040819052620000349162000129565b33806200005b57604051631e4fbdf760e01b81526000600482015260240160405180910390fd5b6200006681620000bc565b5060018055600280546001600160a01b03998a166001600160a01b0319918216179091556003805498909916971696909617909655600793909355600891909155600955600a55600b91909155600c556200019a565b600080546001600160a01b038381166001600160a01b0319831681178455604051919092169283917f8be0079c531659141344cd1fd0a4f28419497f9722a3daafe3b4186f6b6457e09190a35050565b80516001600160a01b03811681146200012457600080fd5b919050565b600080600080600080600080610100898b0312156200014757600080fd5b62000152896200010c565b97506200016260208a016200010c565b60408a015160608b015160808c015160a08d015160c08e015160e0909e01519c9f949e50929c919b909a509198509650945092505050565b6114a980620001aa6000396000f3fe6080604052600436106101dc5760003560e01c80638b0bc50111610102578063c84ab9bb11610095578063e1a4521811610064578063e1a45218146105a8578063e8a89c76146105be578063f2fde38b1461062e578063f4640d3d1461064e57600080fd5b8063c84ab9bb14610553578063ccd3251714610569578063cce7ec131461057f578063e0e7e29b1461059257600080fd5b8063b14f6f48116100d1578063b14f6f48146104e8578063b8221bc414610508578063bf333f2c1461051e578063c45a01551461053357600080fd5b80638b0bc5011461040d5780638da5cb5b146104235780638e8f294b14610441578063a591f97f146104c857600080fd5b8063478222c21161017a578063715018a611610149578063715018a6146103985780637b5b1157146103ad57806388b79cec146103cd5780638aaae305146103ed57600080fd5b8063478222c21461031857806352f5b3ef146103385780635bb47808146103585780636a2724621461037857600080fd5b80631bf6e958116101b65780631bf6e9581461026b5780632a869a4d146102a057806339b1d853146102c057806341976e09146102f857600080fd5b80630a1ffab7146101e85780630fee1a201461020a578063177320a61461024757600080fd5b366101e357005b600080fd5b3480156101f457600080fd5b506102086102033660046112fc565b61066e565b005b34801561021657600080fd5b5060045461022a906001600160a01b031681565b6040516001600160a01b0390911681526020015b60405180910390f35b34801561025357600080fd5b5061025d60095481565b60405190815260200161023e565b34801561027757600080fd5b5061028b610286366004611331565b61067b565b6040805192835260208301919091520161023e565b3480156102ac57600080fd5b506102086102bb36600461135b565b610729565b3480156102cc57600080fd5b5061025d6102db366004611376565b600660209081526000928352604080842090915290825290205481565b34801561030457600080fd5b5061025d61031336600461135b565b610881565b34801561032457600080fd5b5060035461022a906001600160a01b031681565b34801561034457600080fd5b506102086103533660046112fc565b6108ec565b34801561036457600080fd5b5061020861037336600461135b565b6108f9565b34801561038457600080fd5b5061025d6103933660046113a9565b610923565b3480156103a457600080fd5b50610208610b65565b3480156103b957600080fd5b506102086103c83660046112fc565b610b79565b3480156103d957600080fd5b506102086103e836600461135b565b610b86565b3480156103f957600080fd5b5061028b610408366004611331565b610bb0565b34801561041957600080fd5b5061025d60075481565b34801561042f57600080fd5b506000546001600160a01b031661022a565b34801561044d57600080fd5b5061049761045c36600461135b565b600560205260009081526040902080546001820154600283015460038401546004909401549293919290919060ff8082169161010090041686565b60408051968752602087019590955293850192909252606084015215156080830152151560a082015260c00161023e565b3480156104d457600080fd5b506102086104e336600461135b565b610c56565b3480156104f457600080fd5b5061028b61050336600461135b565b610c80565b34801561051457600080fd5b5061025d60085481565b34801561052a57600080fd5b5061025d606481565b34801561053f57600080fd5b5060025461022a906001600160a01b031681565b34801561055f57600080fd5b5061025d600b5481565b34801561057557600080fd5b5061025d600c5481565b61025d61058d366004611331565b610d41565b34801561059e57600080fd5b5061025d600a5481565b3480156105b457600080fd5b5061025d61271081565b3480156105ca57600080fd5b506105de6105d936600461135b565b610fa8565b60405161023e9190600060c0820190508251825260208301516020830152604083015160408301526060830151606083015260808301511515608083015260a0830151151560a083015292915050565b34801561063a57600080fd5b5061020861064936600461135b565b611052565b34801561065a57600080fd5b506102086106693660046112fc565b611095565b6106766110a2565b600955565b6001600160a01b03821660009081526005602052604081206004810154829190610100900460ff166106b4576000809250925050610722565b600181015481546000916106c7916113f2565b905060008583600101546106db9190611409565b905060006106e9828461141c565b84546106f5919061143e565b90506127106107056064836113f2565b61070f919061141c565b945061071b858261143e565b9550505050505b9250929050565b6002546040516301c0049560e01b81526001600160a01b038381166004830152909116906301c0049590602401602060405180830381865afa158015610773573d6000803e3d6000fd5b505050506040513d601f19601f820116820180604052508101906107979190611451565b6107b4576040516306a5eecf60e31b815260040160405180910390fd5b6001600160a01b03811660009081526005602052604090206004810154610100900460ff16156107f757604051630fa3c9cf60e01b815260040160405180910390fd5b600b548155600c546001820155600a546108119042611409565b6003820181905560048201805461ff001916610100179055600b54600c546040805192835260208301919091528101919091526001600160a01b038316907f2a354e668c151ff9311d8a93777114b51fa93cd9cbc66cdc2ce8755c52c4d60b906060015b60405180910390a25050565b6001600160a01b03811660009081526005602052604081206004810154610100900460ff1615806108b457506001810154155b156108c25750600092915050565b600181015481546108db90670de0b6b3a76400006113f2565b6108e5919061141c565b9392505050565b6108f46110a2565b600755565b6109016110a2565b600280546001600160a01b0319166001600160a01b0392909216919091179055565b600061092d6110cf565b8260000361094e57604051631f2a200560e01b815260040160405180910390fd5b6001600160a01b038416600090815260056020526040902061097085826110f9565b60018101548154600091610983916113f2565b905060008583600101546109979190611409565b905060006109a5828461141c565b905060008185600001546109b9919061143e565b905060006127106109cb6064846113f2565b6109d5919061141c565b90506109e1818361143e565b965087871015610a0457604051638199f5f360e01b815260040160405180910390fd5b47871115610a2557604051634969f53160e11b815260040160405180910390fd5b828655600186018490556001600160a01b038a166000818152600660209081526040808320338085529252918290204290559051632770a7eb60e21b81526004810191909152602481018b9052639dc29fac90604401600060405180830381600087803b158015610a9557600080fd5b505af1158015610aa9573d6000803e3d6000fd5b5050600354610ac492506001600160a01b03169050826111c3565b610ace33886111c3565b6001860154865460009190610aeb90670de0b6b3a76400006113f2565b610af5919061141c565b6040805160008152602081018690529081018c9052606081018490526080810182905290915033906001600160a01b038d16907f9adcf0ad0cda63c4d50f26a48925cf6405df27d422a39c456b5f03f661c829829060a00160405180910390a3505050505050506108e560018055565b610b6d6110a2565b610b77600061123c565b565b610b816110a2565b600855565b610b8e6110a2565b600480546001600160a01b0319166001600160a01b0392909216919091179055565b6001600160a01b03821660009081526005602052604081206004810154829190610100900460ff16610be9576000809250925050610722565b612710610bf76064866113f2565b610c01919061141c565b91506000610c0f838661143e565b9050600082600101548360000154610c2791906113f2565b90506000828460000154610c3b9190611409565b9050610c47818361141c565b846001015461071b919061143e565b610c5e6110a2565b600380546001600160a01b0319166001600160a01b0392909216919091179055565b60045460009081906001600160a01b03163314610cb0576040516327031b4160e01b815260040160405180910390fd5b6001600160a01b0383166000908152600560205260409020600481015460ff16610ced5760405163d66173a560e01b815260040160405180910390fd5b8054158015610cfe57506001810154155b15610d1c57604051636507689f60e01b815260040160405180910390fd5b805460018201805460008085559091559093509150610d3b33846111c3565b50915091565b6000610d4b6110cf565b34600003610d6c57604051631f2a200560e01b815260040160405180910390fd5b6001600160a01b0383166000908152600560205260409020610d8e84826110f9565b6000612710610d9e6064346113f2565b610da8919061141c565b90506000610db6823461143e565b9050600083600101548460000154610dce91906113f2565b90506000828560000154610de29190611409565b90506000610df0828461141c565b9050808660010154610e02919061143e565b965087871015610e2557604051638199f5f360e01b815260040160405180910390fd5b600954871115610e4857604051638fb28fd960e01b815260040160405180910390fd5b81865560018601819055600286018054859190600090610e69908490611409565b90915550506001600160a01b03808a1660009081526006602090815260408083203384529091529020429055600354610ea39116866111c3565b6040516340c10f1960e01b8152336004820152602481018890526001600160a01b038a16906340c10f1990604401600060405180830381600087803b158015610eeb57600080fd5b505af1158015610eff573d6000803e3d6000fd5b5050506001870154875460009250610f1f90670de0b6b3a76400006113f2565b610f29919061141c565b60408051600181523460208201529081018a9052606081018890526080810182905290915033906001600160a01b038c16907f9adcf0ad0cda63c4d50f26a48925cf6405df27d422a39c456b5f03f661c829829060a00160405180910390a3610f928a8861128c565b50505050505050610fa260018055565b92915050565b610fe56040518060c00160405280600081526020016000815260200160008152602001600081526020016000151581526020016000151581525090565b506001600160a01b0316600090815260056020908152604091829020825160c081018452815481526001820154928101929092526002810154928201929092526003820154606082015260049091015460ff8082161515608084015261010090910416151560a082015290565b61105a6110a2565b6001600160a01b03811661108957604051631e4fbdf760e01b8152600060048201526024015b60405180910390fd5b6110928161123c565b50565b61109d6110a2565b600a55565b6000546001600160a01b03163314610b775760405163118cdaa760e01b8152336004820152602401611080565b6002600154036110f257604051633ee5aeb560e01b815260040160405180910390fd5b6002600155565b6004810154610100900460ff1661112357604051633636bb1f60e21b815260040160405180910390fd5b600481015460ff1615611149576040516369107eb960e01b815260040160405180910390fd5b806003015442101561116e5760405163159eeb7d60e31b815260040160405180910390fd5b6008546001600160a01b038316600090815260066020908152604080832033845290915290205461119f9190611409565b4210156111bf5760405163aa9a98df60e01b815260040160405180910390fd5b5050565b6000826001600160a01b03168260405160006040518083038185875af1925050503d8060008114611210576040519150601f19603f3d011682016040523d82523d6000602084013e611215565b606091505b5050905080611237576040516312171d8360e31b815260040160405180910390fd5b505050565b600080546001600160a01b038381166001600160a01b0319831681178455604051919092169283917f8be0079c531659141344cd1fd0a4f28419497f9722a3daafe3b4186f6b6457e09190a35050565b600481015460ff161580156112a75750600754816002015410155b156111bf5760048101805460ff1916600117905560028101546040516001600160a01b038416917f3a11b9c0ca38b86101cb9e6e1dd2f752c31467c6eaa353f931b801a338406de69161087591815260200190565b60006020828403121561130e57600080fd5b5035919050565b80356001600160a01b038116811461132c57600080fd5b919050565b6000806040838503121561134457600080fd5b61134d83611315565b946020939093013593505050565b60006020828403121561136d57600080fd5b6108e582611315565b6000806040838503121561138957600080fd5b61139283611315565b91506113a060208401611315565b90509250929050565b6000806000606084860312156113be57600080fd5b6113c784611315565b95602085013595506040909401359392505050565b634e487b7160e01b600052601160045260246000fd5b8082028115828204841417610fa257610fa26113dc565b80820180821115610fa257610fa26113dc565b60008261143957634e487b7160e01b600052601260045260246000fd5b500490565b81810381811115610fa257610fa26113dc565b60006020828403121561146357600080fd5b815180151581146108e557600080fdfea264697066735822122006f129237fdf5590e6c0bf2a06e65bd6f77622750c0b8371264451f9b1c2a0fa64736f6c63430008180033",
  "linkReferences": {},
  "deployedLinkReferences": {}
}