{
  "_format": "hh-sol-artifact-1",
  "contractName": "HoneycombBondingCurveMarket",
  "sourceName": "contracts/launchpad/HoneycombBondingCurveMarket.sol",
  "abi": [
    {
      "inputs": [
        {
          "internalType": "address",
          "name": "_factory",
          "type": "address"
        },
        {
          "internalType": "address",
          "name": "_feeVault",
          "type": "address"
        },
        {
          "internalType": "uint256",
          "name": "_graduationThreshold",
          "type": "uint256"
        },
        {
          "internalType": "uint256",
          "name": "_cooldownSeconds",
          "type": "uint256"
        },
        {
          "internalType": "uint256",
          "name": "_maxBuyPerTx",
          "type": "uint256"
        },
        {
          "internalType": "uint256",
          "name": "_launchDelay",
          "type": "uint256"
        },
        {
          "internalType": "uint256",
          "name": "_initialVirtualNative",
          "type": "uint256"
        },
        {
          "internalType": "uint256",
          "name": "_initialVirtualToken",
          "type": "uint256"
        }
      ],
      "stateMutability": "nonpayable",
      "type": "constructor"
    },
    {
      "inputs": [],
      "name": "CooldownActive",
      "type": "error"
    },
    {
      "inputs": [],
      "name": "ExceedsMaxBuy",
      "type": "error"
    },
    {
      "inputs": [],
      "name": "InsufficientNative",
      "type": "error"
    },
    {
      "inputs": [],
      "name": "MarketAlreadyInitialized",
      "type": "error"
    },
    {
      "inputs": [],
      "name": "MarketNotInitialized",
      "type": "error"
    },
    {
      "inputs": [
        {
          "internalType": "address",
          "name": "owner",
          "type": "address"
        }
      ],
      "name": "OwnableInvalidOwner",
      "type": "error"
    },
    {
      "inputs": [
        {
          "internalType": "address",
          "name": "account",
          "type": "address"
        }
      ],
      "name": "OwnableUnauthorizedAccount",
      "type": "error"
    },
    {
      "inputs": [],
      "name": "ReentrancyGuardReentrantCall",
      "type": "error"
    },
    {
      "inputs": [],
      "name": "SlippageExceeded",
      "type": "error"
    },
    {
      "inputs": [],
      "name": "TokenGraduated",
      "type": "error"
    },
    {
      "inputs": [],
      "name": "TokenNotFromFactory",
      "type": "error"
    },
    {
      "inputs": [],
      "name": "TradingNotStarted",
      "type": "error"
    },
    {
      "inputs": [],
      "name": "TransferFailed",
      "type": "error"
    },
    {
      "inputs": [],
      "name": "ZeroAmount",
      "type": "error"
    },
    {
      "anonymous": false,
      "inputs": [
        {
          "indexed": true,
          "internalType": "address",
          "name": "token",
          "type": "address"
        },
        {
          "indexed": false,
          "internalType": "uint256",
          "name": "totalRaised",
          "type": "uint256"
        }
      ],
      "name": "Graduated",
      "type": "event"
    },
    {
      "anonymous": false,
      "inputs": [
        {
          "indexed": true,
          "internalType": "address",
          "name": "token",
          "type": "address"
        },
        {
          "indexed": false,
          "internalType": "uint256",
          "name": "nativeReserve",
          "type": "uint256"
        },
        {
          "indexed": false,
          "internalType": "uint256",
          "name": "tokenReserve",
          "type": "uint256"
        },
        {
          "indexed": false,
          "internalType": "uint256",
          "name": "tradingStart",
          "type": "uint256"
        }
      ],
      "name": "MarketInitialized",
      "type": "event"
    },
    {
      "anonymous": false,
      "inputs": [
        {
          "indexed": true,
          "internalType": "address",
          "name": "previousOwner",
          "type": "address"
        },
        {
          "indexed": true,
          "internalType": "address",
          "name": "newOwner",
          "type": "address"
        }
      ],
      "name": "OwnershipTransferred",
      "type": "event"
    },
    {
      "anonymous": false,
      "inputs": [
        {
          "indexed": true,
          "internalType": "address",
          "name": "token",
          "type": "address"
        },
        {
          "indexed": true,
          "internalType": "address",
          "name": "trader",
          "type": "address"
        },
        {
          "indexed": false,
          "internalType": "bool",
          "name": "isBuy",
          "type": "bool"
        },
        {
          "indexed": false,
          "internalType": "uint256",
          "name": "nativeAmt",
          "type": "uint256"
        },
        {
          "indexed": false,
          "internalType": "uint256",
          "name": "tokenAmt",
          "type": "uint256"
        },
        {
          "indexed": false,
          "internalType": "uint256",
          "name": "fee",
          "type": "uint256"
        },
        {
          "indexed": false,
          "internalType": "uint256",
          "name": "price",
          "type": "uint256"
        }
      ],
      "name": "Trade",
      "type": "event"
    },
    {
      "inputs": [],
      "name": "BPS_DENOMINATOR",
      "outputs": [
        {
          "internalType": "uint256",
          "name": "",
          "type": "uint256"
        }
      ],
      "stateMutability": "view",
      "type": "function"
    },
    {
      "inputs": [],
      "name": "FEE_BPS",
      "outputs": [
        {
          "internalType": "uint256",
          "name": "",
          "type": "uint256"
        }
      ],
      "stateMutability": "view",
      "type": "function"
    },
    {
      "inputs": [
        {
          "internalType": "address",
          "name": "token",
          "type": "address"
        },
        {
          "internalType": "uint256",
          "name": "minTokensOut",
          "type": "uint256"
        }
      ],
      "name": "buy",
      "outputs": [
        {
          "internalType": "uint256",
          "name": "tokensOut",
          "type": "uint256"
        }
      ],
      "stateMutability": "payable",
      "type": "function"
    },
    {
      "inputs": [],
      "name": "cooldownSeconds",
      "outputs": [
        {
          "internalType": "uint256",
          "name": "",
          "type": "uint256"
        }
      ],
      "stateMutability": "view",
      "type": "function"
    },
    {
      "inputs": [],
      "name": "factory",
      "outputs": [
        {
          "internalType": "contract ITokenFactory",
          "name": "",
          "type": "address"
        }
      ],
      "stateMutability": "view",
      "type": "function"
    },
    {
      "inputs": [],
      "name": "feeVault",
      "outputs": [
        {
          "internalType": "address",
          "name": "",
          "type": "address"
        }
      ],
      "stateMutability": "view",
      "type": "function"
    },
    {
      "inputs": [
        {
          "internalType": "address",
          "name": "token",
          "type": "address"
        },
        {
          "internalType": "uint256",
          "name": "nativeIn",
          "type": "uint256"
        }
      ],
      "name": "getBuyQuote",
      "outputs": [
        {
          "internalType": "uint256",
          "name": "tokensOut",
          "type": "uint256"
        },
        {
          "internalType": "uint256",
          "name": "fee",
          "type": "uint256"
        }
      ],
      "stateMutability": "view",
      "type": "function"
    },
    {
      "inputs": [
        {
          "internalType": "address",
          "name": "token",
          "type": "address"
        }
      ],
      "name": "getMarketState",
      "outputs": [
        {
          "components": [
            {
              "internalType": "uint256",
              "name": "nativeReserve",
              "type": "uint256"
            },
            {
              "internalType": "uint256",
              "name": "tokenReserve",
              "type": "uint256"
            },
            {
              "internalType": "uint256",
              "name": "totalRaisedNative",
              "type": "uint256"
            },
            {
              "internalType": "uint256",
              "name": "tradingStartTime",
              "type": "uint256"
            },
            {
              "internalType": "bool",
              "name": "graduated",
              "type": "bool"
            },
            {
              "internalType": "bool",
              "name": "initialized",
              "type": "bool"
            }
          ],
          "internalType": "struct HoneycombBondingCurveMarket.MarketState",
          "name": "",
          "type": "tuple"
        }
      ],
      "stateMutability": "view",
      "type": "function"
    },
    {
      "inputs": [
        {
          "internalType": "address",
          "name": "token",
          "type": "address"
        }
      ],
      "name": "getPrice",
      "outputs": [
        {
          "internalType": "uint256",
          "name": "",
          "type": "uint256"
        }
      ],
      "stateMutability": "view",
      "type": "function"
    },
    {
      "inputs": [
        {
          "internalType": "address",
          "name": "token",
          "type": "address"
        },
        {
          "internalType": "uint256",
          "name": "tokenAmountIn",
          "type": "uint256"
        }
      ],
      "name": "getSellQuote",
      "outputs": [
        {
          "internalType": "uint256",
          "name": "nativeOut",
          "type": "uint256"
        },
        {
          "internalType": "uint256",
          "name": "fee",
          "type": "uint256"
        }
      ],
      "stateMutability": "view",
      "type": "function"
    },
    {
      "inputs": [],
      "name": "graduationThreshold",
      "outputs": [
        {
          "internalType": "uint256",
          "name": "",
          "type": "uint256"
        }
      ],
      "stateMutability": "view",
      "type": "function"
    },
    {
      "inputs": [],
      "name": "initialVirtualNative",
      "outputs": [
        {
          "internalType": "uint256",
          "name": "",
          "type": "uint256"
        }
      ],
      "stateMutability": "view",
      "type": "function"
    },
    {
      "inputs": [],
      "name": "initialVirtualToken",
      "outputs": [
        {
          "internalType": "uint256",
          "name": "",
          "type": "uint256"
        }
      ],
      "stateMutability": "view",
      "type": "function"
    },
    {
      "inputs": [
        {
          "internalType": "address",
          "name": "token",
          "type": "address"
        }
      ],
      "name": "initializeMarket",
      "outputs": [],
      "stateMutability": "nonpayable",
      "type": "function"
    },
    {
      "inputs": [
        {
          "internalType": "address",
          "name": "",
          "type": "address"
        },
        {
          "internalType": "address",
          "name": "",
          "type": "address"
        }
      ],
      "name": "lastTradeTime",
      "outputs": [
        {
          "internalType": "uint256",
          "name": "",
          "type": "uint256"
        }
      ],
      "stateMutability": "view",
      "type": "function"
    },
    {
      "inputs": [],
      "name": "launchDelay",
      "outputs": [
        {
          "internalType": "uint256",
          "name": "",
          "type": "uint256"
        }
      ],
      "stateMutability": "view",
      "type": "function"
    },
    {
      "inputs": [
        {
          "internalType": "address",
          "name": "",
          "type": "address"
        }
      ],
      "name": "markets",
      "outputs": [
        {
          "internalType": "uint256",
          "name": "nativeReserve",
          "type": "uint256"
        },
        {
          "internalType": "uint256",
          "name": "tokenReserve",
          "type": "uint256"
        },
        {
          "internalType": "uint256",
          "name": "totalRaisedNative",
          "type": "uint256"
        },
        {
          "internalType": "uint256",
          "name": "tradingStartTime",
          "type": "uint256"
        },
        {
          "internalType": "bool",
          "name": "graduated",
          "type": "bool"
        },
        {
          "internalType": "bool",
          "name": "initialized",
          "type": "bool"
        }
      ],
      "stateMutability": "view",
      "type": "function"
    },
    {
      "inputs": [],
      "name": "maxBuyPerTx",
      "outputs": [
        {
          "internalType": "uint256",
          "name": "",
          "type": "uint256"
        }
      ],
      "stateMutability": "view",
      "type": "function"
    },
    {
      "inputs": [],
      "name": "owner",
      "outputs": [
        {
          "internalType": "address",
          "name": "",
          "type": "address"
        }
      ],
      "stateMutability": "view",
      "type": "function"
    },
    {
      "inputs": [],
      "name": "renounceOwnership",
      "outputs": [],
      "stateMutability": "nonpayable",
      "type": "function"
    },
    {
      "inputs": [
        {
          "internalType": "address",
          "name": "token",
          "type": "address"
        },
        {
          "internalType": "uint256",
          "name": "tokenAmountIn",
          "type": "uint256"
        },
        {
          "internalType": "uint256",
          "name": "minNativeOut",
          "type": "uint256"
        }
      ],
      "name": "sell",
      "outputs": [
        {
          "internalType": "uint256",
          "name": "nativeOut",
          "type": "uint256"
        }
      ],
      "stateMutability": "nonpayable",
      "type": "function"
    },
    {
      "inputs": [
        {
          "internalType": "uint256",
          "name": "_cooldown",
          "type": "uint256"
        }
      ],
      "name": "setCooldownSeconds",
      "outputs": [],
      "stateMutability": "nonpayable",
      "type": "function"
    },
    {
      "inputs": [
        {
          "internalType": "address",
          "name": "_factory",
          "type": "address"
        }
      ],
      "name": "setFactory",
      "outputs": [],
      "stateMutability": "nonpayable",
      "type": "function"
    },
    {
      "inputs": [
        {
          "internalType": "address",
          "name": "_feeVault",
          "type": "address"
        }
      ],
      "name": "setFeeVault",
      "outputs": [],
      "stateMutability": "nonpayable",
      "type": "function"
    },
    {
      "inputs": [
        {
          "internalType": "uint256",
          "name": "_threshold",
          "type": "uint256"
        }
      ],
      "name": "setGraduationThreshold",
      "outputs": [],
      "stateMutability": "nonpayable",
      "type": "function"
    },
    {
      "inputs": [
        {
          "internalType": "uint256",
          "name": "_delay",
          "type": "uint256"
        }
      ],
      "name": "setLaunchDelay",
      "outputs": [],
      "stateMutability": "nonpayable",
      "type": "function"
    },
    {
      "inputs": [
        {
          "internalType": "uint256",
          "name": "_maxBuy",
          "type": "uint256"
        }
      ],
      "name": "setMaxBuyPerTx",
      "outputs": [],
      "stateMutability": "nonpayable",
      "type": "function"
    },
    {
      "inputs": [
        {
          "internalType": "address",
          "name": "newOwner",
          "type": "address"
        }
      ],
      "name": "transferOwnership",
      "outputs": [],
      "stateMutability": "nonpayable",
      "type": "function"
    },
    {
      "stateMutability": "payable",
      "type": "receive"
    }
  ],
  "bytecode": "0x60806040523480156200001157600080fd5b50604051620014ea380380620014ea833981016040819052620000349162000129565b33806200005b57604051631e4fbdf760e01b81526000600482015260240160405180910390fd5b6200006681620000bc565b5060018055600280546001600160a01b03998a166001600160a01b0319918216179091556003805498909916971696909617909655600693909355600791909155600855600955600a91909155600b556200019a565b600080546001600160a01b038381166001600160a01b0319831681178455604051919092169283917f8be0079c531659141344cd1fd0a4f28419497f9722a3daafe3b4186f6b6457e09190a35050565b80516001600160a01b03811681146200012457600080fd5b919050565b600080600080600080600080610100898b0312156200014757600080fd5b62000152896200010c565b97506200016260208a016200010c565b60408a015160608b015160808c015160a08d015160c08e015160e0909e01519c9f949e50929c919b909a509198509650945092505050565b61134080620001aa6000396000f3fe6080604052600436106101bb5760003560e01c80638da5cb5b116100ec578063ccd325171161008a578063e1a4521811610064578063e1a4521814610528578063e8a89c761461053e578063f2fde38b146105ae578063f4640d3d146105ce57600080fd5b8063ccd32517146104e9578063cce7ec13146104ff578063e0e7e29b1461051257600080fd5b8063b8221bc4116100c6578063b8221bc414610488578063bf333f2c1461049e578063c45a0155146104b3578063c84ab9bb146104d357600080fd5b80638da5cb5b146103c25780638e8f294b146103e0578063a591f97f1461046857600080fd5b806352f5b3ef11610159578063715018a611610133578063715018a6146103575780637b5b11571461036c5780638aaae3051461038c5780638b0bc501146103ac57600080fd5b806352f5b3ef146102f75780635bb47808146103175780636a2724621461033757600080fd5b80632a869a4d116101955780632a869a4d1461024757806339b1d8531461026757806341976e091461029f578063478222c2146102bf57600080fd5b80630a1ffab7146101c7578063177320a6146101e95780631bf6e9581461021257600080fd5b366101c257005b600080fd5b3480156101d357600080fd5b506101e76101e2366004611193565b6105ee565b005b3480156101f557600080fd5b506101ff60085481565b6040519081526020015b60405180910390f35b34801561021e57600080fd5b5061023261022d3660046111c8565b6105fb565b60408051928352602083019190915201610209565b34801561025357600080fd5b506101e76102623660046111f2565b6106aa565b34801561027357600080fd5b506101ff61028236600461120d565b600560209081526000928352604080842090915290825290205481565b3480156102ab57600080fd5b506101ff6102ba3660046111f2565b610804565b3480156102cb57600080fd5b506003546102df906001600160a01b031681565b6040516001600160a01b039091168152602001610209565b34801561030357600080fd5b506101e7610312366004611193565b610870565b34801561032357600080fd5b506101e76103323660046111f2565b61087d565b34801561034357600080fd5b506101ff610352366004611240565b6108a7565b34801561036357600080fd5b506101e7610ae9565b34801561037857600080fd5b506101e7610387366004611193565b610afd565b34801561039857600080fd5b506102326103a73660046111c8565b610b0a565b3480156103b857600080fd5b506101ff60065481565b3480156103ce57600080fd5b506000546001600160a01b03166102df565b3480156103ec57600080fd5b506104376103fb3660046111f2565b60046020819052600091825260409091208054600182015460028301546003840154939094015491939092909160ff8082169161010090041686565b60408051968752602087019590955293850192909252606084015215156080830152151560a082015260c001610209565b34801561047457600080fd5b506101e76104833660046111f2565b610bb1565b34801561049457600080fd5b506101ff60075481565b3480156104aa57600080fd5b506101ff606481565b3480156104bf57600080fd5b506002546102df906001600160a01b031681565b3480156104df57600080fd5b506101ff600a5481565b3480156104f557600080fd5b506101ff600b5481565b6101ff61050d3660046111c8565b610bdb565b34801561051e57600080fd5b506101ff60095481565b34801561053457600080fd5b506101ff61271081565b34801561054a57600080fd5b5061055e6105593660046111f2565b610e42565b6040516102099190600060c0820190508251825260208301516020830152604083015160408301526060830151606083015260808301511515608083015260a0830151151560a083015292915050565b3480156105ba57600080fd5b506101e76105c93660046111f2565b610ee9565b3480156105da57600080fd5b506101e76105e9366004611193565b610f2c565b6105f6610f39565b600855565b6001600160a01b0382166000908152600460208190526040822090810154829190610100900460ff166106355760008092509250506106a3565b6001810154815460009161064891611289565b9050600085836001015461065c91906112a0565b9050600061066a82846112b3565b845461067691906112d5565b9050612710610686606483611289565b61069091906112b3565b945061069c85826112d5565b9550505050505b9250929050565b6002546040516301c0049560e01b81526001600160a01b038381166004830152909116906301c0049590602401602060405180830381865afa1580156106f4573d6000803e3d6000fd5b505050506040513d601f19601f8201168201806040525081019061071891906112e8565b610735576040516306a5eecf60e31b815260040160405180910390fd5b6001600160a01b038116600090815260046020819052604090912090810154610100900460ff161561077a57604051630fa3c9cf60e01b815260040160405180910390fd5b600a548155600b54600182015560095461079490426112a0565b6003820181905560048201805461ff001916610100179055600a54600b546040805192835260208301919091528101919091526001600160a01b038316907f2a354e668c151ff9311d8a93777114b51fa93cd9cbc66cdc2ce8755c52c4d60b906060015b60405180910390a25050565b6001600160a01b0381166000908152600460208190526040822090810154610100900460ff16158061083857506001810154155b156108465750600092915050565b6001810154815461085f90670de0b6b3a7640000611289565b61086991906112b3565b9392505050565b610878610f39565b600655565b610885610f39565b600280546001600160a01b0319166001600160a01b0392909216919091179055565b60006108b1610f66565b826000036108d257604051631f2a200560e01b815260040160405180910390fd5b6001600160a01b03841660009081526004602052604090206108f48582610f90565b6001810154815460009161090791611289565b9050600085836001015461091b91906112a0565b9050600061092982846112b3565b9050600081856000015461093d91906112d5565b9050600061271061094f606484611289565b61095991906112b3565b905061096581836112d5565b96508787101561098857604051638199f5f360e01b815260040160405180910390fd5b478711156109a957604051634969f53160e11b815260040160405180910390fd5b828655600186018490556001600160a01b038a166000818152600560209081526040808320338085529252918290204290559051632770a7eb60e21b81526004810191909152602481018b9052639dc29fac90604401600060405180830381600087803b158015610a1957600080fd5b505af1158015610a2d573d6000803e3d6000fd5b5050600354610a4892506001600160a01b031690508261105a565b610a52338861105a565b6001860154865460009190610a6f90670de0b6b3a7640000611289565b610a7991906112b3565b6040805160008152602081018690529081018c9052606081018490526080810182905290915033906001600160a01b038d16907f9adcf0ad0cda63c4d50f26a48925cf6405df27d422a39c456b5f03f661c829829060a00160405180910390a35050505050505061086960018055565b610af1610f39565b610afb60006110d3565b565b610b05610f39565b600755565b6001600160a01b0382166000908152600460208190526040822090810154829190610100900460ff16610b445760008092509250506106a3565b612710610b52606486611289565b610b5c91906112b3565b91506000610b6a83866112d5565b9050600082600101548360000154610b829190611289565b90506000828460000154610b9691906112a0565b9050610ba281836112b3565b846001015461069c91906112d5565b610bb9610f39565b600380546001600160a01b0319166001600160a01b0392909216919091179055565b6000610be5610f66565b34600003610c0657604051631f2a200560e01b815260040160405180910390fd5b6001600160a01b0383166000908152600460205260409020610c288482610f90565b6000612710610c38606434611289565b610c4291906112b3565b90506000610c5082346112d5565b9050600083600101548460000154610c689190611289565b90506000828560000154610c7c91906112a0565b90506000610c8a82846112b3565b9050808660010154610c9c91906112d5565b965087871015610cbf57604051638199f5f360e01b815260040160405180910390fd5b600854871115610ce257604051638fb28fd960e01b815260040160405180910390fd5b81865560018601819055600286018054859190600090610d039084906112a0565b90915550506001600160a01b03808a1660009081526005602090815260408083203384529091529020429055600354610d3d91168661105a565b6040516340c10f1960e01b8152336004820152602481018890526001600160a01b038a16906340c10f1990604401600060405180830381600087803b158015610d8557600080fd5b505af1158015610d99573d6000803e3d6000fd5b5050506001870154875460009250610db990670de0b6b3a7640000611289565b610dc391906112b3565b60408051600181523460208201529081018a9052606081018890526080810182905290915033906001600160a01b038c16907f9adcf0ad0cda63c4d50f26a48925cf6405df27d422a39c456b5f03f661c829829060a00160405180910390a3610e2c8a88611123565b50505050505050610e3c60018055565b92915050565b610e7f6040518060c00160405280600081526020016000815260200160008152602001600081526020016000151581526020016000151581525090565b506001600160a01b0316600090815260046020818152604092839020835160c081018552815481526001820154928101929092526002810154938201939093526003830154606082015291015460ff8082161515608084015261010090910416151560a082015290565b610ef1610f39565b6001600160a01b038116610f2057604051631e4fbdf760e01b8152600060048201526024015b60405180910390fd5b610f29816110d3565b50565b610f34610f39565b600955565b6000546001600160a01b03163314610afb5760405163118cdaa760e01b8152336004820152602401610f17565b600260015403610f8957604051633ee5aeb560e01b815260040160405180910390fd5b6002600155565b6004810154610100900460ff16610fba57604051633636bb1f60e21b815260040160405180910390fd5b600481015460ff1615610fe0576040516369107eb960e01b815260040160405180910390fd5b80600301544210156110055760405163159eeb7d60e31b815260040160405180910390fd5b6007546001600160a01b038316600090815260056020908152604080832033845290915290205461103691906112a0565b4210156110565760405163aa9a98df60e01b815260040160405180910390fd5b5050565b6000826001600160a01b03168260405160006040518083038185875af1925050503d80600081146110a7576040519150601f19603f3d011682016040523d82523d6000602084013e6110ac565b606091505b50509050806110ce576040516312171d8360e31b815260040160405180910390fd5b505050565b600080546001600160a01b038381166001600160a01b0319831681178455604051919092169283917f8be0079c531659141344cd1fd0a4f28419497f9722a3daafe3b4186f6b6457e09190a35050565b600481015460ff1615801561113e5750600654816002015410155b156110565760048101805460ff1916600117905560028101546040516001600160a01b038416917f3a11b9c0ca38b86101cb9e6e1dd2f752c31467c6eaa353f931b801a338406de6916107f891815260200190565b6000602082840312156111a557600080fd5b5035919050565b80356001600160a01b03811681146111c357600080fd5b919050565b600080604083850312156111db57600080fd5b6111e4836111ac565b946020939093013593505050565b60006020828403121561120457600080fd5b610869826111ac565b6000806040838503121561122057600080fd5b611229836111ac565b9150611237602084016111ac565b90509250929050565b60008060006060848603121561125557600080fd5b61125e846111ac565b95602085013595506040909401359392505050565b634e487b7160e01b600052601160045260246000fd5b8082028115828204841417610e3c57610e3c611273565b80820180821115610e3c57610e3c611273565b6000826112d057634e487b7160e01b600052601260045260246000fd5b500490565b81810381811115610e3c57610e3c611273565b6000602082840312156112fa57600080fd5b8151801515811461086957600080fdfea26469706673582212209752a52615b1f3bb0e990c3d6a8c72afe2c57417964b25a989c3af266db8fd7664736f6c63430008180033",
  "linkReferences": {},
  "deployedLinkReferences": {}
}