{
  "_format": "hh-sol-artifact-1",
  "contractName": "AgentEconomyHub",
  "sourceName": "contracts/web4/AgentEconomyHub.sol",
  "abi": [
    {
      "inputs": [
        {
          "internalType": "address",
          "name": "_agentToken",
          "type": "address"
        }
      ],
      "stateMutability": "nonpayable",
      "type": "constructor"
    },
    {
      "inputs": [],
      "name": "AgentNotActive",
      "type": "error"
    },
    {
      "inputs": [],
      "name": "InsufficientBalance",
      "type": "error"
    },
    {
      "inputs": [],
      "name": "NotAgentOwner",
      "type": "error"
    },
    {
      "inputs": [],
      "name": "NotAuthorizedModule",
      "type": "error"
    },
    {
      "inputs": [
        {
          "internalType": "address",
          "name": "owner",
          "type": "address"
        }
      ],
      "name": "OwnableInvalidOwner",
      "type": "error"
    },
    {
      "inputs": [
        {
          "internalType": "address",
          "name": "account",
          "type": "address"
        }
      ],
      "name": "OwnableUnauthorizedAccount",
      "type": "error"
    },
    {
      "inputs": [],
      "name": "ReentrancyGuardReentrantCall",
      "type": "error"
    },
    {
      "inputs": [],
      "name": "TransferFailed",
      "type": "error"
    },
    {
      "inputs": [],
      "name": "ZeroAddress",
      "type": "error"
    },
    {
      "inputs": [],
      "name": "ZeroAmount",
      "type": "error"
    },
    {
      "anonymous": false,
      "inputs": [
        {
          "indexed": true,
          "internalType": "uint256",
          "name": "agentId",
          "type": "uint256"
        },
        {
          "indexed": true,
          "internalType": "address",
          "name": "module",
          "type": "address"
        },
        {
          "indexed": false,
          "internalType": "uint256",
          "name": "amount",
          "type": "uint256"
        }
      ],
      "name": "CreditedByModule",
      "type": "event"
    },
    {
      "anonymous": false,
      "inputs": [
        {
          "indexed": true,
          "internalType": "uint256",
          "name": "agentId",
          "type": "uint256"
        },
        {
          "indexed": true,
          "internalType": "address",
          "name": "from",
          "type": "address"
        },
        {
          "indexed": false,
          "internalType": "uint256",
          "name": "amount",
          "type": "uint256"
        },
        {
          "indexed": false,
          "internalType": "uint256",
          "name": "newBalance",
          "type": "uint256"
        }
      ],
      "name": "Deposited",
      "type": "event"
    },
    {
      "anonymous": false,
      "inputs": [
        {
          "indexed": true,
          "internalType": "address",
          "name": "module",
          "type": "address"
        },
        {
          "indexed": false,
          "internalType": "bool",
          "name": "authorized",
          "type": "bool"
        }
      ],
      "name": "ModuleAuthorized",
      "type": "event"
    },
    {
      "anonymous": false,
      "inputs": [
        {
          "indexed": true,
          "internalType": "address",
          "name": "previousOwner",
          "type": "address"
        },
        {
          "indexed": true,
          "internalType": "address",
          "name": "newOwner",
          "type": "address"
        }
      ],
      "name": "OwnershipTransferred",
      "type": "event"
    },
    {
      "anonymous": false,
      "inputs": [
        {
          "indexed": true,
          "internalType": "uint256",
          "name": "agentId",
          "type": "uint256"
        },
        {
          "indexed": false,
          "internalType": "enum AgentEconomyHub.SurvivalTier",
          "name": "previousTier",
          "type": "uint8"
        },
        {
          "indexed": false,
          "internalType": "enum AgentEconomyHub.SurvivalTier",
          "name": "newTier",
          "type": "uint8"
        }
      ],
      "name": "TierChanged",
      "type": "event"
    },
    {
      "anonymous": false,
      "inputs": [
        {
          "indexed": true,
          "internalType": "uint256",
          "name": "fromAgent",
          "type": "uint256"
        },
        {
          "indexed": true,
          "internalType": "uint256",
          "name": "toAgent",
          "type": "uint256"
        },
        {
          "indexed": false,
          "internalType": "uint256",
          "name": "amount",
          "type": "uint256"
        }
      ],
      "name": "Transferred",
      "type": "event"
    },
    {
      "anonymous": false,
      "inputs": [
        {
          "indexed": true,
          "internalType": "uint256",
          "name": "agentId",
          "type": "uint256"
        },
        {
          "indexed": true,
          "internalType": "address",
          "name": "to",
          "type": "address"
        },
        {
          "indexed": false,
          "internalType": "uint256",
          "name": "amount",
          "type": "uint256"
        },
        {
          "indexed": false,
          "internalType": "uint256",
          "name": "newBalance",
          "type": "uint256"
        }
      ],
      "name": "Withdrawn",
      "type": "event"
    },
    {
      "inputs": [],
      "name": "TIER_CRITICAL_THRESHOLD",
      "outputs": [
        {
          "internalType": "uint256",
          "name": "",
          "type": "uint256"
        }
      ],
      "stateMutability": "view",
      "type": "function"
    },
    {
      "inputs": [],
      "name": "TIER_LOW_THRESHOLD",
      "outputs": [
        {
          "internalType": "uint256",
          "name": "",
          "type": "uint256"
        }
      ],
      "stateMutability": "view",
      "type": "function"
    },
    {
      "inputs": [],
      "name": "TIER_NORMAL_THRESHOLD",
      "outputs": [
        {
          "internalType": "uint256",
          "name": "",
          "type": "uint256"
        }
      ],
      "stateMutability": "view",
      "type": "function"
    },
    {
      "inputs": [],
      "name": "agentToken",
      "outputs": [
        {
          "internalType": "contract IAgentIdentity",
          "name": "",
          "type": "address"
        }
      ],
      "stateMutability": "view",
      "type": "function"
    },
    {
      "inputs": [
        {
          "internalType": "address",
          "name": "",
          "type": "address"
        }
      ],
      "name": "authorizedModules",
      "outputs": [
        {
          "internalType": "bool",
          "name": "",
          "type": "bool"
        }
      ],
      "stateMutability": "view",
      "type": "function"
    },
    {
      "inputs": [
        {
          "internalType": "uint256",
          "name": "",
          "type": "uint256"
        }
      ],
      "name": "balances",
      "outputs": [
        {
          "internalType": "uint256",
          "name": "",
          "type": "uint256"
        }
      ],
      "stateMutability": "view",
      "type": "function"
    },
    {
      "inputs": [
        {
          "internalType": "uint256",
          "name": "agentId",
          "type": "uint256"
        },
        {
          "internalType": "uint256",
          "name": "amount",
          "type": "uint256"
        }
      ],
      "name": "creditAgent",
      "outputs": [],
      "stateMutability": "payable",
      "type": "function"
    },
    {
      "inputs": [
        {
          "internalType": "uint256",
          "name": "agentId",
          "type": "uint256"
        },
        {
          "internalType": "uint256",
          "name": "amount",
          "type": "uint256"
        }
      ],
      "name": "debitAgent",
      "outputs": [],
      "stateMutability": "nonpayable",
      "type": "function"
    },
    {
      "inputs": [
        {
          "internalType": "uint256",
          "name": "agentId",
          "type": "uint256"
        }
      ],
      "name": "deposit",
      "outputs": [],
      "stateMutability": "payable",
      "type": "function"
    },
    {
      "inputs": [],
      "name": "getTierThresholds",
      "outputs": [
        {
          "internalType": "uint256",
          "name": "normal",
          "type": "uint256"
        },
        {
          "internalType": "uint256",
          "name": "lowCompute",
          "type": "uint256"
        },
        {
          "internalType": "uint256",
          "name": "critical",
          "type": "uint256"
        }
      ],
      "stateMutability": "pure",
      "type": "function"
    },
    {
      "inputs": [
        {
          "internalType": "uint256",
          "name": "agentId",
          "type": "uint256"
        }
      ],
      "name": "getWalletStats",
      "outputs": [
        {
          "internalType": "uint256",
          "name": "balance",
          "type": "uint256"
        },
        {
          "internalType": "uint256",
          "name": "earned",
          "type": "uint256"
        },
        {
          "internalType": "uint256",
          "name": "spent",
          "type": "uint256"
        },
        {
          "internalType": "enum AgentEconomyHub.SurvivalTier",
          "name": "tier",
          "type": "uint8"
        }
      ],
      "stateMutability": "view",
      "type": "function"
    },
    {
      "inputs": [],
      "name": "owner",
      "outputs": [
        {
          "internalType": "address",
          "name": "",
          "type": "address"
        }
      ],
      "stateMutability": "view",
      "type": "function"
    },
    {
      "inputs": [],
      "name": "renounceOwnership",
      "outputs": [],
      "stateMutability": "nonpayable",
      "type": "function"
    },
    {
      "inputs": [
        {
          "internalType": "address",
          "name": "module",
          "type": "address"
        },
        {
          "internalType": "bool",
          "name": "authorized",
          "type": "bool"
        }
      ],
      "name": "setModuleAuthorized",
      "outputs": [],
      "stateMutability": "nonpayable",
      "type": "function"
    },
    {
      "inputs": [
        {
          "internalType": "uint256",
          "name": "agentId",
          "type": "uint256"
        }
      ],
      "name": "survivalTier",
      "outputs": [
        {
          "internalType": "enum AgentEconomyHub.SurvivalTier",
          "name": "",
          "type": "uint8"
        }
      ],
      "stateMutability": "view",
      "type": "function"
    },
    {
      "inputs": [
        {
          "internalType": "uint256",
          "name": "",
          "type": "uint256"
        }
      ],
      "name": "totalEarned",
      "outputs": [
        {
          "internalType": "uint256",
          "name": "",
          "type": "uint256"
        }
      ],
      "stateMutability": "view",
      "type": "function"
    },
    {
      "inputs": [
        {
          "internalType": "uint256",
          "name": "",
          "type": "uint256"
        }
      ],
      "name": "totalSpent",
      "outputs": [
        {
          "internalType": "uint256",
          "name": "",
          "type": "uint256"
        }
      ],
      "stateMutability": "view",
      "type": "function"
    },
    {
      "inputs": [
        {
          "internalType": "uint256",
          "name": "fromAgentId",
          "type": "uint256"
        },
        {
          "internalType": "uint256",
          "name": "toAgentId",
          "type": "uint256"
        },
        {
          "internalType": "uint256",
          "name": "amount",
          "type": "uint256"
        }
      ],
      "name": "transfer",
      "outputs": [],
      "stateMutability": "nonpayable",
      "type": "function"
    },
    {
      "inputs": [
        {
          "internalType": "address",
          "name": "newOwner",
          "type": "address"
        }
      ],
      "name": "transferOwnership",
      "outputs": [],
      "stateMutability": "nonpayable",
      "type": "function"
    },
    {
      "inputs": [
        {
          "internalType": "uint256",
          "name": "agentId",
          "type": "uint256"
        },
        {
          "internalType": "uint256",
          "name": "amount",
          "type": "uint256"
        },
        {
          "internalType": "address",
          "name": "to",
          "type": "address"
        }
      ],
      "name": "withdraw",
      "outputs": [],
      "stateMutability": "nonpayable",
      "type": "function"
    }
  ],
  "bytecode": "0x60a0346100f957601f61111c38819003918201601f19168301916001600160401b038311848410176100fe578084926020946040528339810103126100f957516001600160a01b03808216918290036100f95733156100e0576000543360018060a01b0319821617600055604051913391167f8be0079c531659141344cd1fd0a4f28419497f9722a3daafe3b4186f6b6457e0600080a36001805581156100d157506080526040516110079081610115823960805181818161023c015281816103cb015281816105760152610bc30152f35b63d92e233d60e01b8152600490fd5b604051631e4fbdf760e01b815260006004820152602490fd5b600080fd5b634e487b7160e01b600052604160045260246000fdfe6040608081526004908136101561001557600080fd5b600091823560e01c9081630a62fbae14610d845781630ad58d2f14610b6f5781630ca3295914610b4857816317f6fe5b14610b0a5781634487815014610acc57816345d0bde214610aa95781634903b0d114610a815781635488ba931461091f5781636431d69014610886578163715018a61461082c5781638da5cb5b1461080457816390dd26271461052f578163a6f7986114610422578163a9fc0f73146103fa578163b05707e9146103b6578163b6b55f2514610202578163d74d730e146101d1578163ef2bdfd7146101ae578163f2fde38b14610123575063fb36f54b146100ff57600080fd5b3461011f578160031936011261011f5760209051662386f26fc100008152f35b5080fd5b9050346101aa5760203660031901126101aa5761013e610e00565b90610147610f85565b6001600160a01b0391821692831561019457505082546001600160a01b0319811683178455167f8be0079c531659141344cd1fd0a4f28419497f9722a3daafe3b4186f6b6457e08380a380f35b51631e4fbdf760e01b8152908101849052602490fd5b8280fd5b50503461011f578160031936011261011f5760209051670de0b6b3a76400008152f35b8284346101ff5760203660031901126101ff57506101fd6101f460209335610f10565b91518092610ddd565bf35b80fd5b9050602091826003193601126103b25781359161021d610f62565b34156103a4578151631c9696c760e11b815281810184905284816024817f00000000000000000000000000000000000000000000000000000000000000006001600160a01b03165afa90811561039a57869161036d575b501561035f5761028383610f10565b83865260028552828620610298348254610eab565b9055838652600385528286206102af348254610eab565b90556102ba84610f10565b918083101561034c578082101561034c57508183827fad5b4075b97dbf75ad5c78f7afac948e4ae611c4fdf2825e2ce3c6c96925bf3b959487940361031a575b505050855260028452808520548151943486528501523393a36001805580f35b610342600080516020610fb28339815191529361033984518094610ddd565b89830190610ddd565ba2823882816102fa565b634e487b7160e01b875260219052602486fd5b9051632437e77160e11b8152fd5b61038d9150853d8711610393575b6103858183610e31565b810190610ef8565b38610274565b503d61037b565b83513d88823e3d90fd5b9051631f2a200560e01b8152fd5b8380fd5b50503461011f578160031936011261011f57517f00000000000000000000000000000000000000000000000000000000000000006001600160a01b03168152602090f35b9050346101aa5760203660031901126101aa5760209282913581526003845220549051908152f35b9050346101aa5761043236610e1b565b929092338552600560205260ff8286205416156105215780156105135783855260026020528082862054106105055761046a84610f10565b908486526002602052828620610481828254610e88565b905584865283602052610498838720918254610eab565b90556104a384610f10565b92808410156104f257808210156104f257508281036104c0578480f35b6104e9600080516020610fb2833981519152936104df84518094610ddd565b6020830190610ddd565ba2388080808480f35b634e487b7160e01b865260219052602485fd5b5051631e9acf1760e31b8152fd5b5051631f2a200560e01b8152fd5b505163ae75444760e01b8152fd5b83833461011f57606036600319011261011f57823560249384359260443590610556610f62565b80516331a9108f60e11b8152838101859052602093906001600160a01b037f00000000000000000000000000000000000000000000000000000000000000008116919086828c81865afa9182156107fa578a926107cb575b50339116036107bc5783156107ad578588526002855283838920541061079e57848991845192838092631c9696c760e11b82528b878301525afa908115610794578891610777575b501561035f5761060585610f10565b9761060f87610f10565b9186895260028652838920610625868254610e88565b905586895280865283892061063b868254610eab565b905587895260028652838920610652868254610eab565b905587895260038652838920610669868254610eab565b905561067487610f10565b61067d89610f10565b9a82821015610765578281101561076557908582828b9403610733575b50505050808a101561072257808310156107225750509487828783999a7fe83ae817d487e687cf0dec47aa9522f61efb88e84a2bbfcbc46d96cddc9e33f29899036106f0575b5050505051908152a36001805580f35b610718600080516020610fb28339815191529361070f84518094610ddd565b88830190610ddd565ba2858882816106e0565b634e487b7160e01b89526021905287fd5b61075b600080516020610fb28339815191529361075284518094610ddd565b8b830190610ddd565ba2868b858161069a565b634e487b7160e01b8b5260218352838bfd5b61078e9150853d8711610393576103858183610e31565b896105f6565b83513d8a823e3d90fd5b509051631e9acf1760e31b8152fd5b509051631f2a200560e01b8152fd5b509051630e41dcbf60e21b8152fd5b6107ec919250873d89116107f3575b6107e48183610e31565b810190610e69565b908b6105ae565b503d6107da565b85513d8c823e3d90fd5b50503461011f578160031936011261011f57905490516001600160a01b039091168152602090f35b83346101ff57806003193601126101ff57610845610f85565b80546001600160a01b03198116825581906001600160a01b03167f8be0079c531659141344cd1fd0a4f28419497f9722a3daafe3b4186f6b6457e08280a380f35b919050346101aa57806003193601126101aa576108a1610e00565b906024359182151580930361091b576108b8610f85565b6001600160a01b031692831561090d57507f7bfed9e73cc01c459d482800942a9eef9046d01f68c4881d389495df294d10ca916020918486526005835280862060ff1981541660ff841617905551908152a280f35b905163d92e233d60e01b8152fd5b8480fd5b91905061092b36610e1b565b90338552600560205260ff838620541615610a72578115610a6357813410610a545761095681610f10565b818652600260205283862061096c848254610eab565b90558186526003602052838620610984848254610eab565b905561098f82610f10565b9085821015610a415785811015610a41579181858483948a979603610a18575b5091505051908282527f5f1032143f36c5c08be77b817c71e373f6c44d5676a3fd45191e18012f40124f60203393a38034116109e9575080f35b81806109f6819334610e88565b335af1610a01610eb8565b5015610a0b578280f35b516312171d8360e31b8152fd5b610a37600080516020610fb2833981519152936104df84518094610ddd565ba2803885816109af565b634e487b7160e01b875260218652602487fd5b505051631e9acf1760e31b8152fd5b505051631f2a200560e01b8152fd5b50505163ae75444760e01b8152fd5b9050346101aa5760203660031901126101aa5760209282913581526002845220549051908152f35b50503461011f578160031936011261011f576020905167016345785d8a00008152f35b50503461011f578160031936011261011f5780662386f26fc100006060925191670de0b6b3a7640000835267016345785d8a00006020840152820152f35b50503461011f57602036600319011261011f5760209160ff9082906001600160a01b03610b35610e00565b1681526005855220541690519015158152f35b9050346101aa5760203660031901126101aa57602092818392358252845220549051908152f35b919050346101aa5760603660031901126101aa576024356044356001600160a01b0380821690853590828403610d8057610ba7610f62565b85516331a9108f60e11b815287810183905260209182826024817f000000000000000000000000000000000000000000000000000000000000000085165afa918215610d76578a92610d57575b5033911603610d47578415610d37578215610d275781885260028152848689205410610d1757610c2382610f10565b82895260028252868920610c38878254610e88565b9055828952878252868920610c4e878254610eab565b9055610c5983610f10565b9088821015610d045788811015610d045793837f1c84cc0f96161bdafea718a9094dd21c21d1fb2f9ca2ebb9bd4e39918efbaace898c99958a99959788838b8d9c9b8d9c03610cd2575b50505088526002815281882054825191888352820152a35af1610cc4610eb8565b5015610a0b57826001805580f35b610cfa600080516020610fb283398151915293610cf184518094610ddd565b86830190610ddd565ba283388381610ca3565b634e487b7160e01b8a526021895260248afd5b8551631e9acf1760e31b81528790fd5b855163d92e233d60e01b81528790fd5b8551631f2a200560e01b81528790fd5b8551630e41dcbf60e21b81528790fd5b610d6f919250833d85116107f3576107e48183610e31565b9038610bf4565b88513d8c823e3d90fd5b8780fd5b919050346101aa5760203660031901126101aa57816101fd916080949335908185526002602052610dc981808720549660036020528181205495602052205492610f10565b928151958652602086015284015260608301905b906004821015610dea5752565b634e487b7160e01b600052602160045260246000fd5b600435906001600160a01b0382168203610e1657565b600080fd5b6040906003190112610e16576004359060243590565b90601f8019910116810190811067ffffffffffffffff821117610e5357604052565b634e487b7160e01b600052604160045260246000fd5b90816020910312610e1657516001600160a01b0381168103610e165790565b91908203918211610e9557565b634e487b7160e01b600052601160045260246000fd5b91908201809211610e9557565b3d15610ef3573d9067ffffffffffffffff8211610e535760405191610ee7601f8201601f191660200184610e31565b82523d6000602084013e565b606090565b90816020910312610e1657518015158103610e165790565b6000526002602052604060002054670de0b6b3a7640000811015610f5c5767016345785d8a0000811015610f5657662386f26fc100001115610f5157600090565b600190565b50600290565b50600390565b600260015414610f73576002600155565b604051633ee5aeb560e01b8152600490fd5b6000546001600160a01b03163303610f9957565b60405163118cdaa760e01b8152336004820152602490fdfee4617657d9254e34fea36fd76ef71aea57ff771484a00d5a0874fcdb7641b489a2646970667358221220e22c49b120bf5291d989c4b33657942ef415b929cc46983120cd96aff0716d2d64736f6c63430008180033",
  "linkReferences": {},
  "deployedLinkReferences": {}
}